{
  "_format": "hh-sol-artifact-1",
  "contractName": "SimpleVerifier",
  "sourceName": "contracts/ucl/image9/nova/test/generated/simple_verifier.sol",
  "abi": [
    {
      "inputs": [
        {
          "internalType": "bytes",
          "name": "data",
          "type": "bytes"
        }
      ],
      "name": "verify",
      "outputs": [
        {
          "internalType": "uint256",
          "name": "",
          "type": "uint256"
        },
        {
          "internalType": "Fr[]",
          "name": "",
          "type": "uint256[]"
        },
        {
          "internalType": "Fr[]",
          "name": "",
          "type": "uint256[]"
        }
      ],
      "stateMutability": "view",
      "type": "function"
    }
  ],
  "bytecode": "0x60806040523460195760405161045b61001f823961045b90f35b600080fdfe6080604052600436101561001257600080fd5b60003560e01c638e760afe0361005757610133565b909182601f830112156100575781359167ffffffffffffffff831161005757602001926001830284011161005757565b600080fd5b9060208282031261005757813567ffffffffffffffff8111610057576100829201610027565b9091565b9052565b6100976100976100979290565b90565b6100869061008a565b906100b08160209361009a565b0190565b906100d46100cd6100c3845190565b8084529260200190565b9260200190565b9060005b8181106100e55750505090565b9091926100ff6100f860019286516100a3565b9460200190565b9291016100d8565b908152606060208201819052610097939192610125918401906100b4565b9160408184039101526100b4565b346100575761015e61014f61014936600461005c565b90610381565b60405191939193849384610107565b0390f35b634e487b7160e01b600052604160045260246000fd5b90601f01601f1916810190811067ffffffffffffffff82111761019a57604052565b610162565b906101b36101ac60405190565b9283610178565b565b610097602061019f565b6101c76101b5565b9060608252565b6100976101bf565b67ffffffffffffffff811161019a57602090601f01601f19160190565b90826000939282370152565b9092919261021461020f826101d6565b61019f565b9381855281830111610057576101b39160208501906101f3565b6100979136916101ff565b67ffffffffffffffff811161019a5760208091020190565b9092919261026161020f82610239565b938185526020808601920283019281841161005757915b8383106102855750505050565b8251815260209283019201610278565b9080601f8301121561005757815161009792602001610251565b9160608383031261005757825192602081015167ffffffffffffffff811161005757836102dd918301610295565b92604082015167ffffffffffffffff8111610057576100979201610295565b60005b83811061030f5750506000910152565b81810151838201526020016102ff565b6103406103496020936100b093610334815190565b80835293849260200190565b958691016102fc565b601f01601f191690565b51602080835261009792019061031f565b602080825261009792910190610353565b6040513d6000823e3d90fd5b6000906103a26103d893610393600090565b5061039c6101ce565b9261022e565b8183015273__$5354bfe44937a23251cb74f1c3bd9e72fd$__60405193849283918291632d03b6d960e01b835260048301610364565b03915af491821561042057600080809390946103f5575b50929190565b9193505061041691503d806000833e61040e8183610178565b8101906102af565b91389391936103ef565b61037556fea264697066735822122032ea3f56fbbd332d37dfeaebf22737cfc5da24fbeea1b17e32b85a7bf2afeec664736f6c63430008190033",
  "linkReferences": {
    "contracts/ucl/image9/nova/sol/verifier.sol": {
      "ZkVerifier": [
        {
          "length": 20,
          "start": 967
        }
      ]
    }
  },
  "deployedLinkReferences": {
    "contracts/ucl/image9/nova/sol/verifier.sol": {
      "ZkVerifier": [
        {
          "length": 20,
          "start": 936
        }
      ]
    }
  }
}