{
  "_format": "hh-sol-artifact-1",
  "contractName": "TokenScBase",
  "sourceName": "contracts/ucl/image9/base/TokenScBase.sol",
  "abi": [
    {
      "inputs": [
        {
          "internalType": "enum TokenSCTypeEnum",
          "name": "tokenSCType",
          "type": "uint8"
        },
        {
          "internalType": "contract IL2Event",
          "name": "l2Event",
          "type": "address"
        }
      ],
      "stateMutability": "nonpayable",
      "type": "constructor"
    },
    {
      "inputs": [
        {
          "internalType": "address",
          "name": "account",
          "type": "address"
        }
      ],
      "name": "addBankAccount",
      "outputs": [],
      "stateMutability": "nonpayable",
      "type": "function"
    },
    {
      "inputs": [
        {
          "internalType": "uint256",
          "name": "tokenId",
          "type": "uint256"
        }
      ],
      "name": "burnToken",
      "outputs": [],
      "stateMutability": "nonpayable",
      "type": "function"
    },
    {
      "inputs": [
        {
          "internalType": "uint256",
          "name": "tokenId",
          "type": "uint256"
        }
      ],
      "name": "cancelDvpReservation",
      "outputs": [],
      "stateMutability": "nonpayable",
      "type": "function"
    },
    {
      "inputs": [
        {
          "internalType": "uint256",
          "name": "tokenId",
          "type": "uint256"
        },
        {
          "internalType": "address",
          "name": "from",
          "type": "address"
        },
        {
          "internalType": "address",
          "name": "toManager",
          "type": "address"
        },
        {
          "internalType": "address",
          "name": "to",
          "type": "address"
        }
      ],
      "name": "commitDVP",
      "outputs": [],
      "stateMutability": "nonpayable",
      "type": "function"
    },
    {
      "inputs": [
        {
          "internalType": "address",
          "name": "owner",
          "type": "address"
        },
        {
          "internalType": "address",
          "name": "manager",
          "type": "address"
        },
        {
          "internalType": "uint256",
          "name": "tokenType",
          "type": "uint256"
        },
        {
          "internalType": "uint256",
          "name": "amount",
          "type": "uint256"
        },
        {
          "internalType": "uint256",
          "name": "tokenId",
          "type": "uint256"
        }
      ],
      "name": "convertPlainToPrivateToken",
      "outputs": [],
      "stateMutability": "nonpayable",
      "type": "function"
    },
    {
      "inputs": [
        {
          "components": [
            {
              "internalType": "uint256",
              "name": "id",
              "type": "uint256"
            },
            {
              "internalType": "address",
              "name": "owner",
              "type": "address"
            },
            {
              "internalType": "uint256",
              "name": "cl_x",
              "type": "uint256"
            },
            {
              "internalType": "uint256",
              "name": "cl_y",
              "type": "uint256"
            },
            {
              "internalType": "uint256",
              "name": "cr_x",
              "type": "uint256"
            },
            {
              "internalType": "uint256",
              "name": "cr_y",
              "type": "uint256"
            }
          ],
          "internalType": "struct TokenModel.TokenValueUpdate",
          "name": "parentTokenUpdate",
          "type": "tuple"
        },
        {
          "components": [
            {
              "internalType": "uint256",
              "name": "id",
              "type": "uint256"
            },
            {
              "internalType": "uint256",
              "name": "tokenType",
              "type": "uint256"
            },
            {
              "internalType": "address",
              "name": "owner",
              "type": "address"
            },
            {
              "internalType": "address",
              "name": "manager",
              "type": "address"
            },
            {
              "internalType": "uint256",
              "name": "cl_x",
              "type": "uint256"
            },
            {
              "internalType": "uint256",
              "name": "cl_y",
              "type": "uint256"
            },
            {
              "internalType": "uint256",
              "name": "cr_x",
              "type": "uint256"
            },
            {
              "internalType": "uint256",
              "name": "cr_y",
              "type": "uint256"
            },
            {
              "internalType": "enum TokenModel.TokenStatus",
              "name": "status",
              "type": "uint8"
            },
            {
              "internalType": "bytes",
              "name": "encryptedAmount",
              "type": "bytes"
            },
            {
              "internalType": "uint256",
              "name": "rollbackTokenId",
              "type": "uint256"
            }
          ],
          "internalType": "struct TokenModel.NewToken[]",
          "name": "childTokens",
          "type": "tuple[]"
        },
        {
          "internalType": "bytes",
          "name": "proof",
          "type": "bytes"
        }
      ],
      "name": "delegateTransferToken",
      "outputs": [],
      "stateMutability": "nonpayable",
      "type": "function"
    },
    {
      "inputs": [
        {
          "internalType": "address",
          "name": "",
          "type": "address"
        },
        {
          "internalType": "uint256",
          "name": "",
          "type": "uint256"
        }
      ],
      "name": "ercBalancenMap",
      "outputs": [
        {
          "internalType": "uint256",
          "name": "",
          "type": "uint256"
        }
      ],
      "stateMutability": "view",
      "type": "function"
    },
    {
      "inputs": [
        {
          "internalType": "address",
          "name": "",
          "type": "address"
        }
      ],
      "name": "isBankAccount",
      "outputs": [
        {
          "internalType": "bool",
          "name": "",
          "type": "bool"
        }
      ],
      "stateMutability": "view",
      "type": "function"
    },
    {
      "inputs": [
        {
          "internalType": "address",
          "name": "spender",
          "type": "address"
        },
        {
          "components": [
            {
              "internalType": "uint256[]",
              "name": "id",
              "type": "uint256[]"
            },
            {
              "internalType": "address",
              "name": "owner",
              "type": "address"
            },
            {
              "internalType": "uint256",
              "name": "cl_x",
              "type": "uint256"
            },
            {
              "internalType": "uint256",
              "name": "cl_y",
              "type": "uint256"
            },
            {
              "internalType": "uint256",
              "name": "cr_x",
              "type": "uint256"
            },
            {
              "internalType": "uint256",
              "name": "cr_y",
              "type": "uint256"
            }
          ],
          "internalType": "struct TokenModel.TokenMergeAndUpdate",
          "name": "parentTokenUpdate",
          "type": "tuple"
        },
        {
          "components": [
            {
              "internalType": "uint256",
              "name": "id",
              "type": "uint256"
            },
            {
              "internalType": "uint256",
              "name": "tokenType",
              "type": "uint256"
            },
            {
              "internalType": "address",
              "name": "owner",
              "type": "address"
            },
            {
              "internalType": "address",
              "name": "manager",
              "type": "address"
            },
            {
              "internalType": "uint256",
              "name": "cl_x",
              "type": "uint256"
            },
            {
              "internalType": "uint256",
              "name": "cl_y",
              "type": "uint256"
            },
            {
              "internalType": "uint256",
              "name": "cr_x",
              "type": "uint256"
            },
            {
              "internalType": "uint256",
              "name": "cr_y",
              "type": "uint256"
            },
            {
              "internalType": "enum TokenModel.TokenStatus",
              "name": "status",
              "type": "uint8"
            },
            {
              "internalType": "bytes",
              "name": "encryptedAmount",
              "type": "bytes"
            },
            {
              "internalType": "uint256",
              "name": "rollbackTokenId",
              "type": "uint256"
            }
          ],
          "internalType": "struct TokenModel.NewToken[]",
          "name": "childTokens",
          "type": "tuple[]"
        },
        {
          "internalType": "bytes",
          "name": "proof",
          "type": "bytes"
        }
      ],
      "name": "mergeAndSplitTokenForDVP",
      "outputs": [],
      "stateMutability": "nonpayable",
      "type": "function"
    },
    {
      "inputs": [
        {
          "internalType": "uint256[]",
          "name": "childTokens",
          "type": "uint256[]"
        },
        {
          "components": [
            {
              "internalType": "uint256",
              "name": "id",
              "type": "uint256"
            },
            {
              "internalType": "address",
              "name": "owner",
              "type": "address"
            },
            {
              "internalType": "uint256",
              "name": "cl_x",
              "type": "uint256"
            },
            {
              "internalType": "uint256",
              "name": "cl_y",
              "type": "uint256"
            },
            {
              "internalType": "uint256",
              "name": "cr_x",
              "type": "uint256"
            },
            {
              "internalType": "uint256",
              "name": "cr_y",
              "type": "uint256"
            }
          ],
          "internalType": "struct TokenModel.TokenValueUpdate",
          "name": "mergeTokenUpdate",
          "type": "tuple"
        }
      ],
      "name": "mergeTokens",
      "outputs": [],
      "stateMutability": "nonpayable",
      "type": "function"
    },
    {
      "inputs": [
        {
          "components": [
            {
              "internalType": "uint256",
              "name": "id",
              "type": "uint256"
            },
            {
              "internalType": "uint256",
              "name": "tokenType",
              "type": "uint256"
            },
            {
              "internalType": "address",
              "name": "owner",
              "type": "address"
            },
            {
              "internalType": "address",
              "name": "manager",
              "type": "address"
            },
            {
              "internalType": "uint256",
              "name": "cl_x",
              "type": "uint256"
            },
            {
              "internalType": "uint256",
              "name": "cl_y",
              "type": "uint256"
            },
            {
              "internalType": "uint256",
              "name": "cr_x",
              "type": "uint256"
            },
            {
              "internalType": "uint256",
              "name": "cr_y",
              "type": "uint256"
            },
            {
              "internalType": "enum TokenModel.TokenStatus",
              "name": "status",
              "type": "uint8"
            },
            {
              "internalType": "bytes",
              "name": "encryptedAmount",
              "type": "bytes"
            },
            {
              "internalType": "uint256",
              "name": "rollbackTokenId",
              "type": "uint256"
            }
          ],
          "internalType": "struct TokenModel.NewToken",
          "name": "token",
          "type": "tuple"
        },
        {
          "internalType": "bytes",
          "name": "proof",
          "type": "bytes"
        }
      ],
      "name": "mintToken",
      "outputs": [],
      "stateMutability": "nonpayable",
      "type": "function"
    },
    {
      "inputs": [
        {
          "internalType": "address",
          "name": "account",
          "type": "address"
        }
      ],
      "name": "removeBankAccount",
      "outputs": [],
      "stateMutability": "nonpayable",
      "type": "function"
    },
    {
      "inputs": [
        {
          "internalType": "address",
          "name": "owner",
          "type": "address"
        },
        {
          "internalType": "uint256",
          "name": "tokenId",
          "type": "uint256"
        }
      ],
      "name": "removeToken",
      "outputs": [],
      "stateMutability": "nonpayable",
      "type": "function"
    },
    {
      "inputs": [
        {
          "internalType": "address",
          "name": "owner",
          "type": "address"
        },
        {
          "internalType": "uint256",
          "name": "tokenId",
          "type": "uint256"
        }
      ],
      "name": "rollbackDVP",
      "outputs": [],
      "stateMutability": "nonpayable",
      "type": "function"
    },
    {
      "inputs": [],
      "name": "scOwner",
      "outputs": [
        {
          "internalType": "address",
          "name": "",
          "type": "address"
        }
      ],
      "stateMutability": "view",
      "type": "function"
    },
    {
      "inputs": [
        {
          "components": [
            {
              "internalType": "uint256",
              "name": "id",
              "type": "uint256"
            },
            {
              "internalType": "address",
              "name": "owner",
              "type": "address"
            },
            {
              "internalType": "uint256",
              "name": "cl_x",
              "type": "uint256"
            },
            {
              "internalType": "uint256",
              "name": "cl_y",
              "type": "uint256"
            },
            {
              "internalType": "uint256",
              "name": "cr_x",
              "type": "uint256"
            },
            {
              "internalType": "uint256",
              "name": "cr_y",
              "type": "uint256"
            }
          ],
          "internalType": "struct TokenModel.TokenValueUpdate",
          "name": "parentTokenUpdate",
          "type": "tuple"
        },
        {
          "components": [
            {
              "internalType": "uint256",
              "name": "id",
              "type": "uint256"
            },
            {
              "internalType": "uint256",
              "name": "tokenType",
              "type": "uint256"
            },
            {
              "internalType": "address",
              "name": "owner",
              "type": "address"
            },
            {
              "internalType": "address",
              "name": "manager",
              "type": "address"
            },
            {
              "internalType": "uint256",
              "name": "cl_x",
              "type": "uint256"
            },
            {
              "internalType": "uint256",
              "name": "cl_y",
              "type": "uint256"
            },
            {
              "internalType": "uint256",
              "name": "cr_x",
              "type": "uint256"
            },
            {
              "internalType": "uint256",
              "name": "cr_y",
              "type": "uint256"
            },
            {
              "internalType": "enum TokenModel.TokenStatus",
              "name": "status",
              "type": "uint8"
            },
            {
              "internalType": "bytes",
              "name": "encryptedAmount",
              "type": "bytes"
            },
            {
              "internalType": "uint256",
              "name": "rollbackTokenId",
              "type": "uint256"
            }
          ],
          "internalType": "struct TokenModel.NewToken[]",
          "name": "childTokens",
          "type": "tuple[]"
        },
        {
          "internalType": "bytes",
          "name": "proof",
          "type": "bytes"
        }
      ],
      "name": "splitToken",
      "outputs": [],
      "stateMutability": "nonpayable",
      "type": "function"
    },
    {
      "inputs": [
        {
          "internalType": "address",
          "name": "spender",
          "type": "address"
        },
        {
          "components": [
            {
              "internalType": "uint256",
              "name": "id",
              "type": "uint256"
            },
            {
              "internalType": "address",
              "name": "owner",
              "type": "address"
            },
            {
              "internalType": "uint256",
              "name": "cl_x",
              "type": "uint256"
            },
            {
              "internalType": "uint256",
              "name": "cl_y",
              "type": "uint256"
            },
            {
              "internalType": "uint256",
              "name": "cr_x",
              "type": "uint256"
            },
            {
              "internalType": "uint256",
              "name": "cr_y",
              "type": "uint256"
            }
          ],
          "internalType": "struct TokenModel.TokenValueUpdate",
          "name": "parentTokenUpdate",
          "type": "tuple"
        },
        {
          "components": [
            {
              "components": [
                {
                  "internalType": "uint256",
                  "name": "id",
                  "type": "uint256"
                },
                {
                  "internalType": "uint256",
                  "name": "tokenType",
                  "type": "uint256"
                },
                {
                  "internalType": "address",
                  "name": "owner",
                  "type": "address"
                },
                {
                  "internalType": "address",
                  "name": "manager",
                  "type": "address"
                },
                {
                  "internalType": "uint256",
                  "name": "cl_x",
                  "type": "uint256"
                },
                {
                  "internalType": "uint256",
                  "name": "cl_y",
                  "type": "uint256"
                },
                {
                  "internalType": "uint256",
                  "name": "cr_x",
                  "type": "uint256"
                },
                {
                  "internalType": "uint256",
                  "name": "cr_y",
                  "type": "uint256"
                },
                {
                  "internalType": "enum TokenModel.TokenStatus",
                  "name": "status",
                  "type": "uint8"
                },
                {
                  "internalType": "bytes",
                  "name": "encryptedAmount",
                  "type": "bytes"
                },
                {
                  "internalType": "uint256",
                  "name": "rollbackTokenId",
                  "type": "uint256"
                }
              ],
              "internalType": "struct TokenModel.NewToken[]",
              "name": "token",
              "type": "tuple[]"
            },
            {
              "internalType": "uint256",
              "name": "rollbackPkX",
              "type": "uint256"
            },
            {
              "internalType": "uint256",
              "name": "rollbackPkY",
              "type": "uint256"
            },
            {
              "internalType": "uint256",
              "name": "receiverPkX",
              "type": "uint256"
            },
            {
              "internalType": "uint256",
              "name": "receiverPkY",
              "type": "uint256"
            }
          ],
          "internalType": "struct TokenModel.NewBatchToken[]",
          "name": "childTokens",
          "type": "tuple[]"
        },
        {
          "internalType": "bytes",
          "name": "proof",
          "type": "bytes"
        }
      ],
      "name": "splitTokenForBatchDVP",
      "outputs": [],
      "stateMutability": "nonpayable",
      "type": "function"
    },
    {
      "inputs": [
        {
          "internalType": "address",
          "name": "spender",
          "type": "address"
        },
        {
          "components": [
            {
              "internalType": "uint256",
              "name": "id",
              "type": "uint256"
            },
            {
              "internalType": "address",
              "name": "owner",
              "type": "address"
            },
            {
              "internalType": "uint256",
              "name": "cl_x",
              "type": "uint256"
            },
            {
              "internalType": "uint256",
              "name": "cl_y",
              "type": "uint256"
            },
            {
              "internalType": "uint256",
              "name": "cr_x",
              "type": "uint256"
            },
            {
              "internalType": "uint256",
              "name": "cr_y",
              "type": "uint256"
            }
          ],
          "internalType": "struct TokenModel.TokenValueUpdate",
          "name": "parentTokenUpdate",
          "type": "tuple"
        },
        {
          "components": [
            {
              "internalType": "uint256",
              "name": "id",
              "type": "uint256"
            },
            {
              "internalType": "uint256",
              "name": "tokenType",
              "type": "uint256"
            },
            {
              "internalType": "address",
              "name": "owner",
              "type": "address"
            },
            {
              "internalType": "address",
              "name": "manager",
              "type": "address"
            },
            {
              "internalType": "uint256",
              "name": "cl_x",
              "type": "uint256"
            },
            {
              "internalType": "uint256",
              "name": "cl_y",
              "type": "uint256"
            },
            {
              "internalType": "uint256",
              "name": "cr_x",
              "type": "uint256"
            },
            {
              "internalType": "uint256",
              "name": "cr_y",
              "type": "uint256"
            },
            {
              "internalType": "enum TokenModel.TokenStatus",
              "name": "status",
              "type": "uint8"
            },
            {
              "internalType": "bytes",
              "name": "encryptedAmount",
              "type": "bytes"
            },
            {
              "internalType": "uint256",
              "name": "rollbackTokenId",
              "type": "uint256"
            }
          ],
          "internalType": "struct TokenModel.NewToken[]",
          "name": "childTokens",
          "type": "tuple[]"
        },
        {
          "internalType": "bytes",
          "name": "proof",
          "type": "bytes"
        }
      ],
      "name": "splitTokenForDVP",
      "outputs": [],
      "stateMutability": "nonpayable",
      "type": "function"
    },
    {
      "inputs": [
        {
          "internalType": "uint256",
          "name": "tokenId",
          "type": "uint256"
        },
        {
          "internalType": "address",
          "name": "toManager",
          "type": "address"
        },
        {
          "internalType": "address",
          "name": "to",
          "type": "address"
        }
      ],
      "name": "transferToken",
      "outputs": [],
      "stateMutability": "nonpayable",
      "type": "function"
    },
    {
      "inputs": [
        {
          "internalType": "address",
          "name": "",
          "type": "address"
        },
        {
          "internalType": "uint256",
          "name": "",
          "type": "uint256"
        }
      ],
      "name": "userTokenMap",
      "outputs": [
        {
          "internalType": "uint256",
          "name": "id",
          "type": "uint256"
        },
        {
          "internalType": "uint256",
          "name": "tokenType",
          "type": "uint256"
        },
        {
          "internalType": "address",
          "name": "owner",
          "type": "address"
        },
        {
          "internalType": "address",
          "name": "manager",
          "type": "address"
        },
        {
          "internalType": "uint256",
          "name": "cl_x",
          "type": "uint256"
        },
        {
          "internalType": "uint256",
          "name": "cl_y",
          "type": "uint256"
        },
        {
          "internalType": "uint256",
          "name": "cr_x",
          "type": "uint256"
        },
        {
          "internalType": "uint256",
          "name": "cr_y",
          "type": "uint256"
        },
        {
          "internalType": "bytes",
          "name": "encryptedAmount",
          "type": "bytes"
        },
        {
          "internalType": "enum TokenModel.TokenStatus",
          "name": "status",
          "type": "uint8"
        },
        {
          "internalType": "uint256",
          "name": "parentId",
          "type": "uint256"
        },
        {
          "internalType": "address",
          "name": "approvedSpender",
          "type": "address"
        },
        {
          "internalType": "uint256",
          "name": "rollbackTokenId",
          "type": "uint256"
        }
      ],
      "stateMutability": "view",
      "type": "function"
    },
    {
      "inputs": [
        {
          "internalType": "uint256",
          "name": "tokenId",
          "type": "uint256"
        },
        {
          "internalType": "address",
          "name": "from",
          "type": "address"
        },
        {
          "internalType": "address",
          "name": "toManager",
          "type": "address"
        },
        {
          "internalType": "address",
          "name": "to",
          "type": "address"
        }
      ],
      "name": "validateDVP",
      "outputs": [
        {
          "internalType": "bool",
          "name": "",
          "type": "bool"
        }
      ],
      "stateMutability": "nonpayable",
      "type": "function"
    }
  ],
  "bytecode": "0x60806040523461002b5761001a6100146100e9565b9061020f565b6040516142726102ba823961427290f35b600080fd5b634e487b7160e01b600052604160045260246000fd5b90601f01601f191681019081106001600160401b0382111761006757604052565b610030565b9061008061007960405190565b9283610046565b565b6002111561002b57565b9050519061008082610082565b6001600160a01b031690565b90565b6001600160a01b0381160361002b57565b90505190610080826100a8565b919060408382031261002b576100a59060206100e2828661008c565b94016100b9565b61010761452c803803806100fc8161006c565b9283398101906100c6565b9091565b6100a590610099906001600160a01b031682565b6100a59061010b565b6100a59061011f565b906101416100a561015d92610128565b82546001600160a01b0319166001600160a01b03919091161790565b9055565b600091031261002b57565b61017590610128565b9052565b634e487b7160e01b600052602160045260246000fd5b6002111561019957565b610179565b906100808261018f565b6100a59061019e565b610175906101a8565b6101fc610080946101ec6060949897956101dc608086019a600087019061016c565b6001600160a01b03166020850152565b6001600160a01b03166040830152565b01906101b1565b6040513d6000823e3d90fd5b906102269061021f336003610131565b6004610131565b73__$e2f1b368e0f9a9db875dcb0fbb5a4aff7b$__61024d6004546001600160a01b031690565b9161025730610128565b91803b1561002b5761028b9360009361026f60405190565b9586948593849363468dea5760e11b85523391600486016101ba565b03915af480156102b45761029c5750565b6100809060006102ac8183610046565b810190610161565b61020356fe6080604052600436101561001257600080fd5b60003560e01c806313baf1e6146101625780631425332b1461015d5780631698ca49146101585780631e0bd7891461015357806327cabc3f1461014e5780632e17ddef1461014957806333f57ed2146101445780634a2a1fb01461013f5780635c30d1721461013a5780637175783a1461013557806372b75ead146101305780637b47ec1a1461012b5780638d09b6ef1461012657806395ea04c314610121578063ae6211e61461011c578063af97919d14610117578063c0aa18bd14610112578063e40e6f061461010d578063f25a3d1314610108578063f4613c33146101035763fd3ee1480361018857610b85565b610b40565b610b27565b610afb565b610aad565b610a6f565b6106bc565b6106a3565b610651565b610639565b610606565b61055f565b61050e565b6104f5565b6104ad565b610480565b6103f5565b61039c565b61031a565b6102b9565b6101d2565b6001600160a01b031690565b90565b6001600160a01b0381165b0361018857565b600080fd5b9050359061019a82610176565b565b80610181565b9050359061019a8261019c565b9190604083820312610188576101739060206101cb828661018d565b94016101a2565b34610188576101eb6101e53660046101af565b90610ddb565b604051005b0390f35b908160c09103126101885790565b909182601f83011215610188578135916001600160401b03831161018857602001926020830284011161018857565b909182601f83011215610188578135916001600160401b03831161018857602001926001830284011161018857565b610100818303126101885761027582826101f4565b9260c08201356001600160401b0381116101885783610295918401610202565b92909360e08201356001600160401b038111610188576102b59201610231565b9091565b34610188576101eb6102cc366004610260565b93929092611a4d565b919060a083820312610188576102eb818461018d565b926102f9826020830161018d565b9261017361030a84604085016101a2565b9360806101cb82606087016101a2565b34610188576101eb61032d3660046102d5565b93929092611bf9565b9190610120838203126101885761034d818461018d565b9261035b82602083016101f4565b9260e08201356001600160401b038111610188578361037b918401610202565b9290936101008201356001600160401b038111610188576102b59201610231565b34610188576101eb6103af366004610336565b94939093929192611fa6565b600091031261018857565b610173916008021c6001600160a01b031690565b9061017391546103c6565b610173600060036103da565b9052565b34610188576104053660046103bb565b6101f06104106103e5565b604051918291826001600160a01b03909116815260200190565b90816101609103126101885790565b9190916040818403126101885780356001600160401b038111610188578361046291830161042a565b9260208201356001600160401b038111610188576102b59201610231565b34610188576101eb610493366004610439565b91612183565b90602082820312610188576101739161018d565b34610188576101eb6104c0366004610499565b612243565b9091606082840312610188576101736104de84846101a2565b9360406104ee826020870161018d565b940161018d565b34610188576101eb6105083660046104c5565b9161227f565b34610188576101eb610521366004610260565b939290926125d6565b6080818303126101885761053e82826101a2565b9261017361054f846020850161018d565b9360606104ee826040870161018d565b34610188576101f061057e61057536600461052a565b92919091612609565b60405191829182901515815260200190565b9190608083820312610188576105a6818461018d565b9260208101356001600160401b03811161018857826105c69183016101f4565b9260408201356001600160401b03811161018857836105e6918401610202565b92909360608201356001600160401b038111610188576102b59201610231565b34610188576101eb610619366004610590565b9493909392919261320d565b9060208282031261018857610173916101a2565b34610188576101eb61064c366004610625565b61321b565b34610188576101eb61066436600461052a565b929190916138a3565b9160e0838303126101885782356001600160401b038111610188578261069a602094610173938701610202565b949095016101f4565b34610188576101eb6106b636600461066d565b91613c81565b34610188576101eb6106cf366004610499565b613cb0565b61017390610167906001600160a01b031682565b610173906106d4565b610173906106e8565b90610704906106f1565b600052602052604060002090565b6101736101736101739290565b9061070490610712565b6101739081565b6101739054610729565b61017390610167565b610173905461073a565b634e487b7160e01b600052602260045260246000fd5b9060016002830492168015610783575b602083101461077e57565b61074d565b91607f1691610773565b805460009392916107aa6107a083610763565b8085529360200190565b91600181169081156107fc57506001146107c357505050565b6107d69192939450600052602060002090565b916000925b8184106107e85750500190565b8054848401526020909301926001016107db565b92949550505060ff1916825215156020020190565b906101739161078d565b634e487b7160e01b600052604160045260246000fd5b90601f01601f191681019081106001600160401b0382111761085257604052565b61081b565b9061019a6108719261086860405190565b93848092610811565b0383610831565b610173905b60ff1690565b6101739054610878565b9061089c6108a19260006106fa565b61071f565b6108aa81610730565b916108b760018301610730565b916108c460028201610743565b916108d160038301610743565b916108de60048201610730565b916108eb60058301610730565b916108f860068201610730565b9161090560078301610730565b9161091260088201610857565b9161091f60098301610883565b9161092c600a8201610730565b91610173600c61093e600b8501610743565b9301610730565b60005b8381106109585750506000910152565b8181015183820152602001610948565b61098961099260209361099c9361097d815190565b80835293849260200190565b95869101610945565b601f01601f191690565b0190565b634e487b7160e01b600052602160045260246000fd5b600411156109c057565b6109a0565b9061019a826109b6565b610173906109c5565b6103f1906109cf565b90815260208101919091526001600160a01b039091166040820152969a9998969795946101a08901949093909290916001600160a01b031660608a0152608089015260a088015260c087015260e0860152848103610100860152610a4491610968565b956101208401610a53916109d8565b6101408301526001600160a01b03166101608201526101800152565b34610188576101f0610a8b610a853660046101af565b9061088d565b99610aa49d9b9d99919998929897939796949660405190565b9d8e9d8e6109e1565b34610188576101eb610ac0366004610336565b94939093929192613fd2565b610173916008021c81565b906101739154610acc565b610af66101739261089c60009360016106fa565b610ad7565b34610188576101f0610b17610b113660046101af565b90610ae2565b6040519182918290815260200190565b34610188576101eb610b3a3660046101af565b90613fe0565b34610188576101eb610b53366004610625565b614118565b610173916008021c61087d565b906101739154610b58565b6000610b806101739260026106fa565b610b65565b34610188576101f061057e610b9b366004610499565b610b70565b15610ba757565b60405162461bcd60e51b815260206004820152602860248201527f4f6e6c792062616e6b206163636f756e742063616e2063616c6c207468697320604482015267333ab731ba34b7b760c11b6064820152608490fd5b0390fd5b9061019a91610c21610c1c610c173360026106fa565b610883565b610ba0565b610cb9565b9081526001600160a01b03909116602082015260608101929161019a9160400152565b0152565b6040513d6000823e3d90fd5b6103f1906106f1565b9095949261019a94610ca9610c4992610c99608096610c8960a088019c6000890190610c59565b6001600160a01b03166020870152565b6001600160a01b03166040850152565b6001600160a01b03166060830152565b600091610cd56003610ccf8361089c86886106fa565b01610743565b73__$edb75297df75b3bb63d14c4c10f6d8b13b$__803b156101885784610cfb60405190565b91829063c1c59dad60e01b82528180610d19888a8760048501610c26565b03915af48015610dba57610dbf575b5073__$e2f1b368e0f9a9db875dcb0fbb5a4aff7b$__610d486004610743565b610d51306106f1565b90823b1561018857610d828795610d6760405190565b97889687958695639150f98360e01b5b875260048701610c62565b03915af48015610dba57610d94575050565b8161019a92903d10610db3575b610dab8183610831565b8101906103bb565b503d610da1565b610c4d565b610dd590853d8711610db357610dab8183610831565b38610d28565b9061019a91610c01565b9061019a610df260405190565b9283610831565b919060c08382031261018857610e709060a0610e1560c0610de5565b94610e2083826101a2565b8652610e2f836020830161018d565b6020870152610e4183604083016101a2565b6040870152610e5383606083016101a2565b6060870152610e6583608083016101a2565b6080870152016101a2565b60a0830152565b610173903690610df9565b15610e8957565b60405162461bcd60e51b815260206004820152602260248201527f696e76616c696420706172656e74546f6b656e55706461746520706172656e74604482015261125960f21b6064820152608490fd5b6101676101736101739290565b61017390610ed9565b15610ef657565b60405162461bcd60e51b815260206004820152601f60248201527f696e76616c696420706172656e74546f6b656e557064617465206f776e6572006044820152606490fd5b15610f4257565b60405162461bcd60e51b815260206004820152602560248201527f73706563696669656420706172656e7420746f6b656e20646f65736e27742065604482015264786973747360d81b6064820152608490fd5b9061019a9493929161102e610fa982610e77565b61102761102161101b6009611015610fd36020610fc4885190565b9701516001600160a01b031690565b9561089c600097610fee610fe68a610712565b841415610e82565b61100f610ffd6101678b610ee6565b6001600160a01b0383165b1415610eef565b886106fa565b01610883565b926109c5565b916109c5565b1415610f3b565b9061019a94939291611047610c1c610c173360026106fa565b611792565b801515610181565b9050519061019a8261104c565b9050519061019a8261019c565b6001600160401b0381116108525760208091020190565b9092919261109a6110958261106e565b610de5565b938185526020808601920283019281841161018857915b8383106110be5750505050565b602080916110cc8486611061565b8152019201916110b1565b9080601f8301121561018857815161017392602001611085565b91606083830312610188576111068284611054565b926111148360208301611061565b9260408201516001600160401b0381116101885761017392016110d7565b506101739060208101906101a2565b5061017390602081019061018d565b9060a06111dc61019a9361116e61116a6000830183611132565b8552565b61118e61117e6020830183611141565b6001600160a01b03166020860152565b6111a561119e6040830183611132565b6040860152565b6111bc6111b56060830183611132565b6060860152565b6111d36111cc6080830183611132565b6080860152565b82810190611132565b910152565b6004111561018857565b9050359061019a826111e1565b506101739060208101906111eb565b9035601e1936839003018112156101885701602081359101916001600160401b0382116101885736829003831361018857565b90826000939282370152565b91906109928161125d8161099c9560209181520190565b809561123a565b90610173906101406111dc61137461016084016112886112848880611132565b8652565b61129f6112986020890189611132565b6020870152565b6112bf6112af6040890189611141565b6001600160a01b03166040870152565b6112df6112cf6060890189611141565b6001600160a01b03166060870152565b6112f66112ef6080890189611132565b6080870152565b61130d61130660a0890189611132565b60a0870152565b61132461131d60c0890189611132565b60c0870152565b61133b61133460e0890189611132565b60e0870152565b61135761134c6101008901896111f8565b6101008701906109d8565b611365610120880188611207565b90868303610120880152611246565b9482810190611132565b9061017391611264565b903561015e193683900301811215610188570190565b8183529160200190816113b46020830284019490565b92836000925b8484106113ca5750505050505090565b90919293949560206113f66113ef83856001950388526113ea8b88611388565b61137e565b9860200190565b9401940192949391906113ba565b9391906101739593611430926114236101008801936000890190611150565b86830360c088015261139e565b9260e0818503910152611246565b1561144557565b60405162461bcd60e51b815260206004820152600d60248201526c34b73b30b634b210383937b7b360991b6044820152606490fd5b61149f61017395939492946114956101008401966000850152565b6020830190611150565b60e081850391015261139e565b3561017381610176565b634e487b7160e01b600052603260045260246000fd5b90359061015e193682900301821215610188570190565b908210156114fa57602061017392028101906114cc565b6114b6565b356101738161019c565b906103f1906109c5565b6101736101a0610de5565b9061019a611659600c61152f611513565b9461154061153c82610730565b8752565b61155661154f60018301610730565b6020880152565b61157561156560028301610743565b6001600160a01b03166040880152565b61159461158460038301610743565b6001600160a01b03166060880152565b6115aa6115a360048301610730565b6080880152565b6115c06115b960058301610730565b60a0880152565b6115d66115cf60068301610730565b60c0880152565b6115ec6115e560078301610730565b60e0880152565b6116036115fb60088301610857565b610100880152565b61161c61161260098301610883565b6101208801611509565b61163361162b600a8301610730565b610140880152565b611653611642600b8301610743565b6001600160a01b0316610160880152565b01610730565b610180840152565b6101739061151e565b805182529061017390610180806117046101a0840161168e60208801516020870152565b6040878101516001600160a01b0316908601526060878101516001600160a01b0316908601526116c360808801516080870152565b6116d260a088015160a0870152565b6116e160c088015160c0870152565b6116f060e088015160e0870152565b610100870151858203610100870152610968565b946117196101208201516101208601906109d8565b61172a610140820151610140860152565b610160818101516001600160a01b0316908501520151910152565b909261178590611775610173969461176560808601976000870190610c59565b6001600160a01b03166020850152565b6001600160a01b03166040830152565b606081840391015261166a565b94938260009194929485886117df6117bb73__$105df47e2f03863a6528aa0f9c50c03148$__90565b936117c560405190565b97889687958695638cb8e96b60e01b875260048701611404565b03915af48015610dba576117fb91600091611a2a575b5061143e565b60009173__$edb75297df75b3bb63d14c4c10f6d8b13b$__803b15610188578361182460405190565b918290636f607d9160e01b8252818061184388888d886004860161147a565b03915af48015610dba57611a0e575b5061185c83610712565b82811015611a065761189f61189a61187f61187960208a016114ac565b876106fa565b6118948761188e8689896114e3565b016114ff565b9061071f565b611661565b9073__$e2f1b368e0f9a9db875dcb0fbb5a4aff7b$__6118bf6004610743565b6118c8306106f1565b906118dd60608601516001600160a01b031690565b90833b156101885782899161190e886118f560405190565b958694859463550184d160e11b5b865260048601611745565b0381865af48015610dba576119ea575b50611935604061192f8589896114e3565b016114ac565b61195461194761016760208d016114ac565b916001600160a01b031690565b0361196b575b5050600101905061185c565b61185c565b6119756004610743565b9161198a60608601516001600160a01b031690565b91813b156101885788936119b46119a060405190565b978895869485946341d65a9160e01b611903565b03915af4918215610dba57611966926119ce575b8061195a565b6119e490863d8811610db357610dab8183610831565b386119c8565b611a0090883d8a11610db357610dab8183610831565b3861191e565b505050509050565b611a2490843d8611610db357610dab8183610831565b38611852565b611a4791503d806000833e611a3f8183610831565b8101906110f1565b506117f5565b9061019a94939291610f95565b9061019a94939291611a73610c1c610c173360026106fa565b611ad0565b61019a94611abe82989795611aae608096611a9e611acb97600060a08901980190610c59565b6001600160a01b031660208c0152565b6001600160a01b031660408a0152565b878203606089015261166a565b940152565b90929173__$edb75297df75b3bb63d14c4c10f6d8b13b$__94600095803b156101885781879186611b6295611b0460405190565b968794859384936351ed649d60e11b85528d8c60018b6004890190815260208101919091526001600160a01b03909116604082015260e08101959493909290916001600160a01b03166060840152608083015260a082015260c00152565b03915af48015610dba57611b849361189a9361089c92611bdd575b50876106fa565b9173__$e2f1b368e0f9a9db875dcb0fbb5a4aff7b$__611ba46004610743565b611bad306106f1565b90823b1561018857610d828795611bc360405190565b97889687958695634c34461f60e11b875260048701611a78565b611bf390893d8b11610db357610dab8183610831565b38611b7d565b9061019a94939291611a5a565b9061019a9594939291611c1b610fa983610e77565b9061019a9594939291611c35610c1c610c173360026106fa565b611e1c565b906020828203126101885761017391611054565b9035601e1936839003018112156101885701602081359101916001600160401b03821161018857602082023603831361018857565b818352916020019081611c996020830284019490565b92836000925b848410611caf5750505050505090565b9091929394956020611ccf6113ef83856001950388526113ea8b88611388565b940194019294939190611c9f565b906101739060806111dc611d0360a08401611cf88780611c4e565b868303875290611c83565b94611d1b611d146020830183611132565b6020860152565b611d2b61119e6040830183611132565b6111d36111b56060830183611132565b9061017391611cdd565b9035609e193683900301811215610188570190565b818352916020019081611d706020830284019490565b92836000925b848410611d865750505050505090565b9091929394956020611dab6113ef8385600195038852611da68b88611d45565b611d3b565b940194019294939190611d76565b939190610173959361143092611dd86101008801936000890190611150565b86830360c0880152611d5a565b9093916101739593611e04611e0e926117656101208601986000870152565b6040830190611150565b610100818503910152611d5a565b9294602090611e6e929395611e4273__$105df47e2f03863a6528aa0f9c50c03148$__90565b90611e4c60405190565b809581948293611e606334bcdaf660e01b90565b84528c8c8b60048701611db9565b03915af48015610dba57611e8991600091611f77575061143e565b6000936020820192611e9d611879856114ac565b94611eb36003610ccf898701986118948a6114ff565b9373__$191aaf5dbaa62f1effe7aa27b70b915dfa$__90813b15610188578893611efa611edf60405190565b9687958694859463ae9a77fb60e01b86528960048701611de5565b03915af48015610dba57611f5b575b5073__$e2f1b368e0f9a9db875dcb0fbb5a4aff7b$__611f296004610743565b92611f45611f3f611f39306106f1565b926114ac565b956114ff565b93823b1561018857610d828795610d6760405190565b611f7190853d8711610db357610dab8183610831565b38611f09565b611f99915060203d602011611f9f575b611f918183610831565b810190611c3a565b386117f5565b503d611f87565b9061019a9594939291611c06565b9061019a9291611fcb610c1c610c173360026106fa565b61200f565b60408082526101739491939192611fe991850190611264565b926020818503910152611246565b90815260406020820181905261017392910190611264565b9160009061205c9261203273__$105df47e2f03863a6528aa0f9c50c03148$__90565b9061203c60405190565b80958194829361205063e2160b5b60e01b90565b84528960048501611fd0565b03915af48015610dba5761207791600091612170575061143e565b60009073__$edb75297df75b3bb63d14c4c10f6d8b13b$__803b1561018857826120a060405190565b9182906376f7698960e01b825281806120bd878660048401611ff7565b03915af48015610dba57612154575b506120f361189a6120e86120e2604085016114ac565b856106fa565b6118948585016114ff565b9073__$e2f1b368e0f9a9db875dcb0fbb5a4aff7b$__906121146004610743565b9161212a6060612123306106f1565b93016114ac565b91813b15610188578593610d8261214060405190565b96879586948594633abdf92160e01b611903565b61216a90833d8511610db357610dab8183610831565b386120cc565b611a47913d8091833e611a3f8183610831565b9061019a9291611fb4565b1561219557565b60405162461bcd60e51b815260206004820152602160248201527f4f6e6c79206f776e65722063616e2063616c6c20746869732066756e6374696f6044820152603760f91b6064820152608490fd5b61019a906121ff6121f86101676003610743565b331461218e565b61222e565b9060ff905b9181191691161790565b9061222361017361222a92151590565b8254612204565b9055565b600061223e61019a9260026106fa565b612213565b61019a906121e4565b9095949261019a94610ca961227092610c9960809661129860a088019c6000890152565b01906001600160a01b03169052565b6000926122a6606061229861189a8561089c338a6106fa565b01516001600160a01b031690565b9173__$edb75297df75b3bb63d14c4c10f6d8b13b$__90813b1561018857856122ce60405190565b92839062a5a95b60e51b825281806122ed888b3389896004870161224c565b03915af48015610dba5761230e9361189a9361089c92611bdd5750876106fa565b916123216001600160a01b038316611947565b03612390575b5073__$e2f1b368e0f9a9db875dcb0fbb5a4aff7b$__6123476004610743565b90612351306106f1565b9061236660608501516001600160a01b031690565b91813b15610188578593610d8261237c60405190565b968795869485946341d65a9160e01b611903565b73__$e2f1b368e0f9a9db875dcb0fbb5a4aff7b$__906123b06004610743565b906123ba306106f1565b92803b1561018857849386936123e66123d260405190565b96879586948594638db8fc1960e01b611903565b03915af48015610dba57156123275761240b90833d8511610db357610dab8183610831565b38612327565b9061019a94939291612425610fa982610e77565b9061019a9493929161243e610c1c610c173360026106fa565b94938260009194929485886124676117bb73__$105df47e2f03863a6528aa0f9c50c03148$__90565b03915af48015610dba5761248291600091611a2a575061143e565b60009373__$edb75297df75b3bb63d14c4c10f6d8b13b$__803b1561018857856124ab60405190565b918290630b124c9560e01b825281806124ca888a89886004860161147a565b03915af48015610dba576125ba575b506124e385610712565b82811015611a065761251561189a612506612500602086016114ac565b896106fa565b6118948961188e86898b6114e3565b9073__$e2f1b368e0f9a9db875dcb0fbb5a4aff7b$__6125356004610743565b9061253f306106f1565b9061255460608601516001600160a01b031690565b91813b15610188578a9361257e61256a60405190565b9788958694859463550184d160e11b611903565b03915af4918215610dba576125999261259e575b5060010190565b6124e3565b6125b490883d8a11610db357610dab8183610831565b38612592565b6125d090863d8811610db357610dab8183610831565b386124d9565b9061019a94939291612411565b61227061019a94611775606094989795612602608086019a6000870152565b6020850152565b6126559350602092509073__$191aaf5dbaa62f1effe7aa27b70b915dfa$__9061263260405190565b809581948293612646631490ddc160e01b90565b845233916000600486016125e3565b03915af4908115610dba5760009161266b575090565b610173915060203d602011611f9f57611f918183610831565b909291926126946110958261106e565b938185526020808601920283019281841161018857915b8383106126b85750505050565b602080916126c684866101a2565b8152019201916126ab565b9080601f830112156101885781602061017393359101612684565b91909160c0818403126101885761270360c0610de5565b9281356001600160401b0381116101885782610e208360a093610e7096016126d1565b6101739036906126ec565b9061273a825190565b8110156114fa576020809102010190565b92949095919361275a87612726565b9561276f60208801516001600160a01b031690565b956000986127916127826101678c610ee6565b6001600160a01b038a16611008565b61279a8a610712565b8a8a016127a961017382515190565b8210156127fd57816127f06127e460098f958e61089c6127d76127d3611015946127f69a51612731565b5190565b91612500610fe68b610712565b611027611021866109c5565b60010190565b905061279a565b5095995061019a9850889750939592945090929091612823610c1c610c173360026106fa565b612cb7565b909291926128386110958261106e565b938185526020808601920283019281841161018857915b83831061285c5750505050565b6020809161286a8486611061565b81520192019161284f565b9080601f8301121561018857815161017392602001612828565b91606083830312610188576128a48284611061565b9260208101516001600160401b03811161018857836128c4918301612875565b9260408201516001600160401b038111610188576101739201612875565b602080825261017393910191611246565b903590601e19368290030182121561018857018035906001600160401b0382116101885760200191602082023603831361018857565b6080818303126101885761293d8282611061565b9261017361294e8460208501611061565b93606061295e8260408701611061565b9401611061565b9037565b8183529091602001916001600160fb1b038111610188578291602061099c9202938491612965565b94939160409161019a946129bb926129ae60608a019360008b0152565b88830360208a0152612969565b9401906001600160a01b03169052565b156129d257565b60405162461bcd60e51b815280610bfd600482016020808252818101527f696e76616c696420706172656e74546f6b656e55706461746520616d6f756e74604082015260600190565b906101739060a06111dc612a4160c08401612a368780611c4e565b868303875290612969565b9461118e61117e6020830183611141565b6103f190610712565b9061099c81602093612a52565b90612a88612a81612a77845190565b8084529260200190565b9260200190565b9060005b818110612a995750505090565b909192612ab3612aac6001928651612a5b565b9460200190565b929101612a8c565b6040808252610173939192612ad291840190612a1b565b916020818403910152612a68565b15612ae757565b60405162461bcd60e51b815260206004820152601760248201527f766572696679506172656e74546f6b656e206572726f720000000000000000006044820152606490fd5b91908110156114fa576020020190565b909160608284031261018857610173612b558484611061565b93604061295e8260208701611061565b9391906101739593612b93612ba093612b83608089019460008a0152565b6001600160a01b03166020880152565b8582036040870152612a1b565b92606081850391015261139e565b6040808252610173939192612bc591840190612a68565b91602081840391015261166a565b15612bda57565b60405162461bcd60e51b815260206004820152601c60248201527f766572696679445650526f6c6c6261636b546f6b656e206572726f72000000006044820152606490fd5b15612c2657565b60405162461bcd60e51b815260206004820152601c60248201527f7665726966794456505265636569766572546f6b656e206572726f72000000006044820152606490fd5b15612c7257565b60405162461bcd60e51b815260206004820152601a60248201527f7665726966794456504368616e6765546f6b656e206572726f720000000000006044820152606490fd5b9093916000612cfe9496612cdc73__$105df47e2f03863a6528aa0f9c50c03148$__90565b94612ce660405190565b968792839263473b057f60e11b8452600484016128e2565b0381865af4918215610dba5760009485936131e4575b50612d21602087016114ac565b95612d34612d2f82806128f3565b905090565b93600194612d49612d456001610712565b9190565b116130af575b6020612d7891612d5e60405190565b92839182919063b1a2071d60e01b83528660048401612abb565b0381895af48015610dba57612d9591600091613090575b50612ae0565b60009380612da286610712565b905b612fa8575b50509060609291612dcb73__$191aaf5dbaa62f1effe7aa27b70b915dfa$__90565b91612df3612dd860405190565b9a8b9586948594636244305360e11b86528a60048701612b65565b03915af48015610dba5760008080979092612f64575b50906020612e2161189a612e3f9461089c8a886106fa565b604051938491829190630b77d34b60e41b5b83528960048401612bae565b0381875af4918215610dba5761189a602092612e6a612e9295612e7494600091612f47575b50612bd3565b61089c89876106fa565b6040519283918291906365a06d4f60e01b5b83528860048401612bae565b0381865af4958615610dba5761089c602096612ec694612ec1612eef9a61189a96600091612f2a575b50612c1f565b6106fa565b91612ed060405190565b809581948293612ee463acc9e42060e01b90565b845260048401612bae565b03915af48015610dba5761019a91600091612f0b575b50612c6b565b612f24915060203d602011611f9f57611f918183610831565b38612f05565b612f4191508b3d8d11611f9f57611f918183610831565b38612ebb565b612f5e9150863d8811611f9f57611f918183610831565b38612e64565b612e219750612e3f925061189a9150612f9660209160603d606011612fa1575b612f8e8183610831565b810190612b3c565b995093509150612e09565b503d612f84565b85830190612fbc610173612d2f84876128f3565b81101561308a57612fef61189a612fd38c8a6106fa565b611894612fea85612fe4888b6128f3565b90612b2c565b6114ff565b73__$e2f1b368e0f9a9db875dcb0fbb5a4aff7b$__9261300f6004610743565b9361303e612fea85612fe46130376060613028306106f1565b9801516001600160a01b031690565b958b6128f3565b92813b15610188578d9561306a8c9561305660405190565b98899687958695639150f98360e01b610d77565b03915af4918215610dba576130849261259e575060010190565b81612da4565b50612da9565b6130a9915060203d602011611f9f57611f918183610831565b38612d8f565b6130fb9060808973__$edb75297df75b3bb63d14c4c10f6d8b13b$__6130d586806128f3565b906130df60405190565b9687948593849363174f7b6960e11b8552600060048601612991565b03915af4908115610dba57613152602092612d7894600080808093909291946131af575b50613136612d4561313260408c016114ff565b9290565b149283613192575b5082613175575b508161315a575b506129cb565b915050612d4f565b905061316e612d4561313260a089016114ff565b143861314c565b90915061318a612d4561313260808a016114ff565b149038613145565b9092506131a7612d4561313260608b016114ff565b14913861313e565b925050506131d5915060803d6080116131dd575b6131cd8183610831565b810190612929565b91923861311f565b503d6131c3565b90925061320391943d8091833e6131fb8183610831565b81019061288f565b9491929092612d14565b9061019a959493929161274b565b73__$edb75297df75b3bb63d14c4c10f6d8b13b$__600091813b15610188578261324460405190565b9283906336238fc160e11b8252818061326286338760048501610c26565b03915af4908115610dba576132859261189a926132ed575b5061089c33856106fa565b73__$e2f1b368e0f9a9db875dcb0fbb5a4aff7b$__6132a46004610743565b906132ae306106f1565b906132c360608501516001600160a01b031690565b91813b15610188578593610d826132d960405190565b9687958694859463b9ded94f60e01b611903565b61330390853d8711610db357610dab8183610831565b3861327a565b9160001960089290920291821b911b612209565b919061332e61017361222a93610712565b908354613309565b61019a9160009161331d565b9061335590600019906020036008021c90565b8154169055565b818110613367575050565b806133756000600193613336565b0161335c565b600019600883021c1916906002021790565b906000916133ab6133a382600052602060002090565b92835461337b565b905555565b919290602082101561340857601f84116001146133d25761222a92935061337b565b509061340361019a9360016133fa6133ef85600052602060002090565b92601f602091010490565b8201910161335c565b61338d565b50613448829361341f600194600052602060002090565b6134416020601f860104820192601f861680613450575b50601f602091010490565b019061335c565b600202179055565b61345c90888603613342565b38613436565b92909168010000000000000000821161085257602011156134ae57602081101561348f5761222a9161337b565b60019160ff19166134a584600052602060002090565b55600202019055565b60019150600202019055565b9081546134c681610763565b908183116134ef575b8183106134dd575b50505050565b6134e6936133b0565b388080806134d7565b6134fb83838387613462565b6134cf565b600061019a916134ba565b634e487b7160e01b600052600060045260246000fd5b906000036135325761019a90613500565b61350b565b6000600c61019a9261354b83808301613336565b6135588360018301613336565b8260028201558260038201556135718360048301613336565b61357e8360058301613336565b61358b8360068301613336565b6135988360078301613336565b6135a58360088301613521565b8260098201556135b883600a8301613336565b82600b82015501613336565b906000036135325761019a90613537565b9060001990612209565b906135ef61017361222a92610712565b82546135d5565b906001600160a01b0390612209565b9061361561017361222a926106f1565b82546135f6565b9190601f811161362b57505050565b61363d61019a93600052602060002090565b906020601f84018190048301931061365d575b6020601f90910104613441565b9091508190613650565b90613670815190565b906001600160401b038211610852576136938261368d8554610763565b8561361c565b602090601f83116001146136c15761222a9291600091836136b6575b505061337b565b0151905038806136af565b601f198316916136d685600052602060002090565b9260005b818110613714575091600293918560019694106136fb575b50505002019055565b01516000196008601f8516021c191690553880806136f2565b919360206001819287870151815501950192016136da565b9061019a91613667565b61017390516109c5565b9061222361017361222a926109cf565b600c61389261018061019a9461377061376a600083015190565b866135df565b61378761377e602083015190565b600187016135df565b6137a761379e60408301516001600160a01b031690565b60028701613605565b6137c76137be60608301516001600160a01b031690565b60038701613605565b6137de6137d5608083015190565b600487016135df565b6137f56137ec60a083015190565b600587016135df565b61380c61380360c083015190565b600687016135df565b61382361381a60e083015190565b600787016135df565b61383b61383261010083015190565b6008870161372c565b61385461384b6101208301613736565b60098701613740565b61386c61386361014083015190565b600a87016135df565b61388d6138846101608301516001600160a01b031690565b600b8701613605565b015190565b91016135df565b9061019a91613750565b90916000936138b961189a8461089c87896106fa565b936101808501936138c8855190565b906138f1886138ec6138e161189a8661089c89866106fa565b9461089c87846106fa565b6135c4565b73__$e2f1b368e0f9a9db875dcb0fbb5a4aff7b$__936139116004610743565b9661391b306106f1565b9761393060608601516001600160a01b031690565b94873b15610188578b9161395a8b9261394860405190565b988994859463b9ded94f60e01b611903565b0381895af4908115610dba57899461399892613af9575b5061398f61397e8c610ee6565b6001600160a01b0316610160870152565b6103f18b610712565b6139a760026101208501611509565b886060840194876139c261016788516001600160a01b031690565b6001600160a01b03821603613a43575b61089c926138ec8661089c8795613a12613a1896613a239d613a04613a1e9d9c8f604001906001600160a01b03169052565b906001600160a01b03169052565b846106fa565b8a6106fa565b613899565b613a2d6004610743565b92813b15610188578593610d8261237c60405190565b5093505090613a526004610743565b91613a6485516001600160a01b031690565b92863b1561018857888b91613a8e8c613a7c60405190565b9788948594638db8fc1960e01b611903565b0381895af4908115610dba57613a188b6138ec8561089c8e99613a128e613a239d613a048a8f613a1e9f9060409161089c9f613add575b50505050509d509650509597505096505092506139d2565b613af3908d803d10610db357610dab8183610831565b38613ac5565b613b0f908c8d3d10610db357610dab8183610831565b38613971565b9061019a9291613b2c610c1c610c173360026106fa565b613b57565b94939160409161019a94613b4f926129ae6101008a019360008b0152565b940190611150565b9073__$edb75297df75b3bb63d14c4c10f6d8b13b$__600093813b156101885784613b8160405190565b9283906301059e2d60e21b82528180613ba086898b8860048601613b31565b03915af48015610dba5785613bfd613bf7613bf1610173613c0498611894612fea613a189c61189a9b6118949a613c65575b50613be160208c019e8f6114ac565b93613beb8a610712565b91612b2c565b976114ac565b826106fa565b92016114ff565b9073__$e2f1b368e0f9a9db875dcb0fbb5a4aff7b$__90613c256004610743565b91613c3b6003613c34306106f1565b9301610743565b91813b15610188578593610d82613c5160405190565b96879586948594634da3307760e11b611903565b613c7b908a3d8c11610db357610dab8183610831565b38613bd2565b9061019a9291613b15565b61019a90613ca06121f86101676003610743565b600161223e61019a9260026106fa565b61019a90613c8c565b9061019a9594939291613cce610fa983610e77565b9061019a9594939291613ce8610c1c610c173360026106fa565b613d4a565b959294613d3b94613d1e6101739997613d14613d2c96611a9e8c9760006101608a01990152565b60408a0190611150565b87830361010089015261139e565b90848203610120860152612a68565b91610140818403910152612a68565b94906000613d7094959392612cdc73__$105df47e2f03863a6528aa0f9c50c03148$__90565b0381865af4918215610dba576000948593613faf575b506000956020830192613d98846114ac565b613da290896106fa565b9888888184019b613db28d6114ff565b613dbb9161071f565b600301613dc790610743565b9773__$191aaf5dbaa62f1effe7aa27b70b915dfa$__95613de760405190565b97889687966350bbc31960e01b8852613e039660048901613ced565b03815a93606094f4908115610dba576000938492839290613f88575b5073__$e2f1b368e0f9a9db875dcb0fbb5a4aff7b$__90613e406004610743565b91613e4a306106f1565b613e5c613e56886114ac565b9c6114ff565b93823b1561018857613e868c95613e7260405190565b9e8f9687958695639150f98360e01b610d77565b03915af4978815610dba5761189a602092613eb792613ecd9b613f6c575b5061089c613eb1876114ac565b8b6106fa565b604051988991829190630b77d34b60e41b612e33565b0381875af4968715610dba5761189a602092613ef7613f199a613f0394600091612f475750612bd3565b61089c613a18866114ac565b6040519788918291906365a06d4f60e01b612e86565b0381865af4918215610dba5761089c602096613f4f61189a94613f4a612ec697612eef9c600091613f555750612c1f565b6114ac565b906106fa565b612f4191508c3d8e11611f9f57611f918183610831565b613f82908b3d8d11610db357610dab8183610831565b38613ea4565b91509350613fa5915060603d606011612fa157612f8e8183610831565b9338929192613e1f565b909250613fc89194503d806000833e6131fb8183610831565b9491929092613d86565b9061019a9594939291613cb9565b600091613ff461189a8261089c85876106fa565b9161400960608401516001600160a01b031690565b6101808401519273__$191aaf5dbaa62f1effe7aa27b70b915dfa$__803b156101885761405791879161403b60405190565b9384928391829163366fe1d760e11b8352898760048501610c26565b03915af48015610dba576140fc575b5073__$e2f1b368e0f9a9db875dcb0fbb5a4aff7b$__926140876004610743565b614090306106f1565b95853b156101885787916140ba88926140a860405190565b968794859463b9ded94f60e01b611903565b0381875af48015610dba576140dc9361189a9361089c92611bdd5750876106fa565b916140e76004610743565b9161236660608501516001600160a01b031690565b61411290863d8811610db357610dab8183610831565b38614066565b60009061412c61189a8261089c33866106fa565b9061414160608301516001600160a01b031690565b6101808301519173__$191aaf5dbaa62f1effe7aa27b70b915dfa$__803b156101885761418f91869161417360405190565b93849283918291634e93b69560e01b8352338760048501610c26565b03915af48015610dba57614220575b5073__$e2f1b368e0f9a9db875dcb0fbb5a4aff7b$__916141bf6004610743565b6141c8306106f1565b94843b156101885786916141e087926140a860405190565b0381865af4908115610dba576140dc9261189a92614204575b5061089c33876106fa565b61421a90873d8911610db357610dab8183610831565b386141f9565b61423690853d8711610db357610dab8183610831565b3861419e56fea26469706673582212205d315c4b623689e0dfd29e950e3c0161beda181916e618ff4c61ae943574f10d64736f6c63430008190033",
  "linkReferences": {
    "contracts/ucl/image9/base/DVPLib.sol": {
      "DVPLib": [
        {
          "length": 20,
          "start": 8560
        },
        {
          "length": 20,
          "start": 10447
        },
        {
          "length": 20,
          "start": 12399
        },
        {
          "length": 20,
          "start": 16516
        },
        {
          "length": 20,
          "start": 17100
        },
        {
          "length": 20,
          "start": 17412
        }
      ]
    },
    "contracts/ucl/image9/base/TokenEventLib.sol": {
      "TokenEventLib": [
        {
          "length": 20,
          "start": 552
        },
        {
          "length": 20,
          "start": 4069
        },
        {
          "length": 20,
          "start": 7004
        },
        {
          "length": 20,
          "start": 7745
        },
        {
          "length": 20,
          "start": 8646
        },
        {
          "length": 20,
          "start": 9136
        },
        {
          "length": 20,
          "start": 9700
        },
        {
          "length": 20,
          "start": 9804
        },
        {
          "length": 20,
          "start": 10194
        },
        {
          "length": 20,
          "start": 12971
        },
        {
          "length": 20,
          "start": 13633
        },
        {
          "length": 20,
          "start": 15277
        },
        {
          "length": 20,
          "start": 16065
        },
        {
          "length": 20,
          "start": 16604
        },
        {
          "length": 20,
          "start": 17187
        },
        {
          "length": 20,
          "start": 17499
        }
      ]
    },
    "contracts/ucl/image9/base/TokenOperationsLib.sol": {
      "TokenOperationsLib": [
        {
          "length": 20,
          "start": 3985
        },
        {
          "length": 20,
          "start": 6842
        },
        {
          "length": 20,
          "start": 7567
        },
        {
          "length": 20,
          "start": 9014
        },
        {
          "length": 20,
          "start": 9571
        },
        {
          "length": 20,
          "start": 10049
        },
        {
          "length": 20,
          "start": 13170
        },
        {
          "length": 20,
          "start": 13527
        },
        {
          "length": 20,
          "start": 15892
        }
      ]
    },
    "contracts/ucl/image9/base/TokenVerificationLib.sol": {
      "TokenVerificationLib": [
        {
          "length": 20,
          "start": 6751
        },
        {
          "length": 20,
          "start": 8422
        },
        {
          "length": 20,
          "start": 8918
        },
        {
          "length": 20,
          "start": 9995
        },
        {
          "length": 20,
          "start": 12160
        },
        {
          "length": 20,
          "start": 16404
        }
      ]
    }
  },
  "deployedLinkReferences": {
    "contracts/ucl/image9/base/DVPLib.sol": {
      "DVPLib": [
        {
          "length": 20,
          "start": 7862
        },
        {
          "length": 20,
          "start": 9749
        },
        {
          "length": 20,
          "start": 11701
        },
        {
          "length": 20,
          "start": 15818
        },
        {
          "length": 20,
          "start": 16402
        },
        {
          "length": 20,
          "start": 16714
        }
      ]
    },
    "contracts/ucl/image9/base/TokenEventLib.sol": {
      "TokenEventLib": [
        {
          "length": 20,
          "start": 3371
        },
        {
          "length": 20,
          "start": 6306
        },
        {
          "length": 20,
          "start": 7047
        },
        {
          "length": 20,
          "start": 7948
        },
        {
          "length": 20,
          "start": 8438
        },
        {
          "length": 20,
          "start": 9002
        },
        {
          "length": 20,
          "start": 9106
        },
        {
          "length": 20,
          "start": 9496
        },
        {
          "length": 20,
          "start": 12273
        },
        {
          "length": 20,
          "start": 12935
        },
        {
          "length": 20,
          "start": 14579
        },
        {
          "length": 20,
          "start": 15367
        },
        {
          "length": 20,
          "start": 15906
        },
        {
          "length": 20,
          "start": 16489
        },
        {
          "length": 20,
          "start": 16801
        }
      ]
    },
    "contracts/ucl/image9/base/TokenOperationsLib.sol": {
      "TokenOperationsLib": [
        {
          "length": 20,
          "start": 3287
        },
        {
          "length": 20,
          "start": 6144
        },
        {
          "length": 20,
          "start": 6869
        },
        {
          "length": 20,
          "start": 8316
        },
        {
          "length": 20,
          "start": 8873
        },
        {
          "length": 20,
          "start": 9351
        },
        {
          "length": 20,
          "start": 12472
        },
        {
          "length": 20,
          "start": 12829
        },
        {
          "length": 20,
          "start": 15194
        }
      ]
    },
    "contracts/ucl/image9/base/TokenVerificationLib.sol": {
      "TokenVerificationLib": [
        {
          "length": 20,
          "start": 6053
        },
        {
          "length": 20,
          "start": 7724
        },
        {
          "length": 20,
          "start": 8220
        },
        {
          "length": 20,
          "start": 9297
        },
        {
          "length": 20,
          "start": 11462
        },
        {
          "length": 20,
          "start": 15706
        }
      ]
    }
  }
}