{
  "_format": "hh-sol-artifact-1",
  "contractName": "TokenScBase",
  "sourceName": "contracts/ucl/image9/base/TokenScBase.sol",
  "abi": [
    {
      "inputs": [
        {
          "internalType": "enum TokenSCTypeEnum",
          "name": "tokenSCType",
          "type": "uint8"
        },
        {
          "internalType": "contract IL2Event",
          "name": "l2Event",
          "type": "address"
        }
      ],
      "stateMutability": "nonpayable",
      "type": "constructor"
    },
    {
      "inputs": [
        {
          "internalType": "address",
          "name": "account",
          "type": "address"
        }
      ],
      "name": "addBankAccount",
      "outputs": [],
      "stateMutability": "nonpayable",
      "type": "function"
    },
    {
      "inputs": [
        {
          "internalType": "uint256",
          "name": "tokenId",
          "type": "uint256"
        }
      ],
      "name": "burnToken",
      "outputs": [],
      "stateMutability": "nonpayable",
      "type": "function"
    },
    {
      "inputs": [
        {
          "internalType": "uint256",
          "name": "tokenId",
          "type": "uint256"
        }
      ],
      "name": "cancelDvpReservation",
      "outputs": [],
      "stateMutability": "nonpayable",
      "type": "function"
    },
    {
      "inputs": [
        {
          "internalType": "uint256",
          "name": "tokenId",
          "type": "uint256"
        },
        {
          "internalType": "address",
          "name": "from",
          "type": "address"
        },
        {
          "internalType": "address",
          "name": "toManager",
          "type": "address"
        },
        {
          "internalType": "address",
          "name": "to",
          "type": "address"
        }
      ],
      "name": "commitDVP",
      "outputs": [],
      "stateMutability": "nonpayable",
      "type": "function"
    },
    {
      "inputs": [
        {
          "internalType": "address",
          "name": "owner",
          "type": "address"
        },
        {
          "internalType": "address",
          "name": "manager",
          "type": "address"
        },
        {
          "internalType": "uint256",
          "name": "tokenType",
          "type": "uint256"
        },
        {
          "internalType": "uint256",
          "name": "amount",
          "type": "uint256"
        },
        {
          "internalType": "uint256",
          "name": "tokenId",
          "type": "uint256"
        }
      ],
      "name": "convertPlainToPrivateToken",
      "outputs": [],
      "stateMutability": "nonpayable",
      "type": "function"
    },
    {
      "inputs": [
        {
          "components": [
            {
              "internalType": "uint256",
              "name": "id",
              "type": "uint256"
            },
            {
              "internalType": "address",
              "name": "owner",
              "type": "address"
            },
            {
              "internalType": "uint256",
              "name": "cl_x",
              "type": "uint256"
            },
            {
              "internalType": "uint256",
              "name": "cl_y",
              "type": "uint256"
            },
            {
              "internalType": "uint256",
              "name": "cr_x",
              "type": "uint256"
            },
            {
              "internalType": "uint256",
              "name": "cr_y",
              "type": "uint256"
            }
          ],
          "internalType": "struct TokenModel.TokenValueUpdate",
          "name": "parentTokenUpdate",
          "type": "tuple"
        },
        {
          "components": [
            {
              "internalType": "uint256",
              "name": "id",
              "type": "uint256"
            },
            {
              "internalType": "uint256",
              "name": "tokenType",
              "type": "uint256"
            },
            {
              "internalType": "address",
              "name": "owner",
              "type": "address"
            },
            {
              "internalType": "address",
              "name": "manager",
              "type": "address"
            },
            {
              "internalType": "uint256",
              "name": "cl_x",
              "type": "uint256"
            },
            {
              "internalType": "uint256",
              "name": "cl_y",
              "type": "uint256"
            },
            {
              "internalType": "uint256",
              "name": "cr_x",
              "type": "uint256"
            },
            {
              "internalType": "uint256",
              "name": "cr_y",
              "type": "uint256"
            },
            {
              "internalType": "enum TokenModel.TokenStatus",
              "name": "status",
              "type": "uint8"
            },
            {
              "internalType": "bytes",
              "name": "encryptedAmount",
              "type": "bytes"
            },
            {
              "internalType": "uint256",
              "name": "rollbackTokenId",
              "type": "uint256"
            }
          ],
          "internalType": "struct TokenModel.NewToken[]",
          "name": "childTokens",
          "type": "tuple[]"
        },
        {
          "internalType": "bytes",
          "name": "proof",
          "type": "bytes"
        }
      ],
      "name": "delegateTransferToken",
      "outputs": [],
      "stateMutability": "nonpayable",
      "type": "function"
    },
    {
      "inputs": [
        {
          "internalType": "address",
          "name": "",
          "type": "address"
        },
        {
          "internalType": "uint256",
          "name": "",
          "type": "uint256"
        }
      ],
      "name": "ercBalancenMap",
      "outputs": [
        {
          "internalType": "uint256",
          "name": "",
          "type": "uint256"
        }
      ],
      "stateMutability": "view",
      "type": "function"
    },
    {
      "inputs": [
        {
          "internalType": "address",
          "name": "",
          "type": "address"
        }
      ],
      "name": "isBankAccount",
      "outputs": [
        {
          "internalType": "bool",
          "name": "",
          "type": "bool"
        }
      ],
      "stateMutability": "view",
      "type": "function"
    },
    {
      "inputs": [
        {
          "internalType": "address",
          "name": "spender",
          "type": "address"
        },
        {
          "components": [
            {
              "internalType": "uint256[]",
              "name": "id",
              "type": "uint256[]"
            },
            {
              "internalType": "address",
              "name": "owner",
              "type": "address"
            },
            {
              "internalType": "uint256",
              "name": "cl_x",
              "type": "uint256"
            },
            {
              "internalType": "uint256",
              "name": "cl_y",
              "type": "uint256"
            },
            {
              "internalType": "uint256",
              "name": "cr_x",
              "type": "uint256"
            },
            {
              "internalType": "uint256",
              "name": "cr_y",
              "type": "uint256"
            }
          ],
          "internalType": "struct TokenModel.TokenMergeAndUpdate",
          "name": "parentTokenUpdate",
          "type": "tuple"
        },
        {
          "components": [
            {
              "internalType": "uint256",
              "name": "id",
              "type": "uint256"
            },
            {
              "internalType": "uint256",
              "name": "tokenType",
              "type": "uint256"
            },
            {
              "internalType": "address",
              "name": "owner",
              "type": "address"
            },
            {
              "internalType": "address",
              "name": "manager",
              "type": "address"
            },
            {
              "internalType": "uint256",
              "name": "cl_x",
              "type": "uint256"
            },
            {
              "internalType": "uint256",
              "name": "cl_y",
              "type": "uint256"
            },
            {
              "internalType": "uint256",
              "name": "cr_x",
              "type": "uint256"
            },
            {
              "internalType": "uint256",
              "name": "cr_y",
              "type": "uint256"
            },
            {
              "internalType": "enum TokenModel.TokenStatus",
              "name": "status",
              "type": "uint8"
            },
            {
              "internalType": "bytes",
              "name": "encryptedAmount",
              "type": "bytes"
            },
            {
              "internalType": "uint256",
              "name": "rollbackTokenId",
              "type": "uint256"
            }
          ],
          "internalType": "struct TokenModel.NewToken[]",
          "name": "childTokens",
          "type": "tuple[]"
        },
        {
          "internalType": "bytes",
          "name": "proof",
          "type": "bytes"
        }
      ],
      "name": "mergeAndSplitTokenForDVP",
      "outputs": [],
      "stateMutability": "nonpayable",
      "type": "function"
    },
    {
      "inputs": [
        {
          "internalType": "uint256[]",
          "name": "childTokens",
          "type": "uint256[]"
        },
        {
          "components": [
            {
              "internalType": "uint256",
              "name": "id",
              "type": "uint256"
            },
            {
              "internalType": "address",
              "name": "owner",
              "type": "address"
            },
            {
              "internalType": "uint256",
              "name": "cl_x",
              "type": "uint256"
            },
            {
              "internalType": "uint256",
              "name": "cl_y",
              "type": "uint256"
            },
            {
              "internalType": "uint256",
              "name": "cr_x",
              "type": "uint256"
            },
            {
              "internalType": "uint256",
              "name": "cr_y",
              "type": "uint256"
            }
          ],
          "internalType": "struct TokenModel.TokenValueUpdate",
          "name": "mergeTokenUpdate",
          "type": "tuple"
        }
      ],
      "name": "mergeTokens",
      "outputs": [],
      "stateMutability": "nonpayable",
      "type": "function"
    },
    {
      "inputs": [
        {
          "components": [
            {
              "internalType": "uint256",
              "name": "id",
              "type": "uint256"
            },
            {
              "internalType": "uint256",
              "name": "tokenType",
              "type": "uint256"
            },
            {
              "internalType": "address",
              "name": "owner",
              "type": "address"
            },
            {
              "internalType": "address",
              "name": "manager",
              "type": "address"
            },
            {
              "internalType": "uint256",
              "name": "cl_x",
              "type": "uint256"
            },
            {
              "internalType": "uint256",
              "name": "cl_y",
              "type": "uint256"
            },
            {
              "internalType": "uint256",
              "name": "cr_x",
              "type": "uint256"
            },
            {
              "internalType": "uint256",
              "name": "cr_y",
              "type": "uint256"
            },
            {
              "internalType": "enum TokenModel.TokenStatus",
              "name": "status",
              "type": "uint8"
            },
            {
              "internalType": "bytes",
              "name": "encryptedAmount",
              "type": "bytes"
            },
            {
              "internalType": "uint256",
              "name": "rollbackTokenId",
              "type": "uint256"
            }
          ],
          "internalType": "struct TokenModel.NewToken",
          "name": "token",
          "type": "tuple"
        },
        {
          "internalType": "bytes",
          "name": "proof",
          "type": "bytes"
        }
      ],
      "name": "mintToken",
      "outputs": [],
      "stateMutability": "nonpayable",
      "type": "function"
    },
    {
      "inputs": [
        {
          "internalType": "address",
          "name": "account",
          "type": "address"
        }
      ],
      "name": "removeBankAccount",
      "outputs": [],
      "stateMutability": "nonpayable",
      "type": "function"
    },
    {
      "inputs": [
        {
          "internalType": "address",
          "name": "owner",
          "type": "address"
        },
        {
          "internalType": "uint256",
          "name": "tokenId",
          "type": "uint256"
        }
      ],
      "name": "removeToken",
      "outputs": [],
      "stateMutability": "nonpayable",
      "type": "function"
    },
    {
      "inputs": [
        {
          "internalType": "address",
          "name": "owner",
          "type": "address"
        },
        {
          "internalType": "uint256",
          "name": "tokenId",
          "type": "uint256"
        }
      ],
      "name": "rollbackDVP",
      "outputs": [],
      "stateMutability": "nonpayable",
      "type": "function"
    },
    {
      "inputs": [],
      "name": "scOwner",
      "outputs": [
        {
          "internalType": "address",
          "name": "",
          "type": "address"
        }
      ],
      "stateMutability": "view",
      "type": "function"
    },
    {
      "inputs": [
        {
          "components": [
            {
              "internalType": "uint256",
              "name": "id",
              "type": "uint256"
            },
            {
              "internalType": "address",
              "name": "owner",
              "type": "address"
            },
            {
              "internalType": "uint256",
              "name": "cl_x",
              "type": "uint256"
            },
            {
              "internalType": "uint256",
              "name": "cl_y",
              "type": "uint256"
            },
            {
              "internalType": "uint256",
              "name": "cr_x",
              "type": "uint256"
            },
            {
              "internalType": "uint256",
              "name": "cr_y",
              "type": "uint256"
            }
          ],
          "internalType": "struct TokenModel.TokenValueUpdate",
          "name": "parentTokenUpdate",
          "type": "tuple"
        },
        {
          "components": [
            {
              "internalType": "uint256",
              "name": "id",
              "type": "uint256"
            },
            {
              "internalType": "uint256",
              "name": "tokenType",
              "type": "uint256"
            },
            {
              "internalType": "address",
              "name": "owner",
              "type": "address"
            },
            {
              "internalType": "address",
              "name": "manager",
              "type": "address"
            },
            {
              "internalType": "uint256",
              "name": "cl_x",
              "type": "uint256"
            },
            {
              "internalType": "uint256",
              "name": "cl_y",
              "type": "uint256"
            },
            {
              "internalType": "uint256",
              "name": "cr_x",
              "type": "uint256"
            },
            {
              "internalType": "uint256",
              "name": "cr_y",
              "type": "uint256"
            },
            {
              "internalType": "enum TokenModel.TokenStatus",
              "name": "status",
              "type": "uint8"
            },
            {
              "internalType": "bytes",
              "name": "encryptedAmount",
              "type": "bytes"
            },
            {
              "internalType": "uint256",
              "name": "rollbackTokenId",
              "type": "uint256"
            }
          ],
          "internalType": "struct TokenModel.NewToken[]",
          "name": "childTokens",
          "type": "tuple[]"
        },
        {
          "internalType": "bytes",
          "name": "proof",
          "type": "bytes"
        }
      ],
      "name": "splitToken",
      "outputs": [],
      "stateMutability": "nonpayable",
      "type": "function"
    },
    {
      "inputs": [
        {
          "internalType": "address",
          "name": "spender",
          "type": "address"
        },
        {
          "components": [
            {
              "internalType": "uint256",
              "name": "id",
              "type": "uint256"
            },
            {
              "internalType": "address",
              "name": "owner",
              "type": "address"
            },
            {
              "internalType": "uint256",
              "name": "cl_x",
              "type": "uint256"
            },
            {
              "internalType": "uint256",
              "name": "cl_y",
              "type": "uint256"
            },
            {
              "internalType": "uint256",
              "name": "cr_x",
              "type": "uint256"
            },
            {
              "internalType": "uint256",
              "name": "cr_y",
              "type": "uint256"
            }
          ],
          "internalType": "struct TokenModel.TokenValueUpdate",
          "name": "parentTokenUpdate",
          "type": "tuple"
        },
        {
          "components": [
            {
              "components": [
                {
                  "internalType": "uint256",
                  "name": "id",
                  "type": "uint256"
                },
                {
                  "internalType": "uint256",
                  "name": "tokenType",
                  "type": "uint256"
                },
                {
                  "internalType": "address",
                  "name": "owner",
                  "type": "address"
                },
                {
                  "internalType": "address",
                  "name": "manager",
                  "type": "address"
                },
                {
                  "internalType": "uint256",
                  "name": "cl_x",
                  "type": "uint256"
                },
                {
                  "internalType": "uint256",
                  "name": "cl_y",
                  "type": "uint256"
                },
                {
                  "internalType": "uint256",
                  "name": "cr_x",
                  "type": "uint256"
                },
                {
                  "internalType": "uint256",
                  "name": "cr_y",
                  "type": "uint256"
                },
                {
                  "internalType": "enum TokenModel.TokenStatus",
                  "name": "status",
                  "type": "uint8"
                },
                {
                  "internalType": "bytes",
                  "name": "encryptedAmount",
                  "type": "bytes"
                },
                {
                  "internalType": "uint256",
                  "name": "rollbackTokenId",
                  "type": "uint256"
                }
              ],
              "internalType": "struct TokenModel.NewToken[]",
              "name": "token",
              "type": "tuple[]"
            },
            {
              "internalType": "uint256",
              "name": "rollbackPkX",
              "type": "uint256"
            },
            {
              "internalType": "uint256",
              "name": "rollbackPkY",
              "type": "uint256"
            },
            {
              "internalType": "uint256",
              "name": "receiverPkX",
              "type": "uint256"
            },
            {
              "internalType": "uint256",
              "name": "receiverPkY",
              "type": "uint256"
            }
          ],
          "internalType": "struct TokenModel.NewBatchToken[]",
          "name": "childTokens",
          "type": "tuple[]"
        },
        {
          "internalType": "bytes",
          "name": "proof",
          "type": "bytes"
        }
      ],
      "name": "splitTokenForBatchDVP",
      "outputs": [],
      "stateMutability": "nonpayable",
      "type": "function"
    },
    {
      "inputs": [
        {
          "internalType": "address",
          "name": "spender",
          "type": "address"
        },
        {
          "components": [
            {
              "internalType": "uint256",
              "name": "id",
              "type": "uint256"
            },
            {
              "internalType": "address",
              "name": "owner",
              "type": "address"
            },
            {
              "internalType": "uint256",
              "name": "cl_x",
              "type": "uint256"
            },
            {
              "internalType": "uint256",
              "name": "cl_y",
              "type": "uint256"
            },
            {
              "internalType": "uint256",
              "name": "cr_x",
              "type": "uint256"
            },
            {
              "internalType": "uint256",
              "name": "cr_y",
              "type": "uint256"
            }
          ],
          "internalType": "struct TokenModel.TokenValueUpdate",
          "name": "parentTokenUpdate",
          "type": "tuple"
        },
        {
          "components": [
            {
              "internalType": "uint256",
              "name": "id",
              "type": "uint256"
            },
            {
              "internalType": "uint256",
              "name": "tokenType",
              "type": "uint256"
            },
            {
              "internalType": "address",
              "name": "owner",
              "type": "address"
            },
            {
              "internalType": "address",
              "name": "manager",
              "type": "address"
            },
            {
              "internalType": "uint256",
              "name": "cl_x",
              "type": "uint256"
            },
            {
              "internalType": "uint256",
              "name": "cl_y",
              "type": "uint256"
            },
            {
              "internalType": "uint256",
              "name": "cr_x",
              "type": "uint256"
            },
            {
              "internalType": "uint256",
              "name": "cr_y",
              "type": "uint256"
            },
            {
              "internalType": "enum TokenModel.TokenStatus",
              "name": "status",
              "type": "uint8"
            },
            {
              "internalType": "bytes",
              "name": "encryptedAmount",
              "type": "bytes"
            },
            {
              "internalType": "uint256",
              "name": "rollbackTokenId",
              "type": "uint256"
            }
          ],
          "internalType": "struct TokenModel.NewToken[]",
          "name": "childTokens",
          "type": "tuple[]"
        },
        {
          "internalType": "bytes",
          "name": "proof",
          "type": "bytes"
        }
      ],
      "name": "splitTokenForDVP",
      "outputs": [],
      "stateMutability": "nonpayable",
      "type": "function"
    },
    {
      "inputs": [
        {
          "internalType": "uint256",
          "name": "tokenId",
          "type": "uint256"
        },
        {
          "internalType": "address",
          "name": "toManager",
          "type": "address"
        },
        {
          "internalType": "address",
          "name": "to",
          "type": "address"
        }
      ],
      "name": "transferToken",
      "outputs": [],
      "stateMutability": "nonpayable",
      "type": "function"
    },
    {
      "inputs": [
        {
          "internalType": "address",
          "name": "",
          "type": "address"
        },
        {
          "internalType": "uint256",
          "name": "",
          "type": "uint256"
        }
      ],
      "name": "userTokenMap",
      "outputs": [
        {
          "internalType": "uint256",
          "name": "id",
          "type": "uint256"
        },
        {
          "internalType": "uint256",
          "name": "tokenType",
          "type": "uint256"
        },
        {
          "internalType": "address",
          "name": "owner",
          "type": "address"
        },
        {
          "internalType": "address",
          "name": "manager",
          "type": "address"
        },
        {
          "internalType": "uint256",
          "name": "cl_x",
          "type": "uint256"
        },
        {
          "internalType": "uint256",
          "name": "cl_y",
          "type": "uint256"
        },
        {
          "internalType": "uint256",
          "name": "cr_x",
          "type": "uint256"
        },
        {
          "internalType": "uint256",
          "name": "cr_y",
          "type": "uint256"
        },
        {
          "internalType": "bytes",
          "name": "encryptedAmount",
          "type": "bytes"
        },
        {
          "internalType": "enum TokenModel.TokenStatus",
          "name": "status",
          "type": "uint8"
        },
        {
          "internalType": "uint256",
          "name": "parentId",
          "type": "uint256"
        },
        {
          "internalType": "address",
          "name": "approvedSpender",
          "type": "address"
        },
        {
          "internalType": "uint256",
          "name": "rollbackTokenId",
          "type": "uint256"
        }
      ],
      "stateMutability": "view",
      "type": "function"
    },
    {
      "inputs": [
        {
          "internalType": "uint256",
          "name": "tokenId",
          "type": "uint256"
        },
        {
          "internalType": "address",
          "name": "from",
          "type": "address"
        },
        {
          "internalType": "address",
          "name": "toManager",
          "type": "address"
        },
        {
          "internalType": "address",
          "name": "to",
          "type": "address"
        }
      ],
      "name": "validateDVP",
      "outputs": [
        {
          "internalType": "bool",
          "name": "",
          "type": "bool"
        }
      ],
      "stateMutability": "nonpayable",
      "type": "function"
    }
  ],
  "bytecode": "0x60806040523461002b5761001a6100146100e9565b9061020f565b60405161425d6102ba823961425d90f35b600080fd5b634e487b7160e01b600052604160045260246000fd5b90601f01601f191681019081106001600160401b0382111761006757604052565b610030565b9061008061007960405190565b9283610046565b565b6002111561002b57565b9050519061008082610082565b6001600160a01b031690565b90565b6001600160a01b0381160361002b57565b90505190610080826100a8565b919060408382031261002b576100a59060206100e2828661008c565b94016100b9565b610107614517803803806100fc8161006c565b9283398101906100c6565b9091565b6100a590610099906001600160a01b031682565b6100a59061010b565b6100a59061011f565b906101416100a561015d92610128565b82546001600160a01b0319166001600160a01b03919091161790565b9055565b600091031261002b57565b61017590610128565b9052565b634e487b7160e01b600052602160045260246000fd5b6002111561019957565b610179565b906100808261018f565b6100a59061019e565b610175906101a8565b6101fc610080946101ec6060949897956101dc608086019a600087019061016c565b6001600160a01b03166020850152565b6001600160a01b03166040830152565b01906101b1565b6040513d6000823e3d90fd5b906102269061021f336003610131565b6004610131565b73__$e2f1b368e0f9a9db875dcb0fbb5a4aff7b$__61024d6004546001600160a01b031690565b9161025730610128565b91803b1561002b5761028b9360009361026f60405190565b9586948593849363468dea5760e11b85523391600486016101ba565b03915af480156102b45761029c5750565b6100809060006102ac8183610046565b810190610161565b61020356fe6080604052600436101561001257600080fd5b60003560e01c806313baf1e6146101625780631425332b1461015d5780631698ca49146101585780631e0bd7891461015357806327cabc3f1461014e5780632e17ddef1461014957806333f57ed2146101445780634a2a1fb01461013f5780635c30d1721461013a5780637175783a1461013557806372b75ead146101305780637b47ec1a1461012b5780638d09b6ef1461012657806395ea04c314610121578063ae6211e61461011c578063af97919d14610117578063c0aa18bd14610112578063e40e6f061461010d578063f25a3d1314610108578063f4613c33146101035763fd3ee1480361018857610b85565b610b40565b610b27565b610afb565b610aad565b610a6f565b6106bc565b6106a3565b610651565b610639565b610606565b61055f565b61050e565b6104f5565b6104ad565b610480565b6103f5565b61039c565b61031a565b6102b9565b6101d2565b6001600160a01b031690565b90565b6001600160a01b0381165b0361018857565b600080fd5b9050359061019a82610176565b565b80610181565b9050359061019a8261019c565b9190604083820312610188576101739060206101cb828661018d565b94016101a2565b34610188576101eb6101e53660046101af565b90610ddb565b604051005b0390f35b908160c09103126101885790565b909182601f83011215610188578135916001600160401b03831161018857602001926020830284011161018857565b909182601f83011215610188578135916001600160401b03831161018857602001926001830284011161018857565b610100818303126101885761027582826101f4565b9260c08201356001600160401b0381116101885783610295918401610202565b92909360e08201356001600160401b038111610188576102b59201610231565b9091565b34610188576101eb6102cc366004610260565b93929092611a4b565b919060a083820312610188576102eb818461018d565b926102f9826020830161018d565b9261017361030a84604085016101a2565b9360806101cb82606087016101a2565b34610188576101eb61032d3660046102d5565b93929092611bf7565b9190610120838203126101885761034d818461018d565b9261035b82602083016101f4565b9260e08201356001600160401b038111610188578361037b918401610202565b9290936101008201356001600160401b038111610188576102b59201610231565b34610188576101eb6103af366004610336565b94939093929192611fa4565b600091031261018857565b610173916008021c6001600160a01b031690565b9061017391546103c6565b610173600060036103da565b9052565b34610188576104053660046103bb565b6101f06104106103e5565b604051918291826001600160a01b03909116815260200190565b90816101609103126101885790565b9190916040818403126101885780356001600160401b038111610188578361046291830161042a565b9260208201356001600160401b038111610188576102b59201610231565b34610188576101eb610493366004610439565b9161216e565b90602082820312610188576101739161018d565b34610188576101eb6104c0366004610499565b61222e565b9091606082840312610188576101736104de84846101a2565b9360406104ee826020870161018d565b940161018d565b34610188576101eb6105083660046104c5565b9161226a565b34610188576101eb610521366004610260565b939290926125c1565b6080818303126101885761053e82826101a2565b9261017361054f846020850161018d565b9360606104ee826040870161018d565b34610188576101f061057e61057536600461052a565b929190916125f4565b60405191829182901515815260200190565b9190608083820312610188576105a6818461018d565b9260208101356001600160401b03811161018857826105c69183016101f4565b9260408201356001600160401b03811161018857836105e6918401610202565b92909360608201356001600160401b038111610188576102b59201610231565b34610188576101eb610619366004610590565b949390939291926131fa565b9060208282031261018857610173916101a2565b34610188576101eb61064c366004610625565b613208565b34610188576101eb61066436600461052a565b92919091613890565b9160e0838303126101885782356001600160401b038111610188578261069a602094610173938701610202565b949095016101f4565b34610188576101eb6106b636600461066d565b91613c6e565b34610188576101eb6106cf366004610499565b613c9d565b61017390610167906001600160a01b031682565b610173906106d4565b610173906106e8565b90610704906106f1565b600052602052604060002090565b6101736101736101739290565b9061070490610712565b6101739081565b6101739054610729565b61017390610167565b610173905461073a565b634e487b7160e01b600052602260045260246000fd5b9060016002830492168015610783575b602083101461077e57565b61074d565b91607f1691610773565b805460009392916107aa6107a083610763565b8085529360200190565b91600181169081156107fc57506001146107c357505050565b6107d69192939450600052602060002090565b916000925b8184106107e85750500190565b8054848401526020909301926001016107db565b92949550505060ff1916825215156020020190565b906101739161078d565b634e487b7160e01b600052604160045260246000fd5b90601f01601f191681019081106001600160401b0382111761085257604052565b61081b565b9061019a6108719261086860405190565b93848092610811565b0383610831565b610173905b60ff1690565b6101739054610878565b9061089c6108a19260006106fa565b61071f565b6108aa81610730565b916108b760018301610730565b916108c460028201610743565b916108d160038301610743565b916108de60048201610730565b916108eb60058301610730565b916108f860068201610730565b9161090560078301610730565b9161091260088201610857565b9161091f60098301610883565b9161092c600a8201610730565b91610173600c61093e600b8501610743565b9301610730565b60005b8381106109585750506000910152565b8181015183820152602001610948565b61098961099260209361099c9361097d815190565b80835293849260200190565b95869101610945565b601f01601f191690565b0190565b634e487b7160e01b600052602160045260246000fd5b600411156109c057565b6109a0565b9061019a826109b6565b610173906109c5565b6103f1906109cf565b90815260208101919091526001600160a01b039091166040820152969a9998969795946101a08901949093909290916001600160a01b031660608a0152608089015260a088015260c087015260e0860152848103610100860152610a4491610968565b956101208401610a53916109d8565b6101408301526001600160a01b03166101608201526101800152565b34610188576101f0610a8b610a853660046101af565b9061088d565b99610aa49d9b9d99919998929897939796949660405190565b9d8e9d8e6109e1565b34610188576101eb610ac0366004610336565b94939093929192613fbd565b610173916008021c81565b906101739154610acc565b610af66101739261089c60009360016106fa565b610ad7565b34610188576101f0610b17610b113660046101af565b90610ae2565b6040519182918290815260200190565b34610188576101eb610b3a3660046101af565b90613fcb565b34610188576101eb610b53366004610625565b614103565b610173916008021c61087d565b906101739154610b58565b6000610b806101739260026106fa565b610b65565b34610188576101f061057e610b9b366004610499565b610b70565b15610ba757565b60405162461bcd60e51b815260206004820152602860248201527f4f6e6c792062616e6b206163636f756e742063616e2063616c6c207468697320604482015267333ab731ba34b7b760c11b6064820152608490fd5b0390fd5b9061019a91610c21610c1c610c173360026106fa565b610883565b610ba0565b610cb9565b9081526001600160a01b03909116602082015260608101929161019a9160400152565b0152565b6040513d6000823e3d90fd5b6103f1906106f1565b9095949261019a94610ca9610c4992610c99608096610c8960a088019c6000890190610c59565b6001600160a01b03166020870152565b6001600160a01b03166040850152565b6001600160a01b03166060830152565b600091610cd56003610ccf8361089c86886106fa565b01610743565b73__$edb75297df75b3bb63d14c4c10f6d8b13b$__803b156101885784610cfb60405190565b91829063c1c59dad60e01b82528180610d19888a8760048501610c26565b03915af48015610dba57610dbf575b5073__$e2f1b368e0f9a9db875dcb0fbb5a4aff7b$__610d486004610743565b610d51306106f1565b90823b1561018857610d828795610d6760405190565b97889687958695639150f98360e01b5b875260048701610c62565b03915af48015610dba57610d94575050565b8161019a92903d10610db3575b610dab8183610831565b8101906103bb565b503d610da1565b610c4d565b610dd590853d8711610db357610dab8183610831565b38610d28565b9061019a91610c01565b9061019a610df260405190565b9283610831565b919060c08382031261018857610e709060a0610e1560c0610de5565b94610e2083826101a2565b8652610e2f836020830161018d565b6020870152610e4183604083016101a2565b6040870152610e5383606083016101a2565b6060870152610e6583608083016101a2565b6080870152016101a2565b60a0830152565b610173903690610df9565b15610e8957565b60405162461bcd60e51b815260206004820152602260248201527f696e76616c696420706172656e74546f6b656e55706461746520706172656e74604482015261125960f21b6064820152608490fd5b6101676101736101739290565b61017390610ed9565b15610ef657565b60405162461bcd60e51b815260206004820152601f60248201527f696e76616c696420706172656e74546f6b656e557064617465206f776e6572006044820152606490fd5b15610f4257565b60405162461bcd60e51b815260206004820152602560248201527f73706563696669656420706172656e7420746f6b656e20646f65736e27742065604482015264786973747360d81b6064820152608490fd5b9061019a9493929161102e610fa982610e77565b61102761102161101b6009611015610fd36020610fc4885190565b9701516001600160a01b031690565b9561089c600097610fee610fe68a610712565b841415610e82565b61100f610ffd6101678b610ee6565b6001600160a01b0383165b1415610eef565b886106fa565b01610883565b926109c5565b916109c5565b1415610f3b565b9061019a94939291611047610c1c610c173360026106fa565b611792565b801515610181565b9050519061019a8261104c565b9050519061019a8261019c565b6001600160401b0381116108525760208091020190565b9092919261109a6110958261106e565b610de5565b938185526020808601920283019281841161018857915b8383106110be5750505050565b602080916110cc8486611061565b8152019201916110b1565b9080601f8301121561018857815161017392602001611085565b91606083830312610188576111068284611054565b926111148360208301611061565b9260408201516001600160401b0381116101885761017392016110d7565b506101739060208101906101a2565b5061017390602081019061018d565b9060a06111dc61019a9361116e61116a6000830183611132565b8552565b61118e61117e6020830183611141565b6001600160a01b03166020860152565b6111a561119e6040830183611132565b6040860152565b6111bc6111b56060830183611132565b6060860152565b6111d36111cc6080830183611132565b6080860152565b82810190611132565b910152565b6004111561018857565b9050359061019a826111e1565b506101739060208101906111eb565b9035601e1936839003018112156101885701602081359101916001600160401b0382116101885736829003831361018857565b90826000939282370152565b91906109928161125d8161099c9560209181520190565b809561123a565b90610173906101406111dc61137461016084016112886112848880611132565b8652565b61129f6112986020890189611132565b6020870152565b6112bf6112af6040890189611141565b6001600160a01b03166040870152565b6112df6112cf6060890189611141565b6001600160a01b03166060870152565b6112f66112ef6080890189611132565b6080870152565b61130d61130660a0890189611132565b60a0870152565b61132461131d60c0890189611132565b60c0870152565b61133b61133460e0890189611132565b60e0870152565b61135761134c6101008901896111f8565b6101008701906109d8565b611365610120880188611207565b90868303610120880152611246565b9482810190611132565b9061017391611264565b903561015e193683900301811215610188570190565b8183529160200190816113b46020830284019490565b92836000925b8484106113ca5750505050505090565b90919293949560206113f66113ef83856001950388526113ea8b88611388565b61137e565b9860200190565b9401940192949391906113ba565b9391906101739593611430926114236101008801936000890190611150565b86830360c088015261139e565b9260e0818503910152611246565b1561144557565b60405162461bcd60e51b815260206004820152600d60248201526c34b73b30b634b210383937b7b360991b6044820152606490fd5b61149f61017395939492946114956101008401966000850152565b6020830190611150565b60e081850391015261139e565b3561017381610176565b634e487b7160e01b600052603260045260246000fd5b90359061015e193682900301821215610188570190565b908210156114fa57602061017392028101906114cc565b6114b6565b356101738161019c565b906103f1906109c5565b6101736101a0610de5565b9061019a611659600c61152f611513565b9461154061153c82610730565b8752565b61155661154f60018301610730565b6020880152565b61157561156560028301610743565b6001600160a01b03166040880152565b61159461158460038301610743565b6001600160a01b03166060880152565b6115aa6115a360048301610730565b6080880152565b6115c06115b960058301610730565b60a0880152565b6115d66115cf60068301610730565b60c0880152565b6115ec6115e560078301610730565b60e0880152565b6116036115fb60088301610857565b610100880152565b61161c61161260098301610883565b6101208801611509565b61163361162b600a8301610730565b610140880152565b611653611642600b8301610743565b6001600160a01b0316610160880152565b01610730565b610180840152565b6101739061151e565b805182529061017390610180806117046101a0840161168e60208801516020870152565b6040878101516001600160a01b0316908601526060878101516001600160a01b0316908601526116c360808801516080870152565b6116d260a088015160a0870152565b6116e160c088015160c0870152565b6116f060e088015160e0870152565b610100870151858203610100870152610968565b946117196101208201516101208601906109d8565b61172a610140820151610140860152565b610160818101516001600160a01b0316908501520151910152565b909261178590611775610173969461176560808601976000870190610c59565b6001600160a01b03166020850152565b6001600160a01b03166040830152565b606081840391015261166a565b94938260009194929485886117df6117bb73__$105df47e2f03863a6528aa0f9c50c03148$__90565b936117c560405190565b97889687958695638cb8e96b60e01b875260048701611404565b03915af48015610dba576117fb91600091611a2a575b5061143e565b60009173__$edb75297df75b3bb63d14c4c10f6d8b13b$__803b15610188578361182460405190565b918290636f607d9160e01b8252818061184388888d886004860161147a565b03915af48015610dba57611a0e575b5061185c83610712565b82811015611a065761189f61189a61187f61187960208a016114ac565b876106fa565b6118948761188e8689896114e3565b016114ff565b9061071f565b611661565b9073__$e2f1b368e0f9a9db875dcb0fbb5a4aff7b$__6118bf6004610743565b6118c8306106f1565b906118dd60608601516001600160a01b031690565b90833b156101885782899161190e886118f560405190565b958694859463550184d160e11b5b865260048601611745565b0381865af48015610dba576119ea575b50611935604061192f8589896114e3565b016114ac565b61195461194761016760208d016114ac565b916001600160a01b031690565b0361196b575b5050600101905061185c565b61185c565b6119756004610743565b9161198a60608601516001600160a01b031690565b91813b156101885788936119b46119a060405190565b978895869485946341d65a9160e01b611903565b03915af4918215610dba57611966926119ce575b8061195a565b6119e490863d8811610db357610dab8183610831565b386119c8565b611a0090883d8a11610db357610dab8183610831565b3861191e565b505050509050565b611a2490843d8611610db357610dab8183610831565b38611852565b611a45913d8091833e611a3d8183610831565b8101906110f1565b506117f5565b9061019a94939291610f95565b9061019a94939291611a71610c1c610c173360026106fa565b611ace565b61019a94611abc82989795611aac608096611a9c611ac997600060a08901980190610c59565b6001600160a01b031660208c0152565b6001600160a01b031660408a0152565b878203606089015261166a565b940152565b90929173__$edb75297df75b3bb63d14c4c10f6d8b13b$__94600095803b156101885781879186611b6095611b0260405190565b968794859384936351ed649d60e11b85528d8c60018b6004890190815260208101919091526001600160a01b03909116604082015260e08101959493909290916001600160a01b03166060840152608083015260a082015260c00152565b03915af48015610dba57611b829361189a9361089c92611bdb575b50876106fa565b9173__$e2f1b368e0f9a9db875dcb0fbb5a4aff7b$__611ba26004610743565b611bab306106f1565b90823b1561018857610d828795611bc160405190565b97889687958695634c34461f60e11b875260048701611a76565b611bf190893d8b11610db357610dab8183610831565b38611b7b565b9061019a94939291611a58565b9061019a9594939291611c19610fa983610e77565b9061019a9594939291611c33610c1c610c173360026106fa565b611e1a565b906020828203126101885761017391611054565b9035601e1936839003018112156101885701602081359101916001600160401b03821161018857602082023603831361018857565b818352916020019081611c976020830284019490565b92836000925b848410611cad5750505050505090565b9091929394956020611ccd6113ef83856001950388526113ea8b88611388565b940194019294939190611c9d565b906101739060806111dc611d0160a08401611cf68780611c4c565b868303875290611c81565b94611d19611d126020830183611132565b6020860152565b611d2961119e6040830183611132565b6111d36111b56060830183611132565b9061017391611cdb565b9035609e193683900301811215610188570190565b818352916020019081611d6e6020830284019490565b92836000925b848410611d845750505050505090565b9091929394956020611da96113ef8385600195038852611da48b88611d43565b611d39565b940194019294939190611d74565b939190610173959361143092611dd66101008801936000890190611150565b86830360c0880152611d58565b9093916101739593611e02611e0c926117656101208601986000870152565b6040830190611150565b610100818503910152611d58565b9294602090611e6c929395611e4073__$105df47e2f03863a6528aa0f9c50c03148$__90565b90611e4a60405190565b809581948293611e5e6334bcdaf660e01b90565b84528c8c8b60048701611db7565b03915af48015610dba57611e8791600091611f75575061143e565b6000936020820192611e9b611879856114ac565b94611eb16003610ccf898701986118948a6114ff565b9373__$191aaf5dbaa62f1effe7aa27b70b915dfa$__90813b15610188578893611ef8611edd60405190565b9687958694859463ae9a77fb60e01b86528960048701611de3565b03915af48015610dba57611f59575b5073__$e2f1b368e0f9a9db875dcb0fbb5a4aff7b$__611f276004610743565b92611f43611f3d611f37306106f1565b926114ac565b956114ff565b93823b1561018857610d828795610d6760405190565b611f6f90853d8711610db357610dab8183610831565b38611f07565b611f97915060203d602011611f9d575b611f8f8183610831565b810190611c38565b386117f5565b503d611f85565b9061019a9594939291611c04565b9061019a9291611fc9610c1c610c173360026106fa565b61200d565b60408082526101739491939192611fe791850190611264565b926020818503910152611246565b90815260406020820181905261017392910190611264565b9160009061205a9261203073__$105df47e2f03863a6528aa0f9c50c03148$__90565b9061203a60405190565b80958194829361204e63e2160b5b60e01b90565b84528960048501611fce565b03915af48015610dba5761207591600091611a2a575061143e565b60009073__$edb75297df75b3bb63d14c4c10f6d8b13b$__803b15610188578261209e60405190565b9182906376f7698960e01b825281806120bb878660048401611ff5565b03915af48015610dba57612152575b506120f161189a6120e66120e0604085016114ac565b856106fa565b6118948585016114ff565b9073__$e2f1b368e0f9a9db875dcb0fbb5a4aff7b$__906121126004610743565b916121286060612121306106f1565b93016114ac565b91813b15610188578593610d8261213e60405190565b96879586948594633abdf92160e01b611903565b61216890833d8511610db357610dab8183610831565b386120ca565b9061019a9291611fb2565b1561218057565b60405162461bcd60e51b815260206004820152602160248201527f4f6e6c79206f776e65722063616e2063616c6c20746869732066756e6374696f6044820152603760f91b6064820152608490fd5b61019a906121ea6121e36101676003610743565b3314612179565b612219565b9060ff905b9181191691161790565b9061220e61017361221592151590565b82546121ef565b9055565b600061222961019a9260026106fa565b6121fe565b61019a906121cf565b9095949261019a94610ca961225b92610c9960809661129860a088019c6000890152565b01906001600160a01b03169052565b600092612291606061228361189a8561089c338a6106fa565b01516001600160a01b031690565b9173__$edb75297df75b3bb63d14c4c10f6d8b13b$__90813b1561018857856122b960405190565b92839062a5a95b60e51b825281806122d8888b33898960048701612237565b03915af48015610dba576122f99361189a9361089c92611bdb5750876106fa565b9161230c6001600160a01b038316611947565b0361237b575b5073__$e2f1b368e0f9a9db875dcb0fbb5a4aff7b$__6123326004610743565b9061233c306106f1565b9061235160608501516001600160a01b031690565b91813b15610188578593610d8261236760405190565b968795869485946341d65a9160e01b611903565b73__$e2f1b368e0f9a9db875dcb0fbb5a4aff7b$__9061239b6004610743565b906123a5306106f1565b92803b1561018857849386936123d16123bd60405190565b96879586948594638db8fc1960e01b611903565b03915af48015610dba5715612312576123f690833d8511610db357610dab8183610831565b38612312565b9061019a94939291612410610fa982610e77565b9061019a94939291612429610c1c610c173360026106fa565b94938260009194929485886124526117bb73__$105df47e2f03863a6528aa0f9c50c03148$__90565b03915af48015610dba5761246d91600091611a2a575061143e565b60009373__$edb75297df75b3bb63d14c4c10f6d8b13b$__803b15610188578561249660405190565b918290630b124c9560e01b825281806124b5888a89886004860161147a565b03915af48015610dba576125a5575b506124ce85610712565b82811015611a065761250061189a6124f16124eb602086016114ac565b896106fa565b6118948961188e86898b6114e3565b9073__$e2f1b368e0f9a9db875dcb0fbb5a4aff7b$__6125206004610743565b9061252a306106f1565b9061253f60608601516001600160a01b031690565b91813b15610188578a9361256961255560405190565b9788958694859463550184d160e11b611903565b03915af4918215610dba5761258492612589575b5060010190565b6124ce565b61259f90883d8a11610db357610dab8183610831565b3861257d565b6125bb90863d8811610db357610dab8183610831565b386124c4565b9061019a949392916123fc565b61225b61019a946117756060949897956125ed608086019a6000870152565b6020850152565b6126409350602092509073__$191aaf5dbaa62f1effe7aa27b70b915dfa$__9061261d60405190565b809581948293612631631490ddc160e01b90565b845233916000600486016125ce565b03915af4908115610dba57600091612656575090565b610173915060203d602011611f9d57611f8f8183610831565b9092919261267f6110958261106e565b938185526020808601920283019281841161018857915b8383106126a35750505050565b602080916126b184866101a2565b815201920191612696565b9080601f83011215610188578160206101739335910161266f565b91909160c081840312610188576126ee60c0610de5565b9281356001600160401b0381116101885782610e208360a093610e7096016126bc565b6101739036906126d7565b90612725825190565b8110156114fa576020809102010190565b92949095919361274587612711565b9561275a60208801516001600160a01b031690565b9560009861277c61276d6101678c610ee6565b6001600160a01b038a16611008565b6127858a610712565b8a8a0161279461017382515190565b8210156127e857816127db6127cf60098f958e61089c6127c26127be611015946127e19a5161271c565b5190565b916124eb610fe68b610712565b611027611021866109c5565b60010190565b9050612785565b5095995061019a985088975093959294509092909161280e610c1c610c173360026106fa565b612ca2565b909291926128236110958261106e565b938185526020808601920283019281841161018857915b8383106128475750505050565b602080916128558486611061565b81520192019161283a565b9080601f8301121561018857815161017392602001612813565b916060838303126101885761288f8284611061565b9260208101516001600160401b03811161018857836128af918301612860565b9260408201516001600160401b038111610188576101739201612860565b602080825261017393910191611246565b903590601e19368290030182121561018857018035906001600160401b0382116101885760200191602082023603831361018857565b608081830312610188576129288282611061565b926101736129398460208501611061565b9360606129498260408701611061565b9401611061565b9037565b8183529091602001916001600160fb1b038111610188578291602061099c9202938491612950565b94939160409161019a946129a69261299960608a019360008b0152565b88830360208a0152612954565b9401906001600160a01b03169052565b156129bd57565b60405162461bcd60e51b815280610bfd600482016020808252818101527f696e76616c696420706172656e74546f6b656e55706461746520616d6f756e74604082015260600190565b906101739060a06111dc612a2c60c08401612a218780611c4c565b868303875290612954565b9461118e61117e6020830183611141565b6103f190610712565b9061099c81602093612a3d565b90612a73612a6c612a62845190565b8084529260200190565b9260200190565b9060005b818110612a845750505090565b909192612a9e612a976001928651612a46565b9460200190565b929101612a77565b6040808252610173939192612abd91840190612a06565b916020818403910152612a53565b15612ad257565b60405162461bcd60e51b815260206004820152601760248201527f766572696679506172656e74546f6b656e206572726f720000000000000000006044820152606490fd5b91908110156114fa576020020190565b909160608284031261018857610173612b408484611061565b9360406129498260208701611061565b9391906101739593612b7e612b8b93612b6e608089019460008a0152565b6001600160a01b03166020880152565b8582036040870152612a06565b92606081850391015261139e565b6040808252610173939192612bb091840190612a53565b91602081840391015261166a565b15612bc557565b60405162461bcd60e51b815260206004820152601c60248201527f766572696679445650526f6c6c6261636b546f6b656e206572726f72000000006044820152606490fd5b15612c1157565b60405162461bcd60e51b815260206004820152601c60248201527f7665726966794456505265636569766572546f6b656e206572726f72000000006044820152606490fd5b15612c5d57565b60405162461bcd60e51b815260206004820152601a60248201527f7665726966794456504368616e6765546f6b656e206572726f720000000000006044820152606490fd5b9093916000612ce99496612cc773__$105df47e2f03863a6528aa0f9c50c03148$__90565b94612cd160405190565b968792839263473b057f60e11b8452600484016128cd565b0381865af4918215610dba5760009485936131cf575b50612d0c602087016114ac565b95612d1f612d1a82806128de565b905090565b93600194612d34612d306001610712565b9190565b1161309a575b6020612d6391612d4960405190565b92839182919063b1a2071d60e01b83528660048401612aa6565b0381895af48015610dba57612d809160009161307b575b50612acb565b60009380612d8d86610712565b905b612f93575b50509060609291612db673__$191aaf5dbaa62f1effe7aa27b70b915dfa$__90565b91612dde612dc360405190565b9a8b9586948594636244305360e11b86528a60048701612b50565b03915af48015610dba5760008080979092612f4f575b50906020612e0c61189a612e2a9461089c8a886106fa565b604051938491829190630b77d34b60e41b5b83528960048401612b99565b0381875af4918215610dba5761189a602092612e55612e7d95612e5f94600091612f32575b50612bbe565b61089c89876106fa565b6040519283918291906365a06d4f60e01b5b83528860048401612b99565b0381865af4958615610dba5761089c602096612eb194612eac612eda9a61189a96600091612f15575b50612c0a565b6106fa565b91612ebb60405190565b809581948293612ecf63acc9e42060e01b90565b845260048401612b99565b03915af48015610dba5761019a91600091612ef6575b50612c56565b612f0f915060203d602011611f9d57611f8f8183610831565b38612ef0565b612f2c91508b3d8d11611f9d57611f8f8183610831565b38612ea6565b612f499150863d8811611f9d57611f8f8183610831565b38612e4f565b612e0c9750612e2a925061189a9150612f8160209160603d606011612f8c575b612f798183610831565b810190612b27565b995093509150612df4565b503d612f6f565b85830190612fa7610173612d1a84876128de565b81101561307557612fda61189a612fbe8c8a6106fa565b611894612fd585612fcf888b6128de565b90612b17565b6114ff565b73__$e2f1b368e0f9a9db875dcb0fbb5a4aff7b$__92612ffa6004610743565b93613029612fd585612fcf6130226060613013306106f1565b9801516001600160a01b031690565b958b6128de565b92813b15610188578d956130558c9561304160405190565b98899687958695639150f98360e01b610d77565b03915af4918215610dba5761306f92612589575060010190565b81612d8f565b50612d94565b613094915060203d602011611f9d57611f8f8183610831565b38612d7a565b6130e69060808973__$edb75297df75b3bb63d14c4c10f6d8b13b$__6130c086806128de565b906130ca60405190565b9687948593849363174f7b6960e11b855260006004860161297c565b03915af4908115610dba5761313d602092612d63946000808080939092919461319a575b50613121612d3061311d60408c016114ff565b9290565b14928361317d575b5082613160575b5081613145575b506129b6565b915050612d3a565b9050613159612d3061311d60a089016114ff565b1438613137565b909150613175612d3061311d60808a016114ff565b149038613130565b909250613192612d3061311d60608b016114ff565b149138613129565b925050506131c0915060803d6080116131c8575b6131b88183610831565b810190612914565b91923861310a565b503d6131ae565b9092506131f09194503d806000833e6131e88183610831565b81019061287a565b9491929092612cff565b9061019a9594939291612736565b73__$edb75297df75b3bb63d14c4c10f6d8b13b$__600091813b15610188578261323160405190565b9283906336238fc160e11b8252818061324f86338760048501610c26565b03915af4908115610dba576132729261189a926132da575b5061089c33856106fa565b73__$e2f1b368e0f9a9db875dcb0fbb5a4aff7b$__6132916004610743565b9061329b306106f1565b906132b060608501516001600160a01b031690565b91813b15610188578593610d826132c660405190565b9687958694859463b9ded94f60e01b611903565b6132f090853d8711610db357610dab8183610831565b38613267565b9160001960089290920291821b911b6121f4565b919061331b61017361221593610712565b9083546132f6565b61019a9160009161330a565b9061334290600019906020036008021c90565b8154169055565b818110613354575050565b806133626000600193613323565b01613349565b600019600883021c1916906002021790565b9060009161339861339082600052602060002090565b928354613368565b905555565b91929060208210156133f557601f84116001146133bf57612215929350613368565b50906133f061019a9360016133e76133dc85600052602060002090565b92601f602091010490565b82019101613349565b61337a565b50613435829361340c600194600052602060002090565b61342e6020601f860104820192601f86168061343d575b50601f602091010490565b0190613349565b600202179055565b6134499088860361332f565b38613423565b929091680100000000000000008211610852576020111561349b57602081101561347c5761221591613368565b60019160ff191661349284600052602060002090565b55600202019055565b60019150600202019055565b9081546134b381610763565b908183116134dc575b8183106134ca575b50505050565b6134d39361339d565b388080806134c4565b6134e88383838761344f565b6134bc565b600061019a916134a7565b634e487b7160e01b600052600060045260246000fd5b9060000361351f5761019a906134ed565b6134f8565b6000600c61019a9261353883808301613323565b6135458360018301613323565b82600282015582600382015561355e8360048301613323565b61356b8360058301613323565b6135788360068301613323565b6135858360078301613323565b613592836008830161350e565b8260098201556135a583600a8301613323565b82600b82015501613323565b9060000361351f5761019a90613524565b90600019906121f4565b906135dc61017361221592610712565b82546135c2565b906001600160a01b03906121f4565b90613602610173612215926106f1565b82546135e3565b9190601f811161361857505050565b61362a61019a93600052602060002090565b906020601f84018190048301931061364a575b6020601f9091010461342e565b909150819061363d565b9061365d815190565b906001600160401b038211610852576136808261367a8554610763565b85613609565b602090601f83116001146136ae576122159291600091836136a3575b5050613368565b01519050388061369c565b601f198316916136c385600052602060002090565b9260005b818110613701575091600293918560019694106136e8575b50505002019055565b01516000196008601f8516021c191690553880806136df565b919360206001819287870151815501950192016136c7565b9061019a91613654565b61017390516109c5565b9061220e610173612215926109cf565b600c61387f61018061019a9461375d613757600083015190565b866135cc565b61377461376b602083015190565b600187016135cc565b61379461378b60408301516001600160a01b031690565b600287016135f2565b6137b46137ab60608301516001600160a01b031690565b600387016135f2565b6137cb6137c2608083015190565b600487016135cc565b6137e26137d960a083015190565b600587016135cc565b6137f96137f060c083015190565b600687016135cc565b61381061380760e083015190565b600787016135cc565b61382861381f61010083015190565b60088701613719565b6138416138386101208301613723565b6009870161372d565b61385961385061014083015190565b600a87016135cc565b61387a6138716101608301516001600160a01b031690565b600b87016135f2565b015190565b91016135cc565b9061019a9161373d565b90916000936138a661189a8461089c87896106fa565b936101808501936138b5855190565b906138de886138d96138ce61189a8661089c89866106fa565b9461089c87846106fa565b6135b1565b73__$e2f1b368e0f9a9db875dcb0fbb5a4aff7b$__936138fe6004610743565b96613908306106f1565b9761391d60608601516001600160a01b031690565b94873b15610188578b916139478b9261393560405190565b988994859463b9ded94f60e01b611903565b0381895af4908115610dba57899461398592613ae6575b5061397c61396b8c610ee6565b6001600160a01b0316610160870152565b6103f18b610712565b61399460026101208501611509565b886060840194876139af61016788516001600160a01b031690565b6001600160a01b03821603613a30575b61089c926138d98661089c87956139ff613a0596613a109d6139f1613a0b9d9c8f604001906001600160a01b03169052565b906001600160a01b03169052565b846106fa565b8a6106fa565b613886565b613a1a6004610743565b92813b15610188578593610d8261236760405190565b5093505090613a3f6004610743565b91613a5185516001600160a01b031690565b92863b1561018857888b91613a7b8c613a6960405190565b9788948594638db8fc1960e01b611903565b0381895af4908115610dba57613a058b6138d98561089c8e996139ff8e613a109d6139f18a8f613a0b9f9060409161089c9f613aca575b50505050509d509650509597505096505092506139bf565b613ae0908d803d10610db357610dab8183610831565b38613ab2565b613afc908c8d3d10610db357610dab8183610831565b3861395e565b9061019a9291613b19610c1c610c173360026106fa565b613b44565b94939160409161019a94613b3c926129996101008a019360008b0152565b940190611150565b9073__$edb75297df75b3bb63d14c4c10f6d8b13b$__600093813b156101885784613b6e60405190565b9283906301059e2d60e21b82528180613b8d86898b8860048601613b1e565b03915af48015610dba5785613bea613be4613bde610173613bf198611894612fd5613a059c61189a9b6118949a613c52575b50613bce60208c019e8f6114ac565b93613bd88a610712565b91612b17565b976114ac565b826106fa565b92016114ff565b9073__$e2f1b368e0f9a9db875dcb0fbb5a4aff7b$__90613c126004610743565b91613c286003613c21306106f1565b9301610743565b91813b15610188578593610d82613c3e60405190565b96879586948594634da3307760e11b611903565b613c68908a3d8c11610db357610dab8183610831565b38613bbf565b9061019a9291613b02565b61019a90613c8d6121e36101676003610743565b600161222961019a9260026106fa565b61019a90613c79565b9061019a9594939291613cbb610fa983610e77565b9061019a9594939291613cd5610c1c610c173360026106fa565b613d37565b959294613d2894613d0b6101739997613d01613d1996611a9c8c9760006101608a01990152565b60408a0190611150565b87830361010089015261139e565b90848203610120860152612a53565b91610140818403910152612a53565b94906000613d5d94959392612cc773__$105df47e2f03863a6528aa0f9c50c03148$__90565b0381865af4918215610dba576000948593613f9c575b506000956020830192613d85846114ac565b613d8f90896106fa565b9888888184019b613d9f8d6114ff565b613da89161071f565b600301613db490610743565b9773__$191aaf5dbaa62f1effe7aa27b70b915dfa$__95613dd460405190565b97889687966350bbc31960e01b8852613df09660048901613cda565b03815a93606094f4908115610dba576000938492839290613f75575b5073__$e2f1b368e0f9a9db875dcb0fbb5a4aff7b$__90613e2d6004610743565b91613e37306106f1565b613e49613e43886114ac565b9c6114ff565b93823b1561018857613e738c95613e5f60405190565b9e8f9687958695639150f98360e01b610d77565b03915af4978815610dba5761189a602092613ea492613eba9b613f59575b5061089c613e9e876114ac565b8b6106fa565b604051988991829190630b77d34b60e41b612e1e565b0381875af4968715610dba5761189a602092613ee4613f069a613ef094600091612f325750612bbe565b61089c613a05866114ac565b6040519788918291906365a06d4f60e01b612e71565b0381865af4918215610dba5761089c602096613f3c61189a94613f37612eb197612eda9c600091613f425750612c0a565b6114ac565b906106fa565b612f2c91508c3d8e11611f9d57611f8f8183610831565b613f6f908b3d8d11610db357610dab8183610831565b38613e91565b91509350613f92915060603d606011612f8c57612f798183610831565b9338929192613e0c565b9092613fb39295503d8091833e6131e88183610831565b9491929092613d73565b9061019a9594939291613ca6565b600091613fdf61189a8261089c85876106fa565b91613ff460608401516001600160a01b031690565b6101808401519273__$191aaf5dbaa62f1effe7aa27b70b915dfa$__803b156101885761404291879161402660405190565b9384928391829163366fe1d760e11b8352898760048501610c26565b03915af48015610dba576140e7575b5073__$e2f1b368e0f9a9db875dcb0fbb5a4aff7b$__926140726004610743565b61407b306106f1565b95853b156101885787916140a5889261409360405190565b968794859463b9ded94f60e01b611903565b0381875af48015610dba576140c79361189a9361089c92611bdb5750876106fa565b916140d26004610743565b9161235160608501516001600160a01b031690565b6140fd90863d8811610db357610dab8183610831565b38614051565b60009061411761189a8261089c33866106fa565b9061412c60608301516001600160a01b031690565b6101808301519173__$191aaf5dbaa62f1effe7aa27b70b915dfa$__803b156101885761417a91869161415e60405190565b93849283918291634e93b69560e01b8352338760048501610c26565b03915af48015610dba5761420b575b5073__$e2f1b368e0f9a9db875dcb0fbb5a4aff7b$__916141aa6004610743565b6141b3306106f1565b94843b156101885786916141cb879261409360405190565b0381865af4908115610dba576140c79261189a926141ef575b5061089c33876106fa565b61420590873d8911610db357610dab8183610831565b386141e4565b61422190853d8711610db357610dab8183610831565b3861418956fea26469706673582212205d315c4b623689e0dfd29e950e3c0161beda181916e618ff4c61ae943574f10d64736f6c63430008190033",
  "linkReferences": {
    "contracts/ucl/image9/base/DVPLib.sol": {
      "DVPLib": [
        {
          "length": 20,
          "start": 8558
        },
        {
          "length": 20,
          "start": 10426
        },
        {
          "length": 20,
          "start": 12378
        },
        {
          "length": 20,
          "start": 16497
        },
        {
          "length": 20,
          "start": 17079
        },
        {
          "length": 20,
          "start": 17391
        }
      ]
    },
    "contracts/ucl/image9/base/TokenEventLib.sol": {
      "TokenEventLib": [
        {
          "length": 20,
          "start": 552
        },
        {
          "length": 20,
          "start": 4069
        },
        {
          "length": 20,
          "start": 7004
        },
        {
          "length": 20,
          "start": 7743
        },
        {
          "length": 20,
          "start": 8644
        },
        {
          "length": 20,
          "start": 9134
        },
        {
          "length": 20,
          "start": 9679
        },
        {
          "length": 20,
          "start": 9783
        },
        {
          "length": 20,
          "start": 10173
        },
        {
          "length": 20,
          "start": 12950
        },
        {
          "length": 20,
          "start": 13614
        },
        {
          "length": 20,
          "start": 15258
        },
        {
          "length": 20,
          "start": 16046
        },
        {
          "length": 20,
          "start": 16585
        },
        {
          "length": 20,
          "start": 17166
        },
        {
          "length": 20,
          "start": 17478
        }
      ]
    },
    "contracts/ucl/image9/base/TokenOperationsLib.sol": {
      "TokenOperationsLib": [
        {
          "length": 20,
          "start": 3985
        },
        {
          "length": 20,
          "start": 6842
        },
        {
          "length": 20,
          "start": 7565
        },
        {
          "length": 20,
          "start": 9012
        },
        {
          "length": 20,
          "start": 9550
        },
        {
          "length": 20,
          "start": 10028
        },
        {
          "length": 20,
          "start": 13149
        },
        {
          "length": 20,
          "start": 13508
        },
        {
          "length": 20,
          "start": 15873
        }
      ]
    },
    "contracts/ucl/image9/base/TokenVerificationLib.sol": {
      "TokenVerificationLib": [
        {
          "length": 20,
          "start": 6751
        },
        {
          "length": 20,
          "start": 8420
        },
        {
          "length": 20,
          "start": 8916
        },
        {
          "length": 20,
          "start": 9974
        },
        {
          "length": 20,
          "start": 12139
        },
        {
          "length": 20,
          "start": 16385
        }
      ]
    }
  },
  "deployedLinkReferences": {
    "contracts/ucl/image9/base/DVPLib.sol": {
      "DVPLib": [
        {
          "length": 20,
          "start": 7860
        },
        {
          "length": 20,
          "start": 9728
        },
        {
          "length": 20,
          "start": 11680
        },
        {
          "length": 20,
          "start": 15799
        },
        {
          "length": 20,
          "start": 16381
        },
        {
          "length": 20,
          "start": 16693
        }
      ]
    },
    "contracts/ucl/image9/base/TokenEventLib.sol": {
      "TokenEventLib": [
        {
          "length": 20,
          "start": 3371
        },
        {
          "length": 20,
          "start": 6306
        },
        {
          "length": 20,
          "start": 7045
        },
        {
          "length": 20,
          "start": 7946
        },
        {
          "length": 20,
          "start": 8436
        },
        {
          "length": 20,
          "start": 8981
        },
        {
          "length": 20,
          "start": 9085
        },
        {
          "length": 20,
          "start": 9475
        },
        {
          "length": 20,
          "start": 12252
        },
        {
          "length": 20,
          "start": 12916
        },
        {
          "length": 20,
          "start": 14560
        },
        {
          "length": 20,
          "start": 15348
        },
        {
          "length": 20,
          "start": 15887
        },
        {
          "length": 20,
          "start": 16468
        },
        {
          "length": 20,
          "start": 16780
        }
      ]
    },
    "contracts/ucl/image9/base/TokenOperationsLib.sol": {
      "TokenOperationsLib": [
        {
          "length": 20,
          "start": 3287
        },
        {
          "length": 20,
          "start": 6144
        },
        {
          "length": 20,
          "start": 6867
        },
        {
          "length": 20,
          "start": 8314
        },
        {
          "length": 20,
          "start": 8852
        },
        {
          "length": 20,
          "start": 9330
        },
        {
          "length": 20,
          "start": 12451
        },
        {
          "length": 20,
          "start": 12810
        },
        {
          "length": 20,
          "start": 15175
        }
      ]
    },
    "contracts/ucl/image9/base/TokenVerificationLib.sol": {
      "TokenVerificationLib": [
        {
          "length": 20,
          "start": 6053
        },
        {
          "length": 20,
          "start": 7722
        },
        {
          "length": 20,
          "start": 8218
        },
        {
          "length": 20,
          "start": 9276
        },
        {
          "length": 20,
          "start": 11441
        },
        {
          "length": 20,
          "start": 15687
        }
      ]
    }
  }
}