{
  "_format": "hh-sol-artifact-1",
  "contractName": "TokenVerificationLib",
  "sourceName": "contracts/ucl/image9/base/TokenVerificationLib.sol",
  "abi": [
    {
      "inputs": [
        {
          "internalType": "bytes",
          "name": "proofData",
          "type": "bytes"
        }
      ],
      "name": "verify",
      "outputs": [
        {
          "internalType": "uint256",
          "name": "",
          "type": "uint256"
        },
        {
          "internalType": "Fr[]",
          "name": "",
          "type": "uint256[]"
        },
        {
          "internalType": "Fr[]",
          "name": "",
          "type": "uint256[]"
        }
      ],
      "stateMutability": "view",
      "type": "function"
    },
    {
      "inputs": [
        {
          "components": [
            {
              "internalType": "uint256",
              "name": "id",
              "type": "uint256"
            },
            {
              "internalType": "address",
              "name": "owner",
              "type": "address"
            },
            {
              "internalType": "uint256",
              "name": "cl_x",
              "type": "uint256"
            },
            {
              "internalType": "uint256",
              "name": "cl_y",
              "type": "uint256"
            },
            {
              "internalType": "uint256",
              "name": "cr_x",
              "type": "uint256"
            },
            {
              "internalType": "uint256",
              "name": "cr_y",
              "type": "uint256"
            }
          ],
          "internalType": "struct TokenModel.TokenValueUpdate",
          "name": "parentTokenUpdate",
          "type": "tuple"
        },
        {
          "components": [
            {
              "components": [
                {
                  "internalType": "uint256",
                  "name": "id",
                  "type": "uint256"
                },
                {
                  "internalType": "uint256",
                  "name": "tokenType",
                  "type": "uint256"
                },
                {
                  "internalType": "address",
                  "name": "owner",
                  "type": "address"
                },
                {
                  "internalType": "address",
                  "name": "manager",
                  "type": "address"
                },
                {
                  "internalType": "uint256",
                  "name": "cl_x",
                  "type": "uint256"
                },
                {
                  "internalType": "uint256",
                  "name": "cl_y",
                  "type": "uint256"
                },
                {
                  "internalType": "uint256",
                  "name": "cr_x",
                  "type": "uint256"
                },
                {
                  "internalType": "uint256",
                  "name": "cr_y",
                  "type": "uint256"
                },
                {
                  "internalType": "enum TokenModel.TokenStatus",
                  "name": "status",
                  "type": "TokenModel.TokenStatus"
                },
                {
                  "internalType": "bytes",
                  "name": "encryptedAmount",
                  "type": "bytes"
                },
                {
                  "internalType": "uint256",
                  "name": "rollbackTokenId",
                  "type": "uint256"
                }
              ],
              "internalType": "struct TokenModel.NewToken[]",
              "name": "token",
              "type": "tuple[]"
            },
            {
              "internalType": "uint256",
              "name": "rollbackPkX",
              "type": "uint256"
            },
            {
              "internalType": "uint256",
              "name": "rollbackPkY",
              "type": "uint256"
            },
            {
              "internalType": "uint256",
              "name": "receiverPkX",
              "type": "uint256"
            },
            {
              "internalType": "uint256",
              "name": "receiverPkY",
              "type": "uint256"
            }
          ],
          "internalType": "struct TokenModel.NewBatchToken[]",
          "name": "childTokens",
          "type": "tuple[]"
        },
        {
          "internalType": "bytes",
          "name": "proof",
          "type": "bytes"
        }
      ],
      "name": "verifyBatchTokenSplit",
      "outputs": [
        {
          "internalType": "bool",
          "name": "",
          "type": "bool"
        }
      ],
      "stateMutability": "view",
      "type": "function"
    },
    {
      "inputs": [
        {
          "internalType": "Fr[]",
          "name": "zn",
          "type": "uint256[]"
        },
        {
          "components": [
            {
              "internalType": "uint256",
              "name": "id",
              "type": "uint256"
            },
            {
              "internalType": "uint256",
              "name": "tokenType",
              "type": "uint256"
            },
            {
              "internalType": "address",
              "name": "owner",
              "type": "address"
            },
            {
              "internalType": "address",
              "name": "manager",
              "type": "address"
            },
            {
              "internalType": "uint256",
              "name": "cl_x",
              "type": "uint256"
            },
            {
              "internalType": "uint256",
              "name": "cl_y",
              "type": "uint256"
            },
            {
              "internalType": "uint256",
              "name": "cr_x",
              "type": "uint256"
            },
            {
              "internalType": "uint256",
              "name": "cr_y",
              "type": "uint256"
            },
            {
              "internalType": "bytes",
              "name": "encryptedAmount",
              "type": "bytes"
            },
            {
              "internalType": "enum TokenModel.TokenStatus",
              "name": "status",
              "type": "TokenModel.TokenStatus"
            },
            {
              "internalType": "uint256",
              "name": "parentId",
              "type": "uint256"
            },
            {
              "internalType": "address",
              "name": "approvedSpender",
              "type": "address"
            },
            {
              "internalType": "uint256",
              "name": "rollbackTokenId",
              "type": "uint256"
            }
          ],
          "internalType": "struct TokenModel.TokenEntity",
          "name": "changeToken",
          "type": "tuple"
        }
      ],
      "name": "verifyDVPChangeToken",
      "outputs": [
        {
          "internalType": "bool",
          "name": "",
          "type": "bool"
        }
      ],
      "stateMutability": "pure",
      "type": "function"
    },
    {
      "inputs": [
        {
          "internalType": "Fr[]",
          "name": "zn",
          "type": "uint256[]"
        },
        {
          "components": [
            {
              "internalType": "uint256",
              "name": "id",
              "type": "uint256"
            },
            {
              "internalType": "uint256",
              "name": "tokenType",
              "type": "uint256"
            },
            {
              "internalType": "address",
              "name": "owner",
              "type": "address"
            },
            {
              "internalType": "address",
              "name": "manager",
              "type": "address"
            },
            {
              "internalType": "uint256",
              "name": "cl_x",
              "type": "uint256"
            },
            {
              "internalType": "uint256",
              "name": "cl_y",
              "type": "uint256"
            },
            {
              "internalType": "uint256",
              "name": "cr_x",
              "type": "uint256"
            },
            {
              "internalType": "uint256",
              "name": "cr_y",
              "type": "uint256"
            },
            {
              "internalType": "bytes",
              "name": "encryptedAmount",
              "type": "bytes"
            },
            {
              "internalType": "enum TokenModel.TokenStatus",
              "name": "status",
              "type": "TokenModel.TokenStatus"
            },
            {
              "internalType": "uint256",
              "name": "parentId",
              "type": "uint256"
            },
            {
              "internalType": "address",
              "name": "approvedSpender",
              "type": "address"
            },
            {
              "internalType": "uint256",
              "name": "rollbackTokenId",
              "type": "uint256"
            }
          ],
          "internalType": "struct TokenModel.TokenEntity",
          "name": "token",
          "type": "tuple"
        }
      ],
      "name": "verifyDVPReceiverToken",
      "outputs": [
        {
          "internalType": "bool",
          "name": "",
          "type": "bool"
        }
      ],
      "stateMutability": "pure",
      "type": "function"
    },
    {
      "inputs": [
        {
          "internalType": "Fr[]",
          "name": "zn",
          "type": "uint256[]"
        },
        {
          "components": [
            {
              "internalType": "uint256",
              "name": "id",
              "type": "uint256"
            },
            {
              "internalType": "uint256",
              "name": "tokenType",
              "type": "uint256"
            },
            {
              "internalType": "address",
              "name": "owner",
              "type": "address"
            },
            {
              "internalType": "address",
              "name": "manager",
              "type": "address"
            },
            {
              "internalType": "uint256",
              "name": "cl_x",
              "type": "uint256"
            },
            {
              "internalType": "uint256",
              "name": "cl_y",
              "type": "uint256"
            },
            {
              "internalType": "uint256",
              "name": "cr_x",
              "type": "uint256"
            },
            {
              "internalType": "uint256",
              "name": "cr_y",
              "type": "uint256"
            },
            {
              "internalType": "bytes",
              "name": "encryptedAmount",
              "type": "bytes"
            },
            {
              "internalType": "enum TokenModel.TokenStatus",
              "name": "status",
              "type": "TokenModel.TokenStatus"
            },
            {
              "internalType": "uint256",
              "name": "parentId",
              "type": "uint256"
            },
            {
              "internalType": "address",
              "name": "approvedSpender",
              "type": "address"
            },
            {
              "internalType": "uint256",
              "name": "rollbackTokenId",
              "type": "uint256"
            }
          ],
          "internalType": "struct TokenModel.TokenEntity",
          "name": "rollbackToken",
          "type": "tuple"
        }
      ],
      "name": "verifyDVPRollbackToken",
      "outputs": [
        {
          "internalType": "bool",
          "name": "",
          "type": "bool"
        }
      ],
      "stateMutability": "pure",
      "type": "function"
    },
    {
      "inputs": [
        {
          "components": [
            {
              "internalType": "uint256[]",
              "name": "id",
              "type": "uint256[]"
            },
            {
              "internalType": "address",
              "name": "owner",
              "type": "address"
            },
            {
              "internalType": "uint256",
              "name": "cl_x",
              "type": "uint256"
            },
            {
              "internalType": "uint256",
              "name": "cl_y",
              "type": "uint256"
            },
            {
              "internalType": "uint256",
              "name": "cr_x",
              "type": "uint256"
            },
            {
              "internalType": "uint256",
              "name": "cr_y",
              "type": "uint256"
            }
          ],
          "internalType": "struct TokenModel.TokenMergeAndUpdate",
          "name": "parentTokenUpdate",
          "type": "tuple"
        },
        {
          "internalType": "Fr[]",
          "name": "z0",
          "type": "uint256[]"
        }
      ],
      "name": "verifyParentToken",
      "outputs": [
        {
          "internalType": "bool",
          "name": "",
          "type": "bool"
        }
      ],
      "stateMutability": "view",
      "type": "function"
    },
    {
      "inputs": [
        {
          "internalType": "address",
          "name": "owner",
          "type": "address"
        },
        {
          "internalType": "uint256[]",
          "name": "childTokens",
          "type": "uint256[]"
        },
        {
          "components": [
            {
              "internalType": "uint256",
              "name": "id",
              "type": "uint256"
            },
            {
              "internalType": "address",
              "name": "owner",
              "type": "address"
            },
            {
              "internalType": "uint256",
              "name": "cl_x",
              "type": "uint256"
            },
            {
              "internalType": "uint256",
              "name": "cl_y",
              "type": "uint256"
            },
            {
              "internalType": "uint256",
              "name": "cr_x",
              "type": "uint256"
            },
            {
              "internalType": "uint256",
              "name": "cr_y",
              "type": "uint256"
            }
          ],
          "internalType": "struct TokenModel.TokenValueUpdate",
          "name": "parentTokenUpdate",
          "type": "tuple"
        },
        {
          "internalType": "bytes",
          "name": "proof",
          "type": "bytes"
        }
      ],
      "name": "verifyTokenMerge",
      "outputs": [
        {
          "internalType": "bool",
          "name": "",
          "type": "bool"
        }
      ],
      "stateMutability": "pure",
      "type": "function"
    },
    {
      "inputs": [
        {
          "components": [
            {
              "internalType": "uint256",
              "name": "id",
              "type": "uint256"
            },
            {
              "internalType": "uint256",
              "name": "tokenType",
              "type": "uint256"
            },
            {
              "internalType": "address",
              "name": "owner",
              "type": "address"
            },
            {
              "internalType": "address",
              "name": "manager",
              "type": "address"
            },
            {
              "internalType": "uint256",
              "name": "cl_x",
              "type": "uint256"
            },
            {
              "internalType": "uint256",
              "name": "cl_y",
              "type": "uint256"
            },
            {
              "internalType": "uint256",
              "name": "cr_x",
              "type": "uint256"
            },
            {
              "internalType": "uint256",
              "name": "cr_y",
              "type": "uint256"
            },
            {
              "internalType": "enum TokenModel.TokenStatus",
              "name": "status",
              "type": "TokenModel.TokenStatus"
            },
            {
              "internalType": "bytes",
              "name": "encryptedAmount",
              "type": "bytes"
            },
            {
              "internalType": "uint256",
              "name": "rollbackTokenId",
              "type": "uint256"
            }
          ],
          "internalType": "struct TokenModel.NewToken",
          "name": "token",
          "type": "tuple"
        },
        {
          "internalType": "bytes",
          "name": "proof",
          "type": "bytes"
        }
      ],
      "name": "verifyTokenMint",
      "outputs": [
        {
          "internalType": "bool",
          "name": "",
          "type": "bool"
        },
        {
          "internalType": "uint256",
          "name": "",
          "type": "uint256"
        },
        {
          "internalType": "uint256[]",
          "name": "",
          "type": "uint256[]"
        }
      ],
      "stateMutability": "view",
      "type": "function"
    },
    {
      "inputs": [
        {
          "components": [
            {
              "internalType": "uint256",
              "name": "id",
              "type": "uint256"
            },
            {
              "internalType": "address",
              "name": "owner",
              "type": "address"
            },
            {
              "internalType": "uint256",
              "name": "cl_x",
              "type": "uint256"
            },
            {
              "internalType": "uint256",
              "name": "cl_y",
              "type": "uint256"
            },
            {
              "internalType": "uint256",
              "name": "cr_x",
              "type": "uint256"
            },
            {
              "internalType": "uint256",
              "name": "cr_y",
              "type": "uint256"
            }
          ],
          "internalType": "struct TokenModel.TokenValueUpdate",
          "name": "parentTokenUpdate",
          "type": "tuple"
        },
        {
          "components": [
            {
              "internalType": "uint256",
              "name": "id",
              "type": "uint256"
            },
            {
              "internalType": "uint256",
              "name": "tokenType",
              "type": "uint256"
            },
            {
              "internalType": "address",
              "name": "owner",
              "type": "address"
            },
            {
              "internalType": "address",
              "name": "manager",
              "type": "address"
            },
            {
              "internalType": "uint256",
              "name": "cl_x",
              "type": "uint256"
            },
            {
              "internalType": "uint256",
              "name": "cl_y",
              "type": "uint256"
            },
            {
              "internalType": "uint256",
              "name": "cr_x",
              "type": "uint256"
            },
            {
              "internalType": "uint256",
              "name": "cr_y",
              "type": "uint256"
            },
            {
              "internalType": "enum TokenModel.TokenStatus",
              "name": "status",
              "type": "TokenModel.TokenStatus"
            },
            {
              "internalType": "bytes",
              "name": "encryptedAmount",
              "type": "bytes"
            },
            {
              "internalType": "uint256",
              "name": "rollbackTokenId",
              "type": "uint256"
            }
          ],
          "internalType": "struct TokenModel.NewToken[]",
          "name": "childTokens",
          "type": "tuple[]"
        },
        {
          "internalType": "bytes",
          "name": "proof",
          "type": "bytes"
        }
      ],
      "name": "verifyTokenSplit",
      "outputs": [
        {
          "internalType": "bool",
          "name": "",
          "type": "bool"
        },
        {
          "internalType": "uint256",
          "name": "",
          "type": "uint256"
        },
        {
          "internalType": "uint256[]",
          "name": "",
          "type": "uint256[]"
        }
      ],
      "stateMutability": "view",
      "type": "function"
    }
  ],
  "bytecode": "0x608060405234601d576040516119bf6100238239308150506119bf90f35b600080fdfe6080604052600436101561001257600080fd5b60003560e01c8063201c0320146100a257806334bcdaf61461009d57806365a06d4f146100985780638cb8e96b146100935780638e760afe1461008e578063acc9e42014610089578063b1a2071d14610084578063b77d34b01461007f5763e2160b5b036100bc57610a64565b6109f7565b6109e0565b6108e0565b6108ba565b6107e2565b610598565b610313565b6101aa565b90565b6001600160a01b0381165b036100bc57565b600080fd5b905035906100ce826100aa565b565b909182601f830112156100bc578135916001600160401b0383116100bc5760200192602083028401116100bc57565b908160c09103126100bc5790565b909182601f830112156100bc578135916001600160401b0383116100bc5760200192600183028401116100bc57565b9091610120828403126100bc5761015383836100c1565b9260208301356001600160401b0381116100bc57816101739185016100d0565b92909361018383604083016100ff565b926101008201356001600160401b0381116100bc576101a2920161010d565b9091565b9052565b6101d96101c76101bb36600461013c565b94939093929192610a7b565b60405191829182901515815260200190565b0390f35b634e487b7160e01b600052604160045260246000fd5b90601f01601f191681019081106001600160401b0382111761021457604052565b6101dd565b906100ce61022660405190565b92836101f3565b806100b5565b905035906100ce8261022d565b919060c0838203126100bc576102b79060a061025c60c0610219565b946102678382610233565b865261027683602083016100c1565b60208701526102888360408301610233565b604087015261029a8360608301610233565b60608701526102ac8360808301610233565b608087015201610233565b60a0830152565b610100818303126100bc576102d38282610240565b9260c08201356001600160401b0381116100bc57836102f39184016100d0565b92909360e08201356001600160401b0381116100bc576101a2920161010d565b6101d96101c76103243660046102be565b93929092610bfd565b6001600160401b0381116102145760208091020190565b909291926103596103548261032d565b610219565b93818552602080860192028301928184116100bc57915b83831061037d5750505050565b6020809161038b8486610233565b815201920191610370565b9080601f830112156100bc578160206100a793359101610344565b6001600160401b03811161021457602090601f01601f19160190565b0190565b90826000939282370152565b909291926103ed610354826103b1565b93818552818301116100bc576100ce9160208501906103d1565b9080601f830112156100bc578160206100a7933591016103dd565b600411156100bc57565b905035906100ce82610422565b9190916101a0818403126100bc576104526101a0610219565b9261045d8183610233565b845261046c8160208401610233565b602085015261047e81604084016100c1565b604085015261049081606084016100c1565b60608501526104a28160808401610233565b60808501526104b48160a08401610233565b60a08501526104c68160c08401610233565b60c08501526104d88160e08401610233565b60e0850152610100820135906001600160401b0382116100bc576105018161054b938501610407565b6101008601526101206105168282860161042c565b9086015261014061052982828601610233565b9086015261016061053c828286016100c1565b90860152610180809301610233565b90830152565b9190916040818403126100bc5780356001600160401b0381116100bc578361057a918301610396565b9260208201356001600160401b0381116100bc576100a79201610439565b6101d96101c76105a9366004610551565b9061104f565b919091610160818403126100bc576105c8610160610219565b926105d38183610233565b84526105e28160208401610233565b60208501526105f481604084016100c1565b604085015261060681606084016100c1565b60608501526106188160808401610233565b608085015261062a8160a08401610233565b60a085015261063c8160c08401610233565b60c085015261064e8160e08401610233565b60e08501526101006106628282850161042c565b90850152610120820135906001600160401b0382116100bc5761068a8161054b938501610407565b610120860152610140809301610233565b9291906106aa6103548261032d565b93818552602080860192028101918383116100bc5781905b8382106106d0575050505050565b81356001600160401b0381116100bc576020916106f087849387016105af565b8152019101906106c2565b9080601f830112156100bc578160206100a79335910161069b565b91610100838303126100bc5761072c8284610240565b9260c08101356001600160401b0381116100bc578361074c9183016106fb565b9260e08201356001600160401b0381116100bc576101a2920161010d565b9061078a610783610779845190565b8084529260200190565b9260200190565b9060005b81811061079b5750505090565b9091926107b86107b16001928651815260200190565b9460200190565b92910161078e565b901515815260208101919091526060604082018190526100a79291019061076a565b6101d96107fc6107f3366004610716565b92919091611100565b604051919391938493846107c0565b906020828203126100bc5781356001600160401b0381116100bc576101a2920161010d565b6100a76100a76100a79290565b6101a690610830565b906103cd8160209361083d565b90610862610783610779845190565b9060005b8181106108735750505090565b9091926108866107b16001928651610846565b929101610866565b9081526060602082018190526100a79391926108ac91840190610853565b916040818403910152610853565b6101d96108d16108cb36600461080b565b906115d0565b6040519193919384938461088e565b6101d96101c76108f1366004610551565b9061166f565b909291926109076103548261032d565b93818552602080860192028301928184116100bc57915b83831061092b5750505050565b602080916109398486610233565b81520192019161091e565b9080601f830112156100bc578160206100a7933591016108f7565b91909160c0818403126100bc5761097660c0610219565b9281356001600160401b0381116100bc57826102678360a0936102b79601610944565b9190916040818403126100bc5780356001600160401b0381116100bc57836109c291830161095f565b9260208201356001600160401b0381116100bc576100a79201610396565b6101d96101c76109f1366004610999565b9061171c565b6101d96101c7610a08366004610551565b90611752565b90816101609103126100bc5790565b9190916040818403126100bc5780356001600160401b0381116100bc5783610a46918301610a0e565b9260208201356001600160401b0381116100bc576101a2920161010d565b6101d96107fc610a75366004610a1d565b9161180a565b505050505050610a89600090565b50600190565b634e487b7160e01b600052603260045260246000fd5b90610aae825190565b811015610abf576020809102010190565b610a8f565b90610ad16103548361032d565b918252565b369037565b906100ce610af1610aeb84610ac4565b9361032d565b601f190160208401610ad6565b903590609e1936829003018212156100bc570190565b90821015610abf5760206100a79202810190610afe565b356100a78161022d565b91909160a0818403126100bc57610b4c60a0610219565b9281356001600160401b0381116100bc5782610b6f83608093610bad96016106fb565b8652610b7e8360208301610233565b6020870152610b908360408301610233565b6040870152610ba28360608301610233565b606087015201610233565b6080830152565b6100a7903690610b35565b905051906100ce8261022d565b906020828203126100bc576100a791610bbf565b60208082526100a79291019061076a565b6040513d6000823e3d90fd5b919093610c1690610c6e94610c10600090565b506115d0565b94915092610c25604082015190565b93600094610c54610c506100a7610c4b610c47610c418b610830565b87610aa5565b5190565b610830565b9190565b149182611022575b82610ff5575b82610fc5575b50501590565b610fbe5791939290610c7f81610830565b9485935b80851015610f9157610cb6610ca0610c9b600b610830565b610adb565b97610cb3610cad86610830565b8a610aa5565b52565b610cdc610ccf6060610cc9888589610b14565b01610b2b565b610cb3610cad6005610830565b610cfc610cef6080610cc9888589610b14565b610cb3610cad6006610830565b610d1c610d0f6020610cc9888589610b14565b610cb3610cad6009610830565b610d3c610d2f6040610cc9888589610b14565b610cb3610cad600a610830565b610d4583610830565b9583610d5a610d55888589610b14565b610bb4565b015194875b610d6a6100a7885190565b811015610f8257610d87610140610d81838a610aa5565b51015190565b610d93610c5088610830565b03610da057600101610d5f565b86979850610d8161014091610dba93959798969496610aa5565b935b610dc586610830565b610dd06100a7895190565b811015610ee25780610de988610d81610e17948c610aa5565b8714610ea257610dff610140610d81838c610aa5565b610e0b610c508a610830565b11610e1c575b60010190565b610dc5565b610e42610e2e6080610d81848d610aa5565b610cb38d610e3c6001610830565b90610aa5565b610e62610e5460a0610d81848d610aa5565b610cb38d610e3c6002610830565b610e82610e7460c0610d81848d610aa5565b610cb38d610e3c6003610830565b610e11610e9460e0610d81848d610aa5565b610cb38d610e3c6004610830565b610ec2610eb460c0610d81848d610aa5565b610cb38d610e3c6007610830565b610e11610ed460e0610d81848d610aa5565b610cb38d610e3c6008610830565b509350945094956020610f2791610f0a73__$f66870a82ae6d0e11a729a8629d20c0d57$__90565b60405193849283918291630b31d0cd60e41b835260048301610be0565b03915af48015610f7d57610f4591600091610f4f575b509660010190565b9390949291610c83565b610f70915060203d8111610f76575b610f6881836101f3565b810190610bcc565b38610f3d565b503d610f5e565b610bf1565b50919693949596929092610dbc565b50610c509194959350610fb39250610c4b610c476100a792610e3c6006610830565b036100a75750600190565b5091505090565b610fed9192506100a7610c4b610c47610fe260a0610c5095015190565b95610e3c6003610830565b143880610c68565b9150611002608083015190565b61101b610c506100a7610c4b610c47610c416002610830565b1491610c62565b915061102f606083015190565b611048610c506100a7610c4b610c47610c416001610830565b1491610c5c565b608082015161106d610c506100a7610c4b610c47610c416000610830565b1491826110d3575b826110a6575b8261108557505090565b6110a29192506100a7610c4b610c47610fe260e0610c5095015190565b1490565b91506110b360c083015190565b6110cc610c506100a7610c4b610c47610c416002610830565b149161107b565b91506110e060a083015190565b6110f9610c506100a7610c4b610c47610c416001610830565b1491611075565b9391611146919361111b91611113600090565b506060610c10565b9290919561112a604082015190565b92600093610c54610c506100a7610c4b610c47610c418a610830565b61145c5761115381610830565b9360019261116084610830565b956112c7611171610c9b6008610830565b9761118f611185610c4b610c478688610aa5565b610cb3858c610aa5565b6111ac6111a2610c4b610c478488610aa5565b610cb3838c610aa5565b6111db6111c8610c4b610c476111c26002610830565b88610aa5565b610cb36111d56002610830565b8c610aa5565b6111fe6111f1610c4b610c476111c26003610830565b610cb36111d56003610830565b611221611214610c4b610c476111c26004610830565b610cb36111d56004610830565b611244611237610c4b610c476111c26005610830565b610cb36111d56005610830565b61126761125a610c4b610c476111c26006610830565b610cb36111d56006610830565b61128a61127d610c4b610c476111c26007610830565b610cb36111d56007610830565b6112996080610d818388610aa5565b6112af610c506100a7610c4b610c47888a610aa5565b14908161142e575b816113fd575b816113c857501590565b6113be5790816112e06080610d81869561131697610aa5565b6112f9610c506100a7610c4b610c476111c26004610830565b14928361138d575b8361135c575b83611327575b50505015151590565b6113205750929190565b9050929190565b611353929350610c4b610c4761134860e0610d81610c50966100a796610aa5565b95610e3c6007610830565b1438808061130d565b925061136d60c0610d818386610aa5565b611386610c506100a7610c4b610c476111c26006610830565b1492611307565b925061139e60a0610d818386610aa5565b6113b7610c506100a7610c4b610c476111c26005610830565b1492611301565b5050509050929190565b6113d99150610d8160e09187610aa5565b6113f8610c506100a7610c4b610c476113f26003610830565b89610aa5565b141590565b905061140e60c0610d818388610aa5565b611427610c506100a7610c4b610c47610cad6002610830565b14906112bd565b905061143f60a0610d818388610aa5565b611455610c506100a7610c4b610c47868a610aa5565b14906112b7565b92505061146b610c9b83610830565b91929190565b6100a76020610219565b611483611471565b9060608252565b6100a761147b565b6100a79136916103dd565b909291926114ad6103548261032d565b93818552602080860192028301928184116100bc57915b8383106114d15750505050565b602080916114df8486610bbf565b8152019201916114c4565b9080601f830112156100bc5781516100a79260200161149d565b916060838303126100bc576115198284610bbf565b9260208101516001600160401b0381116100bc57836115399183016114ea565b9260408201516001600160401b0381116100bc576100a792016114ea565b60005b83811061156a5750506000910152565b818101518382015260200161155a565b61159b6115a46020936103cd9361158f815190565b80835293849260200190565b95869101611557565b601f01601f191690565b5160208083526100a792019061157a565b60208082526100a7929101906115ae565b6000906115f1611627936115e2600090565b506115eb61148a565b92611492565b8183015273__$5354bfe44937a23251cb74f1c3bd9e72fd$__60405193849283918291632d03b6d960e01b8352600483016115bf565b03915af4918215610f7d5760008080939094611644575b50929190565b9193505061166591503d806000833e61165d81836101f3565b810190611504565b913893919361163e565b608082015161168d610c506100a7610c4b610c47610c416004610830565b1491826116ef575b826116c2575b826116a557505090565b6110a29192506100a7610c4b610c4761134860e0610c5095015190565b91506116cf60c083015190565b6116e8610c506100a7610c4b610c47610c416006610830565b149161169b565b91506116fc60a083015190565b611715610c506100a7610c4b610c47610c416005610830565b1491611695565b6117449161172b604083015190565b610c54610c506100a7610c4b610c47610c416000610830565b61174d57600190565b600090565b6080820151611770610c506100a7610c4b610c47610c416008610830565b1491826117dd575b826117b0575b8261178857505090565b6110a29192506100a7610c4b610c476117a560e0610c5095015190565b95610e3c600b610830565b91506117bd60c083015190565b6117d6610c506100a7610c4b610c47610c41600a610830565b149161177e565b91506117ea60a083015190565b611803610c506100a7610c4b610c47610c416009610830565b1491611778565b91611816916000611113565b9050611828610c9b6004959395610830565b9260009061184d611841610c4b610c47610c4186610830565b610cb36111c285610830565b60019261187761186b610c4b610c4761186588610830565b85610aa5565b610cb36113f287610830565b61189a61188d610c4b610c476118656002610830565b610cb36113f26002610830565b6118bd6118b0610c4b610c476118656003610830565b610cb36113f26003610830565b6118c960808301610b2b565b6118e1610c506100a7610c4b610c47610c4189610830565b141591821561195b575b821561192c575b8215611905575b50506113205750929190565b6119239192506100a7610c4b610c47610fe260e0610c509501610b2b565b141538806118f9565b915061193a60c08301610b2b565b611953610c506100a7610c4b610c47610c416002610830565b1415916118f2565b915061196960a08301610b2b565b611981610c506100a7610c4b610c47610c418a610830565b1415916118eb56fea2646970667358221220421532f76f460e2bfc4b35547556243ffdbad00905bc9f9d26620ce2732675ec64736f6c63430008190033",
  "linkReferences": {
    "contracts/poseidon/PoseidonHasher.sol": {
      "PoseidonU2bn256Hasher": [
        {
          "length": 20,
          "start": 3863
        }
      ]
    },
    "contracts/ucl/image9/nova/sol/verifier.sol": {
      "ZkVerifier": [
        {
          "length": 20,
          "start": 5658
        }
      ]
    }
  },
  "deployedLinkReferences": {
    "contracts/poseidon/PoseidonHasher.sol": {
      "PoseidonU2bn256Hasher": [
        {
          "length": 20,
          "start": 3828
        }
      ]
    },
    "contracts/ucl/image9/nova/sol/verifier.sol": {
      "ZkVerifier": [
        {
          "length": 20,
          "start": 5623
        }
      ]
    }
  }
}