{
  "_format": "hh-sol-artifact-1",
  "contractName": "AddressDiscovery",
  "sourceName": "contracts/drex-connect/AddressDiscovery.sol",
  "abi": [
    {
      "inputs": [
        {
          "internalType": "address",
          "name": "_authority",
          "type": "address"
        }
      ],
      "stateMutability": "nonpayable",
      "type": "constructor"
    },
    {
      "anonymous": false,
      "inputs": [
        {
          "indexed": true,
          "internalType": "bytes32",
          "name": "role",
          "type": "bytes32"
        },
        {
          "indexed": true,
          "internalType": "bytes32",
          "name": "previousAdminRole",
          "type": "bytes32"
        },
        {
          "indexed": true,
          "internalType": "bytes32",
          "name": "newAdminRole",
          "type": "bytes32"
        }
      ],
      "name": "RoleAdminChanged",
      "type": "event"
    },
    {
      "anonymous": false,
      "inputs": [
        {
          "indexed": true,
          "internalType": "bytes32",
          "name": "role",
          "type": "bytes32"
        },
        {
          "indexed": true,
          "internalType": "address",
          "name": "account",
          "type": "address"
        },
        {
          "indexed": true,
          "internalType": "address",
          "name": "sender",
          "type": "address"
        }
      ],
      "name": "RoleGranted",
      "type": "event"
    },
    {
      "anonymous": false,
      "inputs": [
        {
          "indexed": true,
          "internalType": "bytes32",
          "name": "role",
          "type": "bytes32"
        },
        {
          "indexed": true,
          "internalType": "address",
          "name": "account",
          "type": "address"
        },
        {
          "indexed": true,
          "internalType": "address",
          "name": "sender",
          "type": "address"
        }
      ],
      "name": "RoleRevoked",
      "type": "event"
    },
    {
      "inputs": [],
      "name": "ACCESS_ROLE",
      "outputs": [
        {
          "internalType": "bytes32",
          "name": "",
          "type": "bytes32"
        }
      ],
      "stateMutability": "view",
      "type": "function"
    },
    {
      "inputs": [],
      "name": "DEFAULT_ADMIN_ROLE",
      "outputs": [
        {
          "internalType": "bytes32",
          "name": "",
          "type": "bytes32"
        }
      ],
      "stateMutability": "view",
      "type": "function"
    },
    {
      "inputs": [
        {
          "internalType": "bytes32",
          "name": "",
          "type": "bytes32"
        }
      ],
      "name": "addressDiscovery",
      "outputs": [
        {
          "internalType": "address",
          "name": "",
          "type": "address"
        }
      ],
      "stateMutability": "view",
      "type": "function"
    },
    {
      "inputs": [
        {
          "internalType": "bytes32",
          "name": "role",
          "type": "bytes32"
        }
      ],
      "name": "getRoleAdmin",
      "outputs": [
        {
          "internalType": "bytes32",
          "name": "",
          "type": "bytes32"
        }
      ],
      "stateMutability": "view",
      "type": "function"
    },
    {
      "inputs": [
        {
          "internalType": "bytes32",
          "name": "role",
          "type": "bytes32"
        },
        {
          "internalType": "address",
          "name": "account",
          "type": "address"
        }
      ],
      "name": "grantRole",
      "outputs": [],
      "stateMutability": "nonpayable",
      "type": "function"
    },
    {
      "inputs": [
        {
          "internalType": "bytes32",
          "name": "role",
          "type": "bytes32"
        },
        {
          "internalType": "address",
          "name": "account",
          "type": "address"
        }
      ],
      "name": "hasRole",
      "outputs": [
        {
          "internalType": "bool",
          "name": "",
          "type": "bool"
        }
      ],
      "stateMutability": "view",
      "type": "function"
    },
    {
      "inputs": [
        {
          "internalType": "bytes32",
          "name": "role",
          "type": "bytes32"
        },
        {
          "internalType": "address",
          "name": "account",
          "type": "address"
        }
      ],
      "name": "renounceRole",
      "outputs": [],
      "stateMutability": "nonpayable",
      "type": "function"
    },
    {
      "inputs": [
        {
          "internalType": "bytes32",
          "name": "role",
          "type": "bytes32"
        },
        {
          "internalType": "address",
          "name": "account",
          "type": "address"
        }
      ],
      "name": "revokeRole",
      "outputs": [],
      "stateMutability": "nonpayable",
      "type": "function"
    },
    {
      "inputs": [
        {
          "internalType": "bytes4",
          "name": "interfaceId",
          "type": "bytes4"
        }
      ],
      "name": "supportsInterface",
      "outputs": [
        {
          "internalType": "bool",
          "name": "",
          "type": "bool"
        }
      ],
      "stateMutability": "view",
      "type": "function"
    },
    {
      "inputs": [
        {
          "internalType": "bytes32",
          "name": "smartContract",
          "type": "bytes32"
        },
        {
          "internalType": "address",
          "name": "newAddress",
          "type": "address"
        }
      ],
      "name": "updateAddress",
      "outputs": [],
      "stateMutability": "nonpayable",
      "type": "function"
    }
  ],
  "bytecode": "0x60806040523461002a576100196100146100c2565b61011e565b604051610b406103618239610b4090f35b600080fd5b634e487b7160e01b600052604160045260246000fd5b90601f01601f191681019081106001600160401b0382111761006657604052565b61002f565b9061007f61007860405190565b9283610045565b565b6001600160a01b031690565b90565b6001600160a01b0381160361002a57565b9050519061007f82610090565b9060208282031261002a5761008d916100a1565b61008d610ea1803803806100d58161006b565b9283398101906100ae565b61008d61008d61008d9290565b61008d60006100e0565b61010a906001600160a01b031660601b90565b9052565b61011a816014936100f7565b0190565b61007f9061013461012d6100ed565b3390610207565b7f7def632d64a7259044c921303d544f945a340c8d4334adc0e0bd830a54deb52861019861016160405190565b61017f8160208101610173878261010e565b90810382520382610045565b61019161018a825190565b9160200190565b20826102ae565b610207565b905b600052602052604060002090565b61008d90610081906001600160a01b031682565b61008d906101ad565b61008d906101c1565b9061019f906101ca565b9060ff905b9181191691161790565b906101fc61008d61020392151590565b82546101dd565b9055565b610218610214838361030f565b1590565b610220575050565b610240600161023b846000610235868261019d565b016101d3565b6101ec565b61025e610258610252339390565b9390565b936101ca565b916101ca565b917f2f8788117e7eff1d82e926ec794901d17c78024a50270940304540a733656f0d61028960405190565b600090a4565b90600019906101e2565b906102a761008d6102039290565b825461028f565b906102dd6102d961024e6102c185610341565b9461008d8560016102d384600061019d565b01610299565b9190565b917fbd79b86ffe0ab8e8776151514217cd7cacd52c909f66475c3af44e129f0b00ff61028960405190565b5460ff1690565b61008d91600061023561032b93610324600090565b508261019d565b610308565b61008d9081565b61008d9054610330565b600161035a61008d92610352600090565b50600061019d565b0161033756fe6080604052600436101561001257600080fd5b60003560e01c806301ffc9a7146100b2578063118c894b146100ad578063248a9ca3146100a85780632f2ff15d146100a357806336568abe1461009e57806340129a401461009957806356b855aa1461009457806391d148541461008f578063a217fddf1461008a5763d547741f036100ca57610324565b610309565b6102ce565b610295565b610271565b610258565b61023a565b6101d6565b6101af565b6100f9565b6001600160e01b031981165b036100ca57565b600080fd5b905035906100dc826100b7565b565b906020828203126100ca576100f2916100cf565b90565b9052565b346100ca5761012661011461010f3660046100de565b61033d565b60405191829182901515815260200190565b0390f35b806100c3565b905035906100dc8261012a565b906020828203126100ca576100f291610130565b905b600052602052604060002090565b6100f2916008021c5b6001600160a01b031690565b906100f29154610161565b60006101916100f2926001610151565b610176565b6100f59061016a565b6020810192916100dc9190610196565b346100ca576101266101ca6101c536600461013d565b610181565b6040519182918261019f565b346100ca576101266101f16101ec36600461013d565b610388565b6040519182918290815260200190565b6100c38161016a565b905035906100dc82610201565b91906040838203126100ca576100f29060206102338286610130565b940161020a565b346100ca5761025361024d366004610217565b906103c7565b604051005b346100ca5761025361026b366004610217565b9061043d565b346100ca57610253610284366004610217565b906104ff565b60009103126100ca57565b346100ca576102a536600461028a565b6101267f7def632d64a7259044c921303d544f945a340c8d4334adc0e0bd830a54deb5286101f1565b346100ca576101266101146102e4366004610217565b90610528565b6100f26100f26100f29290565b6100f260006102ea565b6100f26102f7565b346100ca5761031936600461028a565b6101266101f1610301565b346100ca57610253610337366004610217565b9061056a565b637965db0b60e01b6001600160e01b031982161490811561035c575090565b6100f291506001600160e01b0319166301ffc9a760e01b1490565b6100f29081565b6100f29054610377565b60016103a16100f292610399600090565b506000610151565b0161037e565b906100dc916103bd6103b882610388565b610574565b906100dc9161059f565b906100dc916103a7565b0190565b156103dc57565b60405162461bcd60e51b815260206004820152602f60248201527f416363657373436f6e74726f6c3a2063616e206f6e6c792072656e6f756e636560448201526e103937b632b9903337b91039b2b63360891b6064820152608490fd5b0390fd5b6100dc919061045d61044e3361016a565b6104578461016a565b146103d5565b61061d565b6100dc91906104907f7def632d64a7259044c921303d544f945a340c8d4334adc0e0bd830a54deb528610574565b6104eb565b906001600160a01b03905b9181191691161790565b6100f29061016a906001600160a01b031682565b6100f2906104aa565b6100f2906104be565b906104e06100f26104e7926104c7565b8254610495565b9055565b906104fa6100dc926001610151565b6104d0565b906100dc91610462565b90610153906104c7565b6100f2905b60ff1690565b6100f29054610513565b6100f291600061054461054a9361053d600090565b5082610151565b01610509565b61051e565b906100dc916105606103b882610388565b906100dc9161061d565b906100dc9161054f565b6100dc9033906107a6565b9060ff906104a0565b906105986100f26104e792151590565b825461057f565b6105b06105ac8383610528565b1590565b6105b8575050565b6105d260016105cd8460006105448682610151565b610588565b6105ec6105e66105e0339390565b936104c7565b916104c7565b917f2f8788117e7eff1d82e926ec794901d17c78024a50270940304540a733656f0d61061760405190565b600090a4565b6106278282610528565b61062f575050565b61064360006105cd84826105448682610151565b6106516105e66105e0339390565b917ff6391f5c32d9c69d2a47ea670b442974b53935d1edc7fd64eb21e047a839171b61061760405190565b6100f2906102ea565b60005b8381106106985750506000910152565b8181015183820152602001610688565b6103d16106c0926020926106ba815190565b94859290565b93849101610685565b6107076100f29392610701610701937f416363657373436f6e74726f6c3a206163636f756e7420000000000000000000815260170190565b906106a8565b7001034b99036b4b9b9b4b733903937b6329607d1b815260110190565b634e487b7160e01b600052604160045260246000fd5b90601f01601f1916810190811067ffffffffffffffff82111761075c57604052565b610724565b61078261078b6020936103d193610776815190565b80835293849260200190565b95869101610685565b601f01601f191690565b60208082526100f292910190610761565b906107b46105ac8284610528565b6107bc575050565b6108066100f2610439936107ee6107de6107d861081296610863565b9261067c565b6107e860206102ea565b906109e7565b906107f860405190565b9384926020840192836106c9565b9081038252038261073a565b60405162461bcd60e51b815291829160048301610795565b6100f29081906001600160a01b031681565b6105186100f26100f29290565b6100f2601461083c565b6100f26100f26100f29260ff1690565b61088061087b6100f292610875606090565b506104be565b61082a565b6107e861088b610849565b610853565b634e487b7160e01b600052601160045260246000fd5b818102929181159184041417156108b957565b610890565b919082018092116108b957565b906100dc6108d860405190565b928361073a565b67ffffffffffffffff811161075c57602090601f01601f19160190565b9061090e610909836108df565b6108cb565b918252565b369037565b906100dc61092e610928846108fc565b936108df565b601f190160208401610913565b634e487b7160e01b600052603260045260246000fd5b9061095a825190565b811015610968570160200190565b61093b565b80156108b9576000190190565b6100f29061099261098e6100f29460ff1690565b9190565b901c90565b1561099e57565b60405162461bcd60e51b815280610439600482016020808252818101527f537472696e67733a20686578206c656e67746820696e73756666696369656e74604082015260600190565b909190610a18610a13610a03856109fe60026102ea565b6108a6565b610a0d60026102ea565b906108be565b610918565b9060006030610a2f610a29836102ea565b85610951565b53600f60fb1b610a68610a5f6001978893851a610a54610a4e866102ea565b89610951565b536109fe60026102ea565b610a0d836102ea565b905b610a8c575b506100f293945090610a8661098e6100f2936102ea565b14610997565b91610a96866102ea565b831115610b04576f181899199a1a9b1b9c1cb0b131b232b360811b610abb600f6102ea565b8216906010821015610968578792610adb610af892610afe941a60f81b90565b851a610ae78789610951565b53610af2600461083c565b9061097a565b9361096d565b90610a6a565b91610a6f56fea26469706673582212202d85bdabfac7c41cd25c8f338b19f4da73e112fc35523aed529a754e380313fe64736f6c63430008190033",
  "linkReferences": {},
  "deployedLinkReferences": {}
}