{
  "_format": "hh-sol-artifact-1",
  "contractName": "ZkVerifier",
  "sourceName": "contracts/ucl/image9/nova/sol/verifier.sol",
  "abi": [
    {
      "inputs": [
        {
          "internalType": "enum NovaError",
          "name": "",
          "type": "uint8"
        }
      ],
      "name": "Err",
      "type": "error"
    },
    {
      "inputs": [
        {
          "components": [
            {
              "internalType": "bytes",
              "name": "data",
              "type": "bytes"
            }
          ],
          "internalType": "struct ZKProof",
          "name": "proof",
          "type": "tuple"
        }
      ],
      "name": "verify",
      "outputs": [
        {
          "internalType": "uint256",
          "name": "",
          "type": "uint256"
        },
        {
          "internalType": "Fr[]",
          "name": "",
          "type": "uint256[]"
        },
        {
          "internalType": "Fr[]",
          "name": "",
          "type": "uint256[]"
        }
      ],
      "stateMutability": "view",
      "type": "function"
    }
  ],
  "bytecode": "0x608060405234601d5760405161499361002382393081505061499390f35b600080fdfe610140604052600436101561001357600080fd5b60003560e01c632d03b6d9036100365761010e565b908160209103126100365790565b600080fd5b9060208282031261003657813567ffffffffffffffff8111610036576100619201610028565b90565b9052565b6100616100616100619290565b61006490610068565b9061008b81602093610075565b0190565b906100af6100a861009e845190565b8084529260200190565b9260200190565b9060005b8181106100c05750505090565b9091926100da6100d3600192865161007e565b9460200190565b9291016100b3565b9081526060602082018190526100619391926101009184019061008f565b91604081840391015261008f565b61013361012461011f36600461003b565b610619565b604051919391938493846100e2565b0390f35b634e487b7160e01b600052604160045260246000fd5b90601f01601f1916810190811067ffffffffffffffff82111761016f57604052565b610137565b9061018861018160405190565b928361014d565b565b610061610180610174565b6100616040610174565b6101a7610195565b906000825260006020830152565b905250565b61006161019f565b6101ca610195565b906101d36101ba565b825260606020830152565b6100616101c2565b6100616080610174565b6101f86101e6565b906102016101ba565b8252602080808085016102126101ba565b81520160605b8152016000905250565b6100616101f0565b6100616020610174565b61023c61022a565b906102456101ba565b8252565b610061610234565b6100616060610174565b610263610251565b906000825260208080840160005b8152016060905250565b61006161025b565b61006160e0610174565b61029561022a565b9060608252565b61006161028d565b67ffffffffffffffff811161016f5760200290565b6102c5610061916102a4565b610174565b369037565b906101886102e56102df846102b9565b936102a4565b836102ca565b61006160036102cf565b6102fd610283565b9061030661029c565b82526020808080808080880161031a6102eb565b815201600081520161032a61029c565b815201600081520161027161029c565b6100616102f5565b610061610140610174565b610355610251565b9060605b82526020808084016060610271565b61006161034d565b610378610342565b906060825260208080808080808080808b016060815201606081520160608152016103a161029c565b81520160608152016060815201606081520160608152016101b5610368565b610061610370565b6103d061018a565b906103d96101de565b8252602080808080808080808080808d016103f2610222565b8152016103fd610249565b815201600081520161040d610222565b815201610418610249565b8152016000815201600081520161042d61027b565b81520161043861033a565b8152016104436101ba565b8152016101b56103c0565b6100616103c8565b61006160c0610174565b61006160026102cf565b610472610195565b9061047b610460565b825260208083016101b5610460565b61006161046a565b61049a610251565b906104a36101ba565b82526020808084016104b361048a565b8152016101b561048a565b610061610492565b6104ce610251565b906103596104be565b6100616104c6565b6104e7610456565b906000825260208080808080870160008152016105026101ba565b81520161050d6104d7565b8152016000610218565b6100616104df565b67ffffffffffffffff811161016f5760208091020190565b906105446102c58361051f565b918252565b9061018861055f61055984610537565b9361051f565b601f1901602084016102ca565b634e487b7160e01b600052603260045260246000fd5b9061058b825190565b81101561059c576020809102010190565b61056c565b634e487b7160e01b600052601160045260246000fd5b919082018092116105c457565b6105a1565b156105d057565b60405162461bcd60e51b815260206004820152601b60248201527f53657269616c697a6564207a6b2d50726f6f6620496e76616c696400000000006044820152606490fd5b0390fd5b506060600061062661044e565b9161062f610517565b905061063b6064610068565b9061067861066861065b6106556040600401359588610768565b846108a7565b906008823560c01c920190565b909450906008823560c01c920190565b9490949561068586610549565b946106906000610068565b875b8110156106c8576106c1610692916106ac6106bb9b61090b565b9b906106b8838c610582565b52565b60010190565b9050610690565b506008880197949650933560c01c9493909290916106e586610549565b966106f06000610068565b875b8110156107285761071d816106bb6106f2936106b86107148e9f9e9d9e61090b565b9290929d610582565b9050989796986106f0565b50610763949650918395989161075e8995936107586107546100618e9861074f6064610068565b6105b7565b9190565b146105c9565b6118cc565b929190565b6108446108226108006107f2610061956107e96107c06107e06107c06107d660606107cc8c6107c56107c06107b66107ac6107a1600090565b9c6000860151612690565b602085015161270f565b604084015161279c565b61090b565b9390910152565b60808c015161270f565b60a08b015161279c565b919060c08a0152565b929060e0880152565b50906001823560f81c920190565b809161080f6107546000610068565b036108975750906001823560f81c920190565b80916108316107546000610068565b036108815750906001823560f81c920190565b8092916108546107546000610068565b03610865575b506101600151612c9f565b81925061087a90610140610160930151612961565b919061085a565b610891915061012084015161283e565b386107f2565b61089191506101008501516127b3565b610061906107c56107c06109026107c06108f86108ee6108e56107c06108df60a09b6108d1600090565b50906008823560c01c920190565b91908a52565b91906020890152565b6040870151612961565b6060860151613323565b91906080850152565b6109296109309161091a600090565b5060005b509060208235920190565b9190613434565b91565b6100616003610068565b634e487b7160e01b600052602160045260246000fd5b6010111561095d57565b61093d565b9061018882610953565b61006190610962565b6100649061096c565b6020810192916101889190610975565b6100616000610068565b6100616001610068565b610061603a610068565b818102929181159184041417156105c457565b60001981146105c45760010190565b156109d557565b60405162461bcd60e51b8152602060048201526006602482015265425547434f4d60d01b6044820152606490fd5b67ffffffffffffffff811161016f57602090601f01601f19160190565b906105446102c583610a03565b610a376001610a20565b604360f81b602082015290565b610061610a2d565b610a566001610a20565b603b60f91b602082015290565b610061610a4c565b610a756001610a20565b606360f81b602082015290565b610061610a6b565b610a976100616100619290565b61ffff1690565b6100616100616100619261ffff1690565b610ab96001610a20565b603960f91b602082015290565b610061610aaf565b60005b828110610add57505050565b602090610ae8610222565b8184015201610ad1565b90610188610b0261055984610537565b601f190160208401610ace565b600091031261003657565b9060208061018893610b3460008201516000860190610075565b0151910190610075565b9061008b81604093610b1a565b610b5761075460039390565b6000915b838310610b685750505050565b610b786100a86001928451610b3e565b92019190610b5b565b9061008b8160c093610b4b565b90610b9d6100a861009e845190565b9060005b818110610bae5750505090565b909192610bc16100d36001928651610b81565b929101610ba1565b610bd561075460029390565b6000915b838310610be65750505050565b610bf66100a86001928451610b3e565b92019190610bd9565b9061008b81608093610bc9565b90610c1b6100a861009e845190565b9060005b818110610c2c5750505090565b909192610c3f6100d36001928651610bff565b929101610c1f565b610c5361075460049390565b6000915b838310610c645750505050565b610c746100a86001928451610b3e565b92019190610c57565b9061008b8161010093610c47565b90610c9a6100a861009e845190565b9060005b818110610cab5750505090565b909192610cbe6100d36001928651610c7d565b929101610c9e565b610cd261075460039390565b6000915b838310610ce35750505050565b610cf36100a8600192845161007e565b92019190610cd6565b9061008b81606093610cc6565b90610d186100a861009e845190565b9060005b818110610d295750505090565b909192610d3c6100d36001928651610cfc565b929101610d1c565b90610d536100a861009e845190565b9060005b818110610d645750505090565b909192610d776100d3600192865161007e565b929101610d57565b516020808352610061920190610d44565b9061006191610d7f565b90610db0610da6835190565b8083529160200190565b9081610dc26020830284019460200190565b926000915b838310610dd657505050505090565b90919293946020610df9610df283856001950387528951610d90565b9760200190565b9301930191939290610dc7565b516020808352610061920190610d9a565b610e2361075460059390565b6000915b838310610e345750505050565b610e446100a8600192845161007e565b92019190610e27565b9061008b8160a093610e17565b90610e696100a861009e845190565b9060005b818110610e7a5750505090565b909192610e8d6100d36001928651610e4d565b929101610e6d565b610ea161075460029390565b6000915b838310610eb25750505050565b610ec26100a8600192845161007e565b92019190610ea5565b9061008b81604093610e95565b90610ee76100a861009e845190565b9060005b818110610ef85750505090565b909192610f0b6100d36001928651610ecb565b929101610eeb565b610f1f61075460049390565b6000915b838310610f305750505050565b610f406100a8600192845161007e565b92019190610f23565b9061008b81608093610f13565b90610f656100a861009e845190565b9060005b818110610f765750505090565b909192610f896100d36001928651610f49565b929101610f69565b610f9d61075460079390565b6000915b838310610fae5750505050565b610fbe6100a8600192845161007e565b92019190610fa1565b9061008b8160e093610f91565b90610fe36100a861009e845190565b9060005b818110610ff45750505090565b9091926110076100d36001928651610fc7565b929101610fe7565b9061101e6100a861009e845190565b9060005b81811061102f5750505090565b9091926110426100d36001928651610b3e565b929101611022565b9061006191610d44565b90611060610da6835190565b90816110726020830284019460200190565b926000915b83831061108657505050505090565b909192939460206110a2610df28385600195038752895161104a565b9301930191939290611077565b8051606080845261006193916040916110e0916110ce9185019061100f565b6020850151848203602086015261100f565b920151906040818403910152611054565b610061916101206111bd6111a961119761118561117361116161114f61113d61112b6101408b0160008d01518c6000818403910152610b8e565b60208c01518b820360208d0152610c0c565b60408b01518a820360408c0152610c8b565b60608a015189820360608b0152610d09565b608089015188820360808a0152610e06565b60a088015187820360a0890152610e5a565b60c087015186820360c0880152610ed8565b60e086015185820360e0870152610f56565b610100850151848203610100860152610fd4565b920151906101208184039101526110af565b6111db61075460029390565b6000915b8383106111ec5750505050565b6111ff6100a86001928451815260200190565b920191906111df565b906040602061018893611223600082015160008601906111cf565b01519101906111cf565b9060c060406101889361124860008201516000860190610b1a565b611259602082015183860190611208565b0151910190611208565b8051825261018891906101a09060e09061128560208201516020860190610b1a565b61129760408201516060860190610b1a565b6112a9606082015160a0860190610b1a565b6112ba608082015183860190610b1a565b6112cd60a0820151610120860190610b1a565b6112e060c0820151610160860190610b1a565b0151910190610b1a565b9061008b816101e093611263565b906113076100a861009e845190565b9060005b8181106113185750505090565b90919261132b6100d360019286516112ea565b92910161130b565b906113426100a861009e845190565b9060005b8181106113535750505090565b9091926113696100d36001928651815260200190565b929101611346565b6100619160406113a461018083016113916000860151600086019061122d565b60208501518482036101408601526112f8565b92015190610160818403910152611333565b906100619060a060606113fc60c084016113d860008801516000870190610b1a565b6113ea60208801516040870190610b1a565b60408701518582036080870152610d44565b940151910190610075565b90610061916113b6565b9061141d610da6835190565b908161142f6020830284019460200190565b926000915b83831061144357505050505090565b9091929394602061145f610df283856001950387528951611407565b9301930191939290611434565b61147861075460029390565b6000915b8383106114895750505050565b61149c6100a86001928451815260200190565b9201919061147c565b60005b8381106114b85750506000910152565b81810151838201526020016114a8565b6114e96114f260209361008b936114dd815190565b80835293849260200190565b958691016114a5565b601f01601f191690565b805161ffff16825290610061906080606061153760a084016115266020880151602087019061146c565b6040870151858203848701526114c8565b940151910152565b9261156f610061959361156161157d94608088019088820360008a01526110f1565b908682036020880152611371565b908482036040860152611411565b9160608184039101526114fc565b6040513d6000823e3d90fd5b6115a16001610a20565b604560f81b602082015290565b610061611597565b909291926115c66102c58261051f565b938185526020808601920283019281841161003657915b8383106115ea5750505050565b82518152602092830192016115dd565b9080601f83011215610036578151610061926020016115b6565b919060a08382031261003657825192602081015167ffffffffffffffff811161003657826116439183016115fa565b604082015160608301516080909301519194909350565b906116696100a861009e845190565b9060005b81811061167a5750505090565b90919261168d6100d3600192865161007e565b92910161166d565b51602080835261006192019061165a565b9061006191611695565b906116bc610da6835190565b90816116ce6020830284019460200190565b926000915b8383106116e257505050505090565b909192939460206116fe610df2838560019503875289516116a6565b93019301919392906116d3565b5160208083526100619201906116b0565b61172861075460039390565b6000915b8383106117395750505050565b6117496100a8600192845161007e565b9201919061172c565b6100619160c06117d16117ae61177861012085016000870151868203600088015261170b565b61178a6020870151602087019061171c565b61179c60408701516080870190610075565b606086015185820360a087015261170b565b6117bf608086015184860190610075565b60a085015184820360e086015261170b565b9201519061010081840391015261165a565b610061916040606082019261180060008201516000850190610075565b61181260208201516020850190610075565b015190604081840391015261165a565b9161184f90611841610061959360608601908682036000880152611752565b9084820360208601526117e3565b9160408184039101526114fc565b6100616004610068565b61006167ffffffffffffffff610068565b6100616040610068565b610061906118936107546100619490565b901c90565b1561189f57565b60405162461bcd60e51b8152602060048201526005602482015264109551d49360da1b6044820152606490fd5b90949392610100526118de6000610068565b82148015612675575b801561265d575b8015612640575b8015612620575b6125765761190a6001610068565b821480612592575b610100820151604001515161192a610754600a610068565b0361257657611954611950602060008596950151015161194a6001610068565b90610582565b5190565b938661195e61098e565b94611967610998565b94611a6088611a5a611a16602061197c6109a2565b976119bb6119b66119a66119a0611991855190565b61199b6002610068565b6109ac565b8c6105b7565b6119b06001610068565b906105b7565b610549565b610120526119f06119da6119508460008c0151015161194a6000610068565b6106b86119e76000610068565b61012051610582565b6119fa6001610068565b60c052019a611a10611a0a8d5190565b8c613452565b90613486565b611a4e611a2b611a26858d613452565b9c5190565b6106b860c051611a3c60c0516109bf565b60e05260e05160c05261012051610582565b611a10611a0a86613434565b98613452565b95611a8a611a6d83613434565b611a7860e0516109bf565b60c0526106b860e05161012051610582565b611a946000610068565b975b611aa4610061610100515190565b891015611b1357611ad58a611acf611b0c93611a10611ac96119508f61010051610582565b8d613452565b99613452565b986106bb611ae96119508361010051610582565b60c05160a052611afa60c0516109bf565b60c0526106b860a05161012051610582565b9796611a96565b99919395989a9092949750611b286000610068565b8b611b346100618b5190565b821015611ba657906106bb611b79611950838d9e9f611b9c968f8f92611a10611b7394611b6761195088611b6d96610582565b90613452565b9e613452565b9d610582565b60c051608052611b8a60c0516109bf565b60c0526106b860805161012051610582565b9998979699611b28565b505093979296509397909460208801519160c051918b6101205192611bca956134ae565b90918160c052610100890151928b6101205192611be69561359c565b9890918960c0526060890190611bfa825190565b611c049085613452565b611c0d91613486565b928b611c1891613452565b5051611c238a6109bf565b998a60c0526101205190611c3691610582565b528351611c436002610068565b90611c4d916109ac565b611c56916105b7565b611c606001610068565b611c69916105b7565b8814611c74906109ce565b865160200151611c846002610068565b611c8d91610582565b5190611c989161378f565b61257657611cc7611cba611cb08961199b6020610068565b61074f6002610068565b611cc2610a44565b6138a0565b97611cd9611cd3610a63565b8a613999565b611ce36000610068565b885b811015611d1357611d0c816106bb8c611d07611950611ce59661012051610582565b6139ef565b9050611ce3565b509092949650611d31611d3792949698611d2b610a82565b90613a6f565b9061378f565b612576571561256857611d53611d4e610243610a8a565b610a9e565b90611d80611cb0611d7060206101206101608b0151015101515190565b611d7a6040610068565b906109ac565b808310612560575b5061016086015161012001515151611db290611da89061199b6040610068565b6119b06002610068565b808310612558575b50611dc56002610068565b93611dd06000610068565b945b87611dec6100616040610120610160850151015101515190565b871015611e3457611e2e916119b0611e1d611e188a6040610120610160611e2798015101510151610582565b515190565b611d7a6020610068565b9560010190565b94611dd2565b509092945094909294611e448190565b8510612550575b50611e566000610068565b6101608701516080015151518790821015611ebd57611cb0611e936000611e8c85826080610160611e9d98015101510151610582565b5101515190565b61199b6020610068565b808610611eb3575b50600101611e56565b611e56565b9450611eae611ea5565b5050909293611ed2611f459395611cc2610a44565b91611ee4611ede610a63565b84613999565b611ef383611d0760a089015190565b611f6283611d078961195083611d07611f568d6040611f3585611f2481848b015160208c015160008d015191613b93565b60a08a01519060808b015191613bea565b9101519560e060c082019e8f5190565b910196611f50885190565b92613c1b565b9a611950611ede610ac6565b611f6f6107546001610068565b11156124d957611f86611f80610a82565b83613a6f565b91611f916082610068565b9485611faa611cb0611e1d60c06101208d015101515190565b9081116124d1575b50611fbd6000610068565b610120890151515151899082101561200f57611cb0611e936000611e8c858280610120611fef98015101510151610582565b808810612005575b50600101611fbd565b611fbd565b9650612000611ff7565b505090919293956120206000610068565b610120890151606001515151899082101561207657611cb0611e936000611e8c8582606061012061205698015101510151610582565b80881061206c575b50600101612020565b612020565b965061206761205e565b505090919293956120876000610068565b61012089015160a00151515189908210156120dd57611cb0611e936000611e8c858260a06101206120bd98015101510151610582565b8088106120d3575b50600101612087565b612087565b96506120ce6120c5565b50509091939561211890611d076120fa6121139698611cc26115ae565b95869261210e612108610a82565b85613999565b610068565b613cb6565b60006101208801516101008901519061214b61213360405190565b96879384936354266cf760e11b855260048501611822565b038173__$05fff82480294565798d13398f760e24ed$__5af493841561249257600080808080919a9293979098612497575b5088611d076121946121999361210e612108610a82565b613434565b6121aa6121a4610ac6565b89613999565b61223c6101408b01936121be8a8651613cce565b6121c86002610068565b946121d286610af2565b966121e66121e06000610068565b89610582565b526121fa6121f46000610068565b88610582565b5051600061220b6121e06001610068565b510152612216613cec565b60206122256121e06001610068565b51015260606122376121f46001610068565b510152565b61225261224c6119b66035610068565b97610068565b9761225d6000610068565b985b61226a61006161185d565b8a10156122b3576122a66122ad916122988b6106b88e61229261228b611867565b8616610068565b92610582565b6122a0611878565b90611882565b9960010190565b9861225f565b50919395986122c59193959850610068565b966122ce61185d565b9586985b6122df61006189896109ac565b8a1015612306576122a6612300916122988b6106b88e61229261228b611867565b986122d2565b5097509497612322909994939291996106b86121e08b876109ac565b61234061232d835190565b61233a610754600b610068565b14611898565b61234a6000610068565b985b612357610061845190565b8a10156123f85761236e61210e6119508c86610582565b9561237c6119a68b876109ac565b965b6123926100616119a68d61199b6003610068565b8810156123d8576123cb6123d2916122988e6106b88f61194a8f918f906119b0906123c56123be611867565b8a16610068565b966109ac565b9760010190565b9661237e565b5092955092969093986123eb9060010190565b989390969294919461234c565b97509750505061016091939260406124196124136001610068565b86610582565b510152015191606073__$8b862fcb024e0fd61b3f61e459fee10b99$__910151813b156100365760009361246961244f60405190565b96879586948594634b63af0760e01b86526004860161153f565b03915af480156124925761247a5750565b61018890600061248a818361014d565b810190610b0f565b61158b565b6121999a5061219498508997506124c49150611d07933d8091833e6124bc818361014d565b810190611614565b93995099509a509261217d565b955038611fb2565b94610160919493506124f36124ee6001610068565b610af2565b926125076125016000610068565b85610582565b5261251b6125156000610068565b84610582565b5150015191606073__$8b862fcb024e0fd61b3f61e459fee10b99$__910151813b156100365760009361246961244f60405190565b935038611e4b565b915038611dba565b915038611d88565b611d53611d4e610483610a8a565b60405163081169f360e11b81528061061560066004830161097e565b93909491926125a2608084015190565b936125b4610100880195600087510152565b6125bc61098e565b966125c988602088510152565b6125d3600a610068565b966125dd88610549565b6040885101526125ed6000610068565b8881101561261157806106bb8b6106b861260c9460408d510151610582565b6125ed565b50929550929550929550611912565b5060208101516040015151612639610754610061610933565b14156118fc565b5080516020015151612656610754610061610933565b14156118f5565b50825161266e610754610061885190565b14156118ee565b506101005151612689610754610061885190565b14156118e7565b91906126b5906126a66000916000860151612961565b9050906008823560c01c920190565b91909160206126c384610549565b94019384526126d26000610068565b905b835b821015612707576126fe6106bb93926126f16126d69361090b565b95906106b8838a51610582565b919290506126d4565b925050915090565b9190612732906126a66127286000926000870151612961565b6020860151612961565b9190919261273f83610549565b93604082019485526127516000610068565b905b845b8210156127885761277e6106bb9493926127716127559361090b565b96906106b8838b51610582565b9192939050612753565b610061939550606094506107c5915061090b565b906000610061926127ab600090565b500151612961565b91906108d16127e7916127de6127d96127d36127cd600090565b9361090b565b91908852565b613d10565b92906020870152565b91909160406127f584610549565b94019384526128046000610068565b905b835b821015612707576128236106bb93926126f161280893613d10565b91929050612806565b9060035b81101561059c576020020190565b805160009261284c91613d67565b61285590613d10565b602083949294019384516128696000610068565b6128729161282c565b5261287c90613d10565b8451600195929061288c87610068565b6128959161282c565b5261289f90613d10565b91516128ab6002610068565b6128b49161282c565b526128be90613d10565b906128ca906040850152565b6060830151906128d991613d67565b6128e290613d10565b906128ee906080850152565b60a0830151906128fd91613d67565b600881019391503560c01c61291181610549565b9260c001928352816129236000610068565b905b612931575b5050505090565b8181101561295c57612956906129496106bb96613d10565b96906106b8838851610582565b82612925565b61292a565b919060206129866127d96129806101889461297a600090565b50613d10565b91908752565b9490910152565b60005b82811061299c57505050565b6020906129a76101ba565b8184015201612990565b906101886129c16102df846102b9565b8361298d565b61006160036129b1565b60005b8281106129e057505050565b6020906129eb6129c7565b81840152016129d4565b90610188612a0561055984610537565b601f1901602084016129d1565b60005b828110612a2157505050565b602090612a2c6101ba565b8184015201612a15565b90610188612a466102df846102b9565b83612a12565b6100616002612a36565b60005b828110612a6557505050565b602090612a70612a4c565b8184015201612a59565b90610188612a8a61055984610537565b601f190160208401612a56565b906002612830565b60005b828110612aae57505050565b602090612ab96101ba565b8184015201612aa2565b90610188612ad36102df846102b9565b83612a9f565b6100616004612ac3565b60005b828110612af257505050565b602090612afd612ad9565b8184015201612ae6565b90610188612b1761055984610537565b601f190160208401612ae3565b906004612830565b60005b828110612b3b57505050565b602090612b466102eb565b8184015201612b2f565b90610188612b6061055984610537565b601f190160208401612b2c565b61006160056102cf565b60005b828110612b8657505050565b602090612b91612b6d565b8184015201612b7a565b90610188612bab61055984610537565b601f190160208401612b77565b906005612830565b60005b828110612bcf57505050565b602090612bda610460565b8184015201612bc3565b90610188612bf461055984610537565b601f190160208401612bc0565b61006160046102cf565b60005b828110612c1a57505050565b602090612c25612c01565b8184015201612c0e565b90610188612c3f61055984610537565b601f190160208401612c0b565b61006160076102cf565b60005b828110612c6557505050565b602090612c70612c4c565b8184015201612c59565b90610188612c8a61055984610537565b601f190160208401612c56565b906007612830565b9190612cac9060006108d1565b919091612cb8836129f5565b8452600091612cc683610068565b915b85855b841015612d4c57612d3d612ccb92612d0c612d3287612d2b612d128b612d44980195612d0c8d612d06612cff878b51610582565b5191610068565b9061282c565b51612961565b612d0c612d20848851610582565b51612d066001610068565b9351610582565b51612d066002610068565b9360010190565b929050612cc8565b506008810195903560c01c945090929150612d6684612a7a565b9260208201938452612d7783610068565b955b855b871015612dce57612dc66123cb612dad612d7b93612d0c612d9d8c8b51610582565b51612da78a610068565b90612a97565b612d0c612dbb8b8a51610582565b51612da76001610068565b969050612d79565b919550813560c01c945060089091019250612de884612b07565b9460408101958652612df983610068565b935b855b851015612e7c57612e74611e27612e5b612e428a612d0c612e378b612d2b612dfd99612d0c8e612e31612cff868a51610582565b90612b24565b51612e316001610068565b612d0c612e508a8d51610582565b51612e316002610068565b612d0c612e69898c51610582565b51612e316003610068565b949050612dfb565b6008810196503560c01c9450919250612e9484612b50565b9460608301958652612ea584610068565b905b855b821015612f1157612f0782612ef76106bb9695946107c08b6106b8612d20612eee6106b86107c08f612edd612ea99d61090b565b939091612d06612cff8c8b51610582565b95909351610582565b96906106b8612d32848d51610582565b9192939050612ea7565b9050612f2992955061065b9194506080860151613e07565b92909293612f3684612b9b565b9460a08201958652612f4784610068565b905b855b82101561300b5761300182612fe6816107c08b6106b8612fdb612eee6107c0612fc08f6106bb9f9e9d612fa5906107c0612f4b9f6106b86107c095612f9f612cff612f968f9561090b565b97909551610582565b90612bb8565b91906106b8612fb58c8b51610582565b51612f9f6001610068565b91906106b8612fd08a8951610582565b51612f9f6002610068565b51612f9f6003610068565b96906106b8612ff6848d51610582565b51612f9f6004610068565b9192939050612f49565b6008810196503560c01c94509091905061302484612be4565b9460c0830195865261303584610068565b905b855b8210156130875761307d8261306d6106bb9695946107c08b6106b8613063612eee6130399961090b565b51612da78d610068565b96906106b8612dbb848d51610582565b9192939050613037565b92955050813560c01c9350600890910191906130a284612c2f565b9260e086019384526130b383610068565b905b855b82101561312b57613122826131126107c06131026106bb97966107c08b6106b8612e37612eee6106b88f6107c0906130f16130b79f61090b565b939091612e31612cff8c8b51610582565b91906106b8612e50868d51610582565b95906106b8612e69848b51610582565b919290506130b5565b6008810196903560c01c95509293509091905061314784612c7a565b94610100820195865261315984610068565b905b855b8210156132585761324e82613233816107c08b6106b8613228612eee6107c061320d8f6106bb9f9e9d6131e76107c061315d9f926106b86131dd826107c08e6106b86131d2612eee6106b86107c06107c09e6131bb6131f29f61090b565b9390916131cc612cff8c8b51610582565b90612c97565b516131cc6001610068565b9490928d51610582565b516131cc6002610068565b91906106b86132028c8b51610582565b516131cc6003610068565b91906106b861321d8a8951610582565b516131cc6004610068565b516131cc6005610068565b96906106b8613243848d51610582565b516131cc6006610068565b919293905061315b565b93505061012091945061006193500151613ed9565b610061610100610174565b61328061326d565b906000825260208080808080808089016132986101ba565b8152016132a36101ba565b8152016132ae6101ba565b8152016132b96101ba565b8152016132c46101ba565b8152016132cf6101ba565b8152016101b56101ba565b610061613278565b60005b8281106132f157505050565b6020906132fc6132da565b81840152016132e5565b9061018861331661055984610537565b601f1901602084016132e2565b9190613339906126a66000916000860151614049565b9190919261334683613306565b91602082019283526133586000610068565b945b845b86101561338d5761338561337e61335c92613378898851610582565b51614077565b9660010190565b95905061335a565b919450813560c01c9350915060080160406133a784610549565b94019384526133b66000610068565b905b835b821015612707576133dd6106bb93926126f16133ba93906008823560c01c920190565b919290506133b8565b6100617f30644e72e131a029b85045b68181585d2833e84879b9709143e1f593f0000001610068565b634e487b7160e01b600052601260045260246000fd5b811561342f570690565b61340f565b61210e61006191613443600090565b5061344c6133e6565b90613425565b61346761346d91613461600090565b50610068565b91610068565b6134756133e6565b90811561342f576100619209610068565b61346761349591613461600090565b61349d6133e6565b90811561342f576100619208610068565b946134ce859182859996866134db97966134c6600090565b508b516140e1565b93909160208901516140e1565b9291839691965061351e61350b6135068461350060608b0195611a108d611b67895190565b9a613452565b925190565b6106b8613517876109bf565b9688610582565b6135286000610068565b60408701976135396100618a515190565b82101561358e57816106bb6135716119508361356a898f61358498611a10611ac961195060409d611acf9551610582565b9d51610582565b6106b861357d8a6109bf565b998b610582565b9050969096613528565b949650509550509150929190565b958295939492916135ab600090565b5087906135b6825190565b6135c09088613452565b6135c991613486565b95836135d491613452565b90516135df866109bf565b956135ea9086610582565b5260208801516135f990610068565b61360290613434565b9561360d8783613452565b61361691613486565b9661362091613452565b9461362a856109bf565b946136359085610582565b526000956136436000610068565b965b61364f6007610068565b8810156137105790959161366d61210e6119508a60408d0151610582565b61367683610068565b935b61368361006161185d565b8510156136f5579085939291613697611867565b82166136a290610068565b996136ad8b83613452565b6136b691613486565b946136c091613452565b986136ca896109bf565b986136d59089610582565b526136de611878565b6136e791611882565b936001019390919297613678565b935050966137069098919860010190565b9691959097613645565b509690955061371f6000610068565b6137296003610068565b8110156137855761377d906106bb61376985611acf611a109c61376161219461210e61195060408c015161194a8b61074f6007610068565b9d8e8d613452565b996106b8613776896109bf565b9888610582565b96949661371f565b5050505091909190565b6107546100616137a46137aa93613461600090565b93610068565b141590565b6137b76101e6565b906000825260208080808501610212610460565b6100616137af565b6100616047610068565b6137ea6100616100619290565b60ff1690565b610061906118936107546100619460ff1690565b610061906138186107546100619460ff1690565b901b90565b9061018861055f61382d84610a20565b93610a03565b6138496138436100619260ff1690565b60f81b90565b6001600160f81b03191690565b61006161386360016137dd565b613833565b61008b6138809260209261387a815190565b94859290565b938491016114a5565b0190613868565b80926001600160f81b0319169052565b610188909291926138af6137cb565b6138f26138cc6138c283976119b06137d3565b6119b06020610068565b806138d7601f610068565b81166138e66107546000610068565b1161396d575b5061381d565b60408201526106b86139046000610068565b926060830192613912858552565b613968632737aa2960e11b92613926613856565b9361395c61393360405190565b958693602085019384600193926004826138896138909461008b966001600160e01b0319169052565b9081038252038361014d565b61425a565b613993915061398e61398961398260056137dd565b80936137f0565b6109bf565b613804565b386138ec565b919091606081019060406139ab835190565b9101519060200101928051840160208201945b8181106139df5750506101889293506139d8610064915190565b82516105b7565b85518152602095860195016139be565b906139ff61210e61018893610068565b906142dc565b6100649061ffff1660f01b90565b613a1f61075460029390565b6000915b838310613a305750505050565b613a436100a86001928451815260200190565b92019190613a23565b018092613a05565b018092613a13565b61ffff1661ffff81146105c45760010190565b613b4e611950613b426119506060613b3b613afc96613b2a61006199613a93600090565b50613b0e634e6f445360e01b8451859391613b089161ffff1690602088019e8f5194613abd613856565b90613ac760405190565b96879560208701958661008b93613889600261389095613a54600486613a4c60409860019e9d9a6001600160e01b0319169052565b9081038252038261014d565b8461425a565b613b22613b1d825161ffff1690565b613a5c565b61ffff169052565b613b346000610068565b9283910152565b8551612a97565b9251612da76001610068565b90614337565b613b5e6002610a20565b612a9960f11b602082015290565b610061613b54565b613b7e6001610a20565b601560fa1b602082015290565b610061613b74565b91613be260006100619594613ba6610222565b50613bb8613bb2613b6c565b87613999565b613bc2868561437f565b613bcd613bb2613b8b565b0193613bda818651613cce565b611d2b610ac6565b9251916143d6565b91613c1360006100619594613bfd610222565b50613c09613bb2613b6c565b613bc286856144b4565b925191614521565b60409192949390613c6c8392613c4f613c32610222565b96613c55889a613c4f613c49600089015192614609565b84614637565b9061470d565b8852602085015192613c6690614609565b90614637565b6020850152613c86613c7f606083015190565b6060860152565b0151910152565b6100617f30644e72e131a029b85045b68181585d97816a916871ca8d3c208c16d87cfd47610068565b61210e61006191613cc5600090565b5061344c613c8d565b90611d07602061018893613ce784611d07600084015190565b015190565b613cf46101ba565b90610188826020613d0361098e565b91613d0c838252565b0152565b613d1f6109309161091a600090565b9190613cb6565b60005b828110613d3557505050565b602090613d4061029c565b8184015201613d29565b90610188613d5a61055984610537565b601f190160208401613d26565b90613d739060006108d1565b92909291613d8084613d4a565b8152600091613d8e83610068565b935b855b851015613dbe57613db6611e27613d9292613db08888880151610582565b516147f0565b949050613d90565b945092505050565b60005b828110613dd557505050565b602090613de061029c565b8184015201613dc9565b90610188613dfa61055984610537565b601f190160208401613dc6565b90613e139060006108d1565b92909291613e2084613dea565b8152600091613e2e83610068565b935b855b851015613dbe57613e56611e27613e3292613e508888880151610582565b51614856565b949050613e30565b60005b828110613e6d57505050565b602090613e786101ba565b8184015201613e61565b90610188613e9261055984610537565b601f190160208401613e5e565b60005b828110613eae57505050565b606082820152602001613ea2565b90610188613ecc61055984610537565b601f190160208401613e9f565b813560c01c91600801906000613eee84613e82565b8252600094613efc86610068565b935b855b851015613f2657613f1e611e27613f0092612d0c888b890151610582565b949050613efe565b803560c01c9550600801935091613f3c85613e82565b9560208201968752613f4d81610068565b945b865b861015613f7557613f6d61337e613f5192612d0c898c51610582565b959050613f4f565b6008810197509095509093503560c01c6040613f9082613ebc565b9401938452613f9e85610068565b955b815b87101561403f57803560c01c95919290600801613fd588613fc289610549565b885190613fcf8383610582565b52610582565b50613fdf83610068565b905b8782101561401d57816106bb8a6106b861400e989796956140046140149661090b565b9a90938d51610582565b51610582565b90919293613fe1565b97613fa292949750614033915094929460010190565b96905094909294613fa0565b9450505092505090565b604061406f6140656100619461405d600090565b508451612961565b60208401516148a4565b9101516148a4565b60e06140d96140cf6140c56140bb6140b16140a761409d6108df6100619a6108d1600090565b6020890151612961565b6040880151612961565b6060870151612961565b6080860151612961565b60a0850151612961565b60c0840151612961565b910151612961565b94809695949291946140f1600090565b906140fd61210e825190565b6141076000610068565b975b61411461006161185d565b8910156141675761415e91612298896106b86141576141508b611b6d6123cb98611a10614149614142611867565b8b16610068565b8098613452565b999f6109bf565b9e8b610582565b96899396614109565b97505096909661417b61210e602083015190565b6141856000610068565b975b61419261006161185d565b8910156141c9576141c091612298896106b86141576141508b611b6d6123cb98611a10614149614142611867565b96899396614187565b94916142089398506106b894506141e6915061076396995061491d565b15614218576142026141f6610998565b945b611a108689613452565b95613452565b96614212816109bf565b96610582565b61420261422361098e565b946141f8565b61006161386360006137dd565b919082039182116105c457565b9061424c825190565b81101561059c570160200190565b6106b86101889261427361426c600090565b9184613999565b612dbb60206060850181614285825190565b9160408801906142c7825192858585012098506142bd6142ad6142a6614229565b9251945190565b6142b76001610068565b90614236565b9060001a92614243565b5301209401916106b88351612da76000610068565b61018891606082019160406142ef845190565b9101519060200101526100646139d86020610068565b61006190610068565b6100617f0e0a77c19a07df2f666ea36f7879462e36fc76959f60cd29ac96341c4ffffffb610068565b9061434d61435391614347600090565b50614305565b91614305565b61435b61430e565b916143646133e6565b91821561342f57821561342f57610061938391099008610068565b909161438f836000840151613cce565b6143996000610068565b602083016143a961006182515190565b8210156143cf57816106bb86611d076119506020966143c89651610582565b9050614399565b5050915050565b93929091926143e3610222565b90819060408701926143f76119b685515190565b97604082019889526144096000610068565b61441561006187515190565b81101561445c57806106bb8b6106b8836144508d611a108e611b678f8660206144486119506144579f6119509551610582565b960151610582565b9251610582565b614409565b506144af9398506060945084906144a06144aa9397949961448c6101889a613c4f88600080880151930151614637565b60008a0152613c4f86602085015192614637565b6020880152015190565b613486565b910152565b90916144c4836000840151613cce565b6144d2836020840151613cce565b6144e183611d07606085015190565b6144eb6000610068565b604083016144fb61006182515190565b8210156143cf57816106bb86611d0761195060409661451a9651610582565b90506144eb565b939290919261452e610222565b90819060408701926145426119b685515190565b97604082019889526145546000610068565b61456061006187515190565b81101561459857806106bb8b6106b8836144508d611a108e611b678f8660406144486119506145939f6119509551610582565b614554565b506144af9398506060945094611b678561460381611a1095996145f96145e76101889d999e8d60006145d58d613c4f8d84808b0151930151614637565b910152613c4f89602086015192614637565b613c4f60208b0151613c668a80613452565b60208c0152015190565b94015190565b61210e61006191614618600090565b5061463261462d6146276133e6565b92610068565b820390565b613425565b91906146416101ba565b90819361464c6102eb565b614654610460565b9261465d835190565b61466690610068565b9260009361467385610068565b61467d908561282c565b526020015161468b90610068565b6146956001610068565b61469f908461282c565b526146a990610068565b6146b36002610068565b6146bd908361282c565b52825a6040926007606092fa1561470a576144af61210e6119506101889594614700856146fa61210e6119506146f460209a610068565b86612a97565b90880152565b612da76001610068565b80fd5b91906147176101ba565b908193614722612c01565b61472a610460565b92614733835190565b61473c90610068565b9260009361474985610068565b6147539085612b24565b526020015161476190610068565b61476b6001610068565b6147759084612b24565b528281015161478390610068565b61478d6002610068565b6147979084612b24565b52602001516147a590610068565b6147af6003610068565b6147b99083612b24565b52825a6040926006608092fa1561470a576144af61210e6119506101889594614700856146fa61210e6119506146f460209a610068565b91906147fd9060006108d1565b909161480883610549565b845260009161481683610068565b905b845b82101561484d576148446106bb939261483561481a93613d10565b95906106b883898c0151610582565b91929050614818565b93505092505090565b91906148639060006108d1565b909161486e83610549565b845260009161487c83610068565b905b845b82101561484d5761489b6106bb93926148356148809361090b565b9192905061487e565b6101889061490f60206148e36148fb6106b86148e36148ed6148cc6106b89b9a61091e600090565b89518a93926148e3916106b890612da76001610068565b9060208235920190565b93909151612da76000610068565b92909401936106b88551612da76001610068565b94909151612da76000610068565b61492d614928825190565b614941565b9081614937575090565b6020015161006191505b61494c906000613461565b6149596107546000610068565b149056fea26469706673582212204482c07224d36b7eaf87c246cdbed27865b000baa5cccef308284de36f6c2a3864736f6c63430008190033",
  "linkReferences": {
    "contracts/ucl/image9/nova/sol/r1cs.sol": {
      "BatchedRelaxedR1CSSNARKLib": [
        {
          "length": 20,
          "start": 9286
        },
        {
          "length": 20,
          "start": 9543
        }
      ]
    },
    "contracts/ucl/image9/nova/sol/snark_sm.sol": {
      "RelaxedR1CSSNARKForSMLib": [
        {
          "length": 20,
          "start": 8562
        }
      ]
    }
  },
  "deployedLinkReferences": {
    "contracts/ucl/image9/nova/sol/r1cs.sol": {
      "BatchedRelaxedR1CSSNARKLib": [
        {
          "length": 20,
          "start": 9251
        },
        {
          "length": 20,
          "start": 9508
        }
      ]
    },
    "contracts/ucl/image9/nova/sol/snark_sm.sol": {
      "RelaxedR1CSSNARKForSMLib": [
        {
          "length": 20,
          "start": 8527
        }
      ]
    }
  }
}