{
  "_format": "hh-sol-artifact-1",
  "contractName": "BatchedRelaxedR1CSSNARKLib",
  "sourceName": "contracts/ucl/image9/nova/sol/r1cs.sol",
  "abi": [
    {
      "inputs": [
        {
          "internalType": "enum NovaError",
          "name": "",
          "type": "uint8"
        }
      ],
      "name": "Err",
      "type": "error"
    },
    {
      "inputs": [
        {
          "components": [
            {
              "components": [
                {
                  "internalType": "Fq",
                  "name": "x",
                  "type": "uint256"
                },
                {
                  "internalType": "Fq",
                  "name": "y",
                  "type": "uint256"
                }
              ],
              "internalType": "struct G1[3][]",
              "name": "comms_Az_Bz_Cz",
              "type": "tuple[3][]"
            },
            {
              "components": [
                {
                  "internalType": "Fq",
                  "name": "x",
                  "type": "uint256"
                },
                {
                  "internalType": "Fq",
                  "name": "y",
                  "type": "uint256"
                }
              ],
              "internalType": "struct G1[2][]",
              "name": "comms_L_row_col",
              "type": "tuple[2][]"
            },
            {
              "components": [
                {
                  "internalType": "Fq",
                  "name": "x",
                  "type": "uint256"
                },
                {
                  "internalType": "Fq",
                  "name": "y",
                  "type": "uint256"
                }
              ],
              "internalType": "struct G1[4][]",
              "name": "comms_mem_oracles",
              "type": "tuple[4][]"
            },
            {
              "internalType": "Fr[3][]",
              "name": "evals_Az_Bz_Cz_at_tau",
              "type": "uint256[3][]"
            },
            {
              "components": [
                {
                  "components": [
                    {
                      "internalType": "Fr[]",
                      "name": "coeffsExceptLinearTerm",
                      "type": "uint256[]"
                    }
                  ],
                  "internalType": "struct CompressedUniPolyFr[]",
                  "name": "compressedPolys",
                  "type": "tuple[]"
                }
              ],
              "internalType": "struct SumcheckProofFr",
              "name": "sc",
              "type": "tuple"
            },
            {
              "internalType": "Fr[5][]",
              "name": "evals_Az_Bz_Cz_W_E",
              "type": "uint256[5][]"
            },
            {
              "internalType": "Fr[2][]",
              "name": "evals_L_row_col",
              "type": "uint256[2][]"
            },
            {
              "internalType": "Fr[4][]",
              "name": "evals_mem_oracle",
              "type": "uint256[4][]"
            },
            {
              "internalType": "Fr[7][]",
              "name": "evals_mem_preprocessed",
              "type": "uint256[7][]"
            },
            {
              "components": [
                {
                  "components": [
                    {
                      "internalType": "Fq",
                      "name": "x",
                      "type": "uint256"
                    },
                    {
                      "internalType": "Fq",
                      "name": "y",
                      "type": "uint256"
                    }
                  ],
                  "internalType": "struct G1[]",
                  "name": "com",
                  "type": "tuple[]"
                },
                {
                  "components": [
                    {
                      "internalType": "Fq",
                      "name": "x",
                      "type": "uint256"
                    },
                    {
                      "internalType": "Fq",
                      "name": "y",
                      "type": "uint256"
                    }
                  ],
                  "internalType": "struct G1[]",
                  "name": "w",
                  "type": "tuple[]"
                },
                {
                  "internalType": "Fr[][]",
                  "name": "v",
                  "type": "uint256[][]"
                }
              ],
              "internalType": "struct HyperKZGEvaluationArgument",
              "name": "eval_arg",
              "type": "tuple"
            }
          ],
          "internalType": "struct BatchedRelaxedR1CSSNARK",
          "name": "self",
          "type": "tuple"
        },
        {
          "components": [
            {
              "components": [
                {
                  "components": [
                    {
                      "internalType": "Fq",
                      "name": "x",
                      "type": "uint256"
                    },
                    {
                      "internalType": "Fq",
                      "name": "y",
                      "type": "uint256"
                    }
                  ],
                  "internalType": "struct G1",
                  "name": "G",
                  "type": "tuple"
                },
                {
                  "components": [
                    {
                      "internalType": "uint256[2]",
                      "name": "x",
                      "type": "uint256[2]"
                    },
                    {
                      "internalType": "uint256[2]",
                      "name": "y",
                      "type": "uint256[2]"
                    }
                  ],
                  "internalType": "struct G2",
                  "name": "H",
                  "type": "tuple"
                },
                {
                  "components": [
                    {
                      "internalType": "uint256[2]",
                      "name": "x",
                      "type": "uint256[2]"
                    },
                    {
                      "internalType": "uint256[2]",
                      "name": "y",
                      "type": "uint256[2]"
                    }
                  ],
                  "internalType": "struct G2",
                  "name": "tauH",
                  "type": "tuple"
                }
              ],
              "internalType": "struct HyperKZGVerifierKey",
              "name": "vk_ee",
              "type": "tuple"
            },
            {
              "components": [
                {
                  "internalType": "uint256",
                  "name": "N",
                  "type": "uint256"
                },
                {
                  "components": [
                    {
                      "internalType": "Fq",
                      "name": "x",
                      "type": "uint256"
                    },
                    {
                      "internalType": "Fq",
                      "name": "y",
                      "type": "uint256"
                    }
                  ],
                  "internalType": "struct G1",
                  "name": "comm_row",
                  "type": "tuple"
                },
                {
                  "components": [
                    {
                      "internalType": "Fq",
                      "name": "x",
                      "type": "uint256"
                    },
                    {
                      "internalType": "Fq",
                      "name": "y",
                      "type": "uint256"
                    }
                  ],
                  "internalType": "struct G1",
                  "name": "comm_col",
                  "type": "tuple"
                },
                {
                  "components": [
                    {
                      "internalType": "Fq",
                      "name": "x",
                      "type": "uint256"
                    },
                    {
                      "internalType": "Fq",
                      "name": "y",
                      "type": "uint256"
                    }
                  ],
                  "internalType": "struct G1",
                  "name": "comm_val_A",
                  "type": "tuple"
                },
                {
                  "components": [
                    {
                      "internalType": "Fq",
                      "name": "x",
                      "type": "uint256"
                    },
                    {
                      "internalType": "Fq",
                      "name": "y",
                      "type": "uint256"
                    }
                  ],
                  "internalType": "struct G1",
                  "name": "comm_val_B",
                  "type": "tuple"
                },
                {
                  "components": [
                    {
                      "internalType": "Fq",
                      "name": "x",
                      "type": "uint256"
                    },
                    {
                      "internalType": "Fq",
                      "name": "y",
                      "type": "uint256"
                    }
                  ],
                  "internalType": "struct G1",
                  "name": "comm_val_C",
                  "type": "tuple"
                },
                {
                  "components": [
                    {
                      "internalType": "Fq",
                      "name": "x",
                      "type": "uint256"
                    },
                    {
                      "internalType": "Fq",
                      "name": "y",
                      "type": "uint256"
                    }
                  ],
                  "internalType": "struct G1",
                  "name": "comm_ts_row",
                  "type": "tuple"
                },
                {
                  "components": [
                    {
                      "internalType": "Fq",
                      "name": "x",
                      "type": "uint256"
                    },
                    {
                      "internalType": "Fq",
                      "name": "y",
                      "type": "uint256"
                    }
                  ],
                  "internalType": "struct G1",
                  "name": "comm_ts_col",
                  "type": "tuple"
                }
              ],
              "internalType": "struct R1CSShapeSparkCommitment[]",
              "name": "S_comm",
              "type": "tuple[]"
            },
            {
              "internalType": "uint256[]",
              "name": "num_vars",
              "type": "uint256[]"
            }
          ],
          "internalType": "struct BatchedRelaxedR1CSSNARKVerifierKey",
          "name": "vk",
          "type": "tuple"
        },
        {
          "components": [
            {
              "components": [
                {
                  "internalType": "Fq",
                  "name": "x",
                  "type": "uint256"
                },
                {
                  "internalType": "Fq",
                  "name": "y",
                  "type": "uint256"
                }
              ],
              "internalType": "struct G1",
              "name": "comm_W",
              "type": "tuple"
            },
            {
              "components": [
                {
                  "internalType": "Fq",
                  "name": "x",
                  "type": "uint256"
                },
                {
                  "internalType": "Fq",
                  "name": "y",
                  "type": "uint256"
                }
              ],
              "internalType": "struct G1",
              "name": "comm_E",
              "type": "tuple"
            },
            {
              "internalType": "Fr[]",
              "name": "X",
              "type": "uint256[]"
            },
            {
              "internalType": "Fr",
              "name": "u",
              "type": "uint256"
            }
          ],
          "internalType": "struct RelaxedR1CSInstance[]",
          "name": "U",
          "type": "tuple[]"
        },
        {
          "components": [
            {
              "internalType": "uint16",
              "name": "round",
              "type": "uint16"
            },
            {
              "internalType": "bytes32[2]",
              "name": "state",
              "type": "bytes32[2]"
            },
            {
              "internalType": "bytes",
              "name": "transcript",
              "type": "bytes"
            },
            {
              "internalType": "uint256",
              "name": "length",
              "type": "uint256"
            }
          ],
          "internalType": "struct Transcript",
          "name": "transcript",
          "type": "tuple"
        }
      ],
      "name": "verify",
      "outputs": [],
      "stateMutability": "view",
      "type": "function"
    }
  ],
  "bytecode": "0x608060405234601d576040516152c16100238239308150506152c190f35b600080fdfe610820604052600436101561001357600080fd5b60003560e01c634b63af07036100ae576110da565b634e487b7160e01b600052604160045260246000fd5b90601f01601f191681019081106001600160401b0382111761005f57604052565b610028565b9061007861007160405190565b928361003e565b565b6001600160401b03811161005f5760208091020190565b6001600160401b03811161005f5760200290565b805b036100ae57565b600080fd5b90503590610078826100a5565b91906040838203126100ae576100ef9060206100dc6040610064565b946100e783826100b3565b8652016100b3565b6020830152565b9092919261010b61010682610091565b610064565b9360408592028301928184116100ae57915b83831061012a5750505050565b602060409161013984866100c0565b81520192019161011d565b9080601f830112156100ae57600361015b926100f6565b90565b9092919261016e6101068261007a565b9381855260c06020860192028301928184116100ae57915b8383106101935750505050565b602060c0916101a28486610144565b815201920191610186565b9080601f830112156100ae5781602061015b9335910161015e565b909291926101d861010682610091565b9360408592028301928184116100ae57915b8383106101f75750505050565b602060409161020684866100c0565b8152019201916101ea565b9080601f830112156100ae57600261015b926101c8565b909291926102386101068261007a565b9381855260806020860192028301928184116100ae57915b83831061025d5750505050565b602060809161026c8486610211565b815201920191610250565b9080601f830112156100ae5781602061015b93359101610228565b909291926102a261010682610091565b9360408592028301928184116100ae57915b8383106102c15750505050565b60206040916102d084866100c0565b8152019201916102b4565b9080601f830112156100ae57600461015b92610292565b909291926103026101068261007a565b938185526101006020860192028301928184116100ae57915b8383106103285750505050565b60206101009161033884866102db565b81520192019161031b565b9080601f830112156100ae5781602061015b933591016102f2565b9092919261036e61010682610091565b9360208592028301928184116100ae57915b83831061038d5750505050565b6020809161039b84866100b3565b815201920191610380565b9080601f830112156100ae57600361015b9261035e565b909291926103cd6101068261007a565b9381855260606020860192028301928184116100ae57915b8383106103f25750505050565b602060609161040184866103a6565b8152019201916103e5565b9080601f830112156100ae5781602061015b933591016103bd565b909291926104376101068261007a565b93818552602080860192028301928184116100ae57915b83831061045b5750505050565b6020809161046984866100b3565b81520192019161044e565b9080601f830112156100ae5781602061015b93359101610427565b9190916020818403126100ae576104a66020610064565b9281356001600160401b0381116100ae576104c19201610474565b8252565b9291906104d46101068261007a565b93818552602080860192028101918383116100ae5781905b8382106104fa575050505050565b81356001600160401b0381116100ae5760209161051a878493870161048f565b8152019101906104ec565b9080601f830112156100ae5781602061015b933591016104c5565b9190916020818403126100ae576105576020610064565b9281356001600160401b0381116100ae576104c19201610525565b9092919261058261010682610091565b9360208592028301928184116100ae57915b8383106105a15750505050565b602080916105af84866100b3565b815201920191610594565b9080601f830112156100ae57600561015b92610572565b909291926105e16101068261007a565b9381855260a06020860192028301928184116100ae57915b8383106106065750505050565b602060a09161061584866105ba565b8152019201916105f9565b9080601f830112156100ae5781602061015b933591016105d1565b9092919261064b61010682610091565b9360208592028301928184116100ae57915b83831061066a5750505050565b6020809161067884866100b3565b81520192019161065d565b9080601f830112156100ae57600261015b9261063b565b909291926106aa6101068261007a565b9381855260406020860192028301928184116100ae57915b8383106106cf5750505050565b60206040916106de8486610683565b8152019201916106c2565b9080601f830112156100ae5781602061015b9335910161069a565b9092919261071461010682610091565b9360208592028301928184116100ae57915b8383106107335750505050565b6020809161074184866100b3565b815201920191610726565b9080601f830112156100ae57600461015b92610704565b909291926107736101068261007a565b9381855260806020860192028301928184116100ae57915b8383106107985750505050565b60206080916107a7848661074c565b81520192019161078b565b9080601f830112156100ae5781602061015b93359101610763565b909291926107dd61010682610091565b9360208592028301928184116100ae57915b8383106107fc5750505050565b6020809161080a84866100b3565b8152019201916107ef565b9080601f830112156100ae57600761015b926107cd565b9092919261083c6101068261007a565b9381855260e06020860192028301928184116100ae57915b8383106108615750505050565b602060e0916108708486610815565b815201920191610854565b9080601f830112156100ae5781602061015b9335910161082c565b909291926108a66101068261007a565b9381855260406020860192028301928184116100ae57915b8383106108cb5750505050565b60206040916108da84866100c0565b8152019201916108be565b9080601f830112156100ae5781602061015b93359101610896565b92919061090f6101068261007a565b93818552602080860192028101918383116100ae5781905b838210610935575050505050565b81356001600160401b0381116100ae576020916109558784938701610474565b815201910190610927565b9080601f830112156100ae5781602061015b93359101610900565b9190916060818403126100ae576109926060610064565b9281356001600160401b0381116100ae57816109af9184016108e5565b845260208201356001600160401b0381116100ae57816109d09184016108e5565b602085015260408201356001600160401b0381116100ae576109f29201610960565b6040830152565b919091610140818403126100ae57610a12610140610064565b9281356001600160401b0381116100ae5781610a2f9184016101ad565b845260208201356001600160401b0381116100ae5781610a50918401610277565b602085015260408201356001600160401b0381116100ae5781610a74918401610343565b604085015260608201356001600160401b0381116100ae5781610a9891840161040c565b606085015260808201356001600160401b0381116100ae5781610abc918401610540565b608085015260a08201356001600160401b0381116100ae5781610ae0918401610620565b60a085015260c08201356001600160401b0381116100ae5781610b049184016106e9565b60c085015260e08201356001600160401b0381116100ae5781610b289184016107b2565b60e08501526101008201356001600160401b0381116100ae5781610b4d91840161087b565b6101008501526101208201356001600160401b0381116100ae57610b71920161097b565b610120830152565b90929192610b8961010682610091565b9360208592028301928184116100ae57915b838310610ba85750505050565b60208091610bb684866100b3565b815201920191610b9b565b9080601f830112156100ae57600261015b92610b79565b91906080838203126100ae576100ef906040610bf381610064565b94610bfe8382610bc1565b865201610bc1565b9190610140838203126100ae576109f29060c0610c236060610064565b94610c2e83826100c0565b8652610c3d8360408301610bd8565b602087015201610bd8565b91906101e0838203126100ae57610ce8906101a0610c67610100610064565b94610c7283826100b3565b8652610c8183602083016100c0565b6020870152610c9383606083016100c0565b6040870152610ca58360a083016100c0565b6060870152610cb78360e083016100c0565b6080870152610cca8361012083016100c0565b60a0870152610cdd8361016083016100c0565b60c0870152016100c0565b60e0830152565b90929192610cff6101068261007a565b938185526101e06020860192028301928184116100ae57915b838310610d255750505050565b60206101e091610d358486610c48565b815201920191610d18565b9080601f830112156100ae5781602061015b93359101610cef565b90929192610d6b6101068261007a565b93818552602080860192028301928184116100ae57915b838310610d8f5750505050565b60208091610d9d84866100b3565b815201920191610d82565b9080601f830112156100ae5781602061015b93359101610d5b565b919091610180818403126100ae57610ddb6060610064565b92610de68183610c06565b84526101408201356001600160401b0381116100ae5781610e08918401610d40565b60208501526101608201356001600160401b0381116100ae576109f29201610da8565b91909160c0818403126100ae57610e426080610064565b92610e4d81836100c0565b8452610e5c81604084016100c0565b602085015260808201356001600160401b0381116100ae5782610e868360a093610e919601610474565b6040870152016100b3565b6060830152565b929190610ea76101068261007a565b93818552602080860192028101918383116100ae5781905b838210610ecd575050505050565b81356001600160401b0381116100ae57602091610eed8784938701610e2b565b815201910190610ebf565b9080601f830112156100ae5781602061015b93359101610e98565b61ffff81166100a7565b9050359061007882610f13565b90929192610f3a61010682610091565b9360208592028301928184116100ae57915b838310610f595750505050565b60208091610f6784866100b3565b815201920191610f4c565b9080601f830112156100ae57600261015b92610f2a565b6001600160401b03811161005f57602090601f01601f19160190565b0190565b90826000939282370152565b90929192610fc561010682610f89565b93818552818301116100ae57610078916020850190610fa9565b9080601f830112156100ae5781602061015b93359101610fb5565b91909160a0818403126100ae576110116080610064565b9261101c8183610f1d565b845261102b8160208401610f72565b602085015260608201356001600160401b0381116100ae5782610e8683608093610e919601610fdf565b906080828203126100ae5781356001600160401b0381116100ae578161107c9184016109f9565b9260208301356001600160401b0381116100ae578261109c918501610dc3565b9260408101356001600160401b0381116100ae57836110bc918301610ef8565b9260608201356001600160401b0381116100ae5761015b9201610ffa565b6110f16110e8366004611055565b9291909161140f565b604051005b906111036101068361007a565b918252565b369037565b9061007861112361111d846110f6565b9361007a565b601f190160208401611108565b61015b61015b61015b9290565b634e487b7160e01b600052603260045260246000fd5b9061115c825190565b81101561116d576020809102010190565b61113d565b905b9052565b9061110361010683610f89565b61118f6001611178565b606360f81b602082015290565b61015b611185565b9060035b81101561116d576020020190565b6111c06001611178565b601d60fa1b602082015290565b61015b6111b6565b6111df6001611178565b606560f81b602082015290565b61015b6111d5565b9060026111a8565b6112066001611178565b606760f81b602082015290565b61015b6111fc565b6112256001611178565b603960f91b602082015290565b61015b61121b565b6112446001611178565b601b60fa1b602082015290565b61015b61123a565b9060046111a8565b61015b600a611130565b634e487b7160e01b600052601160045260246000fd5b8181029291811591840414171561129457565b61126b565b9190820180921161129457565b60005b8281106112b557505050565b6060828201526020016112a9565b906100786112d361111d846110f6565b601f1901602084016112a6565b9190820391821161129457565b61015b6000611130565b9060056111a8565b9060076111a8565b61015b6001611130565b634e487b7160e01b600052602160045260246000fd5b6010111561133157565b611311565b9061007882611327565b61015b90611336565b61117490611340565b6020810192916100789190611349565b61015b6060610064565b61015b6040610064565b61137e61136c565b906000825260006020830152565b61015b611376565b61139c611362565b906113a561138c565b82526060602083015260006040830152565b61015b611394565b60001981146112945760010190565b60005b8281106113dd57505050565b6020906113e861138c565b81840152016113d1565b9061007861140261111d846110f6565b601f1901602084016113ce565b6104e052610620526105a0526106a05261142a6105a0515190565b6108005261143a6108005161110d565b610760526114486000611130565b61064052610640515b610800518110156114e85780611499611487611482600061147c6114c9966020610620510151611153565b51015190565b6130bb565b6114948361076051611153565b611172565b6114ad6114a98261076051611153565b5190565b6114be6114ba6106405190565b9190565b116114ce5760010190565b611451565b6114de6114a98261076051611153565b6106405260010190565b506104e051805161072052602081015161074052604001516104205261150e6000611130565b610800518110156115a7576115a29061153161152861119c565b6106a051613109565b6115606115556115448361072051611153565b5161154f6000611130565b906111a4565b516106a05190613165565b61157e6115556115738361072051611153565b5161154f6001611130565b61159c6115556115918361072051611153565b5161154f6002611130565b60010190565b61150e565b506115bc6115b36111cd565b6106a05161329c565b610400526115ca6000611130565b6108005181101561163557611630906115e46115286111ec565b61159c61160c6114a96115918460606104e0510161161661160c6114a9611544858551611153565b6106a05190613383565b61162a61160c6114a9611573858551611153565b51611153565b6115ca565b506116406000611130565b610800518110156116a15761169c9061165a6115286111ec565b61167e61155561166d8361074051611153565b516116786000611130565b906111f4565b61159c6115556116918361074051611153565b516116786001611130565b611640565b506116ad6115b361119c565b6104c052610800516116be9061110d565b6107e0526116cc6000611130565b6108005181101561174f5761174a9061159c61173d60606104e051016117266114a96115448661173661172c61171561170c6114a9611591868b51611153565b6104c0516133dd565b6117266114a9611573868b51611153565b90613416565b6104c051906133dd565b9451611153565b611494836107e051611153565b6116cc565b5061175b6115b3611213565b6105405261176a6115b3611232565b610780526117786000611130565b610800518110156118155761181090611792611528611251565b6117b66115556117a58361042051611153565b516117b06000611130565b90611259565b6117d46115556117c98361042051611153565b516117b06001611130565b6117f26115556117e78361042051611153565b516117b06002611130565b61159c6115556118058361042051611153565b516117b06003611130565b611778565b506118216115b3611232565b610520526118556118336115b3611232565b61183b611261565b6107c05261184f6107c05161080051611281565b9061343e565b610500526000610600526118776118726107c05161080051611281565b61110d565b6107a0526118856000611130565b6108005181101561190857806118d36118a76114a9611903946107e051611153565b6114946118ca6118ba6107c05186611281565b6118c46007611130565b90611299565b6107a051611153565b61159c6118e66114a9836107e051611153565b6114946118ca6118f96107c05186611281565b6118c46008611130565b611885565b5061191c6118726107c05161080051611281565b6107005261192a6000611130565b6106e0525b610800516106e05110156119a7576119476000611130565b6107c051811015611996576119919061159c61196c6114a96106e05161076051611153565b611494611988846119836107c0516106e051611281565b611299565b61070051611153565b611947565b506106e0516001016106e05261192f565b6119de60806104e05101516119bc6003611130565b610580526106a051906105805190610500519061070051906107a0519061350f565b6106c05260a052610800516119f2906112c3565b61068052611a006000611130565b610660525b61080051610660511015611afd57611a32611a296114a96106605161076051611153565b610640516112e0565b6105e052611a51611872611a476106c0515190565b6105e051906112e0565b611a616106605161068051611153565b52611a726106605161068051611153565b50611a7d6000611130565b610560525b611a9361015b611a476106c0515190565b610560511015611aed57611add611abf6114a9611ab66105e05161056051611299565b6106c051611153565b611494611ad26106605161068051611153565b516105605190611153565b6105605160010161056052611a82565b6106605160010161066052611a05565b611b056112ed565b61036052611b136000611130565b6105c0525b610800516105c051101561240357611b526114a9611b4160a06104e05101516105c05190611153565b51611b4c6000611130565b906112f7565b6104a052611b7c6114a9611b7160a06104e05101516105c05190611153565b51611b4c6001611130565b61048052611ba66114a9611b9b60a06104e05101516105c05190611153565b51611b4c6002611130565b61046052611bd06114a9611bc560a06104e05101516105c05190611153565b5161058051906112f7565b6103e052611bfa6114a9611bef60a06104e05101516105c05190611153565b51611b4c6004611130565b61044052611c196114a961166d60c06104e05101516105c05190611153565b6103c052611c386114a961169160c06104e05101516105c05190611153565b6103a052611c576114a96117a560e06104e05101516105c05190611153565b61026052611c766114a96117c960e06104e05101516105c05190611153565b6102c052611c956114a96117e760e06104e05101516105c05190611153565b61030052611cbf6114a9611cb460e06104e05101516105c05190611153565b516105805190611259565b61032052611cf06114a9611cdf6101006104e05101516105c05190611153565b51611cea6000611130565b906112ff565b61038052611d1b6114a9611d106101006104e05101516105c05190611153565b51611cea6001611130565b61010052611d466114a9611d3b6101006104e05101516105c05190611153565b51611cea6002611130565b61034052611d716114a9611d666101006104e05101516105c05190611153565b5161058051906112ff565b6101e052611d9c6114a9611d916101006104e05101516105c05190611153565b51611cea6004611130565b61024052611dc76114a9611dbc6101006104e05101516105c05190611153565b51611cea6005611130565b61028052611df26114a9611de76101006104e05101516105c05190611153565b51611cea6006611130565b6102e052611e066105c05161068051611153565b516102a052611e266114826114a960406106205101516105c05190611153565b61022052611ebb611e386102a0515190565b611e52611e488261052051613649565b6102a051906136dc565b6102005261040051611e8990611e69908390613649565b611e766102a051826136dc565b6101c0526102a051610220519091613784565b6101a0526102a051611e9b90826138b4565b61016052611eb5611eac6001611130565b61022051611299565b906112e0565b61018052611ec7611307565b610140526101405160e052611edc6000611130565b610120525b61018051610120511015611f2c57611f19611f11611f086114a9610120516102a051611153565b61014051613927565b60e0516133dd565b60e0526101205160010161012052611ee1565b611f58611872611f4e6040611f476105c0516105a051611153565b5101515190565b6119836001611130565b60c052611f88611f73606061147c6105c0516105a051611153565b611494611f806000611130565b60c051611153565b611f926001611130565b611f9f61015b60c0515190565b811015611ff257611fed9061159c611fe16114a96040611fc56105c0516105a051611153565b510151611fdb611fd56001611130565b866112e0565b90611153565b6114948360c051611153565b611f92565b5061204661203d6120226120126120096001611130565b61018051611299565b6102a05160c0516102205161395c565b612038611f116114a9610180516102a051611153565b6133dd565b6103e051613416565b608052608051506123ef6123b761235961230b61228f61208661207c6120726101c051610540516133dd565b6101605190613416565b6107805190613416565b6117266122566120ac61207c6120a26103c051610540516133dd565b6101e05190613416565b6117266122136120c761207c612072608051610540516133dd565b926117266121d06120ee61207c6120e46103a051610540516133dd565b6102405190613416565b9861172661218461214c61214361212d6114a961212461211a612111600a611130565b6105c051611281565b6118c46000611130565b61050051611153565b61213d6102c05161026051613927565b906133dd565b61036051613416565b80610360526117266121746114a961212461216a612111600a611130565b6118c46001611130565b61213d6103205161030051613927565b91826103605261213d6121c76121bd6121b36114a96121246121a9612111600a611130565b6118c46002611130565b93610260516133dd565b6102805190613927565b610200516133dd565b91826103605261213d6121c76122096121ff6114a96121246121f5612111600a611130565b6105805190611299565b936102c0516133dd565b6101405190613927565b91826103605261213d6121c761224c6122426114a9612124612238612111600a611130565b6118c46004611130565b93610300516133dd565b6102e05190613927565b91826103605261213d6121c76122096122856114a961212461227b612111600a611130565b6118c46005611130565b93610320516133dd565b80610360526117266122b76114a96121246122ad612111600a611130565b6118c46006611130565b61213d6123026122f86122d0610480516104a0516133dd565b6122f26122e8606061147c6105c0516105a051611153565b61046051906133dd565b90613927565b6104405190613927565b6101c0516133dd565b80610360526117266123296114a96121246118ba612111600a611130565b61213d61230261234f61172c6123456104c051610460516133dd565b6104805190613416565b6104a05190613416565b80610360526117266123776114a96121246118f9612111600a611130565b61213d61238a6103a0516103c0516133dd565b61213d6123ad61172c6123a36104c051610340516133dd565b6101005190613416565b6103805190613416565b80610360526117266123df6114a96121246123d5612111600a611130565b6118c46009611130565b61213d6103e0516101a0516133dd565b610360526105c0516001016105c052611b18565b61241260a05161036051613aa2565b613065576124206000611130565b610800518110156127a5576124336111ec565b6106a0519061244191613109565b806104e05160a0018181519061245691611153565b516124616000611130565b61246a916112f7565b516106a05161247891613383565b8181519061248591611153565b519060019161249383611130565b61249c916112f7565b516106a0516124aa91613383565b82808251906124b891611153565b51916002926124c684611130565b6124cf916112f7565b516106a0516124dd91613383565b818151906124ea91611153565b51610580516124f8916112f7565b516106a05161250691613383565b519061251191611153565b519060049161251f83611130565b612528916112f7565b516106a05161253691613383565b836104e05160c0018181519061254b91611153565b516125566000611130565b61255f916111f4565b516106a05161256d91613383565b519061257891611153565b5161258284611130565b61258b916111f4565b516106a05161259991613383565b836104e05160e001818151906125ae91611153565b516125b96000611130565b6125c291611259565b516106a0516125d091613383565b818151906125dd91611153565b516125e786611130565b6125f091611259565b516106a0516125fe91613383565b8181519061260b91611153565b5161261584611130565b61261e91611259565b516106a05161262c91613383565b519061263791611153565b516105805161264591611259565b516106a05161265391613383565b6104e05161010001928484519061266991611153565b516126746000611130565b61267d916112ff565b516106a05161268b91613383565b8484519061269891611153565b51906126a390611130565b6126ac916112ff565b516106a0516126ba91613383565b838351906126c791611153565b51906126d290611130565b6126db916112ff565b516106a0516126e991613383565b828251906126f691611153565b5161058051612704916112ff565b516106a05161271291613383565b8282519061271f91611153565b519061272a90611130565b612733916112ff565b516106a05161274191613383565b8181519061274e91611153565b516127596005611130565b612762916112ff565b516106a05161277091613383565b519061277b91611153565b516127866006611130565b61278f916112ff565b516106a05161279d91613383565b600101612420565b506127b16115b361119c565b6127b96113b7565b506127d3611872610800516127ce6012611130565b611281565b906127de6000611130565b61080051811015612c94576127f36012611130565b6127fd9082611281565b816104e05160a0018181519061281291611153565b5161281d6000611130565b612826916112f7565b51612830846113bf565b9361283b9088611153565b9061284591611172565b8181519061285291611153565b519060019161286083611130565b612869916112f7565b51612873856113bf565b9461287e9089611153565b9061288891611172565b828082519061289691611153565b51916002926128a484611130565b6128ad916112f7565b516128b7876113bf565b966128c2908b611153565b906128cc91611172565b818151906128d991611153565b51610580516128e7916112f7565b516128f1876113bf565b966128fc908b611153565b9061290691611172565b519061291191611153565b519060049161291f83611130565b612928916112f7565b51612932866113bf565b9561293d908a611153565b9061294791611172565b836104e05160c0018181519061295c91611153565b516129676000611130565b612970916111f4565b5161297a886113bf565b97612985908c611153565b9061298f91611172565b519061299a91611153565b516129a484611130565b6129ad916111f4565b516129b7866113bf565b956129c2908a611153565b906129cc91611172565b836104e05160e001818151906129e191611153565b516129ec6000611130565b6129f591611259565b516129ff886113bf565b97612a0a908c611153565b90612a1491611172565b81815190612a2191611153565b51612a2b86611130565b612a3491611259565b51612a3e886113bf565b97612a49908c611153565b90612a5391611172565b81815190612a6091611153565b51612a6a84611130565b612a7391611259565b51612a7d886113bf565b97612a88908c611153565b90612a9291611172565b5190612a9d91611153565b5161058051612aab91611259565b51612ab5866113bf565b95612ac0908a611153565b90612aca91611172565b6104e051610100019284845190612ae091611153565b51612aeb6000611130565b612af4916112ff565b51612afe876113bf565b96612b09908b611153565b90612b1391611172565b84845190612b2091611153565b5190612b2b90611130565b612b34916112ff565b51612b3e866113bf565b95612b49908a611153565b90612b5391611172565b83835190612b6091611153565b5190612b6b90611130565b612b74916112ff565b51612b7e856113bf565b94612b899089611153565b90612b9391611172565b82825190612ba091611153565b5161058051612bae916112ff565b51612bb8856113bf565b94612bc39089611153565b90612bcd91611172565b82825190612bda91611153565b5190612be590611130565b612bee916112ff565b51612bf8846113bf565b93612c039088611153565b90612c0d91611172565b81815190612c1a91611153565b51612c256005611130565b612c2e916112ff565b51612c38846113bf565b93612c439088611153565b90612c4d91611172565b5190612c5891611153565b51612c636006611130565b612c6c916112ff565b5190612c77816113bf565b50612c829085611153565b90612c8c91611172565b6001016127de565b509091612cb0611872612ca76012611130565b61080051611281565b91612cbb6000611130565b935b61080051851015612d3557612cd26000611130565b612cdc6012611130565b811015612d1f57612d1a9061159c612cfa6114a98961076051611153565b611494612d1484611983612d0e6012611130565b8d611281565b89611153565b612cd2565b50919093612d2d9060010190565b939091612cbd565b929350612d4d612d48612ca76012611130565b6113f2565b93612d586000611130565b61080051811015613027578061301b8760e06130046130229583612f3e612f21612d8b612d856012611130565b85611281565b612dbb612d9e6115448761072051611153565b5191612da9816113bf565b92612db48288611153565b5285611153565b5150612f0f612ef2612dd08761072051611153565b51612e00612de360019261154f84611130565b5194612dee816113bf565b95612df9828b611153565b5288611153565b5150612ed9612e128961072051611153565b5194612e43612e2660029761154f89611130565b5191612e31816113bf565b92612e3c828d611153565b528a611153565b5150612e646000612e578c6105a051611153565b51015191612e31816113bf565b5150612e786020612e578c6105a051611153565b5150612e8d612e2661166d8c61074051611153565b5150612eac612e26612ea28c61074051611153565b5161167886611130565b5150612ebe6117a58b61042051611153565b51612ed282612ecc816113bf565b9b611153565b528c611153565b51506117b0612eeb8961042051611153565b5191611130565b5194612efd816113bf565b95612f08828c611153565b5289611153565b51506117b0612eeb8661042051611153565b5191612f2c816113bf565b92612f378289611153565b5286611153565b5150612f53612f21611cb48461042051611153565b5150612ffd6020610620510191612f886060612f70868651611153565b51015191612f7d816113bf565b92612df9828b611153565b5150612f9a6080612f70868651611153565b5150612fac60a0612f70868651611153565b5150612fbe6020612f70868651611153565b5150612fd06040612f70868651611153565b515060c0612fdf858551611153565b51015196612fec826113bf565b97612ff78383611153565b52611153565b5051611153565b510151613010826113bf565b50612df9828b611153565b5060010190565b612d58565b509361303c9294610078946106c05192613ac2565b6106205151815160208301516040909301519192906101206104e0510151936106a05190613d00565b60405163081169f360e11b815280613081600960048301611352565b0390fd5b1561308c57565b60405162461bcd60e51b815260206004820152600760248201526604255474c4f47360cc1b6044820152606490fd5b9060006130d36130cb6000611130565b841415613085565b600192838103811615613100575b60011c905b8082116130f1575050565b90926001019260011c906130e6565b600093506130e1565b9190916060810190604061311b835190565b9101519060200101928051840160208201945b81811061315557505061007892935061314861314f915190565b8251611299565b90611172565b855181526020958601950161312e565b9061317e6020610078936131838461317e600084015190565b613383565b015190565b61319561015b61015b9290565b60ff1690565b6131b16131ab61015b9260ff1690565b60f81b90565b6001600160f81b03191690565b61015b6131cb6001613188565b61319b565b6111749061ffff1660f01b90565b6131ea6114ba60029390565b6000915b8383106131fb5750505050565b61321561320e6001928451815260200190565b9260200190565b920191906131ee565b60005b8381106132315750506000910152565b8181015183820152602001613221565b610fa561325992602092613253815190565b94859290565b9384910161321e565b0180926131d0565b0180926131de565b0190613241565b80926001600160f81b0319169052565b61ffff1661ffff81146112945760010190565b61337d6114a96133716114a9606061336a6133299661335761015b996132c0600090565b5061333b634e6f445360e01b84518593916133359161ffff1690602088019e8f51946132ea6131be565b906132f460405190565b968795602087019586610fa59361327260026132799561326a60048661326260409860019e9d9a6001600160e01b0319169052565b9081038252038261003e565b84614116565b61334f61334a825161ffff1690565b613289565b61ffff169052565b6133616000611130565b92839101611172565b85516111f4565b92516116786001611130565b906141c4565b9061339861339361007893611130565b611130565b9061420c565b61015b7f30644e72e131a029b85045b68181585d2833e84879b9709143e1f593f0000001611130565b634e487b7160e01b600052601260045260246000fd5b6133f26133f8916133ec600090565b50611130565b91611130565b61340061339e565b9081156134115761015b9209611130565b6133c7565b6133f2613425916133ec600090565b61342d61339e565b9081156134115761015b9208611130565b919061344a6000611130565b81146134dd576134598161110d565b90819361347a613467611307565b6114946134746000611130565b86611153565b600180926134886001611130565b915b613496575b5050505050565b808210156134d8576134d2849261159c6134c8866120386114a96134c26134bc8a611130565b876112e0565b8c611153565b611494838a611153565b9161348a565b61348f565b60405163081169f360e11b815280613081600260048301611352565b61015b9061350a6114ba61015b9490565b901b90565b9195939493919290805192613522885190565b841415801561363e575b6136225760009561353d6000611130565b85811015613580576135526114a9828c611153565b8810613566575b60010161353d565b61353d565b96506135616135786114a9898c611153565b979050613559565b5090919497929593966135916112ed565b9861359c6000611130565b995b895b8b101561360b576136036135fc6135a0926117268c8f6114a9818f8f908f6114a9846135f66135f16135e26135f697611eb56114a961213d9d61213d99611153565b6135ec6001611130565b6134f9565b61423f565b93611153565b9b60010190565b9a905061359e565b94509298509450945061361e955061427c565b9091565b60405163081169f360e11b815280613081600160048301611352565b50825184141561352c565b9061366a6136568261110d565b926114946136646000611130565b85611153565b6001809161367782611130565b915b613684575b50505090565b808210156136d7576136d1839261159c6136c76136af6114a96136a9611fd589611130565b8a611153565b61213d6114a96136c16134bc8a611130565b8b611153565b6114948389611153565b91613679565b61367e565b919082516136ee6114ba61015b845190565b03613622576136fb611307565b92836137076000611130565b945b61371461015b855190565b86101561377d576137706137779161213d866117268a61213d61376a6114a961376361375d6114a9868f6137579061213d6114a9846135f68f826114a991611153565b99611153565b8c613927565b938c611153565b89613927565b9560010190565b94613709565b9450505050565b92919083516137976114ba61015b855190565b03613622576137ad906137a8855190565b6112e0565b6137b5611307565b918280926137c36000611130565b945b8782871015613835578661382861382e9361213d846138238a61213d6114a9886135f66114a98f61381b9061213d6137709f6138076114a98861380d93611153565b83613927565b916122f26114a9888c611153565b9b8c98611153565b613416565b966133dd565b94936137c5565b5095919293909450825b61384a61015b895190565b8610156138a05761377061389a9161213d8a6117268961213d6138946114a98e61388e8e6122f26114a984612ecc8a61213d6114a98f6135f66114a9878093611153565b94611153565b8b613927565b9461383f565b945091509450612038915061015b93613927565b919080518390036134dd576138c76112ed565b926138d26000611130565b935b818510156139215761391461391b916117266139076135f160016135ec6133f26138fe8d8b6112e0565b611eb584611130565b61213d6114a98a89611153565b9460010190565b936138d4565b93505050565b6139329060006133ec565b9061394c61394761394161339e565b92611130565b820390565b81156134115761015b9208611130565b9092909161396c826137a8835190565b8390036134dd57613991613986600194611eb56001611130565b611eb5611482875190565b836139bb61399f8386611299565b6139b46139aa865190565b611eb58689611299565b908561434d565b6139c36112ed565b966139ce6000611130565b925b613a3a575b505050908392916139e66000611130565b945b6139f5575b505050505090565b9091929394613a018290565b861015613a3457613770613a2a9161213d613a1a611307565b6122f26114a9612d148c8b611299565b93929190836139e8565b946139ed565b909196613a4861015b835190565b881080613a8f575b15613a895790613a83613a7d8894936117268b61213d6114a9613a766114a9848a611153565b9289611153565b986113bf565b926139d0565b966139d5565b50613a9b61015b845190565b8810613a50565b6114ba61015b613ab7613abd936133ec600090565b93611130565b141590565b929094939193613ad06113b7565b80613ad9875190565b92613ae2875190565b8414158015613cf5575b6136225790613b0684613b00879896975190565b9561343e565b91613b108661110d565b95600094613b1d86611130565b995b828b1015613be457928a999795928c9b95928e9a9895613b3d611307565b9b8c9e613b6261015b613b5c6114a9613b558d611130565b9d85611153565b8d6112e0565b8a1015613ba4578e9f8e9f9d9e8f8d9261213d613b8a938f6114a96122f2916135fc96611153565b9a9b509a9f9e9d9c61015b613b5c6114a9613b6293613664565b5061159c92969b9c50613bd59498509d61213d8e94989f613bcb93979b9f6114a991611153565b611494838b611153565b99959798969493929190613b1f565b94939b509796955097509750613c02613bfc84611130565b83611153565b519360018093613c126001611130565b915b613ca8575b5050908291613c2d6114a9613bfc87611130565b98613c386001611130565b945b613c59575b505050505083015260208201526100789190604001611172565b9091929398613c658290565b8a1015613ca257613c91613c98916117268c61213d6114a9613c8a6114a9848b611153565b928a611153565b9960010190565b9392919083613c3a565b98613c3f565b909589871015613cef5790613ce9613ce28693613cdc613cc88b86611153565b51613cd66114a98d8b611153565b906144c8565b906145cc565b9760010190565b91613c14565b95613c19565b508851841415613aec565b9291939093613d0d835190565b916000870190613d1e8783516146d3565b91613d2883614728565b80156140e3575b613e8657515192613d48612d486001956118c487611130565b94600091613d5e613d5884611130565b88611153565b52613d71613d6b83611130565b87611153565b508480613d7d81611130565b905b614091575b5050613d906003611130565b90613d9a8261110d565b97613dab866114946134c287611130565b613dc3613db78761476c565b6114946134c28a611130565b613ddd613dd087806133dd565b6114946134c26002611130565b60408c015192613dee61015b855190565b03613e8657613e07613e0261366486611130565b515190565b8214158015614079575b8015614060575b613e865786613e2961366486611130565b5192613e46613e3a613d6b84611130565b5195611fdb6002611130565b51613e5087611130565b925b613ea2575b505050505050505050509084613e7c94939260406020613e809801519201519361478f565b1590565b613e8657565b60405163081169f360e11b815280613081600660048301611352565b8183101561405b57613ebf61015b613eb98c611130565b846112e0565b8303613f99578789613ed16002611130565b90613edb916133dd565b90613ee5916133dd565b613eed611307565b613ef689611130565b613f009087611153565b51613f0a91613927565b613f14908b6133dd565b613f1e8588611153565b51613f29868a611153565b51613f3391613416565b613f3c916133dd565b613f4589611130565b613f4f9087611153565b51613f5a8689611153565b51613f65878b611153565b51613f6f91613927565b613f78916133dd565b613f8191613416565b613f8a91613aa2565b613e8657899260010192613e52565b88613fa46002611130565b90613fae916133dd565b613fb78b611130565b613fc19085611299565b613fcb9083611153565b51613fd5916133dd565b613fdd611307565b613fe785856112e0565b613ff08d611130565b613ff9916112e0565b6140039087611153565b5161400d91613927565b614017908b6133dd565b6140218588611153565b5161402c868a611153565b5161403691613416565b61403f916133dd565b61404985856112e0565b6140528d611130565b613f45916112e0565b613e57565b50614071613e026136646002611130565b821415613e18565b50614089613e0261366489611130565b821415613e11565b838c01906140a161015b83515190565b81116140dd576140bb6140d79251611fdb613eb986611130565b516140c6828b611153565b526140d1818a611153565b506113bf565b81613d7f565b50613d84565b506140ed84614744565b613d2f565b61015b6131cb6000613188565b90614108825190565b81101561116d570160200190565b6114946100789261412f614128600090565b9184613109565b61169160206060850181614141825190565b91604088019061417d825192858585012098506141736141696141626140f2565b9251945190565b611eb56001611130565b9060001a926140ff565b53012094019161149483516116786000611130565b61015b90611130565b61015b7f0e0a77c19a07df2f666ea36f7879462e36fc76959f60cd29ac96341c4ffffffb611130565b906141da6141e0916141d4600090565b50614192565b91614192565b6141e861419b565b916141f161339e565b9182156134115782156134115761015b938391099008611130565b610078916060820191604061421f845190565b91015190602001015261314f6131486020611130565b8115613411570690565b61339361015b9161424e600090565b5061425761339e565b90614235565b6142676001611178565b600760fc1b602082015290565b61015b61425d565b91939290825151859003613065576142938561110d565b92836000976142a26000611130565b935b885b85101561432d576142c4906142be868c870151611153565b51614af6565b6142d26141698b8301515190565b86900361306557614325613770866142a6936143208b6114946143188f6143006142fa614274565b82613109565b61430a8187614c4b565b61431261119c565b9061329c565b948592611153565b614cac565b9490506142a4565b98509550955050505050565b61015b9061350a6114ba61015b9460ff1690565b92909160018061435c81611130565b9261436a61187282866134f9565b80968598614376611307565b96614389600098611494613d6b8b611130565b61439288611130565b955b6143a6575b5050505050505050909150565b84861015614487576143b788611130565b80885b6143ec575b50506143e26143db88999a9b9c6143d58a613188565b90614339565b9660010190565b959a999897614394565b8c811015614482579061447b8261159c8f806122f26114a98f988f908f8f8f908f8f8e61198361446e9c611494613d6b8a61445c6114a99a61213d6144689f611fdb9b6144629f869c8f6114a9946137a88f946144566114a96137a895611fdb8f611fdb9a611299565b99611299565b93611299565b94611299565b8d611153565b6114946136c18487611299565b90916143ba565b6143bf565b614399565b61010661015b91610091565b906100786144ae6144a88461448c565b93610091565b83611108565b61015b6003614498565b61015b6002614498565b91906144d261138c565b9081936144dd6144b4565b6144e56144be565b926144ee835190565b6144f790611130565b9260009361450485611130565b61450e90856111a4565b9061451891611172565b6020015161452590611130565b61452f6001611130565b61453990846111a4565b9061454391611172565b61454c90611130565b6145566002611130565b61456090836111a4565b9061456a91611172565b825a6040926007606092fa156145bf576145b86133936114a961007895946145ae856145a66133936114a96145a060209a611130565b866111f4565b908801611172565b6116786001611130565b9101611172565b80fd5b61015b6004614498565b91906145d661138c565b9081936145e16145c2565b6145e96144be565b926145f2835190565b6145fb90611130565b9260009361460885611130565b6146129085611259565b9061461c91611172565b6020015161462990611130565b6146336001611130565b61463d9084611259565b9061464791611172565b8281015161465490611130565b61465e6002611130565b6146689084611259565b9061467291611172565b6020015161467f90611130565b6146896003611130565b6146939083611259565b9061469d91611172565b825a6040926006608092fa156145bf576145b86133936114a961007895946145ae856145a66133936114a96145a060209a611130565b91906146e06142fa61119c565b6146ea6000611130565b6146f561015b855190565b811015614719578061159c8361470e6147149488611153565b51613165565b6146ea565b5061015b91925061431261119c565b6147339060006133ec565b6147406114ba6000611130565b1490565b61475461474f825190565b614728565b908161475e575090565b6020015161015b9150614728565b61339361015b9161477b600090565b5061478a61394761394161339e565b614235565b9392919082516147a26114ba6003611130565b14158015614abe575b6134dd576147c46147bc8786614d5d565b825190614de2565b926000966147da6147d489611130565b84611153565b5194600180946147e982611130565b915b614a72575b505083906147ff611872895190565b978261480a8c611130565b905b614a2f575b5050505061481f9084614edb565b9061482a82806133dd565b948583614835611307565b9061483f91613416565b9061484991613416565b614852916144c8565b8888015161485f8a611130565b6148699089611153565b5161487386611130565b61487d908a611153565b5161488890866133dd565b61489191613416565b60029861489d8a611130565b6148a691611153565b516148b190896133dd565b6148ba91613416565b6148c3916144c8565b6148cc90614f2a565b6148d5916145cc565b906148df89611130565b6148e99086611153565b516148f38a611130565b6148fd9083611153565b51614907916144c8565b9061491185611130565b61491b9087611153565b518461492687611130565b6149309084611153565b519061493b916133dd565b614944916144c8565b908761494f8a611130565b6149599089611153565b51916149648b611130565b61496d91611153565b5190614978916133dd565b614981916144c8565b61498a916145cc565b614993916145cc565b61499c916145cc565b966149a690611130565b6149b09084611153565b516149ba90614f2a565b916149c490611130565b6149ce9084611153565b516149d890614f2a565b906149e2916144c8565b6149eb916145cc565b926149f590611130565b6149fe91611153565b51614a0890614f2a565b90614a12916144c8565b614a1b916145cc565b602082015191604001519161015b93614fad565b614a3a61015b835190565b811015614a6d578061159c8b61149483614a61614a5a614a679789611153565b5189614e42565b92611153565b8361480c565b614811565b9096614a7f61015b835190565b881015614ab85790614ab2614aab8793613cdc8b613cd66114a9614aa38389611153565b51928a611153565b9860010190565b916147eb565b966147f0565b508151614ace6114ba6003611130565b14156147ab565b61015b6020610064565b614ae7614ad5565b9060608252565b61015b614adf565b919091614b01614aee565b906114a9614b388395614b246000850151916122f26000958694611fdb86611130565b9301926122f26114a98551611fdb86611130565b91600192839283614b4881611130565b905b614c05575b5090614b9682614ba493614b71611872614b6888515190565b6118c48a611130565b9801978852611494614b8a6114a98751611fdb85611130565b91611fdb8a5191611130565b6114948651611fdb86611130565b614bad82611130565b915b614bba575b50505050565b614bc661015b82515190565b821015614c0057614bfa8261159c614be36114a987968651611153565b6114948851611fdb614bf489611130565b86611299565b91614baf565b614bb4565b92939091614c1561015b86515190565b841015614c4257614c31614c38916122f26114a9878951611153565b9360010190565b8194939291614b4a565b91909392614b4f565b90916000820151614c698461317e6114a9600094611fdb6000611130565b614c736002611130565b818401614c8261015b82515190565b821015614ca4579061159c8661317e6114a984614c9f9651611153565b614c73565b505050915050565b9091906000810151614cc76114a9600092611fdb6000611130565b9380926001928391614cd96001611130565b925b614ce8575b505050505050565b909192939496828201614cfd61015b82515190565b851015614d375785614d26614d2c93611726614d206114a98a614c319751611153565b8d6133dd565b996133dd565b919085949395614cdb565b5096614ce0565b614d486001611178565b603b60f91b602082015290565b61015b614d3e565b90614d696142fa614d55565b6000614d756000611130565b935b614d8261015b855190565b851015614dd257614d9282611130565b614da261015b613e028888611153565b811015614dc7578061159c8561317e6114a9614dc29561162a8c8c611153565b614d92565b509360010193614d77565b93505061015b9150614312611232565b9190614ded8161110d565b908193614dfb613467611307565b60018092614e096001611130565b915b614e16575050505050565b808210156134d857614e3c849261159c6134c8866120386114a96134c26134bc8a611130565b91614e0b565b9190600092614e4f815190565b614e5d6114ba61015b855190565b0361362257614e6c6000611130565b935b614e7961015b835190565b85101561392157613914614e97916117266139076114a98987611153565b93614e6e565b614ea76001611178565b605760f81b602082015290565b61015b614e9d565b614ec66001611178565b601960fa1b602082015290565b61015b614ebc565b9190614ee86142fa614eb4565b614ef26000611130565b614efd61015b855190565b811015614f1b578061159c8361470e614f169488611153565b614ef2565b5061015b919250614312614ed3565b90614f3361138c565b9182614f3e82614744565b15614f635761007891506020614f526112ed565b91614f5d8382611172565b01611172565b60206145b8614f848285613183614f7e600061007899015190565b87611172565b61526d565b61015b600c614498565b61015b6001614498565b90600c6111a8565b9060016111a8565b9092614fb7614f89565b90614fc0614f93565b93614fc9845190565b614fd290611130565b93600094614fdf86611130565b614fe99086614f9d565b90614ff391611172565b6020015161500090611130565b9560019661500d88611130565b6150179086614f9d565b9061502191611172565b848101805161502f87611130565b615038916111f4565b516150436002611130565b61504d9087614f9d565b9061505791611172565b5161506188611130565b61506a916111f4565b516150756003611130565b61507f9086614f9d565b9061508991611172565b602001805161509786611130565b6150a0916111f4565b516150ab6004611130565b6150b59086614f9d565b906150bf91611172565b516150c987611130565b6150d2916111f4565b516150dd6005611130565b6150e79085614f9d565b906150f191611172565b838101516150fe90611130565b6151086006611130565b6151129085614f9d565b9061511c91611172565b6020015161512990611130565b6151336007611130565b61513d9084614f9d565b9061514791611172565b828101805161515585611130565b61515e916111f4565b516151696008611130565b6151739085614f9d565b9061517d91611172565b5161518786611130565b615190916111f4565b5161519b6009611130565b6151a59084614f9d565b906151af91611172565b60200180516151bd84611130565b6151c6916111f4565b516151d1600a611130565b6151db9084614f9d565b906151e591611172565b516151ef85611130565b6151f8916111f4565b51615203600b611130565b61520d9083614f9d565b9061521791611172565b825a602092600861018092fa156145bf576139416114a96147409361523e6114ba94611130565b90614fa5565b61015b7f30644e72e131a029b85045b68181585d97816a916871ca8d3c208c16d87cfd47611130565b61339361015b9161527c600090565b5061478a61394761394161524456fea2646970667358221220427ab541e1d8de6784a4cc92993b629bcc0e69b4d8b3ad8813e953b766f13fb064736f6c63430008190033",
  "linkReferences": {},
  "deployedLinkReferences": {}
}