{
  "_format": "hh-sol-artifact-1",
  "contractName": "TPFtAccessControl",
  "sourceName": "contracts/drex-connect/TPFtAccessControl.sol",
  "abi": [
    {
      "inputs": [],
      "stateMutability": "nonpayable",
      "type": "constructor"
    },
    {
      "anonymous": false,
      "inputs": [
        {
          "indexed": true,
          "internalType": "bytes32",
          "name": "role",
          "type": "bytes32"
        },
        {
          "indexed": true,
          "internalType": "bytes32",
          "name": "previousAdminRole",
          "type": "bytes32"
        },
        {
          "indexed": true,
          "internalType": "bytes32",
          "name": "newAdminRole",
          "type": "bytes32"
        }
      ],
      "name": "RoleAdminChanged",
      "type": "event"
    },
    {
      "anonymous": false,
      "inputs": [
        {
          "indexed": true,
          "internalType": "bytes32",
          "name": "role",
          "type": "bytes32"
        },
        {
          "indexed": true,
          "internalType": "address",
          "name": "account",
          "type": "address"
        },
        {
          "indexed": true,
          "internalType": "address",
          "name": "sender",
          "type": "address"
        }
      ],
      "name": "RoleGranted",
      "type": "event"
    },
    {
      "anonymous": false,
      "inputs": [
        {
          "indexed": true,
          "internalType": "bytes32",
          "name": "role",
          "type": "bytes32"
        },
        {
          "indexed": true,
          "internalType": "address",
          "name": "account",
          "type": "address"
        },
        {
          "indexed": true,
          "internalType": "address",
          "name": "sender",
          "type": "address"
        }
      ],
      "name": "RoleRevoked",
      "type": "event"
    },
    {
      "inputs": [],
      "name": "AUCTION_PLACEMENT_ROLE",
      "outputs": [
        {
          "internalType": "bytes32",
          "name": "",
          "type": "bytes32"
        }
      ],
      "stateMutability": "view",
      "type": "function"
    },
    {
      "inputs": [],
      "name": "DEFAULT_ADMIN_ROLE",
      "outputs": [
        {
          "internalType": "bytes32",
          "name": "",
          "type": "bytes32"
        }
      ],
      "stateMutability": "view",
      "type": "function"
    },
    {
      "inputs": [],
      "name": "DIRECT_PLACEMENT_ROLE",
      "outputs": [
        {
          "internalType": "bytes32",
          "name": "",
          "type": "bytes32"
        }
      ],
      "stateMutability": "view",
      "type": "function"
    },
    {
      "inputs": [],
      "name": "FREEZER_ROLE",
      "outputs": [
        {
          "internalType": "bytes32",
          "name": "",
          "type": "bytes32"
        }
      ],
      "stateMutability": "view",
      "type": "function"
    },
    {
      "inputs": [],
      "name": "MINTER_ROLE",
      "outputs": [
        {
          "internalType": "bytes32",
          "name": "",
          "type": "bytes32"
        }
      ],
      "stateMutability": "view",
      "type": "function"
    },
    {
      "inputs": [
        {
          "internalType": "address",
          "name": "member",
          "type": "address"
        }
      ],
      "name": "allowAuctionPlacement",
      "outputs": [],
      "stateMutability": "nonpayable",
      "type": "function"
    },
    {
      "inputs": [
        {
          "internalType": "address",
          "name": "member",
          "type": "address"
        }
      ],
      "name": "allowDirectPlacement",
      "outputs": [],
      "stateMutability": "nonpayable",
      "type": "function"
    },
    {
      "inputs": [
        {
          "internalType": "address",
          "name": "member",
          "type": "address"
        }
      ],
      "name": "allowFreezingPlacement",
      "outputs": [],
      "stateMutability": "nonpayable",
      "type": "function"
    },
    {
      "inputs": [
        {
          "internalType": "address",
          "name": "member",
          "type": "address"
        }
      ],
      "name": "allowTPFtMint",
      "outputs": [],
      "stateMutability": "nonpayable",
      "type": "function"
    },
    {
      "inputs": [
        {
          "internalType": "address",
          "name": "member",
          "type": "address"
        }
      ],
      "name": "disableAddress",
      "outputs": [],
      "stateMutability": "nonpayable",
      "type": "function"
    },
    {
      "inputs": [
        {
          "internalType": "address",
          "name": "member",
          "type": "address"
        }
      ],
      "name": "enableAddress",
      "outputs": [],
      "stateMutability": "nonpayable",
      "type": "function"
    },
    {
      "inputs": [
        {
          "internalType": "bytes32",
          "name": "role",
          "type": "bytes32"
        }
      ],
      "name": "getRoleAdmin",
      "outputs": [
        {
          "internalType": "bytes32",
          "name": "",
          "type": "bytes32"
        }
      ],
      "stateMutability": "view",
      "type": "function"
    },
    {
      "inputs": [
        {
          "internalType": "address",
          "name": "account",
          "type": "address"
        }
      ],
      "name": "grantAdminRole",
      "outputs": [],
      "stateMutability": "nonpayable",
      "type": "function"
    },
    {
      "inputs": [
        {
          "internalType": "bytes32",
          "name": "role",
          "type": "bytes32"
        },
        {
          "internalType": "address",
          "name": "account",
          "type": "address"
        }
      ],
      "name": "grantRole",
      "outputs": [],
      "stateMutability": "nonpayable",
      "type": "function"
    },
    {
      "inputs": [
        {
          "internalType": "bytes32",
          "name": "role",
          "type": "bytes32"
        },
        {
          "internalType": "address",
          "name": "account",
          "type": "address"
        }
      ],
      "name": "hasRole",
      "outputs": [
        {
          "internalType": "bool",
          "name": "",
          "type": "bool"
        }
      ],
      "stateMutability": "view",
      "type": "function"
    },
    {
      "inputs": [
        {
          "internalType": "address",
          "name": "member",
          "type": "address"
        }
      ],
      "name": "isEnabledAddress",
      "outputs": [
        {
          "internalType": "bool",
          "name": "",
          "type": "bool"
        }
      ],
      "stateMutability": "view",
      "type": "function"
    },
    {
      "inputs": [
        {
          "internalType": "bytes32",
          "name": "role",
          "type": "bytes32"
        },
        {
          "internalType": "address",
          "name": "account",
          "type": "address"
        }
      ],
      "name": "renounceRole",
      "outputs": [],
      "stateMutability": "nonpayable",
      "type": "function"
    },
    {
      "inputs": [
        {
          "internalType": "bytes32",
          "name": "role",
          "type": "bytes32"
        },
        {
          "internalType": "address",
          "name": "account",
          "type": "address"
        }
      ],
      "name": "revokeRole",
      "outputs": [],
      "stateMutability": "nonpayable",
      "type": "function"
    },
    {
      "inputs": [
        {
          "internalType": "bytes4",
          "name": "interfaceId",
          "type": "bytes4"
        }
      ],
      "name": "supportsInterface",
      "outputs": [
        {
          "internalType": "bool",
          "name": "",
          "type": "bool"
        }
      ],
      "stateMutability": "view",
      "type": "function"
    }
  ],
  "bytecode": "0x60806040523461002257610011610041565b60405161106861018a823961106890f35b600080fd5b6100346100346100349290565b90565b6100346000610027565b61005361004c610037565b33906100d2565b565b9061005f90610034565b600052602052604060002090565b61003490610081906001600160a01b031682565b6001600160a01b031690565b6100349061006d565b6100349061008d565b9061005f90610096565b151590565b906100be6100346100ce926100a9565b825460ff191660ff919091161790565b9055565b6100e36100df8383610168565b1590565b6100eb575050565b61010b60016101068460006101008682610055565b0161009f565b6100ae565b61012761012161011b3393610034565b93610096565b91610096565b917f2f8788117e7eff1d82e926ec794901d17c78024a50270940304540a733656f0d61015260405190565b600090a4565b60ff1690565b6100349054610158565b6100349160006101006101849361017d600090565b5082610055565b61015e56fe6080604052600436101561001257600080fd5b60003560e01c806301ffc9a71461014257806306a85f0f1461013d5780632365a35e14610138578063248a9ca3146101335780632f2ff15d1461012e57806336568abe146101295780633b260563146101245780635036258b1461011f5780635f9e640f1461011a57806391d14854146101155780639eefdd8714610110578063a217fddf1461010b578063b9ca482114610106578063c634b78e14610101578063cc8f0795146100fc578063d5391393146100f7578063d547741f146100f2578063e29874b7146100ed5763e8d5a48a0361015a576104a0565b610488565b61046f565b610436565b61041e565b610406565b6103cd565b6103b2565b61037b565b61035f565b610347565b61032f565b6102f6565b6102dd565b6102c4565b610286565b610242565b6101c1565b610185565b6001600160e01b031981165b0361015a57565b600080fd5b9050359061016c82610147565b565b9060208282031261015a576101829161015f565b90565b3461015a576101b26101a061019b36600461016e565b6104bb565b60405191829182901515815260200190565b0390f35b600091031261015a57565b3461015a576101d13660046101b6565b6101b27f92de27771f92d6942691d73358b3a4673e4880de8356f8f2cf452be87e02d3635b6040519182918290815260200190565b6001600160a01b031690565b6001600160a01b038116610153565b9050359061016c82610212565b9060208282031261015a5761018291610221565b3461015a5761025a61025536600461022e565b610567565b604051005b80610153565b9050359061016c8261025f565b9060208282031261015a5761018291610265565b3461015a576101b26101f661029c366004610272565b6105cc565b919060408382031261015a576101829060206102bd8286610265565b9401610221565b3461015a5761025a6102d73660046102a1565b9061060b565b3461015a5761025a6102f03660046102a1565b90610679565b3461015a576103063660046101b6565b6101b27fda77f6231fec42b4d28b0cb4169b6957269348cad2424fc7119fb6ab7cf4f0f06101f6565b3461015a5761025a61034236600461022e565b610777565b3461015a5761025a61035a36600461022e565b6107fe565b3461015a576101b26101a06103753660046102a1565b90610850565b3461015a5761025a61038e36600461022e565b6108f2565b6101826101826101829290565b6101826000610393565b6101826103a0565b3461015a576103c23660046101b6565b6101b26101f66103aa565b3461015a576103dd3660046101b6565b6101b27f95879078ac5f9ef2655935a8a313c87a55cd3739fa85c7b76890b7dbcd26b36b6101f6565b3461015a5761025a61041936600461022e565b610939565b3461015a5761025a61043136600461022e565b6109a2565b3461015a576104463660046101b6565b6101b27f9f2df0fed2c77648de5860a4cc508cd0818c85b8b8a1ab4ceeef8d981c8956a66101f6565b3461015a5761025a6104823660046102a1565b906109fa565b3461015a5761025a61049b36600461022e565b610a6d565b3461015a576101b26101a06104b636600461022e565b610aaa565b637965db0b60e01b6001600160e01b03198216149081156104da575090565b61018291506001600160e01b0319166301ffc9a760e01b1490565b0190565b1561050057565b60405162461bcd60e51b815260206004820152603560248201527f4d75737420686176652061646d696e20726f6c6520746f2061737369676e2061604482015274756374696f6e20706c6163656d656e7420726f6c6560581b6064820152608490fd5b0390fd5b61016c906105856105806105796103a0565b3390610850565b6104f9565b7fda77f6231fec42b4d28b0cb4169b6957269348cad2424fc7119fb6ab7cf4f0f061060b565b905b600052602052604060002090565b6101829081565b61018290546105bb565b60016105e5610182926105dd600090565b5060006105ab565b016105c2565b9061016c916106016105fc826105cc565b610ac1565b9061016c91610acc565b9061016c916105eb565b1561061c57565b60405162461bcd60e51b815260206004820152602f60248201527f416363657373436f6e74726f6c3a2063616e206f6e6c792072656e6f756e636560448201526e103937b632b9903337b91039b2b63360891b6064820152608490fd5b61016c919061069a61068a33610206565b6001600160a01b03841614610615565b610b45565b156106a657565b60405162461bcd60e51b815260206004820152602760248201527f4d75737420686176652061646d696e20726f6c6520746f2064697361626c65206044820152666164647265737360c81b6064820152608490fd5b61018290610206906001600160a01b031682565b610182906106fb565b6101829061070f565b906105ad90610718565b9190600861074491029161073f60ff841b90565b921b90565b9181191691161790565b919061075f61018261076793151590565b90835461072b565b9055565b61016c9160009161074e565b600061079a61016c9261079361078e6105796103a0565b61069f565b6001610721565b61076b565b156107a657565b60405162461bcd60e51b815260206004820152602a60248201527f4d75737420686176652061646d696e20726f6c6520746f2061737369676e206d604482015269696e74657220726f6c6560b01b6064820152608490fd5b61016c906108156108106105796103a0565b61079f565b7f9f2df0fed2c77648de5860a4cc508cd0818c85b8b8a1ab4ceeef8d981c8956a661060b565b610182905b60ff1690565b610182905461083b565b61018291600061086c61087293610865600090565b50826105ab565b01610721565b610846565b1561087e57565b60405162461bcd60e51b815260206004820152602660248201527f4d75737420686176652061646d696e20726f6c6520746f20656e61626c65206160448201526564647265737360d01b6064820152608490fd5b9060ff90610744565b906108eb61018261076792151590565b82546108d2565b600161091461016c9261090e6109096105796103a0565b610877565b82610721565b6108db565b61016c906109286105fc6103a0565b61016c906109346103a0565b610acc565b61016c90610919565b1561094957565b60405162461bcd60e51b815260206004820152602b60248201527f4d75737420686176652061646d696e20726f6c6520746f2061737369676e206660448201526a7265657a657220726f6c6560a81b6064820152608490fd5b61016c906109b96109b46105796103a0565b610942565b7f92de27771f92d6942691d73358b3a4673e4880de8356f8f2cf452be87e02d36361060b565b9061016c916109f06105fc826105cc565b9061016c91610b45565b9061016c916109df565b15610a0b57565b60405162461bcd60e51b815260206004820152603460248201527f4d75737420686176652061646d696e20726f6c6520746f2061737369676e2064604482015273697265637420706c6163656d656e7420726f6c6560601b6064820152608490fd5b61016c90610a84610a7f6105796103a0565b610a04565b7f95879078ac5f9ef2655935a8a313c87a55cd3739fa85c7b76890b7dbcd26b36b61060b565b61087261018291610ab9600090565b506001610721565b61016c903390610cce565b610add610ad98383610850565b1590565b610ae5575050565b610afa600161091484600061086c86826105ab565b610b14610b0e610b08339390565b93610718565b91610718565b917f2f8788117e7eff1d82e926ec794901d17c78024a50270940304540a733656f0d610b3f60405190565b600090a4565b610b4f8282610850565b610b57575050565b610b6b6000610914848261086c86826105ab565b610b79610b0e610b08339390565b917ff6391f5c32d9c69d2a47ea670b442974b53935d1edc7fd64eb21e047a839171b610b3f60405190565b61018290610393565b60005b838110610bc05750506000910152565b8181015183820152602001610bb0565b6104f5610be892602092610be2815190565b94859290565b93849101610bad565b610c2f6101829392610c29610c29937f416363657373436f6e74726f6c3a206163636f756e7420000000000000000000815260170190565b90610bd0565b7001034b99036b4b9b9b4b733903937b6329607d1b815260110190565b634e487b7160e01b600052604160045260246000fd5b90601f01601f1916810190811067ffffffffffffffff821117610c8457604052565b610c4c565b610caa610cb36020936104f593610c9e815190565b80835293849260200190565b95869101610bad565b601f01601f191690565b602080825261018292910190610c89565b90610cdc610ad98284610850565b610ce4575050565b610d2e61018261056393610d16610d06610d00610d3a96610d8b565b92610ba4565b610d106020610393565b90610f0f565b90610d2060405190565b938492602084019283610bf1565b90810382520382610c62565b60405162461bcd60e51b815291829160048301610cbd565b6101829081906001600160a01b031681565b6108406101826101829290565b6101826014610d64565b6101826101826101829260ff1690565b610da8610da361018292610d9d606090565b5061070f565b610d52565b610d10610db3610d71565b610d7b565b634e487b7160e01b600052601160045260246000fd5b81810292918115918404141715610de157565b610db8565b91908201809211610de157565b9061016c610e0060405190565b9283610c62565b67ffffffffffffffff8111610c8457602090601f01601f19160190565b90610e36610e3183610e07565b610df3565b918252565b369037565b9061016c610e56610e5084610e24565b93610e07565b601f190160208401610e3b565b634e487b7160e01b600052603260045260246000fd5b90610e82825190565b811015610e90570160200190565b610e63565b8015610de1576000190190565b61018290610eba610eb66101829460ff1690565b9190565b901c90565b15610ec657565b60405162461bcd60e51b815280610563600482016020808252818101527f537472696e67733a20686578206c656e67746820696e73756666696369656e74604082015260600190565b909190610f40610f3b610f2b85610f266002610393565b610dce565b610f356002610393565b90610de6565b610e40565b9060006030610f57610f5183610393565b85610e79565b53600f60fb1b610f90610f876001978893851a610f7c610f7686610393565b89610e79565b53610f266002610393565b610f3583610393565b905b610fb4575b5061018293945090610fae610eb661018293610393565b14610ebf565b91610fbe86610393565b83111561102c576f181899199a1a9b1b9c1cb0b131b232b360811b610fe3600f610393565b8216906010821015610e9057879261100361102092611026941a60f81b90565b851a61100f8789610e79565b5361101a6004610d64565b90610ea2565b93610e95565b90610f92565b91610f9756fea2646970667358221220f32cbc03be5d6e0ea4c328f7aed72a5f6f576f8feed15f174277bf423851e5a564736f6c63430008190033",
  "linkReferences": {},
  "deployedLinkReferences": {}
}