{
  "_format": "hh-sol-artifact-1",
  "contractName": "Vesta",
  "sourceName": "contracts/ucl/curves/blocks/pasta/Vesta.sol",
  "abi": [
    {
      "inputs": [],
      "name": "P_MOD",
      "outputs": [
        {
          "internalType": "uint256",
          "name": "",
          "type": "uint256"
        }
      ],
      "stateMutability": "view",
      "type": "function"
    },
    {
      "inputs": [],
      "name": "R_MOD",
      "outputs": [
        {
          "internalType": "uint256",
          "name": "",
          "type": "uint256"
        }
      ],
      "stateMutability": "view",
      "type": "function"
    },
    {
      "inputs": [
        {
          "internalType": "uint256",
          "name": "compressed_x_coord",
          "type": "uint256"
        }
      ],
      "name": "decompress",
      "outputs": [
        {
          "components": [
            {
              "internalType": "uint256",
              "name": "x",
              "type": "uint256"
            },
            {
              "internalType": "uint256",
              "name": "y",
              "type": "uint256"
            }
          ],
          "internalType": "struct Vesta.VestaAffinePoint",
          "name": "point",
          "type": "tuple"
        }
      ],
      "stateMutability": "view",
      "type": "function"
    },
    {
      "inputs": [
        {
          "internalType": "bytes32",
          "name": "compressed_x_coord",
          "type": "bytes32"
        }
      ],
      "name": "fromBytes",
      "outputs": [
        {
          "components": [
            {
              "internalType": "uint256",
              "name": "x",
              "type": "uint256"
            },
            {
              "internalType": "uint256",
              "name": "y",
              "type": "uint256"
            }
          ],
          "internalType": "struct Vesta.VestaAffinePoint",
          "name": "point",
          "type": "tuple"
        }
      ],
      "stateMutability": "view",
      "type": "function"
    }
  ],
  "bytecode": "0x608060405234601d576040516105ee6100238239308150506105ee90f35b600080fdfe6080604052600436101561001257600080fd5b60003560e01c806313bc64ee146100525780631d712e271461004d578063438d1179146100485763df6e6cb40361005757610170565b610129565b610103565b610094565b600080fd5b905035905b565b90602082820312610057576100779161005c565b90565b604081019291610061919080518252602090810151910152565b6100b66100aa6100a5366004610063565b6101ff565b6040519182918261007a565b0390f35b600091031261005757565b6100776100776100779290565b6100777f40000000000000000000000000000000224698fc0994a8dd8c46eb21000000016100c5565b6100776100d2565b61010e3660046100ba565b6100b66101196100fb565b6040519182918290815260200190565b6100b66100aa61013a366004610063565b610300565b6100777f40000000000000000000000000000000224698fc094cf91b992d30ed000000016100c5565b61007761013f565b61017b3660046100ba565b6100b6610119610168565b634e487b7160e01b600052604160045260246000fd5b90601f01601f1916810190811067ffffffffffffffff8211176101be57604052565b610186565b906100616101d060405190565b928361019c565b61007760406101c3565b6101e96101d7565b906000825260006020830152565b6100776101e1565b61013a6100779161020e6101f7565b506100c5565b634e487b7160e01b600052603260045260246000fd5b61023a6100776100779260ff1690565b60ff1690565b6100779060f81c61022a565b61023a6100776100779290565b61023a9061027461026d6100779460ff1690565b9160ff1690565b901c90565b6100776100776100779260ff1690565b634e487b7160e01b600052601160045260246000fd5b919082018092116102ac57565b610289565b818102929181159184041417156102ac57565b80156102ac576000190190565b9060208282031261005757505190565b9081526040810192916100619160200152565b6040513d6000823e3d90fd5b906103096101f7565b50610314601f6100c5565b60208110156103e35761033083821a60f81b610240565b610240565b9161034461033e600761024c565b84610259565b92602060009310156103e35761036761036d91610361607f61024c565b16610279565b8361029f565b9061038361037c6101006100c5565b80936102b1565b9261038e601e6100c5565b935b61039a60006100c5565b8511156103e85760208510156103e3576103d7846103d26103dd936103cc6103c761032b8d8c1a60f81b90565b610279565b9061029f565b6102b1565b946102c4565b93610390565b610214565b9492509250936103f860006100c5565b9360208510156103e3576103cc6103c761032b61041794881a60f81b90565b9283148061052f575b6105245761047c915060206104336100d2565b806005818781818009090873__$b6e0a5c375b77fd7e15159ad263ec833e4$__9061045d60405190565b8096819482936104716394be798660e01b90565b8452600484016102e1565b03915af4801561051f57610077926000916104f0575b5080916104a96104a260ff6100c5565b831661024c565b6104b3600161024c565b16186104c261026d600161024c565b146104e0575b506104d96104d46101d7565b938452565b6020830152565b6104ea915061059c565b386104c8565b610512915060203d602011610518575b61050a818361019c565b8101906102d1565b38610492565b503d610500565b6102f4565b505050610077610544565b5061053a600061024c565b60ff821614610420565b61054c6101f7565b506105556101d7565b61007761056260006100c5565b6104d9818452565b634e487b7160e01b600052601260045260246000fd5b811561058a570690565b61056a565b919082039182116102ac57565b610077906105b26105ab6100d2565b8092610580565b9061058f56fea2646970667358221220c5c0d3574dea8a1b59ac7ff9b928412270985f9dbe8dd9964c214b33c95e6a8764736f6c63430008190033",
  "linkReferences": {
    "contracts/ucl/curves/Utilities.sol": {
      "Field": [
        {
          "length": 20,
          "start": 1123
        }
      ]
    }
  },
  "deployedLinkReferences": {
    "contracts/ucl/curves/Utilities.sol": {
      "Field": [
        {
          "length": 20,
          "start": 1088
        }
      ]
    }
  }
}