{
  "_format": "hh-sol-artifact-1",
  "contractName": "TPFtOperation1052",
  "sourceName": "contracts/drex-connect/TPFtOperation1052.sol",
  "abi": [
    {
      "inputs": [
        {
          "internalType": "contract AddressDiscovery",
          "name": "_addressDiscovery",
          "type": "address"
        },
        {
          "internalType": "contract RealDigitalDefaultAccount",
          "name": "_realDigitalDefaultAccounts",
          "type": "address"
        }
      ],
      "stateMutability": "nonpayable",
      "type": "constructor"
    },
    {
      "anonymous": false,
      "inputs": [
        {
          "indexed": false,
          "internalType": "uint256",
          "name": "operationId",
          "type": "uint256"
        },
        {
          "indexed": false,
          "internalType": "address",
          "name": "sender",
          "type": "address"
        },
        {
          "indexed": false,
          "internalType": "contract IRealTokenizado",
          "name": "senderToken",
          "type": "address"
        },
        {
          "indexed": false,
          "internalType": "address",
          "name": "receiver",
          "type": "address"
        },
        {
          "indexed": false,
          "internalType": "contract IRealTokenizado",
          "name": "receiverToken",
          "type": "address"
        },
        {
          "components": [
            {
              "internalType": "string",
              "name": "acronym",
              "type": "string"
            },
            {
              "internalType": "string",
              "name": "code",
              "type": "string"
            },
            {
              "internalType": "uint256",
              "name": "maturityDate",
              "type": "uint256"
            }
          ],
          "indexed": false,
          "internalType": "struct ITPFt.TPFtData",
          "name": "tpftData",
          "type": "tuple"
        },
        {
          "indexed": false,
          "internalType": "uint256",
          "name": "tpftAmount",
          "type": "uint256"
        },
        {
          "indexed": false,
          "internalType": "uint256",
          "name": "unitPrice",
          "type": "uint256"
        },
        {
          "indexed": false,
          "internalType": "uint256",
          "name": "financialValue",
          "type": "uint256"
        },
        {
          "indexed": false,
          "internalType": "string",
          "name": "status",
          "type": "string"
        },
        {
          "indexed": false,
          "internalType": "uint256",
          "name": "timestamp",
          "type": "uint256"
        }
      ],
      "name": "OperationClientTradeEvent",
      "type": "event"
    },
    {
      "anonymous": false,
      "inputs": [
        {
          "indexed": false,
          "internalType": "uint256",
          "name": "operationId",
          "type": "uint256"
        },
        {
          "indexed": false,
          "internalType": "uint256",
          "name": "cnpj8Sender",
          "type": "uint256"
        },
        {
          "indexed": false,
          "internalType": "uint256",
          "name": "cnpj8Receiver",
          "type": "uint256"
        },
        {
          "indexed": false,
          "internalType": "address",
          "name": "sender",
          "type": "address"
        },
        {
          "indexed": false,
          "internalType": "address",
          "name": "receiver",
          "type": "address"
        },
        {
          "components": [
            {
              "internalType": "string",
              "name": "acronym",
              "type": "string"
            },
            {
              "internalType": "string",
              "name": "code",
              "type": "string"
            },
            {
              "internalType": "uint256",
              "name": "maturityDate",
              "type": "uint256"
            }
          ],
          "indexed": false,
          "internalType": "struct ITPFt.TPFtData",
          "name": "tpftData",
          "type": "tuple"
        },
        {
          "indexed": false,
          "internalType": "uint256",
          "name": "tpftAmount",
          "type": "uint256"
        },
        {
          "indexed": false,
          "internalType": "uint256",
          "name": "unitPrice",
          "type": "uint256"
        },
        {
          "indexed": false,
          "internalType": "uint256",
          "name": "financialValue",
          "type": "uint256"
        },
        {
          "indexed": false,
          "internalType": "string",
          "name": "status",
          "type": "string"
        },
        {
          "indexed": false,
          "internalType": "uint256",
          "name": "timestamp",
          "type": "uint256"
        }
      ],
      "name": "OperationEvent",
      "type": "event"
    },
    {
      "anonymous": false,
      "inputs": [
        {
          "indexed": false,
          "internalType": "uint256",
          "name": "operationId",
          "type": "uint256"
        },
        {
          "indexed": false,
          "internalType": "address",
          "name": "sender",
          "type": "address"
        },
        {
          "indexed": false,
          "internalType": "address",
          "name": "receiver",
          "type": "address"
        },
        {
          "components": [
            {
              "internalType": "string",
              "name": "acronym",
              "type": "string"
            },
            {
              "internalType": "string",
              "name": "code",
              "type": "string"
            },
            {
              "internalType": "uint256",
              "name": "maturityDate",
              "type": "uint256"
            }
          ],
          "indexed": false,
          "internalType": "struct ITPFt.TPFtData",
          "name": "tpftData",
          "type": "tuple"
        },
        {
          "indexed": false,
          "internalType": "uint256",
          "name": "tpftAmount",
          "type": "uint256"
        },
        {
          "indexed": false,
          "internalType": "uint256",
          "name": "unitPrice",
          "type": "uint256"
        },
        {
          "indexed": false,
          "internalType": "uint256",
          "name": "financialValue",
          "type": "uint256"
        },
        {
          "indexed": false,
          "internalType": "string",
          "name": "status",
          "type": "string"
        },
        {
          "indexed": false,
          "internalType": "uint256",
          "name": "timestamp",
          "type": "uint256"
        }
      ],
      "name": "OperationTradeEvent",
      "type": "event"
    },
    {
      "inputs": [
        {
          "internalType": "uint256",
          "name": "operationId",
          "type": "uint256"
        },
        {
          "internalType": "address",
          "name": "sender",
          "type": "address"
        },
        {
          "internalType": "contract IRealTokenizado",
          "name": "senderToken",
          "type": "address"
        },
        {
          "internalType": "address",
          "name": "receiver",
          "type": "address"
        },
        {
          "internalType": "contract IRealTokenizado",
          "name": "receiverToken",
          "type": "address"
        },
        {
          "internalType": "enum ITPFtOperation1052.CallerPart",
          "name": "callerPart",
          "type": "uint8"
        },
        {
          "components": [
            {
              "internalType": "string",
              "name": "acronym",
              "type": "string"
            },
            {
              "internalType": "string",
              "name": "code",
              "type": "string"
            },
            {
              "internalType": "uint256",
              "name": "maturityDate",
              "type": "uint256"
            }
          ],
          "internalType": "struct ITPFt.TPFtData",
          "name": "tpftData",
          "type": "tuple"
        },
        {
          "internalType": "uint256",
          "name": "tpftAmount",
          "type": "uint256"
        },
        {
          "internalType": "uint256",
          "name": "unitPrice",
          "type": "uint256"
        }
      ],
      "name": "trade",
      "outputs": [],
      "stateMutability": "nonpayable",
      "type": "function"
    },
    {
      "inputs": [
        {
          "internalType": "uint256",
          "name": "operationId",
          "type": "uint256"
        },
        {
          "internalType": "uint256",
          "name": "cnpj8Sender",
          "type": "uint256"
        },
        {
          "internalType": "uint256",
          "name": "cnpj8Receiver",
          "type": "uint256"
        },
        {
          "internalType": "enum ITPFtOperation1052.CallerPart",
          "name": "callerPart",
          "type": "uint8"
        },
        {
          "components": [
            {
              "internalType": "string",
              "name": "acronym",
              "type": "string"
            },
            {
              "internalType": "string",
              "name": "code",
              "type": "string"
            },
            {
              "internalType": "uint256",
              "name": "maturityDate",
              "type": "uint256"
            }
          ],
          "internalType": "struct ITPFt.TPFtData",
          "name": "tpftData",
          "type": "tuple"
        },
        {
          "internalType": "uint256",
          "name": "tpftAmount",
          "type": "uint256"
        },
        {
          "internalType": "uint256",
          "name": "unitPrice",
          "type": "uint256"
        }
      ],
      "name": "trade",
      "outputs": [],
      "stateMutability": "nonpayable",
      "type": "function"
    },
    {
      "inputs": [
        {
          "internalType": "uint256",
          "name": "operationId",
          "type": "uint256"
        },
        {
          "internalType": "address",
          "name": "sender",
          "type": "address"
        },
        {
          "internalType": "address",
          "name": "receiver",
          "type": "address"
        },
        {
          "internalType": "enum ITPFtOperation1052.CallerPart",
          "name": "callerPart",
          "type": "uint8"
        },
        {
          "components": [
            {
              "internalType": "string",
              "name": "acronym",
              "type": "string"
            },
            {
              "internalType": "string",
              "name": "code",
              "type": "string"
            },
            {
              "internalType": "uint256",
              "name": "maturityDate",
              "type": "uint256"
            }
          ],
          "internalType": "struct ITPFt.TPFtData",
          "name": "tpftData",
          "type": "tuple"
        },
        {
          "internalType": "uint256",
          "name": "tpftAmount",
          "type": "uint256"
        },
        {
          "internalType": "uint256",
          "name": "unitPrice",
          "type": "uint256"
        }
      ],
      "name": "trade",
      "outputs": [],
      "stateMutability": "nonpayable",
      "type": "function"
    }
  ],
  "bytecode": "0x60806040523461002b5761001a6100146100d2565b9061014a565b604051611b046101618239611b0490f35b600080fd5b634e487b7160e01b600052604160045260246000fd5b90601f01601f191681019081106001600160401b0382111761006757604052565b610030565b9061008061007960405190565b9283610046565b565b6001600160a01b031690565b90565b6001600160a01b0381160361002b57565b9050519061008082610091565b919060408382031261002b5761008e9060206100cb82866100a2565b94016100a2565b6100f0611c65803803806100e58161006c565b9283398101906100af565b9091565b61008e90610082906001600160a01b031682565b61008e906100f4565b61008e90610108565b9061012a61008e61014692610111565b82546001600160a01b0319166001600160a01b03919091161790565b9055565b9061015961008092600161011a565b600261011a56fe6080604052600436101561001257600080fd5b60003560e01c8063349c535f146100425780633bb05d831461003d5763c5af9b34036100505761035e565b61030f565b610276565b805b0361005057565b600080fd5b9050359061006282610047565b565b6001600160a01b031690565b90565b6001600160a01b038116610049565b9050359061006282610073565b6002111561005057565b905035906100628261008f565b634e487b7160e01b600052604160045260246000fd5b90601f01601f1916810190811067ffffffffffffffff8211176100de57604052565b6100a6565b906100626100f060405190565b92836100bc565b67ffffffffffffffff81116100de57602090601f01601f19160190565b0190565b90826000939282370152565b90929192610139610134826100f7565b6100e3565b938185528183011161005057610062916020850190610118565b9080601f830112156100505781602061007093359101610124565b9190916060818403126100505761018560606100e3565b92813567ffffffffffffffff811161005057816101a3918401610153565b8452602082013567ffffffffffffffff811161005057826101cb836040936101d69601610153565b602087015201610055565b6040830152565b909161012082840312610050576101f48383610055565b926102028160208501610082565b926102108260408301610082565b9261021e8360608401610082565b9261022c8160808501610082565b9261023a8260a08301610099565b9260c082013567ffffffffffffffff81116100505761025e8461007092850161016e565b9361010061026f8260e08701610055565b9401610055565b34610050576102986102893660046101dd565b97969096959195949294610690565b604051005b60e081830312610050576102b18282610055565b926102bf8360208401610055565b926102cd8160408501610055565b926102db8260608301610099565b92608082013567ffffffffffffffff8111610050576102ff8461007092850161016e565b9360c061026f8260a08701610055565b346100505761029861032236600461029d565b95949094939193610911565b60e081830312610050576103428282610055565b926103508360208401610082565b926102cd8160408501610082565b346100505761029861037136600461032e565b95949094939193610a68565b6100646100706100709290565b6100709061037d565b1561039a57565b60405162461bcd60e51b815260206004820152601a60248201527f496e76616c69642073656e646572206f722072656365697665720000000000006044820152606490fd5b156103e657565b60405162461bcd60e51b815260206004820152602660248201527f53656e64657220616e642052656365697665722063616e6e6f74206265207468604482015265652073616d6560d01b6064820152608490fd5b6100706100706100709290565b1561044e57565b60405162461bcd60e51b8152602060048201526012602482015271496e76616c696420706172616d657465727360701b6044820152606490fd5b90610495610134836100f7565b918252565b6104a46004610488565b631514119d60e21b602082015290565b61007061049a565b6104c66007610488565b660545046744476560cc1b602082015290565b6100706104bc565b156104e857565b60405162461bcd60e51b815260206004820152601360248201527210dbdb9d1c9858dd1cc81b9bdd08199bdd5b99606a1b6044820152606490fd5b61007090610064906001600160a01b031682565b61007090610523565b61007090610537565b9050519061006282610047565b906020828203126100505761007091610549565b60005b83811061057d5750506000910152565b818101518382015260200161056d565b6105ae6105b7602093610114936105a2815190565b80835293849260200190565b9586910161056a565b601f01601f191690565b9052565b90610070906040806105fb6105e9606085016000880151868203600088015261058d565b6020870151858203602087015261058d565b940151910152565b6020808252610070929101906105c5565b6040513d6000823e3d90fd5b1561062757565b60405162461bcd60e51b81526020600482015260136024820152721514119d08191bd95cc81b9bdd08195e1a5cdd606a1b6044820152606490fd5b634e487b7160e01b600052601160045260246000fd5b8181029291811591840414171561068b57565b610662565b9490979396929591966000966106a58861038a565b986001600160a01b038a166001600160a01b038c1614158015610854575b6106cc90610393565b6106eb6001600160a01b0383166001600160a01b038d165b14156103df565b6106f48961043a565b881180610843575b8061082d575b61070b90610447565b61075a61075561072161071c6104b4565b610aa1565b61075561072f61071c6104d9565b9d8e6001600160a01b0382166001600160a01b03851614159182610806575b50506104e1565b610540565b9a602061076660405190565b9c8d906386e36b1b60e01b825281806107828b60048301610603565b03915afa998a15610801576100629c60009b6107c8575b506107a66107af9161043a565b8b5b1415610620565b6107c26107bc8989610678565b9b610540565b986110ee565b6107af919b506107f26107a69160203d6020116107fa575b6107ea81836100bc565b810190610556565b9b9150610799565b503d6107e0565b610614565b909150610824906001600160a01b03165b916001600160a01b031690565b14158e3861074e565b5061070b61083a8a61043a565b88119050610702565b5061084d8961043a565b86116106fc565b506001600160a01b03828116908b1614156106c3565b9050519061006282610073565b90602082820312610050576100709161086a565b1561089257565b60405162461bcd60e51b815260206004820152601360248201527224b73b30b634b21031b738351c29b2b73232b960691b6044820152606490fd5b156108d457565b60405162461bcd60e51b815260206004820152601560248201527424b73b30b634b21031b738351c2932b1b2b4bb32b960591b6044820152606490fd5b9161095e969594939260206109316107556002546001600160a01b031690565b93633f65c4a19461094160405190565b80809c81946109508a60e01b90565b835260048301526024820190565b03915afa918215610801576109d198600093610a46575b50602090610983600061038a565b946109a26001600160a01b0387166001600160a01b038716141561088b565b6109506109ba6107556002546001600160a01b031690565b916109c460405190565b9c8d948593849360e01b90565b03915afa9283156108015761006298600094610a0d575b50610a08906001600160a01b03165b6001600160a01b03851614156108cd565b6115ea565b610a08919450610a376109f79160203d602011610a3f575b610a2f81836100bc565b810190610877565b9491506109e8565b503d610a25565b6020919350610a6190823d8411610a3f57610a2f81836100bc565b9290610975565b906100629695949392916115ea565b610114610a8f92602092610a89815190565b94859290565b9384910161056a565b61007091610a77565b6020610b1691610aaf600090565b50610ad7610abc60405190565b8092610acb8583019182610a98565b908103825203826100bc565b610ae9610ae2825190565b9160200190565b20610aff6107556001546001600160a01b031690565b6040519384928391829163118c894b60e01b610950565b03915afa90811561080157600091610b2c575090565b610070915060203d602011610a3f57610a2f81836100bc565b90610b4f9061043a565b600052602052604060002090565b6100709081565b6100709054610b5d565b15610b7557565b60405162461bcd60e51b815260206004820152601460248201527309ee4c8cae440c8decae640dcdee840dac2e8c6d60631b6044820152606490fd5b6100709060a01c5b60ff1690565b6100709054610bb1565b634e487b7160e01b600052602160045260246000fd5b60021115610be957565b610bc9565b9061006282610bdf565b15610bff57565b60405162461bcd60e51b815260206004820152601d60248201527f43616c6c6572506172742063616e6e6f74206265207468652073616d650000006044820152606490fd5b61007090610bb9565b6100709054610c44565b60031115610be957565b9061006282610c57565b15610c7257565b60405162461bcd60e51b815260206004820152601660248201527513dc99195c88185b1c9958591e48195e1958dd5d195960521b6044820152606490fd5b9190820391821161068b57565b15610cc457565b60405162461bcd60e51b815260206004820152600d60248201526c13dc99195c88195e1c1a5c9959609a1b6044820152606490fd5b801515610049565b9050519061006282610cf9565b906020828203126100505761007091610d01565b6105c190610540565b949290979695939160e086019860008701610d4d916001600160a01b03169052565b60208601610d5a91610d22565b6001600160a01b0316604085015260608401610d7591610d22565b608083015260a082015260c00152565b9060ff905b9181191691161790565b61007090610c61565b90610dad610070610db492610d94565b8254610d85565b9055565b610dc26003610488565b6221a7a760e91b602082015290565b610070610db8565b610de36003610488565b6241545560e81b602082015290565b610070610dd9565b9b9a9892610ea19760c0610e7f8f99946101409c956100629f9a610e729060808e610e6b610e939e610e5b610e849c610e8b9f610e5190610e4161016088019c6000890152565b6001600160a01b03166020870152565b6040850190610d22565b6001600160a01b03166060830152565b0190610d22565b8b820360a08d01526105c5565b980152565b60e08c0152565b6101008a0152565b87820361012089015261058d565b940152565b6100706101206100e3565b906105c190610bee565b906105c190610c61565b9060001990610d8a565b90610edf610070610db49261043a565b8254610ec5565b906001600160a01b0390610d8a565b90610f05610070610db492610540565b8254610ee6565b6100709051610bee565b9060ff60a01b9060a01b610d8a565b61007090610bee565b90610f3e610070610db492610f25565b8254610f16565b6100709051610c61565b600761102761010061006294610f6f610f69600083015190565b86610ecf565b610f8f610f8660208301516001600160a01b031690565b60018701610ef5565b610fc560028601610fb3610fad60408501516001600160a01b031690565b82610ef5565b610fbf60608401610f0c565b90610f2e565b610fdc610fd3608083015190565b60038701610ecf565b610ff3610fea60a083015190565b60048701610ecf565b61100a61100160c083015190565b60058701610ecf565b61102161101860e083015190565b60068701610ecf565b01610f45565b9101610d9d565b9061006291610f4f565b9a9997906110b86110c091610ea1988e6110ab6101409c9a6100629f996110cf9b6110916110a1926110876110c79d6110776101608a019b60008b0152565b6001600160a01b03166020890152565b6040870190610d22565b6001600160a01b03166060850152565b6080830190610d22565b60a08184039101526105c5565b9560c08d0152565b60e08b0152565b610100890152565b86810361012088015260038152622620a760e91b602082015260400190565b979594919992909a969a6111066100708a6000610b45565b9960068b019061111582610b64565b611126611122600061043a565b9190565b036112165750509761119b81989796946111947fa47f37d81ecef7374405d992ff245d682d375ecbf941cfe012fd8c2523e344539e979561118b6111db9661117b6112119f611077611176610ea6565b998a52565b6001600160a01b03166040870152565b60608501610eb1565b6080830152565b6111a68560a0830152565b6111b18660c0830152565b6111bc4260e0830152565b6111cb60006101008301610ebb565b6111d6886000610b45565b61102e565b61120360026111f460018b01546001600160a01b031690565b9901546001600160a01b031690565b604051998a9942988b611038565b0390a1565b909c94919795999896939a8a93600182019961124c61081761123f8d546001600160a01b031690565b926001600160a01b031690565b14908161146a575b5080611456575b80611442575b80611429575b61127090610b6e565b600281019b61127e8d610bbf565b9061128890610bee565b9061129290610bee565b141561129d90610bf8565b6007019c6112aa8e610c4d565b6112b46000610c61565b906112be90610c61565b146112c890610c6b565b6112d190610b64565b6112db9042610cb0565b6112e5603c61043a565b10156112f090610cbd565b6112f990610540565b908b8b878761130f8c546001600160a01b031690565b92546001600160a01b03169461132460405190565b9e8f968796631cdd9b3560e31b88526113409660048901610d2b565b03815a602094600091f1958615610801577fa47f37d81ecef7374405d992ff245d682d375ecbf941cfe012fd8c2523e344539b611211996000986113ea575b506113b69161139b6113a8928a6000146113e257600190610d9d565b546001600160a01b031690565b99546001600160a01b031690565b95156113d4576113c4610df2565b955b6040519a8b9a42998c610dfa565b6113dc610dd1565b956113c6565b600290610d9d565b6113a89198509161139b6114186113b69460203d602011611422575b61141081836100bc565b810190610d0e565b999250509161137f565b503d611406565b5061127061143960058301610b64565b88149050611267565b5061144f60048201610b64565b8614611261565b5061146360038201610b64565b831461125b565b905061148661081761123f60028501546001600160a01b031690565b1438611254565b90959492610062946114c36114ca926114bc608096610e4160a088019c60008901906001600160a01b03169052565b6040850152565b6060830152565b0152565b9998969061010096611538610ea1976080610e7f8f999561153f966100629f9a61152b9060408e61151c6115469e61150c6101208401986000850152565b6001600160a01b03166020830152565b01906001600160a01b03169052565b8b820360608d01526105c5565b60a08c0152565b60c08a0152565b87820360e089015261058d565b9897956115c5906115be6115b66100629a94610ea1988e6115a96101009c9a6115996115cc9b6115896101208601976000870152565b6001600160a01b03166020850152565b6001600160a01b03166040830152565b60608184039101526105c5565b9560808d0152565b60a08b0152565b60c0890152565b86810360e088015260038152622620a760e91b602082015260400190565b929194909360006115fa8161038a565b6001600160a01b0381166001600160a01b03881614158015611ab8575b61162090610393565b61163c6001600160a01b0389166001600160a01b0389166106e4565b6116458261043a565b861180611aa7575b80611a91575b61165c90610447565b61166761071c6104b4565b9461169a61167661071c6104d9565b926001600160a01b0381166001600160a01b03891614159081611a74575b506104e1565b6116b06107556116aa8c88610678565b97610540565b9160206116bc60405190565b9384906386e36b1b60e01b825281806116d88a60048301610603565b03915afa92831561080157600093611a53575b506116fe6116f88561043a565b846107a8565b61170b6100708986610b45565b90600682019161171a83610b64565b6117266111228861043a565b036117f757505050826111d688809897956117b57f776a244a8d8dcb055a35e992aea4afdf27f814db470a0820be8bc1beeb8aaf0c9e98966117ae8f978f6112119f996117956117a5926117856117e99d61177f610ea6565b9d8e0152565b6001600160a01b031660208c0152565b6001600160a01b031660408a0152565b60608801610eb1565b6080860152565b6117c08760a0860152565b6117cb8860c0860152565b6117d64260e0860152565b6117e4816101008601610ebb565b610b45565b604051978897429689611553565b90818895949a999798939c60018f9894019c61181a8e546001600160a01b031690565b906001600160a01b0316906001600160a01b0316149081611a30575b5080611a1c575b80611a08575b806119ef575b61185290610b6e565b600281019a6118608c610bbf565b9061186a90610bee565b9061187490610bee565b141561187f90610bf8565b6007019b61188c8d610c4d565b61189584610c61565b9061189f90610c61565b146118a990610c6b565b6118b290610b64565b6118bc9042610cb0565b6118c6603c61043a565b10156118d190610cbd565b6118da90610540565b6118e390610540565b926118f58b546001600160a01b031690565b8a546001600160a01b03169061190a60405190565b9e8f9586948594636060519360e01b8652611928946004870161148d565b03915a94602095f1968715610801577f776a244a8d8dcb055a35e992aea4afdf27f814db470a0820be8bc1beeb8aaf0c996000986119bc575b506119826119909161139b611211999a9b8c6000146113e257600190610d9d565b97546001600160a01b031690565b97156119ae5761199e610df2565b935b60405198899842978a6114ce565b6119b6610dd1565b936119a0565b6112119798506119909161139b6119e46119829360203d6020116114225761141081836100bc565b9a9950509150611961565b506118526119ff60058301610b64565b88149050611849565b50611a1560048201610b64565b8414611843565b50611a2960038201610b64565b851461183d565b9050611a4c61081761123f60028501546001600160a01b031690565b1438611836565b611a6d91935060203d6020116107fa576107ea81836100bc565b91386116eb565b6001600160a01b031690506001600160a01b038416141538611694565b5061165c611a9e8361043a565b8a119050611653565b50611ab18261043a565b841161164d565b506001600160a01b03888116908216141561161756fea264697066735822122007c4336408f1264f6d7fa3272978b2dffe20ec7b43c19232ee85272bd8b0ccee64736f6c63430008190033",
  "linkReferences": {},
  "deployedLinkReferences": {}
}