{
  "_format": "hh-sol-artifact-1",
  "contractName": "RealDigitalDefaultAccount",
  "sourceName": "contracts/drex-connect/RealDigitalDefaultAccount.sol",
  "abi": [
    {
      "inputs": [
        {
          "internalType": "contract RealDigital",
          "name": "token",
          "type": "address"
        },
        {
          "internalType": "address",
          "name": "_authority",
          "type": "address"
        },
        {
          "internalType": "address",
          "name": "_admin",
          "type": "address"
        }
      ],
      "stateMutability": "nonpayable",
      "type": "constructor"
    },
    {
      "anonymous": false,
      "inputs": [
        {
          "indexed": true,
          "internalType": "bytes32",
          "name": "role",
          "type": "bytes32"
        },
        {
          "indexed": true,
          "internalType": "bytes32",
          "name": "previousAdminRole",
          "type": "bytes32"
        },
        {
          "indexed": true,
          "internalType": "bytes32",
          "name": "newAdminRole",
          "type": "bytes32"
        }
      ],
      "name": "RoleAdminChanged",
      "type": "event"
    },
    {
      "anonymous": false,
      "inputs": [
        {
          "indexed": true,
          "internalType": "bytes32",
          "name": "role",
          "type": "bytes32"
        },
        {
          "indexed": true,
          "internalType": "address",
          "name": "account",
          "type": "address"
        },
        {
          "indexed": true,
          "internalType": "address",
          "name": "sender",
          "type": "address"
        }
      ],
      "name": "RoleGranted",
      "type": "event"
    },
    {
      "anonymous": false,
      "inputs": [
        {
          "indexed": true,
          "internalType": "bytes32",
          "name": "role",
          "type": "bytes32"
        },
        {
          "indexed": true,
          "internalType": "address",
          "name": "account",
          "type": "address"
        },
        {
          "indexed": true,
          "internalType": "address",
          "name": "sender",
          "type": "address"
        }
      ],
      "name": "RoleRevoked",
      "type": "event"
    },
    {
      "inputs": [],
      "name": "DEFAULT_ADMIN_ROLE",
      "outputs": [
        {
          "internalType": "bytes32",
          "name": "",
          "type": "bytes32"
        }
      ],
      "stateMutability": "view",
      "type": "function"
    },
    {
      "inputs": [
        {
          "internalType": "uint256",
          "name": "cnpj8",
          "type": "uint256"
        },
        {
          "internalType": "address",
          "name": "wallet",
          "type": "address"
        }
      ],
      "name": "addDefaultAccount",
      "outputs": [],
      "stateMutability": "nonpayable",
      "type": "function"
    },
    {
      "inputs": [
        {
          "internalType": "uint256",
          "name": "cnpj8",
          "type": "uint256"
        }
      ],
      "name": "defaultAccount",
      "outputs": [
        {
          "internalType": "address",
          "name": "",
          "type": "address"
        }
      ],
      "stateMutability": "view",
      "type": "function"
    },
    {
      "inputs": [
        {
          "internalType": "bytes32",
          "name": "role",
          "type": "bytes32"
        }
      ],
      "name": "getRoleAdmin",
      "outputs": [
        {
          "internalType": "bytes32",
          "name": "",
          "type": "bytes32"
        }
      ],
      "stateMutability": "view",
      "type": "function"
    },
    {
      "inputs": [
        {
          "internalType": "bytes32",
          "name": "role",
          "type": "bytes32"
        },
        {
          "internalType": "address",
          "name": "account",
          "type": "address"
        }
      ],
      "name": "grantRole",
      "outputs": [],
      "stateMutability": "nonpayable",
      "type": "function"
    },
    {
      "inputs": [
        {
          "internalType": "bytes32",
          "name": "role",
          "type": "bytes32"
        },
        {
          "internalType": "address",
          "name": "account",
          "type": "address"
        }
      ],
      "name": "hasRole",
      "outputs": [
        {
          "internalType": "bool",
          "name": "",
          "type": "bool"
        }
      ],
      "stateMutability": "view",
      "type": "function"
    },
    {
      "inputs": [
        {
          "internalType": "bytes32",
          "name": "role",
          "type": "bytes32"
        },
        {
          "internalType": "address",
          "name": "account",
          "type": "address"
        }
      ],
      "name": "renounceRole",
      "outputs": [],
      "stateMutability": "nonpayable",
      "type": "function"
    },
    {
      "inputs": [
        {
          "internalType": "bytes32",
          "name": "role",
          "type": "bytes32"
        },
        {
          "internalType": "address",
          "name": "account",
          "type": "address"
        }
      ],
      "name": "revokeRole",
      "outputs": [],
      "stateMutability": "nonpayable",
      "type": "function"
    },
    {
      "inputs": [
        {
          "internalType": "bytes4",
          "name": "interfaceId",
          "type": "bytes4"
        }
      ],
      "name": "supportsInterface",
      "outputs": [
        {
          "internalType": "bool",
          "name": "",
          "type": "bool"
        }
      ],
      "stateMutability": "view",
      "type": "function"
    },
    {
      "inputs": [
        {
          "internalType": "uint256",
          "name": "cnpj8",
          "type": "uint256"
        },
        {
          "internalType": "address",
          "name": "newWallet",
          "type": "address"
        }
      ],
      "name": "updateDefaultWallet",
      "outputs": [],
      "stateMutability": "nonpayable",
      "type": "function"
    }
  ],
  "bytecode": "0x60806040523461002b5761001a6100146100fc565b91610175565b604051610cde6101978239610cde90f35b600080fd5b634e487b7160e01b600052604160045260246000fd5b90601f01601f191681019081106001600160401b0382111761006757604052565b610030565b9061008061007960405190565b9283610046565b565b6001600160a01b031690565b90565b6001600160a01b0381165b0361002b57565b9050519061008082610091565b6001600160a01b03811661009c565b90505190610080826100b0565b909160608284031261002b5761008e6100e584846100a3565b9360406100f582602087016100bf565b94016100bf565b61011a610e758038038061010f8161006c565b9283398101906100cc565b909192565b61008e90610082906001600160a01b031682565b61008e9061011f565b61008e90610133565b9061015561008e6101719261013c565b82546001600160a01b0319166001600160a01b03919091161790565b9055565b610080929161018861018f926001610145565b6002610145565b600361014556fe6080604052600436101561001257600080fd5b60003560e01c806301ffc9a7146100b2578063248a9ca3146100ad5780632f2ff15d146100a857806336568abe146100a35780633f65c4a11461009e5780634ebc9e591461009957806391d14854146100945780639356cfc11461008f578063a217fddf1461008a5763d547741f036100ca576102c2565b6102a7565b610264565b610248565b61022f565b6101fa565b6101e1565b6101c3565b61014d565b6100f5565b6001600160e01b031981165b036100ca57565b600080fd5b905035906100dc826100b7565b565b906020828203126100ca576100f2916100cf565b90565b346100ca5761012261011061010b3660046100de565b6102db565b60405191829182901515815260200190565b0390f35b806100c3565b905035906100dc82610126565b906020828203126100ca576100f29161012c565b346100ca57610122610168610163366004610139565b610336565b6040519182918290815260200190565b6001600160a01b031690565b6001600160a01b0381166100c3565b905035906100dc82610184565b91906040838203126100ca576100f29060206101bc828661012c565b9401610193565b346100ca576101dc6101d63660046101a0565b90610375565b604051005b346100ca576101dc6101f43660046101a0565b906103eb565b346100ca57610122610215610210366004610139565b61041b565b604051918291826001600160a01b03909116815260200190565b346100ca576101dc6102423660046101a0565b9061066f565b346100ca5761012261011061025e3660046101a0565b90610698565b346100ca576101dc6102773660046101a0565b90610703565b60009103126100ca57565b6100f26100f26100f29290565b6100f26000610288565b6100f2610295565b346100ca576102b736600461027d565b61012261016861029f565b346100ca576101dc6102d53660046101a0565b90610745565b637965db0b60e01b6001600160e01b03198216149081156102fa575090565b6100f291506001600160e01b0319166301ffc9a760e01b1490565b905b600052602052604060002090565b6100f29081565b6100f29054610325565b600161034f6100f292610347600090565b506000610315565b0161032c565b906100dc9161036b61036682610336565b61074f565b906100dc9161077a565b906100dc91610355565b0190565b1561038a57565b60405162461bcd60e51b815260206004820152602f60248201527f416363657373436f6e74726f6c3a2063616e206f6e6c792072656e6f756e636560448201526e103937b632b9903337b91039b2b63360891b6064820152608490fd5b0390fd5b6100dc919061040c6103fc33610178565b6001600160a01b03841614610383565b6107f8565b9061031790610288565b6104326100f29161042a600090565b506004610411565b546001600160a01b031690565b6100f290610178906001600160a01b031682565b6100f29061043f565b6100f290610453565b634e487b7160e01b600052604160045260246000fd5b90601f01601f1916810190811067ffffffffffffffff82111761049d57604052565b610465565b8015156100c3565b905051906100dc826104a2565b906020828203126100ca576100f2916104aa565b6040513d6000823e3d90fd5b156104de57565b60405162461bcd60e51b8152602060048201526015602482015274135d5cdd0818994818481c185c9d1a58da5c185b9d605a1b6044820152606490fd5b906105366105316001546001600160a01b031690565b61045c565b91602061054260405190565b63f16dfbe960e01b815233600482015293849060249082905afa9283156105ad576100dc936105799160009161057e575b506104d7565b61063a565b6105a0915060203d6020116105a6575b610598818361047b565b8101906104b7565b38610573565b503d61058e565b6104cb565b156105b957565b60405162461bcd60e51b815260206004820152602360248201527f4d757374206265207468652063757272656e742064656661756c74206163636f6044820152621d5b9d60ea1b6064820152608490fd5b906001600160a01b03905b9181191691161790565b9061062f6100f26106369261045c565b825461060a565b9055565b9061066a6100dc92610663610653610432836004610411565b6001600160a01b031633146105b2565b6004610411565b61061f565b906100dc9161051b565b906103179061045c565b6100f2905b60ff1690565b6100f29054610683565b6100f29160006106b46106ba936106ad600090565b5082610315565b01610679565b61068e565b156106c657565b60405162461bcd60e51b81526020600482015260156024820152744d7573742062652074686520617574686f7269747960581b6044820152606490fd5b9061066a6100dc926106636107236101786002546001600160a01b031690565b33146106bf565b906100dc9161073b61036682610336565b906100dc916107f8565b906100dc9161072a565b6100dc903390610944565b9060ff90610615565b906107736100f261063692151590565b825461075a565b61078b6107878383610698565b1590565b610793575050565b6107ad60016107a88460006106b48682610315565b610763565b6107c76107c16107bb339390565b9361045c565b9161045c565b917f2f8788117e7eff1d82e926ec794901d17c78024a50270940304540a733656f0d6107f260405190565b600090a4565b6108028282610698565b61080a575050565b61081e60006107a884826106b48682610315565b61082c6107c16107bb339390565b917ff6391f5c32d9c69d2a47ea670b442974b53935d1edc7fd64eb21e047a839171b6107f260405190565b6100f290610288565b60005b8381106108735750506000910152565b8181015183820152602001610863565b61037f61089b92602092610895815190565b94859290565b93849101610860565b6108e26100f293926108dc6108dc937f416363657373436f6e74726f6c3a206163636f756e7420000000000000000000815260170190565b90610883565b7001034b99036b4b9b9b4b733903937b6329607d1b815260110190565b61092061092960209361037f93610914815190565b80835293849260200190565b95869101610860565b601f01601f191690565b60208082526100f2929101906108ff565b906109526107878284610698565b61095a575050565b6109a46100f26103e79361098c61097c6109766109b096610a01565b92610857565b6109866020610288565b90610b85565b9061099660405190565b9384926020840192836108a4565b9081038252038261047b565b60405162461bcd60e51b815291829160048301610933565b6100f29081906001600160a01b031681565b6106886100f26100f29290565b6100f260146109da565b6100f26100f26100f29260ff1690565b610a1e610a196100f292610a13606090565b50610453565b6109c8565b610986610a296109e7565b6109f1565b634e487b7160e01b600052601160045260246000fd5b81810292918115918404141715610a5757565b610a2e565b91908201809211610a5757565b906100dc610a7660405190565b928361047b565b67ffffffffffffffff811161049d57602090601f01601f19160190565b90610aac610aa783610a7d565b610a69565b918252565b369037565b906100dc610acc610ac684610a9a565b93610a7d565b601f190160208401610ab1565b634e487b7160e01b600052603260045260246000fd5b90610af8825190565b811015610b06570160200190565b610ad9565b8015610a57576000190190565b6100f290610b30610b2c6100f29460ff1690565b9190565b901c90565b15610b3c57565b60405162461bcd60e51b8152806103e7600482016020808252818101527f537472696e67733a20686578206c656e67746820696e73756666696369656e74604082015260600190565b909190610bb6610bb1610ba185610b9c6002610288565b610a44565b610bab6002610288565b90610a5c565b610ab6565b9060006030610bcd610bc783610288565b85610aef565b53600f60fb1b610c06610bfd6001978893851a610bf2610bec86610288565b89610aef565b53610b9c6002610288565b610bab83610288565b905b610c2a575b506100f293945090610c24610b2c6100f293610288565b14610b35565b91610c3486610288565b831115610ca2576f181899199a1a9b1b9c1cb0b131b232b360811b610c59600f610288565b8216906010821015610b06578792610c79610c9692610c9c941a60f81b90565b851a610c858789610aef565b53610c9060046109da565b90610b18565b93610b0b565b90610c08565b91610c0d56fea2646970667358221220470b29bd067e9b867d460d9fcd3d369b0a3c62bbf6fc8695887867bee311afcc64736f6c63430008190033",
  "linkReferences": {},
  "deployedLinkReferences": {}
}