{
  "_format": "hh-sol-artifact-1",
  "contractName": "HamsL1Event",
  "sourceName": "contracts/ucl/HamsL1Event.sol",
  "abi": [
    {
      "anonymous": false,
      "inputs": [
        {
          "indexed": false,
          "internalType": "string",
          "name": "eventHead",
          "type": "string"
        },
        {
          "indexed": false,
          "internalType": "string",
          "name": "eventBody",
          "type": "string"
        }
      ],
      "name": "EventReceived",
      "type": "event"
    },
    {
      "inputs": [
        {
          "internalType": "string",
          "name": "eventHead",
          "type": "string"
        },
        {
          "internalType": "string",
          "name": "eventBody",
          "type": "string"
        }
      ],
      "name": "sendEvent",
      "outputs": [],
      "stateMutability": "nonpayable",
      "type": "function"
    }
  ],
  "bytecode": "0x60806040523460195760405161024f61001f823961024f90f35b600080fdfe6080604052600436101561001257600080fd5b60003560e01c6324a3c3bd036100d657610142565b634e487b7160e01b600052604160045260246000fd5b90601f01601f1916810190811067ffffffffffffffff82111761005f57604052565b610027565b9061007861007160405190565b928361003d565b565b67ffffffffffffffff811161005f57602090601f01601f19160190565b0190565b90826000939282370152565b909291926100bc6100b78261007a565b610064565b93818552818301116100d65761007891602085019061009b565b600080fd5b9080601f830112156100d6578160206100f6933591016100a7565b90565b9190916040818403126100d657803567ffffffffffffffff81116100d657836101239183016100db565b92602082013567ffffffffffffffff81116100d6576100f692016100db565b346100d65761015b6101553660046100f9565b906101dc565b604051005b60005b8381106101735750506000910152565b8181015183820152602001610163565b6101a46101ad60209361009793610198815190565b80835293849260200190565b95869101610160565b601f01601f191690565b60408082526100f69391926101ce91840190610183565b916020818403910152610183565b907fed8fc6614636e99fbbfdfc4863659387fc62cd3003a227de5f6d1778e3da2c4f9161021461020b60405190565b928392836101b7565b0390a156fea2646970667358221220c97c65959286ecb36a39257b224b567ef36d079ed5144687ce79ca8bf028a0a464736f6c63430008190033",
  "linkReferences": {},
  "deployedLinkReferences": {}
}