{
  "_format": "hh-sol-artifact-1",
  "contractName": "testLibrary",
  "sourceName": "contracts/ucl/image9/nova/sol/library.sol",
  "abi": [
    {
      "inputs": [],
      "name": "run",
      "outputs": [
        {
          "internalType": "bool",
          "name": "",
          "type": "bool"
        }
      ],
      "stateMutability": "pure",
      "type": "function"
    }
  ],
  "bytecode": "0x6080604052346019576040516104c361001f82396104c390f35b600080fdfe6080604052600436101561001257600080fd5b60003560e01c63c04062260361003257610037565b600091031261003257565b600080fd5b3461003257610047366004610027565b610064610052610274565b60405191829182901515815260200190565b0390f35b6100756100756100759290565b90565b602080825260059082015264746573743160d81b604082015260600190565b1561009e57565b60405162461bcd60e51b8152806100b760048201610078565b0390fd5b6020808252600590820152643a32b9ba1960d91b604082015260600190565b156100e157565b60405162461bcd60e51b8152806100b7600482016100bb565b602080825260059082015264746573743360d81b604082015260600190565b1561012057565b60405162461bcd60e51b8152806100b7600482016100fa565b6020808252600590820152641d195cdd0d60da1b604082015260600190565b1561015f57565b60405162461bcd60e51b8152806100b760048201610139565b602080825260059082015264746573743560d81b604082015260600190565b1561019e57565b60405162461bcd60e51b8152806100b760048201610178565b6020808252600590820152643a32b9ba1b60d91b604082015260600190565b156101dd57565b60405162461bcd60e51b8152806100b7600482016101b7565b602080825260059082015264746573743760d81b604082015260600190565b1561021c57565b60405162461bcd60e51b8152806100b7600482016101f6565b6020808252600590820152640e8cae6e8760db1b604082015260600190565b1561025b57565b60405162461bcd60e51b8152806100b760048201610235565b61027e6008610068565b6102a161028a826103c4565b61029b6102976003610068565b9190565b14610097565b61007561036f6102b16002610068565b9261033e61035c61007561033e6102c7886103c4565b976102e06001996102da6102978c610068565b146100da565b6103566102ec8a610068565b93849261030e6102fb856103c4565b6103086102976000610068565b14610119565b61033e61034361031e600d610068565b9a61033e61032b8d6103c4565b6103386102976003610068565b14610158565b61043f565b6103506102976003610068565b14610197565b146101d6565b6103696102976000610068565b14610215565b61037c6102976004610068565b14610254565b6020808252600890820152670425547494c4f47360c41b604082015260600190565b156103ab57565b60405162461bcd60e51b8152806100b760048201610382565b9060006103dc6103d46000610068565b8414156103a4565b60009260011c905b8082116103ef575050565b90926001019260011c906103e4565b60208082526007908201526604255474c4f47360cc1b604082015260600190565b1561042657565b60405162461bcd60e51b8152806100b7600482016103fe565b90600061045761044f6000610068565b84141561041f565b600192838103811615610484575b60011c905b808211610475575050565b90926001019260011c9061046a565b6000935061046556fea26469706673582212208b963f5f01a525c03b144274dfbe59c2ff1a4dc94056037489e6f474456f829c64736f6c63430008190033",
  "linkReferences": {},
  "deployedLinkReferences": {}
}