{
  "_format": "hh-sol-artifact-1",
  "contractName": "SimpleTPFt",
  "sourceName": "contracts/SimpleTPFt.sol",
  "abi": [
    {
      "inputs": [],
      "stateMutability": "nonpayable",
      "type": "constructor"
    },
    {
      "anonymous": false,
      "inputs": [
        {
          "indexed": true,
          "internalType": "address",
          "name": "account",
          "type": "address"
        },
        {
          "indexed": true,
          "internalType": "address",
          "name": "operator",
          "type": "address"
        },
        {
          "indexed": false,
          "internalType": "bool",
          "name": "approved",
          "type": "bool"
        }
      ],
      "name": "ApprovalForAll",
      "type": "event"
    },
    {
      "anonymous": false,
      "inputs": [
        {
          "indexed": true,
          "internalType": "address",
          "name": "operator",
          "type": "address"
        },
        {
          "indexed": true,
          "internalType": "address",
          "name": "from",
          "type": "address"
        },
        {
          "indexed": true,
          "internalType": "address",
          "name": "to",
          "type": "address"
        },
        {
          "indexed": false,
          "internalType": "uint256[]",
          "name": "ids",
          "type": "uint256[]"
        },
        {
          "indexed": false,
          "internalType": "uint256[]",
          "name": "values",
          "type": "uint256[]"
        }
      ],
      "name": "TransferBatch",
      "type": "event"
    },
    {
      "anonymous": false,
      "inputs": [
        {
          "indexed": true,
          "internalType": "address",
          "name": "operator",
          "type": "address"
        },
        {
          "indexed": true,
          "internalType": "address",
          "name": "from",
          "type": "address"
        },
        {
          "indexed": true,
          "internalType": "address",
          "name": "to",
          "type": "address"
        },
        {
          "indexed": false,
          "internalType": "uint256",
          "name": "id",
          "type": "uint256"
        },
        {
          "indexed": false,
          "internalType": "uint256",
          "name": "value",
          "type": "uint256"
        }
      ],
      "name": "TransferSingle",
      "type": "event"
    },
    {
      "anonymous": false,
      "inputs": [
        {
          "indexed": false,
          "internalType": "string",
          "name": "value",
          "type": "string"
        },
        {
          "indexed": true,
          "internalType": "uint256",
          "name": "id",
          "type": "uint256"
        }
      ],
      "name": "URI",
      "type": "event"
    },
    {
      "inputs": [
        {
          "internalType": "address",
          "name": "account",
          "type": "address"
        },
        {
          "internalType": "uint256",
          "name": "id",
          "type": "uint256"
        }
      ],
      "name": "balanceOf",
      "outputs": [
        {
          "internalType": "uint256",
          "name": "",
          "type": "uint256"
        }
      ],
      "stateMutability": "view",
      "type": "function"
    },
    {
      "inputs": [
        {
          "internalType": "address[]",
          "name": "accounts",
          "type": "address[]"
        },
        {
          "internalType": "uint256[]",
          "name": "ids",
          "type": "uint256[]"
        }
      ],
      "name": "balanceOfBatch",
      "outputs": [
        {
          "internalType": "uint256[]",
          "name": "",
          "type": "uint256[]"
        }
      ],
      "stateMutability": "view",
      "type": "function"
    },
    {
      "inputs": [
        {
          "internalType": "uint256",
          "name": "id",
          "type": "uint256"
        },
        {
          "internalType": "uint256",
          "name": "amount",
          "type": "uint256"
        }
      ],
      "name": "burn1155",
      "outputs": [],
      "stateMutability": "nonpayable",
      "type": "function"
    },
    {
      "inputs": [
        {
          "components": [
            {
              "internalType": "string",
              "name": "acronym",
              "type": "string"
            },
            {
              "internalType": "string",
              "name": "code",
              "type": "string"
            },
            {
              "internalType": "uint256",
              "name": "maturityDate",
              "type": "uint256"
            }
          ],
          "internalType": "struct SimpleTPFt.TPFtData",
          "name": "tpftData",
          "type": "tuple"
        }
      ],
      "name": "createTPFt",
      "outputs": [],
      "stateMutability": "nonpayable",
      "type": "function"
    },
    {
      "inputs": [
        {
          "components": [
            {
              "internalType": "string",
              "name": "acronym",
              "type": "string"
            },
            {
              "internalType": "string",
              "name": "code",
              "type": "string"
            },
            {
              "internalType": "uint256",
              "name": "maturityDate",
              "type": "uint256"
            }
          ],
          "internalType": "struct SimpleTPFt.TPFtData",
          "name": "tpftData",
          "type": "tuple"
        }
      ],
      "name": "getTPFtId",
      "outputs": [
        {
          "internalType": "uint256",
          "name": "",
          "type": "uint256"
        }
      ],
      "stateMutability": "view",
      "type": "function"
    },
    {
      "inputs": [
        {
          "internalType": "address",
          "name": "account",
          "type": "address"
        },
        {
          "internalType": "address",
          "name": "operator",
          "type": "address"
        }
      ],
      "name": "isApprovedForAll",
      "outputs": [
        {
          "internalType": "bool",
          "name": "",
          "type": "bool"
        }
      ],
      "stateMutability": "view",
      "type": "function"
    },
    {
      "inputs": [
        {
          "internalType": "address",
          "name": "receiverAddress",
          "type": "address"
        },
        {
          "components": [
            {
              "internalType": "string",
              "name": "acronym",
              "type": "string"
            },
            {
              "internalType": "string",
              "name": "code",
              "type": "string"
            },
            {
              "internalType": "uint256",
              "name": "maturityDate",
              "type": "uint256"
            }
          ],
          "internalType": "struct SimpleTPFt.TPFtData",
          "name": "tpftData",
          "type": "tuple"
        },
        {
          "internalType": "uint256",
          "name": "tpftAmount",
          "type": "uint256"
        }
      ],
      "name": "mint",
      "outputs": [],
      "stateMutability": "nonpayable",
      "type": "function"
    },
    {
      "inputs": [
        {
          "internalType": "address",
          "name": "to",
          "type": "address"
        },
        {
          "internalType": "uint256",
          "name": "id",
          "type": "uint256"
        },
        {
          "internalType": "uint256",
          "name": "amount",
          "type": "uint256"
        }
      ],
      "name": "mint1155",
      "outputs": [],
      "stateMutability": "nonpayable",
      "type": "function"
    },
    {
      "inputs": [
        {
          "internalType": "address",
          "name": "from",
          "type": "address"
        },
        {
          "internalType": "address",
          "name": "to",
          "type": "address"
        },
        {
          "internalType": "uint256[]",
          "name": "ids",
          "type": "uint256[]"
        },
        {
          "internalType": "uint256[]",
          "name": "amounts",
          "type": "uint256[]"
        },
        {
          "internalType": "bytes",
          "name": "data",
          "type": "bytes"
        }
      ],
      "name": "safeBatchTransferFrom",
      "outputs": [],
      "stateMutability": "nonpayable",
      "type": "function"
    },
    {
      "inputs": [
        {
          "internalType": "address",
          "name": "from",
          "type": "address"
        },
        {
          "internalType": "address",
          "name": "to",
          "type": "address"
        },
        {
          "internalType": "uint256",
          "name": "id",
          "type": "uint256"
        },
        {
          "internalType": "uint256",
          "name": "amount",
          "type": "uint256"
        },
        {
          "internalType": "bytes",
          "name": "data",
          "type": "bytes"
        }
      ],
      "name": "safeTransferFrom",
      "outputs": [],
      "stateMutability": "nonpayable",
      "type": "function"
    },
    {
      "inputs": [
        {
          "internalType": "address",
          "name": "operator",
          "type": "address"
        },
        {
          "internalType": "bool",
          "name": "approved",
          "type": "bool"
        }
      ],
      "name": "setApprovalForAll",
      "outputs": [],
      "stateMutability": "nonpayable",
      "type": "function"
    },
    {
      "inputs": [
        {
          "internalType": "bytes4",
          "name": "interfaceId",
          "type": "bytes4"
        }
      ],
      "name": "supportsInterface",
      "outputs": [
        {
          "internalType": "bool",
          "name": "",
          "type": "bool"
        }
      ],
      "stateMutability": "view",
      "type": "function"
    },
    {
      "inputs": [
        {
          "internalType": "address",
          "name": "to",
          "type": "address"
        },
        {
          "internalType": "uint256",
          "name": "id",
          "type": "uint256"
        },
        {
          "internalType": "uint256",
          "name": "amount",
          "type": "uint256"
        }
      ],
      "name": "transfer1155",
      "outputs": [
        {
          "internalType": "bool",
          "name": "",
          "type": "bool"
        }
      ],
      "stateMutability": "nonpayable",
      "type": "function"
    },
    {
      "inputs": [
        {
          "internalType": "address",
          "name": "from",
          "type": "address"
        },
        {
          "internalType": "address",
          "name": "to",
          "type": "address"
        },
        {
          "internalType": "uint256",
          "name": "id",
          "type": "uint256"
        },
        {
          "internalType": "uint256",
          "name": "amount",
          "type": "uint256"
        }
      ],
      "name": "transferFrom1155",
      "outputs": [
        {
          "internalType": "bool",
          "name": "",
          "type": "bool"
        }
      ],
      "stateMutability": "nonpayable",
      "type": "function"
    },
    {
      "inputs": [
        {
          "internalType": "uint256",
          "name": "",
          "type": "uint256"
        }
      ],
      "name": "uri",
      "outputs": [
        {
          "internalType": "string",
          "name": "",
          "type": "string"
        }
      ],
      "stateMutability": "view",
      "type": "function"
    }
  ],
  "bytecode": "0x60806040523461002257610011610146565b604051611b2d61094b8239611b2d90f35b600080fd5b634e487b7160e01b600052604160045260246000fd5b90601f01601f191681019081106001600160401b0382111761005e57604052565b610027565b9061007761007060405190565b928361003d565b565b6001600160401b03811161005e57602090601f01601f19160190565b0190565b906100ab6100a683610079565b610063565b918252565b6100ba6025610099565b7f68747470733a2f2f6d796170692e636f6d2f6170692f746f6b656e2f7b69647d602082015264173539b7b760d91b604082015290565b6100f96100b0565b90565b90600019905b9181191691161790565b6100f96100f96100f99290565b906101296100f96101309261010c565b82546100fc565b9055565b6100f96000610099565b6100f9610134565b6101566101516100f1565b61018b565b61016260016005610119565b61007761016f606461010c565b61017c633b9aca0061010c565b61018461013e565b91336102a8565b61007790610535565b6101a16100f96100f99290565b6001600160a01b031690565b6100f990610194565b156101bd57565b60405162461bcd60e51b815260206004820152602160248201527f455243313135353a206d696e7420746f20746865207a65726f206164647265736044820152607360f81b6064820152608490fd5b0390fd5b9061021a9061010c565b600052602052604060002090565b6100f9906101a1906001600160a01b031682565b6100f990610228565b6100f99061023c565b9061021a90610245565b6100f99081565b6100f99054610258565b634e487b7160e01b600052601160045260246000fd5b9190820180921161028c57565b610269565b9052565b9081526040810192916100779160200152565b9061007793929160006102ba816101ad565b906102d76102c7836101a1565b6102d0856101a1565b14156101b6565b61031a610302846102fd8733956102ed826105c1565b506102f78b6105c1565b50610210565b61024e565b6103148761030f8361025f565b61027f565b90610119565b61032381610245565b61032c83610245565b61033585610245565b917fc3d58168c5ae7397731d063d5bbf3d657854427343f4c083240f7aacaa2d0f6261036060405190565b8061036c8b8b83610295565b0390a4610768565b634e487b7160e01b600052602260045260246000fd5b90600160028304921680156103aa575b60208310146103a557565b610374565b91607f169161039a565b9160001960089290920291821b911b610102565b91906103d96100f96101309361010c565b9083546103b4565b610077916000916103c8565b8181106103f8575050565b8061040660006001936103e1565b016103ed565b9190601f811161041b57505050565b61042d61007793600052602060002090565b906020601f84018190048301931061044f575b6020601f9091010401906103ed565b9091508190610440565b90610462815190565b906001600160401b03821161005e576104858261047f855461038a565b8561040c565b602090601f83116001146104c0576101309291600091836104b5575b5050600019600883021c1916906002021790565b0151905038806104a1565b601f198316916104d585600052602060002090565b9260005b818110610513575091600293918560019694106104fa575b50505002019055565b01516000196008601f8516021c191690553880806104f1565b919360206001819287870151815501950192016104d9565b9061007791610459565b61007790600261052b565b6001600160401b03811161005e5760208091020190565b906100ab6100a683610540565b369037565b9061007761057f61057984610557565b93610540565b601f190160208401610564565b634e487b7160e01b600052603260045260246000fd5b906105ab825190565b8110156105bc576020809102010190565b61058c565b6100f96105d66105d1600161010c565b610569565b916105ea6105e4600061010c565b846105a2565b52565b6001600160e01b031981160361002257565b90505190610077826105ed565b90602082820312610022576100f9916105ff565b610291906101a1565b60005b83811061063c5750506000910152565b818101518382015260200161062c565b61066d61067660209361009593610661815190565b80835293849260200190565b95869101610629565b601f01601f191690565b91936106b56100f996946106ae6106bc94976106a460a08801996000890190610620565b6020870190610620565b6040850152565b6060830152565b608081840391015261064c565b60009060033d116106d657565b905060046000803e60005160e01c90565b60009060443d106100775760405160043d036004823e8051906001600160401b0382113d6024840111176107535780820180519092906001600160401b03811161074d5760043d0383018160208601011161074d576100f993949550602001019061003d565b50505050565b5050565b60208082526100f99291019061064c565b93949161077481610934565b610781575b505050505050565b6020946107be61079a610795600094610245565b610245565b946107a460405190565b9889978896879563f23a6e6160e01b875260048701610680565b03925af160009181610903575b50610896575060016107db6106c9565b6308c379a014610861575b6107f6575b388080808080610779565b60405162461bcd60e51b815260206004820152603460248201527f455243313135353a207472616e7366657220746f206e6f6e2d4552433131353560448201527f526563656976657220696d706c656d656e7465720000000000000000000000006064820152608490fd5b6108696106e7565b8061087457506107e6565b61020c9061088160405190565b62461bcd60e51b815291829160048301610757565b6001600160e01b03191663f23a6e6160e01b146107eb5760405162461bcd60e51b815260206004820152602860248201527f455243313135353a204552433131353552656365697665722072656a656374656044820152676420746f6b656e7360c01b6064820152608490fd5b61092691925060203d60201161092d575b61091e818361003d565b81019061060c565b90386107cb565b503d610914565b3b610946610942600061010c565b9190565b119056fe6080604052600436101561001257600080fd5b60003560e01c8062fdd58e1461010157806301ffc9a7146100fc5780630e89341c146100f75780632eb2c2d6146100f25780634e1273f4146100ed57806386e36b1b146100e8578063a22cb465146100e3578063c64200b2146100de578063cdb7c81d146100d9578063d2bd0e12146100d4578063d68756a8146100cf578063dabd0504146100ca578063e985e9c5146100c5578063f242432a146100c05763fa279caa036101275761089f565b610883565b610826565b6107ea565b6107b5565b610761565b610745565b6106fd565b6106af565b61065c565b6105a2565b61046b565b610280565b6101d2565b610171565b6001600160a01b031690565b90565b6001600160a01b0381165b0361012757565b600080fd5b9050359061013982610115565b565b80610120565b905035906101398261013b565b91906040838203126101275761011290602061016a828661012c565b9401610141565b346101275761019d61018d61018736600461014e565b90610997565b6040519182918290815260200190565b0390f35b6001600160e01b03198116610120565b90503590610139826101a1565b9060208282031261012757610112916101b1565b346101275761019d6101ed6101e83660046101be565b6109dd565b6040515b91829182901515815260200190565b906020828203126101275761011291610141565b60005b8381106102275750506000910152565b8181015183820152602001610217565b61025861026160209361026b9361024c815190565b80835293849260200190565b95869101610214565b601f01601f191690565b0190565b602080825261011292910190610237565b346101275761019d61029b610296366004610200565b610b20565b6040519182918261026f565b634e487b7160e01b600052604160045260246000fd5b90601f01601f191681019081106001600160401b038211176102de57604052565b6102a7565b906101396102f060405190565b92836102bd565b6001600160401b0381116102de5760208091020190565b9092919261032361031e826102f7565b6102e3565b938185526020808601920283019281841161012757915b8383106103475750505050565b602080916103558486610141565b81520192019161033a565b9080601f83011215610127578160206101129335910161030e565b6001600160401b0381116102de57602090601f01601f19160190565b90826000939282370152565b909291926103b361031e8261037b565b938185528183011161012757610139916020850190610397565b9080601f8301121561012757816020610112933591016103a3565b91909160a081840312610127576103ff838261012c565b9261040d816020840161012c565b9260408301356001600160401b038111610127578261042d918501610360565b9260608101356001600160401b038111610127578361044d918301610360565b9260808201356001600160401b0381116101275761011292016103cd565b346101275761048761047e3660046103e8565b93929092610b8e565b604051005b9092919261049c61031e826102f7565b938185526020808601920283019281841161012757915b8383106104c05750505050565b602080916104ce848661012c565b8152019201916104b3565b9080601f83011215610127578160206101129335910161048c565b9190916040818403126101275780356001600160401b038111610127578361051d9183016104d9565b9260208201356001600160401b038111610127576101129201610360565b9061055b61055461054a845190565b8084529260200190565b9260200190565b9060005b81811061056c5750505090565b9091926105896105826001928651815260200190565b9460200190565b92910161055f565b60208082526101129291019061053b565b346101275761019d6105be6105b83660046104f4565b90610ca1565b60405191829182610591565b919091606081840312610127576105e160606102e3565b9281356001600160401b03811161012757816105fe9184016103cd565b845260208201356001600160401b03811161012757826106258360409361063096016103cd565b602087015201610141565b6040830152565b906020828203126101275781356001600160401b0381116101275761011292016105ca565b346101275761019d61018d610672366004610637565b610d45565b801515610120565b9050359061013982610677565b9190604083820312610127576101129060206106a8828661012c565b940161067f565b34610127576104876106c236600461068c565b90610d4e565b608081830312610127576106dc828261012c565b926101126106ed846020850161012c565b93606061016a8260408701610141565b346101275761019d6101ed6107133660046106c8565b92919091610d78565b909160608284031261012757610112610735848461012c565b93604061016a8260208701610141565b346101275761019d6101ed61075b36600461071c565b91610d9a565b3461012757610487610774366004610637565b610e87565b90916060828403126101275761078f838361012c565b926020830135906001600160401b03821161012757604061016a826101129487016105ca565b34610127576104876107c8366004610779565b91610f73565b91906040838203126101275761011290602061016a8286610141565b34610127576104876107fd3660046107ce565b90610fa4565b91906040838203126101275761011290602061081f828661012c565b940161012c565b346101275761019d6101ed61083c366004610803565b90610faf565b91909160a08184031261012757610859838261012c565b92610867816020840161012c565b926108758260408501610141565b9261044d8360608301610141565b3461012757610487610896366004610842565b93929092610fd1565b34610127576104876108b236600461071c565b91610fe7565b6101066101126101129290565b610112906108b8565b156108d557565b60405162461bcd60e51b815260206004820152602a60248201527f455243313135353a2061646472657373207a65726f206973206e6f742061207660448201526930b634b21037bbb732b960b11b6064820152608490fd5b0390fd5b6101126101126101129290565b9061094890610931565b600052602052604060002090565b61011290610106906001600160a01b031682565b61011290610956565b6101129061096a565b9061094890610973565b6101129081565b6101129054610986565b6109d8906109d3610112936109aa600090565b506109cc6109bb61010660006108c5565b6001600160a01b03851614156108ce565b600061093e565b61097c565b61098d565b636cdb3d1360e11b6001600160e01b0319821614908115610a0d575b8115610a03575090565b6101129150610ff5565b6001600160e01b031981166303a24d0760e21b1491506109f9565b634e487b7160e01b600052602260045260246000fd5b9060016002830492168015610a5e575b6020831014610a5957565b610a28565b91607f1691610a4e565b80546000939291610a85610a7b83610a3e565b8085529360200190565b9160018116908115610ad75750600114610a9e57505050565b610ab19192939450600052602060002090565b916000925b818410610ac35750500190565b805484840152602090930192600101610ab6565b92949550505060ff1916825215156020020190565b9061011291610a68565b90610139610b1092610b0760405190565b93848092610aec565b03836102bd565b61011290610af6565b506101126002610b17565b15610b3257565b60405162461bcd60e51b815260206004820152602e60248201527f455243313135353a2063616c6c6572206973206e6f7420746f6b656e206f776e60448201526d195c881bdc88185c1c1c9bdd995960921b6064820152608490fd5b6101399493929190610bbe335b6001600160a01b0381166001600160a01b03841614908115610bc3575b50610b2b565b61115b565b610bce915083610faf565b38610bb8565b15610bdb57565b60405162461bcd60e51b815260206004820152602960248201527f455243313135353a206163636f756e747320616e6420696473206c656e677468604482015268040dad2e6dac2e8c6d60bb1b6064820152608490fd5b90610c3f61031e836102f7565b918252565b369037565b90610139610c5f610c5984610c32565b936102f7565b601f190160208401610c44565b634e487b7160e01b600052603260045260246000fd5b90610c8b825190565b811015610c9c576020809102010190565b610c6c565b90610cc5610cad835190565b610cbf610cbb610112855190565b9190565b14610bd4565b610cd5610cd0835190565b610c49565b91610ce06000610931565b610ceb610112835190565b811015610d3f5780610d34610d27610d16610d09610d3a9587610c82565b516001600160a01b031690565b610187610d238589610c82565b5190565b610d318388610c82565b52565b60010190565b610ce0565b50505090565b610112906112ab565b610139919033611365565b90610c3f61031e8361037b565b6101126000610d59565b610112610d66565b91610d959391610d86600090565b50610d8f610d70565b936113f9565b600190565b610d95929091610da8610d70565b92336113f9565b61026b610dc792602092610dc1815190565b94859290565b93849101610214565b60209392610de4610c3f9261026b94610daf565b90610daf565b90610948565b15610df757565b60405162461bcd60e51b81526020600482015260136024820152725450467420616c72656164792065786973747360681b6044820152606490fd5b90600019905b9181191691161790565b90610e52610112610e5992610931565b8254610e32565b9055565b634e487b7160e01b600052601160045260246000fd5b6000198114610e825760010190565b610e5d565b80516020820151604090920151610f1592610ec4915b92610eb8610eaa60405190565b948593602085019384610dd0565b908103825203826102bd565b610ed6610ecf825190565b9160200190565b20610efb610ee86109d8836004610dea565b610ef5610cbb6000610931565b14610df0565b610f10610f08600561098d565b916004610dea565b610e42565b610139610f2a610f25600561098d565b610e73565b6005610e42565b15610f3857565b60405162461bcd60e51b81526020600482015260136024820152721514119d08191bd95cc81b9bdd08195e1a5cdd606a1b6044820152606490fd5b9091610f81610139936112ab565b610f96610f8e6000610931565b821415610f31565b610f9e610d70565b9261152a565b906101399133611631565b610112916109d3610fca92610fc2600090565b50600161097c565b5460ff1690565b6101399493929190610fe233610b9b565b6113f9565b909161013992610f9e610d70565b61100f6301ffc9a760e01b5b916001600160e01b03191690565b1490565b1561101a57565b60405162461bcd60e51b815260206004820152602860248201527f455243313135353a2069647320616e6420616d6f756e7473206c656e677468206044820152670dad2e6dac2e8c6d60c31b6064820152608490fd5b1561107757565b60405162461bcd60e51b815260206004820152602560248201527f455243313135353a207472616e7366657220746f20746865207a65726f206164604482015264647265737360d81b6064820152608490fd5b156110d157565b60405162461bcd60e51b815260206004820152602a60248201527f455243313135353a20696e73756666696369656e742062616c616e636520666f60448201526939103a3930b739b332b960b11b6064820152608490fd5b91908201809211610e8257565b604080825261011293919261114d9184019061053b565b91602081840391015261053b565b929194909461117f61116b825190565b611179610cbb610112875190565b14611013565b6000916111a3611191610106856108c5565b6001600160a01b0389165b1415611070565b33956111ae84610931565b6111b9610112855190565b8110156112465780610d348861123b61122c8d6109d38c6112268d610f106111f68f8c6111f06112419f610d2390610d2394610c82565b96610c82565b986109d3856112208c6112106109d8866109d3868b61093e565b61121c828210156110ca565b0390565b9461093e565b8c61093e565b916112368361098d565b611129565b90610e42565b6111ae565b509490969192506101399561125a81610973565b61126383610973565b61126c85610973565b917f4a39dc06d4c0dbc64b70af90fd698a233a518aa5d07e595d983b8c0526c8f7fb61129760405190565b806112a38b8b83611136565b0390a4611810565b6109d8610112916112ba600090565b506112d4600082015191610e9d6040602083015192015190565b6112df610ecf825190565b206004610dea565b156112ee57565b60405162461bcd60e51b815260206004820152602960248201527f455243313135353a2073657474696e6720617070726f76616c20737461747573604482015268103337b91039b2b63360b91b6064820152608490fd5b9060ff90610e38565b9061135e610112610e5992151590565b8254611345565b6113e16113d76113d17f17307eab39ab6107e8899845ad3d59bd9653f200f220920489ca2b5937696c31936113b46113a3876001600160a01b031690565b6001600160a01b03831614156112e7565b6113cc876113c7886109d385600161097c565b61134e565b610973565b93610973565b936101f160405190565b0390a3565b9081526040810192916101399160200152565b90610139949392916000611421611412610106836108c5565b6001600160a01b03851661119c565b61147a61146d846109d3873395611437826119cc565b506114418b6119cc565b5061146861145a8c6112106109d88c6109d3888861093e565b610f108a6109d3868661093e565b61093e565b61123b876112368361098d565b61148381610973565b61148c83610973565b61149585610973565b917fc3d58168c5ae7397731d063d5bbf3d657854427343f4c083240f7aacaa2d0f626114c060405190565b806114cc8b8b836113e6565b0390a4611a47565b156114db57565b60405162461bcd60e51b815260206004820152602160248201527f455243313135353a206d696e7420746f20746865207a65726f206164647265736044820152607360f81b6064820152608490fd5b90610139939291600061153c816108c5565b9061155b6001600160a01b0383166001600160a01b03851614156114d4565b61147a61146d846109d3873395611571826119cc565b5061157b8b6119cc565b5061093e565b1561158857565b60405162461bcd60e51b815260206004820152602360248201527f455243313135353a206275726e2066726f6d20746865207a65726f206164647260448201526265737360e81b6064820152608490fd5b156115e057565b60405162461bcd60e51b8152602060048201526024808201527f455243313135353a206275726e20616d6f756e7420657863656564732062616c604482015263616e636560e01b6064820152608490fd5b9190917fc3d58168c5ae7397731d063d5bbf3d657854427343f4c083240f7aacaa2d0f626000926116da6116d46116d461166a876108c5565b966116896001600160a01b0389166001600160a01b0389161415611581565b6113cc33916116978b6119cc565b506116a1876119cc565b506116aa610d70565b50610f10896109d38d6112208b6116c86109d8866109d3868b61093e565b61121c828210156115d9565b94610973565b946116f06116e760405190565b928392836113e6565b0390a46116fb610d70565b50565b90505190610139826101a1565b9060208282031261012757610112916116fe565b939061176890610112969461175b6117769561174b60a08a019460008b01906001600160a01b03169052565b6001600160a01b03166020890152565b868203604088015261053b565b90848203606086015261053b565b916080818403910152610237565b60009060033d1161179157565b905060046000803e60005160e01c90565b60009060443d106101395760405160043d036004823e8051903d60248301116001600160401b0383111761180c578181019182516001600160401b0381116118065760043d03830181602086010111611806576101129394955060200101906102bd565b50505050565b5050565b93949161181c81611ae5565b611829575b505050505050565b60209461186161183d6113cc600094610973565b9461184760405190565b9889978896879563bc197c8160e01b87526004870161171f565b03925af16000918161199b575b506119305750600161187e611784565b6308c379a0146118fb575b611899575b388080808080611821565b60405162461bcd60e51b815260206004820152603460248201527f455243313135353a207472616e7366657220746f206e6f6e2d455243313135356044820152732932b1b2b4bb32b91034b6b83632b6b2b73a32b960611b6064820152608490fd5b6119036117a2565b8061190e5750611889565b61092d9061191b60405190565b62461bcd60e51b81529182916004830161026f565b61194063bc197c8160e01b611001565b1461188e5760405162461bcd60e51b815260206004820152602860248201527f455243313135353a204552433131353552656365697665722072656a656374656044820152676420746f6b656e7360c01b6064820152608490fd5b6119be91925060203d6020116119c5575b6119b681836102bd565b81019061170b565b903861186e565b503d6119ac565b6101126119dc610cd06001610931565b91610d316119ea6000610931565b84610c82565b9193611a336101129694611a2c611a3a9497611a1c60a088019960008901906001600160a01b03169052565b6001600160a01b03166020870152565b6040850152565b6060830152565b6080818403910152610237565b939491611a5381611ae5565b611a5f57505050505050565b602094611a97611a736113cc600094610973565b94611a7d60405190565b9889978896879563f23a6e6160e01b8752600487016119f0565b03925af160009181611ac4575b50611ab45750600161187e611784565b61194063f23a6e6160e01b611001565b611ade91925060203d6020116119c5576119b681836102bd565b9038611aa4565b3b611af3610cbb6000610931565b119056fea2646970667358221220d37d51bc900a4433abae1ac68d44a8e2b8a8fe5d5e084136fc4659f0900f2c6a64736f6c63430008190033",
  "linkReferences": {},
  "deployedLinkReferences": {}
}