{
  "_format": "hh-sol-artifact-1",
  "contractName": "KeyDictionary",
  "sourceName": "contracts/drex-connect/KeyDictionary.sol",
  "abi": [
    {
      "inputs": [
        {
          "internalType": "contract RealDigital",
          "name": "token",
          "type": "address"
        }
      ],
      "stateMutability": "nonpayable",
      "type": "constructor"
    },
    {
      "anonymous": false,
      "inputs": [
        {
          "indexed": false,
          "internalType": "address",
          "name": "owner",
          "type": "address"
        },
        {
          "indexed": false,
          "internalType": "uint256",
          "name": "proposalId",
          "type": "uint256"
        },
        {
          "indexed": false,
          "internalType": "bytes32",
          "name": "key",
          "type": "bytes32"
        }
      ],
      "name": "KeyRequested",
      "type": "event"
    },
    {
      "inputs": [
        {
          "internalType": "bytes32",
          "name": "key",
          "type": "bytes32"
        },
        {
          "internalType": "uint256",
          "name": "_taxId",
          "type": "uint256"
        },
        {
          "internalType": "uint256",
          "name": "_bankNumber",
          "type": "uint256"
        },
        {
          "internalType": "uint256",
          "name": "_account",
          "type": "uint256"
        },
        {
          "internalType": "uint256",
          "name": "_branch",
          "type": "uint256"
        },
        {
          "internalType": "address",
          "name": "_wallet",
          "type": "address"
        }
      ],
      "name": "addAccount",
      "outputs": [],
      "stateMutability": "nonpayable",
      "type": "function"
    },
    {
      "inputs": [
        {
          "internalType": "uint256",
          "name": "proposalId",
          "type": "uint256"
        },
        {
          "internalType": "bytes32",
          "name": "key",
          "type": "bytes32"
        }
      ],
      "name": "authorizeKey",
      "outputs": [],
      "stateMutability": "nonpayable",
      "type": "function"
    },
    {
      "inputs": [
        {
          "internalType": "bytes32",
          "name": "key",
          "type": "bytes32"
        }
      ],
      "name": "getCustomerData",
      "outputs": [
        {
          "components": [
            {
              "internalType": "uint256",
              "name": "taxId",
              "type": "uint256"
            },
            {
              "internalType": "uint256",
              "name": "bankNumber",
              "type": "uint256"
            },
            {
              "internalType": "uint256",
              "name": "account",
              "type": "uint256"
            },
            {
              "internalType": "uint256",
              "name": "branch",
              "type": "uint256"
            },
            {
              "internalType": "address",
              "name": "wallet",
              "type": "address"
            },
            {
              "internalType": "bool",
              "name": "registered",
              "type": "bool"
            },
            {
              "internalType": "address",
              "name": "owner",
              "type": "address"
            }
          ],
          "internalType": "struct KeyDictionary.CustomerData",
          "name": "",
          "type": "tuple"
        }
      ],
      "stateMutability": "view",
      "type": "function"
    },
    {
      "inputs": [
        {
          "internalType": "address",
          "name": "wallet",
          "type": "address"
        }
      ],
      "name": "getKey",
      "outputs": [
        {
          "internalType": "bytes32",
          "name": "",
          "type": "bytes32"
        }
      ],
      "stateMutability": "view",
      "type": "function"
    },
    {
      "inputs": [
        {
          "internalType": "bytes32",
          "name": "key",
          "type": "bytes32"
        }
      ],
      "name": "getWallet",
      "outputs": [
        {
          "internalType": "address",
          "name": "",
          "type": "address"
        }
      ],
      "stateMutability": "view",
      "type": "function"
    },
    {
      "inputs": [
        {
          "internalType": "bytes32",
          "name": "key",
          "type": "bytes32"
        },
        {
          "internalType": "uint256",
          "name": "_taxId",
          "type": "uint256"
        },
        {
          "internalType": "uint256",
          "name": "_bankNumber",
          "type": "uint256"
        },
        {
          "internalType": "uint256",
          "name": "_account",
          "type": "uint256"
        },
        {
          "internalType": "uint256",
          "name": "_branch",
          "type": "uint256"
        },
        {
          "internalType": "address",
          "name": "_wallet",
          "type": "address"
        }
      ],
      "name": "requestKey",
      "outputs": [],
      "stateMutability": "nonpayable",
      "type": "function"
    },
    {
      "inputs": [
        {
          "internalType": "bytes32",
          "name": "key",
          "type": "bytes32"
        },
        {
          "internalType": "uint256",
          "name": "_taxId",
          "type": "uint256"
        },
        {
          "internalType": "uint256",
          "name": "_bankNumber",
          "type": "uint256"
        },
        {
          "internalType": "uint256",
          "name": "_account",
          "type": "uint256"
        },
        {
          "internalType": "uint256",
          "name": "_branch",
          "type": "uint256"
        },
        {
          "internalType": "address",
          "name": "_wallet",
          "type": "address"
        }
      ],
      "name": "updateData",
      "outputs": [],
      "stateMutability": "nonpayable",
      "type": "function"
    }
  ],
  "bytecode": "0x60806040523461002a576100196100146100c2565b610136565b604051610edc6101428239610edc90f35b600080fd5b634e487b7160e01b600052604160045260246000fd5b90601f01601f191681019081106001600160401b0382111761006657604052565b61002f565b9061007f61007860405190565b9283610045565b565b6001600160a01b031690565b90565b6001600160a01b0381160361002a57565b9050519061007f82610090565b9060208282031261002a5761008d916100a1565b61008d61101e803803806100d58161006b565b9283398101906100ae565b61008d90610081906001600160a01b031682565b61008d906100e0565b61008d906100f4565b9061011661008d610132926100fd565b82546001600160a01b0319166001600160a01b03919091161790565b9055565b61007f90600061010656fe6080604052600436101561001257600080fd5b60003560e01c80633034554314610082578063789d392a1461007d57806382007af11461007857806393790f4414610073578063a33c9a361461006e578063c82d5d86146100695763e9c1d83d03610090576102df565b61029d565b61027e565b610253565b610218565b610169565b610129565b805b0361009057565b600080fd5b905035906100a282610087565b565b6001600160a01b031690565b90565b6001600160a01b038116610089565b905035906100a2826100b3565b909160c082840312610090576100e58383610095565b926100f38160208501610095565b926101018260408301610095565b926100b06101128460608501610095565b9360a06101228260808701610095565b94016100c2565b346100905761014861013c3660046100cf565b949390939291926108a9565b604051005b0390f35b90602082820312610090576100b091610095565b9052565b346100905761014d61018461017f366004610151565b6108b7565b604051918291826001600160a01b03909116815260200190565b805182526100a2919060c09081906101bb60208201516020860152565b6101ca60408201516040860152565b6101d960608201516060860152565b6080818101516001600160a01b03169085015260a08181015115159085015201516001600160a01b0316910152565b60e0810192916100a2919061019e565b346100905761014d61023361022e366004610151565b6109dc565b60405191829182610208565b90602082820312610090576100b0916100c2565b346100905761014d61026e61026936600461023f565b6109fa565b6040519182918290815260200190565b34610090576101486102913660046100cf565b94939093929192610b5a565b34610090576101486102b03660046100cf565b94939093929192610be7565b9190604083820312610090576100b09060206102d88286610095565b9401610095565b34610090576101486102f23660046102bc565b90610e9c565b6100b0906100a4906001600160a01b031682565b6100b0906102f8565b6100b09061030c565b634e487b7160e01b600052604160045260246000fd5b90601f01601f1916810190811067ffffffffffffffff82111761035657604052565b61031e565b801515610089565b905051906100a28261035b565b90602082820312610090576100b091610363565b6040513d6000823e3d90fd5b0190565b1561039b57565b60405162461bcd60e51b8152602060048201526013602482015272135d5cdd081899481c185c9d1a58da5c185b9d606a1b6044820152606490fd5b94939291906103f56103f06000546001600160a01b031690565b610315565b95602061040160405190565b63f16dfbe960e01b815233600482015297889060249082905afa96871561046c576100a2976104389160009161043d575b50610394565b61073e565b61045f915060203d602011610465575b6104578183610334565b810190610370565b38610432565b503d61044d565b610384565b905b600052602052604060002090565b6100b09060a01c60ff1690565b6100b09054610481565b1561049f57565b60405162461bcd60e51b815260206004820152601660248201527512d95e48185b1c9958591e481c9959da5cdd195c995960521b6044820152606490fd5b156104e457565b60405162461bcd60e51b815260206004820152601660248201527543616e6e6f742072657175657374206f776e206b657960501b6044820152606490fd5b610165906001600160a01b031660601b90565b6014816105486103909360209695610522565b01918252565b6100b06100b06100b09290565b6100b09061054e565b906100a261057160405190565b9283610334565b6100b060e0610564565b6100b06060610564565b906104739061054e565b90600019905b9181191691161790565b906105b46100b06105bb9290565b8254610596565b9055565b906105b46100b06105bb9261054e565b906001600160a01b039061059c565b906105ee6100b06105bb92610315565b82546105cf565b9060ff60a01b9060a01b61059c565b906106146100b06105bb92151590565b82546105f5565b60056106bf60c06100a29461063a610634600083015190565b866105bf565b610651610648602083015190565b600187016105bf565b61066861065f604083015190565b600287016105bf565b61067f610676606083015190565b600387016105bf565b6106b1600486016106a361069d60808501516001600160a01b031690565b826105de565b60a083015115155b90610604565b01516001600160a01b031690565b91016105de565b906100a29161061b565b600261070260406100a2946106ef6106e9600083015190565b866105a6565b6106fd610648602083015190565b015190565b91016106c6565b906100a2916106d0565b6001600160a01b0390911681526060810193926100a292909160409161073a906020830152565b0152565b937fcc3b754f76b710137fc464bbebc86e795542475cf6fdac7b570c72889b9fe8639561083b61084b9261083461088e969761079561079061078c60046107868e6001610471565b0161048e565b1590565b610498565b6107cf6107b660056107a88d6001610471565b01546001600160a01b031690565b6107c8335b916001600160a01b031690565b14156104dd565b61082d6108156107de60405190565b6107fd81602081016107f1423383610535565b90810382520382610334565b61080f610808825190565b9160200190565b2061055b565b99610826610821610578565b998a52565b6020890152565b6040870152565b6060850152565b6001600160a01b03166080830152565b600060a08201523360c082015261087e610863610582565b9161086c868452565b610877426020850152565b6040830152565b61088983600361058c565b610709565b6108a461089a60405190565b9283923384610713565b0390a1565b906100a295949392916103d6565b60046107a86100b0926108c8600090565b506001610471565b6108d8610578565b906000825260208080808080808801600081520160008152016000815201600081520160008152016000905250565b6100b06108d0565b6100b09081565b6100b0905461090f565b906100a26109c36005610931610578565b9461094261093e82610916565b8752565b61095861095160018301610916565b6020880152565b61096e61096760028301610916565b6040880152565b61098461097d60038301610916565b6060880152565b6109ab61099b60048301546001600160a01b031690565b6001600160a01b03166080880152565b6107a86109ba6004830161048e565b151560a0880152565b6001600160a01b031660c0840152565b6100b090610920565b6109eb6100b0916108c8610907565b6109d3565b9061047390610315565b610a116100b091610a09600090565b5060026109f0565b610916565b9493929190610a306103f06000546001600160a01b031690565b956020610a3c60405190565b63f16dfbe960e01b815233600482015297889060249082905afa96871561046c576100a297610a729160009161043d5750610394565b610ac3565b15610a7e57565b60405162461bcd60e51b815260206004820152601a60248201527f4f6e6c79206f776e65722063616e2075706461746520646174610000000000006044820152606490fd5b9390610b22610b4e92610b1b610b5596610b146100a29a97610afd610aee60056107a88e6001610471565b610af7336107bb565b14610a77565b610b0d610b08610578565b978852565b6020870152565b6040850152565b6060830152565b6001600160a01b0383166080820152600060a08201523360c0820152610b49856001610471565b6106c6565b60026109f0565b6105a6565b906100a29594939291610a16565b9493929190610b826103f06000546001600160a01b031690565b956020610b8e60405190565b63f16dfbe960e01b815233600482015297889060249082905afa96871561046c576100a297610bc49160009161043d5750610394565b9390610b22610b4e92610b1b610b5596610b146100a29a97610b0d610b08610578565b906100a29594939291610b68565b90610c0b6103f06000546001600160a01b031690565b916020610c1760405190565b63f16dfbe960e01b815233600482015293849060249082905afa92831561046c576100a293610c4d9160009161043d5750610394565b610de7565b15610c5957565b60405162461bcd60e51b815260206004820152601d60248201527f50726f706f73616c496420646f6573206e6f74206d61746368206b65790000006044820152606490fd5b15610ca557565b60405162461bcd60e51b815260206004820152602560248201527f4f6e6c79206f776e65722063616e20617574686f72697a65206b6579207472616044820152643739b332b960d91b6064820152608490fd5b634e487b7160e01b600052601160045260246000fd5b91908201809211610d1b57565b610cf8565b15610d2757565b60405162461bcd60e51b815260206004820152601060248201526f141c9bdc1bdcd85b08195e1c1a5c995960821b6044820152606490fd5b818103610d6a575050565b60056106bf8184610d8361063460006100a29801610916565b610d9261064860018301610916565b610da161065f60028301610916565b610db061067660038301610916565b6107a8600486016106ab60048401610dd8610dd282546001600160a01b031690565b846105de565b61048e565b906100a291610d5f565b90610b55610b4e60046002610e8d6100a2966003610e1a610e136000610e0d858561058c565b01610916565b8914610c52565b610e886001610e40610e3160056107a88d85610471565b610e3a336107bb565b14610c9e565b610e6d610e66610e5483610e0d888861058c565b610e606201518061054e565b90610d0e565b4210610d20565b610e838a87610e7c878761058c565b0192610471565b610ddd565b61058c565b0101546001600160a01b031690565b906100a291610bf556fea26469706673582212207d525931209c68a868d4f23826427d112a99927dcb7bff9473239c5d61f673da64736f6c63430008190033",
  "linkReferences": {},
  "deployedLinkReferences": {}
}