{
  "_format": "hh-sol-artifact-1",
  "contractName": "SignatureSC",
  "sourceName": "contracts/demo/SignatureSC.sol",
  "abi": [
    {
      "inputs": [
        {
          "internalType": "address",
          "name": "account",
          "type": "address"
        },
        {
          "internalType": "uint256",
          "name": "amount",
          "type": "uint256"
        },
        {
          "internalType": "string",
          "name": "message",
          "type": "string"
        },
        {
          "internalType": "uint256",
          "name": "nonce",
          "type": "uint256"
        },
        {
          "internalType": "bytes",
          "name": "signature",
          "type": "bytes"
        }
      ],
      "name": "functionWithSignature",
      "outputs": [
        {
          "internalType": "address",
          "name": "",
          "type": "address"
        }
      ],
      "stateMutability": "view",
      "type": "function"
    },
    {
      "inputs": [
        {
          "internalType": "address",
          "name": "account",
          "type": "address"
        },
        {
          "internalType": "uint256",
          "name": "amount",
          "type": "uint256"
        },
        {
          "internalType": "string",
          "name": "message",
          "type": "string"
        },
        {
          "internalType": "uint256",
          "name": "nonce",
          "type": "uint256"
        }
      ],
      "name": "getEthMessageHash",
      "outputs": [
        {
          "internalType": "bytes32",
          "name": "",
          "type": "bytes32"
        }
      ],
      "stateMutability": "view",
      "type": "function"
    }
  ],
  "bytecode": "0x6080604052346019576040516104c761001f82396104c790f35b600080fdfe6080604052600436101561001257600080fd5b60003560e01c80634d54feab146100325763ce94cf6a0361004c57610248565b61018f565b90565b6001600160a01b0381165b0361004c57565b600080fd5b9050359061005e8261003a565b565b80610045565b9050359061005e82610060565b634e487b7160e01b600052604160045260246000fd5b90601f01601f1916810190811067ffffffffffffffff8211176100ab57604052565b610073565b9061005e6100bd60405190565b9283610089565b67ffffffffffffffff81116100ab57602090601f01601f19160190565b0190565b90826000939282370152565b90929192610106610101826100c4565b6100b0565b938185528183011161004c5761005e9160208501906100e5565b9080601f8301121561004c57816020610037933591016100f1565b60808183031261004c5761014f8282610051565b9261015d8360208401610066565b9260408301359067ffffffffffffffff821161004c57606061018482610037948701610120565b9401610066565b9052565b3461004c576101be6101ae6101a536600461013b565b9291909161032b565b6040519182918290815260200190565b0390f35b91909160a08184031261004c576101d98382610051565b926101e78160208401610066565b92604083013567ffffffffffffffff811161004c5782610208918501610120565b926102168360608301610066565b92608082013567ffffffffffffffff811161004c576100379201610120565b6001600160a01b03909116815260200190565b3461004c576101be61026761025e3660046101c2565b93929092610397565b60405191829182610235565b61018b906001600160a01b031660601b90565b60005b8381106102995750506000910152565b8181015183820152602001610289565b6100e16102c1926020926102bb815190565b94859290565b93849101610286565b9260206100e1936102ec6014876102e6859a996102f398610273565b01918252565b01906102a9565b918252565b906100e16102f36020937f19457468657265756d205369676e6564204d6573736167653a0a3332000000008152601c0190565b61034d610359939461033b600090565b506040519586946020860194856102ca565b90810382520382610089565b61036b610364825190565b9160200190565b2061038861037860405190565b809261034d6020830191826102f8565b610393610364825190565b2090565b906103ac9161034d610037969561033b600090565b6103b7610364825190565b206103c461037860405190565b6103cf610364825190565b20610429565b6100376100376100379290565b1561004c57565b61041961005e94610412606094989795610408608086019a6000870152565b60ff166020850152565b6040830152565b0152565b6040513d6000823e3d90fd5b60209160009161045161043a835190565b61044b61044760416103d5565b9190565b146103e2565b610478848301519260606040820151910151851a9361046f60405190565b948594856103e9565b838052039060015afa1561048c5760005190565b61041d56fea264697066735822122052f072fd0317538d2e66ac232e8c14a44439ca2789df78a2a2a8a5a9ff589de464736f6c63430008190033",
  "linkReferences": {},
  "deployedLinkReferences": {}
}