{
  "_format": "hh-sol-artifact-1",
  "contractName": "TPFt",
  "sourceName": "contracts/drex-connect/TPFt.sol",
  "abi": [
    {
      "inputs": [],
      "stateMutability": "nonpayable",
      "type": "constructor"
    },
    {
      "anonymous": false,
      "inputs": [
        {
          "indexed": true,
          "internalType": "address",
          "name": "account",
          "type": "address"
        },
        {
          "indexed": true,
          "internalType": "address",
          "name": "operator",
          "type": "address"
        },
        {
          "indexed": false,
          "internalType": "bool",
          "name": "approved",
          "type": "bool"
        }
      ],
      "name": "ApprovalForAll",
      "type": "event"
    },
    {
      "anonymous": false,
      "inputs": [
        {
          "indexed": true,
          "internalType": "address",
          "name": "from",
          "type": "address"
        },
        {
          "indexed": false,
          "internalType": "uint256",
          "name": "balance",
          "type": "uint256"
        }
      ],
      "name": "FrozenBalance",
      "type": "event"
    },
    {
      "anonymous": false,
      "inputs": [
        {
          "indexed": false,
          "internalType": "address",
          "name": "account",
          "type": "address"
        }
      ],
      "name": "Paused",
      "type": "event"
    },
    {
      "anonymous": false,
      "inputs": [
        {
          "indexed": true,
          "internalType": "bytes32",
          "name": "role",
          "type": "bytes32"
        },
        {
          "indexed": true,
          "internalType": "bytes32",
          "name": "previousAdminRole",
          "type": "bytes32"
        },
        {
          "indexed": true,
          "internalType": "bytes32",
          "name": "newAdminRole",
          "type": "bytes32"
        }
      ],
      "name": "RoleAdminChanged",
      "type": "event"
    },
    {
      "anonymous": false,
      "inputs": [
        {
          "indexed": true,
          "internalType": "bytes32",
          "name": "role",
          "type": "bytes32"
        },
        {
          "indexed": true,
          "internalType": "address",
          "name": "account",
          "type": "address"
        },
        {
          "indexed": true,
          "internalType": "address",
          "name": "sender",
          "type": "address"
        }
      ],
      "name": "RoleGranted",
      "type": "event"
    },
    {
      "anonymous": false,
      "inputs": [
        {
          "indexed": true,
          "internalType": "bytes32",
          "name": "role",
          "type": "bytes32"
        },
        {
          "indexed": true,
          "internalType": "address",
          "name": "account",
          "type": "address"
        },
        {
          "indexed": true,
          "internalType": "address",
          "name": "sender",
          "type": "address"
        }
      ],
      "name": "RoleRevoked",
      "type": "event"
    },
    {
      "anonymous": false,
      "inputs": [
        {
          "indexed": true,
          "internalType": "address",
          "name": "operator",
          "type": "address"
        },
        {
          "indexed": true,
          "internalType": "address",
          "name": "from",
          "type": "address"
        },
        {
          "indexed": true,
          "internalType": "address",
          "name": "to",
          "type": "address"
        },
        {
          "indexed": false,
          "internalType": "uint256[]",
          "name": "ids",
          "type": "uint256[]"
        },
        {
          "indexed": false,
          "internalType": "uint256[]",
          "name": "values",
          "type": "uint256[]"
        }
      ],
      "name": "TransferBatch",
      "type": "event"
    },
    {
      "anonymous": false,
      "inputs": [
        {
          "indexed": true,
          "internalType": "address",
          "name": "operator",
          "type": "address"
        },
        {
          "indexed": true,
          "internalType": "address",
          "name": "from",
          "type": "address"
        },
        {
          "indexed": true,
          "internalType": "address",
          "name": "to",
          "type": "address"
        },
        {
          "indexed": false,
          "internalType": "uint256",
          "name": "id",
          "type": "uint256"
        },
        {
          "indexed": false,
          "internalType": "uint256",
          "name": "value",
          "type": "uint256"
        }
      ],
      "name": "TransferSingle",
      "type": "event"
    },
    {
      "anonymous": false,
      "inputs": [
        {
          "indexed": false,
          "internalType": "string",
          "name": "value",
          "type": "string"
        },
        {
          "indexed": true,
          "internalType": "uint256",
          "name": "id",
          "type": "uint256"
        }
      ],
      "name": "URI",
      "type": "event"
    },
    {
      "anonymous": false,
      "inputs": [
        {
          "indexed": false,
          "internalType": "address",
          "name": "account",
          "type": "address"
        }
      ],
      "name": "Unpaused",
      "type": "event"
    },
    {
      "inputs": [],
      "name": "AUCTION_PLACEMENT_ROLE",
      "outputs": [
        {
          "internalType": "bytes32",
          "name": "",
          "type": "bytes32"
        }
      ],
      "stateMutability": "view",
      "type": "function"
    },
    {
      "inputs": [],
      "name": "DEFAULT_ADMIN_ROLE",
      "outputs": [
        {
          "internalType": "bytes32",
          "name": "",
          "type": "bytes32"
        }
      ],
      "stateMutability": "view",
      "type": "function"
    },
    {
      "inputs": [],
      "name": "DIRECT_PLACEMENT_ROLE",
      "outputs": [
        {
          "internalType": "bytes32",
          "name": "",
          "type": "bytes32"
        }
      ],
      "stateMutability": "view",
      "type": "function"
    },
    {
      "inputs": [],
      "name": "FREEZER_ROLE",
      "outputs": [
        {
          "internalType": "bytes32",
          "name": "",
          "type": "bytes32"
        }
      ],
      "stateMutability": "view",
      "type": "function"
    },
    {
      "inputs": [],
      "name": "MINTER_ROLE",
      "outputs": [
        {
          "internalType": "bytes32",
          "name": "",
          "type": "bytes32"
        }
      ],
      "stateMutability": "view",
      "type": "function"
    },
    {
      "inputs": [
        {
          "internalType": "address",
          "name": "member",
          "type": "address"
        }
      ],
      "name": "allowAuctionPlacement",
      "outputs": [],
      "stateMutability": "nonpayable",
      "type": "function"
    },
    {
      "inputs": [
        {
          "internalType": "address",
          "name": "member",
          "type": "address"
        }
      ],
      "name": "allowDirectPlacement",
      "outputs": [],
      "stateMutability": "nonpayable",
      "type": "function"
    },
    {
      "inputs": [
        {
          "internalType": "address",
          "name": "member",
          "type": "address"
        }
      ],
      "name": "allowFreezingPlacement",
      "outputs": [],
      "stateMutability": "nonpayable",
      "type": "function"
    },
    {
      "inputs": [
        {
          "internalType": "address",
          "name": "member",
          "type": "address"
        }
      ],
      "name": "allowTPFtMint",
      "outputs": [],
      "stateMutability": "nonpayable",
      "type": "function"
    },
    {
      "inputs": [
        {
          "internalType": "address",
          "name": "account",
          "type": "address"
        },
        {
          "internalType": "uint256",
          "name": "id",
          "type": "uint256"
        }
      ],
      "name": "balanceOf",
      "outputs": [
        {
          "internalType": "uint256",
          "name": "",
          "type": "uint256"
        }
      ],
      "stateMutability": "view",
      "type": "function"
    },
    {
      "inputs": [
        {
          "internalType": "address[]",
          "name": "accounts",
          "type": "address[]"
        },
        {
          "internalType": "uint256[]",
          "name": "ids",
          "type": "uint256[]"
        }
      ],
      "name": "balanceOfBatch",
      "outputs": [
        {
          "internalType": "uint256[]",
          "name": "",
          "type": "uint256[]"
        }
      ],
      "stateMutability": "view",
      "type": "function"
    },
    {
      "inputs": [
        {
          "internalType": "uint256",
          "name": "id",
          "type": "uint256"
        },
        {
          "internalType": "uint256",
          "name": "amount",
          "type": "uint256"
        }
      ],
      "name": "burn1155",
      "outputs": [],
      "stateMutability": "nonpayable",
      "type": "function"
    },
    {
      "inputs": [
        {
          "components": [
            {
              "internalType": "string",
              "name": "acronym",
              "type": "string"
            },
            {
              "internalType": "string",
              "name": "code",
              "type": "string"
            },
            {
              "internalType": "uint256",
              "name": "maturityDate",
              "type": "uint256"
            }
          ],
          "internalType": "struct ITPFt.TPFtData",
          "name": "tpftData",
          "type": "tuple"
        }
      ],
      "name": "createTPFt",
      "outputs": [],
      "stateMutability": "nonpayable",
      "type": "function"
    },
    {
      "inputs": [
        {
          "internalType": "address",
          "name": "from",
          "type": "address"
        },
        {
          "components": [
            {
              "internalType": "string",
              "name": "acronym",
              "type": "string"
            },
            {
              "internalType": "string",
              "name": "code",
              "type": "string"
            },
            {
              "internalType": "uint256",
              "name": "maturityDate",
              "type": "uint256"
            }
          ],
          "internalType": "struct ITPFt.TPFtData",
          "name": "tpftData",
          "type": "tuple"
        },
        {
          "internalType": "uint256",
          "name": "tpftAmount",
          "type": "uint256"
        }
      ],
      "name": "decreaseFrozenBalance",
      "outputs": [],
      "stateMutability": "nonpayable",
      "type": "function"
    },
    {
      "inputs": [
        {
          "internalType": "address",
          "name": "from",
          "type": "address"
        },
        {
          "internalType": "address",
          "name": "to",
          "type": "address"
        },
        {
          "components": [
            {
              "internalType": "string",
              "name": "acronym",
              "type": "string"
            },
            {
              "internalType": "string",
              "name": "code",
              "type": "string"
            },
            {
              "internalType": "uint256",
              "name": "maturityDate",
              "type": "uint256"
            }
          ],
          "internalType": "struct ITPFt.TPFtData",
          "name": "tpftData",
          "type": "tuple"
        },
        {
          "internalType": "uint256",
          "name": "tpftAmount",
          "type": "uint256"
        }
      ],
      "name": "directPlacement",
      "outputs": [],
      "stateMutability": "nonpayable",
      "type": "function"
    },
    {
      "inputs": [
        {
          "internalType": "address",
          "name": "member",
          "type": "address"
        }
      ],
      "name": "disableAddress",
      "outputs": [],
      "stateMutability": "nonpayable",
      "type": "function"
    },
    {
      "inputs": [
        {
          "internalType": "address",
          "name": "member",
          "type": "address"
        }
      ],
      "name": "enableAddress",
      "outputs": [],
      "stateMutability": "nonpayable",
      "type": "function"
    },
    {
      "inputs": [
        {
          "internalType": "bytes32",
          "name": "role",
          "type": "bytes32"
        }
      ],
      "name": "getRoleAdmin",
      "outputs": [
        {
          "internalType": "bytes32",
          "name": "",
          "type": "bytes32"
        }
      ],
      "stateMutability": "view",
      "type": "function"
    },
    {
      "inputs": [
        {
          "components": [
            {
              "internalType": "string",
              "name": "acronym",
              "type": "string"
            },
            {
              "internalType": "string",
              "name": "code",
              "type": "string"
            },
            {
              "internalType": "uint256",
              "name": "maturityDate",
              "type": "uint256"
            }
          ],
          "internalType": "struct ITPFt.TPFtData",
          "name": "tpftData",
          "type": "tuple"
        }
      ],
      "name": "getTPFtId",
      "outputs": [
        {
          "internalType": "uint256",
          "name": "",
          "type": "uint256"
        }
      ],
      "stateMutability": "view",
      "type": "function"
    },
    {
      "inputs": [
        {
          "internalType": "address",
          "name": "account",
          "type": "address"
        }
      ],
      "name": "grantAdminRole",
      "outputs": [],
      "stateMutability": "nonpayable",
      "type": "function"
    },
    {
      "inputs": [
        {
          "internalType": "bytes32",
          "name": "role",
          "type": "bytes32"
        },
        {
          "internalType": "address",
          "name": "account",
          "type": "address"
        }
      ],
      "name": "grantRole",
      "outputs": [],
      "stateMutability": "nonpayable",
      "type": "function"
    },
    {
      "inputs": [
        {
          "internalType": "bytes32",
          "name": "role",
          "type": "bytes32"
        },
        {
          "internalType": "address",
          "name": "account",
          "type": "address"
        }
      ],
      "name": "hasRole",
      "outputs": [
        {
          "internalType": "bool",
          "name": "",
          "type": "bool"
        }
      ],
      "stateMutability": "view",
      "type": "function"
    },
    {
      "inputs": [
        {
          "internalType": "address",
          "name": "from",
          "type": "address"
        },
        {
          "components": [
            {
              "internalType": "string",
              "name": "acronym",
              "type": "string"
            },
            {
              "internalType": "string",
              "name": "code",
              "type": "string"
            },
            {
              "internalType": "uint256",
              "name": "maturityDate",
              "type": "uint256"
            }
          ],
          "internalType": "struct ITPFt.TPFtData",
          "name": "tpftData",
          "type": "tuple"
        },
        {
          "internalType": "uint256",
          "name": "tpftAmount",
          "type": "uint256"
        }
      ],
      "name": "increaseFrozenBalance",
      "outputs": [],
      "stateMutability": "nonpayable",
      "type": "function"
    },
    {
      "inputs": [
        {
          "internalType": "address",
          "name": "account",
          "type": "address"
        },
        {
          "internalType": "address",
          "name": "operator",
          "type": "address"
        }
      ],
      "name": "isApprovedForAll",
      "outputs": [
        {
          "internalType": "bool",
          "name": "",
          "type": "bool"
        }
      ],
      "stateMutability": "view",
      "type": "function"
    },
    {
      "inputs": [
        {
          "internalType": "address",
          "name": "member",
          "type": "address"
        }
      ],
      "name": "isEnabledAddress",
      "outputs": [
        {
          "internalType": "bool",
          "name": "",
          "type": "bool"
        }
      ],
      "stateMutability": "view",
      "type": "function"
    },
    {
      "inputs": [
        {
          "internalType": "address",
          "name": "receiverAddress",
          "type": "address"
        },
        {
          "components": [
            {
              "internalType": "string",
              "name": "acronym",
              "type": "string"
            },
            {
              "internalType": "string",
              "name": "code",
              "type": "string"
            },
            {
              "internalType": "uint256",
              "name": "maturityDate",
              "type": "uint256"
            }
          ],
          "internalType": "struct ITPFt.TPFtData",
          "name": "tpftData",
          "type": "tuple"
        },
        {
          "internalType": "uint256",
          "name": "tpftAmount",
          "type": "uint256"
        }
      ],
      "name": "mint",
      "outputs": [],
      "stateMutability": "nonpayable",
      "type": "function"
    },
    {
      "inputs": [
        {
          "internalType": "address",
          "name": "to",
          "type": "address"
        },
        {
          "internalType": "uint256",
          "name": "id",
          "type": "uint256"
        },
        {
          "internalType": "uint256",
          "name": "amount",
          "type": "uint256"
        }
      ],
      "name": "mint1155",
      "outputs": [],
      "stateMutability": "nonpayable",
      "type": "function"
    },
    {
      "inputs": [],
      "name": "pause",
      "outputs": [],
      "stateMutability": "nonpayable",
      "type": "function"
    },
    {
      "inputs": [],
      "name": "paused",
      "outputs": [
        {
          "internalType": "bool",
          "name": "",
          "type": "bool"
        }
      ],
      "stateMutability": "view",
      "type": "function"
    },
    {
      "inputs": [
        {
          "internalType": "bytes32",
          "name": "role",
          "type": "bytes32"
        },
        {
          "internalType": "address",
          "name": "account",
          "type": "address"
        }
      ],
      "name": "renounceRole",
      "outputs": [],
      "stateMutability": "nonpayable",
      "type": "function"
    },
    {
      "inputs": [
        {
          "internalType": "bytes32",
          "name": "role",
          "type": "bytes32"
        },
        {
          "internalType": "address",
          "name": "account",
          "type": "address"
        }
      ],
      "name": "revokeRole",
      "outputs": [],
      "stateMutability": "nonpayable",
      "type": "function"
    },
    {
      "inputs": [
        {
          "internalType": "address",
          "name": "caller",
          "type": "address"
        },
        {
          "internalType": "address",
          "name": "account",
          "type": "address"
        },
        {
          "internalType": "uint256",
          "name": "id",
          "type": "uint256"
        }
      ],
      "name": "safeBalanceOf",
      "outputs": [
        {
          "internalType": "uint256",
          "name": "",
          "type": "uint256"
        }
      ],
      "stateMutability": "view",
      "type": "function"
    },
    {
      "inputs": [
        {
          "internalType": "address",
          "name": "from",
          "type": "address"
        },
        {
          "internalType": "address",
          "name": "to",
          "type": "address"
        },
        {
          "internalType": "uint256[]",
          "name": "ids",
          "type": "uint256[]"
        },
        {
          "internalType": "uint256[]",
          "name": "amounts",
          "type": "uint256[]"
        },
        {
          "internalType": "bytes",
          "name": "data",
          "type": "bytes"
        }
      ],
      "name": "safeBatchTransferFrom",
      "outputs": [],
      "stateMutability": "nonpayable",
      "type": "function"
    },
    {
      "inputs": [
        {
          "internalType": "address",
          "name": "from",
          "type": "address"
        },
        {
          "internalType": "address",
          "name": "to",
          "type": "address"
        },
        {
          "internalType": "uint256",
          "name": "id",
          "type": "uint256"
        },
        {
          "internalType": "uint256",
          "name": "amount",
          "type": "uint256"
        },
        {
          "internalType": "bytes",
          "name": "data",
          "type": "bytes"
        }
      ],
      "name": "safeTransferFrom",
      "outputs": [],
      "stateMutability": "nonpayable",
      "type": "function"
    },
    {
      "inputs": [
        {
          "internalType": "address",
          "name": "operator",
          "type": "address"
        },
        {
          "internalType": "bool",
          "name": "approved",
          "type": "bool"
        }
      ],
      "name": "setApprovalForAll",
      "outputs": [],
      "stateMutability": "nonpayable",
      "type": "function"
    },
    {
      "inputs": [
        {
          "internalType": "bytes4",
          "name": "interfaceId",
          "type": "bytes4"
        }
      ],
      "name": "supportsInterface",
      "outputs": [
        {
          "internalType": "bool",
          "name": "",
          "type": "bool"
        }
      ],
      "stateMutability": "view",
      "type": "function"
    },
    {
      "inputs": [
        {
          "internalType": "address",
          "name": "to",
          "type": "address"
        },
        {
          "internalType": "uint256",
          "name": "id",
          "type": "uint256"
        },
        {
          "internalType": "uint256",
          "name": "amount",
          "type": "uint256"
        }
      ],
      "name": "transfer1155",
      "outputs": [
        {
          "internalType": "bool",
          "name": "",
          "type": "bool"
        }
      ],
      "stateMutability": "nonpayable",
      "type": "function"
    },
    {
      "inputs": [
        {
          "internalType": "address",
          "name": "from",
          "type": "address"
        },
        {
          "internalType": "address",
          "name": "to",
          "type": "address"
        },
        {
          "internalType": "uint256",
          "name": "id",
          "type": "uint256"
        },
        {
          "internalType": "uint256",
          "name": "amount",
          "type": "uint256"
        }
      ],
      "name": "transferFrom1155",
      "outputs": [
        {
          "internalType": "bool",
          "name": "",
          "type": "bool"
        }
      ],
      "stateMutability": "nonpayable",
      "type": "function"
    },
    {
      "inputs": [],
      "name": "unpause",
      "outputs": [],
      "stateMutability": "nonpayable",
      "type": "function"
    },
    {
      "inputs": [
        {
          "internalType": "uint256",
          "name": "",
          "type": "uint256"
        }
      ],
      "name": "uri",
      "outputs": [
        {
          "internalType": "string",
          "name": "",
          "type": "string"
        }
      ],
      "stateMutability": "view",
      "type": "function"
    }
  ],
  "bytecode": "0x6080604052346100225761001161013a565b604051612f696104708239612f6990f35b600080fd5b634e487b7160e01b600052604160045260246000fd5b90601f01601f191681019081106001600160401b0382111761005e57604052565b610027565b9061007761007060405190565b928361003d565b565b6001600160401b03811161005e57602090601f01601f19160190565b906100a76100a283610079565b610063565b918252565b6100b66025610095565b7f68747470733a2f2f6d796170692e636f6d2f6170692f746f6b656e2f7b69647d602082015264173539b7b760d91b604082015290565b6100f56100ac565b90565b90600019905b9181191691161790565b6100f56100f56100f59290565b906101256100f561012c92610108565b82546100f8565b9055565b6100f56000610108565b61014a6101456100ed565b610188565b61015660016008610115565b610077610161610130565b33906101fa565b9060ff906100fe565b906101816100f561012c92151590565b8254610168565b6101919061019d565b61007760006005610171565b610156906100779061007790610440565b905b600052602052604060002090565b6100f5906101d2906001600160a01b031682565b6001600160a01b031690565b6100f5906101be565b6100f5906101de565b906101b0906101e7565b61020b610207838361044b565b1590565b610213575050565b610234600161022f8460006102298660036101ae565b016101f0565b610171565b61024e610248610242339390565b936101e7565b916101e7565b917f2f8788117e7eff1d82e926ec794901d17c78024a50270940304540a733656f0d61027960405190565b600090a4565b634e487b7160e01b600052602260045260246000fd5b90600160028304921680156102b5575b60208310146102b057565b61027f565b91607f16916102a5565b9160001960089290920291821b911b6100fe565b91906102e46100f561012c93610108565b9083546102bf565b610077916000916102d3565b818110610303575050565b8061031160006001936102ec565b016102f8565b9190601f811161032657505050565b61033861007793600052602060002090565b906020601f84018190048301931061035a575b6020601f9091010401906102f8565b909150819061034b565b9061036d815190565b906001600160401b03821161005e576103908261038a8554610295565b85610317565b602090601f83116001146103cb5761012c9291600091836103c0575b5050600019600883021c1916906002021790565b0151905038806103ac565b601f198316916103e085600052602060002090565b9260005b81811061041e57509160029391856001969410610405575b50505002019055565b01516000196008601f8516021c191690553880806103fc565b919360206001819287870151815501950192016103e4565b9061007791610364565b610077906002610436565b6100f591600061022961046893610460600090565b5060036101ae565b5460ff169056fe6080604052600436101561001257600080fd5b60003560e01c8062fdd58e1461029157806301ffc9a71461028c57806306a85f0f146102875780630e89341c146102825780631a71a44c1461027d5780632365a35e14610278578063248a9ca3146102735780632eb2c2d61461026e5780632f2ff15d1461026957806336568abe146102645780633b2605631461025f5780633f4ba83a1461025a578063433e1489146102555780634e1273f4146102505780635036258b1461024b57806350d4bb2b146102465780635c975abb146102415780635f9e640f1461023c57806370093bb0146102375780638456cb591461023257806386e36b1b1461022d57806391d14854146102285780639eefdd8714610223578063a217fddf1461021e578063a22cb46514610219578063b9ca482114610214578063c634b78e1461020f578063c64200b21461020a578063cc8f079514610205578063cdb7c81d14610200578063d2bd0e12146101fb578063d5391393146101f6578063d547741f146101f1578063d68756a8146101ec578063dabd0504146101e7578063e29874b7146101e2578063e8d5a48a146101dd578063e985e9c5146101d8578063f242432a146101d35763fa279caa036102b757610dd0565b610db4565b610d57565b610d20565b610d08565b610cef565b610cba565b610ca1565b610c7a565b610c62565b610c46565b610c05565b610be6565b610b99565b610b60565b610b47565b610af4565b610abd565b610aa1565b610a86565b610a49565b610a2d565b6109cd565b6109b2565b610996565b610955565b61092d565b6107fe565b6107e6565b6107ad565b610794565b61077b565b61073c565b61061f565b610607565b6105d5565b610443565b61039c565b610363565b610301565b6001600160a01b031690565b90565b6001600160a01b0381165b036102b757565b600080fd5b905035906102c9826102a5565b565b806102b0565b905035906102c9826102cb565b91906040838203126102b7576102a29060206102fa82866102bc565b94016102d1565b346102b75761032e61031d6103173660046102de565b90610e73565b6040515b9182918290815260200190565b0390f35b6001600160e01b031981166102b0565b905035906102c982610332565b906020828203126102b7576102a291610342565b346102b75761032e61037e61037936600461034f565b610e7f565b6040515b91829182901515815260200190565b60009103126102b757565b346102b7576103ac366004610391565b61032e600080516020612ef483398151915261031d565b906020828203126102b7576102a2916102d1565b60005b8381106103ea5750506000910152565b81810151838201526020016103da565b61041b61042460209361042e9361040f815190565b80835293849260200190565b958691016103d7565b601f01601f191690565b0190565b60208082526102a2929101906103fa565b346102b75761032e61045e6104593660046103c3565b610f80565b60405191829182610432565b634e487b7160e01b600052604160045260246000fd5b90601f01601f191681019081106001600160401b038211176104a157604052565b61046a565b906102c96104b360405190565b9283610480565b6001600160401b0381116104a157602090601f01601f19160190565b90826000939282370152565b909291926104f76104f2826104ba565b6104a6565b93818552818301116102b7576102c99160208501906104d6565b9080601f830112156102b7578160206102a2933591016104e2565b9190916060818403126102b75761054360606104a6565b9281356001600160401b0381116102b75781610560918401610511565b845260208201356001600160401b0381116102b75782610587836040936105929601610511565b6020870152016102d1565b6040830152565b90916060828403126102b7576105af83836102bc565b926020830135906001600160401b0382116102b75760406102fa826102a294870161052c565b346102b7576105ee6105e8366004610599565b916111e4565b604051005b906020828203126102b7576102a2916102bc565b346102b7576105ee61061a3660046105f3565b611259565b346102b75761032e61031d6106353660046103c3565b61129c565b6001600160401b0381116104a15760208091020190565b909291926106616104f28261063a565b93818552602080860192028301928184116102b757915b8383106106855750505050565b6020809161069384866102d1565b815201920191610678565b9080601f830112156102b7578160206102a293359101610651565b91909160a0818403126102b7576106d083826102bc565b926106de81602084016102bc565b9260408301356001600160401b0381116102b757826106fe91850161069e565b9260608101356001600160401b0381116102b7578361071e91830161069e565b9260808201356001600160401b0381116102b7576102a29201610511565b346102b7576105ee61074f3660046106b9565b9392909261131e565b91906040838203126102b7576102a290602061077482866102d1565b94016102bc565b346102b7576105ee61078e366004610758565b9061137f565b346102b7576105ee6107a7366004610758565b906113ed565b346102b7576107bd366004610391565b61032e7fda77f6231fec42b4d28b0cb4169b6957269348cad2424fc7119fb6ab7cf4f0f061031d565b346102b7576107f6366004610391565b6105ee611429565b346102b7576105ee610811366004610599565b9161156b565b909291926108276104f28261063a565b93818552602080860192028301928184116102b757915b83831061084b5750505050565b6020809161085984866102bc565b81520192019161083e565b9080601f830112156102b7578160206102a293359101610817565b9190916040818403126102b75780356001600160401b0381116102b757836108a8918301610864565b9260208201356001600160401b0381116102b7576102a2920161069e565b906108e66108df6108d5845190565b8084529260200190565b9260200190565b9060005b8181106108f75750505090565b90919261091461090d6001928651815260200190565b9460200190565b9291016108ea565b60208082526102a2929101906108c6565b346102b75761032e61094961094336600461087f565b9061163e565b6040519182918261091c565b346102b7576105ee6109683660046105f3565b611778565b90916060828403126102b7576102a261098684846102bc565b9360406102fa82602087016102bc565b346102b75761032e61031d6109ac36600461096d565b916117ef565b346102b7576109c2366004610391565b61032e61037e611811565b346102b7576105ee6109e03660046105f3565b61187a565b6080818303126102b7576109f982826102bc565b92610a0783602084016102bc565b926040830135906001600160401b0382116102b75760606102fa826102a294870161052c565b346102b7576105ee610a403660046109e5565b92919091611908565b346102b757610a59366004610391565b6105ee61192a565b906020828203126102b75781356001600160401b0381116102b7576102a2920161052c565b346102b75761032e61031d610a9c366004610a61565b611932565b346102b75761032e61037e610ab7366004610758565b9061193b565b346102b7576105ee610ad03660046105f3565b6119d6565b6102a26102a26102a29290565b6102a26000610ad5565b6102a2610ae2565b346102b757610b04366004610391565b61032e61031d610aec565b8015156102b0565b905035906102c982610b0f565b91906040838203126102b7576102a2906020610b4082866102bc565b9401610b17565b346102b7576105ee610b5a366004610b24565b906119f7565b346102b757610b70366004610391565b61032e7f95879078ac5f9ef2655935a8a313c87a55cd3739fa85c7b76890b7dbcd26b36b61031d565b346102b7576105ee610bac3660046105f3565b611a22565b6080818303126102b757610bc582826102bc565b926102a2610bd684602085016102bc565b9360606102fa82604087016102d1565b346102b75761032e61037e610bfc366004610bb1565b92919091611a2b565b346102b7576105ee610c183660046105f3565b611aad565b90916060828403126102b7576102a2610c3684846102bc565b9360406102fa82602087016102d1565b346102b75761032e61037e610c5c366004610c1d565b91611ad8565b346102b7576105ee610c75366004610a61565b611c43565b346102b757610c8a366004610391565b61032e600080516020612f1483398151915261031d565b346102b7576105ee610cb4366004610758565b90611c67565b346102b7576105ee610ccd366004610599565b91611cc5565b91906040838203126102b7576102a29060206102fa82866102d1565b346102b7576105ee610d02366004610cd3565b90611cd0565b346102b7576105ee610d1b3660046105f3565b611d44565b346102b75761032e61037e610d363660046105f3565b611d81565b91906040838203126102b7576102a290602061077482866102bc565b346102b75761032e61037e610d6d366004610d3b565b90611d98565b91909160a0818403126102b757610d8a83826102bc565b92610d9881602084016102bc565b92610da682604085016102d1565b9261071e83606083016102d1565b346102b7576105ee610dc7366004610d73565b93929092611db3565b346102b7576105ee610de3366004610c1d565b91611dc9565b15610df057565b60405162461bcd60e51b815260206004820152600d60248201526c1058d8d95cdcc819195b9a5959609a1b6044820152606490fd5b0390fd5b906102a29291610e41610e3a610ae2565b339061193b565b8015610e56575b610e5190610de9565b610e68565b50336001600160a01b03831614610e48565b506102a29190611e56565b6102a291906000610e29565b6102a290611e92565b634e487b7160e01b600052602260045260246000fd5b9060016002830492168015610ebe575b6020831014610eb957565b610e88565b91607f1691610eae565b80546000939291610ee5610edb83610e9e565b8085529360200190565b9160018116908115610f375750600114610efe57505050565b610f119192939450600052602060002090565b916000925b818410610f235750500190565b805484840152602090930192600101610f16565b92949550505060ff1916825215156020020190565b906102a291610ec8565b906102c9610f7092610f6760405190565b93848092610f4c565b0383610480565b6102a290610f56565b506102a26002610f77565b6102c9929190610fad600080516020612ef4833981519152611ebb565b611ebb565b61111b565b15610fb957565b60405162461bcd60e51b81526020600482015260136024820152721514119d08191bd95cc81b9bdd08195e1a5cdd606a1b6044820152606490fd5b6102a290610296906001600160a01b031682565b6102a290610ff4565b6102a290611008565b9061102490611011565b600052602052604060002090565b6102a29081565b6102a29054611032565b634e487b7160e01b600052601160045260246000fd5b9190820180921161106657565b611043565b90600019905b9181191691161790565b9061108b6102a261109292610ad5565b825461106b565b9055565b1561109d57565b60405162461bcd60e51b815260206004820152602c60248201527f455243313135355061757361626c653a20746f6b656e207472616e736665722060448201526b1dda1a5b19481c185d5cd95960a21b6064820152608490fd5b906111046104f2836104ba565b918252565b6102a260006110f7565b6102a2611109565b9161112861119592611ec6565b9061113f6111366000610ad5565b835b1415610fb2565b61116561114d85600661101a565b61115f8361115a83611039565b611059565b9061107b565b61117c611177611173611811565b1590565b611096565b61118530611011565b9161118e611113565b9285611db3565b7fd2dc74064ce9979876047afc7922931592038bce8a7fbaf28417799c138e4e4d6111df6111d56111cf6111ca85600661101a565b611039565b93611011565b9261032160405190565b0390a2565b906102c99291610f8b565b156111f657565b60405162461bcd60e51b815260206004820152603560248201527f4d75737420686176652061646d696e20726f6c6520746f2061737369676e2061604482015274756374696f6e20706c6163656d656e7420726f6c6560581b6064820152608490fd5b6102c99061127061126b610e3a610ae2565b6111ef565b7fda77f6231fec42b4d28b0cb4169b6957269348cad2424fc7119fb6ab7cf4f0f061137f565b90611024565b60016112b56102a2926112ad600090565b506003611296565b01611039565b156112c257565b60405162461bcd60e51b815260206004820152602e60248201527f455243313135353a2063616c6c6572206973206e6f7420746f6b656e206f776e60448201526d195c881bdc88185c1c1c9bdd995960921b6064820152608490fd5b6102c9949392919061134e335b6001600160a01b0381166001600160a01b03841614908115611353575b506112bb565b61203d565b61135e915083611d98565b38611348565b906102c991611375610fa88261129c565b906102c991612182565b906102c991611364565b1561139057565b60405162461bcd60e51b815260206004820152602f60248201527f416363657373436f6e74726f6c3a2063616e206f6e6c792072656e6f756e636560448201526e103937b632b9903337b91039b2b63360891b6064820152608490fd5b6102c9919061140e6113fe33610296565b6001600160a01b03841614611389565b6121f2565b61141e610fa8610ae2565b6102c96102c96122ae565b6102c9611413565b6102c992919061144e600080516020612ef4833981519152611ebb565b6114ac565b1561145a57565b60405162461bcd60e51b815260206004820152601960248201527f4e6f7420656e6f7567682066726f7a656e2062616c616e6365000000000000006044820152606490fd5b9190820391821161106657565b916111d56111cf6111ca856111df946115666114e87fd2dc74064ce9979876047afc7922931592038bce8a7fbaf28417799c138e4e4d98611ec6565b6114fb6114f56000610ad5565b82611138565b60069261152061150e6111ca878761101a565b8290611519565b9190565b1015611453565b61153f61152d868661101a565b61115f8361153a83611039565b61149f565b61154d611177611173611811565b61155630611011565b9185611560611113565b93611db3565b61101a565b906102c99291611431565b1561157d57565b60405162461bcd60e51b815260206004820152602960248201527f455243313135353a206163636f756e747320616e6420696473206c656e677468604482015268040dad2e6dac2e8c6d60bb1b6064820152608490fd5b906111046104f28361063a565b369037565b906102c96115fc6115f6846115d4565b9361063a565b601f1901602084016115e1565b634e487b7160e01b600052603260045260246000fd5b90611628825190565b811015611639576020809102010190565b611609565b9061165e61164a835190565b6116586115156102a2855190565b14611576565b61166e611669835190565b6115e6565b916116796000610ad5565b6116846102a2835190565b8110156116d857806116cd6116c06116af6116a26116d3958761161f565b516001600160a01b031690565b6103176116bc858961161f565b5190565b6116ca838861161f565b52565b60010190565b611679565b50505090565b156116e557565b60405162461bcd60e51b815260206004820152602760248201527f4d75737420686176652061646d696e20726f6c6520746f2064697361626c65206044820152666164647265737360c81b6064820152608490fd5b9190600861107191029161174e60ff841b90565b921b90565b91906117646102a261109293151590565b90835461173a565b6102c991600091611753565b600061179b6102c99261179461178f610e3a610ae2565b6116de565b600461101a565b61176c565b906102a29392916117b8826117b3610ae2565b61193b565b80156117cd575b6117c890610de9565b6117e2565b506001600160a01b03828116908416146117bf565b6102a29392915050611e56565b6102a292919060006117a0565b6102a2905b60ff1690565b6102a290546117fc565b6102a26005611807565b1561182257565b60405162461bcd60e51b815260206004820152602a60248201527f4d75737420686176652061646d696e20726f6c6520746f2061737369676e206d604482015269696e74657220726f6c6560b01b6064820152608490fd5b6102c99061189161188c610e3a610ae2565b61181b565b600080516020612f1483398151915261137f565b6102c9939291906118d57f95879078ac5f9ef2655935a8a313c87a55cd3739fa85c7b76890b7dbcd26b36b611ebb565b91906118e46102c99492611ec6565b906118f26111366000610ad5565b611900611177611173611811565b611560611113565b906102c99392916118a5565b61191f610fa8610ae2565b6102c96102c96122f7565b6102c9611914565b6102a290611ec6565b6102a2916000611950611956936112ad600090565b0161101a565b611807565b1561196257565b60405162461bcd60e51b815260206004820152602660248201527f4d75737420686176652061646d696e20726f6c6520746f20656e61626c65206160448201526564647265737360d01b6064820152608490fd5b9060ff90611071565b906119cf6102a261109292151590565b82546119b6565b60016119f26102c9926117946119ed610e3a610ae2565b61195b565b6119bf565b6102c991903361235d565b6102c990611a11610fa8610ae2565b6102c990611a1d610ae2565b612182565b6102c990611a02565b91611a489391611a39600090565b50611a42611113565b936123e6565b600190565b15611a5457565b60405162461bcd60e51b815260206004820152602b60248201527f4d75737420686176652061646d696e20726f6c6520746f2061737369676e206660448201526a7265657a657220726f6c6560a81b6064820152608490fd5b6102c990611ac4611abf610e3a610ae2565b611a4d565b600080516020612ef483398151915261137f565b611a48929091611ae6611113565b92336123e6565b6102c990611b08600080516020612f14833981519152611ebb565b611b99565b61042e611b2592602092611b1f815190565b94859290565b938491016103d7565b60209392611b426111049261042e94611b0d565b90611b0d565b15611b4f57565b60405162461bcd60e51b81526020600482015260136024820152725450467420616c72656164792065786973747360681b6044820152606490fd5b60001981146110665760010190565b80516020820151604090920151611c2792611bd6915b92611bca611bbc60405190565b948593602085019384611b2e565b90810382520382610480565b611be8611be1825190565b9160200190565b20611c0d611bfa6111ca836007611296565b611c076115156000610ad5565b14611b48565b611c22611c1a6008611039565b916007611296565b61107b565b6102c9611c3c611c376008611039565b611b8a565b600861107b565b6102c990611aed565b906102c991611c5d610fa88261129c565b906102c9916121f2565b906102c991611c4c565b6102c9929190611c8e600080516020612f14833981519152611ebb565b9091611caa6102c993611ca5611177611173611811565b611ec6565b611cb76114f56000610ad5565b611cbf611113565b92612517565b906102c99291611c71565b906102c9913361261e565b15611ce257565b60405162461bcd60e51b815260206004820152603460248201527f4d75737420686176652061646d696e20726f6c6520746f2061737369676e2064604482015273697265637420706c6163656d656e7420726f6c6560601b6064820152608490fd5b6102c990611d5b611d56610e3a610ae2565b611cdb565b7f95879078ac5f9ef2655935a8a313c87a55cd3739fa85c7b76890b7dbcd26b36b61137f565b6119566102a291611d90600090565b50600461101a565b6102a29161156661195692611dab600090565b50600161101a565b6102c99493929190611dc43361132b565b6123e6565b90916102c992611cbf611113565b6102966102a26102a29290565b6102a290611dd7565b15611df457565b60405162461bcd60e51b815260206004820152602a60248201527f455243313135353a2061646472657373207a65726f206973206e6f742061207660448201526930b634b21037bbb732b960b11b6064820152608490fd5b9061102490610ad5565b6111ca906115666102a293611e69600090565b50611e8b611e7a6102966000611de4565b6001600160a01b0385161415611ded565b6000611e4c565b637965db0b60e01b6001600160e01b0319821614908115611eb1575090565b6102a291506126eb565b6102c9903390612794565b6111ca6102a291611ed5600090565b50611eef600082015191611baf6040602083015192015190565b611efa611be1825190565b206007611296565b15611f0957565b60405162461bcd60e51b815260206004820152602860248201527f455243313135353a2069647320616e6420616d6f756e7473206c656e677468206044820152670dad2e6dac2e8c6d60c31b6064820152608490fd5b15611f6657565b60405162461bcd60e51b815260206004820152602560248201527f455243313135353a207472616e7366657220746f20746865207a65726f206164604482015264647265737360d81b6064820152608490fd5b15611fc057565b60405162461bcd60e51b815260206004820152602a60248201527f455243313135353a20696e73756666696369656e742062616c616e636520666f60448201526939103a3930b739b332b960b11b6064820152608490fd5b60408082526102a293919261202f918401906108c6565b9160208184039101526108c6565b929194909461206161204d825190565b61205b6115156102a2875190565b14611f02565b60009161208561207361029685611de4565b6001600160a01b0389165b1415611f5f565b339561209084610ad5565b61209b6102a2855190565b81101561211d57806116cd8861115f61210e8d6115668c6121088d611c226120d88f8c6120d26121189f6116bc906116bc9461161f565b9661161f565b98611566856121028c6120f26111ca86611566868b611e4c565b6120fe82821015611fb9565b0390565b94611e4c565b8c611e4c565b9161115a83611039565b612090565b509490969192506102c99561213181611011565b61213a83611011565b61214385611011565b917f4a39dc06d4c0dbc64b70af90fd698a233a518aa5d07e595d983b8c0526c8f7fb61216e60405190565b8061217a8b8b83612018565b0390a461291f565b61218f611173838361193b565b612197575050565b6121ad60016119f2846000611950866003611296565b6121c16121bb6111cf339390565b91611011565b917f2f8788117e7eff1d82e926ec794901d17c78024a50270940304540a733656f0d6121ec60405190565b600090a4565b6121fc828261193b565b612204575050565b61221960006119f28482611950866003611296565b6122276121bb6111cf339390565b917ff6391f5c32d9c69d2a47ea670b442974b53935d1edc7fd64eb21e047a839171b6121ec60405190565b61225a612b13565b6102c9612269600060056119bf565b7f5db9ee0a495bf2e6ff9c91a7834c1ba4fdd244a5e8aa4e537bd38aeae4b073aa6122a9335b604051918291826001600160a01b03909116815260200190565b0390a1565b6102c9612252565b6122be612b62565b6102c96122cd600160056119bf565b7f62e78cea01bee320cd4e420270b5ea74000d11b0c9f74754ebdbfc544b05a2586122a93361228f565b6102c96122b6565b1561230657565b60405162461bcd60e51b815260206004820152602960248201527f455243313135353a2073657474696e6720617070726f76616c20737461747573604482015268103337b91039b2b63360b91b6064820152608490fd5b6123ce6123c46111cf7f17307eab39ab6107e8899845ad3d59bd9653f200f220920489ca2b5937696c31936123ac61239b876001600160a01b031690565b6001600160a01b03831614156122ff565b6123bf876119f28861156685600161101a565b611011565b9361038260405190565b0390a3565b9081526040810192916102c99160200152565b906102c994939291600061240e6123ff61029683611de4565b6001600160a01b03851661207e565b61246761245a8461156687339561242482612b75565b5061242e8b612b75565b506124556124478c6120f26111ca8c6115668888611e4c565b611c228a6115668686611e4c565b611e4c565b61115f8761115a83611039565b61247081611011565b61247983611011565b61248285611011565b917fc3d58168c5ae7397731d063d5bbf3d657854427343f4c083240f7aacaa2d0f626124ad60405190565b806124b98b8b836123d3565b0390a4612bf0565b156124c857565b60405162461bcd60e51b815260206004820152602160248201527f455243313135353a206d696e7420746f20746865207a65726f206164647265736044820152607360f81b6064820152608490fd5b906102c9939291600061252981611de4565b906125486001600160a01b0383166001600160a01b03851614156124c1565b61246761245a8461156687339561255e82612b75565b506125688b612b75565b50611e4c565b1561257557565b60405162461bcd60e51b815260206004820152602360248201527f455243313135353a206275726e2066726f6d20746865207a65726f206164647260448201526265737360e81b6064820152608490fd5b156125cd57565b60405162461bcd60e51b8152602060048201526024808201527f455243313135353a206275726e20616d6f756e7420657863656564732062616c604482015263616e636560e01b6064820152608490fd5b9190917fc3d58168c5ae7397731d063d5bbf3d657854427343f4c083240f7aacaa2d0f626000926126c76126c16126c161265787611de4565b966126766001600160a01b0389166001600160a01b038916141561256e565b6123bf33916126848b612b75565b5061268e87612b75565b50612697611113565b50611c22896115668d6121028b6126b56111ca86611566868b611e4c565b6120fe828210156125c6565b94611011565b946126dd6126d460405190565b928392836123d3565b0390a46126e8611113565b50565b636cdb3d1360e11b6001600160e01b031982161490811561271b575b8115612711575090565b6102a29150612c8e565b6001600160e01b031981166303a24d0760e21b149150612707565b6102a290610ad5565b6127776102a29392611b42611b42937f416363657373436f6e74726f6c3a206163636f756e7420000000000000000000815260170190565b7001034b99036b4b9b9b4b733903937b6329607d1b815260110190565b906127a2611173828461193b565b6127aa575050565b611bca6102a2610e25936127dc6127cc6127c66127f496612cdb565b92612736565b6127d66020610ad5565b90612dbe565b906127e660405190565b93849260208401928361273f565b6040515b62461bcd60e51b815291829160048301610432565b905051906102c982610332565b906020828203126102b7576102a29161280d565b9390612877906102a2969461286a6128859561285a60a08a019460008b01906001600160a01b03169052565b6001600160a01b03166020890152565b86820360408801526108c6565b9084820360608601526108c6565b9160808184039101526103fa565b60009060033d116128a057565b905060046000803e60005160e01c90565b60009060443d106102c95760405160043d036004823e8051903d60248301116001600160401b0383111761291b578181019182516001600160401b0381116129155760043d03830181602086010111612915576102a2939495506020010190610480565b50505050565b5050565b93949161292b81612ee1565b612938575b505050505050565b60209461297061294c6123bf600094611011565b9461295660405190565b9889978896879563bc197c8160e01b87526004870161282e565b03925af160009181612a9f575b50612a2a5750600161298d612893565b6308c379a014612a0a575b6129a8575b388080808080612930565b60405162461bcd60e51b815260206004820152603460248201527f455243313135353a207472616e7366657220746f206e6f6e2d455243313135356044820152732932b1b2b4bb32b91034b6b83632b6b2b73a32b960611b6064820152608490fd5b612a126128b1565b80612a1d5750612998565b610e25906127f860405190565b612a4463bc197c8160e01b5b916001600160e01b03191690565b1461299d5760405162461bcd60e51b815260206004820152602860248201527f455243313135353a204552433131353552656365697665722072656a656374656044820152676420746f6b656e7360c01b6064820152608490fd5b612ac291925060203d602011612ac9575b612aba8183610480565b81019061281a565b903861297d565b503d612ab0565b15612ad757565b60405162461bcd60e51b815260206004820152601460248201527314185d5cd8589b194e881b9bdd081c185d5cd95960621b6044820152606490fd5b6102c9612b1e611811565b612ad0565b15612b2a57565b60405162461bcd60e51b815260206004820152601060248201526f14185d5cd8589b194e881c185d5cd95960821b6044820152606490fd5b6102c9612b70611173611811565b612b23565b6102a2612b856116696001610ad5565b916116ca612b936000610ad5565b8461161f565b9193612bdc6102a29694612bd5612be39497612bc560a088019960008901906001600160a01b03169052565b6001600160a01b03166020870152565b6040850152565b6060830152565b60808184039101526103fa565b939491612bfc81612ee1565b612c0857505050505050565b602094612c40612c1c6123bf600094611011565b94612c2660405190565b9889978896879563f23a6e6160e01b875260048701612b99565b03925af160009181612c6d575b50612c5d5750600161298d612893565b612a4463f23a6e6160e01b612a36565b612c8791925060203d602011612ac957612aba8183610480565b9038612c4d565b612c9e6301ffc9a760e01b612a36565b1490565b6102a29081906001600160a01b031681565b6118016102a26102a29290565b6102a26014612cb4565b6102a26102a26102a29260ff1690565b612cf8612cf36102a292612ced606090565b50611008565b612ca2565b6127d6612d03612cc1565b612ccb565b8181029291811591840414171561106657565b906102c96115fc612d2b846110f7565b936104ba565b90612d3a825190565b811015611639570160200190565b8015611066576000190190565b6102a290612d696115156102a29460ff1690565b901c90565b15612d7557565b60405162461bcd60e51b815280610e25600482016020808252818101527f537472696e67733a20686578206c656e67746820696e73756666696369656e74604082015260600190565b909190612def612dea612dda85612dd56002610ad5565b612d08565b612de46002610ad5565b90611059565b612d1b565b9060006030612e06612e0083610ad5565b85612d31565b53600f60fb1b612e3f612e366001978893851a612e2b612e2586610ad5565b89612d31565b53612dd56002610ad5565b612de483610ad5565b905b612e63575b506102a293945090612e5d6115156102a293610ad5565b14612d6e565b91612e6d86610ad5565b831115612edb576f181899199a1a9b1b9c1cb0b131b232b360811b612e92600f610ad5565b8216906010821015611639578792612eb2612ecf92612ed5941a60f81b90565b851a612ebe8789612d31565b53612ec96004612cb4565b90612d55565b93612d48565b90612e41565b91612e46565b3b612eef6115156000610ad5565b119056fe92de27771f92d6942691d73358b3a4673e4880de8356f8f2cf452be87e02d3639f2df0fed2c77648de5860a4cc508cd0818c85b8b8a1ab4ceeef8d981c8956a6a26469706673582212202e099e89778e9b2b878421ad18cbbafcc2f378f1825f1df6ea8c4d4c681605a864736f6c63430008190033",
  "linkReferences": {},
  "deployedLinkReferences": {}
}