{
  "_format": "hh-sol-artifact-1",
  "contractName": "SwapTwoSteps",
  "sourceName": "contracts/drex-connect/SwapTwoSteps.sol",
  "abi": [
    {
      "inputs": [
        {
          "internalType": "contract RealDigital",
          "name": "token",
          "type": "address"
        }
      ],
      "stateMutability": "nonpayable",
      "type": "constructor"
    },
    {
      "anonymous": false,
      "inputs": [
        {
          "indexed": true,
          "internalType": "uint256",
          "name": "proposalId",
          "type": "uint256"
        }
      ],
      "name": "ExpiredProposal",
      "type": "event"
    },
    {
      "anonymous": false,
      "inputs": [
        {
          "indexed": true,
          "internalType": "uint256",
          "name": "proposalId",
          "type": "uint256"
        },
        {
          "indexed": false,
          "internalType": "string",
          "name": "reason",
          "type": "string"
        }
      ],
      "name": "SwapCancelled",
      "type": "event"
    },
    {
      "anonymous": false,
      "inputs": [
        {
          "indexed": true,
          "internalType": "uint256",
          "name": "proposalId",
          "type": "uint256"
        },
        {
          "indexed": true,
          "internalType": "uint256",
          "name": "senderNumber",
          "type": "uint256"
        },
        {
          "indexed": true,
          "internalType": "uint256",
          "name": "receiverNumber",
          "type": "uint256"
        },
        {
          "indexed": false,
          "internalType": "address",
          "name": "sender",
          "type": "address"
        },
        {
          "indexed": false,
          "internalType": "address",
          "name": "receiver",
          "type": "address"
        },
        {
          "indexed": false,
          "internalType": "uint256",
          "name": "amount",
          "type": "uint256"
        }
      ],
      "name": "SwapExecuted",
      "type": "event"
    },
    {
      "anonymous": false,
      "inputs": [
        {
          "indexed": true,
          "internalType": "uint256",
          "name": "proposalId",
          "type": "uint256"
        },
        {
          "indexed": true,
          "internalType": "uint256",
          "name": "senderNumber",
          "type": "uint256"
        },
        {
          "indexed": true,
          "internalType": "uint256",
          "name": "receiverNumber",
          "type": "uint256"
        },
        {
          "indexed": false,
          "internalType": "address",
          "name": "sender",
          "type": "address"
        },
        {
          "indexed": false,
          "internalType": "address",
          "name": "receiver",
          "type": "address"
        },
        {
          "indexed": false,
          "internalType": "uint256",
          "name": "amount",
          "type": "uint256"
        }
      ],
      "name": "SwapStarted",
      "type": "event"
    },
    {
      "inputs": [
        {
          "internalType": "uint256",
          "name": "proposalId",
          "type": "uint256"
        },
        {
          "internalType": "string",
          "name": "reason",
          "type": "string"
        }
      ],
      "name": "cancelSwap",
      "outputs": [],
      "stateMutability": "nonpayable",
      "type": "function"
    },
    {
      "inputs": [
        {
          "internalType": "uint256",
          "name": "proposalId",
          "type": "uint256"
        }
      ],
      "name": "executeSwap",
      "outputs": [],
      "stateMutability": "nonpayable",
      "type": "function"
    },
    {
      "inputs": [
        {
          "internalType": "contract RealTokenizado",
          "name": "tokenSender",
          "type": "address"
        },
        {
          "internalType": "contract RealTokenizado",
          "name": "tokenReceiver",
          "type": "address"
        },
        {
          "internalType": "address",
          "name": "receiver",
          "type": "address"
        },
        {
          "internalType": "uint256",
          "name": "amount",
          "type": "uint256"
        }
      ],
      "name": "startSwap",
      "outputs": [],
      "stateMutability": "nonpayable",
      "type": "function"
    }
  ],
  "bytecode": "0x60806040523461002a576100196100146100c2565b610164565b6040516112d661018482396112d690f35b600080fd5b634e487b7160e01b600052604160045260246000fd5b90601f01601f191681019081106001600160401b0382111761006657604052565b61002f565b9061007f61007860405190565b9283610045565b565b6001600160a01b031690565b90565b6001600160a01b0381160361002a57565b9050519061007f82610090565b9060208282031261002a5761008d916100a1565b61008d61145a803803806100d58161006b565b9283398101906100ae565b906001600160a01b03905b9181191691161790565b61008d90610081906001600160a01b031682565b61008d906100f5565b61008d90610109565b9061012b61008d61013292610112565b82546100e0565b9055565b61008d61008d61008d9290565b90600019906100eb565b9061015d61008d61013292610136565b8254610143565b61016f90600061011b565b61007f61017c6000610136565b600161014d56fe6080604052600436101561001257600080fd5b60003560e01c8063262d442b14610042578063a9ab232b1461003d5763c61e4a200361006857610232565b61011c565b6100e7565b6001600160a01b031690565b90565b6001600160a01b0381165b0361006857565b600080fd5b9050359061007a82610056565b565b6001600160a01b038116610061565b9050359061007a8261007c565b80610061565b9050359061007a82610098565b608081830312610068576100bf828261006d565b926100536100d0846020850161006d565b9360606100e0826040870161008b565b940161009e565b34610068576101036100fa3660046100ab565b929190916105bc565b604051005b90602082820312610068576100539161009e565b346100685761010361012f366004610108565b610a07565b634e487b7160e01b600052604160045260246000fd5b90601f01601f1916810190811067ffffffffffffffff82111761016c57604052565b610134565b9061007a61017e60405190565b928361014a565b67ffffffffffffffff811161016c57602090601f01601f19160190565b0190565b90826000939282370152565b909291926101c76101c282610185565b610171565b93818552818301116100685761007a9160208501906101a6565b9080601f8301121561006857816020610053933591016101b2565b91909160408184031261006857610213838261009e565b92602082013567ffffffffffffffff81116100685761005392016101e1565b34610068576101036102453660046101fc565b906111d4565b61005390610047906001600160a01b031682565b6100539061024b565b6100539061025f565b801515610061565b9050519061007a82610271565b906020828203126100685761005391610279565b9052565b6040513d6000823e3d90fd5b156102b157565b60405162461bcd60e51b815260206004820152601a60248201527f53656e646572206d757374206265207061727469636970616e740000000000006044820152606490fd5b156102fd57565b60405162461bcd60e51b815260206004820152601c60248201527f5265636569766572206d757374206265207061727469636970616e74000000006044820152606490fd5b9050519061007a82610098565b906020828203126100685761005391610342565b1561036a57565b60405162461bcd60e51b8152602060048201526014602482015273496e73756666696369656e742062616c616e636560601b6044820152606490fd5b6100536100536100539290565b6100539081565b61005390546103b3565b634e487b7160e01b600052601160045260246000fd5b919082018092116103e757565b6103c4565b90600019905b9181191691161790565b9061040c610053610413926103a6565b82546103ec565b9055565b61005360e0610171565b634e487b7160e01b600052602160045260246000fd5b6003111561044157565b610421565b9061007a82610437565b9061029a90610446565b90610464906103a6565b600052602052604060002090565b906001600160a01b03906103f2565b9061049161005361041392610268565b8254610472565b6100539051610446565b9060ff906103f2565b61005390610446565b906104c4610053610413926104ab565b82546104a2565b600661058760c061007a946104f36104ed60008301516001600160a01b031690565b86610481565b61051361050a60208301516001600160a01b031690565b60018701610481565b61053361052a60408301516001600160a01b031690565b60028701610481565b61055361054a60608301516001600160a01b031690565b60038701610481565b61056a610561608083015190565b600487016103fc565b61058261057960a08301610498565b600587016104b4565b015190565b91016103fc565b9061007a916104cb565b6001600160a01b0391821681529116602082015260608101929161007a9160400152565b9091926105c882610268565b9263f16dfbe9926105d860405190565b6105e28560e01b90565b8152336004820152602081602481895afa801561086c5761060b916000916108e3575b506102aa565b61061482610268565b9361062861062160405190565b9160e01b90565b81526001600160a01b0387166004820152602081602481885afa801561086c5761065a916000916108b4575b506102f6565b6040516370a0823160e01b815233600482015291602083602481895afa90811561086c576106a46106f49261074695600091610895575b50869061069d565b9190565b1015610363565b6106ca6106c36106b460016103a6565b6106be60016103ba565b6103da565b60016103fc565b6106e46106d5610417565b6001600160a01b039094168452565b6001600160a01b03166020830152565b3360408201526001600160a01b0386166060820152610714836080830152565b610722600060a08301610450565b61072d4260c0830152565b61074161073a60016103ba565b600261045a565b61058e565b61075060016103ba565b63ffa8e9ab602061076060405190565b809661076c8460e01b90565b825260049082905afa93841561086c5761079f95600095610871575b509060209161079660405190565b96879260e01b90565b825260049082905afa93841561086c5760009461080b575b50906107ef6107e96107e97f0e3b28e08e3c06a6dd5d0a8de286fc19039cf2420012f001be1fa1174e44dec6946103a6565b946103a6565b946108066107fc60405190565b9283923384610598565b0390a4565b7f0e3b28e08e3c06a6dd5d0a8de286fc19039cf2420012f001be1fa1174e44dec6929194506107e96107e961085a6107ef9360203d602011610865575b610852818361014a565b81019061034f565b9693945050506107b7565b503d610848565b61029e565b60209291955061088d90833d851161086557610852818361014a565b949091610788565b6108ae915060203d60201161086557610852818361014a565b38610691565b6108d6915060203d6020116108dc575b6108ce818361014a565b810190610286565b38610654565b503d6108c4565b6108fc915060203d6020116108dc576108ce818361014a565b38610605565b1561090957565b60405162461bcd60e51b815260206004820152602760248201527f4f6e6c79207468652072656365697665722063616e2065786563757465207468604482015266329039bbb0b81760c91b6064820152608490fd5b1561096557565b60405162461bcd60e51b815260206004820152602b60248201527f43616e6e6f74206578656375746520737761702c20737461747573206973206e60448201526a37ba102822a72224a7239760a91b6064820152608490fd5b9050519061007a8261007c565b9060208282031261006857610053916109be565b600091031261006857565b6001600160a01b03909116815260408101929161007a9160200152565b610a1561005382600261045a565b60038101610a45610a2d82546001600160a01b031690565b610a3f335b916001600160a01b031690565b14610902565b6005820191610ade610a58845460ff1690565b610a76600091610a70610a6a84610446565b91610446565b1461095e565b80830194610a93610a8e87546001600160a01b031690565b610268565b9560206002860197610aac89546001600160a01b031690565b90610ab660405190565b968792839182916370a0823160e01b8352600483016001600160a01b03909116815260200190565b03915afa93841561086c57600094611087575b50610b09600486019461069d610699610053886103ba565b610b1d610a8e82546001600160a01b031690565b63cd3293de906020610b2e60405190565b8092610b3a8560e01b90565b825260049082905afa90811561086c57600091611068575b506001870190610b6c610a8e83546001600160a01b031690565b6020610b7760405190565b8092610b838760e01b90565b825260049082905afa90811561086c57610bb091610a3291600091611049575b506001600160a01b031690565b03610dd85750506020610c0e93610bd1610a8e84546001600160a01b031690565b88546001600160a01b0316610be5886103ba565b92610bef60405190565b809881958294610c0363a9059cbb60e01b90565b8452600484016109ea565b03925af192831561086c576001610a8e93610c3292610c3f96610dbb575b506104b4565b546001600160a01b031690565b9263ffa8e9ab6020610c5060405190565b8096610c5c8460e01b90565b825260049082905afa93841561086c57610c9b95600095610d8c575b5090610c93610a8e600160209401546001600160a01b031690565b604051610796565b825260049082905afa93841561086c57600094610d2d575b50610806610d1a610d14610d14610d0e610d08610cfa7fdf576c99dbf8d7fe039799f3cf9a7b8d493fea9f4efd97c21d7c71180d6e9915999a9b546001600160a01b031690565b96546001600160a01b031690565b966103ba565b996103a6565b966103a6565b96610d2460405190565b93849384610598565b7fdf576c99dbf8d7fe039799f3cf9a7b8d493fea9f4efd97c21d7c71180d6e9915939450610d1a610d14610d14610d0e610d08610cfa610d7e6108069760203d60201161086557610852818361014a565b9a9950505050505050610cb3565b602092919550610a8e6001610db0610c9393863d881161086557610852818361014a565b979394505050610c78565b610dd39060203d6020116108dc576108ce818361014a565b610c2c565b610def610a8e84969596546001600160a01b031690565b89546001600160a01b0316610e03886103ba565b823b1561006857610e2e92879283610e1a60405190565b809681958294610c036379cc679060e01b90565b03925af1801561086c5761102d575b50610e52610a8e85546001600160a01b031690565b91610e67610a8e85546001600160a01b031690565b926020610e7360405190565b8095610e7f8560e01b90565b825260049082905afa91821561086c57610eb39460009361100b575b50602090610c93610a8e86546001600160a01b031690565b825260049082905afa93841561086c57600094610fda575b50610ed5886103ba565b90803b1561006857610f0794878094610eed60405190565b9788958694859363bb35783b60e01b855260048501610598565b03925af190811561086c57610f2d92610a8e92610fbe575b50546001600160a01b031690565b86546001600160a01b0316610f41866103ba565b823b1561006857610f6c92859283610f5860405190565b809681958294610c036340c10f1960e01b90565b03925af1801561086c57610c3f94610a8e94610c3293600193610f91575b50506104b4565b81610fb092903d10610fb7575b610fa8818361014a565b8101906109df565b3880610f8a565b503d610f9e565b610fd490863d8811610fb757610fa8818361014a565b38610f1f565b610ffd91945060203d602011611004575b610ff5818361014a565b8101906109cb565b9238610ecb565b503d610feb565b602091935061102690823d841161100457610ff5818361014a565b9290610e9b565b61104390853d8711610fb757610fa8818361014a565b38610e3d565b611062915060203d60201161100457610ff5818361014a565b38610ba3565b611081915060203d60201161100457610ff5818361014a565b38610b52565b6110a191945060203d60201161086557610852818361014a565b9238610af1565b156110af57565b60405162461bcd60e51b815260206004820152603060248201527f4f6e6c79207468652073656e646572206f722072656365697665722063616e2060448201526f31b0b731b2b6103a34329039bbb0b81760811b6064820152608490fd5b1561111457565b60405162461bcd60e51b815260206004820152602a60248201527f43616e6e6f742063616e63656c20737761702c20737461747573206973206e6f6044820152693a102822a72224a7239760b11b6064820152608490fd5b60005b83811061117f5750506000910152565b818101518382015260200161116f565b6111b06111b96020936101a2936111a4815190565b80835293849260200190565b9586910161116c565b601f01601f191690565b60208082526100539291019061118f565b6112776112647f646da14d81571ab969d264eaf28be5b6cb2cb25db1306f921b9a0a35835b4eed9261125f60026005611210610053858461045a565b611226610047848301546001600160a01b031690565b3314801561127c575b611238906110a8565b0161125a611247825460ff1690565b611254610a6a6000610446565b1461110d565b6104b4565b6103a6565b9261126e60405190565b918291826111c3565b0390a2565b5061123861129761004760038401546001600160a01b031690565b3314905061122f56fea2646970667358221220e5bb25fa21e1e195f0f1593a01950a404ec619bd106a96b12114b2565790a0a964736f6c63430008190033",
  "linkReferences": {},
  "deployedLinkReferences": {}
}