{
  "_format": "hh-sol-artifact-1",
  "contractName": "HamsaL2Event",
  "sourceName": "contracts/ucl/image9/event/HamsaL2Event.sol",
  "abi": [
    {
      "anonymous": false,
      "inputs": [
        {
          "indexed": false,
          "internalType": "string",
          "name": "eventId",
          "type": "string"
        },
        {
          "indexed": false,
          "internalType": "address",
          "name": "sourceAddress",
          "type": "address"
        },
        {
          "indexed": false,
          "internalType": "address",
          "name": "bankAdmin",
          "type": "address"
        },
        {
          "indexed": false,
          "internalType": "string",
          "name": "topic",
          "type": "string"
        },
        {
          "indexed": false,
          "internalType": "bytes",
          "name": "eventBody",
          "type": "bytes"
        }
      ],
      "name": "EventReceived",
      "type": "event"
    },
    {
      "inputs": [
        {
          "internalType": "address",
          "name": "sourceAddress",
          "type": "address"
        },
        {
          "internalType": "address",
          "name": "bankAdmin",
          "type": "address"
        },
        {
          "internalType": "string",
          "name": "topic",
          "type": "string"
        },
        {
          "internalType": "bytes",
          "name": "eventBody",
          "type": "bytes"
        }
      ],
      "name": "sendEvent",
      "outputs": [],
      "stateMutability": "nonpayable",
      "type": "function"
    }
  ],
  "bytecode": "0x6080604052346019576040516105f361001f82396105f390f35b600080fdfe6080604052600436101561001257600080fd5b60003560e01c63cf694f4f0361003b5761017a565b90565b6001600160a01b0381160361003b57565b600080fd5b9050359061004d8261002a565b565b634e487b7160e01b600052604160045260246000fd5b90601f01601f1916810190811067ffffffffffffffff82111761008757604052565b61004f565b9061004d61009960405190565b9283610065565b67ffffffffffffffff811161008757602090601f01601f19160190565b0190565b90826000939282370152565b909291926100e26100dd826100a0565b61008c565b938185528183011161003b5761004d9160208501906100c1565b9080601f8301121561003b57816020610027933591016100cd565b9060808282031261003b5761012c8183610040565b9261013a8260208501610040565b92604081013567ffffffffffffffff811161003b578361015b9183016100fc565b92606082013567ffffffffffffffff811161003b5761002792016100fc565b3461003b5761019661018d366004610117565b929190916102b1565b604051005b6100279081565b610027905461019b565b634e487b7160e01b600052601160045260246000fd5b60001981146101d15760010190565b6101ac565b6100276100276100279290565b906100276100276101f3926101d6565b9055565b60005b83811061020a5750506000910152565b81810151838201526020016101fa565b61023b6102446020936100bd9361022f815190565b80835293849260200190565b958691016101f7565b601f01601f191690565b9361029661002796946102866102746102a3969560a08a01908a820360008c015261021a565b6001600160a01b039095166020890152565b6001600160a01b03166040870152565b848203606086015261021a565b91608081840391015261021a565b917fb9cbee490feb406a93e0263a27a5e74ae543abe5aac9a369d90e23f96ee7f40893610319916102f46102ed6102e860006101a2565b6101c2565b60006101e3565b61030661030160006101a2565b610388565b9361031060405190565b9586958661024e565b0390a1565b9061032b6100dd836100a0565b918252565b369037565b9061004d61034b6103458461031e565b936100a0565b601f190160208401610330565b634e487b7160e01b600052601260045260246000fd5b90610378565b9190565b908115610383570490565b610358565b6103918161041b565b906103a26001926100bd60016101d6565b91806103ad84610335565b936020018401905b6103c0575b50505090565b8115610416576103fa9060001901926f181899199a1a9b1b9c1cb0b131b232b360811b600a82061a84536103f4600a6101d6565b9061036e565b908161040961037460006101d6565b14610416579091816103b5565b6103ba565b61042560006101d6565b907a184f03e93ff9f4daa797ed6e38ed64bf6a1f01000000000000000061044b816101d6565b82101561059b575b506d04ee2d6d415b85acef810000000061046c816101d6565b821015610579575b50662386f26fc10000610486816101d6565b821015610557575b506305f5e10061049d816101d6565b821015610535575b506127106104b2816101d6565b821015610513575b506104c560646101d6565b8110156104f1575b6104da610374600a6101d6565b10156104e35790565b610027906100bd60016101d6565b61050261050d916103f460646101d6565b916100bd60026101d6565b906104cd565b61052e916103f4610523926101d6565b916100bd60046101d6565b90386104ba565b610550916103f4610545926101d6565b916100bd60086101d6565b90386104a5565b610572916103f4610567926101d6565b916100bd60106101d6565b903861048e565b610594916103f4610589926101d6565b916100bd60206101d6565b9038610474565b6105b6916103f46105ab926101d6565b916100bd60406101d6565b903861045356fea2646970667358221220a6141e9dfde86f85ace811f55b8e3e993932692e29a8299857087c09836cd95d64736f6c63430008190033",
  "linkReferences": {},
  "deployedLinkReferences": {}
}