{
  "_format": "hh-sol-artifact-1",
  "contractName": "Simple1155",
  "sourceName": "contracts/Simple1155.sol",
  "abi": [
    {
      "inputs": [],
      "stateMutability": "nonpayable",
      "type": "constructor"
    },
    {
      "anonymous": false,
      "inputs": [
        {
          "indexed": true,
          "internalType": "address",
          "name": "account",
          "type": "address"
        },
        {
          "indexed": true,
          "internalType": "address",
          "name": "operator",
          "type": "address"
        },
        {
          "indexed": false,
          "internalType": "bool",
          "name": "approved",
          "type": "bool"
        }
      ],
      "name": "ApprovalForAll",
      "type": "event"
    },
    {
      "anonymous": false,
      "inputs": [
        {
          "indexed": true,
          "internalType": "address",
          "name": "operator",
          "type": "address"
        },
        {
          "indexed": true,
          "internalType": "address",
          "name": "from",
          "type": "address"
        },
        {
          "indexed": true,
          "internalType": "address",
          "name": "to",
          "type": "address"
        },
        {
          "indexed": false,
          "internalType": "uint256[]",
          "name": "ids",
          "type": "uint256[]"
        },
        {
          "indexed": false,
          "internalType": "uint256[]",
          "name": "values",
          "type": "uint256[]"
        }
      ],
      "name": "TransferBatch",
      "type": "event"
    },
    {
      "anonymous": false,
      "inputs": [
        {
          "indexed": true,
          "internalType": "address",
          "name": "operator",
          "type": "address"
        },
        {
          "indexed": true,
          "internalType": "address",
          "name": "from",
          "type": "address"
        },
        {
          "indexed": true,
          "internalType": "address",
          "name": "to",
          "type": "address"
        },
        {
          "indexed": false,
          "internalType": "uint256",
          "name": "id",
          "type": "uint256"
        },
        {
          "indexed": false,
          "internalType": "uint256",
          "name": "value",
          "type": "uint256"
        }
      ],
      "name": "TransferSingle",
      "type": "event"
    },
    {
      "anonymous": false,
      "inputs": [
        {
          "indexed": false,
          "internalType": "string",
          "name": "value",
          "type": "string"
        },
        {
          "indexed": true,
          "internalType": "uint256",
          "name": "id",
          "type": "uint256"
        }
      ],
      "name": "URI",
      "type": "event"
    },
    {
      "inputs": [],
      "name": "GOLD",
      "outputs": [
        {
          "internalType": "uint256",
          "name": "",
          "type": "uint256"
        }
      ],
      "stateMutability": "view",
      "type": "function"
    },
    {
      "inputs": [],
      "name": "SHIELD",
      "outputs": [
        {
          "internalType": "uint256",
          "name": "",
          "type": "uint256"
        }
      ],
      "stateMutability": "view",
      "type": "function"
    },
    {
      "inputs": [],
      "name": "SILVER",
      "outputs": [
        {
          "internalType": "uint256",
          "name": "",
          "type": "uint256"
        }
      ],
      "stateMutability": "view",
      "type": "function"
    },
    {
      "inputs": [],
      "name": "SWORD",
      "outputs": [
        {
          "internalType": "uint256",
          "name": "",
          "type": "uint256"
        }
      ],
      "stateMutability": "view",
      "type": "function"
    },
    {
      "inputs": [],
      "name": "THORS_HAMMER",
      "outputs": [
        {
          "internalType": "uint256",
          "name": "",
          "type": "uint256"
        }
      ],
      "stateMutability": "view",
      "type": "function"
    },
    {
      "inputs": [
        {
          "internalType": "address",
          "name": "account",
          "type": "address"
        },
        {
          "internalType": "uint256",
          "name": "id",
          "type": "uint256"
        }
      ],
      "name": "balanceOf",
      "outputs": [
        {
          "internalType": "uint256",
          "name": "",
          "type": "uint256"
        }
      ],
      "stateMutability": "view",
      "type": "function"
    },
    {
      "inputs": [
        {
          "internalType": "address[]",
          "name": "accounts",
          "type": "address[]"
        },
        {
          "internalType": "uint256[]",
          "name": "ids",
          "type": "uint256[]"
        }
      ],
      "name": "balanceOfBatch",
      "outputs": [
        {
          "internalType": "uint256[]",
          "name": "",
          "type": "uint256[]"
        }
      ],
      "stateMutability": "view",
      "type": "function"
    },
    {
      "inputs": [
        {
          "internalType": "address",
          "name": "account",
          "type": "address"
        },
        {
          "internalType": "address",
          "name": "operator",
          "type": "address"
        }
      ],
      "name": "isApprovedForAll",
      "outputs": [
        {
          "internalType": "bool",
          "name": "",
          "type": "bool"
        }
      ],
      "stateMutability": "view",
      "type": "function"
    },
    {
      "inputs": [
        {
          "internalType": "address",
          "name": "account",
          "type": "address"
        },
        {
          "internalType": "uint256",
          "name": "id",
          "type": "uint256"
        },
        {
          "internalType": "uint256",
          "name": "amount",
          "type": "uint256"
        },
        {
          "internalType": "bytes",
          "name": "data",
          "type": "bytes"
        }
      ],
      "name": "mint",
      "outputs": [],
      "stateMutability": "nonpayable",
      "type": "function"
    },
    {
      "inputs": [
        {
          "internalType": "address",
          "name": "from",
          "type": "address"
        },
        {
          "internalType": "address",
          "name": "to",
          "type": "address"
        },
        {
          "internalType": "uint256[]",
          "name": "ids",
          "type": "uint256[]"
        },
        {
          "internalType": "uint256[]",
          "name": "amounts",
          "type": "uint256[]"
        },
        {
          "internalType": "bytes",
          "name": "data",
          "type": "bytes"
        }
      ],
      "name": "safeBatchTransferFrom",
      "outputs": [],
      "stateMutability": "nonpayable",
      "type": "function"
    },
    {
      "inputs": [
        {
          "internalType": "address",
          "name": "from",
          "type": "address"
        },
        {
          "internalType": "address",
          "name": "to",
          "type": "address"
        },
        {
          "internalType": "uint256",
          "name": "id",
          "type": "uint256"
        },
        {
          "internalType": "uint256",
          "name": "amount",
          "type": "uint256"
        },
        {
          "internalType": "bytes",
          "name": "data",
          "type": "bytes"
        }
      ],
      "name": "safeTransferFrom",
      "outputs": [],
      "stateMutability": "nonpayable",
      "type": "function"
    },
    {
      "inputs": [
        {
          "internalType": "address",
          "name": "operator",
          "type": "address"
        },
        {
          "internalType": "bool",
          "name": "approved",
          "type": "bool"
        }
      ],
      "name": "setApprovalForAll",
      "outputs": [],
      "stateMutability": "nonpayable",
      "type": "function"
    },
    {
      "inputs": [
        {
          "internalType": "bytes4",
          "name": "interfaceId",
          "type": "bytes4"
        }
      ],
      "name": "supportsInterface",
      "outputs": [
        {
          "internalType": "bool",
          "name": "",
          "type": "bool"
        }
      ],
      "stateMutability": "view",
      "type": "function"
    },
    {
      "inputs": [
        {
          "internalType": "address",
          "name": "from",
          "type": "address"
        },
        {
          "internalType": "address",
          "name": "to",
          "type": "address"
        },
        {
          "internalType": "uint256",
          "name": "id",
          "type": "uint256"
        },
        {
          "internalType": "uint256",
          "name": "amount",
          "type": "uint256"
        },
        {
          "internalType": "bytes",
          "name": "data",
          "type": "bytes"
        }
      ],
      "name": "transferFrom1155",
      "outputs": [],
      "stateMutability": "nonpayable",
      "type": "function"
    },
    {
      "inputs": [
        {
          "internalType": "uint256",
          "name": "",
          "type": "uint256"
        }
      ],
      "name": "uri",
      "outputs": [
        {
          "internalType": "string",
          "name": "",
          "type": "string"
        }
      ],
      "stateMutability": "view",
      "type": "function"
    }
  ],
  "bytecode": "0x6080604052346100225761001161014a565b6040516117846109db823961178490f35b600080fd5b634e487b7160e01b600052604160045260246000fd5b90601f01601f191681019081106001600160401b0382111761005e57604052565b610027565b9061007761007060405190565b928361003d565b565b6001600160401b03811161005e57602090601f01601f19160190565b0190565b906100ab6100a683610079565b610063565b918252565b6100ba6022610099565b7f68747470733a2f2f67616d652e6578616d706c652f6170692f6974656d2e6a7360208201526137b760f11b604082015290565b6100f66100b0565b90565b6100f66100f66100f69290565b6100f660006100f9565b6100f66000610099565b6100f6610110565b6100f660016100f9565b6100f660026100f9565b6100f660036100f9565b6100f660046100f9565b61015a6101556100ee565b6101f0565b610185610165610106565b610176670de0b6b3a76400006100f9565b61017e61011a565b9133610338565b6101a5610190610122565b6101766b033b2e3c9fd0803ce80000006100f9565b6101ba6101b061012c565b61017660016100f9565b6100776101c5610136565b6101df6101d5633b9aca006100f9565b918261017e61011a565b6101e7610140565b9061017e61011a565b610077906105c5565b6102066100f66100f69290565b6001600160a01b031690565b6100f6906101f9565b1561022257565b60405162461bcd60e51b815260206004820152602160248201527f455243313135353a206d696e7420746f20746865207a65726f206164647265736044820152607360f81b6064820152608490fd5b0390fd5b9061027f906100f9565b600052602052604060002090565b6100f690610206906001600160a01b031682565b6100f69061028d565b6100f6906102a1565b9061027f906102aa565b6100f69081565b6100f690546102bd565b634e487b7160e01b600052601160045260246000fd5b919082018092116102f157565b6102ce565b90600019905b9181191691161790565b906103166100f661031d926100f9565b82546102f6565b9055565b9052565b9081526040810192916100779160200152565b90610077939291600061034a81610212565b9061036761035783610206565b61036085610206565b141561021b565b6103aa6103928461038d87339561037d82610651565b506103878b610651565b50610275565b6102b3565b6103a48761039f836102c4565b6102e4565b90610306565b6103b3816102aa565b6103bc836102aa565b6103c5856102aa565b917fc3d58168c5ae7397731d063d5bbf3d657854427343f4c083240f7aacaa2d0f626103f060405190565b806103fc8b8b83610325565b0390a46107f8565b634e487b7160e01b600052602260045260246000fd5b906001600283049216801561043a575b602083101461043557565b610404565b91607f169161042a565b9160001960089290920291821b911b6102fc565b91906104696100f661031d936100f9565b908354610444565b61007791600091610458565b818110610488575050565b806104966000600193610471565b0161047d565b9190601f81116104ab57505050565b6104bd61007793600052602060002090565b906020601f8401819004830193106104df575b6020601f90910104019061047d565b90915081906104d0565b906104f2815190565b906001600160401b03821161005e576105158261050f855461041a565b8561049c565b602090601f83116001146105505761031d929160009183610545575b5050600019600883021c1916906002021790565b015190503880610531565b601f1983169161056585600052602060002090565b9260005b8181106105a35750916002939185600196941061058a575b50505002019055565b01516000196008601f8516021c19169055388080610581565b91936020600181928787015181550195019201610569565b90610077916104e9565b6100779060026105bb565b6001600160401b03811161005e5760208091020190565b906100ab6100a6836105d0565b369037565b9061007761060f610609846105e7565b936105d0565b601f1901602084016105f4565b634e487b7160e01b600052603260045260246000fd5b9061063b825190565b81101561064c576020809102010190565b61061c565b6100f661066661066160016100f9565b6105f9565b9161067a61067460006100f9565b84610632565b52565b6001600160e01b031981160361002257565b905051906100778261067d565b90602082820312610022576100f69161068f565b61032190610206565b60005b8381106106cc5750506000910152565b81810151838201526020016106bc565b6106fd610706602093610095936106f1815190565b80835293849260200190565b958691016106b9565b601f01601f191690565b91936107456100f6969461073e61074c949761073460a088019960008901906106b0565b60208701906106b0565b6040850152565b6060830152565b60808184039101526106dc565b60009060033d1161076657565b905060046000803e60005160e01c90565b60009060443d106100775760405160043d036004823e8051906001600160401b0382113d6024840111176107e35780820180519092906001600160401b0381116107dd5760043d038301816020860101116107dd576100f693949550602001019061003d565b50505050565b5050565b60208082526100f6929101906106dc565b939491610804816109c4565b610811575b505050505050565b60209461084e61082a6108256000946102aa565b6102aa565b9461083460405190565b9889978896879563f23a6e6160e01b875260048701610710565b03925af160009181610993575b506109265750600161086b610759565b6308c379a0146108f1575b610886575b388080808080610809565b60405162461bcd60e51b815260206004820152603460248201527f455243313135353a207472616e7366657220746f206e6f6e2d4552433131353560448201527f526563656976657220696d706c656d656e7465720000000000000000000000006064820152608490fd5b6108f9610777565b806109045750610876565b6102719061091160405190565b62461bcd60e51b8152918291600483016107e7565b6001600160e01b03191663f23a6e6160e01b1461087b5760405162461bcd60e51b815260206004820152602860248201527f455243313135353a204552433131353552656365697665722072656a656374656044820152676420746f6b656e7360c01b6064820152608490fd5b6109b691925060203d6020116109bd575b6109ae818361003d565b81019061069c565b903861085b565b503d6109a4565b3b6109d66109d260006100f9565b9190565b119056fe6080604052600436101561001257600080fd5b60003560e01c8062fdd58e1461010157806301ffc9a7146100fc5780630e89341c146100f757806313dc989f146100f25780632eb2c2d6146100ed5780633e4bee38146100e85780634e1273f4146100e35780635b2725ed146100de578063731133e9146100d9578063a22cb465146100d4578063d562e204146100cf578063e3e55f08146100ca578063e985e9c5146100c5578063f242432a146100c05763fe79e9500361012757610824565b610808565b6107ab565b61076d565b610740565b610715565b6106c1565b610656565b61061c565b6104e9565b6104b6565b6102d1565b610280565b6101d2565b610171565b6001600160a01b031690565b90565b6001600160a01b0381165b0361012757565b600080fd5b9050359061013982610115565b565b80610120565b905035906101398261013b565b91906040838203126101275761011290602061016a828661012c565b9401610141565b346101275761019d61018d61018736600461014e565b90610912565b6040519182918290815260200190565b0390f35b6001600160e01b03198116610120565b90503590610139826101a1565b9060208282031261012757610112916101b1565b346101275761019d6101ed6101e83660046101be565b610958565b6040515b91829182901515815260200190565b906020828203126101275761011291610141565b60005b8381106102275750506000910152565b8181015183820152602001610217565b61025861026160209361026b9361024c815190565b80835293849260200190565b95869101610214565b601f01601f191690565b0190565b602080825261011292910190610237565b346101275761019d61029b610296366004610200565b610a9b565b6040519182918261026f565b600091031261012757565b6101126101126101129290565b61011260036102b2565b6101126102bf565b34610127576102e13660046102a7565b61019d61018d6102c9565b634e487b7160e01b600052604160045260246000fd5b90601f01601f1916810190811067ffffffffffffffff82111761032457604052565b6102ec565b9061013961033660405190565b9283610302565b67ffffffffffffffff81116103245760208091020190565b9092919261036a6103658261033d565b610329565b938185526020808601920283019281841161012757915b83831061038e5750505050565b6020809161039c8486610141565b815201920191610381565b9080601f830112156101275781602061011293359101610355565b67ffffffffffffffff811161032457602090601f01601f19160190565b90826000939282370152565b909291926103fb610365826103c2565b9381855281830111610127576101399160208501906103df565b9080601f8301121561012757816020610112933591016103eb565b91909160a08184031261012757610447838261012c565b92610455816020840161012c565b92604083013567ffffffffffffffff811161012757826104769185016103a7565b92606081013567ffffffffffffffff811161012757836104979183016103a7565b92608082013567ffffffffffffffff8111610127576101129201610415565b34610127576104d26104c9366004610430565b93929092610b09565b604051005b61011260006102b2565b6101126104d7565b34610127576104f93660046102a7565b61019d61018d6104e1565b909291926105146103658261033d565b938185526020808601920283019281841161012757915b8383106105385750505050565b60208091610546848661012c565b81520192019161052b565b9080601f830112156101275781602061011293359101610504565b91909160408184031261012757803567ffffffffffffffff81116101275783610596918301610551565b92602082013567ffffffffffffffff81116101275761011292016103a7565b906105d56105ce6105c4845190565b8084529260200190565b9260200190565b9060005b8181106105e65750505090565b9091926106036105fc6001928651815260200190565b9460200190565b9291016105d9565b6020808252610112929101906105b5565b346101275761019d61063861063236600461056c565b90610c1c565b6040519182918261060b565b61011260046102b2565b610112610644565b34610127576106663660046102a7565b61019d61018d61064e565b9060808282031261012757610686818361012c565b926106948260208501610141565b926106a28360408301610141565b92606082013567ffffffffffffffff8111610127576101129201610415565b34610127576104d26106d4366004610671565b92919091610cc0565b801515610120565b90503590610139826106dd565b91906040838203126101275761011290602061070e828661012c565b94016106e5565b34610127576104d26107283660046106f2565b90610ccc565b61011260026102b2565b61011261072e565b34610127576107503660046102a7565b61019d61018d610738565b61011260016102b2565b61011261075b565b346101275761077d3660046102a7565b61019d61018d610765565b9190604083820312610127576101129060206107a4828661012c565b940161012c565b346101275761019d6101ed6107c1366004610788565b90610cd7565b91909160a081840312610127576107de838261012c565b926107ec816020840161012c565b926107fa8260408501610141565b926104978360608301610141565b34610127576104d261081b3660046107c7565b93929092610cf9565b34610127576104d26108373660046107c7565b93929092610d81565b6101066101126101129290565b61011290610840565b1561085d57565b60405162461bcd60e51b815260206004820152602a60248201527f455243313135353a2061646472657373207a65726f206973206e6f742061207660448201526930b634b21037bbb732b960b11b6064820152608490fd5b0390fd5b906108c3906102b2565b600052602052604060002090565b61011290610106906001600160a01b031682565b610112906108d1565b610112906108e5565b906108c3906108ee565b6101129081565b6101129054610901565b6109539061094e61011293610925600090565b50610947610936610106600061084d565b6001600160a01b0385161415610856565b60006108b9565b6108f7565b610908565b636cdb3d1360e11b6001600160e01b0319821614908115610988575b811561097e575090565b6101129150610db8565b6001600160e01b031981166303a24d0760e21b149150610974565b634e487b7160e01b600052602260045260246000fd5b90600160028304921680156109d9575b60208310146109d457565b6109a3565b91607f16916109c9565b80546000939291610a006109f6836109b9565b8085529360200190565b9160018116908115610a525750600114610a1957505050565b610a2c9192939450600052602060002090565b916000925b818410610a3e5750500190565b805484840152602090930192600101610a31565b92949550505060ff1916825215156020020190565b90610112916109e3565b90610139610a8b92610a8260405190565b93848092610a67565b0383610302565b61011290610a71565b506101126002610a92565b15610aad57565b60405162461bcd60e51b815260206004820152602e60248201527f455243313135353a2063616c6c6572206973206e6f7420746f6b656e206f776e60448201526d195c881bdc88185c1c1c9bdd995960921b6064820152608490fd5b6101399493929190610b39335b6001600160a01b0381166001600160a01b03841614908115610b3e575b50610aa6565b610f64565b610b49915083610cd7565b38610b33565b15610b5657565b60405162461bcd60e51b815260206004820152602960248201527f455243313135353a206163636f756e747320616e6420696473206c656e677468604482015268040dad2e6dac2e8c6d60bb1b6064820152608490fd5b90610bba6103658361033d565b918252565b369037565b90610139610bda610bd484610bad565b9361033d565b601f190160208401610bbf565b634e487b7160e01b600052603260045260246000fd5b90610c06825190565b811015610c17576020809102010190565b610be7565b90610c40610c28835190565b610c3a610c36610112855190565b9190565b14610b4f565b610c50610c4b835190565b610bc4565b91610c5b60006102b2565b610c66610112835190565b811015610cba5780610caf610ca2610c91610c84610cb59587610bfd565b516001600160a01b031690565b610187610c9e8589610bfd565b5190565b610cac8388610bfd565b52565b60010190565b610c5b565b50505090565b90610139939291611122565b61013991903361125e565b6101129161094e610cf292610cea600090565b5060016108f7565b5460ff1690565b6101399493929190610d0a33610b16565b6112df565b15610d1657565b60405162461bcd60e51b815260206004820152603c60248201527f455243313135353a2063616c6c6572206973206e6f7420746f6b656e206f776e60448201527f6572206f7220617070726f766564202d20666f722074657374696e67000000006064820152608490fd5b6101399493929190610d0a336001600160a01b0383168114908115610da7575b50610d0f565b610db2915083610cd7565b38610da1565b610dd26301ffc9a760e01b5b916001600160e01b03191690565b1490565b15610ddd57565b60405162461bcd60e51b815260206004820152602860248201527f455243313135353a2069647320616e6420616d6f756e7473206c656e677468206044820152670dad2e6dac2e8c6d60c31b6064820152608490fd5b15610e3a57565b60405162461bcd60e51b815260206004820152602560248201527f455243313135353a207472616e7366657220746f20746865207a65726f206164604482015264647265737360d81b6064820152608490fd5b15610e9457565b60405162461bcd60e51b815260206004820152602a60248201527f455243313135353a20696e73756666696369656e742062616c616e636520666f60448201526939103a3930b739b332b960b11b6064820152608490fd5b90600019905b9181191691161790565b90610f0c610112610f13926102b2565b8254610eec565b9055565b634e487b7160e01b600052601160045260246000fd5b91908201809211610f3a57565b610f17565b6040808252610112939192610f56918401906105b5565b9160208184039101526105b5565b9291949094610f88610f74825190565b610f82610c36610112875190565b14610dd6565b600091610fac610f9a6101068561084d565b6001600160a01b0389165b1415610e33565b3395610fb7846102b2565b610fc2610112855190565b8110156110545780610caf8861104961103a8d61094e8c6110348d61102f610fff8f8c610ff961104f9f610c9e90610c9e94610bfd565b96610bfd565b9861094e856110298c6110196109538661094e868b6108b9565b61102582821015610e8d565b0390565b946108b9565b610efc565b8c6108b9565b9161104483610908565b610f2d565b90610efc565b610fb7565b5094909691925061013995611068816108ee565b611071836108ee565b61107a856108ee565b917f4a39dc06d4c0dbc64b70af90fd698a233a518aa5d07e595d983b8c0526c8f7fb6110a560405190565b806110b18b8b83610f3f565b0390a4611467565b156110c057565b60405162461bcd60e51b815260206004820152602160248201527f455243313135353a206d696e7420746f20746865207a65726f206164647265736044820152607360f81b6064820152608490fd5b9081526040810192916101399160200152565b9061013993929160006111348161084d565b906111536001600160a01b0383166001600160a01b03851614156110b9565b6111866111798461094e87339561116982611623565b506111738b611623565b506108b9565b6110498761104483610908565b61118f816108ee565b611198836108ee565b6111a1856108ee565b917fc3d58168c5ae7397731d063d5bbf3d657854427343f4c083240f7aacaa2d0f626111cc60405190565b806111d88b8b8361110f565b0390a461169e565b156111e757565b60405162461bcd60e51b815260206004820152602960248201527f455243313135353a2073657474696e6720617070726f76616c20737461747573604482015268103337b91039b2b63360b91b6064820152608490fd5b9060ff90610ef2565b90611257610112610f1392151590565b825461123e565b6112da6112d06112ca7f17307eab39ab6107e8899845ad3d59bd9653f200f220920489ca2b5937696c31936112ad61129c876001600160a01b031690565b6001600160a01b03831614156111e0565b6112c5876112c08861094e8560016108f7565b611247565b6108ee565b936108ee565b936101f160405190565b0390a3565b906101399493929160006113076112f86101068361084d565b6001600160a01b038516610fa5565b6111866111798461094e87339561131d82611623565b506113278b611623565b5061134e6113408c6110196109538c61094e88886108b9565b61102f8a61094e86866108b9565b6108b9565b90505190610139826101a1565b906020828203126101275761011291611353565b93906113bd9061011296946113b06113cb956113a060a08a019460008b01906001600160a01b03169052565b6001600160a01b03166020890152565b86820360408801526105b5565b9084820360608601526105b5565b916080818403910152610237565b60009060033d116113e657565b905060046000803e60005160e01c90565b60009060443d106101395760405160043d036004823e8051903d602483011167ffffffffffffffff8311176114635781810191825167ffffffffffffffff811161145d5760043d0383018160208601011161145d57610112939495506020010190610302565b50505050565b5050565b9394916114738161173c565b611480575b505050505050565b6020946114b86114946112c56000946108ee565b9461149e60405190565b9889978896879563bc197c8160e01b875260048701611374565b03925af1600091816115f2575b50611587575060016114d56113d9565b6308c379a014611552575b6114f0575b388080808080611478565b60405162461bcd60e51b815260206004820152603460248201527f455243313135353a207472616e7366657220746f206e6f6e2d455243313135356044820152732932b1b2b4bb32b91034b6b83632b6b2b73a32b960611b6064820152608490fd5b61155a6113f7565b8061156557506114e0565b6108b59061157260405190565b62461bcd60e51b81529182916004830161026f565b61159763bc197c8160e01b610dc4565b146114e55760405162461bcd60e51b815260206004820152602860248201527f455243313135353a204552433131353552656365697665722072656a656374656044820152676420746f6b656e7360c01b6064820152608490fd5b61161591925060203d60201161161c575b61160d8183610302565b810190611360565b90386114c5565b503d611603565b610112611633610c4b60016102b2565b91610cac61164160006102b2565b84610bfd565b919361168a6101129694611683611691949761167360a088019960008901906001600160a01b03169052565b6001600160a01b03166020870152565b6040850152565b6060830152565b6080818403910152610237565b9394916116aa8161173c565b6116b657505050505050565b6020946116ee6116ca6112c56000946108ee565b946116d460405190565b9889978896879563f23a6e6160e01b875260048701611647565b03925af16000918161171b575b5061170b575060016114d56113d9565b61159763f23a6e6160e01b610dc4565b61173591925060203d60201161161c5761160d8183610302565b90386116fb565b3b61174a610c3660006102b2565b119056fea26469706673582212203b4c9397f339ea621fc434da5ed8924e3185a982199bb1b06da27475a3837b3764736f6c63430008190033",
  "linkReferences": {},
  "deployedLinkReferences": {}
}