{
  "_format": "hh-sol-artifact-1",
  "contractName": "SwapOneStepFrom",
  "sourceName": "contracts/drex-connect/SwapOneStepFrom.sol",
  "abi": [
    {
      "inputs": [
        {
          "internalType": "contract RealDigital",
          "name": "token",
          "type": "address"
        }
      ],
      "stateMutability": "nonpayable",
      "type": "constructor"
    },
    {
      "anonymous": false,
      "inputs": [
        {
          "indexed": true,
          "internalType": "uint256",
          "name": "senderNumber",
          "type": "uint256"
        },
        {
          "indexed": true,
          "internalType": "uint256",
          "name": "receiverNumber",
          "type": "uint256"
        },
        {
          "indexed": false,
          "internalType": "address",
          "name": "sender",
          "type": "address"
        },
        {
          "indexed": false,
          "internalType": "address",
          "name": "receiver",
          "type": "address"
        },
        {
          "indexed": false,
          "internalType": "uint256",
          "name": "amount",
          "type": "uint256"
        }
      ],
      "name": "SwapExecuted",
      "type": "event"
    },
    {
      "inputs": [
        {
          "internalType": "address",
          "name": "sender",
          "type": "address"
        },
        {
          "internalType": "address",
          "name": "receiver",
          "type": "address"
        },
        {
          "internalType": "uint256",
          "name": "amount",
          "type": "uint256"
        }
      ],
      "name": "executeSwap",
      "outputs": [],
      "stateMutability": "nonpayable",
      "type": "function"
    }
  ],
  "bytecode": "0x60806040523461002a576100196100146100c2565b610136565b60405161020d610142823961020d90f35b600080fd5b634e487b7160e01b600052604160045260246000fd5b90601f01601f191681019081106001600160401b0382111761006657604052565b61002f565b9061007f61007860405190565b9283610045565b565b6001600160a01b031690565b90565b6001600160a01b0381160361002a57565b9050519061007f82610090565b9060208282031261002a5761008d916100a1565b61008d61034f803803806100d58161006b565b9283398101906100ae565b61008d90610081906001600160a01b031682565b61008d906100e0565b61008d906100f4565b9061011661008d610132926100fd565b82546001600160a01b0319166001600160a01b03919091161790565b9055565b61007f90600061010656fe6080604052600436101561001257600080fd5b60003560e01c630da3a029036100485761009f565b6001600160a01b031690565b90565b6001600160a01b0381165b0361004857565b600080fd5b9050359061005a82610036565b565b80610041565b9050359061005a8261005c565b909160608284031261004857610033610088848461004d565b936040610098826020870161004d565b9401610062565b34610048576100b86100b236600461006f565b9161015b565b604051005b61003390610027906001600160a01b031682565b610033906100bd565b610033906100d1565b634e487b7160e01b600052604160045260246000fd5b90601f01601f1916810190811067ffffffffffffffff82111761011b57604052565b6100e3565b600091031261004857565b6001600160a01b0391821681529116602082015260608101929161005a9160400152565b6040513d6000823e3d90fd5b90916101776101726000546001600160a01b031690565b6100da565b803b15610048576101a9936000809461018f60405190565b9687958694859363bb35783b60e01b85526004850161012b565b03925af180156101d2576101ba5750565b61005a9060006101ca81836100f9565b810190610120565b61014f56fea2646970667358221220423e44c679d184ba635d63cc361cdf5d2a4509d4b322fc715b6b0e1ee6500dba64736f6c63430008190033",
  "linkReferences": {},
  "deployedLinkReferences": {}
}