{
  "_format": "hh-sol-artifact-1",
  "contractName": "CommonUtilities",
  "sourceName": "contracts/ucl/curves/Utilities.sol",
  "abi": [
    {
      "inputs": [
        {
          "internalType": "uint256",
          "name": "x",
          "type": "uint256"
        }
      ],
      "name": "log2",
      "outputs": [
        {
          "internalType": "uint256",
          "name": "y",
          "type": "uint256"
        }
      ],
      "stateMutability": "pure",
      "type": "function"
    },
    {
      "inputs": [
        {
          "internalType": "uint256",
          "name": "s",
          "type": "uint256"
        },
        {
          "internalType": "uint256",
          "name": "len",
          "type": "uint256"
        },
        {
          "internalType": "uint256",
          "name": "modulus",
          "type": "uint256"
        }
      ],
      "name": "powers",
      "outputs": [
        {
          "internalType": "uint256[]",
          "name": "",
          "type": "uint256[]"
        }
      ],
      "stateMutability": "pure",
      "type": "function"
    }
  ],
  "bytecode": "0x608060405234601d576040516104fa6100238239308150506104fa90f35b600080fdfe6080604052600436101561001257600080fd5b60003560e01c80633b8329171461003257635456bf130361003757610118565b6100dd565b600080fd5b905035905b565b90916060828403126100375761007361005c848461003c565b93604061006c826020870161003c565b940161003c565b90565b9061009661008f610085845190565b8084529260200190565b9260200190565b9060005b8181106100a75750505090565b9091926100c46100bd6001928651815260200190565b9460200190565b92910161009a565b602080825261007392910190610076565b6101006100f46100ee366004610043565b9161041f565b604051918291826100cc565b0390f35b90602082820312610037576100739161003c565b6101006102e0610129366004610104565b7e818283848586878898a8b8c8d8e8f929395969799a9b9d9e9faaeb6bedeeff600180830360028104176004810417601081041761010081041762010000810417640100000000810417680100000000000000008104178160801b81041701604051907ff8f9cbfae6cc78fbefe7cdc3a1793dfcf4f0e8bbd8cec470b6a28a7a5a3e1efd82527ff5ecf1b3e9debc68e1d9cfabc5997135bfb7a7a3938b7b606b5b4b3f2f1f0ffe60208301527ff6e4ed9ff2d6b458eadcdf97bd91692de2d4da8fd2d0ac50c6ae9a827252361660408301527fc8c0b887b0a8a4489c948c7f847c6125746c645c544c444038302820181008ff60608301527ff7cae577eec2a03cf3bad76fb589591debb2dd67e0aa9834bea6925f6a4a2e0e60808301527fe39ed557db96902cd38ed14fad815115c786af479b7e8324736353433727170760a08301527fc976c13bb96e881cb166a933a55e490d9d56952b8d4e801485467d236242260660c08301527f753a6d1b65325d0c552a4d1345224105391a310b29122104190a11030902010060e08301526101008201604052600160f81b928391020460ff0301510490600160ff1b10610100020190565b6040519182918290815260200190565b6100736100736100739290565b1561003757565b634e487b7160e01b600052604160045260246000fd5b90601f01601f1916810190811067ffffffffffffffff82111761033c57604052565b610304565b9061004161034e60405190565b928361031a565b67ffffffffffffffff811161033c5760208091020190565b9061037f61037a83610355565b610341565b918252565b369037565b9061004161039f6103998461036d565b93610355565b601f190160208401610384565b634e487b7160e01b600052603260045260246000fd5b906103cb825190565b8110156103dc576020809102010190565b6103ac565b634e487b7160e01b600052601160045260246000fd5b9190820391821161040457565b6103e1565b634e487b7160e01b600052601260045260246000fd5b9091600190610438610430836102f0565b8510156102fd565b61044184610389565b9361044b836102f0565b906104668261046361045d60006102f0565b896103c2565b52565b81845b610477575b50505050505090565b818110156104bf5761049361048f61045d85846103f7565b5190565b9084156104ba576104ae85886104b49409610463838b6103c2565b60010190565b84610469565b610409565b61046e56fea2646970667358221220fdddf005accb20c159b287ec225fad694ff4414001baca0a8d2668fc473c378164736f6c63430008190033",
  "linkReferences": {},
  "deployedLinkReferences": {}
}