{
  "_format": "hh-sol-artifact-1",
  "contractName": "Field",
  "sourceName": "contracts/ucl/curves/Utilities.sol",
  "abi": [
    {
      "inputs": [
        {
          "internalType": "uint256",
          "name": "x",
          "type": "uint256"
        }
      ],
      "name": "extractLimbs",
      "outputs": [
        {
          "internalType": "uint256",
          "name": "",
          "type": "uint256"
        },
        {
          "internalType": "uint256",
          "name": "",
          "type": "uint256"
        },
        {
          "internalType": "uint256",
          "name": "",
          "type": "uint256"
        },
        {
          "internalType": "uint256",
          "name": "",
          "type": "uint256"
        }
      ],
      "stateMutability": "pure",
      "type": "function"
    },
    {
      "inputs": [
        {
          "internalType": "uint256",
          "name": "_base",
          "type": "uint256"
        },
        {
          "internalType": "uint256",
          "name": "_exp",
          "type": "uint256"
        },
        {
          "internalType": "uint256",
          "name": "_mod",
          "type": "uint256"
        }
      ],
      "name": "fieldpow",
      "outputs": [
        {
          "internalType": "uint256",
          "name": "result",
          "type": "uint256"
        }
      ],
      "stateMutability": "view",
      "type": "function"
    },
    {
      "inputs": [
        {
          "internalType": "uint256",
          "name": "_x",
          "type": "uint256"
        },
        {
          "internalType": "uint256",
          "name": "_mod",
          "type": "uint256"
        }
      ],
      "name": "invert",
      "outputs": [
        {
          "internalType": "uint256",
          "name": "output",
          "type": "uint256"
        }
      ],
      "stateMutability": "view",
      "type": "function"
    },
    {
      "inputs": [
        {
          "internalType": "uint256",
          "name": "input",
          "type": "uint256"
        }
      ],
      "name": "reverse256",
      "outputs": [
        {
          "internalType": "uint256",
          "name": "v",
          "type": "uint256"
        }
      ],
      "stateMutability": "pure",
      "type": "function"
    },
    {
      "inputs": [
        {
          "internalType": "uint256",
          "name": "_x",
          "type": "uint256"
        },
        {
          "internalType": "uint256",
          "name": "_mod",
          "type": "uint256"
        }
      ],
      "name": "sqrt",
      "outputs": [
        {
          "internalType": "uint256",
          "name": "",
          "type": "uint256"
        }
      ],
      "stateMutability": "view",
      "type": "function"
    },
    {
      "inputs": [
        {
          "internalType": "uint8[32]",
          "name": "input",
          "type": "uint8[32]"
        }
      ],
      "name": "uint8ArrayToBytes32",
      "outputs": [
        {
          "internalType": "bytes32",
          "name": "",
          "type": "bytes32"
        }
      ],
      "stateMutability": "pure",
      "type": "function"
    }
  ],
  "bytecode": "0x608060405234601d5760405161087161002382393081505061087190f35b600080fdfe6080604052600436101561001257600080fd5b60003560e01c80630c24f47014610072578063489c9efe1461006d5780636d3b90b41461006857806394be798614610063578063dc3936891461005e5763fe6ec9c2036100eb5761029c565b610254565b61021a565b610203565b6101ca565b610179565b634e487b7160e01b600052604160045260246000fd5b90601f01601f1916810190811067ffffffffffffffff8211176100af57604052565b610077565b906100c86100c160405190565b928361008d565b565b67ffffffffffffffff81116100af5760200290565b60ff81165b036100eb57565b600080fd5b905035906100c8826100df565b9092919261011261010d826100ca565b6100b4565b9360208592028301928184116100eb57915b8383106101315750505050565b6020809161013f84866100f0565b815201920191610124565b9080601f830112156100eb576020610161926100fd565b90565b90610400828203126100eb576101619161014a565b61019f61018f61018a366004610164565b61036c565b6040519182918290815260200190565b0390f35b806100e4565b905035906100c8826101a3565b906020828203126100eb57610161916101a9565b61019f61018f6101db3660046101b6565b61041b565b91906040838203126100eb576101619060206101fc82866101a9565b94016101a9565b61019f61018f6102143660046101e0565b906105cb565b6102253660046101e0565b9061066a565b90916060828403126100eb5761016161024484846101a9565b9360406101fc82602087016101a9565b61019f61018f61026536600461022b565b91610774565b6102986100c89461029160609498979561028a608086019a6000870152565b6020850152565b6040830152565b0152565b61019f6102b26102ad3660046101b6565b6107af565b906102bf94929460405190565b9485948561026b565b6101616101616101619290565b634e487b7160e01b600052603260045260246000fd5b9060208110156102fc576020020190565b6102d5565b6103176103116101619260ff1690565b60f81b90565b6001600160f81b03191690565b634e487b7160e01b600052601160045260246000fd5b8181029291811591840414171561034d57565b610324565b610161906103676103636101619490565b9190565b901c90565b90600061037960006102c8565b905b60208210156103d6576103d0906103c86103af6103aa6103a561039e878a6102eb565b5160ff1690565b610301565b610317565b6103c26103bc60086102c8565b8661033a565b90610352565b179160010190565b9061037b565b925050565b6103e86101616101619290565b60ff1690565b610161906103676103636101619460ff1690565b610161906104166103636101619460ff1690565b901b90565b61048c6104477fff00ff00ff00ff00ff00ff00ff00ff00ff00ff00ff00ff00ff00ff00ff00ff006102c8565b821661045d61045660086103db565b80926103ee565b926104867eff00ff00ff00ff00ff00ff00ff00ff00ff00ff00ff00ff00ff00ff00ff00ff6102c8565b16610402565b176104f06104b97fffff0000ffff0000ffff0000ffff0000ffff0000ffff0000ffff0000ffff00006102c8565b82166104c861045660106103db565b926104867dffff0000ffff0000ffff0000ffff0000ffff0000ffff0000ffff0000ffff6102c8565b1761055261051d7fffffffff00000000ffffffff00000000ffffffff00000000ffffffff000000006102c8565b821661052c61045660206103db565b926104867bffffffff00000000ffffffff00000000ffffffff00000000ffffffff6102c8565b176105a961057877ffffffffffffffff0000000000000000ffffffffffffffff196102c8565b821661058761045660406103db565b9261048677ffffffffffffffff0000000000000000ffffffffffffffff6102c8565b176105c76105b760806103db565b6105c181846103ee565b92610402565b1790565b60c06000916020936105db600090565b50604051918583528580840152856040840152606083015260028103608083015260a082015260055afa156100eb5760005190565b60c0926020926040519284845284808501528460408501526060840152608083015260a08201526040519283916005600019fa156100eb575190565b60019161065f9160028483030490610610565b1490565b156100eb57565b9061067d610678828461064c565b610663565b6003600482060315610758576001810360005b600282061561074a576002915b6106a7848461064c565b61073f5783816106cc82826106c682600260016106d29901048c610610565b99610610565b94610610565b600091835b81841061071a575b50821561070f578480926106fc9260018601900360020a90610610565b94818087800996879209930991936106d2565b602086604051908152f35b60018197959497146107365785816001920996019293956106d7565b959293956106df565b60019092019161069d565b600290910490600101610690565b90610770602092604051926004600183010490610610565b8152f35b60c0926020926040519284845284808501528460408501526060840152608083015260a082015282519283916005600019fa156100eb575190565b806107c167ffffffffffffffff6102c8565b166107f0826107df6fffffffffffffffff00000000000000006102c8565b166107ea60406103db565b906103ee565b926108346108178461080c67ffffffffffffffff60801b6102c8565b166107ea60806103db565b936108296001600160c01b03196102c8565b166107ea60c06103db565b919392919056fea2646970667358221220982aac2255028c4ad54ed51edc3a801e6d1e81a4fb4f8ad0a69f65dd794d5e2a64736f6c63430008190033",
  "linkReferences": {},
  "deployedLinkReferences": {}
}