{
  "_format": "hh-sol-artifact-1",
  "contractName": "PolyLib",
  "sourceName": "contracts/ucl/curves/Utilities.sol",
  "abi": [
    {
      "inputs": [
        {
          "components": [
            {
              "internalType": "uint256[]",
              "name": "coeffs_except_linear_term",
              "type": "uint256[]"
            }
          ],
          "internalType": "struct PolyLib.CompressedUniPoly",
          "name": "poly",
          "type": "tuple"
        },
        {
          "internalType": "uint256",
          "name": "hint",
          "type": "uint256"
        },
        {
          "internalType": "uint256",
          "name": "mod",
          "type": "uint256"
        }
      ],
      "name": "decompress",
      "outputs": [
        {
          "components": [
            {
              "internalType": "uint256[]",
              "name": "coeffs",
              "type": "uint256[]"
            }
          ],
          "internalType": "struct PolyLib.UniPoly",
          "name": "",
          "type": "tuple"
        }
      ],
      "stateMutability": "pure",
      "type": "function"
    },
    {
      "inputs": [
        {
          "components": [
            {
              "internalType": "uint256[]",
              "name": "coeffs",
              "type": "uint256[]"
            }
          ],
          "internalType": "struct PolyLib.UniPoly",
          "name": "poly",
          "type": "tuple"
        }
      ],
      "name": "degree",
      "outputs": [
        {
          "internalType": "uint256",
          "name": "",
          "type": "uint256"
        }
      ],
      "stateMutability": "pure",
      "type": "function"
    },
    {
      "inputs": [
        {
          "components": [
            {
              "internalType": "uint256[]",
              "name": "coeffs",
              "type": "uint256[]"
            }
          ],
          "internalType": "struct PolyLib.UniPoly",
          "name": "poly",
          "type": "tuple"
        },
        {
          "internalType": "uint256",
          "name": "mod",
          "type": "uint256"
        }
      ],
      "name": "evalAtOne",
      "outputs": [
        {
          "internalType": "uint256",
          "name": "result",
          "type": "uint256"
        }
      ],
      "stateMutability": "pure",
      "type": "function"
    },
    {
      "inputs": [
        {
          "components": [
            {
              "internalType": "uint256[]",
              "name": "coeffs",
              "type": "uint256[]"
            }
          ],
          "internalType": "struct PolyLib.UniPoly",
          "name": "poly",
          "type": "tuple"
        }
      ],
      "name": "evalAtZero",
      "outputs": [
        {
          "internalType": "uint256",
          "name": "",
          "type": "uint256"
        }
      ],
      "stateMutability": "pure",
      "type": "function"
    },
    {
      "inputs": [
        {
          "components": [
            {
              "internalType": "uint256[]",
              "name": "coeffs",
              "type": "uint256[]"
            }
          ],
          "internalType": "struct PolyLib.UniPoly",
          "name": "poly",
          "type": "tuple"
        },
        {
          "internalType": "uint256",
          "name": "r",
          "type": "uint256"
        },
        {
          "internalType": "uint256",
          "name": "mod",
          "type": "uint256"
        }
      ],
      "name": "evaluate",
      "outputs": [
        {
          "internalType": "uint256",
          "name": "",
          "type": "uint256"
        }
      ],
      "stateMutability": "pure",
      "type": "function"
    },
    {
      "inputs": [
        {
          "components": [
            {
              "internalType": "uint256[]",
              "name": "coeffs",
              "type": "uint256[]"
            }
          ],
          "internalType": "struct PolyLib.UniPoly",
          "name": "poly",
          "type": "tuple"
        }
      ],
      "name": "toTranscriptBytes",
      "outputs": [
        {
          "internalType": "uint8[]",
          "name": "",
          "type": "uint8[]"
        }
      ],
      "stateMutability": "pure",
      "type": "function"
    }
  ],
  "bytecode": "0x608060405234601d57604051610ae1610023823930815050610ae190f35b600080fdfe6080604052600436101561001257600080fd5b60003560e01c80631b471e3c146100725780635f0452bf1461006d5780636f5319ed14610068578063b038af3714610063578063dde2ea2c1461005e5763ed9e990703610085576103c0565b610358565b610342565b610305565b6102b2565b61014f565b908160209103126100855790565b600080fd5b905035905b565b909160608284031261008557813567ffffffffffffffff8111610085576100bd846100d4928501610077565b9360406100cd826020870161008a565b940161008a565b90565b906100f76100f06100e6845190565b8084529260200190565b9260200190565b9060005b8181106101085750505090565b90919261012561011e6001928651815260200190565b9460200190565b9291016100fb565b5160208083526100d49201906100d7565b60208082526100d49291019061012d565b610172610166610160366004610091565b91610513565b6040519182918261013e565b0390f35b634e487b7160e01b600052604160045260246000fd5b90601f01601f1916810190811067ffffffffffffffff8211176101ae57604052565b610176565b9061008f6101c060405190565b928361018c565b67ffffffffffffffff81116101ae5760208091020190565b909291926101f46101ef826101c7565b6101b3565b938185526020808601920283019281841161008557915b8383106102185750505050565b60208091610226848661008a565b81520192019161020b565b9080601f83011215610085578160206100d4933591016101df565b9190916020818403126100855761026360206101b3565b92813567ffffffffffffffff81116100855761027f9201610231565b8252565b91906040838203126100855782359067ffffffffffffffff82116100855760206100cd826100d494870161024c565b6101726102c96102c3366004610283565b906106e7565b6040519182918290815260200190565b909160608284031261008557813567ffffffffffffffff8111610085576100bd846100d492850161024c565b6101726102c96103163660046102d9565b91610745565b9060208282031261008557813567ffffffffffffffff8111610085576100d4920161024c565b6101726102c961035336600461031c565b6107fc565b6101726102c961036936600461031c565b610824565b9061037d6100f06100e6845190565b9060005b81811061038e5750505090565b9091926103a761011e600192865160ff16815260200190565b929101610381565b60208082526100d49291019061036e565b6101726103d66103d136600461031c565b610855565b604051918291826103af565b6100d460206101b3565b6103f46103e2565b9060608252565b6100d46103ec565b903590601e193682900301821215610085570180359067ffffffffffffffff82116100855760200191602082023603831361008557565b634e487b7160e01b600052603260045260246000fd5b9190811015610460576020020190565b61043a565b6100d46100d46100d49290565b634e487b7160e01b600052601260045260246000fd5b634e487b7160e01b600052601160045260246000fd5b919082018092116104ab57565b610488565b906104bd6101ef836101c7565b918252565b369037565b9061008f6104dd6104d7846104b0565b936101c7565b601f1901602084016104c2565b906104f3825190565b811015610460576020809102010190565b60001981146104ab5760010190565b6105419261051f6103fb565b5061054561052d8380610403565b959060009661053b88610465565b91610450565b3590565b928483019361056361054161055a8787610403565b61053b8a610465565b83156106da5783809161057693086109f2565b82156106da5782919493940891600193849261059184610465565b955b61068a575b50829394506106146105a987610465565b956106046106096105dc6105d76105c86105c38989610403565b905090565b6105d18a610465565b9061049e565b6104c7565b986106046105f7610541836105f18b8b610403565b90610450565b610601838d6104ea565b52565b610504565b91610601838a6104ea565b61061d84610465565b945b61063b575b50505050506100d4906106356103e2565b92830152565b61064b6100d46105c38585610403565b8510156106855761067761067e9161060461066d610541896105f18989610403565b610601838b6104ea565b9460010190565b938361061f565b610624565b61069c6100d46105c385859895610403565b8610156106df576106bd816106b8610541896105f1888b610403565b6109f2565b81156106da57816106d2918694089660010190565b959491610593565b610472565b939093610598565b9060009260006106f76000610465565b945b8185016107086100d482515190565b87101561073c5761071d8761072192516104ea565b5190565b9084156106da57610736918591089560010190565b946106f9565b50945050915050565b9091829160008101519161076861071d6000946107626000610465565b906104ea565b9460019384936107786001610465565b955b610789575b5050505050505090565b9091929394959682820161079f6100d482515190565b8810156107e85761071d886107b492516104ea565b9085156106da5785156106da578580928a0990089684156106da5784846107dd92099660010190565b94939291908461077a565b509661077f565b919082039182116104ab57565b61081460006100d49261080d600090565b5001515190565b61081e6001610465565b906107ef565b61071d60006100d492610835600090565b5001516107626000610465565b818102929181159184041417156104ab57565b80515160209190816108816105d761087360019461081e6001610465565b61087c87610465565b610842565b9360009151906108a161089c61071d60009461076286610465565b610a2b565b846108ab84610465565b905b6109aa575b5050936108c96108c28596610465565b809461049e565b6108d36002610465565b955b6108e3575b50505050505090565b8282016108f26100d482515190565b8710156109a4578593929161090f61089c61071d8a8995516104ea565b8561091986610465565b905b61093f575b50506109369161092f9161049e565b9660010190565b959091926108d5565b90928061094e83989496979890565b101561099957508061098661097061096961098c94876104ea565b5160ff1690565b61097e8d610762858a61049e565b9060ff169052565b60010190565b918692829695949261091b565b929594939195610920565b506108da565b9085916109b684610465565b8110156109e257806109866109d16109696109db94866104ea565b61097e838d6104ea565b90916108ad565b506108b2565b81156106da570690565b9061081e816100d493610a03600090565b506109e8565b610a196100d46100d49260ff1690565b60ff1690565b6100d49060f81c610a09565b6020610a376020610465565b91610a4a610a44846104c7565b91610465565b93610a556000610465565b84811015610aa257610a7081610a6b601f610465565b6107ef565b908482101561046057610986610a93610a8e89610a9d951a60f81b90565b610a1f565b61097e83876104ea565b610a55565b5093509150509056fea26469706673582212208e4048176b56b695edef3f74f393f3690c3c3ed8b27142d292048b2fc0b88f2364736f6c63430008190033",
  "linkReferences": {},
  "deployedLinkReferences": {}
}