{
  "_format": "hh-sol-artifact-1",
  "contractName": "TPFtDvP",
  "sourceName": "contracts/drex-connect/TPFtDvP.sol",
  "abi": [
    {
      "inputs": [
        {
          "internalType": "address",
          "name": "_addressDiscovery",
          "type": "address"
        }
      ],
      "stateMutability": "nonpayable",
      "type": "constructor"
    },
    {
      "inputs": [],
      "name": "addressDiscovery",
      "outputs": [
        {
          "internalType": "contract AddressDiscovery",
          "name": "",
          "type": "address"
        }
      ],
      "stateMutability": "view",
      "type": "function"
    },
    {
      "inputs": [
        {
          "internalType": "address",
          "name": "sender",
          "type": "address"
        },
        {
          "internalType": "address",
          "name": "receiver",
          "type": "address"
        },
        {
          "internalType": "uint256",
          "name": "tokenId",
          "type": "uint256"
        },
        {
          "internalType": "uint256",
          "name": "tpftAmount",
          "type": "uint256"
        },
        {
          "internalType": "uint256",
          "name": "unitPrice",
          "type": "uint256"
        }
      ],
      "name": "executeDvP",
      "outputs": [
        {
          "internalType": "bool",
          "name": "",
          "type": "bool"
        }
      ],
      "stateMutability": "payable",
      "type": "function"
    },
    {
      "inputs": [
        {
          "internalType": "address",
          "name": "sender",
          "type": "address"
        },
        {
          "internalType": "contract IRealTokenizado",
          "name": "senderToken",
          "type": "address"
        },
        {
          "internalType": "address",
          "name": "receiver",
          "type": "address"
        },
        {
          "internalType": "contract IRealTokenizado",
          "name": "receiverToken",
          "type": "address"
        },
        {
          "internalType": "uint256",
          "name": "tokenId",
          "type": "uint256"
        },
        {
          "internalType": "uint256",
          "name": "tpftAmount",
          "type": "uint256"
        },
        {
          "internalType": "uint256",
          "name": "unitPrice",
          "type": "uint256"
        }
      ],
      "name": "executeDvP",
      "outputs": [
        {
          "internalType": "bool",
          "name": "",
          "type": "bool"
        }
      ],
      "stateMutability": "payable",
      "type": "function"
    }
  ],
  "bytecode": "0x60806040523461002a576100196100146100c2565b610136565b60405161119d61014a823961119d90f35b600080fd5b634e487b7160e01b600052604160045260246000fd5b90601f01601f191681019081106001600160401b0382111761006657604052565b61002f565b9061007f61007860405190565b9283610045565b565b6001600160a01b031690565b90565b6001600160a01b0381160361002a57565b9050519061007f82610090565b9060208282031261002a5761008d916100a1565b61008d6112e7803803806100d58161006b565b9283398101906100ae565b61008d90610081906001600160a01b031682565b61008d906100e0565b61008d906100f4565b9061011661008d610132926100fd565b82546001600160a01b0319166001600160a01b03919091161790565b9055565b61014261007f916100fd565b600061010656fe6080604052600436101561001257600080fd5b60003560e01c80636060519314610042578063636bebe81461003d5763e6ecd9a80361006857610225565b610183565b6100df565b6001600160a01b031690565b90565b6001600160a01b0381165b0361006857565b600080fd5b9050359061007a82610056565b565b80610061565b9050359061007a8261007c565b919060a083820312610068576100a5818461006d565b926100b3826020830161006d565b926100536100c48460408501610082565b9360806100d48260608701610082565b9401610082565b9052565b61010b6100f96100f036600461008f565b9392909261050d565b60405191829182901515815260200190565b0390f35b600091031261006857565b610053916008021c6001600160a01b031690565b90610053915461011a565b61005360008061012e565b61005390610047906001600160a01b031682565b61005390610144565b61005390610158565b6100db90610161565b60208101929161007a919061016a565b346100685761019336600461010f565b61010b61019e610139565b60405191829182610173565b6001600160a01b038116610061565b9050359061007a826101aa565b60e081830312610068576101da828261006d565b926101e883602084016101b9565b926101f6816040850161006d565b9261020482606083016101b9565b926100536102158460808501610082565b9360c06100d48260a08701610082565b61010b6100f96102363660046101c6565b959490949391936107d5565b634e487b7160e01b600052604160045260246000fd5b90601f01601f1916810190811067ffffffffffffffff82111761027a57604052565b610242565b9061007a61028c60405190565b9283610258565b67ffffffffffffffff811161027a57602090601f01601f19160190565b0190565b906102c66102c183610293565b61027f565b918252565b6102d560046102b4565b631514119d60e21b602082015290565b6100536102cb565b6102f7600b6102b4565b6a1499585b111a59da5d185b60aa1b602082015290565b6100536102ed565b6100476100536100539290565b61005390610316565b1561033357565b60405162461bcd60e51b815260206004820152601360248201527210dbdb9d1c9858dd1cc81b9bdd08199bdd5b99606a1b6044820152606490fd5b0390fd5b634e487b7160e01b600052601160045260246000fd5b8181029291811591840414171561039b57565b610372565b9050519061007a8261007c565b9060208282031261006857610053916103a0565b6040513d6000823e3d90fd5b156103d457565b60405162461bcd60e51b81528061036e600482016020808252818101527f496e73756666696369656e74205265616c4469676974616c2062616c616e6365604082015260600190565b801515610061565b9050519061007a8261041d565b906020828203126100685761005391610425565b1561044d57565b60405162461bcd60e51b815260206004820152602860248201527f436f6e7472616374206e6f7420617070726f76656420746f207472616e7366656044820152677220746f6b656e7360c01b6064820152608490fd5b6001600160a01b0391821681529116602082015260608101929161007a9160400152565b6001600160a01b039182168152911660208201526100539260a08201926104fb91906104f4906040850152565b6060830152565b60808183039101526000815260200190565b919093610518600090565b506105296105246102e5565b610d62565b9461053561052461030e565b9561058d61058761058061057a60009a6105756105518d610323565b6001600160a01b0381166001600160a01b0389165b1415908161077a575b5061032c565b610161565b93610161565b9488610388565b91610161565b9261059760405190565b6370a0823160e01b81526001600160a01b038416600482015290602082602481885afa9081156106f4576105756105df9261061c9460009161074b575b5085905b10156103cd565b9360206105eb30610161565b60405163e985e9c560e01b81526001600160a01b03808b166004830152909116602482015292839081906044820190565b0381885afa9081156106f45789936106426106639360209560009161072e575b50610446565b6040515b94859384928391906323b872dd60e01b83528c8a600485016104a3565b03925af180156106f45761067d9160009161070157501590565b6106f957813b15610068578580946106b161069760405190565b97889687958694637921219560e11b8652600486016104c7565b03925af180156106f4576106c7575b5050600190565b816106e692903d106106ed575b6106de8183610258565b81019061010f565b38806106c0565b503d6106d4565b6103c1565b505050505090565b610723915060203d602011610727575b61071b8183610258565b810190610432565b1590565b503d610711565b6107459150863d88116107275761071b8183610258565b3861063c565b61076d915060203d602011610773575b6107658183610258565b8101906103ad565b386105d4565b503d61075b565b6001600160a01b031690506001600160a01b03831614153861056f565b9050519061007a82610056565b906020828203126100685761005391610797565b6001600160a01b03909116815260408101929161007a9160200152565b9392610816969291926107e6600090565b506107f26105246102e5565b9061083c61057a61083561082f61080a61052461030e565b61057560009e8f610323565b6001600160a01b0381166001600160a01b038a16610566565b94610161565b928a610388565b9061084660405190565b6370a0823160e01b81526001600160a01b038616600482015290602082602481865afa9182156106f4576108889261057591600091610cf6575b5086906105d8565b946108c8602061089730610161565b60405163e985e9c560e01b81526001600160a01b03808d166004830152909116602482015291829081906044820190565b03818a5afa80156106f4576108e491600091610cdd5750610446565b60405161034f810181811067ffffffffffffffff82111761027a5761091285839261034f610e198539610173565b03908bf09081156106f45761092690610161565b9063cd3293de9061093660405190565b946109418360e01b90565b8652602086600481875afa9586156106f457600096610cbc575b506040519561096a8460e01b90565b8752602087600481895afa80156106f45761099a8f98916109a792600091610c9d575b506001600160a01b031690565b916001600160a01b031690565b03610a0557505050506109c1906020929361064660405190565b03925af180156106f4576109e8575b505b813b15610068578580946106b161069760405190565b610a009060203d6020116107275761071b8183610258565b6109d0565b610a129192939550610161565b9163f16dfbe991610a2260405190565b90610a2d8460e01b90565b82526001600160a01b0389166004830152602082602481885afa80156106f457610a608f918a9460009161070157501590565b610c31575b50610a709150610161565b936020610a7c60405190565b8092610a888560e01b90565b825260049082905afa9081156106f457600091610c12575b50610ab4610aad60405190565b9260e01b90565b8252602082600481895afa9182156106f457600092610be1575b50843b1561006857610b02948d92838993610ae860405190565b98899586948593630da3a02960e01b8552600485016104a3565b03925af19182156106f457610b2693602093610bc5575b5060405193849260e01b90565b82526001600160a01b038a16600483015260249082905afa80156106f457610b549160009161070157501590565b610b60575b50506109d2565b803b1561006857610b948892918392610b7860405190565b94859384928391906340c10f1960e01b83528c600484016107b8565b03925af180156106f457610ba9575b80610b59565b610bbf90873d89116106ed576106de8183610258565b38610ba3565b610bdb908d803d106106ed576106de8183610258565b38610b19565b610c0491925060203d602011610c0b575b610bfc8183610258565b8101906107a4565b9038610ace565b503d610bf2565b610c2b915060203d602011610c0b57610bfc8183610258565b38610aa0565b610c61926020918b610c4260405190565b809681948293610c566379cc679060e01b90565b8452600484016107b8565b03918a5af19182156106f457610a7092610c80575b508791508d610a65565b610c989060203d6020116107275761071b8183610258565b610c76565b610cb6915060203d602011610c0b57610bfc8183610258565b3861098d565b610cd691965060203d602011610c0b57610bfc8183610258565b943861095b565b610745915060203d6020116107275761071b8183610258565b610d0f915060203d602011610773576107658183610258565b38610880565b60005b838110610d285750506000910152565b8181015183820152602001610d18565b6102b0610d5092602092610d4a815190565b94859290565b93849101610d15565b61005391610d38565b6020610de991610d70600090565b50610d866105756000546001600160a01b031690565b90610dae610d9360405190565b8092610da28683019182610d59565b90810382520382610258565b610dc0610db9825190565b9160200190565b2090610dcb60405190565b9384928391829163118c894b60e01b83526004830190815260200190565b03915afa9081156106f457600091610dff575090565b610053915060203d602011610c0b57610bfc818361025856fe60806040523461002a576100196100146100c2565b610136565b60405161020d610142823961020d90f35b600080fd5b634e487b7160e01b600052604160045260246000fd5b90601f01601f191681019081106001600160401b0382111761006657604052565b61002f565b9061007f61007860405190565b9283610045565b565b6001600160a01b031690565b90565b6001600160a01b0381160361002a57565b9050519061007f82610090565b9060208282031261002a5761008d916100a1565b61008d61034f803803806100d58161006b565b9283398101906100ae565b61008d90610081906001600160a01b031682565b61008d906100e0565b61008d906100f4565b9061011661008d610132926100fd565b82546001600160a01b0319166001600160a01b03919091161790565b9055565b61007f90600061010656fe6080604052600436101561001257600080fd5b60003560e01c630da3a029036100485761009f565b6001600160a01b031690565b90565b6001600160a01b0381165b0361004857565b600080fd5b9050359061005a82610036565b565b80610041565b9050359061005a8261005c565b909160608284031261004857610033610088848461004d565b936040610098826020870161004d565b9401610062565b34610048576100b86100b236600461006f565b9161015b565b604051005b61003390610027906001600160a01b031682565b610033906100bd565b610033906100d1565b634e487b7160e01b600052604160045260246000fd5b90601f01601f1916810190811067ffffffffffffffff82111761011b57604052565b6100e3565b600091031261004857565b6001600160a01b0391821681529116602082015260608101929161005a9160400152565b6040513d6000823e3d90fd5b90916101776101726000546001600160a01b031690565b6100da565b803b15610048576101a9936000809461018f60405190565b9687958694859363bb35783b60e01b85526004850161012b565b03925af180156101d2576101ba5750565b61005a9060006101ca81836100f9565b810190610120565b61014f56fea2646970667358221220423e44c679d184ba635d63cc361cdf5d2a4509d4b322fc715b6b0e1ee6500dba64736f6c63430008190033a264697066735822122072a4f9813e70942fd84f97a4a474b2f141b752591b2fc24a0f8f40dfc6c1f34564736f6c63430008190033",
  "linkReferences": {},
  "deployedLinkReferences": {}
}