{
  "_format": "hh-sol-artifact-1",
  "contractName": "DvpEscrow",
  "sourceName": "contracts/ucl/DvpEscrow.sol",
  "abi": [
    {
      "inputs": [],
      "stateMutability": "nonpayable",
      "type": "constructor"
    },
    {
      "anonymous": false,
      "inputs": [
        {
          "indexed": true,
          "internalType": "address",
          "name": "burner",
          "type": "address"
        },
        {
          "indexed": true,
          "internalType": "address",
          "name": "account",
          "type": "address"
        },
        {
          "indexed": false,
          "internalType": "address",
          "name": "tokenAddress",
          "type": "address"
        },
        {
          "indexed": false,
          "internalType": "uint256",
          "name": "value",
          "type": "uint256"
        },
        {
          "indexed": false,
          "internalType": "uint256",
          "name": "fromBalance",
          "type": "uint256"
        },
        {
          "indexed": false,
          "internalType": "uint256",
          "name": "toBalance",
          "type": "uint256"
        }
      ],
      "name": "EscrowBurn",
      "type": "event"
    },
    {
      "anonymous": false,
      "inputs": [
        {
          "indexed": true,
          "internalType": "address",
          "name": "burner",
          "type": "address"
        },
        {
          "indexed": true,
          "internalType": "address",
          "name": "account",
          "type": "address"
        },
        {
          "indexed": false,
          "internalType": "address",
          "name": "tokenAddress",
          "type": "address"
        },
        {
          "indexed": false,
          "internalType": "uint256",
          "name": "tokenType",
          "type": "uint256"
        },
        {
          "indexed": false,
          "internalType": "uint256",
          "name": "value",
          "type": "uint256"
        },
        {
          "indexed": false,
          "internalType": "uint256",
          "name": "fromBalance",
          "type": "uint256"
        },
        {
          "indexed": false,
          "internalType": "uint256",
          "name": "toBalance",
          "type": "uint256"
        }
      ],
      "name": "EscrowBurn1155",
      "type": "event"
    },
    {
      "anonymous": false,
      "inputs": [
        {
          "indexed": true,
          "internalType": "address",
          "name": "minter",
          "type": "address"
        },
        {
          "indexed": true,
          "internalType": "address",
          "name": "account",
          "type": "address"
        },
        {
          "indexed": false,
          "internalType": "address",
          "name": "tokenAddress",
          "type": "address"
        },
        {
          "indexed": false,
          "internalType": "uint256",
          "name": "value",
          "type": "uint256"
        },
        {
          "indexed": false,
          "internalType": "uint256",
          "name": "fromBalance",
          "type": "uint256"
        },
        {
          "indexed": false,
          "internalType": "uint256",
          "name": "toBalance",
          "type": "uint256"
        }
      ],
      "name": "EscrowMint",
      "type": "event"
    },
    {
      "anonymous": false,
      "inputs": [
        {
          "indexed": true,
          "internalType": "address",
          "name": "minter",
          "type": "address"
        },
        {
          "indexed": true,
          "internalType": "address",
          "name": "account",
          "type": "address"
        },
        {
          "indexed": false,
          "internalType": "address",
          "name": "tokenAddress",
          "type": "address"
        },
        {
          "indexed": false,
          "internalType": "uint256",
          "name": "tokenType",
          "type": "uint256"
        },
        {
          "indexed": false,
          "internalType": "uint256",
          "name": "value",
          "type": "uint256"
        },
        {
          "indexed": false,
          "internalType": "uint256",
          "name": "fromBalance",
          "type": "uint256"
        },
        {
          "indexed": false,
          "internalType": "uint256",
          "name": "toBalance",
          "type": "uint256"
        }
      ],
      "name": "EscrowMint1155",
      "type": "event"
    },
    {
      "anonymous": false,
      "inputs": [
        {
          "indexed": true,
          "internalType": "address",
          "name": "escrow",
          "type": "address"
        },
        {
          "indexed": true,
          "internalType": "address",
          "name": "account",
          "type": "address"
        },
        {
          "indexed": false,
          "internalType": "address",
          "name": "tokenAddress",
          "type": "address"
        },
        {
          "indexed": false,
          "internalType": "uint256",
          "name": "value",
          "type": "uint256"
        },
        {
          "indexed": false,
          "internalType": "uint256",
          "name": "fromBalance",
          "type": "uint256"
        },
        {
          "indexed": false,
          "internalType": "uint256",
          "name": "toBalance",
          "type": "uint256"
        }
      ],
      "name": "EscrowReturn",
      "type": "event"
    },
    {
      "anonymous": false,
      "inputs": [
        {
          "indexed": true,
          "internalType": "address",
          "name": "escrow",
          "type": "address"
        },
        {
          "indexed": true,
          "internalType": "address",
          "name": "account",
          "type": "address"
        },
        {
          "indexed": false,
          "internalType": "address",
          "name": "tokenAddress",
          "type": "address"
        },
        {
          "indexed": false,
          "internalType": "uint256",
          "name": "tokenType",
          "type": "uint256"
        },
        {
          "indexed": false,
          "internalType": "uint256",
          "name": "value",
          "type": "uint256"
        },
        {
          "indexed": false,
          "internalType": "uint256",
          "name": "fromBalance",
          "type": "uint256"
        },
        {
          "indexed": false,
          "internalType": "uint256",
          "name": "toBalance",
          "type": "uint256"
        }
      ],
      "name": "EscrowReturn1155",
      "type": "event"
    },
    {
      "anonymous": false,
      "inputs": [
        {
          "indexed": true,
          "internalType": "address",
          "name": "burner",
          "type": "address"
        },
        {
          "indexed": true,
          "internalType": "address",
          "name": "account",
          "type": "address"
        },
        {
          "indexed": false,
          "internalType": "address",
          "name": "tokenAddress",
          "type": "address"
        },
        {
          "indexed": false,
          "internalType": "uint256",
          "name": "value",
          "type": "uint256"
        },
        {
          "indexed": false,
          "internalType": "uint256",
          "name": "fromBalance",
          "type": "uint256"
        },
        {
          "indexed": false,
          "internalType": "uint256",
          "name": "toBalance",
          "type": "uint256"
        }
      ],
      "name": "EscrowScheduleBurn",
      "type": "event"
    },
    {
      "anonymous": false,
      "inputs": [
        {
          "indexed": true,
          "internalType": "address",
          "name": "burner",
          "type": "address"
        },
        {
          "indexed": true,
          "internalType": "address",
          "name": "account",
          "type": "address"
        },
        {
          "indexed": false,
          "internalType": "address",
          "name": "tokenAddress",
          "type": "address"
        },
        {
          "indexed": false,
          "internalType": "uint256",
          "name": "tokenType",
          "type": "uint256"
        },
        {
          "indexed": false,
          "internalType": "uint256",
          "name": "value",
          "type": "uint256"
        },
        {
          "indexed": false,
          "internalType": "uint256",
          "name": "fromBalance",
          "type": "uint256"
        },
        {
          "indexed": false,
          "internalType": "uint256",
          "name": "toBalance",
          "type": "uint256"
        }
      ],
      "name": "EscrowScheduleBurn1155",
      "type": "event"
    },
    {
      "anonymous": false,
      "inputs": [
        {
          "indexed": true,
          "internalType": "address",
          "name": "minter",
          "type": "address"
        },
        {
          "indexed": true,
          "internalType": "address",
          "name": "account",
          "type": "address"
        },
        {
          "indexed": false,
          "internalType": "address",
          "name": "tokenAddress",
          "type": "address"
        },
        {
          "indexed": false,
          "internalType": "uint256",
          "name": "value",
          "type": "uint256"
        },
        {
          "indexed": false,
          "internalType": "uint256",
          "name": "fromBalance",
          "type": "uint256"
        },
        {
          "indexed": false,
          "internalType": "uint256",
          "name": "toBalance",
          "type": "uint256"
        }
      ],
      "name": "EscrowScheduleMint",
      "type": "event"
    },
    {
      "anonymous": false,
      "inputs": [
        {
          "indexed": true,
          "internalType": "address",
          "name": "minter",
          "type": "address"
        },
        {
          "indexed": true,
          "internalType": "address",
          "name": "account",
          "type": "address"
        },
        {
          "indexed": false,
          "internalType": "address",
          "name": "tokenAddress",
          "type": "address"
        },
        {
          "indexed": false,
          "internalType": "uint256",
          "name": "TokenType",
          "type": "uint256"
        },
        {
          "indexed": false,
          "internalType": "uint256",
          "name": "value",
          "type": "uint256"
        },
        {
          "indexed": false,
          "internalType": "uint256",
          "name": "fromBalance",
          "type": "uint256"
        },
        {
          "indexed": false,
          "internalType": "uint256",
          "name": "toBalance",
          "type": "uint256"
        }
      ],
      "name": "EscrowScheduleMint1155",
      "type": "event"
    },
    {
      "anonymous": false,
      "inputs": [
        {
          "indexed": true,
          "internalType": "address",
          "name": "from",
          "type": "address"
        },
        {
          "indexed": true,
          "internalType": "address",
          "name": "to",
          "type": "address"
        },
        {
          "indexed": false,
          "internalType": "address",
          "name": "tokenAddress",
          "type": "address"
        },
        {
          "indexed": false,
          "internalType": "uint256",
          "name": "value",
          "type": "uint256"
        },
        {
          "indexed": false,
          "internalType": "uint256",
          "name": "fromBalance",
          "type": "uint256"
        },
        {
          "indexed": false,
          "internalType": "uint256",
          "name": "toBalance",
          "type": "uint256"
        }
      ],
      "name": "EscrowScheduleTransfer",
      "type": "event"
    },
    {
      "anonymous": false,
      "inputs": [
        {
          "indexed": true,
          "internalType": "address",
          "name": "from",
          "type": "address"
        },
        {
          "indexed": true,
          "internalType": "address",
          "name": "to",
          "type": "address"
        },
        {
          "indexed": false,
          "internalType": "address",
          "name": "tokenAddress",
          "type": "address"
        },
        {
          "indexed": false,
          "internalType": "uint256",
          "name": "tokenType",
          "type": "uint256"
        },
        {
          "indexed": false,
          "internalType": "uint256",
          "name": "value",
          "type": "uint256"
        },
        {
          "indexed": false,
          "internalType": "uint256",
          "name": "fromBalance",
          "type": "uint256"
        },
        {
          "indexed": false,
          "internalType": "uint256",
          "name": "toBalance",
          "type": "uint256"
        }
      ],
      "name": "EscrowScheduleTransfer1155",
      "type": "event"
    },
    {
      "anonymous": false,
      "inputs": [
        {
          "indexed": true,
          "internalType": "address",
          "name": "from",
          "type": "address"
        },
        {
          "indexed": true,
          "internalType": "address",
          "name": "to",
          "type": "address"
        },
        {
          "indexed": false,
          "internalType": "address",
          "name": "tokenAddress",
          "type": "address"
        },
        {
          "indexed": false,
          "internalType": "uint256",
          "name": "value",
          "type": "uint256"
        },
        {
          "indexed": false,
          "internalType": "uint256",
          "name": "fromBalance",
          "type": "uint256"
        },
        {
          "indexed": false,
          "internalType": "uint256",
          "name": "toBalance",
          "type": "uint256"
        }
      ],
      "name": "EscrowTransfer",
      "type": "event"
    },
    {
      "anonymous": false,
      "inputs": [
        {
          "indexed": true,
          "internalType": "address",
          "name": "from",
          "type": "address"
        },
        {
          "indexed": true,
          "internalType": "address",
          "name": "to",
          "type": "address"
        },
        {
          "indexed": false,
          "internalType": "address",
          "name": "tokenAddress",
          "type": "address"
        },
        {
          "indexed": false,
          "internalType": "uint256",
          "name": "tokenType",
          "type": "uint256"
        },
        {
          "indexed": false,
          "internalType": "uint256",
          "name": "value",
          "type": "uint256"
        },
        {
          "indexed": false,
          "internalType": "uint256",
          "name": "fromBalance",
          "type": "uint256"
        },
        {
          "indexed": false,
          "internalType": "uint256",
          "name": "toBalance",
          "type": "uint256"
        }
      ],
      "name": "EscrowTransfer1155",
      "type": "event"
    },
    {
      "inputs": [],
      "name": "Admin",
      "outputs": [
        {
          "internalType": "address",
          "name": "",
          "type": "address"
        }
      ],
      "stateMutability": "view",
      "type": "function"
    },
    {
      "inputs": [
        {
          "internalType": "uint256",
          "name": "",
          "type": "uint256"
        }
      ],
      "name": "Transactions",
      "outputs": [
        {
          "internalType": "address",
          "name": "tokenAddress",
          "type": "address"
        },
        {
          "internalType": "uint256",
          "name": "index",
          "type": "uint256"
        },
        {
          "internalType": "uint256",
          "name": "chunkHash",
          "type": "uint256"
        },
        {
          "internalType": "uint256",
          "name": "bundleHash",
          "type": "uint256"
        },
        {
          "internalType": "enum DvpEscrow.EscortingType",
          "name": "txType",
          "type": "uint8"
        },
        {
          "internalType": "address",
          "name": "to",
          "type": "address"
        },
        {
          "internalType": "address",
          "name": "from",
          "type": "address"
        },
        {
          "internalType": "enum DvpEscrow.TokenStandard",
          "name": "tokenStandard",
          "type": "uint8"
        },
        {
          "internalType": "uint256",
          "name": "tokenType",
          "type": "uint256"
        },
        {
          "internalType": "uint256",
          "name": "amount",
          "type": "uint256"
        },
        {
          "internalType": "uint256",
          "name": "expireTime",
          "type": "uint256"
        },
        {
          "internalType": "bool",
          "name": "pending",
          "type": "bool"
        }
      ],
      "stateMutability": "view",
      "type": "function"
    },
    {
      "inputs": [
        {
          "internalType": "uint256",
          "name": "",
          "type": "uint256"
        }
      ],
      "name": "_tmsScheduleTxs",
      "outputs": [
        {
          "internalType": "uint256",
          "name": "index",
          "type": "uint256"
        },
        {
          "internalType": "uint256",
          "name": "chunkHash",
          "type": "uint256"
        },
        {
          "internalType": "uint256",
          "name": "bundleHash",
          "type": "uint256"
        },
        {
          "internalType": "uint256",
          "name": "expireTime",
          "type": "uint256"
        },
        {
          "internalType": "bool",
          "name": "pending",
          "type": "bool"
        }
      ],
      "stateMutability": "view",
      "type": "function"
    },
    {
      "inputs": [
        {
          "internalType": "uint256",
          "name": "bundleHash",
          "type": "uint256"
        }
      ],
      "name": "cancel",
      "outputs": [],
      "stateMutability": "nonpayable",
      "type": "function"
    },
    {
      "inputs": [
        {
          "internalType": "uint256",
          "name": "bundleHash",
          "type": "uint256"
        }
      ],
      "name": "cancelERC1155",
      "outputs": [],
      "stateMutability": "nonpayable",
      "type": "function"
    },
    {
      "inputs": [
        {
          "internalType": "uint256",
          "name": "bundleHash",
          "type": "uint256"
        }
      ],
      "name": "cancelERC20",
      "outputs": [],
      "stateMutability": "nonpayable",
      "type": "function"
    },
    {
      "inputs": [
        {
          "internalType": "address",
          "name": "account",
          "type": "address"
        },
        {
          "internalType": "uint256",
          "name": "amount",
          "type": "uint256"
        }
      ],
      "name": "deposit",
      "outputs": [],
      "stateMutability": "nonpayable",
      "type": "function"
    },
    {
      "inputs": [
        {
          "internalType": "uint256",
          "name": "bundleHash",
          "type": "uint256"
        }
      ],
      "name": "execute",
      "outputs": [],
      "stateMutability": "nonpayable",
      "type": "function"
    },
    {
      "inputs": [
        {
          "internalType": "uint256",
          "name": "bundleHash",
          "type": "uint256"
        }
      ],
      "name": "executeERC1155",
      "outputs": [],
      "stateMutability": "nonpayable",
      "type": "function"
    },
    {
      "inputs": [
        {
          "internalType": "uint256",
          "name": "bundleHash",
          "type": "uint256"
        }
      ],
      "name": "executeERC20",
      "outputs": [],
      "stateMutability": "nonpayable",
      "type": "function"
    },
    {
      "inputs": [
        {
          "internalType": "address",
          "name": "account",
          "type": "address"
        }
      ],
      "name": "getBalance",
      "outputs": [
        {
          "internalType": "uint256",
          "name": "",
          "type": "uint256"
        }
      ],
      "stateMutability": "view",
      "type": "function"
    },
    {
      "inputs": [
        {
          "internalType": "address",
          "name": "account",
          "type": "address"
        },
        {
          "internalType": "uint256",
          "name": "tokenType",
          "type": "uint256"
        }
      ],
      "name": "getBalance1155",
      "outputs": [
        {
          "internalType": "uint256",
          "name": "",
          "type": "uint256"
        }
      ],
      "stateMutability": "view",
      "type": "function"
    },
    {
      "inputs": [
        {
          "internalType": "address",
          "name": "operator",
          "type": "address"
        },
        {
          "internalType": "address",
          "name": "from",
          "type": "address"
        },
        {
          "internalType": "uint256[]",
          "name": "ids",
          "type": "uint256[]"
        },
        {
          "internalType": "uint256[]",
          "name": "values",
          "type": "uint256[]"
        },
        {
          "internalType": "bytes",
          "name": "data",
          "type": "bytes"
        }
      ],
      "name": "onERC1155BatchReceived",
      "outputs": [
        {
          "internalType": "bytes4",
          "name": "",
          "type": "bytes4"
        }
      ],
      "stateMutability": "nonpayable",
      "type": "function"
    },
    {
      "inputs": [
        {
          "internalType": "address",
          "name": "operator",
          "type": "address"
        },
        {
          "internalType": "address",
          "name": "from",
          "type": "address"
        },
        {
          "internalType": "uint256",
          "name": "id",
          "type": "uint256"
        },
        {
          "internalType": "uint256",
          "name": "value",
          "type": "uint256"
        },
        {
          "internalType": "bytes",
          "name": "data",
          "type": "bytes"
        }
      ],
      "name": "onERC1155Received",
      "outputs": [
        {
          "internalType": "bytes4",
          "name": "",
          "type": "bytes4"
        }
      ],
      "stateMutability": "nonpayable",
      "type": "function"
    },
    {
      "inputs": [
        {
          "components": [
            {
              "internalType": "address",
              "name": "tokenAddress",
              "type": "address"
            },
            {
              "internalType": "address",
              "name": "to",
              "type": "address"
            },
            {
              "internalType": "uint256",
              "name": "tokenType",
              "type": "uint256"
            },
            {
              "internalType": "uint256",
              "name": "amount",
              "type": "uint256"
            },
            {
              "internalType": "uint256",
              "name": "index",
              "type": "uint256"
            },
            {
              "internalType": "uint256",
              "name": "chunkHash",
              "type": "uint256"
            },
            {
              "internalType": "uint256",
              "name": "bundleHash",
              "type": "uint256"
            },
            {
              "internalType": "uint256",
              "name": "expireTime",
              "type": "uint256"
            },
            {
              "internalType": "address",
              "name": "sender",
              "type": "address"
            }
          ],
          "internalType": "struct ScheduleRequest",
          "name": "request",
          "type": "tuple"
        }
      ],
      "name": "scheduleBurn",
      "outputs": [
        {
          "internalType": "bool",
          "name": "",
          "type": "bool"
        }
      ],
      "stateMutability": "nonpayable",
      "type": "function"
    },
    {
      "inputs": [
        {
          "components": [
            {
              "internalType": "address",
              "name": "tokenAddress",
              "type": "address"
            },
            {
              "internalType": "address",
              "name": "to",
              "type": "address"
            },
            {
              "internalType": "uint256",
              "name": "tokenType",
              "type": "uint256"
            },
            {
              "internalType": "uint256",
              "name": "amount",
              "type": "uint256"
            },
            {
              "internalType": "uint256",
              "name": "index",
              "type": "uint256"
            },
            {
              "internalType": "uint256",
              "name": "chunkHash",
              "type": "uint256"
            },
            {
              "internalType": "uint256",
              "name": "bundleHash",
              "type": "uint256"
            },
            {
              "internalType": "uint256",
              "name": "expireTime",
              "type": "uint256"
            },
            {
              "internalType": "address",
              "name": "sender",
              "type": "address"
            }
          ],
          "internalType": "struct ScheduleRequest",
          "name": "request",
          "type": "tuple"
        }
      ],
      "name": "scheduleBurn1155",
      "outputs": [
        {
          "internalType": "bool",
          "name": "",
          "type": "bool"
        }
      ],
      "stateMutability": "nonpayable",
      "type": "function"
    },
    {
      "inputs": [
        {
          "components": [
            {
              "internalType": "uint256",
              "name": "index",
              "type": "uint256"
            },
            {
              "internalType": "uint256",
              "name": "chunkHash",
              "type": "uint256"
            },
            {
              "internalType": "uint256",
              "name": "bundleHash",
              "type": "uint256"
            },
            {
              "internalType": "uint256",
              "name": "expireTime",
              "type": "uint256"
            },
            {
              "components": [
                {
                  "internalType": "address",
                  "name": "tokenScAddress",
                  "type": "address"
                },
                {
                  "internalType": "uint256",
                  "name": "tokenType",
                  "type": "uint256"
                },
                {
                  "internalType": "address",
                  "name": "account",
                  "type": "address"
                },
                {
                  "internalType": "uint256",
                  "name": "amount",
                  "type": "uint256"
                }
              ],
              "internalType": "struct BurnRequest[]",
              "name": "burnRequests",
              "type": "tuple[]"
            },
            {
              "components": [
                {
                  "internalType": "address",
                  "name": "tokenScAddress",
                  "type": "address"
                },
                {
                  "internalType": "uint256",
                  "name": "tokenType",
                  "type": "uint256"
                },
                {
                  "internalType": "address",
                  "name": "account",
                  "type": "address"
                },
                {
                  "internalType": "uint256",
                  "name": "amount",
                  "type": "uint256"
                }
              ],
              "internalType": "struct MintRequest[]",
              "name": "mintRequests",
              "type": "tuple[]"
            },
            {
              "components": [
                {
                  "internalType": "address",
                  "name": "tokenScAddress",
                  "type": "address"
                },
                {
                  "internalType": "uint256",
                  "name": "tokenType",
                  "type": "uint256"
                },
                {
                  "internalType": "address",
                  "name": "account",
                  "type": "address"
                },
                {
                  "internalType": "uint256",
                  "name": "amount",
                  "type": "uint256"
                },
                {
                  "internalType": "address",
                  "name": "toBankAddress",
                  "type": "address"
                }
              ],
              "internalType": "struct BurnSettleRequest[]",
              "name": "burnSettleRequests",
              "type": "tuple[]"
            },
            {
              "components": [
                {
                  "internalType": "address",
                  "name": "tokenScAddress",
                  "type": "address"
                },
                {
                  "internalType": "uint256",
                  "name": "tokenType",
                  "type": "uint256"
                },
                {
                  "internalType": "address",
                  "name": "from",
                  "type": "address"
                },
                {
                  "internalType": "address",
                  "name": "to",
                  "type": "address"
                },
                {
                  "internalType": "uint256",
                  "name": "amount",
                  "type": "uint256"
                }
              ],
              "internalType": "struct TransferRequest[]",
              "name": "transferRequests",
              "type": "tuple[]"
            }
          ],
          "internalType": "struct ScheduleRequest2",
          "name": "request",
          "type": "tuple"
        }
      ],
      "name": "scheduleBurnMintAndGenerate",
      "outputs": [
        {
          "internalType": "bool",
          "name": "",
          "type": "bool"
        }
      ],
      "stateMutability": "nonpayable",
      "type": "function"
    },
    {
      "inputs": [
        {
          "components": [
            {
              "internalType": "address",
              "name": "tokenAddress",
              "type": "address"
            },
            {
              "internalType": "address",
              "name": "to",
              "type": "address"
            },
            {
              "internalType": "uint256",
              "name": "tokenType",
              "type": "uint256"
            },
            {
              "internalType": "uint256",
              "name": "amount",
              "type": "uint256"
            },
            {
              "internalType": "uint256",
              "name": "index",
              "type": "uint256"
            },
            {
              "internalType": "uint256",
              "name": "chunkHash",
              "type": "uint256"
            },
            {
              "internalType": "uint256",
              "name": "bundleHash",
              "type": "uint256"
            },
            {
              "internalType": "uint256",
              "name": "expireTime",
              "type": "uint256"
            },
            {
              "internalType": "address",
              "name": "sender",
              "type": "address"
            }
          ],
          "internalType": "struct ScheduleRequest",
          "name": "request",
          "type": "tuple"
        }
      ],
      "name": "scheduleMint",
      "outputs": [
        {
          "internalType": "bool",
          "name": "",
          "type": "bool"
        }
      ],
      "stateMutability": "nonpayable",
      "type": "function"
    },
    {
      "inputs": [
        {
          "components": [
            {
              "internalType": "address",
              "name": "tokenAddress",
              "type": "address"
            },
            {
              "internalType": "address",
              "name": "to",
              "type": "address"
            },
            {
              "internalType": "uint256",
              "name": "tokenType",
              "type": "uint256"
            },
            {
              "internalType": "uint256",
              "name": "amount",
              "type": "uint256"
            },
            {
              "internalType": "uint256",
              "name": "index",
              "type": "uint256"
            },
            {
              "internalType": "uint256",
              "name": "chunkHash",
              "type": "uint256"
            },
            {
              "internalType": "uint256",
              "name": "bundleHash",
              "type": "uint256"
            },
            {
              "internalType": "uint256",
              "name": "expireTime",
              "type": "uint256"
            },
            {
              "internalType": "address",
              "name": "sender",
              "type": "address"
            }
          ],
          "internalType": "struct ScheduleRequest",
          "name": "request",
          "type": "tuple"
        }
      ],
      "name": "scheduleMint1155",
      "outputs": [
        {
          "internalType": "bool",
          "name": "",
          "type": "bool"
        }
      ],
      "stateMutability": "nonpayable",
      "type": "function"
    },
    {
      "inputs": [
        {
          "components": [
            {
              "internalType": "address",
              "name": "tokenAddress",
              "type": "address"
            },
            {
              "internalType": "address",
              "name": "to",
              "type": "address"
            },
            {
              "internalType": "uint256",
              "name": "tokenType",
              "type": "uint256"
            },
            {
              "internalType": "uint256",
              "name": "amount",
              "type": "uint256"
            },
            {
              "internalType": "uint256",
              "name": "index",
              "type": "uint256"
            },
            {
              "internalType": "uint256",
              "name": "chunkHash",
              "type": "uint256"
            },
            {
              "internalType": "uint256",
              "name": "bundleHash",
              "type": "uint256"
            },
            {
              "internalType": "uint256",
              "name": "expireTime",
              "type": "uint256"
            },
            {
              "internalType": "address",
              "name": "sender",
              "type": "address"
            }
          ],
          "internalType": "struct ScheduleRequest",
          "name": "request",
          "type": "tuple"
        }
      ],
      "name": "scheduleTransfer",
      "outputs": [
        {
          "internalType": "bool",
          "name": "",
          "type": "bool"
        }
      ],
      "stateMutability": "nonpayable",
      "type": "function"
    },
    {
      "inputs": [
        {
          "components": [
            {
              "internalType": "address",
              "name": "tokenAddress",
              "type": "address"
            },
            {
              "internalType": "address",
              "name": "to",
              "type": "address"
            },
            {
              "internalType": "uint256",
              "name": "tokenType",
              "type": "uint256"
            },
            {
              "internalType": "uint256",
              "name": "amount",
              "type": "uint256"
            },
            {
              "internalType": "uint256",
              "name": "index",
              "type": "uint256"
            },
            {
              "internalType": "uint256",
              "name": "chunkHash",
              "type": "uint256"
            },
            {
              "internalType": "uint256",
              "name": "bundleHash",
              "type": "uint256"
            },
            {
              "internalType": "uint256",
              "name": "expireTime",
              "type": "uint256"
            },
            {
              "internalType": "address",
              "name": "sender",
              "type": "address"
            }
          ],
          "internalType": "struct ScheduleRequest",
          "name": "request",
          "type": "tuple"
        }
      ],
      "name": "scheduleTransfer1155",
      "outputs": [
        {
          "internalType": "bool",
          "name": "",
          "type": "bool"
        }
      ],
      "stateMutability": "nonpayable",
      "type": "function"
    },
    {
      "inputs": [
        {
          "internalType": "bytes4",
          "name": "interfaceId",
          "type": "bytes4"
        }
      ],
      "name": "supportsInterface",
      "outputs": [
        {
          "internalType": "bool",
          "name": "",
          "type": "bool"
        }
      ],
      "stateMutability": "view",
      "type": "function"
    },
    {
      "inputs": [
        {
          "internalType": "address",
          "name": "account",
          "type": "address"
        },
        {
          "internalType": "uint256",
          "name": "amount",
          "type": "uint256"
        }
      ],
      "name": "withdraw",
      "outputs": [],
      "stateMutability": "nonpayable",
      "type": "function"
    }
  ],
  "bytecode": "0x608060405234601957604051613edd61001f8239613edd90f35b600080fdfe6080604052600436101561001257600080fd5b60003560e01c806301ffc9a71461018257806305b190a51461017d5780631dbc4f021461017857806333dcab1d1461017357806334008b161461016e57806340e58ee51461016957806347e7ef24146101645780636a2b45231461015f578063751f04bf1461015a5780637550415a1461015557806377b2fe5a1461015057806379f278cc1461014b5780638e98bd8c14610146578063bc197c8114610141578063bd7b6fc81461013c578063daaf249714610137578063f1962bcf14610132578063f23a6e611461012d578063f3fef3a314610128578063f8b2cb4f14610123578063fe0d94c11461011e578063fe75d926146101195763ff1b636d0361019a57610eaf565b610e66565b610e4e565b610e33565b610e06565b610de7565b610d8e565b610d73565b610d58565b61093c565b6107a7565b61078c565b610771565b610745565b61072a565b610712565b6106f9565b6106be565b610681565b610483565b610393565b610364565b6101c9565b6001600160e01b031981165b0361019a57565b600080fd5b905035906101ac82610187565b565b9060208282031261019a576101c29161019f565b90565b9052565b3461019a576102076101f56101df3660046101ae565b6001600160e01b031916630271189760e51b1490565b60405191829182901515815260200190565b0390f35b634e487b7160e01b600052604160045260246000fd5b90601f01601f1916810190811067ffffffffffffffff82111761024357604052565b61020b565b906101ac61025560405190565b9283610221565b6001600160a01b031690565b6001600160a01b038116610193565b905035906101ac82610268565b80610193565b905035906101ac82610284565b9190916101208184031261019a576103496102b3610120610248565b936102be8184610277565b85526102cd8160208501610277565b60208601526102df816040850161028a565b60408601526102f1816060850161028a565b6060860152610303816080850161028a565b60808601526103158160a0850161028a565b60a08601526103278160c0850161028a565b60c08601526103398160e0850161028a565b60e0860152610100809301610277565b90830152565b906101208282031261019a576101c291610297565b3461019a576102076101f561037a36600461034f565b611576565b9060208282031261019a576101c29161028a565b3461019a576103ab6103a636600461037f565b6115ab565b604051005b6101c26101c26101c29290565b906103c7906103b0565b600052602052604060002090565b6101c29081565b6101c290546103d5565b6101c2905b60ff1690565b6101c290546103e6565b6104069060046103bd565b61040f816103dc565b9161041c600183016103dc565b91610429600282016103dc565b916101c2600461043b600385016103dc565b93016103f1565b909594926101ac9461047461047b9261046d60809661046660a088019c6000890152565b6020870152565b6040850152565b6060830152565b019015159052565b3461019a5761020761049e61049936600461037f565b6103fb565b916104ab95939560405190565b95869586610442565b6101c29060081c61025c565b6101c290546104b4565b6101c29060a01c6103eb565b6101c290546104ca565b6104eb9060016103bd565b906104fd82546001600160a01b031690565b9161050a600182016103dc565b91610517600283016103dc565b91610524600382016103dc565b91610531600483016103f1565b9161053e600482016104c0565b9161055360058301546001600160a01b031690565b91610560600582016104d6565b9161056d600683016103dc565b9161057a600782016103dc565b916101c2600961043b600885016103dc565b634e487b7160e01b600052602160045260246000fd5b600311156105ac57565b61058c565b906101ac826105a2565b6101c2906105b1565b6101c5906105bb565b600211156105ac57565b906101ac826105cd565b6101c2906105d7565b6101c5906105e1565b99979593919c9b9a98969492909c6101808b019d60008c0161061c916001600160a01b03169052565b60208b015260408a0152606089015260808801610638916105c4565b6001600160a01b031660a08701526001600160a01b031660c086015260e08501610661916105ea565b610100840152610120830152610140820152610160016101ac9115159052565b3461019a5761020761069c61069736600461037f565b6104e0565b986106b59c9a9c98919897929796939695949560405190565b9c8d9c8d6105f3565b3461019a576103ab6106d136600461037f565b61193c565b919060408382031261019a576101c29060206106f28286610277565b940161028a565b3461019a576103ab61070c3660046106d6565b90611a7f565b3461019a576103ab61072536600461037f565b611abc565b3461019a576102076101f561074036600461034f565b611e4b565b3461019a5761020761076161075b3660046106d6565b90611e56565b6040519182918290815260200190565b3461019a576102076101f561078736600461034f565b611fa1565b3461019a576102076101f56107a236600461034f565b612130565b3461019a576103ab6107ba36600461037f565b61213b565b67ffffffffffffffff81116102435760208091020190565b909291926107ec6107e7826107bf565b610248565b938185526020808601920283019281841161019a57915b8383106108105750505050565b6020809161081e848661028a565b815201920191610803565b9080601f8301121561019a578160206101c2933591016107d7565b67ffffffffffffffff811161024357602090601f01601f19160190565b0190565b90826000939282370152565b909291926108816107e782610844565b938185528183011161019a576101ac916020850190610865565b9080601f8301121561019a578160206101c293359101610871565b91909160a08184031261019a576108cd8382610277565b926108db8160208401610277565b92604083013567ffffffffffffffff811161019a57826108fc918501610829565b92606081013567ffffffffffffffff811161019a578361091d918301610829565b92608082013567ffffffffffffffff811161019a576101c2920161089b565b3461019a5761020761095b6109523660046108b6565b93929092612212565b604051918291826001600160e01b0319909116815260200190565b919060808382031261019a576104749060606109926080610248565b9461099d8382610277565b86526109ac836020830161028a565b60208701526109be8360408301610277565b60408701520161028a565b909291926109d96107e7826107bf565b93818552608060208601920283019281841161019a57915b8383106109fe5750505050565b6020608091610a0d8486610976565b8152019201916109f1565b9080601f8301121561019a578160206101c2933591016109c9565b90929192610a436107e7826107bf565b93818552608060208601920283019281841161019a57915b838310610a685750505050565b6020608091610a778486610976565b815201920191610a5b565b9080601f8301121561019a578160206101c293359101610a33565b919060a08382031261019a57610b02906080610ab960a0610248565b94610ac48382610277565b8652610ad3836020830161028a565b6020870152610ae58360408301610277565b6040870152610af7836060830161028a565b606087015201610277565b6080830152565b90929192610b196107e7826107bf565b9381855260a060208601920283019281841161019a57915b838310610b3e5750505050565b602060a091610b4d8486610a9d565b815201920191610b31565b9080601f8301121561019a578160206101c293359101610b09565b919060a08382031261019a57610b02906080610b8f60a0610248565b94610b9a8382610277565b8652610ba9836020830161028a565b6020870152610bbb8360408301610277565b6040870152610bcd8360608301610277565b60608701520161028a565b90929192610be86107e7826107bf565b9381855260a060208601920283019281841161019a57915b838310610c0d5750505050565b602060a091610c1c8486610b73565b815201920191610c00565b9080601f8301121561019a578160206101c293359101610bd8565b9190916101008184031261019a57610c5b610100610248565b92610c66818361028a565b8452610c75816020840161028a565b6020850152610c87816040840161028a565b6040850152610c99816060840161028a565b6060850152608082013567ffffffffffffffff811161019a5781610cbe918401610a18565b608085015260a082013567ffffffffffffffff811161019a5781610ce3918401610a82565b60a085015260c082013567ffffffffffffffff811161019a5781610d08918401610b58565b60c085015260e082013567ffffffffffffffff811161019a57610d2b9201610c27565b60e0830152565b9060208282031261019a57813567ffffffffffffffff811161019a576101c29201610c42565b3461019a576102076101f5610d6e366004610d32565b612473565b3461019a576102076101f5610d8936600461034f565b61295d565b3461019a576103ab610da136600461037f565b612968565b91909160a08184031261019a57610dbd8382610277565b92610dcb8160208401610277565b92610dd9826040850161028a565b9261091d836060830161028a565b3461019a5761020761095b610dfd366004610da6565b93929092612a22565b3461019a576103ab610e193660046106d6565b90612a8d565b9060208282031261019a576101c291610277565b3461019a57610207610761610e49366004610e1f565b612acf565b3461019a576103ab610e6136600461037f565b612ae6565b3461019a576102076101f5610e7c36600461034f565b612ca8565b600091031261019a57565b6101c2916008021c61025c565b906101c29154610e8c565b6101c2600080610e99565b3461019a57610ebf366004610e81565b610207610eca610ea4565b604051918291826001600160a01b03909116815260200190565b90610ef16107e783610844565b918252565b610f006020610ee4565b7f696e76616c696420746f6b656e416464726573732069732070726f7669646564602082015290565b6101c2610ef6565b61025c6101c26101c29290565b6101c290610f31565b60005b838110610f5a5750506000910152565b8181015183820152602001610f4a565b610f8b610f9460209361086193610f7f815190565b80835293849260200190565b95869101610f47565b601f01601f191690565b60208082526101c292910190610f6a565b15610fb75750565b610fd990610fc460405190565b62461bcd60e51b815291829160048301610f9e565b0390fd5b6101c29190611023610ff683516001600160a01b031690565b610ffe610f29565b9061101c61100f61025c6000610f3e565b916001600160a01b031690565b1415610faf565b611063565b611032601d610ee4565b7f616d6f756e74206d7573742062652067726561746572207468616e2030000000602082015290565b6101c2611028565b906101c291611096611076606084015190565b61107e61105b565b9061109061108c60006103b0565b9190565b11610faf565b6110cf565b6110a56016610ee4565b75062756e646c6520686173682063616e277420626520360541b602082015290565b6101c261109b565b906101c2916110f86110e260c084015190565b6110ea6110c7565b9061101c61108c60006103b0565b611394565b906101c5906105b1565b906101c5906105d7565b6101c2610180610248565b906101ac611252600961112d611111565b9461114f61114282546001600160a01b031690565b6001600160a01b03168752565b61116561115e600183016103dc565b6020880152565b61117b611174600283016103dc565b6040880152565b61119161118a600383016103dc565b6060880152565b6111a96111a0600483016103f1565b608088016110fd565b6111c86111b8600483016104c0565b6001600160a01b031660a0880152565b6111ef6111df60058301546001600160a01b031690565b6001600160a01b031660c0880152565b6112076111fe600583016104d6565b60e08801611107565b61121e611216600683016103dc565b610100880152565b61123561122d600783016103dc565b610120880152565b61124c611244600883016103dc565b610140880152565b016103f1565b1515610160840152565b6101c29061111c565b1561126c57565b60405162461bcd60e51b815260206004820152603360248201527f7472616e73616374696f6e2077697468207468652073616d652062756e646c656044820152724861736820616c72656164792065786973747360681b6064820152608490fd5b6101c29061025c906001600160a01b031682565b6101c2906112cd565b6101c2906112e1565b801515610193565b905051906101ac826112f3565b9060208282031261019a576101c2916112fb565b6001600160a01b039182168152911660208201526060810192916101ac9160400152565b0152565b6040513d6000823e3d90fd5b6101c5906103b0565b6113406101ac9461138a606094989795611383608086019a60008701906001600160a01b03169052565b6020850152565b6040830190611350565b506001906113bf6101206113ba6113b56113af60c086015190565b866103bd565b61125c565b015190565b6113d76000916113d161108c846103b0565b14611265565b6114766101008301926113f184516001600160a01b031690565b61140061100f61025c86610f3e565b1461156e575b82810161142561142061142083516001600160a01b031690565b6112ea565b9361143786516001600160a01b031690565b6020611442306112ea565b91606086019783856114528b5190565b9361145c60405190565b9a8b95869485936323b872dd60e01b85526004850161131c565b03925af1948515611569576101c2976114bf611537967f8be353d3c6a773809a0533dfcfc649985fe4145e5ee815b5918155a96a8c94749361070c9961153c575b508b86612d13565b6114e46114d6610e4987516001600160a01b031690565b91516001600160a01b031690565b906115276114f987516001600160a01b031690565b9161151461150e6115088d5190565b956112ea565b966112ea565b9661151e60405190565b94859485611359565b0390a3516001600160a01b031690565b915190565b61155d9060203d602011611562575b6115558183610221565b810190611308565b6114b7565b503d61154b565b611344565b338452611406565b6101c2906000610fdd565b9060ff905b9181191691161790565b906115a06101c26115a792151590565b8254611581565b9055565b6101c26115b99160016103bd565b600481016115c6816103f1565b906000916115dc6115d6846105b1565b916105b1565b036115ff57506009826115f96115f46101ac9561125c565b613099565b01611590565b611608816103f1565b6116156115d660016105b1565b0361163257506009826115f961162d6101ac9561125c565b612f98565b61163b906103f1565b6116486115d660026105b1565b14611652575b5050565b6009826115f96116646101ac9561125c565b612e5c565b90610ef16107e7836107bf565b6101c26080610248565b906101ac6116e26003611691611676565b946116a661114282546001600160a01b031690565b6116b561115e600183016103dc565b6116dc6116cc60028301546001600160a01b031690565b6001600160a01b03166040880152565b016103dc565b6060840152565b6101c290611680565b906116fb825490565b61170481611669565b926117186020850191600052602060002090565b6000915b8383106117295750505050565b60046020600192611739856116e9565b81520192019201919061171c565b90611750825490565b61175981611669565b9261176d6020850191600052602060002090565b6000915b83831061177e5750505050565b6004602060019261178e856116e9565b815201920192019190611771565b6101c260a0610248565b906101ac61181960046117b761179c565b946117cc61114282546001600160a01b031690565b6117db61115e600183016103dc565b6117f26116cc60028301546001600160a01b031690565b6116dc61180960038301546001600160a01b031690565b6001600160a01b03166060880152565b6080840152565b6101c2906117a6565b90611832825490565b61183b81611669565b9261184f6020850191600052602060002090565b6000915b8383106118605750505050565b6005602060019261187085611820565b815201920192019190611853565b6101c2610100610248565b906101ac611922600761189a61187e565b946118ab6118a7826103dc565b8752565b6118ba61115e600183016103dc565b6118c9611174600283016103dc565b6118d861118a600383016103dc565b6118f06118e7600483016103f1565b15156080880152565b6119066118ff600583016116f2565b60a0880152565b61191c61191560068301611747565b60c0880152565b01611829565b60e0840152565b6101c290611889565b6101c290516105d7565b61195b608061195461194f8460046103bd565b611929565b0151151590565b6119df5761196d6113b58260016103bd565b610160810151151561198160005b91151590565b1461164e5760e06119b3910161199681611932565b6119a96119a360006105d7565b916105d7565b146119d157611932565b6119c06119a360016105d7565b146119c85750565b6101ac90611abc565b6119da83612968565b611932565b6101ac906131aa565b156119ef57565b60405162461bcd60e51b8152602060048201526015602482015274135d5cdd081cd95b99081cdbdb5948185b5bdd5b9d605a1b6044820152606490fd5b906103c7906112ea565b634e487b7160e01b600052601160045260246000fd5b91908201809211611a5957565b611a36565b9060001990611586565b90611a786101c26115a7926103b0565b8254611a5e565b90611ab6611aa76101ac93611aa0611a9760006103b0565b855b10156119e8565b6002611a2c565b91611ab1836103dc565b611a4c565b90611a68565b6101c2611aca9160016103bd565b60048101611ad7816103f1565b611ae46115d660006105b1565b148015611b37575b15611b0b575060006009826115f9611b066101ac9561125c565b613392565b611b14906103f1565b611b216115d660026105b1565b14611b295750565b600060096101ac9201611590565b50611b41816103f1565b611b4e6115d660016105b1565b14611aec565b6101c29190611b6d610ff683516001600160a01b031690565b906101c291611b80611076606084015190565b906101c291611b936110e260c084015190565b611c5e565b15611b9f57565b60405162461bcd60e51b815260206004820152601760248201527f63616e6e6f74207472616e7366657220746f2073656c660000000000000000006044820152606490fd5b6113406101ac94611c1e606094989795611c0e608086019a60008701906001600160a01b03169052565b6001600160a01b03166020850152565b6040830152565b909594926101ac94611c546113409261046d60809661046660a088019c60008901906001600160a01b03169052565b6060830190611350565b50600190611c796101206113ba6113b56113af60c086015190565b611c8b6000916113d161108c846103b0565b610100820191611ca283516001600160a01b031690565b611cb161100f61025c85610f3e565b14611e43575b611cec611ccb84516001600160a01b031690565b611ce561100f61025c60208601516001600160a01b031690565b1415611b98565b818101611d0661142061142083516001600160a01b031690565b91611d1885516001600160a01b031690565b91611d22306112ea565b9060408301956020611d32885190565b60608601978584611d418b5190565b99611d69611d4e60405190565b9b8c9687958694636321005960e11b5b865260048601611be4565b03925af1928315611569577fb64b2921cdd970311589fc48151c631c3a4ddf8d7dc80709a0106700898b990f87896115276101c29c611dbb8f9a886115379c611e209e611e1b9d611e26575b50612d13565b611dd96114d6611dd28a516001600160a01b031690565b855161075b565b96611e08611e02611dfc611df7611df78d516001600160a01b031690565b975190565b996112ea565b976112ea565b97611e1260405190565b95869586611c25565b935190565b916134d3565b611e3e9060203d602011611562576115558183610221565b611db5565b338352611cb7565b6101c2906000611b54565b6101c291611e71611e7692611e69600090565b506003611a2c565b6103bd565b6103dc565b6101c29190611e94610ff683516001600160a01b031690565b906101c291611ea7611076606084015190565b906101c291611eba6110e260c084015190565b50611ed96101206113ba6113b5611ed260c086015190565b60016103bd565b611eeb6000916113d161108c846103b0565b611f2e610100830192611f0584516001600160a01b031690565b611f1461100f61025c86610f3e565b14611f99575b611406611ccb85516001600160a01b031690565b03925af194851561156957611f77976114bf611537967f8be353d3c6a773809a0533dfcfc649985fe4145e5ee815b5918155a96a8c94749361070c99611f7c575b508580612d13565b600190565b611f949060203d602011611562576115558183610221565b611f6f565b338452611f1a565b6101c2906000611e7b565b6101c29190611fc5610ff683516001600160a01b031690565b906101c291611fd8611076606084015190565b906101c291611feb6110e260c084015190565b506001906120066101206113ba6113b56113af60c086015190565b6120186000916113d161108c846103b0565b61010082019161202f83516001600160a01b031690565b61203e61100f61025c85610f3e565b14612128575b81810161205e61142061142083516001600160a01b031690565b9161207085516001600160a01b031690565b612079306112ea565b9260408301956020612089885190565b606086019787846120988b5190565b976120b96120a560405190565b998a9687958694636321005960e11b611d5e565b03925af1948515611569577fb64b2921cdd970311589fc48151c631c3a4ddf8d7dc80709a0106700898b990f87896115276101c29c611dbb8f9a6115379b611e1b9b611e209e61210b575b5080612d13565b6121239060203d602011611562576115558183610221565b612104565b338352612044565b6101c2906000611fac565b6101c26121499160016103bd565b60048101612156816103f1565b906000916121666115d6846105b1565b0361218357506009826115f961217e6101ac9561125c565b6136fb565b61218c816103f1565b6121996115d660016105b1565b036121b657506009826115f96121b16101ac9561125c565b6135f9565b6121bf906103f1565b6121cc6115d660026105b1565b146121d5575050565b6009826115f96121e76101ac9561125c565b6134fc565b6122056121ff6101c29263ffffffff1690565b60e01b90565b6001600160e01b03191690565b505050505061221f600090565b506101c263bc197c816121ec565b1561223457565b60405162461bcd60e51b815260206004820152602160248201527f616e20647670207472616e73616374696f6e20616c72656164792065786973746044820152607360f81b6064820152608490fd5b634e487b7160e01b600052603260045260246000fd5b906122a2825190565b8110156122b3576020809102010190565b612283565b80548210156122b3576122d2600491600052602060002090565b91020190600090565b634e487b7160e01b600052600060045260246000fd5b906001600160a01b0390611586565b906123106101c26115a7926112ea565b82546122f1565b600361237660606101ac9461233f61233960008301516001600160a01b031690565b86612300565b61235661234d602083015190565b60018701611a68565b6113ba61236d60408301516001600160a01b031690565b60028701612300565b9101611a68565b919061238c576101ac91612317565b6122db565b90815491600160401b83101561024357826123b49160016101ac950181556122b8565b9061237d565b80548210156122b3576122d2600591600052602060002090565b600461237660806101ac946123f661233960008301516001600160a01b031690565b61240461234d602083015190565b61241b61236d60408301516001600160a01b031690565b6113ba61243260608301516001600160a01b031690565b60038701612300565b919061238c576101ac916123d4565b90815491600160401b831015610243578261246d9160016101ac950181556123ba565b9061243b565b6040810161248c6101c2612485835190565b60046103bd565b612508600382016124fe6124f56124a2836103dc565b956000966124b261108c896103b0565b14806127f3575b6124c59098969861222d565b6124da6124d28888015190565b888a01611a68565b6124f16124e8602088015190565b60018a01611a68565b5190565b60028701611a68565b6060830151611ab6565b600192839161251a8360048401611590565b82612524856103b0565b905b61277e575b5082612536856103b0565b905b6126fa575b5082612548856103b0565b905b6125f7575b508261255a856103b0565b905b612569575b505050505090565b60e082019061257a6101c283515190565b8110156125f1576125e5612592826125eb9451612299565b516125dc6125a9898301516001600160a01b031690565b602083015160408401516001600160a01b031660608501516001600160a01b0316916125d6608087015190565b9361393f565b6007860161244a565b60010190565b8361255c565b50612561565b8460c0839495930161260b6101c282515190565b8310156126ef5782916126dd6126286126e6956125e59451612299565b51610474838201916126cd61264484516001600160a01b031690565b916104666126b36126ae6126a061269b602086019961268e6126648c5190565b996040890198606061267d8b516001600160a01b031690565b91019b6126888d5190565b9261381b565b516001600160a01b031690565b985190565b93516001600160a01b031690565b945190565b956126bc611676565b988901906001600160a01b03169052565b6001600160a01b03166040850152565b60058701612391565b8193929161254a565b50509291909261254f565b60a082939492019061270e6101c283515190565b811015612774576125e56127268261276b9451612299565b5161276261273d898301516001600160a01b031690565b602083015160408401516001600160a01b03169061275c606086015190565b926138ec565b60068701612391565b81939291612538565b509291909261253d565b60808293949201906127926101c283515190565b8110156127e9576125e56127aa826127e09451612299565b516126dd6127c1898301516001600160a01b031690565b602083015160408401516001600160a01b031690612688606086015190565b81939291612526565b509291909261252b565b506124c561280a612806600489016103f1565b1590565b90506124b9565b6101c2919061282a610ff683516001600160a01b031690565b906101c29161283d611076606084015190565b906101c2916128506110e260c084015190565b506101c2612918611dfc611e20611537611e1b6001966128836101206113ba6113b561287d60c086015190565b8c6103bd565b6128956000916113d161108c846103b0565b6101008201906128ac82516001600160a01b031690565b6128bb61100f61025c84610f3e565b14612955575b6128cd8360028c612d13565b7faf8a3e347a1d39dc1d291f8d4272ad009ce8844d82000d2d2e6d69ed6e5140a68184019361290385516001600160a01b031690565b611527612926604084019c8d9361075b855190565b96516001600160a01b031690565b95612930306112ea565b95611e08611e02606061294d611df78d516001600160a01b031690565b97019e8f5190565b3382526128c1565b6101c2906000612811565b6101c26129769160016103bd565b6009810190612984826103f1565b600091906129918361197b565b14612a1d57600481016129a3816103f1565b6129af6115d6856105b1565b148015612a00575b156129d75750916129d26129cd6101ac9461125c565b61394f565b611590565b6129e191506103f1565b6129ee6115d660026105b1565b146129f7575050565b6101ac91611590565b50612a0a816103f1565b612a176115d660016105b1565b146129b7565b505050565b5050505050612a2f600090565b506101c263f23a6e616121ec565b15612a4457565b60405162461bcd60e51b8152602060048201526014602482015273496e73756666696369656e742062616c616e636560601b6044820152606490fd5b91908203918211611a5957565b90611ab6612ac06101ac93612aa5611a9760006103b0565b611aa0612ab6611e76836002611a2c565b85905b1015612a3d565b91612aca836103dc565b612a80565b611e766101c291612ade600090565b506002611a2c565b612af9608061195461194f8460046103bd565b612b7057612b0b6113b58260016103bd565b6101608101511515612b1d600061197b565b1461164e5760e0612b499101612b3281611932565b612b3f6119a360006105d7565b14612b6757611932565b612b566119a360016105d7565b14612b5e5750565b6101ac9061213b565b6119da836115ab565b6101ac906139f3565b6101c29190612b92610ff683516001600160a01b031690565b906101c291612ba5611076606084015190565b906101c291612bb86110e260c084015190565b50611f779061070c611537612bda6101206113ba6113b5611ed260c088015190565b92612bed6000946113d161108c876103b0565b610100810193612c0485516001600160a01b031690565b612c1361100f61025c84610f3e565b14612ca0575b612c2582600283612d13565b808201917f7caf1d1e6a13b721c9665f2adf921aff907338c6de1d9943aec1b35cebb85801612c6f612c61610e4986516001600160a01b031690565b97516001600160a01b031690565b612c78306112ea565b926115276060612c8f88516001600160a01b031690565b92019961151461150e6115088d5190565b338552612c19565b6101c2906000612b79565b906115a06101c26115a7926105bb565b90610100600160a81b039060081b611586565b90612ce66101c26115a7926112ea565b8254612cc3565b9060ff60a01b9060a01b611586565b90612d0c6101c26115a7926105e1565b8254612ced565b61237660e06101ac94612dd260089460c0830196612d5f612d56612d3b6101c2611ed28c5190565b996124f1612d5088516001600160a01b031690565b8c612300565b60038a01611a68565b612d76612d6d60a086015190565b60028a01611a68565b612d84600489019182612cb3565b612dbf612d9c6101008601516001600160a01b031690565b91612dab60058b019384612300565b60208601516001600160a01b031690612cd6565b612dcd6124e8608086015190565b612cfc565b612de9612de0604083015190565b60068701611a68565b612e00612df7606083015190565b60078701611a68565b6113ba600160098701611590565b6001600160a01b0390911681526040810192916101ac9160200152565b612e556101ac94611c1e606094989795611383608086019a60008701906001600160a01b03169052565b0190611350565b80612e726114208083516001600160a01b031690565b9160a0820192612e8984516001600160a01b031690565b92610120810193612e98855190565b833b1561019a57612ecf9360009283612eb060405190565b809781958294612ec46340c10f1960e01b90565b845260048401612e0e565b03925af1908115611569576101ac95610e199461153794600094612f6c575b507f8930357ea0b2f8645ab5c2e127c67f60a62ad7fb291cecd8a8bcb92cd545b2c7612f1c6126a0306112ea565b9188612f5b87612f4861150e612f42610e49612c61611df789516001600160a01b031690565b986112ea565b96612f5260405190565b94859485612e2b565b0390a301516001600160a01b031690565b612f8b90853d8711612f91575b612f838183610221565b810190610e81565b38612eee565b503d612f79565b80612fae6114208083516001600160a01b031690565b91610120810191612fbd835190565b93803b1561019a57612ff6600095918692612fd760405190565b9788938492839190630852cd8d60e31b83526004830190815260200190565b03925af191821561156957613026610e49611537936101ac97610e1996613083575b50516001600160a01b031690565b61302f306112ea565b917f4920d29cca5e296dcd6551f08f22f44255c14c45133e34338c9eef31abb00486600061305c81610f3e565b92019361307085516001600160a01b031690565b6115276000612f4861150e6115088d5190565b613093906000612f838183610221565b38613018565b806130af6114208083516001600160a01b031690565b906130f960a084019360206130cb86516001600160a01b031690565b6101208301956130d9875190565b9160006130e560405190565b809781958294612ec463a9059cbb60e01b90565b03925af1908115611569576101ac95610e19946115379460009461318d575b507f7ca0f7c6a8bb4cf2adeb7f49a76dccee517862e11550f3d9c65413ae76a63d5261314e610e4983516001600160a01b031690565b9288612f5b87612f4861150e61150861318861317a61316c306112ea565b98516001600160a01b031690565b99516001600160a01b031690565b955190565b6131a59060203d602011611562576115558183610221565b613118565b6101c26131b89160046103bd565b9060048201916131c7836103f1565b600092906131d48461197b565b14613336576131e2836103b0565b600583016131f16101c2825490565b82101561325557906125e561321261320c83613250956122b8565b506116e9565b808701516001600160a01b03169061322b602082015190565b61324a606061324460408501516001600160a01b031690565b93015190565b92613b8a565b6131e2565b50509290613262836103b0565b600682016132716101c2825490565b821015613295579061328961320c82613290946122b8565b5060010190565b613262565b50509190926132a3826103b0565b600784016132b26101c2825490565b82101561332957816125e56132d56132cf600795613322956123ba565b50611820565b808701516001600160a01b0316906132ee602082015190565b60408201516001600160a01b03169061331c608061331660608601516001600160a01b031690565b94015190565b93613c55565b90506132a3565b5050926101ac9250611590565b92505050565b6001600160a01b0390911681526060810193926101ac929091604091611340906020830152565b909594926101ac94610474612e559261046d60809661046660a088019c60008901906001600160a01b03169052565b806133a86114208083516001600160a01b031690565b60c0830180516001600160a01b03169261340160206101008701956133cb875190565b9561012089019660006133dc895190565b936133e660405190565b9687958694859363cdb7c81d60e01b5b85526004850161333c565b03925af18015611569576101ac966134b09461153794611e1b946000946134b6575b507f6e7591cf24ed7b5acabd1b007bd1b126bffcc41bdf50c369d8da45561adb114d888a612f5b8761346661345f87516001600160a01b031690565b845161075b565b61349d611e02611dfc611df7611df761348f613481306112ea565b9d516001600160a01b031690565b9b516001600160a01b031690565b976134a760405190565b95869586613363565b91613c65565b6134ce9060203d602011611562576115558183610221565b613423565b611aa76101ac9392611e71611ab6936134f56134ef60006103b0565b87611a99565b6003611a2c565b806135126114208083516001600160a01b031690565b60a0830180516001600160a01b031692610100850193613530855190565b9061012087019461353f865190565b90803b1561019a5761356c936000809461355860405190565b96879586948593637d13ce5560e11b6133f6565b03925af18015611569576101ac966134b09461153794611e1b946000946135ca575b507f42aa4dcf632702235c26d3ce702973ba15d0ff2840b5d495a2ddb85d5cd9cd5a888a612f5b8761346661345f87516001600160a01b031690565b6135e090853d8711612f9157612f838183610221565b3861358e565b9081526040810192916101ac9160200152565b8061360f6114208083516001600160a01b031690565b9061010083019161361e835190565b9161012085019261362d845190565b833b1561019a57613664936000928361364560405190565b80978195829461365963dabd050460e01b90565b8452600484016135e6565b03925af1908115611569576101ac9561369e613697611e1b936134b096611537966130835750516001600160a01b031690565b875161075b565b906136a8306112ea565b907f3b27b01f09f3a0fbf25dc103a8a9da3784fccc4938b03d95a806762aec9158c187896115276000806136db81610f3e565b96019761349d611e02611dfc611df7611df78d516001600160a01b031690565b806137116114208083516001600160a01b031690565b60a0830180516001600160a01b03169261373460206101008701956133cb875190565b03925af18015611569576101ac966134b09461153794611e1b94600094613792575b507f3e4ace5b04d11d3cf157a917bacefb225bd4a74aca20e21029fec459f893388b888a612f5b8761346661345f87516001600160a01b031690565b6137aa9060203d602011611562576115558183610221565b613756565b6101c2739ae96dc1196647a260aa381c4c8697b5cdc8238a6112ea565b909594926101ac9461380b6113409261046d6080966137fb60a088019c60008901906001600160a01b03169052565b6001600160a01b03166020870152565b6001600160a01b03166060830152565b9291926138296114206137af565b93613833306112ea565b602061383e60405190565b968790631a4dc1a360e31b8252816000816138608b888c8c8c600487016137cc565b03925af1958615611569576101ac966138cf575b507fb64b2921cdd970311589fc48151c631c3a4ddf8d7dc80709a0106700898b990f6138c76138af6138a96115088888611e56565b936112ea565b936138b960405190565b91829160008a8a8a86611c25565b0390a36134d3565b6138e79060203d602011611562576115558183610221565b613874565b6101ac9392506138fc8282611e56565b6139066000610f3e565b7faf8a3e347a1d39dc1d291f8d4272ad009ce8844d82000d2d2e6d69ed6e5140a66138c76138af6138a9613939306112ea565b946112ea565b90919392506138296114206137af565b806139656114208083516001600160a01b031690565b9061398160c084019360206130cb86516001600160a01b031690565b03925af1908115611569576101ac95610e1994611537946000946139d6575b507f9101c2322dc98ec098c62b4ec9a68831b01ff1df2a589ad0f2160b0b2fc2c74a61314e610e4983516001600160a01b031690565b6139ee9060203d602011611562576115558183610221565b6139a0565b6101c2613a019160046103bd565b6004810191613a0f836103f1565b60009190613a1c8361197b565b1461333657613a2a826103b0565b60068401613a396101c2825490565b821015613a9157906125e5613a5461320c83613a8c956122b8565b808601516001600160a01b031690613a6d602082015190565b613a86606061324460408501516001600160a01b031690565b92613c9d565b613a2a565b505092613a9d826103b0565b60058401613aac6101c2825490565b821015613b0457906125e5613ac761320c83613aff956122b8565b808601516001600160a01b031690613ae0602082015190565b613af9606061324460408501516001600160a01b031690565b92613d47565b613a9d565b505092613b10826103b0565b60078401613b1f6101c2825490565b82101561332957816125e5613b3c6132cf600795613b83956123ba565b808701516001600160a01b031690613b55602082015190565b60408201516001600160a01b031690613b7d608061331660608601516001600160a01b031690565b93613dfa565b9050613b10565b929192613b986114206137af565b936020613ba460405190565b958690630208d92960e11b825281600081613bc58a8a8a8a60048601611be4565b03925af1948515611569576101ac95613c38575b50613be48383611e56565b907f6e7591cf24ed7b5acabd1b007bd1b126bffcc41bdf50c369d8da45561adb114d6000613c176138a9611420306112ea565b93613c30613c2460405190565b9283928a8a8a86613363565b0390a3613c65565b613c509060203d602011611562576115558183610221565b613bd9565b9091939250613b986114206137af565b612ac06101ac9392611e71611ab693613c816134ef60006103b0565b6134f5613c96611e7685611e71856003611a2c565b8790612ab9565b929192613cab6114206137af565b936020613cb760405190565b95869063b3f1c93d60e01b825281600081613cd88a8a8a8a60048601611be4565b03925af1948515611569576101ac95613d2a575b50613cf78383611e56565b907f42aa4dcf632702235c26d3ce702973ba15d0ff2840b5d495a2ddb85d5cd9cd5a6000613c176138a9611420306112ea565b613d429060203d602011611562576115558183610221565b613cec565b929150613d556114206137af565b92613d5f306112ea565b6020613d6a60405190565b958690636b81068560e11b825281600081613d8b8a8a8a8a60048601611be4565b03925af1948515611569576101ac95613ddd575b50613daa8383611e56565b907f3b27b01f09f3a0fbf25dc103a8a9da3784fccc4938b03d95a806762aec9158c16000613c176138a961393983610f3e565b613df59060203d602011611562576115558183610221565b613d9f565b909150929192613e0b6114206137af565b936020613e1760405190565b958690630208d92960e11b825281600081613e388a8a8a8a60048601611be4565b03925af1948515611569576101ac95613e8a575b50613e578383611e56565b907f3e4ace5b04d11d3cf157a917bacefb225bd4a74aca20e21029fec459f893388b6000613c176138a9611420306112ea565b613ea29060203d602011611562576115558183610221565b613e4c56fea264697066735822122019d171afe80cb6232ab0f36b1b8b8c1321cf4581128cff07e3af279e3dfc42bf64736f6c63430008190033",
  "linkReferences": {},
  "deployedLinkReferences": {}
}