{
  "_format": "hh-sol-artifact-1",
  "contractName": "TokenVerificationLib2",
  "sourceName": "contracts/ucl/circle/lib/TokenVerificationLib.sol",
  "abi": [
    {
      "inputs": [
        {
          "internalType": "bytes",
          "name": "proofData",
          "type": "bytes"
        }
      ],
      "name": "verify",
      "outputs": [
        {
          "internalType": "uint256",
          "name": "",
          "type": "uint256"
        },
        {
          "internalType": "Fr[]",
          "name": "",
          "type": "uint256[]"
        },
        {
          "internalType": "Fr[]",
          "name": "",
          "type": "uint256[]"
        }
      ],
      "stateMutability": "view",
      "type": "function"
    },
    {
      "inputs": [
        {
          "components": [
            {
              "internalType": "uint256[]",
              "name": "parentIds",
              "type": "uint256[]"
            },
            {
              "components": [
                {
                  "internalType": "uint256",
                  "name": "cl_x",
                  "type": "uint256"
                },
                {
                  "internalType": "uint256",
                  "name": "cl_y",
                  "type": "uint256"
                },
                {
                  "internalType": "uint256",
                  "name": "cr_x",
                  "type": "uint256"
                },
                {
                  "internalType": "uint256",
                  "name": "cr_y",
                  "type": "uint256"
                }
              ],
              "internalType": "struct TokenModel2.ElGamal",
              "name": "parentTotal",
              "type": "tuple"
            }
          ],
          "internalType": "struct TokenModel2.ParentTokens",
          "name": "parentTokens",
          "type": "tuple"
        },
        {
          "components": [
            {
              "internalType": "uint256",
              "name": "id",
              "type": "uint256"
            },
            {
              "internalType": "uint256",
              "name": "token_type",
              "type": "uint256"
            },
            {
              "internalType": "enum TokenModel2.TokenStatus",
              "name": "status",
              "type": "TokenModel2.TokenStatus"
            },
            {
              "components": [
                {
                  "internalType": "uint256",
                  "name": "cl_x",
                  "type": "uint256"
                },
                {
                  "internalType": "uint256",
                  "name": "cl_y",
                  "type": "uint256"
                },
                {
                  "internalType": "uint256",
                  "name": "cr_x",
                  "type": "uint256"
                },
                {
                  "internalType": "uint256",
                  "name": "cr_y",
                  "type": "uint256"
                }
              ],
              "internalType": "struct TokenModel2.ElGamal",
              "name": "amount",
              "type": "tuple"
            },
            {
              "internalType": "enum TokenModel2.TokenBox",
              "name": "location",
              "type": "TokenModel2.TokenBox"
            },
            {
              "internalType": "bytes",
              "name": "issuerEncryptedAmount",
              "type": "bytes"
            },
            {
              "internalType": "address",
              "name": "owner",
              "type": "address"
            },
            {
              "internalType": "address",
              "name": "manager",
              "type": "address"
            }
          ],
          "internalType": "struct TokenModel2.AmountInfo[]",
          "name": "reservedAmounts",
          "type": "tuple[]"
        },
        {
          "internalType": "bytes",
          "name": "proof",
          "type": "bytes"
        }
      ],
      "name": "verifyTokenSplit",
      "outputs": [
        {
          "internalType": "bool",
          "name": "",
          "type": "bool"
        },
        {
          "internalType": "uint256",
          "name": "",
          "type": "uint256"
        },
        {
          "internalType": "uint256[]",
          "name": "",
          "type": "uint256[]"
        }
      ],
      "stateMutability": "view",
      "type": "function"
    }
  ],
  "bytecode": "0x608060405234601d5760405161089561002382393081505061089590f35b600080fdfe6080604052600436101561001257600080fd5b60003560e01c8063150a4bc91461003257638e760afe036100a9576105b3565b6104d7565b634e487b7160e01b600052604160045260246000fd5b90601f01601f191681019081106001600160401b0382111761006e57604052565b610037565b9061008761008060405190565b928361004d565b565b6001600160401b03811161006e5760208091020190565b805b036100a957565b600080fd5b90503590610087826100a0565b909291926100d06100cb82610089565b610073565b93818552602080860192028301928184116100a957915b8383106100f45750505050565b6020809161010284866100ae565b8152019201916100e7565b9080601f830112156100a957816020610128933591016100bb565b90565b91906080838203126100a95761017e9060606101476080610073565b9461015283826100ae565b865261016183602083016100ae565b602087015261017383604083016100ae565b6040870152016100ae565b6060830152565b91909160a0818403126100a95761019c6040610073565b9281356001600160401b0381116100a957826101bf836020936101c7960161010d565b86520161012b565b6020830152565b600411156100a957565b90503590610087826101ce565b600311156100a957565b90503590610087826101e5565b6001600160401b03811161006e57602090601f01601f19160190565b0190565b90826000939282370152565b909291926102386100cb826101fc565b93818552818301116100a95761008791602085019061021c565b9080601f830112156100a95781602061012893359101610228565b6001600160a01b0381166100a2565b905035906100878261026d565b919091610160818403126100a9576102a2610100610073565b926102ad81836100ae565b84526102bc81602084016100ae565b60208501526102ce81604084016101d8565b60408501526102e0816060840161012b565b60608501526102f28160e084016101ef565b60808501526101008201356001600160401b0381116100a9578261031e836101409361033c9601610252565b60a087015261033183610120830161027c565b60c08701520161027c565b60e0830152565b9291906103526100cb82610089565b93818552602080860192028101918383116100a95781905b838210610378575050505050565b81356001600160401b0381116100a9576020916103988784938701610289565b81520191019061036a565b9080601f830112156100a95781602061012893359101610343565b909182601f830112156100a9578135916001600160401b0383116100a95760200192600183028401116100a957565b916060838303126100a95782356001600160401b0381116100a95782610414918501610185565b9260208101356001600160401b0381116100a957836104349183016103a3565b9260408201356001600160401b0381116100a95761045292016103be565b9091565b9052565b9061047a610473610469845190565b8084529260200190565b9260200190565b9060005b81811061048b5750505090565b9091926104a86104a16001928651815260200190565b9460200190565b92910161047e565b90151581526101289260608201929091906104ca906101c7565b604081840391015261045a565b6105006104f16104e83660046103ed565b92919091610613565b604051919391938493846104b0565b0390f35b906020828203126100a95781356001600160401b0381116100a95761045292016103be565b6101286101286101289290565b61045690610529565b9061021881602093610536565b9061055b610473610469845190565b9060005b81811061056c5750505090565b90919261057f6104a1600192865161053f565b92910161055f565b9081526060602082018190526101289391926105a59184019061054c565b91604081840391015261054c565b6105006105ca6105c4366004610504565b906107bb565b60405191939193849384610587565b906105e66100cb83610089565b918252565b369037565b90610087610606610600846105d9565b93610089565b601f1901602084016105eb565b50509061062891610622600090565b506107bb565b50509061063d6106386008610529565b6105f0565b60019291565b6101286020610073565b610655610643565b9060608252565b61012861064d565b610128913691610228565b90505190610087826100a0565b9092919261068c6100cb82610089565b93818552602080860192028301928184116100a957915b8383106106b05750505050565b602080916106be848661066f565b8152019201916106a3565b9080601f830112156100a95781516101289260200161067c565b916060838303126100a9576106f8828461066f565b9260208101516001600160401b0381116100a957836107189183016106c9565b9260408201516001600160401b0381116100a95761012892016106c9565b60005b8381106107495750506000910152565b8181015183820152602001610739565b61077a6107836020936102189361076e815190565b80835293849260200190565b95869101610736565b601f01601f191690565b516020808352610128920190610759565b60208082526101289291019061078d565b6040513d6000823e3d90fd5b6000906107dc610812936107cd600090565b506107d661065c565b92610664565b8183015273__$1f59e9ba80353ed75b6557a9e4c70a1ee1$__60405193849283918291632d03b6d960e01b83526004830161079e565b03915af491821561085a576000808093909461082f575b50929190565b9193505061085091503d806000833e610848818361004d565b8101906106e3565b9138939193610829565b6107af56fea26469706673582212206f55419a294b1b5511419784a37e99c25d4165203dc1f43c9c001760ee64385c64736f6c63430008190033",
  "linkReferences": {
    "contracts/ucl/circle/nova/sol/verifier.sol": {
      "ZkVerifier": [
        {
          "length": 20,
          "start": 2053
        }
      ]
    }
  },
  "deployedLinkReferences": {
    "contracts/ucl/circle/nova/sol/verifier.sol": {
      "ZkVerifier": [
        {
          "length": 20,
          "start": 2018
        }
      ]
    }
  }
}