{
  "_format": "hh-sol-artifact-1",
  "contractName": "TokenVerificationLib2",
  "sourceName": "contracts/ucl/circle/lib/TokenVerificationLib.sol",
  "abi": [
    {
      "inputs": [
        {
          "internalType": "bytes",
          "name": "proofData",
          "type": "bytes"
        }
      ],
      "name": "verify",
      "outputs": [
        {
          "internalType": "uint256",
          "name": "",
          "type": "uint256"
        },
        {
          "internalType": "Fr[]",
          "name": "",
          "type": "uint256[]"
        },
        {
          "internalType": "Fr[]",
          "name": "",
          "type": "uint256[]"
        }
      ],
      "stateMutability": "view",
      "type": "function"
    },
    {
      "inputs": [
        {
          "components": [
            {
              "internalType": "uint256[]",
              "name": "parentIds",
              "type": "uint256[]"
            },
            {
              "components": [
                {
                  "internalType": "uint256",
                  "name": "cl_x",
                  "type": "uint256"
                },
                {
                  "internalType": "uint256",
                  "name": "cl_y",
                  "type": "uint256"
                },
                {
                  "internalType": "uint256",
                  "name": "cr_x",
                  "type": "uint256"
                },
                {
                  "internalType": "uint256",
                  "name": "cr_y",
                  "type": "uint256"
                }
              ],
              "internalType": "struct TokenModel2.ElGamal",
              "name": "parentTotal",
              "type": "tuple"
            }
          ],
          "internalType": "struct TokenModel2.ParentTokens",
          "name": "parentTokens",
          "type": "tuple"
        },
        {
          "components": [
            {
              "internalType": "uint256",
              "name": "id",
              "type": "uint256"
            },
            {
              "internalType": "uint256",
              "name": "token_type",
              "type": "uint256"
            },
            {
              "internalType": "enum TokenModel2.TokenStatus",
              "name": "status",
              "type": "TokenModel2.TokenStatus"
            },
            {
              "components": [
                {
                  "internalType": "uint256",
                  "name": "cl_x",
                  "type": "uint256"
                },
                {
                  "internalType": "uint256",
                  "name": "cl_y",
                  "type": "uint256"
                },
                {
                  "internalType": "uint256",
                  "name": "cr_x",
                  "type": "uint256"
                },
                {
                  "internalType": "uint256",
                  "name": "cr_y",
                  "type": "uint256"
                }
              ],
              "internalType": "struct TokenModel2.ElGamal",
              "name": "amount",
              "type": "tuple"
            },
            {
              "internalType": "enum TokenModel2.TokenBox",
              "name": "location",
              "type": "TokenModel2.TokenBox"
            },
            {
              "internalType": "address",
              "name": "owner",
              "type": "address"
            },
            {
              "internalType": "address",
              "name": "manager",
              "type": "address"
            }
          ],
          "internalType": "struct TokenModel2.AmountInfo[]",
          "name": "reservedAmounts",
          "type": "tuple[]"
        },
        {
          "internalType": "bytes",
          "name": "proof",
          "type": "bytes"
        }
      ],
      "name": "verifyTokenSplit",
      "outputs": [
        {
          "internalType": "bool",
          "name": "",
          "type": "bool"
        },
        {
          "internalType": "uint256",
          "name": "",
          "type": "uint256"
        },
        {
          "internalType": "uint256[]",
          "name": "",
          "type": "uint256[]"
        }
      ],
      "stateMutability": "view",
      "type": "function"
    }
  ],
  "bytecode": "0x608060405234601d5760405161084f61002382393081505061084f90f35b600080fdfe6080604052600436101561001257600080fd5b60003560e01c8063150a4bc91461003257638e760afe036100ab57610518565b61043b565b634e487b7160e01b600052604160045260246000fd5b90601f01601f1916810190811067ffffffffffffffff82111761006f57604052565b610037565b9061008861008160405190565b928361004d565b565b67ffffffffffffffff811161006f5760208091020190565b805b036100ab57565b600080fd5b90503590610088826100a2565b909291926100d26100cd8261008a565b610074565b93818552602080860192028301928184116100ab57915b8383106100f65750505050565b6020809161010484866100b0565b8152019201916100e9565b9080601f830112156100ab5781602061012a933591016100bd565b90565b91906080838203126100ab576101809060606101496080610074565b9461015483826100b0565b865261016383602083016100b0565b602087015261017583604083016100b0565b6040870152016100b0565b6060830152565b91909160a0818403126100ab5761019e6040610074565b92813567ffffffffffffffff81116100ab57826101c2836020936101ca960161010f565b86520161012d565b6020830152565b600411156100ab57565b90503590610088826101d1565b600311156100ab57565b90503590610088826101e8565b6001600160a01b0381166100a4565b90503590610088826101ff565b9190610140838203126100ab576102a79061012061023960e0610074565b9461024483826100b0565b865261025383602083016100b0565b602087015261026583604083016101db565b6040870152610277836060830161012d565b60608701526102898360e083016101f2565b608087015261029c83610100830161020e565b60a08701520161020e565b60c0830152565b909291926102be6100cd8261008a565b938185526101406020860192028301928184116100ab57915b8383106102e45750505050565b6020610140916102f4848661021b565b8152019201916102d7565b9080601f830112156100ab5781602061012a933591016102ae565b909182601f830112156100ab5781359167ffffffffffffffff83116100ab5760200192600183028401116100ab57565b916060838303126100ab57823567ffffffffffffffff81116100ab5782610372918501610187565b92602081013567ffffffffffffffff81116100ab57836103939183016102ff565b92604082013567ffffffffffffffff81116100ab576103b2920161031a565b9091565b9052565b0190565b906103de6103d76103cd845190565b8084529260200190565b9260200190565b9060005b8181106103ef5750505090565b90919261040c6104056001928651815260200190565b9460200190565b9291016103e2565b901515815261012a92606082019290919061042e906101ca565b60408184039101526103be565b61046461045561044c36600461034a565b92919091610578565b60405191939193849384610414565b0390f35b906020828203126100ab57813567ffffffffffffffff81116100ab576103b2920161031a565b61012a61012a61012a9290565b6103b69061048e565b906103ba8160209361049b565b906104c06103d76103cd845190565b9060005b8181106104d15750505090565b9091926104e461040560019286516104a4565b9291016104c4565b90815260606020820181905261012a93919261050a918401906104b1565b9160408184039101526104b1565b61046461052f610529366004610468565b90610775565b604051919391938493846104ec565b9061054b6100cd8361008a565b918252565b369037565b9061008861056b6105658461053e565b9361008a565b601f190160208401610550565b50509061058d91610587600090565b50610775565b5050906105a261059d600861048e565b610555565b60019291565b61012a6020610074565b6105ba6105a8565b9060608252565b61012a6105b2565b67ffffffffffffffff811161006f57602090601f01601f19160190565b90826000939282370152565b909291926106026100cd826105c9565b93818552818301116100ab576100889160208501906105e6565b61012a9136916105f2565b90505190610088826100a2565b909291926106446100cd8261008a565b93818552602080860192028301928184116100ab57915b8383106106685750505050565b602080916106768486610627565b81520192019161065b565b9080601f830112156100ab57815161012a92602001610634565b916060838303126100ab576106b08284610627565b92602081015167ffffffffffffffff81116100ab57836106d1918301610681565b92604082015167ffffffffffffffff81116100ab5761012a9201610681565b60005b8381106107035750506000910152565b81810151838201526020016106f3565b61073461073d6020936103ba93610728815190565b80835293849260200190565b958691016106f0565b601f01601f191690565b51602080835261012a920190610713565b602080825261012a92910190610747565b6040513d6000823e3d90fd5b6000906107966107cc93610787600090565b506107906105c1565b9261061c565b8183015273__$5354bfe44937a23251cb74f1c3bd9e72fd$__60405193849283918291632d03b6d960e01b835260048301610758565b03915af491821561081457600080809390946107e9575b50929190565b9193505061080a91503d806000833e610802818361004d565b81019061069b565b91389391936107e3565b61076956fea2646970667358221220bf602669c70f11f92deb97e32ed4d82a106af87d6be08c4586e004c4f11f4a0b64736f6c63430008190033",
  "linkReferences": {
    "contracts/ucl/image9/nova/sol/verifier.sol": {
      "ZkVerifier": [
        {
          "length": 20,
          "start": 1983
        }
      ]
    }
  },
  "deployedLinkReferences": {
    "contracts/ucl/image9/nova/sol/verifier.sol": {
      "ZkVerifier": [
        {
          "length": 20,
          "start": 1948
        }
      ]
    }
  }
}