{
  "_format": "hh-sol-artifact-1",
  "contractName": "DvpMatch",
  "sourceName": "contracts/ucl/DvpMatch.sol",
  "abi": [
    {
      "anonymous": false,
      "inputs": [
        {
          "indexed": false,
          "internalType": "address",
          "name": "",
          "type": "address"
        },
        {
          "indexed": false,
          "internalType": "uint256",
          "name": "",
          "type": "uint256"
        },
        {
          "indexed": false,
          "internalType": "bytes32",
          "name": "",
          "type": "bytes32"
        }
      ],
      "name": "BlockCommit",
      "type": "event"
    },
    {
      "anonymous": false,
      "inputs": [
        {
          "indexed": false,
          "internalType": "uint256",
          "name": "",
          "type": "uint256"
        },
        {
          "indexed": false,
          "internalType": "uint256",
          "name": "",
          "type": "uint256"
        }
      ],
      "name": "BundleCancel",
      "type": "event"
    },
    {
      "anonymous": false,
      "inputs": [
        {
          "indexed": false,
          "internalType": "uint256",
          "name": "",
          "type": "uint256"
        },
        {
          "indexed": false,
          "internalType": "uint256",
          "name": "",
          "type": "uint256"
        }
      ],
      "name": "BundleExpire",
      "type": "event"
    },
    {
      "anonymous": false,
      "inputs": [
        {
          "indexed": false,
          "internalType": "uint256",
          "name": "",
          "type": "uint256"
        },
        {
          "indexed": false,
          "internalType": "uint256",
          "name": "",
          "type": "uint256"
        }
      ],
      "name": "BundleFill",
      "type": "event"
    },
    {
      "inputs": [
        {
          "internalType": "uint256",
          "name": "",
          "type": "uint256"
        }
      ],
      "name": "bundleExpired",
      "outputs": [
        {
          "internalType": "bool",
          "name": "",
          "type": "bool"
        }
      ],
      "stateMutability": "view",
      "type": "function"
    },
    {
      "inputs": [
        {
          "internalType": "uint256",
          "name": "",
          "type": "uint256"
        }
      ],
      "name": "bundleFilled",
      "outputs": [
        {
          "internalType": "bool",
          "name": "",
          "type": "bool"
        }
      ],
      "stateMutability": "view",
      "type": "function"
    },
    {
      "inputs": [
        {
          "internalType": "uint256",
          "name": "",
          "type": "uint256"
        }
      ],
      "name": "bundleMap",
      "outputs": [
        {
          "internalType": "uint256",
          "name": "blockNum",
          "type": "uint256"
        },
        {
          "internalType": "uint256",
          "name": "l1BlockNum",
          "type": "uint256"
        },
        {
          "internalType": "uint256",
          "name": "expireTime",
          "type": "uint256"
        },
        {
          "internalType": "uint256",
          "name": "bundleHash",
          "type": "uint256"
        },
        {
          "internalType": "bool",
          "name": "completed",
          "type": "bool"
        },
        {
          "internalType": "uint256",
          "name": "count",
          "type": "uint256"
        }
      ],
      "stateMutability": "view",
      "type": "function"
    },
    {
      "inputs": [
        {
          "internalType": "uint256",
          "name": "bundleHash",
          "type": "uint256"
        }
      ],
      "name": "cancelBundle",
      "outputs": [],
      "stateMutability": "nonpayable",
      "type": "function"
    },
    {
      "inputs": [
        {
          "internalType": "uint256",
          "name": "newBlockNumber",
          "type": "uint256"
        },
        {
          "internalType": "bytes32",
          "name": "newBlockHash",
          "type": "bytes32"
        },
        {
          "internalType": "bytes32",
          "name": "newStateRoot",
          "type": "bytes32"
        },
        {
          "internalType": "bytes32",
          "name": "newReceiptRoot",
          "type": "bytes32"
        },
        {
          "internalType": "uint256",
          "name": "txLeafChainRoot",
          "type": "uint256"
        },
        {
          "components": [
            {
              "internalType": "uint256",
              "name": "blockNum",
              "type": "uint256"
            },
            {
              "internalType": "bytes32",
              "name": "transactionHash",
              "type": "bytes32"
            },
            {
              "internalType": "uint256",
              "name": "expireTime",
              "type": "uint256"
            },
            {
              "internalType": "uint256",
              "name": "index",
              "type": "uint256"
            },
            {
              "internalType": "uint256",
              "name": "chunkHash",
              "type": "uint256"
            },
            {
              "internalType": "uint256",
              "name": "bundleHash",
              "type": "uint256"
            },
            {
              "internalType": "uint256",
              "name": "txLeafHash",
              "type": "uint256"
            }
          ],
          "internalType": "struct DvpMatch.BundleRequest[]",
          "name": "requests",
          "type": "tuple[]"
        }
      ],
      "name": "commitBatchWithBundles",
      "outputs": [],
      "stateMutability": "nonpayable",
      "type": "function"
    },
    {
      "inputs": [],
      "name": "disabledVerifyBundles",
      "outputs": [],
      "stateMutability": "nonpayable",
      "type": "function"
    },
    {
      "inputs": [],
      "name": "enabledVerifyBundles",
      "outputs": [],
      "stateMutability": "nonpayable",
      "type": "function"
    },
    {
      "inputs": [],
      "name": "getLastBlock",
      "outputs": [
        {
          "internalType": "uint256",
          "name": "",
          "type": "uint256"
        },
        {
          "components": [
            {
              "internalType": "uint256",
              "name": "blockNumber",
              "type": "uint256"
            },
            {
              "internalType": "bytes32",
              "name": "blockHash",
              "type": "bytes32"
            },
            {
              "internalType": "bytes32",
              "name": "l2StateRoot",
              "type": "bytes32"
            },
            {
              "internalType": "bytes32",
              "name": "l2TransactionRoot",
              "type": "bytes32"
            },
            {
              "internalType": "bytes32",
              "name": "l2ReceiptRoot",
              "type": "bytes32"
            }
          ],
          "internalType": "struct DvpMatch.Block",
          "name": "",
          "type": "tuple"
        }
      ],
      "stateMutability": "view",
      "type": "function"
    },
    {
      "inputs": [
        {
          "internalType": "bytes32",
          "name": "a",
          "type": "bytes32"
        },
        {
          "internalType": "bytes32",
          "name": "b",
          "type": "bytes32"
        }
      ],
      "name": "hash",
      "outputs": [
        {
          "internalType": "bytes32",
          "name": "",
          "type": "bytes32"
        }
      ],
      "stateMutability": "view",
      "type": "function"
    },
    {
      "inputs": [
        {
          "internalType": "uint256",
          "name": "a",
          "type": "uint256"
        },
        {
          "internalType": "uint256",
          "name": "b",
          "type": "uint256"
        }
      ],
      "name": "hash2",
      "outputs": [
        {
          "internalType": "uint256",
          "name": "",
          "type": "uint256"
        }
      ],
      "stateMutability": "view",
      "type": "function"
    },
    {
      "inputs": [
        {
          "internalType": "uint256",
          "name": "a",
          "type": "uint256"
        },
        {
          "internalType": "uint256",
          "name": "b",
          "type": "uint256"
        },
        {
          "internalType": "uint256",
          "name": "c",
          "type": "uint256"
        }
      ],
      "name": "hash4",
      "outputs": [
        {
          "internalType": "uint256",
          "name": "",
          "type": "uint256"
        }
      ],
      "stateMutability": "view",
      "type": "function"
    },
    {
      "inputs": [
        {
          "internalType": "bytes32",
          "name": "genesisStateRoot",
          "type": "bytes32"
        }
      ],
      "name": "initializeGenesisState",
      "outputs": [],
      "stateMutability": "nonpayable",
      "type": "function"
    },
    {
      "inputs": [
        {
          "internalType": "address",
          "name": "",
          "type": "address"
        }
      ],
      "name": "sequencerBlocks",
      "outputs": [
        {
          "internalType": "uint256",
          "name": "lastBlockNum",
          "type": "uint256"
        }
      ],
      "stateMutability": "view",
      "type": "function"
    },
    {
      "inputs": [
        {
          "internalType": "uint256",
          "name": "blockNum",
          "type": "uint256"
        },
        {
          "internalType": "uint256",
          "name": "bundleHash",
          "type": "uint256"
        }
      ],
      "name": "triggerBundleEvents",
      "outputs": [],
      "stateMutability": "nonpayable",
      "type": "function"
    },
    {
      "inputs": [
        {
          "internalType": "bytes32",
          "name": "",
          "type": "bytes32"
        }
      ],
      "name": "txHashAndLeafHashMap",
      "outputs": [
        {
          "internalType": "uint256",
          "name": "",
          "type": "uint256"
        }
      ],
      "stateMutability": "view",
      "type": "function"
    },
    {
      "inputs": [],
      "name": "verifyBundlesEnabled",
      "outputs": [
        {
          "internalType": "bool",
          "name": "",
          "type": "bool"
        }
      ],
      "stateMutability": "view",
      "type": "function"
    }
  ],
  "bytecode": "0x608060405234601f57600e6048565b604051611240610055823961124090f35b600080fd5b90565b9060346024604492151590565b825460ff191660ff919091161790565b9055565b6052600060046027565b56fe6080604052600436101561001257600080fd5b60003560e01c80630b7dcfd41461011257806326d7f8a01461010d5780633ab2fe1914610108578063412f9cac14610103578063511c53ff146100fe5780635aeccf58146100f95780637b6ddab2146100f45780637f2c4ca8146100ef57806386ce0e77146100ea57806387930960146100e55780638abd0c42146100e05780639e839883146100db578063c6adc759146100d6578063c93a89b1146100d1578063da8da436146100cc5763dbb3aef50361012257610667565b61064b565b610607565b61056e565b610553565b61052a565b610512565b6104f7565b610498565b61040c565b61032e565b6102c4565b610298565b610256565b610183565b610152565b600091031261012257565b600080fd5b610136916008021c5b60ff1690565b90565b906101369154610127565b61013660006004610139565b565b3461012257610162366004610117565b61017f61016d610144565b60405191829182901515815260200190565b0390f35b3461012257610193366004610117565b61019b6106a7565b604051005b805b0361012257565b90503590610150826101a0565b909182601f830112156101225781359167ffffffffffffffff8311610122576020019260e0830284011161012257565b9160c083830312610122576101fb82846101a9565b9261020983602083016101a9565b9261021781604084016101a9565b9261022582606085016101a9565b9261023383608083016101a9565b9260a082013567ffffffffffffffff81116101225761025292016101b6565b9091565b346101225761019b6102693660046101e6565b959490949391936108da565b91906040838203126101225761013690602061029182866101a9565b94016101a9565b346101225761017f6102b46102ae366004610275565b90610a7e565b6040519182918290815260200190565b346101225761017f6102b46102da366004610275565b90610af2565b9060208282031261012257610136916101a9565b6101366101366101369290565b9061030b906102f4565b600052602052604060002090565b6000610329610136926003610301565b610139565b346101225761017f61016d6103443660046102e0565b610319565b6101369081565b6101369054610349565b61013690610130565b610136905461035a565b610378906001610301565b9061038282610350565b9161038f60018201610350565b9161039c60028301610350565b916103a960038201610350565b91610136600b6103bb600a8501610363565b9301610350565b91946103ff610408929897956103f860a0966103f16101509a6103ea60c08a019e60008b0152565b6020890152565b6040870152565b6060850152565b15156080830152565b0152565b346101225761017f6104276104223660046102e0565b61036d565b9261043796949692919260405190565b968796876103c2565b805182526101509190608090819061045d60208201516020860152565b61046c60408201516040860152565b61047b60608201516060860152565b0151910152565b90815260c0810192916101509160200190610440565b34610122576104a8366004610117565b6104b0610bde565b9061017f6104bd60405190565b92839283610482565b9061030b565b610136916008021c81565b9061013691546104cc565b60006104f26101369260056104c6565b6104d7565b346101225761017f6102b461050d3660046102e0565b6104e2565b3461012257610522366004610117565b61019b610c15565b346101225761019b61053d366004610275565b90610c21565b6000610329610136926002610301565b346101225761017f61016d6105693660046102e0565b610543565b346101225761019b6105813660046102e0565b610ced565b6001600160a01b031690565b6001600160a01b0381166101a2565b9050359061015082610592565b9060208282031261012257610136916105a1565b61013690610586906001600160a01b031682565b610136906105c2565b610136906105d6565b9061030b906105df565b600061060161013692826105e8565b01610350565b346101225761017f6102b461061d3660046105ae565b6105f2565b90916060828403126101225761013661063b84846101a9565b93604061029182602087016101a9565b346101225761017f6102b4610661366004610622565b91610dd1565b34610122576106773660046102e0565b50604051005b9060ff905b9181191691161790565b9061069c6101366106a392151590565b825461067d565b9055565b6101506000600461068c565b634e487b7160e01b600052603260045260246000fd5b91908110156106d95760e0020190565b6106b3565b634e487b7160e01b600052604160045260246000fd5b90601f01601f1916810190811067ffffffffffffffff82111761071657604052565b6106de565b9061015061072860405190565b92836106f4565b919060e083820312610122576107b89060c061074b60e061071b565b9461075683826101a9565b865261076583602083016101a9565b602087015261077783604083016101a9565b604087015261078983606083016101a9565b606087015261079b83608083016101a9565b60808701526107ad8360a083016101a9565b60a0870152016101a9565b60c0830152565b61013690369061072f565b67ffffffffffffffff81116107165760200290565b6107eb610136916107ca565b61071b565b35610136816101a0565b90505190610150826101a0565b9060208282031261012257610136916107fa565b61082b61082760029390565b9190565b6000915b83831061083c5750505050565b61085661084f6001928451815260200190565b9260200190565b9201919061082f565b604081019291610150919061081b565b6040513d6000823e3d90fd5b1561088257565b60405162461bcd60e51b815260206004820152602a60248201527f4e6f766156657269666965723a20636f6d6d69742062756e646c6573207665726044820152691a599e4819985a5b195960b21b6064820152608490fd5b50505050909291926108ec6004610363565b15610a31576000906108fe60006102f4565b918591838311610922575b50505061015092935061082761091c9190565b1461087b565b91949093835b865b851015610a17576020866109b99261099c61099660c06109908b8f61096161095c6109578f8486916106c9565b6107bf565b610ece565b61098a73__$7dbcd18908e9089d286e26e0f88e93978e$__9761098460026107df565b998a0152565b8c6106c9565b016107f0565b84840152565b60405193849283918291632b0aac7f60e11b83526004830161085f565b03915af4908115610a125761092a916109dc916000916109e4575b509560010190565b949050610928565b610a05915060203d8111610a0b575b6109fd81836106f4565b810190610807565b386109d4565b503d6109f3565b61086f565b91965086955093509150610827905061091c610150610909565b9050610a3d60006102f4565b83811015610a655780610a5a61095c610957610a609488876106c9565b60010190565b610a3d565b50509050565b9081526040810192916101509160200152565b610ac39160209173__$7dbcd18908e9089d286e26e0f88e93978e$__90610aa460405190565b809581948293610ab863b30c0b6a60e01b90565b845260048401610a6b565b03915af4908115610a1257600091610ad9575090565b610136915060203d602011610a0b576109fd81836106f4565b602090610ac392610b01600090565b5061099c73__$7dbcd18908e9089d286e26e0f88e93978e$__91610996610b2860026107df565b948552565b61013660a061071b565b610b3f610b2d565b906000825260208080808086016000815201600081520160008152016000905250565b610136610b37565b90610150610bce6004610b7b610b2d565b94610b8c610b8882610350565b8752565b610ba2610b9b60018301610350565b6020880152565b610bb8610bb160028301610350565b6040880152565b610601610bc760038301610350565b6060880152565b6080840152565b61013690610b6a565b600190610be9610b62565b50610136610c10610bfe6101363360006105e8565b610c0781610350565b94859101610301565b610bd5565b6101506001600461068c565b907f6ed870f1094df8ae179fc69b273f1d04bfa3209cfd5615f7f958ca38e4973b7291610c59610c5060405190565b92839283610a6b565b0390a1565b15610c6557565b60405162461bcd60e51b8152602060048201526014602482015273189d5b991b1948191bd95cdb89dd08195e1a5cdd60621b6044820152606490fd5b15610ca857565b60405162461bcd60e51b815260206004820152601860248201527f62756e646c6520616c726561647920636f6d706c6574656400000000000000006044820152606490fd5b610d1c6101367f9011e9553fed4438a5ffeb35a9086219bdb68b296243ab1fe76f8a80ed93e649926001610301565b610d7b610d7560006003840193610d48610d3586610350565b610d41610827856102f4565b1415610c5e565b6106016001600a8301610d70610d5d82610363565b610d6a8715155b91151590565b14610ca1565b61068c565b91610350565b90610c59610c5060405190565b610d9461082760039390565b6000915b838310610da55750505050565b610db861084f6001928451815260200190565b92019190610d98565b6060810192916101509190610d88565b602091610e1c610ac394610de3600090565b50610e1573__$2d0a0714831b05881e2c06c18b537c51bb$__93610e0f610e0a60036107df565b968752565b86860152565b6040840152565b604051938492839182916320cf0a3760e01b835260048301610dc1565b634e487b7160e01b600052601160045260246000fd5b91908201809211610e5c57565b610e39565b9060001990610682565b90610e7b6101366106a3926102f4565b8254610e61565b60038210156106d9570190600090565b9160001960089290920291821b911b610682565b9190610eb76101366106a3936102f4565b908354610e92565b9190610eb76101366106a39390565b60a0810190610edb825190565b6001610eea6101368383610301565b92600a840190610ef982610363565b610f04841515610d64565b1461120257610f31600b8601610f2b610f1c82610350565b610f25876102f4565b90610e4f565b90610e6b565b610f3a85610350565b95600096610f4a610827896102f4565b1461116a5750610f5c60028601610350565b421161111d57610fd8610f70606083015190565b610fd3610fcc610fc760c0610f86608088015190565b96610f9f60048d0198610f99888b610e82565b90610ea6565b610fc28c610fbc60208401986007610fb58b5190565b9301610e82565b90610ebf565b015190565b925190565b60056104c6565b610e6b565b61104960208785610e1c610e1561102c6002859861104461103e61102c61101073__$2d0a0714831b05881e2c06c18b537c51bb$__90565b9861103861101e60036107df565b9b61103261102c8289610e82565b906104d7565b908d0152565b84610e82565b89890152565b610e82565b03915af4908115610a12576000916110fe575b5061106f61082761013660038901610350565b146110f7575b611080831515610d64565b1461108d575b5050505050565b7f6ed870f1094df8ae179fc69b273f1d04bfa3209cfd5615f7f958ca38e4973b72946110cf83610d706110dd966110c96003976110d69761068c565b86610301565b8401610350565b9201610350565b906110ea610c5060405190565b0390a13880808080611086565b5081611075565b611117915060203d602011610a0b576109fd81836106f4565b3861105c565b5092610601826111537fb3f13f29de5da1d79d4718ccd5f080dcdc62e0e86916c8a475520ae1a67cb1d8979461115e969761068c565b610d70866002610301565b610c59610c5060405190565b6111e99450916111af8296946111a661119d6111c6966111996111918d6101509e99015190565b888b01610e6b565b5190565b60038801610e6b565b43908601610e6b565b610d706111bd604088015190565b60028601610e6b565b610f9960046111d6608086015190565b92016111e3606086015190565b90610e82565b610fd3610fcc60206111fc60c085015190565b93015190565b50505050505056fea26469706673582212203c8248140401847a2733e4599f8713b9da194ac2da8b8e8bf726d64260ec8f3964736f6c63430008190033",
  "linkReferences": {
    "contracts/ucl/util/PoseidonHasher.sol": {
      "PoseidonHasher": [
        {
          "length": 20,
          "start": 2491
        },
        {
          "length": 20,
          "start": 2780
        },
        {
          "length": 20,
          "start": 2908
        }
      ]
    },
    "contracts/ucl/util/poseidonT4.sol": {
      "PoseidonT4": [
        {
          "length": 20,
          "start": 3646
        },
        {
          "length": 20,
          "start": 4175
        }
      ]
    }
  },
  "deployedLinkReferences": {
    "contracts/ucl/util/PoseidonHasher.sol": {
      "PoseidonHasher": [
        {
          "length": 20,
          "start": 2406
        },
        {
          "length": 20,
          "start": 2695
        },
        {
          "length": 20,
          "start": 2823
        }
      ]
    },
    "contracts/ucl/util/poseidonT4.sol": {
      "PoseidonT4": [
        {
          "length": 20,
          "start": 3561
        },
        {
          "length": 20,
          "start": 4090
        }
      ]
    }
  }
}