{
  "_format": "hh-sol-artifact-1",
  "contractName": "testBN256",
  "sourceName": "contracts/ucl/image9/nova/sol/curve.sol",
  "abi": [
    {
      "inputs": [],
      "name": "run",
      "outputs": [
        {
          "internalType": "bool",
          "name": "result",
          "type": "bool"
        }
      ],
      "stateMutability": "view",
      "type": "function"
    }
  ],
  "bytecode": "0x608060405234601957604051610b8461001f8239610b8490f35b600080fdfe6080604052600436101561001257600080fd5b60003560e01c63c04062260361003257610039565b600091031261003257565b600080fd5b565b3461003257610049366004610027565b610066610054610140565b60405191829182901515815260200190565b0390f35b6100776100776100779290565b90565b634e487b7160e01b600052604160045260246000fd5b90601f01601f1916810190811067ffffffffffffffff8211176100b257604052565b61007a565b906100376100c460405190565b9283610090565b61007760406100b7565b67ffffffffffffffff81116100b25760200290565b6100f6610077916100d5565b6100b7565b602080825260079082015266425547544b5a4760c81b604082015260600190565b1561012357565b60405162461bcd60e51b81528061013c600482016100fb565b0390fd5b61049661017461016f7f10ff4ab61e6109f64b103c45770a0c2ec238622df2dddbf4aee2683203a35b7f61006a565b61006a565b6101ba6101a361016f7f10ff352f0d2acf65fcd3a0517bb3dba40d462da489a9041ffd6e02a1f1ef610061006a565b6101b36101ae6100cb565b938452565b6020830152565b6101c460026100ea565b906101f56101f17f0c724e1809536ec488aaae8b9d889d17994312eff04a726f3f50d7c7c877e9c861006a565b8352565b6102286102217f2aed435a016112962ed82d424afc495542043a4aec0edb793e83d014c7ebeb8961006a565b6020840152565b6102a161023560026100ea565b6102656102617f026af33b14421f71dd26554f1913dfa9f75e0af4ef15218de9be7a5399d4f44d61006a565b8252565b6102916101b37f20c3029a0004aa1762fd18ebcbb0c62d5812a2c4a2e93c91a08549a2b821cd7e61006a565b61022161029c6100cb565b948552565b6102ab60026100ea565b906102d86101f17f068aa54311120ae9e7b6e2e97a81e2965bfb3e094ec5ad7655fc3fe0b351cc6a61006a565b6103046102217f0eaeebc89285a17a92907fa9965b099f51b4cbd0b1d7c8a69690afc80611aca261006a565b61036961031160026100ea565b61033d6102617f070a598756aa16dfa0ae279ae26965b1c6fed951789b8d34b50b01e26847cf2e61006a565b6102916101b37f01d54d82b6a6663b4859fc452f327509d6e2812789babae8c65f835e44cea57661006a565b61039561016f7f127a3e286b5b3f3fc8be58ca7d73295c1a8ccd8b6b90bd9f8f1bfe4f49db29af61006a565b6103c46101a361016f7f180b70d4c9e25866c22393104cb1e61285da0e09fd6b1070535022ed026bbab961006a565b6103f061016f7f117cf3bf35d7d736209b41d4edbabd097c697491211e2590a004dbb59c0eccfd61006a565b9261041d61016f7f23b0aaabd7ede318eccb8f95809b43500fc3a702a27d3b853e6d7c28fd4027ff61006a565b9461044a61016f7f120dde13fbb3836ac32d1eb2afd90da31f21e6a742a519a0a4b3708342f3103a61006a565b9361049161047a61016f7f0b7ce3ea00a2e27f7e7cbab72aaaa82c2b623a594e76af2e583d0fb088356f9261006a565b61048a6104856100cb565b978852565b6020870152565b61049f565b6100778161011c565b6104d06104e5939692946104ca6104c56100779a6104e0956104bf600090565b50610576565b61066f565b906106e1565b916104da8661066f565b95610576565b6106e1565b610800565b6104f26100cb565b906000825260006020830152565b6100776104ea565b369037565b9061003761052361051d846100ea565b936100d5565b83610508565b610077600361050d565b610077600261050d565b5190565b634e487b7160e01b600052603260045260246000fd5b9060035b811015610569576020020190565b610541565b90600261055b565b9190610580610500565b90819361058b610529565b610593610533565b9261059d8361053d565b6105a69061006a565b926000936105b38561006a565b6105bd9085610557565b526020016105ca9061053d565b6105d39061006a565b6105dd600161006a565b6105e79084610557565b526105f19061006a565b6105fb600261006a565b6106059083610557565b52825a6040926007606092fa156106625761065d61016f610642610037959461064d8561064761016f61064261063c60209a61006a565b8661056e565b61053d565b90880152565b610657600161006a565b9061056e565b910152565b80fd5b610077600061006a565b90610678610500565b918261068382610a91565b156106a45761003791506020610697610665565b916106a0838252565b0152565b602061065d6106ca82856106c46106c06000610037990161053d565b8752565b0161053d565b610b0f565b610077600461050d565b90600461055b565b91906106eb610500565b9081936106f66106cf565b6106fe610533565b926107088361053d565b6107119061006a565b9260009361071e8561006a565b61072890856106d9565b526020016107359061053d565b61073e9061006a565b610748600161006a565b61075290846106d9565b5261075e81840161053d565b6107679061006a565b610771600261006a565b61077b90846106d9565b526020016107889061053d565b6107919061006a565b61079b600361006a565b6107a590836106d9565b52825a6040926006608092fa156106625761065d61016f610642610037959461064d8561064761016f61064261063c60209a61006a565b610077600c61050d565b610077600161050d565b90600c61055b565b90600161055b565b909261080a6107dc565b906108136107e6565b9361081d8461053d565b6108269061006a565b936000946108338661006a565b61083d90866107f0565b5260200161084a9061053d565b6108539061006a565b956001966108608861006a565b61086a90866107f0565b5284810180516108798761006a565b6108829161056e565b61088b9061053d565b610895600261006a565b61089f90876107f0565b52516108aa8861006a565b6108b39161056e565b6108bc9061053d565b6108c6600361006a565b6108d090866107f0565b5260200180516108df8661006a565b6108e89161056e565b6108f19061053d565b6108fb600461006a565b61090590866107f0565b52516109108761006a565b6109199161056e565b6109229061053d565b61092c600561006a565b61093690856107f0565b5261094281850161053d565b61094b9061006a565b610955600661006a565b61095f90856107f0565b5260200161096c9061053d565b6109759061006a565b61097f600761006a565b61098990846107f0565b5282810180516109988561006a565b6109a19161056e565b6109aa9061053d565b6109b4600861006a565b6109be90856107f0565b52516109c98661006a565b6109d29161056e565b6109db9061053d565b6109e5600961006a565b6109ef90846107f0565b5260200180516109fe8461006a565b610a079161056e565b610a109061053d565b610a1a600a61006a565b610a2490846107f0565b5251610a2f8561006a565b610a389161056e565b610a419061053d565b610a4b600b61006a565b610a5590836107f0565b52825a602092600861018092fa1561066257610a83610642610a8d93610a7d610a899461006a565b906107f8565b9261006a565b9190565b1490565b610aa2610a9d8261053d565b610b38565b9081610aac575090565b61007791506020610a9d910161053d565b6100777f30644e72e131a029b85045b68181585d97816a916871ca8d3c208c16d87cfd4761006a565b0390565b634e487b7160e01b600052601260045260246000fd5b8115610b0a570690565b610aea565b61016f61007791610b1e600090565b50610b33610b2d610a83610abd565b82610ae6565b610b00565b610b419061006a565b610a8d610a89600061006a56fea26469706673582212209a183d386987b1add34931c544932a04fa52862cb0eb1ee40c3d87b65127179364736f6c63430008190033",
  "linkReferences": {},
  "deployedLinkReferences": {}
}