{
  "_format": "hh-sol-artifact-1",
  "contractName": "RealDigital",
  "sourceName": "contracts/drex-connect/RealDigital.sol",
  "abi": [
    {
      "inputs": [
        {
          "internalType": "string",
          "name": "_name",
          "type": "string"
        },
        {
          "internalType": "string",
          "name": "_symbol",
          "type": "string"
        },
        {
          "internalType": "address",
          "name": "_authority",
          "type": "address"
        }
      ],
      "stateMutability": "nonpayable",
      "type": "constructor"
    },
    {
      "anonymous": false,
      "inputs": [
        {
          "indexed": true,
          "internalType": "address",
          "name": "owner",
          "type": "address"
        },
        {
          "indexed": true,
          "internalType": "address",
          "name": "spender",
          "type": "address"
        },
        {
          "indexed": false,
          "internalType": "uint256",
          "name": "value",
          "type": "uint256"
        }
      ],
      "name": "Approval",
      "type": "event"
    },
    {
      "anonymous": false,
      "inputs": [
        {
          "indexed": true,
          "internalType": "address",
          "name": "member",
          "type": "address"
        }
      ],
      "name": "DisabledAccount",
      "type": "event"
    },
    {
      "anonymous": false,
      "inputs": [
        {
          "indexed": true,
          "internalType": "address",
          "name": "member",
          "type": "address"
        }
      ],
      "name": "EnabledAccount",
      "type": "event"
    },
    {
      "anonymous": false,
      "inputs": [
        {
          "indexed": true,
          "internalType": "address",
          "name": "wallet",
          "type": "address"
        },
        {
          "indexed": false,
          "internalType": "uint256",
          "name": "amount",
          "type": "uint256"
        }
      ],
      "name": "FrozenBalance",
      "type": "event"
    },
    {
      "anonymous": false,
      "inputs": [
        {
          "indexed": false,
          "internalType": "address",
          "name": "account",
          "type": "address"
        }
      ],
      "name": "Paused",
      "type": "event"
    },
    {
      "anonymous": false,
      "inputs": [
        {
          "indexed": true,
          "internalType": "bytes32",
          "name": "role",
          "type": "bytes32"
        },
        {
          "indexed": true,
          "internalType": "bytes32",
          "name": "previousAdminRole",
          "type": "bytes32"
        },
        {
          "indexed": true,
          "internalType": "bytes32",
          "name": "newAdminRole",
          "type": "bytes32"
        }
      ],
      "name": "RoleAdminChanged",
      "type": "event"
    },
    {
      "anonymous": false,
      "inputs": [
        {
          "indexed": true,
          "internalType": "bytes32",
          "name": "role",
          "type": "bytes32"
        },
        {
          "indexed": true,
          "internalType": "address",
          "name": "account",
          "type": "address"
        },
        {
          "indexed": true,
          "internalType": "address",
          "name": "sender",
          "type": "address"
        }
      ],
      "name": "RoleGranted",
      "type": "event"
    },
    {
      "anonymous": false,
      "inputs": [
        {
          "indexed": true,
          "internalType": "bytes32",
          "name": "role",
          "type": "bytes32"
        },
        {
          "indexed": true,
          "internalType": "address",
          "name": "account",
          "type": "address"
        },
        {
          "indexed": true,
          "internalType": "address",
          "name": "sender",
          "type": "address"
        }
      ],
      "name": "RoleRevoked",
      "type": "event"
    },
    {
      "anonymous": false,
      "inputs": [
        {
          "indexed": true,
          "internalType": "address",
          "name": "from",
          "type": "address"
        },
        {
          "indexed": true,
          "internalType": "address",
          "name": "to",
          "type": "address"
        },
        {
          "indexed": false,
          "internalType": "uint256",
          "name": "value",
          "type": "uint256"
        }
      ],
      "name": "Transfer",
      "type": "event"
    },
    {
      "anonymous": false,
      "inputs": [
        {
          "indexed": false,
          "internalType": "address",
          "name": "account",
          "type": "address"
        }
      ],
      "name": "Unpaused",
      "type": "event"
    },
    {
      "inputs": [],
      "name": "ACCESS_ROLE",
      "outputs": [
        {
          "internalType": "bytes32",
          "name": "",
          "type": "bytes32"
        }
      ],
      "stateMutability": "view",
      "type": "function"
    },
    {
      "inputs": [],
      "name": "BURNER_ROLE",
      "outputs": [
        {
          "internalType": "bytes32",
          "name": "",
          "type": "bytes32"
        }
      ],
      "stateMutability": "view",
      "type": "function"
    },
    {
      "inputs": [],
      "name": "DEFAULT_ADMIN_ROLE",
      "outputs": [
        {
          "internalType": "bytes32",
          "name": "",
          "type": "bytes32"
        }
      ],
      "stateMutability": "view",
      "type": "function"
    },
    {
      "inputs": [],
      "name": "FREEZER_ROLE",
      "outputs": [
        {
          "internalType": "bytes32",
          "name": "",
          "type": "bytes32"
        }
      ],
      "stateMutability": "view",
      "type": "function"
    },
    {
      "inputs": [],
      "name": "MINTER_ROLE",
      "outputs": [
        {
          "internalType": "bytes32",
          "name": "",
          "type": "bytes32"
        }
      ],
      "stateMutability": "view",
      "type": "function"
    },
    {
      "inputs": [],
      "name": "MOVER_ROLE",
      "outputs": [
        {
          "internalType": "bytes32",
          "name": "",
          "type": "bytes32"
        }
      ],
      "stateMutability": "view",
      "type": "function"
    },
    {
      "inputs": [],
      "name": "PAUSER_ROLE",
      "outputs": [
        {
          "internalType": "bytes32",
          "name": "",
          "type": "bytes32"
        }
      ],
      "stateMutability": "view",
      "type": "function"
    },
    {
      "inputs": [
        {
          "internalType": "address",
          "name": "owner",
          "type": "address"
        },
        {
          "internalType": "address",
          "name": "spender",
          "type": "address"
        }
      ],
      "name": "allowance",
      "outputs": [
        {
          "internalType": "uint256",
          "name": "",
          "type": "uint256"
        }
      ],
      "stateMutability": "view",
      "type": "function"
    },
    {
      "inputs": [
        {
          "internalType": "address",
          "name": "spender",
          "type": "address"
        },
        {
          "internalType": "uint256",
          "name": "amount",
          "type": "uint256"
        }
      ],
      "name": "approve",
      "outputs": [
        {
          "internalType": "bool",
          "name": "",
          "type": "bool"
        }
      ],
      "stateMutability": "nonpayable",
      "type": "function"
    },
    {
      "inputs": [
        {
          "internalType": "address",
          "name": "account",
          "type": "address"
        }
      ],
      "name": "balanceOf",
      "outputs": [
        {
          "internalType": "uint256",
          "name": "",
          "type": "uint256"
        }
      ],
      "stateMutability": "view",
      "type": "function"
    },
    {
      "inputs": [
        {
          "internalType": "uint256",
          "name": "amount",
          "type": "uint256"
        }
      ],
      "name": "burn",
      "outputs": [],
      "stateMutability": "nonpayable",
      "type": "function"
    },
    {
      "inputs": [
        {
          "internalType": "address",
          "name": "account",
          "type": "address"
        },
        {
          "internalType": "uint256",
          "name": "amount",
          "type": "uint256"
        }
      ],
      "name": "burnFrom",
      "outputs": [],
      "stateMutability": "nonpayable",
      "type": "function"
    },
    {
      "inputs": [],
      "name": "decimals",
      "outputs": [
        {
          "internalType": "uint8",
          "name": "",
          "type": "uint8"
        }
      ],
      "stateMutability": "view",
      "type": "function"
    },
    {
      "inputs": [
        {
          "internalType": "address",
          "name": "spender",
          "type": "address"
        },
        {
          "internalType": "uint256",
          "name": "subtractedValue",
          "type": "uint256"
        }
      ],
      "name": "decreaseAllowance",
      "outputs": [
        {
          "internalType": "bool",
          "name": "",
          "type": "bool"
        }
      ],
      "stateMutability": "nonpayable",
      "type": "function"
    },
    {
      "inputs": [
        {
          "internalType": "address",
          "name": "from",
          "type": "address"
        },
        {
          "internalType": "uint256",
          "name": "amount",
          "type": "uint256"
        }
      ],
      "name": "decreaseFrozenBalance",
      "outputs": [],
      "stateMutability": "nonpayable",
      "type": "function"
    },
    {
      "inputs": [
        {
          "internalType": "address",
          "name": "member",
          "type": "address"
        }
      ],
      "name": "disableAccount",
      "outputs": [],
      "stateMutability": "nonpayable",
      "type": "function"
    },
    {
      "inputs": [
        {
          "internalType": "address",
          "name": "member",
          "type": "address"
        }
      ],
      "name": "enableAccount",
      "outputs": [],
      "stateMutability": "nonpayable",
      "type": "function"
    },
    {
      "inputs": [
        {
          "internalType": "address",
          "name": "account",
          "type": "address"
        }
      ],
      "name": "frozenBalanceOf",
      "outputs": [
        {
          "internalType": "uint256",
          "name": "",
          "type": "uint256"
        }
      ],
      "stateMutability": "view",
      "type": "function"
    },
    {
      "inputs": [
        {
          "internalType": "bytes32",
          "name": "role",
          "type": "bytes32"
        }
      ],
      "name": "getRoleAdmin",
      "outputs": [
        {
          "internalType": "bytes32",
          "name": "",
          "type": "bytes32"
        }
      ],
      "stateMutability": "view",
      "type": "function"
    },
    {
      "inputs": [
        {
          "internalType": "address",
          "name": "account",
          "type": "address"
        }
      ],
      "name": "grantAdminRole",
      "outputs": [],
      "stateMutability": "nonpayable",
      "type": "function"
    },
    {
      "inputs": [
        {
          "internalType": "bytes32",
          "name": "role",
          "type": "bytes32"
        },
        {
          "internalType": "address",
          "name": "account",
          "type": "address"
        }
      ],
      "name": "grantRole",
      "outputs": [],
      "stateMutability": "nonpayable",
      "type": "function"
    },
    {
      "inputs": [
        {
          "internalType": "bytes32",
          "name": "role",
          "type": "bytes32"
        },
        {
          "internalType": "address",
          "name": "account",
          "type": "address"
        }
      ],
      "name": "hasRole",
      "outputs": [
        {
          "internalType": "bool",
          "name": "",
          "type": "bool"
        }
      ],
      "stateMutability": "view",
      "type": "function"
    },
    {
      "inputs": [
        {
          "internalType": "address",
          "name": "spender",
          "type": "address"
        },
        {
          "internalType": "uint256",
          "name": "addedValue",
          "type": "uint256"
        }
      ],
      "name": "increaseAllowance",
      "outputs": [
        {
          "internalType": "bool",
          "name": "",
          "type": "bool"
        }
      ],
      "stateMutability": "nonpayable",
      "type": "function"
    },
    {
      "inputs": [
        {
          "internalType": "address",
          "name": "from",
          "type": "address"
        },
        {
          "internalType": "uint256",
          "name": "amount",
          "type": "uint256"
        }
      ],
      "name": "increaseFrozenBalance",
      "outputs": [],
      "stateMutability": "nonpayable",
      "type": "function"
    },
    {
      "inputs": [
        {
          "internalType": "address",
          "name": "to",
          "type": "address"
        },
        {
          "internalType": "uint256",
          "name": "amount",
          "type": "uint256"
        }
      ],
      "name": "mint",
      "outputs": [],
      "stateMutability": "nonpayable",
      "type": "function"
    },
    {
      "inputs": [
        {
          "internalType": "address",
          "name": "from",
          "type": "address"
        },
        {
          "internalType": "address",
          "name": "to",
          "type": "address"
        },
        {
          "internalType": "uint256",
          "name": "amount",
          "type": "uint256"
        }
      ],
      "name": "move",
      "outputs": [],
      "stateMutability": "nonpayable",
      "type": "function"
    },
    {
      "inputs": [
        {
          "internalType": "address",
          "name": "from",
          "type": "address"
        },
        {
          "internalType": "uint256",
          "name": "amount",
          "type": "uint256"
        }
      ],
      "name": "moveAndBurn",
      "outputs": [],
      "stateMutability": "nonpayable",
      "type": "function"
    },
    {
      "inputs": [],
      "name": "name",
      "outputs": [
        {
          "internalType": "string",
          "name": "",
          "type": "string"
        }
      ],
      "stateMutability": "view",
      "type": "function"
    },
    {
      "inputs": [],
      "name": "pause",
      "outputs": [],
      "stateMutability": "nonpayable",
      "type": "function"
    },
    {
      "inputs": [],
      "name": "paused",
      "outputs": [
        {
          "internalType": "bool",
          "name": "",
          "type": "bool"
        }
      ],
      "stateMutability": "view",
      "type": "function"
    },
    {
      "inputs": [
        {
          "internalType": "bytes32",
          "name": "role",
          "type": "bytes32"
        },
        {
          "internalType": "address",
          "name": "account",
          "type": "address"
        }
      ],
      "name": "renounceRole",
      "outputs": [],
      "stateMutability": "nonpayable",
      "type": "function"
    },
    {
      "inputs": [
        {
          "internalType": "bytes32",
          "name": "role",
          "type": "bytes32"
        },
        {
          "internalType": "address",
          "name": "account",
          "type": "address"
        }
      ],
      "name": "revokeRole",
      "outputs": [],
      "stateMutability": "nonpayable",
      "type": "function"
    },
    {
      "inputs": [
        {
          "internalType": "address",
          "name": "caller",
          "type": "address"
        },
        {
          "internalType": "address",
          "name": "account",
          "type": "address"
        }
      ],
      "name": "safeBalanceOf",
      "outputs": [
        {
          "internalType": "uint256",
          "name": "",
          "type": "uint256"
        }
      ],
      "stateMutability": "view",
      "type": "function"
    },
    {
      "inputs": [
        {
          "internalType": "bytes4",
          "name": "interfaceId",
          "type": "bytes4"
        }
      ],
      "name": "supportsInterface",
      "outputs": [
        {
          "internalType": "bool",
          "name": "",
          "type": "bool"
        }
      ],
      "stateMutability": "view",
      "type": "function"
    },
    {
      "inputs": [],
      "name": "symbol",
      "outputs": [
        {
          "internalType": "string",
          "name": "",
          "type": "string"
        }
      ],
      "stateMutability": "view",
      "type": "function"
    },
    {
      "inputs": [],
      "name": "totalSupply",
      "outputs": [
        {
          "internalType": "uint256",
          "name": "",
          "type": "uint256"
        }
      ],
      "stateMutability": "view",
      "type": "function"
    },
    {
      "inputs": [
        {
          "internalType": "address",
          "name": "to",
          "type": "address"
        },
        {
          "internalType": "uint256",
          "name": "amount",
          "type": "uint256"
        }
      ],
      "name": "transfer",
      "outputs": [
        {
          "internalType": "bool",
          "name": "",
          "type": "bool"
        }
      ],
      "stateMutability": "nonpayable",
      "type": "function"
    },
    {
      "inputs": [
        {
          "internalType": "address",
          "name": "from",
          "type": "address"
        },
        {
          "internalType": "address",
          "name": "to",
          "type": "address"
        },
        {
          "internalType": "uint256",
          "name": "amount",
          "type": "uint256"
        }
      ],
      "name": "transferFrom",
      "outputs": [
        {
          "internalType": "bool",
          "name": "",
          "type": "bool"
        }
      ],
      "stateMutability": "nonpayable",
      "type": "function"
    },
    {
      "inputs": [],
      "name": "unpause",
      "outputs": [],
      "stateMutability": "nonpayable",
      "type": "function"
    },
    {
      "inputs": [
        {
          "internalType": "address",
          "name": "account",
          "type": "address"
        }
      ],
      "name": "verifyAccount",
      "outputs": [
        {
          "internalType": "bool",
          "name": "",
          "type": "bool"
        }
      ],
      "stateMutability": "view",
      "type": "function"
    }
  ],
  "bytecode": "0x60806040523461002b5761001a61001461018c565b916101af565b60405161245f6106e2823961245f90f35b600080fd5b634e487b7160e01b600052604160045260246000fd5b90601f01601f191681019081106001600160401b0382111761006757604052565b610030565b9061008061007960405190565b9283610046565b565b6001600160401b03811161006757602090601f01601f19160190565b60005b8381106100b15750506000910152565b81810151838201526020016100a1565b909291926100d66100d182610082565b61006c565b938185528183011161002b5761008091602085019061009e565b9080601f8301121561002b57815161010a926020016100c1565b90565b6001600160a01b031690565b6001600160a01b0381160361002b57565b9050519061008082610119565b909160608284031261002b5781516001600160401b03811161002b578361015f9184016100f0565b602083015190936001600160401b03821161002b5760406101858261010a9487016100f0565b940161012a565b6101aa612b418038038061019f8161006c565b928339810190610137565b909192565b610080926101e2565b9060ff905b9181191691161790565b906101d761010a6101de92151590565b82546101b8565b9055565b906101ed9291610210565b610080600060076101c7565b61010a61010a61010a9290565b61010a60006101f9565b9161021a9161036d565b610222610206565b61022c3382610593565b7f7def632d64a7259044c921303d544f945a340c8d4334adc0e0bd830a54deb528916102588184610593565b817f9f2df0fed2c77648de5860a4cc508cd0818c85b8b8a1ab4ceeef8d981c8956a66102848382610593565b817f3c11d16cbaffd01df69ce1c404f6340ee057498f5f00246190ea54220576a8486102b08582610593565b817fe5ed70e23144309ce456cb48bf5e6d0d8e160f094a6d65ecf1d5b03cf292d8e6936102dd8786610593565b7f92de27771f92d6942691d73358b3a4673e4880de8356f8f2cf452be87e02d363966103099088610593565b817f65d7a28e3265b37a6474929f336521b332c1681b933f6cb9f3376673440d862a9981610337338d610593565b6103409161063b565b6103499161063b565b6103529161063b565b61035b9161063b565b6103649161063b565b6100809161063b565b6100809182918291829161053d565b634e487b7160e01b600052602260045260246000fd5b90600160028304921680156103b2575b60208310146103ad57565b61037c565b91607f16916103a2565b9160001960089290920291821b911b6101bd565b91906103e161010a6101de936101f9565b9083546103bc565b610080916000916103d0565b818110610400575050565b8061040e60006001936103e9565b016103f5565b9190601f811161042357505050565b61043561008093600052602060002090565b906020601f840181900483019310610457575b6020601f9091010401906103f5565b9091508190610448565b9061046a815190565b906001600160401b0382116100675761048d826104878554610392565b85610414565b602090601f83116001146104c8576101de9291600091836104bd575b5050600019600883021c1916906002021790565b0151905038806104a9565b601f198316916104dd85600052602060002090565b9260005b81811061051b57509160029391856001969410610502575b50505002019055565b01516000196008601f8516021c191690553880806104f9565b919360206001819287870151815501950192016104e1565b9061008091610461565b9061054c610080926003610533565b6004610533565b905b600052602052604060002090565b61010a9061010d906001600160a01b031682565b61010a90610563565b61010a90610577565b9061055590610580565b6105a46105a08383610695565b1590565b6105ac575050565b6105cd60016105c88460006105c2866005610553565b01610589565b6101c7565b6105eb6105e56105df339390565b9390565b93610580565b91610580565b917f2f8788117e7eff1d82e926ec794901d17c78024a50270940304540a733656f0d61061660405190565b600090a4565b90600019906101bd565b9061063461010a6101de9290565b825461061c565b9061066a6106666105db61064e856106ca565b9461010a856001610660846005610553565b01610626565b9190565b917fbd79b86ffe0ab8e8776151514217cd7cacd52c909f66475c3af44e129f0b00ff61061660405190565b61010a9160006105c26106b2936106aa600090565b506005610553565b5460ff1690565b61010a9081565b61010a90546106b9565b60016106db61010a926106aa600090565b016106c056fe6080604052600436101561001257600080fd5b60003560e01c806301ffc9a71461029257806306a85f0f1461028d57806306fdde0314610288578063095ea7b31461028357806316df06c41461027e57806318160ddd146102795780631a3f51521461027457806323b872dd1461026f578063248a9ca31461026a578063282c51f314610265578063286041bd146102605780632b218c6a1461025b5780632f2ff15d14610256578063313ce5671461025157806336568abe1461024c57806339509351146102475780633f4ba83a1461024257806340c10f191461023d57806342966c681461023857806356b855aa146102335780635c975abb1461022e57806370a082311461022957806379cc6790146102245780638456cb591461021f57806384b615811461021a5780638c79ba3a1461021557806391d148541461021057806395d89b411461020b578063a217fddf14610206578063a457c2d714610201578063a9059cbb146101fc578063b4a4ed39146101f7578063bb35783b146101f2578063be91de53146101ed578063c634b78e146101e8578063d5391393146101e3578063d547741f146101de578063dd62ed3e146101d9578063e63ab1e9146101d45763f16dfbe9036102aa57610956565b61091d565b610901565b6108e8565b6108af565b610897565b61087c565b610863565b61084a565b61082e565b610812565b6107f7565b6107bd565b6107a1565b610789565b610771565b610759565b610740565b610725565b6106f6565b6106bd565b6106a5565b61068c565b610674565b610658565b61063f565b610610565b6105f7565b6105c2565b610589565b610550565b610535565b610505565b6104be565b6104a3565b610487565b610448565b6103c3565b610311565b6102d5565b6001600160e01b031981165b036102aa57565b600080fd5b905035906102bc82610297565b565b906020828203126102aa576102d2916102af565b90565b346102aa576103026102f06102eb3660046102be565b610971565b60405191829182901515815260200190565b0390f35b60009103126102aa57565b346102aa57610321366004610306565b6103027f92de27771f92d6942691d73358b3a4673e4880de8356f8f2cf452be87e02d3635b6040515b9182918290815260200190565b60005b83811061036a5750506000910152565b818101518382015260200161035a565b61039b6103a46020936103ae9361038f815190565b80835293849260200190565b95869101610357565b601f01601f191690565b0190565b60208082526102d29291019061037a565b346102aa576103d3366004610306565b6103026103de610ae0565b604051918291826103b2565b6001600160a01b031690565b6001600160a01b0381166102a3565b905035906102bc826103f6565b806102a3565b905035906102bc82610412565b91906040838203126102aa576102d29060206104418286610405565b9401610418565b346102aa576103026102f061045e366004610425565b90610b73565b91906040838203126102aa576102d29060206104808286610405565b9401610405565b346102aa5761030261034661049d366004610464565b90610c08565b346102aa576104b3366004610306565b610302610346610c25565b346102aa576104d76104d1366004610425565b90610cb8565b604051005b90916060828403126102aa576102d26104f58484610405565b9360406104418260208701610405565b346102aa576103026102f061051b3660046104dc565b91610e45565b906020828203126102aa576102d291610418565b346102aa5761030261034661054b366004610521565b610e62565b346102aa57610560366004610306565b6103027f3c11d16cbaffd01df69ce1c404f6340ee057498f5f00246190ea54220576a848610346565b346102aa57610599366004610306565b6103027fe5ed70e23144309ce456cb48bf5e6d0d8e160f094a6d65ecf1d5b03cf292d8e6610346565b346102aa576104d76105d5366004610425565b90610f7a565b91906040838203126102aa576102d29060206104808286610418565b346102aa576104d761060a3660046105db565b90610f9f565b346102aa57610620366004610306565b61030261062b610fbc565b6040519182918260ff909116815260200190565b346102aa576104d76106523660046105db565b9061102a565b346102aa576103026102f061066e366004610425565b906110da565b346102aa57610684366004610306565b6104d7611125565b346102aa576104d761069f366004610425565b906111a1565b346102aa576104d76106b8366004610521565b6111fe565b346102aa576106cd366004610306565b6103027f7def632d64a7259044c921303d544f945a340c8d4334adc0e0bd830a54deb528610346565b346102aa57610706366004610306565b6103026102f061121a565b906020828203126102aa576102d291610405565b346102aa5761030261034661073b366004610711565b611224565b346102aa576104d7610753366004610425565b906112cb565b346102aa57610769366004610306565b6104d7611314565b346102aa576104d7610784366004610711565b6113bd565b346102aa576104d761079c366004610711565b611431565b346102aa576103026102f06107b73660046105db565b9061143a565b346102aa576107cd366004610306565b6103026103de61145a565b6102d26102d26102d29290565b6102d260006107d8565b6102d26107e5565b346102aa57610807366004610306565b6103026103466107ef565b346102aa576103026102f0610828366004610425565b90611506565b346102aa576103026102f0610844366004610425565b906115a5565b346102aa576104d761085d366004610425565b906116a7565b346102aa576104d76108763660046104dc565b91611704565b346102aa57610302610346610892366004610711565b61170f565b346102aa576104d76108aa366004610711565b611746565b346102aa576108bf366004610306565b6103027f9f2df0fed2c77648de5860a4cc508cd0818c85b8b8a1ab4ceeef8d981c8956a6610346565b346102aa576104d76108fb3660046105db565b9061176a565b346102aa57610302610346610917366004610464565b90611774565b346102aa5761092d366004610306565b6103027f65d7a28e3265b37a6474929f336521b332c1681b933f6cb9f3376673440d862a610346565b346102aa576103026102f061096c366004610711565b61178f565b637965db0b60e01b6001600160e01b0319821614908115610990575090565b6102d291506001600160e01b0319166301ffc9a760e01b1490565b634e487b7160e01b600052602260045260246000fd5b90600160028304921680156109e1575b60208310146109dc57565b6109ab565b91607f16916109d1565b80546000939291610a086109fe836109c1565b8085529360200190565b9160018116908115610a5a5750600114610a2157505050565b610a349192939450600052602060002090565b916000925b818410610a465750500190565b805484840152602090930192600101610a39565b92949550505060ff1916825215156020020190565b906102d2916109eb565b634e487b7160e01b600052604160045260246000fd5b90601f01601f1916810190811067ffffffffffffffff821117610ab157604052565b610a79565b906102bc610ad092610ac760405190565b93848092610a6f565b0383610a8f565b6102d290610ab6565b6102d26003610ad7565b906102d29291610af86117e5565b610b51565b15610b0457565b60405162461bcd60e51b815280610b4d600482016020808252818101527f53656e646572206163636f756e74206973206e6f7420617574686f72697a6564604082015260600190565b0390fd5b50610b6e9190610b68610b633361178f565b610afd565b336118ab565b600190565b6102d291906000610aea565b15610b8657565b60405162461bcd60e51b815260206004820152600d60248201526c1058d8d95cdcc819195b9a5959609a1b6044820152606490fd5b906102d29291610bd282610bcd6107e5565b61143a565b8015610be7575b610be290610b7f565b610bfc565b506001600160a01b0382811690841614610bd9565b6102d29291505061193c565b6102d291906000610bbb565b6102d29081565b6102d29054610c14565b6102d26002610c1b565b906102bc91610c3c6117e5565b6102bc9190610c6f7fe5ed70e23144309ce456cb48bf5e6d0d8e160f094a6d65ecf1d5b03cf292d8e6611953565b611953565b610c9a565b6102d2906103ea906001600160a01b031682565b6102d290610c74565b6102d290610c88565b906102bc91610cb382610cac30610c91565b8093611704565b611a0b565b906102bc91610c2f565b906102d2939291610cd16117e5565b610dbb565b15610cdd57565b60405162461bcd60e51b815260206004820152602860248201527f45524332303a207472616e7366657220616d6f756e74206578636565647320616044820152676c6c6f77616e636560c01b6064820152608490fd5b15610d3a57565b60405162461bcd60e51b815260206004820152602b60248201527f4569746865722066726f6d206f7220746f206163636f756e74206973206e6f7460448201526a08185d5d1a1bdc9a5e995960aa1b6064820152608490fd5b634e487b7160e01b600052601160045260246000fd5b91908203918211610db657565b610d93565b92610e0781610e169394610b6e9650610de9610dd73388611774565b8390610de2565b9190565b1015610cd6565b610df28661178f565b80610e31575b610e0190610d33565b85611704565b610e113384611774565b610da9565b90610e2a610e2460006107d8565b83610de2565b33906118ab565b50610e01610e3e8261178f565b9050610df8565b6102d29291906000610cc2565b905b600052602052604060002090565b6001610e7b6102d292610e73600090565b506005610e52565b01610c1b565b906102bc91610e8e6117e5565b6102bc9190610ebc7f92de27771f92d6942691d73358b3a4673e4880de8356f8f2cf452be87e02d363611953565b610f03565b90610e5490610c91565b91908201809211610db657565b90600019905b9181191691161790565b90610ef86102d2610eff926107d8565b8254610ed8565b9055565b90610f2b90610f25610f16846008610ec1565b91610f2083610c1b565b610ecb565b90610ee8565b7fd2dc74064ce9979876047afc7922931592038bce8a7fbaf28417799c138e4e4d610f75610f6b610f65610f60856008610ec1565b610c1b565b93610c91565b9261034a60405190565b0390a2565b906102bc91610e81565b906102bc91610f95610c6a82610e62565b906102bc91611ab1565b906102bc91610f84565b610fb66102d26102d29290565b60ff1690565b6102d26002610fa9565b15610fcd57565b60405162461bcd60e51b815260206004820152602f60248201527f416363657373436f6e74726f6c3a2063616e206f6e6c792072656e6f756e636560448201526e103937b632b9903337b91039b2b63360891b6064820152608490fd5b6102bc919061104b61103b336103ea565b6001600160a01b03841614610fc6565b611b21565b906102d2929161105e6117e5565b6110af565b1561106a57565b60405162461bcd60e51b815260206004820152601960248201527f4163636f756e74206973206e6f7420617574686f72697a6564000000000000006044820152606490fd5b50610b6e916110d3906110c96110c43361178f565b611063565b610f208333611774565b90336118ab565b6102d291906000611050565b6110ee611bc4565b6102bc61111a7f65d7a28e3265b37a6474929f336521b332c1681b933f6cb9f3376673440d862a611953565b6102bc6102bc611c30565b6102bc6110e6565b906102bc9161113a6117e5565b6102bc91906111687f9f2df0fed2c77648de5860a4cc508cd0818c85b8b8a1ab4ceeef8d981c8956a6611953565b611183565b6103ea6102d26102d29290565b6102d29061116d565b906102bc9161119c8282611197600061117a565b611da1565b611df8565b906102bc9161112d565b6102bc906111d87f3c11d16cbaffd01df69ce1c404f6340ee057498f5f00246190ea54220576a848611953565b6102bc906111e46117e5565b6102bc90335b610cb3826111f8600061117a565b83611da1565b6102bc906111ab565b6102d290610fb6565b6102d29054611207565b6102d26007611210565b6102d29033610c08565b906102bc9161123b6117e5565b611298565b1561124757565b60405162461bcd60e51b8152602060048201526024808201527f45524332303a206275726e20616d6f756e74206578636565647320616c6c6f77604482015263616e636560e01b6064820152608490fd5b6102bc91906111ea336112b66112ae8285611774565b851115611240565b6112c484610e118386611774565b90836118ab565b906102bc9161122e565b6112dd6117e5565b6102bc6113097f65d7a28e3265b37a6474929f336521b332c1681b933f6cb9f3376673440d862a611953565b6102bc6102bc611ebd565b6102bc6112d5565b6102bc906113497f7def632d64a7259044c921303d544f945a340c8d4334adc0e0bd830a54deb528611953565b61136e565b9060ff90610ede565b906113676102d2610eff92151590565b825461134e565b61138c906113876001611382836006610ec1565b611357565b610c91565b7f0211b3717a1e4e9d5dbd306d57337bd16341444ff1a3ca9d920060322b1aa6406113b660405190565b8080610f75565b6102bc9061131c565b6102bc906113f37f7def632d64a7259044c921303d544f945a340c8d4334adc0e0bd830a54deb528611953565b611407906113876000611382836006610ec1565b7fa1505d69e69c406db19c16f3ec0bf25ae47eefb6ae68ab936d75df946fcd14cf6113b660405190565b6102bc906113c6565b6102d291600061144f61145593610e73600090565b01610ec1565b611210565b6102d26004610ad7565b906102d292916114726117e5565b6114d1565b1561147e57565b60405162461bcd60e51b815260206004820152602560248201527f45524332303a2064656372656173656420616c6c6f77616e63652062656c6f77604482015264207a65726f60d81b6064820152608490fd5b50610b6e916114f0906114e66110c43361178f565b610e118333611774565b90610b686114fe60006107d8565b831015611477565b6102d291906000611464565b906102d292916115206117e5565b61157c565b1561152c57565b60405162461bcd60e51b815260206004820152602260248201527f5265636569766572206163636f756e74206973206e6f7420617574686f72697a604482015261195960f21b6064820152608490fd5b50610b6e919061158e610b633361178f565b61159f61159a8261178f565b611525565b33611704565b6102d291906000611512565b906102bc916115be6117e5565b6102bc91906115ec7f92de27771f92d6942691d73358b3a4673e4880de8356f8f2cf452be87e02d363611953565b61163d565b156115f857565b60405162461bcd60e51b815260206004820152601c60248201527f46726f7a656e2062616c616e6365206973206e6f7420656e6f756768000000006044820152606490fd5b90610f75610f6b610f65610f60857fd2dc74064ce9979876047afc7922931592038bce8a7fbaf28417799c138e4e4d956116a260089161168b611683610f608686610ec1565b8211156115f1565b610f256116988585610ec1565b91610e1183610c1b565b610ec1565b906102bc916115b1565b906102bc92916116bf6117e5565b6102bc9291906116ee7fe5ed70e23144309ce456cb48bf5e6d0d8e160f094a6d65ecf1d5b03cf292d8e6611953565b906102bc92916116ff838383611da1565b611fd2565b906102bc92916116b1565b610f606102d29161171e600090565b506008610ec1565b6102bc90611735610c6a6107e5565b6102bc906117416107e5565b611ab1565b6102bc90611726565b906102bc91611760610c6a82610e62565b906102bc91611b21565b906102bc9161174f565b6102d2916116a2610f6092611787600090565b506001610ec1565b6114556102d29161179e600090565b506006610ec1565b156117ad57565b60405162461bcd60e51b815260206004820152601060248201526f14185d5cd8589b194e881c185d5cd95960821b6044820152606490fd5b6102bc6117f76117f361121a565b1590565b6117a6565b1561180357565b60405162461bcd60e51b8152602060048201526024808201527f45524332303a20617070726f76652066726f6d20746865207a65726f206164646044820152637265737360e01b6064820152608490fd5b1561185b57565b60405162461bcd60e51b815260206004820152602260248201527f45524332303a20617070726f766520746f20746865207a65726f206164647265604482015261737360f01b6064820152608490fd5b61193761192d610f657f8c5be1e5ebec7d5bd14f71427d1e84f3dd0314c0f7b2291e5b200ac8c7c3b925936119156119046118e6600061117a565b6103ea6001600160a01b0382166001600160a01b03861614156117fc565b6001600160a01b0388161415611854565b61138787611928886116a2856001610ec1565b610ee8565b9361034a60405190565b0390a3565b610f606102d29161194b600090565b506000610ec1565b6102bc9033906120fe565b1561196557565b60405162461bcd60e51b815260206004820152602160248201527f45524332303a206275726e2066726f6d20746865207a65726f206164647265736044820152607360f81b6064820152608490fd5b156119bb57565b60405162461bcd60e51b815260206004820152602260248201527f45524332303a206275726e20616d6f756e7420657863656564732062616c616e604482015261636560f01b6064820152608490fd5b7fddf252ad1be2c89b69c2b068fc378daa952ba7f163c4a11628f55a4df523b3ef61193761192d610f65600094611a99611a448761117a565b96611a636001600160a01b0389166001600160a01b038516141561195e565b611a6e898985611da1565b61192883611a938b611a83610f608487610ec1565b611a8f828210156119b4565b0390565b92610ec1565b611387611aaa88611a8f6002610c1b565b6002610ee8565b611abe6117f3838361143a565b611ac6575050565b611adc600161138284600061144f866005610e52565b611af0611aea610f65339390565b91610c91565b917f2f8788117e7eff1d82e926ec794901d17c78024a50270940304540a733656f0d611b1b60405190565b600090a4565b611b2b828261143a565b611b33575050565b611b486000611382848261144f866005610e52565b611b56611aea610f65339390565b917ff6391f5c32d9c69d2a47ea670b442974b53935d1edc7fd64eb21e047a839171b611b1b60405190565b15611b8857565b60405162461bcd60e51b815260206004820152601460248201527314185d5cd8589b194e881b9bdd081c185d5cd95960621b6044820152606490fd5b6102bc611bcf61121a565b611b81565b611bdc611bc4565b6102bc611beb60006007611357565b7f5db9ee0a495bf2e6ff9c91a7834c1ba4fdd244a5e8aa4e537bd38aeae4b073aa611c2b335b604051918291826001600160a01b03909116815260200190565b0390a1565b6102bc611bd4565b906102bc9291611c466117e5565b611ca1565b15611c5257565b60405162461bcd60e51b815260206004820152602160248201527f5265616c4469676974616c3a20696e73756666696369656e742062616c616e636044820152606560f81b6064820152608490fd5b906102bc9291611cb46103ea600061117a565b6001600160a01b03821614611cea57611cea611ce2611cd38380610c08565b611cdc8461170f565b90610da9565b841115611c4b565b9150611cf6600061117a565b6001600160a01b0381166001600160a01b03841614158080611d85575b15611d43575050611d266102bc9261178f565b9081611d33575b50610b7f565b611d3d915061178f565b38611d2d565b15611d5b575050611d566102bc9161178f565b610b7f565b9091506001600160a01b03166001600160a01b03821603611d795750565b611d566102bc9161178f565b506001600160a01b0382166001600160a01b0384161415611d13565b906102bc9291611c38565b15611db357565b60405162461bcd60e51b815260206004820152601f60248201527f45524332303a206d696e7420746f20746865207a65726f2061646472657373006044820152606490fd5b7fddf252ad1be2c89b69c2b068fc378daa952ba7f163c4a11628f55a4df523b3ef61193761192d610f656000611387611e6f87611e348461117a565b93611e536001600160a01b0386166001600160a01b0384161415611dac565b611e5e8b8387611da1565b6116a2611aaa8c610f206002610c1b565b610f25896103ae83610c1b565b611e846117e5565b6102bc611e9360016007611357565b7f62e78cea01bee320cd4e420270b5ea74000d11b0c9f74754ebdbfc544b05a258611c2b33611c11565b6102bc611e7c565b15611ecc57565b60405162461bcd60e51b815260206004820152602560248201527f45524332303a207472616e736665722066726f6d20746865207a65726f206164604482015264647265737360d81b6064820152608490fd5b15611f2657565b60405162461bcd60e51b815260206004820152602360248201527f45524332303a207472616e7366657220746f20746865207a65726f206164647260448201526265737360e81b6064820152608490fd5b15611f7e57565b60405162461bcd60e51b815260206004820152602660248201527f45524332303a207472616e7366657220616d6f756e7420657863656564732062604482015265616c616e636560d01b6064820152608490fd5b61193761192d610f657fddf252ad1be2c89b69c2b068fc378daa952ba7f163c4a11628f55a4df523b3ef93611387611e6f8760006120446120336120158361117a565b6103ea6001600160a01b0382166001600160a01b038a161415611ec5565b6001600160a01b0384161415611f1f565b61204f8b8387611da1565b6116a261206f8c612063610f608986610ec1565b611a8f82821015611f77565b6119288784610ec1565b6102d2906107d8565b6103ae61209a92602092612094815190565b94859290565b93849101610357565b6120e16102d293926120db6120db937f416363657373436f6e74726f6c3a206163636f756e7420000000000000000000815260170190565b90612082565b7001034b99036b4b9b9b4b733903937b6329607d1b815260110190565b9061210c6117f3828461143a565b612114575050565b61215e6102d2610b4d9361214661213661213061216a966121ae565b92612079565b61214060206107d8565b90612306565b9061215060405190565b9384926020840192836120a3565b90810382520382610a8f565b60405162461bcd60e51b8152918291600483016103b2565b6102d29081906001600160a01b031681565b6102d26014610fa9565b6102d26102d26102d29260ff1690565b6121cb6121c66102d2926121c0606090565b50610c88565b612182565b6121406121d6612194565b61219e565b81810292918115918404141715610db657565b906102bc6121fb60405190565b9283610a8f565b67ffffffffffffffff8111610ab157602090601f01601f19160190565b9061223161222c83612202565b6121ee565b918252565b369037565b906102bc61225161224b8461221f565b93612202565b601f190160208401612236565b634e487b7160e01b600052603260045260246000fd5b9061227d825190565b81101561228b570160200190565b61225e565b8015610db6576000190190565b6102d2906122b1610dde6102d29460ff1690565b901c90565b156122bd57565b60405162461bcd60e51b815280610b4d600482016020808252818101527f537472696e67733a20686578206c656e67746820696e73756666696369656e74604082015260600190565b9091906123376123326123228561231d60026107d8565b6121db565b61232c60026107d8565b90610ecb565b61223b565b906000603061234e612348836107d8565b85612274565b53600f60fb1b61238761237e6001978893851a61237361236d866107d8565b89612274565b5361231d60026107d8565b61232c836107d8565b905b6123ab575b506102d2939450906123a5610dde6102d2936107d8565b146122b6565b916123b5866107d8565b831115612423576f181899199a1a9b1b9c1cb0b131b232b360811b6123da600f6107d8565b821690601082101561228b5787926123fa6124179261241d941a60f81b90565b851a6124068789612274565b536124116004610fa9565b9061229d565b93612290565b90612389565b9161238e56fea2646970667358221220a7fbb9214cc2a8d27d873d58d90b3152d6158d82ea5518d22af15026b8fc4ca264736f6c63430008190033",
  "linkReferences": {},
  "deployedLinkReferences": {}
}