{
  "_format": "hh-sol-artifact-1",
  "contractName": "RealTokenizado",
  "sourceName": "contracts/drex-connect/RealTokenizado.sol",
  "abi": [
    {
      "inputs": [
        {
          "internalType": "string",
          "name": "_name",
          "type": "string"
        },
        {
          "internalType": "string",
          "name": "_symbol",
          "type": "string"
        },
        {
          "internalType": "address",
          "name": "_authority",
          "type": "address"
        },
        {
          "internalType": "string",
          "name": "_participant",
          "type": "string"
        },
        {
          "internalType": "uint256",
          "name": "_cnpj8",
          "type": "uint256"
        },
        {
          "internalType": "address",
          "name": "_reserve",
          "type": "address"
        }
      ],
      "stateMutability": "nonpayable",
      "type": "constructor"
    },
    {
      "anonymous": false,
      "inputs": [
        {
          "indexed": true,
          "internalType": "address",
          "name": "owner",
          "type": "address"
        },
        {
          "indexed": true,
          "internalType": "address",
          "name": "spender",
          "type": "address"
        },
        {
          "indexed": false,
          "internalType": "uint256",
          "name": "value",
          "type": "uint256"
        }
      ],
      "name": "Approval",
      "type": "event"
    },
    {
      "anonymous": false,
      "inputs": [
        {
          "indexed": true,
          "internalType": "address",
          "name": "member",
          "type": "address"
        }
      ],
      "name": "DisabledAccount",
      "type": "event"
    },
    {
      "anonymous": false,
      "inputs": [
        {
          "indexed": true,
          "internalType": "address",
          "name": "member",
          "type": "address"
        }
      ],
      "name": "EnabledAccount",
      "type": "event"
    },
    {
      "anonymous": false,
      "inputs": [
        {
          "indexed": true,
          "internalType": "address",
          "name": "wallet",
          "type": "address"
        },
        {
          "indexed": false,
          "internalType": "uint256",
          "name": "amount",
          "type": "uint256"
        }
      ],
      "name": "FrozenBalance",
      "type": "event"
    },
    {
      "anonymous": false,
      "inputs": [
        {
          "indexed": false,
          "internalType": "address",
          "name": "account",
          "type": "address"
        }
      ],
      "name": "Paused",
      "type": "event"
    },
    {
      "anonymous": false,
      "inputs": [
        {
          "indexed": true,
          "internalType": "bytes32",
          "name": "role",
          "type": "bytes32"
        },
        {
          "indexed": true,
          "internalType": "bytes32",
          "name": "previousAdminRole",
          "type": "bytes32"
        },
        {
          "indexed": true,
          "internalType": "bytes32",
          "name": "newAdminRole",
          "type": "bytes32"
        }
      ],
      "name": "RoleAdminChanged",
      "type": "event"
    },
    {
      "anonymous": false,
      "inputs": [
        {
          "indexed": true,
          "internalType": "bytes32",
          "name": "role",
          "type": "bytes32"
        },
        {
          "indexed": true,
          "internalType": "address",
          "name": "account",
          "type": "address"
        },
        {
          "indexed": true,
          "internalType": "address",
          "name": "sender",
          "type": "address"
        }
      ],
      "name": "RoleGranted",
      "type": "event"
    },
    {
      "anonymous": false,
      "inputs": [
        {
          "indexed": true,
          "internalType": "bytes32",
          "name": "role",
          "type": "bytes32"
        },
        {
          "indexed": true,
          "internalType": "address",
          "name": "account",
          "type": "address"
        },
        {
          "indexed": true,
          "internalType": "address",
          "name": "sender",
          "type": "address"
        }
      ],
      "name": "RoleRevoked",
      "type": "event"
    },
    {
      "anonymous": false,
      "inputs": [
        {
          "indexed": true,
          "internalType": "address",
          "name": "from",
          "type": "address"
        },
        {
          "indexed": true,
          "internalType": "address",
          "name": "to",
          "type": "address"
        },
        {
          "indexed": false,
          "internalType": "uint256",
          "name": "value",
          "type": "uint256"
        }
      ],
      "name": "Transfer",
      "type": "event"
    },
    {
      "anonymous": false,
      "inputs": [
        {
          "indexed": false,
          "internalType": "address",
          "name": "account",
          "type": "address"
        }
      ],
      "name": "Unpaused",
      "type": "event"
    },
    {
      "inputs": [],
      "name": "ACCESS_ROLE",
      "outputs": [
        {
          "internalType": "bytes32",
          "name": "",
          "type": "bytes32"
        }
      ],
      "stateMutability": "view",
      "type": "function"
    },
    {
      "inputs": [],
      "name": "ADMIN_ROLE",
      "outputs": [
        {
          "internalType": "bytes32",
          "name": "",
          "type": "bytes32"
        }
      ],
      "stateMutability": "view",
      "type": "function"
    },
    {
      "inputs": [],
      "name": "AUTHORITY_ROLE",
      "outputs": [
        {
          "internalType": "bytes32",
          "name": "",
          "type": "bytes32"
        }
      ],
      "stateMutability": "view",
      "type": "function"
    },
    {
      "inputs": [],
      "name": "BURNER_ROLE",
      "outputs": [
        {
          "internalType": "bytes32",
          "name": "",
          "type": "bytes32"
        }
      ],
      "stateMutability": "view",
      "type": "function"
    },
    {
      "inputs": [],
      "name": "DEFAULT_ADMIN_ROLE",
      "outputs": [
        {
          "internalType": "bytes32",
          "name": "",
          "type": "bytes32"
        }
      ],
      "stateMutability": "view",
      "type": "function"
    },
    {
      "inputs": [],
      "name": "FREEZER_ROLE",
      "outputs": [
        {
          "internalType": "bytes32",
          "name": "",
          "type": "bytes32"
        }
      ],
      "stateMutability": "view",
      "type": "function"
    },
    {
      "inputs": [],
      "name": "MINTER_ROLE",
      "outputs": [
        {
          "internalType": "bytes32",
          "name": "",
          "type": "bytes32"
        }
      ],
      "stateMutability": "view",
      "type": "function"
    },
    {
      "inputs": [],
      "name": "MOVER_ROLE",
      "outputs": [
        {
          "internalType": "bytes32",
          "name": "",
          "type": "bytes32"
        }
      ],
      "stateMutability": "view",
      "type": "function"
    },
    {
      "inputs": [],
      "name": "PAUSER_ROLE",
      "outputs": [
        {
          "internalType": "bytes32",
          "name": "",
          "type": "bytes32"
        }
      ],
      "stateMutability": "view",
      "type": "function"
    },
    {
      "inputs": [],
      "name": "RESERVE_ROLE",
      "outputs": [
        {
          "internalType": "bytes32",
          "name": "",
          "type": "bytes32"
        }
      ],
      "stateMutability": "view",
      "type": "function"
    },
    {
      "inputs": [
        {
          "internalType": "address",
          "name": "owner",
          "type": "address"
        },
        {
          "internalType": "address",
          "name": "spender",
          "type": "address"
        }
      ],
      "name": "allowance",
      "outputs": [
        {
          "internalType": "uint256",
          "name": "",
          "type": "uint256"
        }
      ],
      "stateMutability": "view",
      "type": "function"
    },
    {
      "inputs": [
        {
          "internalType": "address",
          "name": "spender",
          "type": "address"
        },
        {
          "internalType": "uint256",
          "name": "amount",
          "type": "uint256"
        }
      ],
      "name": "approve",
      "outputs": [
        {
          "internalType": "bool",
          "name": "",
          "type": "bool"
        }
      ],
      "stateMutability": "nonpayable",
      "type": "function"
    },
    {
      "inputs": [
        {
          "internalType": "address",
          "name": "account",
          "type": "address"
        }
      ],
      "name": "balanceOf",
      "outputs": [
        {
          "internalType": "uint256",
          "name": "",
          "type": "uint256"
        }
      ],
      "stateMutability": "view",
      "type": "function"
    },
    {
      "inputs": [
        {
          "internalType": "uint256",
          "name": "amount",
          "type": "uint256"
        }
      ],
      "name": "burn",
      "outputs": [],
      "stateMutability": "nonpayable",
      "type": "function"
    },
    {
      "inputs": [
        {
          "internalType": "address",
          "name": "account",
          "type": "address"
        },
        {
          "internalType": "uint256",
          "name": "amount",
          "type": "uint256"
        }
      ],
      "name": "burnFrom",
      "outputs": [],
      "stateMutability": "nonpayable",
      "type": "function"
    },
    {
      "inputs": [],
      "name": "cnpj8",
      "outputs": [
        {
          "internalType": "uint256",
          "name": "",
          "type": "uint256"
        }
      ],
      "stateMutability": "view",
      "type": "function"
    },
    {
      "inputs": [],
      "name": "decimals",
      "outputs": [
        {
          "internalType": "uint8",
          "name": "",
          "type": "uint8"
        }
      ],
      "stateMutability": "view",
      "type": "function"
    },
    {
      "inputs": [
        {
          "internalType": "address",
          "name": "spender",
          "type": "address"
        },
        {
          "internalType": "uint256",
          "name": "subtractedValue",
          "type": "uint256"
        }
      ],
      "name": "decreaseAllowance",
      "outputs": [
        {
          "internalType": "bool",
          "name": "",
          "type": "bool"
        }
      ],
      "stateMutability": "nonpayable",
      "type": "function"
    },
    {
      "inputs": [
        {
          "internalType": "address",
          "name": "from",
          "type": "address"
        },
        {
          "internalType": "uint256",
          "name": "amount",
          "type": "uint256"
        }
      ],
      "name": "decreaseFrozenBalance",
      "outputs": [],
      "stateMutability": "nonpayable",
      "type": "function"
    },
    {
      "inputs": [
        {
          "internalType": "address",
          "name": "member",
          "type": "address"
        }
      ],
      "name": "disableAccount",
      "outputs": [],
      "stateMutability": "nonpayable",
      "type": "function"
    },
    {
      "inputs": [
        {
          "internalType": "address",
          "name": "member",
          "type": "address"
        }
      ],
      "name": "enableAccount",
      "outputs": [],
      "stateMutability": "nonpayable",
      "type": "function"
    },
    {
      "inputs": [
        {
          "internalType": "address",
          "name": "account",
          "type": "address"
        }
      ],
      "name": "frozenBalanceOf",
      "outputs": [
        {
          "internalType": "uint256",
          "name": "",
          "type": "uint256"
        }
      ],
      "stateMutability": "view",
      "type": "function"
    },
    {
      "inputs": [
        {
          "internalType": "bytes32",
          "name": "role",
          "type": "bytes32"
        }
      ],
      "name": "getRoleAdmin",
      "outputs": [
        {
          "internalType": "bytes32",
          "name": "",
          "type": "bytes32"
        }
      ],
      "stateMutability": "view",
      "type": "function"
    },
    {
      "inputs": [
        {
          "internalType": "address",
          "name": "account",
          "type": "address"
        }
      ],
      "name": "grantAdminRole",
      "outputs": [],
      "stateMutability": "nonpayable",
      "type": "function"
    },
    {
      "inputs": [
        {
          "internalType": "bytes32",
          "name": "role",
          "type": "bytes32"
        },
        {
          "internalType": "address",
          "name": "account",
          "type": "address"
        }
      ],
      "name": "grantRole",
      "outputs": [],
      "stateMutability": "nonpayable",
      "type": "function"
    },
    {
      "inputs": [
        {
          "internalType": "bytes32",
          "name": "role",
          "type": "bytes32"
        },
        {
          "internalType": "address",
          "name": "account",
          "type": "address"
        }
      ],
      "name": "hasRole",
      "outputs": [
        {
          "internalType": "bool",
          "name": "",
          "type": "bool"
        }
      ],
      "stateMutability": "view",
      "type": "function"
    },
    {
      "inputs": [
        {
          "internalType": "address",
          "name": "spender",
          "type": "address"
        },
        {
          "internalType": "uint256",
          "name": "addedValue",
          "type": "uint256"
        }
      ],
      "name": "increaseAllowance",
      "outputs": [
        {
          "internalType": "bool",
          "name": "",
          "type": "bool"
        }
      ],
      "stateMutability": "nonpayable",
      "type": "function"
    },
    {
      "inputs": [
        {
          "internalType": "address",
          "name": "from",
          "type": "address"
        },
        {
          "internalType": "uint256",
          "name": "amount",
          "type": "uint256"
        }
      ],
      "name": "increaseFrozenBalance",
      "outputs": [],
      "stateMutability": "nonpayable",
      "type": "function"
    },
    {
      "inputs": [
        {
          "internalType": "address",
          "name": "to",
          "type": "address"
        },
        {
          "internalType": "uint256",
          "name": "amount",
          "type": "uint256"
        }
      ],
      "name": "mint",
      "outputs": [],
      "stateMutability": "nonpayable",
      "type": "function"
    },
    {
      "inputs": [
        {
          "internalType": "address",
          "name": "from",
          "type": "address"
        },
        {
          "internalType": "address",
          "name": "to",
          "type": "address"
        },
        {
          "internalType": "uint256",
          "name": "amount",
          "type": "uint256"
        }
      ],
      "name": "move",
      "outputs": [],
      "stateMutability": "nonpayable",
      "type": "function"
    },
    {
      "inputs": [
        {
          "internalType": "address",
          "name": "from",
          "type": "address"
        },
        {
          "internalType": "uint256",
          "name": "amount",
          "type": "uint256"
        }
      ],
      "name": "moveAndBurn",
      "outputs": [],
      "stateMutability": "nonpayable",
      "type": "function"
    },
    {
      "inputs": [],
      "name": "name",
      "outputs": [
        {
          "internalType": "string",
          "name": "",
          "type": "string"
        }
      ],
      "stateMutability": "view",
      "type": "function"
    },
    {
      "inputs": [],
      "name": "participant",
      "outputs": [
        {
          "internalType": "string",
          "name": "",
          "type": "string"
        }
      ],
      "stateMutability": "view",
      "type": "function"
    },
    {
      "inputs": [],
      "name": "pause",
      "outputs": [],
      "stateMutability": "nonpayable",
      "type": "function"
    },
    {
      "inputs": [],
      "name": "paused",
      "outputs": [
        {
          "internalType": "bool",
          "name": "",
          "type": "bool"
        }
      ],
      "stateMutability": "view",
      "type": "function"
    },
    {
      "inputs": [
        {
          "internalType": "bytes32",
          "name": "role",
          "type": "bytes32"
        },
        {
          "internalType": "address",
          "name": "account",
          "type": "address"
        }
      ],
      "name": "renounceRole",
      "outputs": [],
      "stateMutability": "nonpayable",
      "type": "function"
    },
    {
      "inputs": [],
      "name": "reserve",
      "outputs": [
        {
          "internalType": "address",
          "name": "",
          "type": "address"
        }
      ],
      "stateMutability": "view",
      "type": "function"
    },
    {
      "inputs": [
        {
          "internalType": "bytes32",
          "name": "role",
          "type": "bytes32"
        },
        {
          "internalType": "address",
          "name": "account",
          "type": "address"
        }
      ],
      "name": "revokeRole",
      "outputs": [],
      "stateMutability": "nonpayable",
      "type": "function"
    },
    {
      "inputs": [
        {
          "internalType": "address",
          "name": "caller",
          "type": "address"
        },
        {
          "internalType": "address",
          "name": "account",
          "type": "address"
        }
      ],
      "name": "safeBalanceOf",
      "outputs": [
        {
          "internalType": "uint256",
          "name": "",
          "type": "uint256"
        }
      ],
      "stateMutability": "view",
      "type": "function"
    },
    {
      "inputs": [
        {
          "internalType": "bytes4",
          "name": "interfaceId",
          "type": "bytes4"
        }
      ],
      "name": "supportsInterface",
      "outputs": [
        {
          "internalType": "bool",
          "name": "",
          "type": "bool"
        }
      ],
      "stateMutability": "view",
      "type": "function"
    },
    {
      "inputs": [],
      "name": "symbol",
      "outputs": [
        {
          "internalType": "string",
          "name": "",
          "type": "string"
        }
      ],
      "stateMutability": "view",
      "type": "function"
    },
    {
      "inputs": [],
      "name": "totalSupply",
      "outputs": [
        {
          "internalType": "uint256",
          "name": "",
          "type": "uint256"
        }
      ],
      "stateMutability": "view",
      "type": "function"
    },
    {
      "inputs": [
        {
          "internalType": "address",
          "name": "to",
          "type": "address"
        },
        {
          "internalType": "uint256",
          "name": "amount",
          "type": "uint256"
        }
      ],
      "name": "transfer",
      "outputs": [
        {
          "internalType": "bool",
          "name": "",
          "type": "bool"
        }
      ],
      "stateMutability": "nonpayable",
      "type": "function"
    },
    {
      "inputs": [
        {
          "internalType": "address",
          "name": "from",
          "type": "address"
        },
        {
          "internalType": "address",
          "name": "to",
          "type": "address"
        },
        {
          "internalType": "uint256",
          "name": "amount",
          "type": "uint256"
        }
      ],
      "name": "transferFrom",
      "outputs": [
        {
          "internalType": "bool",
          "name": "",
          "type": "bool"
        }
      ],
      "stateMutability": "nonpayable",
      "type": "function"
    },
    {
      "inputs": [],
      "name": "unpause",
      "outputs": [],
      "stateMutability": "nonpayable",
      "type": "function"
    },
    {
      "inputs": [
        {
          "internalType": "address",
          "name": "newReserve",
          "type": "address"
        }
      ],
      "name": "updateReserve",
      "outputs": [],
      "stateMutability": "nonpayable",
      "type": "function"
    },
    {
      "inputs": [
        {
          "internalType": "address",
          "name": "account",
          "type": "address"
        }
      ],
      "name": "verifyAccount",
      "outputs": [
        {
          "internalType": "bool",
          "name": "",
          "type": "bool"
        }
      ],
      "stateMutability": "view",
      "type": "function"
    }
  ],
  "bytecode": "0x608060405234610031576100206100146101e5565b94939093929192610450565b60405161270c6107c4823961270c90f35b600080fd5b634e487b7160e01b600052604160045260246000fd5b90601f01601f191681019081106001600160401b0382111761006d57604052565b610036565b9061008661007f60405190565b928361004c565b565b6001600160401b03811161006d57602090601f01601f19160190565b60005b8381106100b75750506000910152565b81810151838201526020016100a7565b909291926100dc6100d782610088565b610072565b9381855281830111610031576100869160208501906100a4565b9080601f83011215610031578151610110926020016100c7565b90565b6001600160a01b031690565b6001600160a01b0381165b0361003157565b905051906100868261011f565b8061012a565b905051906100868261013e565b909160c0828403126100315781516001600160401b03811161003157836101799184016100f6565b60208301519093906001600160401b038111610031578161019b9185016100f6565b926101a98260408301610131565b60608201519093906001600160401b038111610031576101ce846101109285016100f6565b9360a06101de8260808701610144565b9401610131565b610203612ed0803803806101f881610072565b928339810190610151565b909192939495565b634e487b7160e01b600052602260045260246000fd5b9060016002830492168015610241575b602083101461023c57565b61020b565b91607f1691610231565b9160001960089290920291821b911b5b9181191691161790565b6101106101106101109290565b919061028361011061028b93610265565b90835461024b565b9055565b61008691600091610272565b8181106102a6575050565b806102b4600060019361028f565b0161029b565b9190601f81116102c957505050565b6102db61008693600052602060002090565b906020601f8401819004830193106102fd575b6020601f90910104019061029b565b90915081906102ee565b90610310815190565b906001600160401b03821161006d576103338261032d8554610221565b856102ba565b602090601f831160011461036e5761028b929160009183610363575b5050600019600883021c1916906002021790565b01519050388061034f565b601f1983169161038385600052602060002090565b9260005b8181106103c1575091600293918560019694106103a8575b50505002019055565b01516000196008601f8516021c1916905538808061039f565b91936020600181928787015181550195019201610387565b9061008691610307565b906000199061025b565b906103fd61011061028b92610265565b82546103e3565b906001600160a01b039061025b565b61011090610113906001600160a01b031682565b61011090610413565b61011090610427565b9061044961011061028b92610430565b8254610404565b926104676100869695936104989361049f966104a6565b610491857fbf575aa07286781f90c1bdc8f4940c6c29874a0c25a1f1fe7661650b409c01ff610686565b60096103d9565b600a6103ed565b600b610439565b610086926104cf565b9060ff9061025b565b906104c861011061028b92151590565b82546104af565b906104da92916104f0565b610086600060076104b8565b6101106000610265565b916104fa9161064d565b6105026104e6565b61050c3382610686565b7f7def632d64a7259044c921303d544f945a340c8d4334adc0e0bd830a54deb528916105388184610686565b817f9f2df0fed2c77648de5860a4cc508cd0818c85b8b8a1ab4ceeef8d981c8956a66105648382610686565b817f3c11d16cbaffd01df69ce1c404f6340ee057498f5f00246190ea54220576a8486105908582610686565b817fe5ed70e23144309ce456cb48bf5e6d0d8e160f094a6d65ecf1d5b03cf292d8e6936105bd8786610686565b7f92de27771f92d6942691d73358b3a4673e4880de8356f8f2cf452be87e02d363966105e99088610686565b817f65d7a28e3265b37a6474929f336521b332c1681b933f6cb9f3376673440d862a9981610617338d610686565b6106209161071d565b6106299161071d565b6106329161071d565b61063b9161071d565b6106449161071d565b6100869161071d565b610086918291829182918291906106659060036103d9565b60046103d9565b905b600052602052604060002090565b9061066e90610430565b6106976106938383610777565b1590565b61069f575050565b6106c060016106bb8460006106b586600561066c565b0161067c565b6104b8565b6106de6106d86106d2339390565b9390565b93610430565b91610430565b917f2f8788117e7eff1d82e926ec794901d17c78024a50270940304540a733656f0d61070960405190565b600090a4565b906103fd61011061028b9290565b9061074c6107486106ce610730856107ac565b9461011085600161074284600561066c565b0161070f565b9190565b917fbd79b86ffe0ab8e8776151514217cd7cacd52c909f66475c3af44e129f0b00ff61070960405190565b6101109160006106b56107949361078c600090565b50600561066c565b5460ff1690565b6101109081565b610110905461079b565b60016107bd6101109261078c600090565b016107a256fe6080604052600436101561001257600080fd5b60003560e01c806301ffc9a71461030257806306a85f0f146102fd57806306fdde03146102f8578063095ea7b3146102f357806316df06c4146102ee57806318160ddd146102e9578063191fd57d146102e45780631a3f5152146102df57806323b872dd146102da578063248a9ca3146102d5578063282c51f3146102d0578063286041bd146102cb5780632b218c6a146102c65780632f2ff15d146102c1578063313ce567146102bc57806336568abe146102b757806337a6d42b146102b257806339509351146102ad5780633f4ba83a146102a857806340c10f19146102a357806342966c681461029e5780634a3fba0e1461029957806356b855aa146102945780635c975abb1461028f57806370a082311461028a57806375b238fc1461028557806379cc6790146102805780638456cb591461027b57806384b61581146102765780638c79ba3a1461027157806391d148541461026c57806395d89b4114610267578063a217fddf14610262578063a457c2d71461025d578063a9059cbb14610258578063b4a4ed3914610253578063bb35783b1461024e578063be91de5314610249578063c634b78e14610244578063cd3293de1461023f578063d53913931461023a578063d547741f14610235578063dd62ed3e14610230578063e63ab1e91461022b578063ee742b6b14610226578063f16dfbe9146102215763ffa8e9ab0361031a57610c93565b610c56565b610c3e565b610c05565b610be9565b610bd0565b610b97565b610b62565b610b1f565b610b04565b610aeb565b610ad2565b610ab6565b610a9a565b610a7f565b610a45565b610a29565b610a11565b6109f9565b6109e1565b6109c8565b61098f565b610974565b610945565b61091e565b6108e5565b6108cd565b6108b4565b61089c565b610880565b610865565b6106e8565b6106b9565b6106a0565b61066b565b610632565b6105f9565b6105de565b6105ae565b610567565b61052e565b610513565b6104f7565b6104b8565b610433565b610381565b610345565b6001600160e01b031981165b0361031a57565b600080fd5b9050359061032c82610307565b565b9060208282031261031a576103429161031f565b90565b3461031a5761037261036061035b36600461032e565b610cae565b60405191829182901515815260200190565b0390f35b600091031261031a57565b3461031a57610391366004610376565b6103727f92de27771f92d6942691d73358b3a4673e4880de8356f8f2cf452be87e02d3635b6040515b9182918290815260200190565b60005b8381106103da5750506000910152565b81810151838201526020016103ca565b61040b61041460209361041e936103ff815190565b80835293849260200190565b958691016103c7565b601f01601f191690565b0190565b6020808252610342929101906103ea565b3461031a57610443366004610376565b61037261044e610cf1565b60405191829182610422565b6001600160a01b031690565b6001600160a01b038116610313565b9050359061032c82610466565b80610313565b9050359061032c82610482565b919060408382031261031a576103429060206104b18286610475565b9401610488565b3461031a576103726103606104ce366004610495565b90610d84565b919060408382031261031a576103429060206104f08286610475565b9401610475565b3461031a576103726103b661050d3660046104d4565b90610e19565b3461031a57610523366004610376565b6103726103b6610e36565b3461031a5761053e366004610376565b6103727fbf575aa07286781f90c1bdc8f4940c6c29874a0c25a1f1fe7661650b409c01ff6103b6565b3461031a5761058061057a366004610495565b90610ec9565b604051005b909160608284031261031a5761034261059e8484610475565b9360406104b18260208701610475565b3461031a576103726103606105c4366004610585565b91611056565b9060208282031261031a5761034291610488565b3461031a576103726103b66105f43660046105ca565b611073565b3461031a57610609366004610376565b6103727f3c11d16cbaffd01df69ce1c404f6340ee057498f5f00246190ea54220576a8486103b6565b3461031a57610642366004610376565b6103727fe5ed70e23144309ce456cb48bf5e6d0d8e160f094a6d65ecf1d5b03cf292d8e66103b6565b3461031a5761058061067e366004610495565b9061118b565b919060408382031261031a576103429060206104f08286610488565b3461031a576105806106b3366004610684565b906111b0565b3461031a576106c9366004610376565b6103726106d46111cd565b6040519182918260ff909116815260200190565b3461031a576105806106fb366004610684565b9061123b565b634e487b7160e01b600052600060045260246000fd5b634e487b7160e01b600052602260045260246000fd5b906001600283049216801561074d575b602083101461074857565b610717565b91607f169161073d565b8054600093929161077461076a8361072d565b8085529360200190565b91600181169081156107c6575060011461078d57505050565b6107a09192939450600052602060002090565b916000925b8184106107b25750500190565b8054848401526020909301926001016107a5565b92949550505060ff1916825215156020020190565b9061034291610757565b634e487b7160e01b600052604160045260246000fd5b90601f01601f1916810190811067ffffffffffffffff82111761081d57604052565b6107e5565b9061032c61083c9261083360405190565b938480926107db565b03836107fb565b906000106108545761034290610822565b610701565b61034260006009610843565b3461031a57610875366004610376565b61037261044e610859565b3461031a57610372610360610896366004610495565b906112eb565b3461031a576108ac366004610376565b610580611336565b3461031a576105806108c7366004610495565b906113b2565b3461031a576105806108e03660046105ca565b61140f565b3461031a576108f5366004610376565b6103727fd565e3fc066df348a5cbc05a8d6323e00552838041cea2d84cc59876ba37735d6103b6565b3461031a5761092e366004610376565b6103726000805160206126b78339815191526103b6565b3461031a57610955366004610376565b61037261036061142b565b9060208282031261031a5761034291610475565b3461031a576103726103b661098a366004610960565b611435565b3461031a5761099f366004610376565b6103727fa49807205ce4d355092ef5a8a18f56e8913cf4a201fbe287825b095693c217756103b6565b3461031a576105806109db366004610495565b906114dc565b3461031a576109f1366004610376565b610580611525565b3461031a57610580610a0c366004610960565b6115bc565b3461031a57610580610a24366004610960565b61161e565b3461031a57610372610360610a3f366004610684565b90611627565b3461031a57610a55366004610376565b61037261044e611647565b6103426103426103429290565b6103426000610a60565b610342610a6d565b3461031a57610a8f366004610376565b6103726103b6610a77565b3461031a57610372610360610ab0366004610495565b906116f3565b3461031a57610372610360610acc366004610495565b90611792565b3461031a57610580610ae5366004610495565b90611894565b3461031a57610580610afe366004610585565b916118f1565b3461031a576103726103b6610b1a366004610960565b6118fc565b3461031a57610580610b32366004610960565b611933565b610342916008021c6001600160a01b031690565b906103429154610b37565b6103426000600b610b4b565b3461031a57610b72366004610376565b610372610b7d610b56565b604051918291826001600160a01b03909116815260200190565b3461031a57610ba7366004610376565b6103727f9f2df0fed2c77648de5860a4cc508cd0818c85b8b8a1ab4ceeef8d981c8956a66103b6565b3461031a57610580610be3366004610684565b90611957565b3461031a576103726103b6610bff3660046104d4565b90611961565b3461031a57610c15366004610376565b6103727f65d7a28e3265b37a6474929f336521b332c1681b933f6cb9f3376673440d862a6103b6565b3461031a57610580610c51366004610960565b611a29565b3461031a57610372610360610c6c366004610960565b611a32565b610342916008021c81565b906103429154610c71565b6103426000600a610c7c565b3461031a57610ca3366004610376565b6103726103b6610c87565b637965db0b60e01b6001600160e01b0319821614908115610ccd575090565b61034291506001600160e01b0319166301ffc9a760e01b1490565b61034290610822565b6103426003610ce8565b906103429291610d09611a88565b610d62565b15610d1557565b60405162461bcd60e51b815280610d5e600482016020808252818101527f53656e646572206163636f756e74206973206e6f7420617574686f72697a6564604082015260600190565b0390fd5b50610d7f9190610d79610d7433611a32565b610d0e565b33611b4e565b600190565b61034291906000610cfb565b15610d9757565b60405162461bcd60e51b815260206004820152600d60248201526c1058d8d95cdcc819195b9a5959609a1b6044820152606490fd5b906103429291610de382610dde610a6d565b611627565b8015610df8575b610df390610d90565b610e0d565b506001600160a01b0382811690841614610dea565b61034292915050611bdf565b61034291906000610dcc565b6103429081565b6103429054610e25565b6103426002610e2c565b9061032c91610e4d611a88565b61032c9190610e807fe5ed70e23144309ce456cb48bf5e6d0d8e160f094a6d65ecf1d5b03cf292d8e6611bf6565b611bf6565b610eab565b6103429061045a906001600160a01b031682565b61034290610e85565b61034290610e99565b9061032c91610ec482610ebd30610ea2565b80936118f1565b611cae565b9061032c91610e40565b90610342939291610ee2611a88565b610fcc565b15610eee57565b60405162461bcd60e51b815260206004820152602860248201527f45524332303a207472616e7366657220616d6f756e74206578636565647320616044820152676c6c6f77616e636560c01b6064820152608490fd5b15610f4b57565b60405162461bcd60e51b815260206004820152602b60248201527f4569746865722066726f6d206f7220746f206163636f756e74206973206e6f7460448201526a08185d5d1a1bdc9a5e995960aa1b6064820152608490fd5b634e487b7160e01b600052601160045260246000fd5b91908203918211610fc757565b610fa4565b92611018816110279394610d7f9650610ffa610fe83388611961565b8390610ff3565b9190565b1015610ee7565b61100386611a32565b80611042575b61101290610f44565b856118f1565b6110223384611961565b610fba565b9061103b6110356000610a60565b83610ff3565b3390611b4e565b5061101261104f82611a32565b9050611009565b6103429291906000610ed3565b905b600052602052604060002090565b600161108c61034292611084600090565b506005611063565b01610e2c565b9061032c9161109f611a88565b61032c91906110cd7f92de27771f92d6942691d73358b3a4673e4880de8356f8f2cf452be87e02d363611bf6565b611114565b9061106590610ea2565b91908201809211610fc757565b90600019905b9181191691161790565b9061110961034261111092610a60565b82546110e9565b9055565b9061113c906111366111278460086110d2565b9161113183610e2c565b6110dc565b906110f9565b7fd2dc74064ce9979876047afc7922931592038bce8a7fbaf28417799c138e4e4d61118661117c6111766111718560086110d2565b610e2c565b93610ea2565b926103ba60405190565b0390a2565b9061032c91611092565b9061032c916111a6610e7b82611073565b9061032c91611d54565b9061032c91611195565b6111c76103426103429290565b60ff1690565b61034260026111ba565b156111de57565b60405162461bcd60e51b815260206004820152602f60248201527f416363657373436f6e74726f6c3a2063616e206f6e6c792072656e6f756e636560448201526e103937b632b9903337b91039b2b63360891b6064820152608490fd5b61032c919061125c61124c3361045a565b6001600160a01b038416146111d7565b611dc4565b90610342929161126f611a88565b6112c0565b1561127b57565b60405162461bcd60e51b815260206004820152601960248201527f4163636f756e74206973206e6f7420617574686f72697a6564000000000000006044820152606490fd5b50610d7f916112e4906112da6112d533611a32565b611274565b6111318333611961565b9033611b4e565b61034291906000611261565b6112ff611e67565b61032c61132b7f65d7a28e3265b37a6474929f336521b332c1681b933f6cb9f3376673440d862a611bf6565b61032c61032c611ebd565b61032c6112f7565b9061032c9161134b611a88565b61032c91906113797f9f2df0fed2c77648de5860a4cc508cd0818c85b8b8a1ab4ceeef8d981c8956a6611bf6565b611394565b61045a6103426103429290565b6103429061137e565b9061032c916113ad82826113a8600061138b565b61202e565b612085565b9061032c9161133e565b61032c906113e97f3c11d16cbaffd01df69ce1c404f6340ee057498f5f00246190ea54220576a848611bf6565b61032c906113f5611a88565b61032c90335b610ec482611409600061138b565b8361202e565b61032c906113bc565b610342906111c7565b6103429054611418565b6103426007611421565b6103429033610e19565b9061032c9161144c611a88565b6114a9565b1561145857565b60405162461bcd60e51b8152602060048201526024808201527f45524332303a206275726e20616d6f756e74206578636565647320616c6c6f77604482015263616e636560e01b6064820152608490fd5b61032c91906113fb336114c76114bf8285611961565b851115611451565b6114d5846110228386611961565b9083611b4e565b9061032c9161143f565b6114ee611a88565b61032c61151a7f65d7a28e3265b37a6474929f336521b332c1681b933f6cb9f3376673440d862a611bf6565b61032c61032c61214a565b61032c6114e6565b61032c906115486000805160206126b7833981519152611bf6565b61156d565b9060ff906110ef565b9061156661034261111092151590565b825461154d565b61158b9061158660016115818360066110d2565b611556565b610ea2565b7f0211b3717a1e4e9d5dbd306d57337bd16341444ff1a3ca9d920060322b1aa6406115b560405190565b8080611186565b61032c9061152d565b61032c906115e06000805160206126b7833981519152611bf6565b6115f49061158660006115818360066110d2565b7fa1505d69e69c406db19c16f3ec0bf25ae47eefb6ae68ab936d75df946fcd14cf6115b560405190565b61032c906115c5565b61034291600061163c61164293611084600090565b016110d2565b611421565b6103426004610ce8565b90610342929161165f611a88565b6116be565b1561166b57565b60405162461bcd60e51b815260206004820152602560248201527f45524332303a2064656372656173656420616c6c6f77616e63652062656c6f77604482015264207a65726f60d81b6064820152608490fd5b50610d7f916116dd906116d36112d533611a32565b6110228333611961565b90610d796116eb6000610a60565b831015611664565b61034291906000611651565b90610342929161170d611a88565b611769565b1561171957565b60405162461bcd60e51b815260206004820152602260248201527f5265636569766572206163636f756e74206973206e6f7420617574686f72697a604482015261195960f21b6064820152608490fd5b50610d7f919061177b610d7433611a32565b61178c61178782611a32565b611712565b336118f1565b610342919060006116ff565b9061032c916117ab611a88565b61032c91906117d97f92de27771f92d6942691d73358b3a4673e4880de8356f8f2cf452be87e02d363611bf6565b61182a565b156117e557565b60405162461bcd60e51b815260206004820152601c60248201527f46726f7a656e2062616c616e6365206973206e6f7420656e6f756768000000006044820152606490fd5b9061118661117c611176611171857fd2dc74064ce9979876047afc7922931592038bce8a7fbaf28417799c138e4e4d9561188f60089161187861187061117186866110d2565b8211156117de565b61113661188585856110d2565b9161102283610e2c565b6110d2565b9061032c9161179e565b9061032c92916118ac611a88565b61032c9291906118db7fe5ed70e23144309ce456cb48bf5e6d0d8e160f094a6d65ecf1d5b03cf292d8e6611bf6565b9061032c92916118ec83838361202e565b61225f565b9061032c929161189e565b6111716103429161190b600090565b5060086110d2565b61032c90611922610e7b610a6d565b61032c9061192e610a6d565b611d54565b61032c90611913565b9061032c9161194d610e7b82611073565b9061032c91611dc4565b9061032c9161193c565b6103429161188f61117192611974600090565b5060016110d2565b61032c90611988611a88565b61032c906119a36000805160206126b7833981519152611bf6565b6119e1565b6103429061045a565b61034290546119a8565b906001600160a01b03906110ef565b906119da61034261111092610ea2565b82546119bb565b61032c90611a22817fbf575aa07286781f90c1bdc8f4940c6c29874a0c25a1f1fe7661650b409c01ff611a1d611a17600b6119b1565b82611957565b6111b0565b600b6119ca565b61032c9061197c565b61164261034291611a41600090565b5060066110d2565b15611a5057565b60405162461bcd60e51b815260206004820152601060248201526f14185d5cd8589b194e881c185d5cd95960821b6044820152606490fd5b61032c611a9a611a9661142b565b1590565b611a49565b15611aa657565b60405162461bcd60e51b8152602060048201526024808201527f45524332303a20617070726f76652066726f6d20746865207a65726f206164646044820152637265737360e01b6064820152608490fd5b15611afe57565b60405162461bcd60e51b815260206004820152602260248201527f45524332303a20617070726f766520746f20746865207a65726f206164647265604482015261737360f01b6064820152608490fd5b611bda611bd06111767f8c5be1e5ebec7d5bd14f71427d1e84f3dd0314c0f7b2291e5b200ac8c7c3b92593611bb8611ba7611b89600061138b565b61045a6001600160a01b0382166001600160a01b0386161415611a9f565b6001600160a01b0388161415611af7565b61158687611bcb8861188f8560016110d2565b6110f9565b936103ba60405190565b0390a3565b61117161034291611bee600090565b5060006110d2565b61032c90339061238b565b15611c0857565b60405162461bcd60e51b815260206004820152602160248201527f45524332303a206275726e2066726f6d20746865207a65726f206164647265736044820152607360f81b6064820152608490fd5b15611c5e57565b60405162461bcd60e51b815260206004820152602260248201527f45524332303a206275726e20616d6f756e7420657863656564732062616c616e604482015261636560f01b6064820152608490fd5b7fddf252ad1be2c89b69c2b068fc378daa952ba7f163c4a11628f55a4df523b3ef611bda611bd0611176600094611d3c611ce78761138b565b96611d066001600160a01b0389166001600160a01b0385161415611c01565b611d1189898561202e565b611bcb83611d368b611d2661117184876110d2565b611d3282821015611c57565b0390565b926110d2565b611586611d4d88611d326002610e2c565b60026110f9565b611d61611a968383611627565b611d69575050565b611d7f600161158184600061163c866005611063565b611d93611d8d611176339390565b91610ea2565b917f2f8788117e7eff1d82e926ec794901d17c78024a50270940304540a733656f0d611dbe60405190565b600090a4565b611dce8282611627565b611dd6575050565b611deb6000611581848261163c866005611063565b611df9611d8d611176339390565b917ff6391f5c32d9c69d2a47ea670b442974b53935d1edc7fd64eb21e047a839171b611dbe60405190565b15611e2b57565b60405162461bcd60e51b815260206004820152601460248201527314185d5cd8589b194e881b9bdd081c185d5cd95960621b6044820152606490fd5b61032c611e7261142b565b611e24565b611e7f611e67565b61032c611e8e60006007611556565b7f5db9ee0a495bf2e6ff9c91a7834c1ba4fdd244a5e8aa4e537bd38aeae4b073aa611eb833610b7d565b0390a1565b61032c611e77565b9061032c9291611ed3611a88565b611f2e565b15611edf57565b60405162461bcd60e51b815260206004820152602160248201527f5265616c4469676974616c3a20696e73756666696369656e742062616c616e636044820152606560f81b6064820152608490fd5b9061032c9291611f4161045a600061138b565b6001600160a01b03821614611f7757611f77611f6f611f608380610e19565b611f69846118fc565b90610fba565b841115611ed8565b9150611f83600061138b565b6001600160a01b0381166001600160a01b03841614158080612012575b15611fd0575050611fb361032c92611a32565b9081611fc0575b50610d90565b611fca9150611a32565b38611fba565b15611fe8575050611fe361032c91611a32565b610d90565b9091506001600160a01b03166001600160a01b038216036120065750565b611fe361032c91611a32565b506001600160a01b0382166001600160a01b0384161415611fa0565b9061032c9291611ec5565b1561204057565b60405162461bcd60e51b815260206004820152601f60248201527f45524332303a206d696e7420746f20746865207a65726f2061646472657373006044820152606490fd5b7fddf252ad1be2c89b69c2b068fc378daa952ba7f163c4a11628f55a4df523b3ef611bda611bd061117660006115866120fc876120c18461138b565b936120e06001600160a01b0386166001600160a01b0384161415612039565b6120eb8b838761202e565b61188f611d4d8c6111316002610e2c565b6111368961041e83610e2c565b612111611a88565b61032c61212060016007611556565b7f62e78cea01bee320cd4e420270b5ea74000d11b0c9f74754ebdbfc544b05a258611eb833610b7d565b61032c612109565b1561215957565b60405162461bcd60e51b815260206004820152602560248201527f45524332303a207472616e736665722066726f6d20746865207a65726f206164604482015264647265737360d81b6064820152608490fd5b156121b357565b60405162461bcd60e51b815260206004820152602360248201527f45524332303a207472616e7366657220746f20746865207a65726f206164647260448201526265737360e81b6064820152608490fd5b1561220b57565b60405162461bcd60e51b815260206004820152602660248201527f45524332303a207472616e7366657220616d6f756e7420657863656564732062604482015265616c616e636560d01b6064820152608490fd5b611bda611bd06111767fddf252ad1be2c89b69c2b068fc378daa952ba7f163c4a11628f55a4df523b3ef936115866120fc8760006122d16122c06122a28361138b565b61045a6001600160a01b0382166001600160a01b038a161415612152565b6001600160a01b03841614156121ac565b6122dc8b838761202e565b61188f6122fc8c6122f061117189866110d2565b611d3282821015612204565b611bcb87846110d2565b61034290610a60565b61041e61232792602092612321815190565b94859290565b938491016103c7565b61236e6103429392612368612368937f416363657373436f6e74726f6c3a206163636f756e7420000000000000000000815260170190565b9061230f565b7001034b99036b4b9b9b4b733903937b6329607d1b815260110190565b90612399611a968284611627565b6123a1575050565b6123eb610342610d5e936123d36123c36123bd6123f79661243b565b92612306565b6123cd6020610a60565b90612593565b906123dd60405190565b938492602084019283612330565b908103825203826107fb565b60405162461bcd60e51b815291829160048301610422565b6103429081906001600160a01b031681565b61034260146111ba565b6103426103426103429260ff1690565b6124586124536103429261244d606090565b50610e99565b61240f565b6123cd612463612421565b61242b565b81810292918115918404141715610fc757565b9061032c61248860405190565b92836107fb565b67ffffffffffffffff811161081d57602090601f01601f19160190565b906124be6124b98361248f565b61247b565b918252565b369037565b9061032c6124de6124d8846124ac565b9361248f565b601f1901602084016124c3565b634e487b7160e01b600052603260045260246000fd5b9061250a825190565b811015612518570160200190565b6124eb565b8015610fc7576000190190565b6103429061253e610fef6103429460ff1690565b901c90565b1561254a57565b60405162461bcd60e51b815280610d5e600482016020808252818101527f537472696e67733a20686578206c656e67746820696e73756666696369656e74604082015260600190565b9091906125c46125bf6125af856125aa6002610a60565b612468565b6125b96002610a60565b906110dc565b6124c8565b90600060306125db6125d583610a60565b85612501565b53600f60fb1b61261461260b6001978893851a6126006125fa86610a60565b89612501565b536125aa6002610a60565b6125b983610a60565b905b612638575b5061034293945090612632610fef61034293610a60565b14612543565b9161264286610a60565b8311156126b0576f181899199a1a9b1b9c1cb0b131b232b360811b612667600f610a60565b82169060108210156125185787926126876126a4926126aa941a60f81b90565b851a6126938789612501565b5361269e60046111ba565b9061252a565b9361251d565b90612616565b9161261b56fe7def632d64a7259044c921303d544f945a340c8d4334adc0e0bd830a54deb528a2646970667358221220c45f27ee7f77d3483b5648196cb036ec3a78b33301f652dafa2f54a1e9ddf80364736f6c63430008190033",
  "linkReferences": {},
  "deployedLinkReferences": {}
}