{
  "_format": "hh-sol-artifact-1",
  "contractName": "BankRegistration",
  "sourceName": "contracts/ucl/image9/base/BankRegistration.sol",
  "abi": [
    {
      "inputs": [],
      "stateMutability": "nonpayable",
      "type": "constructor"
    },
    {
      "anonymous": false,
      "inputs": [
        {
          "indexed": true,
          "internalType": "address",
          "name": "bankAddress",
          "type": "address"
        },
        {
          "indexed": false,
          "internalType": "uint256",
          "name": "x",
          "type": "uint256"
        },
        {
          "indexed": false,
          "internalType": "uint256",
          "name": "y",
          "type": "uint256"
        }
      ],
      "name": "BankRegistered",
      "type": "event"
    },
    {
      "inputs": [
        {
          "internalType": "address",
          "name": "",
          "type": "address"
        }
      ],
      "name": "bankPoints",
      "outputs": [
        {
          "internalType": "uint256",
          "name": "x",
          "type": "uint256"
        },
        {
          "internalType": "uint256",
          "name": "y",
          "type": "uint256"
        }
      ],
      "stateMutability": "view",
      "type": "function"
    },
    {
      "inputs": [
        {
          "internalType": "uint256",
          "name": "x",
          "type": "uint256"
        },
        {
          "internalType": "uint256",
          "name": "y",
          "type": "uint256"
        }
      ],
      "name": "getBankAddressByPoint",
      "outputs": [
        {
          "internalType": "address",
          "name": "",
          "type": "address"
        }
      ],
      "stateMutability": "view",
      "type": "function"
    },
    {
      "inputs": [
        {
          "internalType": "address",
          "name": "bankAddress",
          "type": "address"
        }
      ],
      "name": "getPoint",
      "outputs": [
        {
          "internalType": "uint256",
          "name": "",
          "type": "uint256"
        },
        {
          "internalType": "uint256",
          "name": "",
          "type": "uint256"
        }
      ],
      "stateMutability": "view",
      "type": "function"
    },
    {
      "inputs": [],
      "name": "owner",
      "outputs": [
        {
          "internalType": "address",
          "name": "",
          "type": "address"
        }
      ],
      "stateMutability": "view",
      "type": "function"
    },
    {
      "inputs": [
        {
          "internalType": "uint256",
          "name": "",
          "type": "uint256"
        },
        {
          "internalType": "uint256",
          "name": "",
          "type": "uint256"
        }
      ],
      "name": "pointToBank",
      "outputs": [
        {
          "internalType": "address",
          "name": "",
          "type": "address"
        }
      ],
      "stateMutability": "view",
      "type": "function"
    },
    {
      "inputs": [
        {
          "internalType": "address",
          "name": "bankAddress",
          "type": "address"
        },
        {
          "internalType": "uint256",
          "name": "x",
          "type": "uint256"
        },
        {
          "internalType": "uint256",
          "name": "y",
          "type": "uint256"
        }
      ],
      "name": "register",
      "outputs": [],
      "stateMutability": "nonpayable",
      "type": "function"
    },
    {
      "inputs": [
        {
          "internalType": "address",
          "name": "newOwner",
          "type": "address"
        }
      ],
      "name": "transferOwnership",
      "outputs": [],
      "stateMutability": "nonpayable",
      "type": "function"
    }
  ],
  "bytecode": "0x608060405234601f57600e607f565b60405161077e61008b823961077e90f35b600080fd5b6036906039906001600160a01b031682565b90565b6001600160a01b031690565b6036906024565b6036906045565b90605f6036607b92604c565b82546001600160a01b0319166001600160a01b03919091161790565b9055565b60883360006053565b56fe6080604052600436101561001257600080fd5b60003560e01c80630f480b8d1461008257806332280f251461007d5780634ff531b6146100785780638da5cb5b14610073578063c0ed78381461006e578063f2fde38b146100695763f9454f3f036100a8576102e9565b6102a3565b610287565b61026c565b61023e565b610208565b610153565b6001600160a01b031690565b90565b6001600160a01b0381165b036100a857565b600080fd5b905035906100ba82610096565b565b906020828203126100a857610093916100ad565b61009390610087906001600160a01b031682565b610093906100d0565b610093906100e4565b90610100906100ed565b600052602052604060002090565b6100939081565b610093905461010e565b61012a9060016100f6565b90610093600161013984610115565b9301610115565b9081526040810192916100ba9160200152565b346100a85761016b6101663660046100bc565b61011f565b9061018161017860405190565b92839283610140565b0390f35b806100a1565b905035906100ba82610185565b91906040838203126100a8576100939060206101b4828661018b565b940161018b565b6100936100936100939290565b90610100906101bb565b610093916008021c610087565b9061009391546101d2565b610203610093926101fe60009360026101c8565b6101c8565b6101df565b346100a85761018161022461021e366004610198565b906101ea565b604051918291826001600160a01b03909116815260200190565b346100a85761016b6102513660046100bc565b610302565b60009103126100a857565b6100936000806101df565b346100a85761027c366004610256565b610181610224610261565b346100a85761018161022461029d366004610198565b9061033a565b346100a8576102bb6102b63660046100bc565b61048e565b604051005b90916060828403126100a8576100936102d984846100ad565b9360406101b4826020870161018b565b346100a8576102bb6102fc3660046102c0565b9161073d565b90610093600161031a610320600061031a87856100f6565b01610115565b94826100f6565b61009390610087565b6100939054610327565b610093916101fe6103559261034d600090565b5060026101c8565b610330565b1561036157565b60405162461bcd60e51b815260206004820152602160248201527f4f6e6c79206f776e65722063616e2063616c6c20746869732066756e6374696f6044820152603760f91b6064820152608490fd5b6100ba906103cb6103c46100876000610330565b331461035a565b610462565b6100876100936100939290565b610093906103d0565b156103ed57565b60405162461bcd60e51b815260206004820152601960248201527f496e76616c6964206e6577206f776e65722061646472657373000000000000006044820152606490fd5b906001600160a01b03905b9181191691161790565b9061045761009361045e926100ed565b8254610432565b9055565b6100ba9061048761047661008760006103dd565b6001600160a01b03831614156103e6565b6000610447565b6100ba906103b0565b906100ba92916104ad6103c46100876000610330565b610620565b156104b957565b60405162461bcd60e51b815260206004820152600f60248201526e496e76616c6964206164647265737360881b6044820152606490fd5b9160001960089290920291821b911b61043d565b919061051561009361045e936101bb565b9083546104f0565b6100ba91600091610504565b600060016100ba9261053d8380830161051d565b0161051d565b634e487b7160e01b600052600060045260246000fd5b9060000361056a576100ba90610529565b610543565b634e487b7160e01b600052604160045260246000fd5b90601f01601f1916810190811067ffffffffffffffff8211176105a757604052565b61056f565b906100ba6105b960405190565b9283610585565b61009360406105ac565b906000199061043d565b906105e461009361045e926101bb565b82546105ca565b600161060f60206100ba9461060a610604600083015190565b866105d4565b015190565b91016105d4565b906100ba916105eb565b916106f47f5c4d3f7dffdac7b05d25da2b904616067235044e56ace12cfb2b040ca41d5d36929361065160006103dd565b61066f6001600160a01b0382166001600160a01b03841614156104b2565b610691610684610355866101fe8a60026101c8565b916001600160a01b031690565b6001600160a01b038216141580610721575b610706575b506106d76106b46105c0565b6106bc878252565b6106c7856020830152565b6106d28360016100f6565b610616565b6106ef816106ea856101fe8960026101c8565b610447565b6100ed565b9261070161017860405190565b0390a2565b600061071661071b9260016100f6565b610559565b386106a8565b506001600160a01b0382166001600160a01b03821614156106a3565b906100ba929161049756fea26469706673582212208864d2639b2a87f326b3ca49e77cc89cf1ca2703e4da04c7732c055ba5fbb68764736f6c63430008190033",
  "linkReferences": {},
  "deployedLinkReferences": {}
}