{
  "_format": "hh-sol-artifact-1",
  "contractName": "PrivateERCToken",
  "sourceName": "contracts/ucl/circle/base/PrivateERCToken.sol",
  "abi": [
    {
      "inputs": [
        {
          "internalType": "contract IL2Event",
          "name": "l2Event",
          "type": "address"
        }
      ],
      "stateMutability": "nonpayable",
      "type": "constructor"
    },
    {
      "inputs": [
        {
          "internalType": "address",
          "name": "owner",
          "type": "address"
        },
        {
          "internalType": "address",
          "name": "spender",
          "type": "address"
        }
      ],
      "name": "privateAllowance",
      "outputs": [
        {
          "components": [
            {
              "internalType": "uint256",
              "name": "cl_x",
              "type": "uint256"
            },
            {
              "internalType": "uint256",
              "name": "cl_y",
              "type": "uint256"
            },
            {
              "internalType": "uint256",
              "name": "cr_x",
              "type": "uint256"
            },
            {
              "internalType": "uint256",
              "name": "cr_y",
              "type": "uint256"
            }
          ],
          "internalType": "struct TokenModel2.ElGamal",
          "name": "",
          "type": "tuple"
        }
      ],
      "stateMutability": "nonpayable",
      "type": "function"
    },
    {
      "inputs": [
        {
          "internalType": "address",
          "name": "spender",
          "type": "address"
        },
        {
          "internalType": "uint256[]",
          "name": "amountIds",
          "type": "uint256[]"
        }
      ],
      "name": "privateApprove",
      "outputs": [],
      "stateMutability": "nonpayable",
      "type": "function"
    },
    {
      "inputs": [
        {
          "internalType": "address",
          "name": "owner",
          "type": "address"
        },
        {
          "internalType": "uint256",
          "name": "token_type",
          "type": "uint256"
        }
      ],
      "name": "privateBalanceOf",
      "outputs": [
        {
          "components": [
            {
              "internalType": "uint256",
              "name": "cl_x",
              "type": "uint256"
            },
            {
              "internalType": "uint256",
              "name": "cl_y",
              "type": "uint256"
            },
            {
              "internalType": "uint256",
              "name": "cr_x",
              "type": "uint256"
            },
            {
              "internalType": "uint256",
              "name": "cr_y",
              "type": "uint256"
            }
          ],
          "internalType": "struct TokenModel2.ElGamal",
          "name": "",
          "type": "tuple"
        }
      ],
      "stateMutability": "nonpayable",
      "type": "function"
    },
    {
      "inputs": [
        {
          "internalType": "uint256",
          "name": "amountId",
          "type": "uint256"
        }
      ],
      "name": "privateBurn",
      "outputs": [],
      "stateMutability": "nonpayable",
      "type": "function"
    },
    {
      "inputs": [
        {
          "internalType": "address",
          "name": "to",
          "type": "address"
        },
        {
          "internalType": "address",
          "name": "to_manager",
          "type": "address"
        },
        {
          "components": [
            {
              "internalType": "uint256",
              "name": "id",
              "type": "uint256"
            },
            {
              "internalType": "uint256",
              "name": "token_type",
              "type": "uint256"
            },
            {
              "internalType": "enum TokenModel2.TokenStatus",
              "name": "status",
              "type": "uint8"
            },
            {
              "components": [
                {
                  "internalType": "uint256",
                  "name": "cl_x",
                  "type": "uint256"
                },
                {
                  "internalType": "uint256",
                  "name": "cl_y",
                  "type": "uint256"
                },
                {
                  "internalType": "uint256",
                  "name": "cr_x",
                  "type": "uint256"
                },
                {
                  "internalType": "uint256",
                  "name": "cr_y",
                  "type": "uint256"
                }
              ],
              "internalType": "struct TokenModel2.ElGamal",
              "name": "amount",
              "type": "tuple"
            },
            {
              "internalType": "enum TokenModel2.TokenBox",
              "name": "location",
              "type": "uint8"
            },
            {
              "internalType": "bytes",
              "name": "issuerEncryptedAmount",
              "type": "bytes"
            },
            {
              "internalType": "address",
              "name": "owner",
              "type": "address"
            },
            {
              "internalType": "address",
              "name": "manager",
              "type": "address"
            }
          ],
          "internalType": "struct TokenModel2.AmountInfo",
          "name": "amountInfo",
          "type": "tuple"
        },
        {
          "internalType": "bytes",
          "name": "proof",
          "type": "bytes"
        }
      ],
      "name": "privateMint",
      "outputs": [],
      "stateMutability": "nonpayable",
      "type": "function"
    },
    {
      "inputs": [
        {
          "components": [
            {
              "internalType": "uint256[]",
              "name": "parentIds",
              "type": "uint256[]"
            },
            {
              "components": [
                {
                  "internalType": "uint256",
                  "name": "cl_x",
                  "type": "uint256"
                },
                {
                  "internalType": "uint256",
                  "name": "cl_y",
                  "type": "uint256"
                },
                {
                  "internalType": "uint256",
                  "name": "cr_x",
                  "type": "uint256"
                },
                {
                  "internalType": "uint256",
                  "name": "cr_y",
                  "type": "uint256"
                }
              ],
              "internalType": "struct TokenModel2.ElGamal",
              "name": "parentTotal",
              "type": "tuple"
            }
          ],
          "internalType": "struct TokenModel2.ParentTokens",
          "name": "parentTokens",
          "type": "tuple"
        },
        {
          "components": [
            {
              "internalType": "uint256",
              "name": "id",
              "type": "uint256"
            },
            {
              "internalType": "uint256",
              "name": "token_type",
              "type": "uint256"
            },
            {
              "internalType": "enum TokenModel2.TokenStatus",
              "name": "status",
              "type": "uint8"
            },
            {
              "components": [
                {
                  "internalType": "uint256",
                  "name": "cl_x",
                  "type": "uint256"
                },
                {
                  "internalType": "uint256",
                  "name": "cl_y",
                  "type": "uint256"
                },
                {
                  "internalType": "uint256",
                  "name": "cr_x",
                  "type": "uint256"
                },
                {
                  "internalType": "uint256",
                  "name": "cr_y",
                  "type": "uint256"
                }
              ],
              "internalType": "struct TokenModel2.ElGamal",
              "name": "amount",
              "type": "tuple"
            },
            {
              "internalType": "enum TokenModel2.TokenBox",
              "name": "location",
              "type": "uint8"
            },
            {
              "internalType": "bytes",
              "name": "issuerEncryptedAmount",
              "type": "bytes"
            },
            {
              "internalType": "address",
              "name": "owner",
              "type": "address"
            },
            {
              "internalType": "address",
              "name": "manager",
              "type": "address"
            }
          ],
          "internalType": "struct TokenModel2.AmountInfo[]",
          "name": "reservedAmounts",
          "type": "tuple[]"
        },
        {
          "internalType": "bytes",
          "name": "proof",
          "type": "bytes"
        }
      ],
      "name": "privateReserveAmount",
      "outputs": [],
      "stateMutability": "nonpayable",
      "type": "function"
    },
    {
      "inputs": [
        {
          "internalType": "uint256",
          "name": "amountId",
          "type": "uint256"
        }
      ],
      "name": "privateRollbackAmount",
      "outputs": [],
      "stateMutability": "nonpayable",
      "type": "function"
    },
    {
      "inputs": [
        {
          "internalType": "uint256",
          "name": "totalSupply",
          "type": "uint256"
        }
      ],
      "name": "privateSetTotalSupply",
      "outputs": [],
      "stateMutability": "nonpayable",
      "type": "function"
    },
    {
      "inputs": [
        {
          "internalType": "address",
          "name": "owner",
          "type": "address"
        },
        {
          "components": [
            {
              "internalType": "uint256",
              "name": "id",
              "type": "uint256"
            },
            {
              "internalType": "uint256",
              "name": "token_type",
              "type": "uint256"
            },
            {
              "internalType": "enum TokenModel2.TokenStatus",
              "name": "status",
              "type": "uint8"
            },
            {
              "components": [
                {
                  "internalType": "uint256",
                  "name": "cl_x",
                  "type": "uint256"
                },
                {
                  "internalType": "uint256",
                  "name": "cl_y",
                  "type": "uint256"
                },
                {
                  "internalType": "uint256",
                  "name": "cr_x",
                  "type": "uint256"
                },
                {
                  "internalType": "uint256",
                  "name": "cr_y",
                  "type": "uint256"
                }
              ],
              "internalType": "struct TokenModel2.ElGamal",
              "name": "amount",
              "type": "tuple"
            },
            {
              "internalType": "enum TokenModel2.TokenBox",
              "name": "location",
              "type": "uint8"
            },
            {
              "internalType": "bytes",
              "name": "issuerEncryptedAmount",
              "type": "bytes"
            },
            {
              "internalType": "address",
              "name": "owner",
              "type": "address"
            },
            {
              "internalType": "address",
              "name": "manager",
              "type": "address"
            }
          ],
          "internalType": "struct TokenModel2.AmountInfo",
          "name": "approvedAmount",
          "type": "tuple"
        },
        {
          "components": [
            {
              "internalType": "uint256",
              "name": "id",
              "type": "uint256"
            },
            {
              "internalType": "uint256",
              "name": "token_type",
              "type": "uint256"
            },
            {
              "internalType": "enum TokenModel2.TokenStatus",
              "name": "status",
              "type": "uint8"
            },
            {
              "components": [
                {
                  "internalType": "uint256",
                  "name": "cl_x",
                  "type": "uint256"
                },
                {
                  "internalType": "uint256",
                  "name": "cl_y",
                  "type": "uint256"
                },
                {
                  "internalType": "uint256",
                  "name": "cr_x",
                  "type": "uint256"
                },
                {
                  "internalType": "uint256",
                  "name": "cr_y",
                  "type": "uint256"
                }
              ],
              "internalType": "struct TokenModel2.ElGamal",
              "name": "amount",
              "type": "tuple"
            },
            {
              "internalType": "enum TokenModel2.TokenBox",
              "name": "location",
              "type": "uint8"
            },
            {
              "internalType": "bytes",
              "name": "issuerEncryptedAmount",
              "type": "bytes"
            },
            {
              "internalType": "address",
              "name": "owner",
              "type": "address"
            },
            {
              "internalType": "address",
              "name": "manager",
              "type": "address"
            }
          ],
          "internalType": "struct TokenModel2.AmountInfo[]",
          "name": "splitAmounts",
          "type": "tuple[]"
        },
        {
          "internalType": "bytes",
          "name": "proof",
          "type": "bytes"
        }
      ],
      "name": "privateSplitApproval",
      "outputs": [],
      "stateMutability": "nonpayable",
      "type": "function"
    },
    {
      "inputs": [],
      "name": "privateTotalSupply",
      "outputs": [
        {
          "internalType": "uint256",
          "name": "",
          "type": "uint256"
        }
      ],
      "stateMutability": "view",
      "type": "function"
    },
    {
      "inputs": [
        {
          "internalType": "address",
          "name": "to",
          "type": "address"
        },
        {
          "internalType": "uint256[]",
          "name": "amountIds",
          "type": "uint256[]"
        }
      ],
      "name": "privateTransfer",
      "outputs": [],
      "stateMutability": "nonpayable",
      "type": "function"
    },
    {
      "inputs": [
        {
          "internalType": "address",
          "name": "from",
          "type": "address"
        },
        {
          "internalType": "address",
          "name": "to",
          "type": "address"
        },
        {
          "internalType": "uint256[]",
          "name": "amountIds",
          "type": "uint256[]"
        }
      ],
      "name": "privateTransferFrom",
      "outputs": [],
      "stateMutability": "nonpayable",
      "type": "function"
    }
  ],
  "bytecode": "0x60806040523461002a576100196100146100c2565b6101e4565b604051611bfa61028e8239611bfa90f35b600080fd5b634e487b7160e01b600052604160045260246000fd5b90601f01601f191681019081106001600160401b0382111761006657604052565b61002f565b9061007f61007860405190565b9283610045565b565b6001600160a01b031690565b90565b6001600160a01b0381160361002a57565b9050519061007f82610090565b9060208282031261002a5761008d916100a1565b61008d611e88803803806100d58161006b565b9283398101906100ae565b61008d90610081906001600160a01b031682565b61008d906100e0565b61008d906100f4565b9061011661008d610132926100fd565b82546001600160a01b0319166001600160a01b03919091161790565b9055565b600091031261002a57565b61014a906100fd565b9052565b634e487b7160e01b600052602160045260246000fd5b6002111561016e57565b61014e565b9061007f82610164565b61008d90610173565b61014a9061017d565b6101d161007f946101c16060949897956101b1608086019a6000870190610141565b6001600160a01b03166020850152565b6001600160a01b03166040830152565b0190610186565b6040513d6000823e3d90fd5b6101fa906101f3336001610106565b6000610106565b73__$b535835ff7768d42e8a96f90a6b4260cc2$__6102216000546001600160a01b031690565b61022a306100fd565b823b1561002a5761025f92600092839261024360405190565b95869485938493631022e7d160e01b855233916004860161018f565b03915af48015610288576102705750565b61007f9060006102808183610045565b810190610136565b6101d856fe6080604052600436101561001257600080fd5b60003560e01c806315fb7f74146100c857806326d88de6146100c35780632abcb658146100c3578063361cd3ed146100be578063454357b7146100b95780635a0a8d66146100b95780636a28376d146100b457806381bb7c19146100af578063996d21aa146100aa578063a1982013146100a5578063b17b4db9146100a05763e7f97e66036100ee57610803565b610745565b6106d7565b61066b565b610628565b6105e8565b6105d2565b6105a0565b6102b4565b61016c565b6001600160a01b031690565b90565b6001600160a01b0381165b036100ee57565b600080fd5b90503590610100826100dc565b565b91906040838203126100ee576100d990602061011e82866100f3565b94016100f3565b9052565b805182526101009190606090819061014660208201516020860152565b61015560408201516040860152565b0151910152565b6080810192916101009190610129565b346100ee57610194610188610182366004610102565b90610864565b6040519182918261015c565b0390f35b634e487b7160e01b600052604160045260246000fd5b90601f01601f191681019081106001600160401b038211176101cf57604052565b610198565b906101006101e160405190565b92836101ae565b6001600160401b0381116101cf5760208091020190565b806100e7565b90503590610100826101ff565b90929192610227610222826101e8565b6101d4565b93818552602080860192028301928184116100ee57915b83831061024b5750505050565b602080916102598486610205565b81520192019161023e565b9080601f830112156100ee578160206100d993359101610212565b9190916040818403126100ee5761029683826100f3565b9260208201356001600160401b0381116100ee576100d99201610264565b346100ee576102c436600461027f565b50506040515b005b600411156100ee57565b90503590610100826102cc565b91906080838203126100ee576103369060606102ff60806101d4565b9461030a8382610205565b86526103198360208301610205565b602087015261032b8360408301610205565b604087015201610205565b6060830152565b600311156100ee57565b905035906101008261033d565b6001600160401b0381116101cf57602090601f01601f19160190565b0190565b90826000939282370152565b9092919261039061022282610354565b93818552818301116100ee57610100916020850190610374565b9080601f830112156100ee578160206100d993359101610380565b919091610160818403126100ee576103de6101006101d4565b926103e98183610205565b84526103f88160208401610205565b602085015261040a81604084016102d6565b604085015261041c81606084016102e3565b606085015261042e8160e08401610347565b60808501526101008201356001600160401b0381116100ee578261045a836101409361047896016103aa565b60a087015261046d8361012083016100f3565b60c0870152016100f3565b60e0830152565b92919061048e610222826101e8565b93818552602080860192028101918383116100ee5781905b8382106104b4575050505050565b81356001600160401b0381116100ee576020916104d487849387016103c5565b8152019101906104a6565b9080601f830112156100ee578160206100d99335910161047f565b909182601f830112156100ee578135916001600160401b0383116100ee5760200192600183028401116100ee57565b906080828203126100ee5761053e81836100f3565b9260208301356001600160401b0381116100ee578261055e9185016103c5565b9260408101356001600160401b0381116100ee578361057e9183016104df565b9260608201356001600160401b0381116100ee5761059c92016104fa565b9091565b346100ee576105b0366004610529565b50505050506102ca60405190565b906020828203126100ee576100d991610205565b346100ee576105e23660046105be565b50604051005b346100ee576106006105fb3660046105be565b610a75565b604051005b91906040838203126100ee576100d990602061062182866100f3565b9401610205565b346100ee57610194610188610182366004610605565b60009103126100ee57565b6100d9916008021c81565b906100d99154610649565b6100d960006003610654565b346100ee5761067b36600461063e565b61019461068661065f565b6040519182918290815260200190565b916060838303126100ee576106ab82846100f3565b926106b983602083016100f3565b9260408201356001600160401b0381116100ee576100d99201610264565b346100ee576106e7366004610696565b5050506102ca60405190565b90816101609103126100ee5790565b906080828203126100ee5761071781836100f3565b9261072582602085016100f3565b9260408101356001600160401b0381116100ee578361057e9183016106f3565b346100ee576105b0366004610702565b91909160a0818403126100ee5761076c60406101d4565b9281356001600160401b0381116100ee578261078f836020936107979601610264565b8652016102e3565b6020830152565b916060838303126100ee5782356001600160401b0381116100ee57826107c5918501610755565b9260208101356001600160401b0381116100ee57836107e59183016104df565b9260408201356001600160401b0381116100ee5761059c92016104fa565b346100ee5761060061081636600461079e565b9291909161114e565b6100d960806101d4565b61083161081f565b90600082526020808080850160005b81520160008152016000905250565b6100d9610829565b6100d96100d96100d99290565b505061086e61084f565b5061087761081f565b6100d96108846000610857565b61088c818452565b610897816020850152565b610336816040850152565b6100d9906100cd906001600160a01b031682565b6100d9906108a2565b6100d9906108b6565b906108d2906108bf565b600052602052604060002090565b6100d9906100cd565b6100d990546108e0565b610125906108bf565b634e487b7160e01b600052602160045260246000fd5b6004111561091c57565b6108fc565b9061010082610912565b6100d990610921565b6101259061092b565b60005b8381106109505750506000910152565b8181015183820152602001610940565b61098161098a60209361037093610975815190565b80835293849260200190565b9586910161093d565b601f01601f191690565b80518252906100d990610160610100610a1761018084016109ba60208801516020870152565b6040878101516001600160a01b0316908601526060878101516001600160a01b0316908601526109f260808801516080870190610934565b610a0460a088015160a0870190610129565b60c0870151858203610120870152610960565b60e08601516001600160a01b031661014085015294610155565b610a5c6100d9949293610a4c606084019560008501906108f3565b6001600160a01b03166020830152565b6040818403910152610994565b6040513d6000823e3d90fd5b610a836100d93360026108c8565b610a8d82826114ae565b90610a96825190565b92600093610aaa610aa686610857565b9190565b14610b6957600282610ac08387610ad1966117f7565b610acc836001836117f7565b6117f7565b73__$b535835ff7768d42e8a96f90a6b4260cc2$__90610af0836108e9565b90610afa306108bf565b92803b156100ee57610b2c938593610b1160405190565b9586948593849363dbb64f8360e01b5b855260048501610a31565b03915af48015610b6457610b3e575050565b8161010092903d10610b5d575b610b5581836101ae565b81019061063e565b503d610b4b565b610a69565b50505050565b8015156100e7565b9050519061010082610b6f565b90505190610100826101ff565b90929192610ba1610222826101e8565b93818552602080860192028301928184116100ee57915b838310610bc55750505050565b60208091610bd38486610b84565b815201920191610bb8565b9080601f830112156100ee5781516100d992602001610b91565b916060838303126100ee57610c0d8284610b77565b92610c1b8360208301610b84565b9260408201516001600160401b0381116100ee576100d99201610bde565b90610c59610c52610c48845190565b8084529260200190565b9260200190565b9060005b818110610c6a5750505090565b909192610c87610c806001928651815260200190565b9460200190565b929101610c5d565b906100d990602080610cb060a0840160008701518582036000870152610c39565b940151910190610129565b6003111561091c57565b9061010082610cbb565b6100d990610cc5565b61012590610ccf565b80518252906100d99061014060e0610d4e6101608401610d0660208801516020870152565b610d1860408801516040870190610934565b610d2a60608801516060870190610129565b610d3b608088015184870190610cd8565b60a0870151858203610100870152610960565b60c08601516001600160a01b03166101208501529401516001600160a01b0316910152565b906100d991610ce1565b90610d93610d89835190565b8083529160200190565b9081610da56020830284019460200190565b926000915b838310610db957505050505090565b90919293946020610ddc610dd583856001950387528951610d73565b9760200190565b9301930191939290610daa565b919061098a81610e00816103709560209181520190565b8095610374565b92906100d99492610e27610e359260608701908782036000890152610c8f565b908582036020870152610d7d565b926040818503910152610de9565b15610e4a57565b60405162461bcd60e51b815260206004820152600d60248201526c34b73b30b634b210383937b7b360991b6044820152606490fd5b634e487b7160e01b600052603260045260246000fd5b90610e9e825190565b811015610eaf576020809102010190565b610e7f565b6100d99051610921565b6100cd6100d96100d99290565b6100d990610ebe565b6100d96101206101d4565b9061012590610921565b6100d99051610cc5565b906108d290610857565b6100d99081565b6100d99054610efd565b6100d99060a01c60ff1690565b6100d99054610f0e565b90610100610f796003610f3661081f565b94610f47610f4382610f04565b8752565b610f5d610f5660018301610f04565b6020880152565b610f73610f6c60028301610f04565b6040880152565b01610f04565b6060840152565b634e487b7160e01b600052602260045260246000fd5b9060016002830492168015610fb6575b6020831014610fb157565b610f80565b91607f1691610fa6565b80546000939291610fdd610fd383610f96565b8085529360200190565b916001811690811561102f5750600114610ff657505050565b6110099192939450600052602060002090565b916000925b81841061101b5750500190565b80548484015260209093019260010161100e565b92949550505060ff1916825215156020020190565b906100d991610fc0565b906101006110689261105f60405190565b93848092611044565b03836101ae565b9061010061113d600a611080610ed4565b9461108d610f4382610f04565b61109c610f5660018301610f04565b6110bb6110ab600283016108e9565b6001600160a01b03166040880152565b6110da6110ca600383016108e9565b6001600160a01b03166060880152565b6110f26110e960038301610f1b565b60808801610edf565b61110861110160048301610f25565b60a0880152565b61111e6111176008830161104e565b60c0880152565b610f7361112d600983016108e9565b6001600160a01b031660e0880152565b610100840152565b6100d99061106f565b9161119e91949360009161117373__$7b35ab635a83c6a3b34960ef6a5f4b4571$__90565b9061117d60405190565b80958194829361119163150a4bc960e01b90565b84528b8a60048601610e07565b03915af48015610b64576111ba91600091611444575b50610e43565b6111c86100d93360026108c8565b926000916111d583610857565b6111e06100d9845190565b811015611359576111f18184610e95565b5190846111fe8184015190565b9261120a602082015190565b60c08201516001600160a01b031660e08301516001600160a01b031661123260408501610eb4565b60608501519160a08601519361124788610ecb565b95611250610ed4565b9a8b998a019061125d9152565b60208901526001600160a01b031660408801526001600160a01b0316606087015261128b9060808701610edf565b60a085015260c08401526001600160a01b031660e08301526112ac87610857565b6101008301526080016112be90610ee9565b906112c99189611b42565b73__$b535835ff7768d42e8a96f90a6b4260cc2$__916112e8866108e9565b906112f2306108bf565b93803b156100ee5761131d94889361130960405190565b9687948593849363da9847a360e01b610b21565b03915af4918215610b64576113389261133d575b5060010190565b6111d5565b61135390863d8811610b5d57610b5581836101ae565b38611331565b5092905061136682610857565b8284016113756100d982515190565b82101561143c5761138a8261138e9251610e95565b5190565b906113af6113a76113a28460018a01610ef3565b611145565b9285886117f7565b73__$b535835ff7768d42e8a96f90a6b4260cc2$__916113ce856108e9565b906113d8306108bf565b93803b156100ee576114039487936113ef60405190565b96879485938493635c85f22160e01b610b21565b03915af4908115610b6457849261141f92611426575060010190565b9050611366565b61135390843d8611610b5d57610b5581836101ae565b505092505050565b61146191503d806000833e61145981836101ae565b810190610bf8565b506111b4565b61146f610ed4565b9060008252602080808080808080808a01600081520160008152016000815201600081520161149c61084f565b8152016060610840565b6100d9611467565b6114b66114a6565b506114c76113a28360018401610ef3565b80516114d6610aa66000610857565b0361151157506114ec6113a28360028401610ef3565b80516114fb610aa66000610857565b0361151157506100d99160036113a29201610ef3565b91505090565b9160001960089290920291821b911b5b9181191691161790565b91906115426100d961154a93610857565b908354611517565b9055565b61010091600091611531565b600060036101009261156e8380830161154e565b61157b836001830161154e565b611588836002830161154e565b0161154e565b634e487b7160e01b600052600060045260246000fd5b906000036115b5576101009061155a565b61158e565b906115cd90600019906020036008021c90565b8154169055565b8181106115df575050565b806115ed600060019361154e565b016115d4565b600019600883021c1916906002021790565b9060009161162361161b82600052602060002090565b9283546115f3565b905555565b919290602082101561168057601f841160011461164a5761154a9293506115f3565b509061167b61010093600161167261166785600052602060002090565b92601f602091010490565b820191016115d4565b611605565b506116c08293611697600194600052602060002090565b6116b96020601f860104820192601f8616806116c8575b50601f602091010490565b01906115d4565b600202179055565b6116d4908886036115ba565b386116ae565b9290916801000000000000000082116101cf57602011156117265760208110156117075761154a916115f3565b60019160ff191661171d84600052602060002090565b55600202019055565b60019150600202019055565b90815461173e81610f96565b90818311611766575b8183106117545750505050565b61175d93611628565b38808080610b69565b611772838383876116da565b611747565b600061010091611732565b906000036115b55761010090611777565b6000600a610100926117a78380830161154e565b6117b4836001830161154e565b8260028201558260038201556117cd83600483016115a4565b6117da8360088301611782565b8260098201550161154e565b906000036115b55761010090611793565b91906118036000610cc5565b61180c82610cc5565b03611829575061182460009160016101009401610ef3565b6117e6565b6118336001610cc5565b61183c82610cc5565b03611854575061182460009160026101009401610ef3565b6118676118616002610cc5565b91610cc5565b14611870575050565b61182460009160036101009401610ef3565b9060001990611527565b9061189c6100d961154a92610857565b8254611882565b906001600160a01b0390611527565b906118c26100d961154a926108bf565b82546118a3565b9060ff60a01b9060a01b611527565b906118e86100d961154a9261092b565b82546118c9565b600361194160606101009461190e611908600083015190565b8661188c565b61192561191c602083015190565b6001870161188c565b61193c611933604083015190565b6002870161188c565b015190565b910161188c565b90610100916118ef565b9190601f811161196157505050565b61197361010093600052602060002090565b906020601f840181900483019310611993575b6020601f909101046116b9565b9091508190611986565b906119a6815190565b906001600160401b0382116101cf576119c9826119c38554610f96565b85611952565b602090601f83116001146119f75761154a9291600091836119ec575b50506115f3565b0151905038806119e5565b601f19831691611a0c85600052602060002090565b9260005b818110611a4a57509160029391856001969410611a31575b50505002019055565b01516000196008601f8516021c19169055388080611a28565b91936020600181928787015181550195019201611a10565b906101009161199d565b600a61194161010061010094611a86611908600083015190565b611a9461191c602083015190565b611ab4611aab60408301516001600160a01b031690565b600287016118b2565b611aea60038601611ad8611ad260608501516001600160a01b031690565b826118b2565b611ae460808401610eb4565b906118d8565b611b01611af860a083015190565b60048701611948565b611b18611b0f60c083015190565b60088701611a62565b61193c611b2f60e08301516001600160a01b031690565b600987016118b2565b9061010091611a6c565b82519291611b506000610cc5565b611b5982610cc5565b03611b745750610100926001611b6f9201610ef3565b611b38565b611b7e6001610cc5565b611b8782610cc5565b03611b9d5750610100926002611b6f9201610ef3565b611baa6118616002610cc5565b14611bb457505050565b610100926003611b6f9201610ef356fea2646970667358221220fceea784499935384b319565de89286e55b437e42e7e2ac0979f5ab92964e4b464736f6c63430008190033",
  "linkReferences": {
    "contracts/ucl/circle/lib/TokenEventLib.sol": {
      "TokenEventLib2": [
        {
          "length": 20,
          "start": 508
        },
        {
          "length": 20,
          "start": 3425
        },
        {
          "length": 20,
          "start": 5465
        },
        {
          "length": 20,
          "start": 5695
        }
      ]
    },
    "contracts/ucl/circle/lib/TokenVerificationLib.sol": {
      "TokenVerificationLib2": [
        {
          "length": 20,
          "start": 5099
        }
      ]
    }
  },
  "deployedLinkReferences": {
    "contracts/ucl/circle/lib/TokenEventLib.sol": {
      "TokenEventLib2": [
        {
          "length": 20,
          "start": 2771
        },
        {
          "length": 20,
          "start": 4811
        },
        {
          "length": 20,
          "start": 5041
        }
      ]
    },
    "contracts/ucl/circle/lib/TokenVerificationLib.sol": {
      "TokenVerificationLib2": [
        {
          "length": 20,
          "start": 4445
        }
      ]
    }
  }
}