{
  "_format": "hh-sol-artifact-1",
  "contractName": "PrivateERCToken",
  "sourceName": "contracts/ucl/circle/base/PrivateERCToken.sol",
  "abi": [
    {
      "inputs": [
        {
          "internalType": "contract IL2Event",
          "name": "l2Event",
          "type": "address"
        }
      ],
      "stateMutability": "nonpayable",
      "type": "constructor"
    },
    {
      "inputs": [
        {
          "internalType": "address",
          "name": "owner",
          "type": "address"
        },
        {
          "internalType": "address",
          "name": "spender",
          "type": "address"
        }
      ],
      "name": "privateAllowance",
      "outputs": [
        {
          "components": [
            {
              "internalType": "uint256",
              "name": "cl_x",
              "type": "uint256"
            },
            {
              "internalType": "uint256",
              "name": "cl_y",
              "type": "uint256"
            },
            {
              "internalType": "uint256",
              "name": "cr_x",
              "type": "uint256"
            },
            {
              "internalType": "uint256",
              "name": "cr_y",
              "type": "uint256"
            }
          ],
          "internalType": "struct TokenModel2.ElGamal",
          "name": "",
          "type": "tuple"
        }
      ],
      "stateMutability": "nonpayable",
      "type": "function"
    },
    {
      "inputs": [
        {
          "internalType": "address",
          "name": "spender",
          "type": "address"
        },
        {
          "internalType": "uint256[]",
          "name": "amountIds",
          "type": "uint256[]"
        }
      ],
      "name": "privateApprove",
      "outputs": [],
      "stateMutability": "nonpayable",
      "type": "function"
    },
    {
      "inputs": [
        {
          "internalType": "address",
          "name": "owner",
          "type": "address"
        },
        {
          "internalType": "uint256",
          "name": "token_type",
          "type": "uint256"
        }
      ],
      "name": "privateBalanceOf",
      "outputs": [
        {
          "components": [
            {
              "internalType": "uint256",
              "name": "cl_x",
              "type": "uint256"
            },
            {
              "internalType": "uint256",
              "name": "cl_y",
              "type": "uint256"
            },
            {
              "internalType": "uint256",
              "name": "cr_x",
              "type": "uint256"
            },
            {
              "internalType": "uint256",
              "name": "cr_y",
              "type": "uint256"
            }
          ],
          "internalType": "struct TokenModel2.ElGamal",
          "name": "",
          "type": "tuple"
        }
      ],
      "stateMutability": "nonpayable",
      "type": "function"
    },
    {
      "inputs": [
        {
          "internalType": "uint256",
          "name": "amountId",
          "type": "uint256"
        }
      ],
      "name": "privateBurn",
      "outputs": [],
      "stateMutability": "nonpayable",
      "type": "function"
    },
    {
      "inputs": [
        {
          "internalType": "address",
          "name": "to",
          "type": "address"
        },
        {
          "internalType": "address",
          "name": "to_manager",
          "type": "address"
        },
        {
          "components": [
            {
              "internalType": "uint256",
              "name": "id",
              "type": "uint256"
            },
            {
              "internalType": "uint256",
              "name": "token_type",
              "type": "uint256"
            },
            {
              "internalType": "enum TokenModel2.TokenStatus",
              "name": "status",
              "type": "uint8"
            },
            {
              "components": [
                {
                  "internalType": "uint256",
                  "name": "cl_x",
                  "type": "uint256"
                },
                {
                  "internalType": "uint256",
                  "name": "cl_y",
                  "type": "uint256"
                },
                {
                  "internalType": "uint256",
                  "name": "cr_x",
                  "type": "uint256"
                },
                {
                  "internalType": "uint256",
                  "name": "cr_y",
                  "type": "uint256"
                }
              ],
              "internalType": "struct TokenModel2.ElGamal",
              "name": "amount",
              "type": "tuple"
            },
            {
              "internalType": "enum TokenModel2.TokenBox",
              "name": "location",
              "type": "uint8"
            },
            {
              "internalType": "address",
              "name": "owner",
              "type": "address"
            },
            {
              "internalType": "address",
              "name": "manager",
              "type": "address"
            }
          ],
          "internalType": "struct TokenModel2.AmountInfo",
          "name": "amountInfo",
          "type": "tuple"
        },
        {
          "internalType": "bytes",
          "name": "proof",
          "type": "bytes"
        }
      ],
      "name": "privateMint",
      "outputs": [],
      "stateMutability": "nonpayable",
      "type": "function"
    },
    {
      "inputs": [
        {
          "components": [
            {
              "internalType": "uint256[]",
              "name": "parentIds",
              "type": "uint256[]"
            },
            {
              "components": [
                {
                  "internalType": "uint256",
                  "name": "cl_x",
                  "type": "uint256"
                },
                {
                  "internalType": "uint256",
                  "name": "cl_y",
                  "type": "uint256"
                },
                {
                  "internalType": "uint256",
                  "name": "cr_x",
                  "type": "uint256"
                },
                {
                  "internalType": "uint256",
                  "name": "cr_y",
                  "type": "uint256"
                }
              ],
              "internalType": "struct TokenModel2.ElGamal",
              "name": "parentTotal",
              "type": "tuple"
            }
          ],
          "internalType": "struct TokenModel2.ParentTokens",
          "name": "parentTokens",
          "type": "tuple"
        },
        {
          "components": [
            {
              "internalType": "uint256",
              "name": "id",
              "type": "uint256"
            },
            {
              "internalType": "uint256",
              "name": "token_type",
              "type": "uint256"
            },
            {
              "internalType": "enum TokenModel2.TokenStatus",
              "name": "status",
              "type": "uint8"
            },
            {
              "components": [
                {
                  "internalType": "uint256",
                  "name": "cl_x",
                  "type": "uint256"
                },
                {
                  "internalType": "uint256",
                  "name": "cl_y",
                  "type": "uint256"
                },
                {
                  "internalType": "uint256",
                  "name": "cr_x",
                  "type": "uint256"
                },
                {
                  "internalType": "uint256",
                  "name": "cr_y",
                  "type": "uint256"
                }
              ],
              "internalType": "struct TokenModel2.ElGamal",
              "name": "amount",
              "type": "tuple"
            },
            {
              "internalType": "enum TokenModel2.TokenBox",
              "name": "location",
              "type": "uint8"
            },
            {
              "internalType": "address",
              "name": "owner",
              "type": "address"
            },
            {
              "internalType": "address",
              "name": "manager",
              "type": "address"
            }
          ],
          "internalType": "struct TokenModel2.AmountInfo[]",
          "name": "reservedAmounts",
          "type": "tuple[]"
        },
        {
          "internalType": "bytes",
          "name": "proof",
          "type": "bytes"
        }
      ],
      "name": "privateReserveAmount",
      "outputs": [],
      "stateMutability": "nonpayable",
      "type": "function"
    },
    {
      "inputs": [
        {
          "internalType": "uint256",
          "name": "amountId",
          "type": "uint256"
        }
      ],
      "name": "privateRollbackAmount",
      "outputs": [],
      "stateMutability": "nonpayable",
      "type": "function"
    },
    {
      "inputs": [
        {
          "internalType": "address",
          "name": "owner",
          "type": "address"
        },
        {
          "components": [
            {
              "internalType": "uint256",
              "name": "id",
              "type": "uint256"
            },
            {
              "internalType": "uint256",
              "name": "token_type",
              "type": "uint256"
            },
            {
              "internalType": "enum TokenModel2.TokenStatus",
              "name": "status",
              "type": "uint8"
            },
            {
              "components": [
                {
                  "internalType": "uint256",
                  "name": "cl_x",
                  "type": "uint256"
                },
                {
                  "internalType": "uint256",
                  "name": "cl_y",
                  "type": "uint256"
                },
                {
                  "internalType": "uint256",
                  "name": "cr_x",
                  "type": "uint256"
                },
                {
                  "internalType": "uint256",
                  "name": "cr_y",
                  "type": "uint256"
                }
              ],
              "internalType": "struct TokenModel2.ElGamal",
              "name": "amount",
              "type": "tuple"
            },
            {
              "internalType": "enum TokenModel2.TokenBox",
              "name": "location",
              "type": "uint8"
            },
            {
              "internalType": "address",
              "name": "owner",
              "type": "address"
            },
            {
              "internalType": "address",
              "name": "manager",
              "type": "address"
            }
          ],
          "internalType": "struct TokenModel2.AmountInfo",
          "name": "approvedAmount",
          "type": "tuple"
        },
        {
          "components": [
            {
              "internalType": "uint256",
              "name": "id",
              "type": "uint256"
            },
            {
              "internalType": "uint256",
              "name": "token_type",
              "type": "uint256"
            },
            {
              "internalType": "enum TokenModel2.TokenStatus",
              "name": "status",
              "type": "uint8"
            },
            {
              "components": [
                {
                  "internalType": "uint256",
                  "name": "cl_x",
                  "type": "uint256"
                },
                {
                  "internalType": "uint256",
                  "name": "cl_y",
                  "type": "uint256"
                },
                {
                  "internalType": "uint256",
                  "name": "cr_x",
                  "type": "uint256"
                },
                {
                  "internalType": "uint256",
                  "name": "cr_y",
                  "type": "uint256"
                }
              ],
              "internalType": "struct TokenModel2.ElGamal",
              "name": "amount",
              "type": "tuple"
            },
            {
              "internalType": "enum TokenModel2.TokenBox",
              "name": "location",
              "type": "uint8"
            },
            {
              "internalType": "address",
              "name": "owner",
              "type": "address"
            },
            {
              "internalType": "address",
              "name": "manager",
              "type": "address"
            }
          ],
          "internalType": "struct TokenModel2.AmountInfo[]",
          "name": "splitAmounts",
          "type": "tuple[]"
        },
        {
          "internalType": "bytes",
          "name": "proof",
          "type": "bytes"
        }
      ],
      "name": "privateSplitApproval",
      "outputs": [],
      "stateMutability": "nonpayable",
      "type": "function"
    },
    {
      "inputs": [],
      "name": "privateTotalSupply",
      "outputs": [
        {
          "components": [
            {
              "internalType": "uint256",
              "name": "cl_x",
              "type": "uint256"
            },
            {
              "internalType": "uint256",
              "name": "cl_y",
              "type": "uint256"
            },
            {
              "internalType": "uint256",
              "name": "cr_x",
              "type": "uint256"
            },
            {
              "internalType": "uint256",
              "name": "cr_y",
              "type": "uint256"
            }
          ],
          "internalType": "struct TokenModel2.ElGamal",
          "name": "",
          "type": "tuple"
        }
      ],
      "stateMutability": "view",
      "type": "function"
    },
    {
      "inputs": [
        {
          "internalType": "address",
          "name": "to",
          "type": "address"
        },
        {
          "internalType": "uint256[]",
          "name": "amountIds",
          "type": "uint256[]"
        }
      ],
      "name": "privateTransfer",
      "outputs": [],
      "stateMutability": "nonpayable",
      "type": "function"
    },
    {
      "inputs": [
        {
          "internalType": "address",
          "name": "from",
          "type": "address"
        },
        {
          "internalType": "address",
          "name": "to",
          "type": "address"
        },
        {
          "internalType": "uint256[]",
          "name": "amountIds",
          "type": "uint256[]"
        }
      ],
      "name": "privateTransferFrom",
      "outputs": [],
      "stateMutability": "nonpayable",
      "type": "function"
    }
  ],
  "bytecode": "0x60806040523461002a576100196100146100c2565b6101e4565b60405161149461028e823961149490f35b600080fd5b634e487b7160e01b600052604160045260246000fd5b90601f01601f191681019081106001600160401b0382111761006657604052565b61002f565b9061007f61007860405190565b9283610045565b565b6001600160a01b031690565b90565b6001600160a01b0381160361002a57565b9050519061007f82610090565b9060208282031261002a5761008d916100a1565b61008d611722803803806100d58161006b565b9283398101906100ae565b61008d90610081906001600160a01b031682565b61008d906100e0565b61008d906100f4565b9061011661008d610132926100fd565b82546001600160a01b0319166001600160a01b03919091161790565b9055565b600091031261002a57565b61014a906100fd565b9052565b634e487b7160e01b600052602160045260246000fd5b6002111561016e57565b61014e565b9061007f82610164565b61008d90610173565b61014a9061017d565b6101d161007f946101c16060949897956101b1608086019a6000870190610141565b6001600160a01b03166020850152565b6001600160a01b03166040830152565b0190610186565b6040513d6000823e3d90fd5b6101fa906101f3336001610106565b6000610106565b73__$b535835ff7768d42e8a96f90a6b4260cc2$__6102216000546001600160a01b031690565b61022a306100fd565b823b1561002a5761025f92600092839261024360405190565b95869485938493631022e7d160e01b855233916004860161018f565b03915af48015610288576102705750565b61007f9060006102808183610045565b810190610136565b6101d856fe6080604052600436101561001257600080fd5b60003560e01c806315fb7f74146100b857806324087ee3146100b357806326d88de6146100ae5780632abcb658146100ae5780632cb04c94146100a957806334a24039146100a4578063454357b71461009f5780636a28376d1461009f57806381bb7c191461009a578063996d21aa146100955763a1982013036100de576106ee565b610691565b610670565b610637565b610613565b6105b1565b6104e8565b61042a565b61015c565b6001600160a01b031690565b90565b6001600160a01b0381165b036100de57565b600080fd5b905035906100f0826100cc565b565b91906040838203126100de576100c990602061010e82866100e3565b94016100e3565b9052565b805182526100f09190606090819061013660208201516020860152565b61014560408201516040860152565b0151910152565b6080810192916100f09190610119565b346100de576101846101786101723660046100f2565b9061074c565b6040519182918261014c565b0390f35b634e487b7160e01b600052604160045260246000fd5b90601f01601f1916810190811067ffffffffffffffff8211176101c057604052565b610188565b906100f06101d260405190565b928361019e565b806100d7565b905035906100f0826101d9565b600411156100de57565b905035906100f0826101ec565b91906080838203126100de5761025690606061021f60806101c5565b9461022a83826101df565b865261023983602083016101df565b602087015261024b83604083016101df565b6040870152016101df565b6060830152565b600311156100de57565b905035906100f08261025d565b9190610140838203126100de576103009061012061029260e06101c5565b9461029d83826101df565b86526102ac83602083016101df565b60208701526102be83604083016101f6565b60408701526102d08360608301610203565b60608701526102e28360e08301610267565b60808701526102f58361010083016100e3565b60a0870152016100e3565b60c0830152565b67ffffffffffffffff81116101c05760208091020190565b9092919261033461032f82610307565b6101c5565b938185526101406020860192028301928184116100de57915b83831061035a5750505050565b60206101409161036a8486610274565b81520192019161034d565b9080601f830112156100de578160206100c99335910161031f565b909182601f830112156100de5781359167ffffffffffffffff83116100de5760200192600183028401116100de57565b906101a0828203126100de576103d681836100e3565b926103e48260208501610274565b9261016081013567ffffffffffffffff81116100de5783610406918301610375565b9261018082013567ffffffffffffffff81116100de576104269201610390565b9091565b346100de5761043a3660046103c0565b505050505061044860405190565b005b9092919261045a61032f82610307565b93818552602080860192028301928184116100de57915b83831061047e5750505050565b6020809161048c84866101df565b815201920191610471565b9080601f830112156100de578160206100c99335910161044a565b9190916040818403126100de576104c983826100e3565b92602082013567ffffffffffffffff81116100de576100c99201610497565b346100de576104f83660046104b2565b5050604051005b91909160a0818403126100de5761051660406101c5565b92813567ffffffffffffffff81116100de578261053a836020936105429601610497565b865201610203565b6020830152565b916060838303126100de57823567ffffffffffffffff81116100de57826105719185016104ff565b92602081013567ffffffffffffffff81116100de5783610592918301610375565b92604082013567ffffffffffffffff81116100de576104269201610390565b346100de576105cd6105c4366004610549565b92919091610d99565b604051005b90816101409103126100de5790565b906101a0828203126100de576105f781836100e3565b9261060582602085016100e3565b9261040683604083016105d2565b346100de5761043a3660046105e1565b906020828203126100de576100c9916101df565b346100de57610647366004610623565b50604051005b91906040838203126100de576100c990602061066982866100e3565b94016101df565b346100de5761018461017861017236600461064d565b60009103126100de57565b346100de576106a1366004610686565b6101846101786110c1565b916060838303126100de576106c182846100e3565b926106cf83602083016100e3565b92604082013567ffffffffffffffff81116100de576100c99201610497565b346100de576106fe3660046106ac565b50505061044860405190565b6100c960806101c5565b61071c61070a565b60008082526020820181905260408201819052606082015290565b6100c9610714565b6100c96100c96100c99290565b5050610756610737565b5061075f61070a565b6100c961076c600061073f565b610774818452565b61077f816020850152565b610256816040850152565b8015156100d7565b905051906100f08261078a565b905051906100f0826101d9565b909291926107bc61032f82610307565b93818552602080860192028301928184116100de57915b8383106107e05750505050565b602080916107ee848661079f565b8152019201916107d3565b9080601f830112156100de5781516100c9926020016107ac565b916060838303126100de576108288284610792565b92610836836020830161079f565b92604082015167ffffffffffffffff81116100de576100c992016107f9565b0190565b90610879610872610868845190565b8084529260200190565b9260200190565b9060005b81811061088a5750505090565b9091926108a76108a06001928651815260200190565b9460200190565b92910161087d565b906100c9906020806108d060a0840160008701518582036000870152610859565b940151910190610119565b634e487b7160e01b600052602160045260246000fd5b600411156108fb57565b6108db565b906100f0826108f1565b6100c990610900565b6101159061090a565b600311156108fb57565b906100f08261091c565b6100c990610926565b61011590610930565b805182526100f091906101209060c09061096160208201516020860152565b61097360408201516040860190610913565b61098560608201516060860190610119565b610997608082015160e0860190610939565b60a08101516001600160a01b031661010085015201516001600160a01b0316910152565b906108558161014093610942565b906109d8610872610868845190565b9060005b8181106109e95750505090565b9091926109fc6108a060019286516109bb565b9291016109dc565b90826000939282370152565b9190610a2e81610a27816108559560209181520190565b8095610a04565b601f01601f191690565b92906100c99492610a58610a6692606087019087820360008901526108af565b9085820360208701526109c9565b926040818503910152610a10565b6040513d6000823e3d90fd5b15610a8757565b60405162461bcd60e51b815260206004820152600d60248201526c34b73b30b634b210383937b7b360991b6044820152606490fd5b6100c9906100bd906001600160a01b031682565b6100c990610abc565b6100c990610ad0565b90610aec90610ad9565b600052602052604060002090565b634e487b7160e01b600052603260045260246000fd5b90610b19825190565b811015610b2a576020809102010190565b610afa565b6100c99051610900565b6100bd6100c96100c99290565b6100c990610b39565b6100c96101006101c5565b9061011590610900565b6100c99051610926565b6100c9906100bd565b6100c99054610b6e565b61011590610ad9565b805182526100f091906101409060e090610ba960208201516020860152565b6040818101516001600160a01b0316908501526060818101516001600160a01b031690850152610be160808201516080860190610913565b610bf360a082015160a0860190610119565b60c08101516001600160a01b0316610120850152610145565b604090610c3d6100f09496959396610c2d6101a08401986000850190610b81565b6001600160a01b03166020830152565b0190610b8a565b90610aec9061073f565b6100c99081565b6100c99054610c4e565b6100c99060a01c60ff1690565b6100c99054610c5f565b906100f0610cca6003610c8761070a565b94610c98610c9482610c55565b8752565b610cae610ca760018301610c55565b6020880152565b610cc4610cbd60028301610c55565b6040880152565b01610c55565b6060840152565b906100f0610d896009610ce2610b4f565b94610cef610c9482610c55565b610cfe610ca760018301610c55565b610d1d610d0d60028301610b77565b6001600160a01b03166040880152565b610d3c610d2c60038301610b77565b6001600160a01b03166060880152565b610d54610d4b60038301610c6c565b60808801610b5a565b610d6a610d6360048301610c76565b60a0880152565b610cc4610d7960088301610b77565b6001600160a01b031660c0880152565b60e0840152565b6100c990610cd1565b91610de9919493600091610dbe73__$7b35ab635a83c6a3b34960ef6a5f4b4571$__90565b90610dc860405190565b809581948293610ddc63150a4bc960e01b90565b84528b8a60048601610a38565b03915af48015610fae57610e059160009161109e575b50610a80565b610e136100c9336002610ae2565b92600091610e208361073f565b610e2b6100c9845190565b811015610fb357610e3c8184610b10565b5190610e488583015190565b602083015192610e6260a08201516001600160a01b031690565b60c08201516001600160a01b0316610e7c60408401610b2f565b606084015191610e8b8b610b46565b93610e94610b4f565b988997610ea1908e8a0152565b60208801526001600160a01b031660408701526001600160a01b03166060860152610ecf9060808601610b5a565b60a08401526001600160a01b031660c0830152610eeb8761073f565b60e0830152608001610efc90610b64565b90610f079189611277565b73__$b535835ff7768d42e8a96f90a6b4260cc2$__91610f2686610b77565b90610f3030610ad9565b93803b156100de57610f62948893610f4760405190565b9687948593849363da9847a360e01b5b855260048501610c0c565b03915af4918215610fae57610f7d92610f82575b5060010190565b610e20565b610fa190863d8811610fa7575b610f99818361019e565b810190610686565b38610f76565b503d610f8f565b610a74565b50929050610fc08261073f565b828401610fcf6100c982515190565b82101561109657610fe482610fe89251610b10565b5190565b90611009611001610ffc8460018a01610c44565b610d90565b9285886113d9565b73__$b535835ff7768d42e8a96f90a6b4260cc2$__9161102885610b77565b9061103230610ad9565b93803b156100de5761105d94879361104960405190565b96879485938493635c85f22160e01b610f57565b03915af4908115610fae57849261107992611080575060010190565b9050610fc0565b610fa190843d8611610fa757610f99818361019e565b505092505050565b6110bb91503d806000833e6110b3818361019e565b810190610813565b50610dff565b610756610737565b634e487b7160e01b600052600060045260246000fd5b90600019905b9181191691161790565b906110ff6100c96111069261073f565b82546110df565b9055565b906001600160a01b03906110e5565b906111296100c961110692610ad9565b825461110a565b9060ff60a01b9060a01b6110e5565b9061114f6100c96111069261090a565b8254611130565b60036111a860606100f09461117561116f600083015190565b866110ef565b61118c611183602083015190565b600187016110ef565b6111a361119a604083015190565b600287016110ef565b015190565b91016110ef565b906100f091611156565b60096111a860e06100f0946111d261116f600083015190565b6111e0611183602083015190565b6112006111f760408301516001600160a01b031690565b60028701611119565b6112366003860161122461121e60608501516001600160a01b031690565b82611119565b61123060808401610b2f565b9061113f565b61124d61124460a083015190565b600487016111af565b6111a361126460c08301516001600160a01b031690565b60088701611119565b906100f0916111b9565b825192916112856000610926565b61128e82610926565b036112a957506100f09260016112a49201610c44565b61126d565b6112b36001610926565b6112bc82610926565b036112d257506100f09260026112a49201610c44565b6112e56112df6002610926565b91610926565b146112ef57505050565b6100f09260036112a49201610c44565b9160001960089290920291821b911b6110e5565b91906113246100c96111069361073f565b9083546112ff565b6100f091600091611313565b600060036100f09261134c8380830161132c565b611359836001830161132c565b611366836002830161132c565b0161132c565b9060000361137d576100f090611338565b6110c9565b600060096100f0926113968380830161132c565b6113a3836001830161132c565b8260028201558260038201556113bc836004830161136c565b8260088201550161132c565b9060000361137d576100f090611382565b91906113e56000610926565b6113ee82610926565b0361140b575061140660009160016100f09401610c44565b6113c8565b6114156001610926565b61141e82610926565b03611436575061140660009160026100f09401610c44565b6114436112df6002610926565b1461144c575050565b61140660009160036100f09401610c4456fea264697066735822122056a017ebb9f9b2745db4c5020358be2343515ec47c4f4101a4f805a7d12a793264736f6c63430008190033",
  "linkReferences": {
    "contracts/ucl/circle/lib/TokenEventLib.sol": {
      "TokenEventLib2": [
        {
          "length": 20,
          "start": 508
        },
        {
          "length": 20,
          "start": 4503
        },
        {
          "length": 20,
          "start": 4761
        }
      ]
    },
    "contracts/ucl/circle/lib/TokenVerificationLib.sol": {
      "TokenVerificationLib2": [
        {
          "length": 20,
          "start": 4150
        }
      ]
    }
  },
  "deployedLinkReferences": {
    "contracts/ucl/circle/lib/TokenEventLib.sol": {
      "TokenEventLib2": [
        {
          "length": 20,
          "start": 3849
        },
        {
          "length": 20,
          "start": 4107
        }
      ]
    },
    "contracts/ucl/circle/lib/TokenVerificationLib.sol": {
      "TokenVerificationLib2": [
        {
          "length": 20,
          "start": 3496
        }
      ]
    }
  }
}