{
  "_format": "hh-sol-artifact-1",
  "contractName": "HamsaToken",
  "sourceName": "contracts/ucl/HamsaToken.sol",
  "abi": [
    {
      "inputs": [],
      "stateMutability": "nonpayable",
      "type": "constructor"
    },
    {
      "anonymous": false,
      "inputs": [
        {
          "indexed": true,
          "internalType": "address",
          "name": "owner",
          "type": "address"
        },
        {
          "indexed": true,
          "internalType": "address",
          "name": "spender",
          "type": "address"
        },
        {
          "indexed": false,
          "internalType": "uint256",
          "name": "value",
          "type": "uint256"
        }
      ],
      "name": "Approval",
      "type": "event"
    },
    {
      "anonymous": false,
      "inputs": [
        {
          "indexed": true,
          "internalType": "address",
          "name": "burner",
          "type": "address"
        },
        {
          "indexed": true,
          "internalType": "address",
          "name": "account",
          "type": "address"
        },
        {
          "indexed": false,
          "internalType": "uint256",
          "name": "value",
          "type": "uint256"
        },
        {
          "indexed": false,
          "internalType": "uint256",
          "name": "fromBalance",
          "type": "uint256"
        },
        {
          "indexed": false,
          "internalType": "uint256",
          "name": "toBalance",
          "type": "uint256"
        }
      ],
      "name": "HamsaBurnMade",
      "type": "event"
    },
    {
      "anonymous": false,
      "inputs": [
        {
          "indexed": true,
          "internalType": "address",
          "name": "account",
          "type": "address"
        },
        {
          "indexed": true,
          "internalType": "address",
          "name": "minter",
          "type": "address"
        },
        {
          "indexed": false,
          "internalType": "uint256",
          "name": "value",
          "type": "uint256"
        },
        {
          "indexed": false,
          "internalType": "uint256",
          "name": "fromBalance",
          "type": "uint256"
        },
        {
          "indexed": false,
          "internalType": "uint256",
          "name": "toBalance",
          "type": "uint256"
        }
      ],
      "name": "HamsaMintMade",
      "type": "event"
    },
    {
      "anonymous": false,
      "inputs": [
        {
          "indexed": true,
          "internalType": "address",
          "name": "from",
          "type": "address"
        },
        {
          "indexed": true,
          "internalType": "address",
          "name": "to",
          "type": "address"
        },
        {
          "indexed": false,
          "internalType": "uint256",
          "name": "value",
          "type": "uint256"
        },
        {
          "indexed": false,
          "internalType": "uint256",
          "name": "fromBalance",
          "type": "uint256"
        },
        {
          "indexed": false,
          "internalType": "uint256",
          "name": "toBalance",
          "type": "uint256"
        }
      ],
      "name": "HamsaTransferMade",
      "type": "event"
    },
    {
      "anonymous": false,
      "inputs": [
        {
          "indexed": true,
          "internalType": "address",
          "name": "from",
          "type": "address"
        },
        {
          "indexed": true,
          "internalType": "address",
          "name": "to",
          "type": "address"
        },
        {
          "indexed": false,
          "internalType": "uint256",
          "name": "value",
          "type": "uint256"
        }
      ],
      "name": "Transfer",
      "type": "event"
    },
    {
      "inputs": [],
      "name": "admin",
      "outputs": [
        {
          "internalType": "address",
          "name": "",
          "type": "address"
        }
      ],
      "stateMutability": "view",
      "type": "function"
    },
    {
      "inputs": [
        {
          "internalType": "address",
          "name": "",
          "type": "address"
        }
      ],
      "name": "allDeposit",
      "outputs": [
        {
          "internalType": "address",
          "name": "account",
          "type": "address"
        },
        {
          "internalType": "uint256",
          "name": "value",
          "type": "uint256"
        }
      ],
      "stateMutability": "view",
      "type": "function"
    },
    {
      "inputs": [
        {
          "internalType": "address",
          "name": "owner",
          "type": "address"
        },
        {
          "internalType": "address",
          "name": "spender",
          "type": "address"
        }
      ],
      "name": "allowance",
      "outputs": [
        {
          "internalType": "uint256",
          "name": "",
          "type": "uint256"
        }
      ],
      "stateMutability": "view",
      "type": "function"
    },
    {
      "inputs": [
        {
          "internalType": "address",
          "name": "spender",
          "type": "address"
        },
        {
          "internalType": "uint256",
          "name": "amount",
          "type": "uint256"
        }
      ],
      "name": "approve",
      "outputs": [
        {
          "internalType": "bool",
          "name": "",
          "type": "bool"
        }
      ],
      "stateMutability": "nonpayable",
      "type": "function"
    },
    {
      "inputs": [
        {
          "internalType": "address",
          "name": "account",
          "type": "address"
        }
      ],
      "name": "balanceOf",
      "outputs": [
        {
          "internalType": "uint256",
          "name": "",
          "type": "uint256"
        }
      ],
      "stateMutability": "view",
      "type": "function"
    },
    {
      "inputs": [
        {
          "internalType": "uint256",
          "name": "amount",
          "type": "uint256"
        }
      ],
      "name": "burn",
      "outputs": [],
      "stateMutability": "nonpayable",
      "type": "function"
    },
    {
      "inputs": [
        {
          "internalType": "address",
          "name": "account",
          "type": "address"
        },
        {
          "internalType": "uint256",
          "name": "amount",
          "type": "uint256"
        }
      ],
      "name": "burnFrom",
      "outputs": [],
      "stateMutability": "nonpayable",
      "type": "function"
    },
    {
      "inputs": [],
      "name": "decimals",
      "outputs": [
        {
          "internalType": "uint8",
          "name": "",
          "type": "uint8"
        }
      ],
      "stateMutability": "view",
      "type": "function"
    },
    {
      "inputs": [
        {
          "internalType": "address",
          "name": "spender",
          "type": "address"
        },
        {
          "internalType": "uint256",
          "name": "subtractedValue",
          "type": "uint256"
        }
      ],
      "name": "decreaseAllowance",
      "outputs": [
        {
          "internalType": "bool",
          "name": "",
          "type": "bool"
        }
      ],
      "stateMutability": "nonpayable",
      "type": "function"
    },
    {
      "inputs": [
        {
          "internalType": "address",
          "name": "depositor",
          "type": "address"
        },
        {
          "internalType": "address",
          "name": "account",
          "type": "address"
        },
        {
          "internalType": "uint256",
          "name": "amount",
          "type": "uint256"
        }
      ],
      "name": "deposit",
      "outputs": [],
      "stateMutability": "nonpayable",
      "type": "function"
    },
    {
      "inputs": [
        {
          "internalType": "address",
          "name": "account",
          "type": "address"
        },
        {
          "internalType": "address",
          "name": "freezer",
          "type": "address"
        },
        {
          "internalType": "uint256",
          "name": "amount",
          "type": "uint256"
        }
      ],
      "name": "freezeAccount",
      "outputs": [],
      "stateMutability": "nonpayable",
      "type": "function"
    },
    {
      "inputs": [
        {
          "internalType": "address",
          "name": "",
          "type": "address"
        }
      ],
      "name": "frozen",
      "outputs": [
        {
          "internalType": "address",
          "name": "account",
          "type": "address"
        },
        {
          "internalType": "uint256",
          "name": "value",
          "type": "uint256"
        }
      ],
      "stateMutability": "view",
      "type": "function"
    },
    {
      "inputs": [
        {
          "internalType": "address",
          "name": "from",
          "type": "address"
        },
        {
          "internalType": "address",
          "name": "to",
          "type": "address"
        }
      ],
      "name": "getFromAndToBalance",
      "outputs": [
        {
          "internalType": "uint256",
          "name": "",
          "type": "uint256"
        },
        {
          "internalType": "uint256",
          "name": "",
          "type": "uint256"
        }
      ],
      "stateMutability": "view",
      "type": "function"
    },
    {
      "inputs": [
        {
          "internalType": "address",
          "name": "spender",
          "type": "address"
        },
        {
          "internalType": "uint256",
          "name": "addedValue",
          "type": "uint256"
        }
      ],
      "name": "increaseAllowance",
      "outputs": [
        {
          "internalType": "bool",
          "name": "",
          "type": "bool"
        }
      ],
      "stateMutability": "nonpayable",
      "type": "function"
    },
    {
      "inputs": [
        {
          "internalType": "address",
          "name": "account",
          "type": "address"
        },
        {
          "internalType": "uint256",
          "name": "amount",
          "type": "uint256"
        }
      ],
      "name": "mint",
      "outputs": [],
      "stateMutability": "nonpayable",
      "type": "function"
    },
    {
      "inputs": [],
      "name": "name",
      "outputs": [
        {
          "internalType": "string",
          "name": "",
          "type": "string"
        }
      ],
      "stateMutability": "view",
      "type": "function"
    },
    {
      "inputs": [],
      "name": "symbol",
      "outputs": [
        {
          "internalType": "string",
          "name": "",
          "type": "string"
        }
      ],
      "stateMutability": "view",
      "type": "function"
    },
    {
      "inputs": [],
      "name": "totalSupply",
      "outputs": [
        {
          "internalType": "uint256",
          "name": "",
          "type": "uint256"
        }
      ],
      "stateMutability": "view",
      "type": "function"
    },
    {
      "inputs": [
        {
          "internalType": "address",
          "name": "to",
          "type": "address"
        },
        {
          "internalType": "uint256",
          "name": "amount",
          "type": "uint256"
        }
      ],
      "name": "transfer",
      "outputs": [
        {
          "internalType": "bool",
          "name": "",
          "type": "bool"
        }
      ],
      "stateMutability": "nonpayable",
      "type": "function"
    },
    {
      "inputs": [
        {
          "internalType": "address",
          "name": "from",
          "type": "address"
        },
        {
          "internalType": "address",
          "name": "to",
          "type": "address"
        },
        {
          "internalType": "uint256",
          "name": "amount",
          "type": "uint256"
        }
      ],
      "name": "transferFrom",
      "outputs": [
        {
          "internalType": "bool",
          "name": "",
          "type": "bool"
        }
      ],
      "stateMutability": "nonpayable",
      "type": "function"
    },
    {
      "inputs": [
        {
          "internalType": "address",
          "name": "account",
          "type": "address"
        },
        {
          "internalType": "address",
          "name": "unfreezer",
          "type": "address"
        },
        {
          "internalType": "uint256",
          "name": "amount",
          "type": "uint256"
        }
      ],
      "name": "unfreezeAccount",
      "outputs": [],
      "stateMutability": "nonpayable",
      "type": "function"
    },
    {
      "inputs": [
        {
          "internalType": "address",
          "name": "withdrawer",
          "type": "address"
        },
        {
          "internalType": "address",
          "name": "account",
          "type": "address"
        },
        {
          "internalType": "uint256",
          "name": "amount",
          "type": "uint256"
        }
      ],
      "name": "withdraw",
      "outputs": [],
      "stateMutability": "nonpayable",
      "type": "function"
    }
  ],
  "bytecode": "0x60806040523461002257610011610167565b6040516112f861051182396112f890f35b600080fd5b634e487b7160e01b600052604160045260246000fd5b90601f01601f191681019081106001600160401b0382111761005e57604052565b610027565b9061007761007060405190565b928361003d565b565b6001600160401b03811161005e57602090601f01601f19160190565b906100a76100a283610079565b610063565b918252565b6100b6600a610095565b692430b6b9b0aa37b5b2b760b11b602082015290565b6100d46100ac565b90565b6100e16003610095565b6212135560ea1b602082015290565b6100d46100d7565b906001600160a01b03905b9181191691161790565b6100d490610121906001600160a01b031682565b6001600160a01b031690565b6100d49061010d565b6100d49061012d565b9061014f6100d461015692610136565b82546100f8565b9055565b6100d46100d46100d49290565b6101806101726100cc565b61017a6100f0565b906101a2565b61018b33600561013f565b61007761019c64174876e80061015a565b33610457565b906100779161036d565b634e487b7160e01b600052602260045260246000fd5b90600160028304921680156101e2575b60208310146101dd57565b6101ac565b91607f16916101d2565b9160001960089290920291821b911b610103565b91906102116100d46101569361015a565b9083546101ec565b61007791600091610200565b818110610230575050565b8061023e6000600193610219565b01610225565b9190601f811161025357505050565b61026561007793600052602060002090565b906020601f840181900483019310610287575b6020601f909101040190610225565b9091508190610278565b9061029a815190565b906001600160401b03821161005e576102bd826102b785546101c2565b85610244565b602090601f83116001146102f8576101569291600091836102ed575b5050600019600883021c1916906002021790565b0151905038806102d9565b601f1983169161030d85600052602060002090565b9260005b81811061034b57509160029391856001969410610332575b50505002019055565b01516000196008601f8516021c19169055388080610329565b91936020600181928787015181550195019201610311565b9061007791610291565b9061037c610077926003610363565b6004610363565b6101216100d46100d49290565b6100d490610383565b156103a057565b60405162461bcd60e51b815260206004820152601f60248201527f45524332303a206d696e7420746f20746865207a65726f2061646472657373006044820152606490fd5b6100d49081565b6100d490546103e5565b634e487b7160e01b600052601160045260246000fd5b9190820180921161041957565b6103f6565b9060001990610103565b906104386100d46101569261015a565b825461041e565b9061044990610136565b600052602052604060002090565b7fddf252ad1be2c89b69c2b068fc378daa952ba7f163c4a11628f55a4df523b3ef61050b6104f46104ee61048b6000610390565b6104a761049782610121565b6104a088610121565b1415610399565b6104c46104bd886104b860026103ec565b61040c565b6002610428565b6104e96104d287600061043f565b6104e3896104df836103ec565b0190565b90610428565b610136565b93610136565b936104fe60405190565b9182918290815260200190565b0390a356fe6080604052600436101561001257600080fd5b60003560e01c806306fdde0314610172578063095ea7b31461016d57806318160ddd1461016857806323b872dd14610163578063313ce5671461015e57806332af790814610159578063395093511461015457806340c10f191461014f57806342966c681461014a57806370a082311461014557806374ea49fd1461014057806379cc67901461013b5780637b479db0146101365780638340f5491461013157806395d89b411461012c578063a457c2d714610127578063a9059cbb14610122578063cb45d3521461011d578063d051665014610118578063d9caed1214610113578063dd62ed3e1461010e5763f851a4400361018257610655565b610615565b6105fc565b6105e4565b6105ab565b6104ef565b6104d3565b6104b8565b61049f565b610486565b61046d565b61043e565b6103e9565b6103bd565b610390565b610374565b610356565b610327565b61030b565b6102b6565b610288565b6101f6565b600091031261018257565b600080fd5b60005b83811061019a5750506000910152565b818101518382015260200161018a565b6101cb6101d46020936101de936101bf815190565b80835293849260200190565b95869101610187565b601f01601f191690565b0190565b60208082526101f3929101906101aa565b90565b3461018257610206366004610177565b61021d6102116107bf565b604051918291826101e2565b0390f35b6001600160a01b031690565b6001600160a01b0381165b0361018257565b9050359061024c8261022d565b565b80610238565b9050359061024c8261024e565b9190604083820312610182576101f390602061027d828661023f565b9401610254565b9052565b346101825761021d6102a461029e366004610261565b906107c9565b60405191829182901515815260200190565b34610182576102c6366004610177565b61021d6102d16107e5565b6040515b9182918290815260200190565b9091606082840312610182576101f36102fb848461023f565b93604061027d826020870161023f565b346101825761021d6102a46103213660046102e2565b916107ef565b3461018257610337366004610177565b61021d610342610819565b6040519182918260ff909116815260200190565b346101825761036f6103693660046102e2565b916109b2565b604051005b346101825761021d6102a461038a366004610261565b906109e5565b346101825761036f6103a3366004610261565b90610a43565b90602082820312610182576101f391610254565b346101825761036f6103d03660046103a9565b610ad4565b90602082820312610182576101f39161023f565b346101825761021d6102d16103ff3660046103d5565b610b3c565b9190604083820312610182576101f3906020610420828661023f565b940161023f565b90815260408101929161024c9160200152565b0152565b3461018257610457610451366004610404565b90610b58565b9061021d61046460405190565b92839283610427565b346101825761036f610480366004610261565b90610b9f565b346101825761036f6104993660046102e2565b91610bb3565b346101825761036f6104b23660046102e2565b91610bd2565b34610182576104c8366004610177565b61021d610211610be9565b346101825761021d6102a46104e9366004610261565b90610c4d565b346101825761021d6102a4610505366004610261565b90610c8c565b6101f390610221906001600160a01b031682565b6101f39061050b565b6101f39061051f565b9061053b90610528565b600052602052604060002090565b6101f390610221565b6101f39054610549565b6101f39081565b6101f3905461055c565b610578906006610531565b906101f3600161058784610552565b9301610563565b6001600160a01b03909116815260408101929161024c9160200152565b34610182576105c36105be3660046103d5565b61056d565b9061021d6105d060405190565b9283928361058e565b610578906007610531565b34610182576105c36105f73660046103d5565b6105d9565b346101825761036f61060f3660046102e2565b91610ced565b346101825761021d6102d161062b366004610404565b90610d05565b6101f3916008021c610221565b906101f39154610631565b6101f36000600561063e565b3461018257610665366004610177565b61021d610670610649565b604051918291826001600160a01b03909116815260200190565b634e487b7160e01b600052602260045260246000fd5b90600160028304921680156106c0575b60208310146106bb57565b61068a565b91607f16916106b0565b805460009392916106e76106dd836106a0565b8085529360200190565b9160018116908115610739575060011461070057505050565b6107139192939450600052602060002090565b916000925b8184106107255750500190565b805484840152602090930192600101610718565b92949550505060ff1916825215156020020190565b906101f3916106ca565b634e487b7160e01b600052604160045260246000fd5b90601f01601f1916810190811067ffffffffffffffff82111761079057604052565b610758565b9061024c6107af926107a660405190565b9384809261074e565b038361076e565b6101f390610795565b6101f360036107b6565b6107e091906107d88133610b58565b505033610dd4565b600190565b6101f36002610563565b6107e092919061080183335b83610eac565b610ff1565b6108136101f36101f39290565b60ff1690565b6101f36012610806565b1561082a57565b60405162461bcd60e51b815260206004820152602160248201527f4f6e6c792061646d696e2063616e2063616c6c20746869732066756e6374696f6044820152603760f91b6064820152608490fd5b9061024c929161089661088f6102216005610552565b3314610823565b610955565b9061024c6108a860405190565b928361076e565b6101f3604061089b565b906001600160a01b03905b9181191691161790565b906108de6101f36108e592610528565b82546108b9565b9055565b90600019906108c4565b6101f36101f36101f39290565b906109106101f36108e5926108f3565b82546108e9565b6001610944602061024c9461093f61093960008301516001600160a01b031690565b866108ce565b015190565b9101610900565b9061024c91610917565b61098661024c93610969846109ad94610b58565b5050610981600161097b866007610531565b01610563565b6110ad565b916109a66109926108af565b6001600160a01b0383168152936020850152565b6007610531565b61094b565b9061024c9291610879565b634e487b7160e01b600052601160045260246000fd5b919082018092116109e057565b6109bd565b6107e091906109fe33926109f98385610d05565b6109d3565b91610dd4565b6102216101f36101f39290565b6101f390610a04565b610284906108f3565b90815260608101939261024c92909160409161043a906020830190610a1a565b7f4478062d19d94356eb43fbb12e9a9a000cd0ff0215a190bf50f7c77b986543a56000610a6f83610b3c565b93610a7a8185611103565b610aaa610a97610a91610a8c85610a11565b610528565b95610528565b95610aa160405190565b93849384610a23565b0390a3565b90815260608101939261024c929091604091610acd905b6020830152565b0190610a1a565b610add33610b3c565b610ae68261117b565b7f3dacbf7663256207552f3ac43a934b24090e458db526b6d5dc16070565e14d3c610b116000610a11565b91610b24610b1e33610528565b93610528565b93610aaa6000610b3360405190565b93849384610aaf565b610b536101f391610b4b600090565b506000610531565b610563565b909190610b686102216000610a11565b6001600160a01b03841614610b8957610b836101f391610b3c565b92610b3c565b610b94919250610b3c565b906101f360006108f3565b61024c9190610bae82336107fb565b611232565b81610bc561024c94936109ad93610b58565b50506109a66109926108af565b9061024c9291610be28282610b58565b5050610ff1565b6101f360046107b6565b15610bfa57565b60405162461bcd60e51b815260206004820152602560248201527f45524332303a2064656372656173656420616c6c6f77616e63652062656c6f77604482015264207a65726f60d81b6064820152608490fd5b6107e091906109fe3392610c618385610d05565b610c6d82821015610bf3565b0390565b90815260608101939261024c92909160409161043a90610ac6565b7f96c30caa12e8db2ed81240b750fa268a5e0dd2f6d435caa442ba1bc54a439156610cb78233610b58565b93610cc3818533610ff1565b610ce5610cd2610a9133610528565b95610cdc60405190565b93849384610c71565b0390a3600190565b61024c9291610be2610cff6000610a11565b33610b58565b6101f391610d20610b5392610d18600090565b506001610531565b610531565b15610d2c57565b60405162461bcd60e51b8152602060048201526024808201527f45524332303a20617070726f76652066726f6d20746865207a65726f206164646044820152637265737360e01b6064820152608490fd5b15610d8457565b60405162461bcd60e51b815260206004820152602260248201527f45524332303a20617070726f766520746f20746865207a65726f206164647265604482015261737360f01b6064820152608490fd5b610aaa610e56610b1e7f8c5be1e5ebec7d5bd14f71427d1e84f3dd0314c0f7b2291e5b200ac8c7c3b92593610e3e610e2d610e0f6000610a11565b6102216001600160a01b0382166001600160a01b0386161415610d25565b6001600160a01b0388161415610d7d565b610a8c87610e5188610d20856001610531565b610900565b936102d560405190565b15610e6757565b60405162461bcd60e51b815260206004820152601d60248201527f45524332303a20696e73756666696369656e7420616c6c6f77616e63650000006044820152606490fd5b90610eb78183610d05565b6000198103610ec7575b50505050565b610edb936109fe91610c6d82821015610e60565b38808080610ec1565b15610eeb57565b60405162461bcd60e51b815260206004820152602560248201527f45524332303a207472616e736665722066726f6d20746865207a65726f206164604482015264647265737360d81b6064820152608490fd5b15610f4557565b60405162461bcd60e51b815260206004820152602360248201527f45524332303a207472616e7366657220746f20746865207a65726f206164647260448201526265737360e81b6064820152608490fd5b15610f9d57565b60405162461bcd60e51b815260206004820152602660248201527f45524332303a207472616e7366657220616d6f756e7420657863656564732062604482015265616c616e636560d01b6064820152608490fd5b610aaa610e56610b1e7fddf252ad1be2c89b69c2b068fc378daa952ba7f163c4a11628f55a4df523b3ef93610a8c61108d87600061106361105261103483610a11565b6102216001600160a01b0382166001600160a01b038a161415610ee4565b6001600160a01b0384161415610f3e565b610d206110838c611077610b538986610531565b610c6d82821015610f96565b610e518784610531565b61109a896101de83610563565b90610900565b919082039182116109e057565b6101f391906110a0565b156110be57565b60405162461bcd60e51b815260206004820152601f60248201527f45524332303a206d696e7420746f20746865207a65726f2061646472657373006044820152606490fd5b7fddf252ad1be2c89b69c2b068fc378daa952ba7f163c4a11628f55a4df523b3ef610aaa610e56610b1e6111376000610a11565b6111556001600160a01b0382166001600160a01b03881614156110b7565b61116d611166886109f96002610563565b6002610900565b610a8c61108d876000610531565b61024c9033611232565b1561118c57565b60405162461bcd60e51b815260206004820152602160248201527f45524332303a206275726e2066726f6d20746865207a65726f206164647265736044820152607360f81b6064820152608490fd5b156111e257565b60405162461bcd60e51b815260206004820152602260248201527f45524332303a206275726e20616d6f756e7420657863656564732062616c616e604482015261636560f01b6064820152608490fd5b7fddf252ad1be2c89b69c2b068fc378daa952ba7f163c4a11628f55a4df523b3ef610aaa610e56610b1e6000946112b161126b87610a11565b9661128a6001600160a01b0389166001600160a01b0385161415611185565b610e51836112ab8b61129f610b538487610531565b610c6d828210156111db565b92610531565b610a8c61116688610c6d600261056356fea2646970667358221220eabd182b7f484355b8e5f9445d308459aa5cf840b01846e3f4dea63848b9f46964736f6c63430008190033",
  "linkReferences": {},
  "deployedLinkReferences": {}
}