{
  "_format": "hh-sol-artifact-1",
  "contractName": "ArrayTestSC",
  "sourceName": "contracts/test/ArrayTestSC.sol",
  "abi": [
    {
      "inputs": [],
      "name": "fixedArray",
      "outputs": [
        {
          "internalType": "uint256[3]",
          "name": "",
          "type": "uint256[3]"
        }
      ],
      "stateMutability": "view",
      "type": "function"
    },
    {
      "inputs": [
        {
          "internalType": "uint256",
          "name": "",
          "type": "uint256"
        }
      ],
      "name": "items",
      "outputs": [
        {
          "internalType": "uint256",
          "name": "",
          "type": "uint256"
        }
      ],
      "stateMutability": "view",
      "type": "function"
    },
    {
      "inputs": [],
      "name": "myList",
      "outputs": [
        {
          "internalType": "uint256[]",
          "name": "",
          "type": "uint256[]"
        }
      ],
      "stateMutability": "view",
      "type": "function"
    },
    {
      "inputs": [
        {
          "internalType": "uint256",
          "name": "item",
          "type": "uint256"
        }
      ],
      "name": "push",
      "outputs": [],
      "stateMutability": "nonpayable",
      "type": "function"
    }
  ],
  "bytecode": "0x60806040523460195760405161047d61001f823961047d90f35b600080fdfe6080604052600436101561001257600080fd5b60003560e01c8063391e245714610052578063959ac4841461004d5780639f02f107146100485763bfb231d20361006257610214565b610178565b6100fb565b6100bd565b600091031261006257565b600080fd5b61007761007360039390565b9190565b6000915b8383106100885750505050565b6100a261009b6001928451815260200190565b9260200190565b9201919061007b565b6060810192916100bb9190610067565b565b34610062576100cd366004610057565b6100e46100d86102ee565b604051918291826100ab565b0390f35b9060208282031261006257503590565b90565b346100625761011361010e3660046100e8565b610395565b604051005b9061013161009b610127845190565b8084529260200190565b9060005b8181106101425750505090565b90919261015f6101586001928651815260200190565b9460200190565b929101610135565b60208082526100f892910190610118565b3461006257610188366004610057565b6100e461019361043d565b60405191829182610167565b634e487b7160e01b600052603260045260246000fd5b80548210156101d8576101cf600191600052602060002090565b91020190600090565b61019f565b6100f8916008021c81565b906100f891546101dd565b60008054821015610211576100f89161020b916101b5565b906101e8565b80fd5b34610062576100e461022f61022a3660046100e8565b6101f3565b6040519182918290815260200190565b634e487b7160e01b600052604160045260246000fd5b90601f01601f1916810190811067ffffffffffffffff82111761027757604052565b61023f565b906100bb61028960405190565b9283610255565b67ffffffffffffffff81116102775760200290565b6102b16100f891610290565b61027c565b369037565b906100bb6102d16102cb846102a5565b93610290565b836102b6565b6100f860036102bb565b6100f86100f86100f89290565b6102f66102d7565b5061030160036102a5565b61031261030e60016102e1565b8252565b61032661031f60026102e1565b6020830152565b6100f861033360036102e1565b6040830152565b919061034b6100f8610363936102e1565b90835460001960089290920291821b191691901b1790565b9055565b9081549168010000000000000000831015610277578261038f9160016100bb950181556101b5565b9061033a565b6100bb906000610367565b6100f89081565b6100f890546103a0565b906103cc6103c0610127845490565b92600052602060002090565b9060005b8181106103dd5750505090565b9091926104016103fa6001926103f2876103a7565b815260200190565b9460010190565b9291016103d0565b906100f8916103b1565b906100bb61042d9261042460405190565b93848092610409565b0383610255565b6100f890610413565b6100f8600061043456fea2646970667358221220bfd25853478c9f65b04c9ae65764b5720f7d82f5115878adc21b1df38741489964736f6c63430008190033",
  "linkReferences": {},
  "deployedLinkReferences": {}
}