{
  "_format": "hh-sol-artifact-1",
  "contractName": "PoseidonHasher",
  "sourceName": "contracts/ucl/util/PoseidonHasher.sol",
  "abi": [
    {
      "inputs": [
        {
          "internalType": "uint256[2]",
          "name": "inputs",
          "type": "uint256[2]"
        }
      ],
      "name": "hash",
      "outputs": [
        {
          "internalType": "uint256",
          "name": "",
          "type": "uint256"
        }
      ],
      "stateMutability": "pure",
      "type": "function"
    },
    {
      "inputs": [
        {
          "internalType": "bytes32",
          "name": "input0",
          "type": "bytes32"
        },
        {
          "internalType": "bytes32",
          "name": "input1",
          "type": "bytes32"
        }
      ],
      "name": "hash2",
      "outputs": [
        {
          "internalType": "bytes32",
          "name": "",
          "type": "bytes32"
        }
      ],
      "stateMutability": "pure",
      "type": "function"
    }
  ],
  "bytecode": "0x608060405234601d57604051612d46610023823930815050612d4690f35b600080fdfe6080604052600436101561001257600080fd5b60003560e01c8063561558fe146100325763b30c0b6a0361009f57610157565b610116565b634e487b7160e01b600052604160045260246000fd5b90601f01601f1916810190811067ffffffffffffffff82111761006f57604052565b610037565b9061008861008160405190565b928361004d565b565b67ffffffffffffffff811161006f5760200290565b600080fd5b909291926100b96100b48261008a565b610074565b93602085920283019281841161009f57915b8383106100d85750505050565b82358152602092830192016100cb565b9080601f8301121561009f5760026100ff926100a4565b90565b9060408282031261009f576100ff916100e8565b61013c61012c610127366004610102565b61045a565b6040519182918290815260200190565b0390f35b919060408382031261009f57508135916020013590565b61013c61012c610168366004610140565b90612c8d565b6100b46100ff9161008a565b6100ff6100ff6100ff9290565b1561018e57565b60405162461bcd60e51b8152806101d7600482016020808252818101527f696e707574206172726179206c656e6774682073686f756c642062652074776f604082015260600190565b0390fd5b634e487b7160e01b600052601160045260246000fd5b919082018092116101fe57565b6101db565b634e487b7160e01b600052603260045260246000fd5b9060025b81101561022b576020020190565b610203565b61023d6100ff6100ff9290565b60ff1690565b60ff1660ff81146101fe5760010190565b6100ff600861017a565b6100ff603961017a565b6100ff6100ff6100ff9260ff1690565b90600361021d565b818102929181159184041417156101fe57565b9060c361021d565b6100ff7f30644e72e131a029b85045b68181585d2833e84879b9709143e1f593f000000161017a565b634e487b7160e01b600052601260045260246000fd5b81156102e4570490565b6102c4565b6100ff7f109b7f411ba0e4c9b2b70caf5c36a7b194be7c11ad24378bfedb68592ba8118b61017a565b6100ff7f16ed41e13bb9c0c66ae119424fddbcbc9314dc9fdbdeea55d6c64543dc4903e061017a565b6100ff7f2b90bba00fca0589f617e7dcbfe82e0df706ab640ceb247b791a93b74e36736d61017a565b6100ff7f2969f27eed31a480b9c36c764379dbca2cc8fdd1415c3dded62940bcde0bd77161017a565b6100ff7f2e2419f9ec02ec394c9871c832963dc1b89d743c8c7b964029b2311687b1fe2361017a565b6100ff7f101071f0032379b697315876690f053d148d4e109f5fb065c8aacc55a0f89bfa61017a565b6100ff7f143021ec686a3f330d5f9e654638065ce6cd79e28c5b3753326244ee65a1b1a761017a565b6100ff7f176cc029695ad02582a70eff08a6fd99d057e12e58e7d7b6b16cdfabc8ee291161017a565b6100ff7f19a3fc0a56702bf417ba7fee3802593fa644470307043f7773279cd71d25d5e061017a565b61046460c361016e565b9061048e7f0ee9a592ba9a9518d05986d656f40c2114c4993c11bb29938d21d47304cd8e6e61017a565b82526104b87ef1445235f2148c5986587169fc1bcd887b08d4d00868df5696fff40956e86461017a565b60208301526104e67f08dff3487e8ac99e1f29a058d0fa80b930c728730b7ab36ce879f3890ecf73f561017a565b60408301526105147f2f27be690fdaee46c3ce28f7532b13c856c35342c84bda6e20966310fadc01d061017a565b60608301526105427f2b2ae1acf68b7b8d2416bebf3d4f6234b763fe04b8043ee48b8327bebca16cf261017a565b60808301526105707f0319d062072bef7ecca5eac06f97d4d55952c175ab6b03eae64b44c7dbf11cfa61017a565b60a083015261059e7f28813dcaebaeaa828a376df87af4a63bc8b7bf27ad49c6298ef7b387bf28526d61017a565b60c08301526105cc7f2727673b2ccbc903f181bf38e1c1d40d2033865200c352bc150928adddf9cb7861017a565b60e08301526105fa7f234ec45ca27727c2e74abd2b2a1494cd6efbd43e340587d6b8fb9e31e65cc63261017a565b6101008301526106297f15b52534031ae18f7f862cb2cf7cf760ab10a8150a337b1ccd99ff6e8797d42861017a565b6101208301526106587f0dc8fad6d9e4b35f5ed9a3d186b79ce38e0e8a8d1b58b132d701d4eecf68d1f661017a565b6101408301526106877f1bcd95ffc211fbca600f705fad3fb567ea4eb378f62e1fec97805518a47e4d9c61017a565b6101608301526106b67f10520b0ab721cadfe9eff81b016fc34dc76da36c2578937817cb978d069de55961017a565b6101808301526106e57f1f6d48149b8e7f7d9b257d8ed5fbbaf42932498075fed0ace88a9eb81f5627f661017a565b6101a08301526107147f1d9655f652309014d29e00ef35a2089bfff8dc1c816f0dc9ca34bdb5460c870561017a565b6101c08301526107437f04df5a56ff95bcafb051f7b1cd43a99ba731ff67e47032058fe3d4185697cc7d61017a565b6101e08301526107727f0672d995f8fff640151b3d290cedaf148690a10a8c8424a7f6ec282b6e4be82861017a565b6102008301526107a17f099952b414884454b21200d7ffafdd5f0c9a9dcc06f2708e9fc1d8209b5c75b961017a565b6102208301526107d07f052cba2255dfd00c7c483143ba8d469448e43586a9b4cd9183fd0e843a6b9fa661017a565b6102408301526107ff7f0b8badee690adb8eb0bd74712b7999af82de55707251ad7716077cb93c464ddc61017a565b61026083015261082e7f119b1590f13307af5a1ee651020c07c749c15d60683a8050b963d0a8e4b2bdd161017a565b61028083015261085d7f03150b7cd6d5d17b2529d36be0f67b832c4acfc884ef4ee5ce15be0bfb4a8d0961017a565b6102a083015261088c7f2cc6182c5e14546e3cf1951f173912355374efb83d80898abe69cb317c9ea56561017a565b6102c08301526108ba7e5032551e6378c450cfe129a404b3764218cadedac14e2b92d2cd73111bf0f961017a565b6102e08301526108e97f233237e3289baa34bb147e972ebcb9516469c399fcc069fb88f9da2cc28276b561017a565b6103008301526109187f05c8f4f4ebd4a6e3c980d31674bfbe6323037f21b34ae5a4e80c2d4c24d6028061017a565b6103208301526109477f0a7b1db13042d396ba05d818a319f25252bcf35ef3aeed91ee1f09b2590fc65b61017a565b6103408301526109767f2a73b71f9b210cf5b14296572c9d32dbf156e2b086ff47dc5df542365a404ec061017a565b6103608301526109a57f1ac9b0417abcc9a1935107e9ffc91dc3ec18f2c4dbe7f22976a760bb5c50c46061017a565b6103808301526109d47f12c0339ae08374823fabb076707ef479269f3e4d6cb104349015ee046dc93fc061017a565b6103a0830152610a037f0b7475b102a165ad7f5b18db4e1e704f52900aa3253baac68246682e56e9a28e61017a565b6103c0830152610a327f037c2849e191ca3edb1c5e49f6e8b8917c843e379366f2ea32ab3aa88d7f844861017a565b6103e0830152610a617f05a6811f8556f014e92674661e217e9bd5206c5c93a07dc145fdb176a716346f61017a565b610400830152610a907f29a795e7d98028946e947b75d54e9f044076e87a7b2883b47b675ef5f38bd66e61017a565b610420830152610abf7f20439a0c84b322eb45a3857afc18f5826e8c7382c8a1585c507be199981fd22f61017a565b610440830152610aee7f2e0ba8d94d9ecf4a94ec2050c7371ff1bb50f27799a84b6d4a2a6f2a0982c88761017a565b610460830152610b1d7f143fd115ce08fb27ca38eb7cce822b4517822cd2109048d2e6d0ddcca17d71c861017a565b610480830152610b4c7f0c64cbecb1c734b857968dbbdcf813cdf8611659323dbcbfc84323623be9caf161017a565b6104a0830152610b7b7f028a305847c683f646fca925c163ff5ae74f348d62c2b670f1426cef9403da5361017a565b6104c0830152610baa7f2e4ef510ff0b6fda5fa940ab4c4380f26a6bcb64d89427b824d6755b5db9e30c61017a565b6104e0830152610bd87e81c95bc43384e663d79270c956ce3b8925b4f6d033b078b96384f50579400e61017a565b610500830152610c077f2ed5f0c91cbd9749187e2fade687e05ee2491b349c039a0bba8a9f4023a0bb3861017a565b610520830152610c367f30509991f88da3504bbf374ed5aae2f03448a22c76234c8c990f01f33a73520661017a565b610540830152610c657f1c3f20fd55409a53221b7c4d49a356b9f0a1119fb2067b41a7529094424ec6ad61017a565b610560830152610c947f10b4e7f3ab5df003049514459b6e18eec46bb2213e8e131e170887b47ddcb96c61017a565b610580830152610cc37f2a1982979c3ff7f43ddd543d891c2abddd80f804c077d775039aa3502e43adef61017a565b6105a0830152610cf27f1c74ee64f15e1db6feddbead56d6d55dba431ebc396c9af95cad0f1315bd5c9161017a565b6105c0830152610d217f07533ec850ba7f98eab9303cace01b4b9e4f2e8b82708cfa9c2fe45a0ae146a061017a565b6105e0830152610d507f21576b438e500449a151e4eeaf17b154285c68f42d42c1808a11abf3764c075061017a565b610600830152610d7f7f2f17c0559b8fe79608ad5ca193d62f10bce8384c815f0906743d6930836d4a9e61017a565b610620830152610dae7f2d477e3862d07708a79e8aae946170bc9775a4201318474ae665b0b1b7e2730e61017a565b610640830152610ddd7f162f5243967064c390e095577984f291afba2266c38f5abcd89be0f5b2747eab61017a565b610660830152610e0c7f2b4cb233ede9ba48264ecd2c8ae50d1ad7a8596a87f29f8a7777a7009239331161017a565b610680830152610e3b7f2c8fbcb2dd8573dc1dbaf8f4622854776db2eece6d85c4cf4254e7c35e03b07a61017a565b6106a0830152610e6a7f1d6f347725e4816af2ff453f0cd56b199e1b61e9f601e9ade5e88db870949da961017a565b6106c0830152610e997f204b0c397f4ebe71ebc2d8b3df5b913df9e6ac02b68d31324cd49af5c456552961017a565b6106e0830152610ec87f0c4cb9dc3c4fd8174f1149b3c63c3c2f9ecb827cd7dc25534ff8fb75bc79c50261017a565b610700830152610ef77f174ad61a1448c899a25416474f4930301e5c49475279e0639a616ddc45bc7b5461017a565b610720830152610f267f1a96177bcf4d8d89f759df4ec2f3cde2eaaa28c177cc0fa13a9816d49a38d2ef61017a565b610740830152610f557f066d04b24331d71cd0ef8054bc60c4ff05202c126a233c1a8242ace360b8a30a61017a565b610760830152610f847f2a4c4fc6ec0b0cf52195782871c6dd3b381cc65f72e02ad527037a62aa1bd80461017a565b610780830152610fb37f13ab2d136ccf37d447e9f2e14a7cedc95e727f8446f6d9d7e55afc01219fd64961017a565b6107a0830152610fe27f1121552fca26061619d24d843dc82769c1b04fcec26f55194c2e3e869acc6a9a61017a565b6107c08301526110107eef653322b13d6c889bc81715c37d77a6cd267d595c4a8909a5546c7c97cff161017a565b6107e083015261103f7f0e25483e45a665208b261d8ba74051e6400c776d652595d9845aca35d8a397d361017a565b61080083015261106e7f29f536dcb9dd7682245264659e15d88e395ac3d4dde92d8c46448db979eeba8961017a565b61082083015261109d7f2a56ef9f2c53febadfda33575dbdbd885a124e2780bbea170e456baace0fa5be61017a565b6108408301526110cc7f1c8361c78eb5cf5decfb7a2d17b5c409f2ae2999a46762e8ee416240a8cb9af161017a565b6108608301526110fb7f151aff5f38b20a0fc0473089aaf0206b83e8e68a764507bfd3d0ab4be74319c561017a565b61088083015261112a7f04c6187e41ed881dc1b239c88f7f9d43a9f52fc8c8b6cdd1e76e47615b51f10061017a565b6108a08301526111597f13b37bd80f4d27fb10d84331f6fb6d534b81c61ed15776449e801b7ddc9c296761017a565b6108c08301526111887f01a5c536273c2d9df578bfbd32c17b7a2ce3664c2a52032c9321ceb1c4e8a8e461017a565b6108e08301526111b77f2ab3561834ca73835ad05f5d7acb950b4a9a2c666b9726da832239065b7c3b0261017a565b6109008301526111e67f1d4d8ec291e720db200fe6d686c0d613acaf6af4e95d3bf69f7ed516a597b64661017a565b6109208301526112157f041294d2cc484d228f5784fe7919fd2bb925351240a04b711514c9c80b65af1d61017a565b6109408301526112447f154ac98e01708c611c4fa715991f004898f57939d126e392042971dd90e81fc661017a565b6109608301526112737f0b339d8acca7d4f83eedd84093aef51050b3684c88f8b0b04524563bc6ea4da461017a565b6109808301526112a27f0955e49e6610c94254a4f84cfbab344598f0e71eaff4a7dd81ed95b50839c82e61017a565b6109a08301526112d17f06746a6156eba54426b9e22206f15abca9a6f41e6f535c6f3525401ea065462661017a565b6109c08301526113007f0f18f5a0ecd1423c496f3820c549c27838e5790e2bd0a196ac917c7ff32077fb61017a565b6109e083015261132f7f04f6eeca1751f7308ac59eff5beb261e4bb563583ede7bc92a738223d6f76e1361017a565b610a0083015261135e7f2b56973364c4c4f5c1a3ec4da3cdce038811eb116fb3e45bc1768d26fc0b375861017a565b610a2083015261138d7f123769dd49d5b054dcd76b89804b1bcb8e1392b385716a5d83feb65d437f29ef61017a565b610a408301526113bc7f2147b424fc48c80a88ee52b91169aacea989f6446471150994257b2fb01c63e961017a565b610a608301526113eb7f0fdc1f58548b85701a6c5505ea332a29647e6f34ad4243c2ea54ad897cebe54d61017a565b610a8083015261141a7f12373a8251fea004df68abcf0f7786d4bceff28c5dbbe0c3944f685cc0a0b1f261017a565b610aa08301526114497f21e4f4ea5f35f85bad7ea52ff742c9e8a642756b6af44203dd8a1f35c1a9003561017a565b610ac08301526114787f16243916d69d2ca3dfb4722224d4c462b57366492f45e90d8a81934f1bc3b14761017a565b610ae08301526114a77f1efbe46dd7a578b4f66f9adbc88b4378abc21566e1a0453ca13a4159cac04ac261017a565b610b008301526114d67f07ea5e8537cf5dd08886020e23a7f387d468d5525be66f853b672cc96a88969a61017a565b610b208301526115057f05a8c4f9968b8aa3b7b478a30f9a5b63650f19a75e7ce11ca9fe16c0b76c00bc61017a565b610b408301526115347f20f057712cc21654fbfe59bd345e8dac3f7818c701b9c7882d9d57b72a32e83f61017a565b610b608301526115637f04a12ededa9dfd689672f8c67fee31636dcd8e88d01d49019bd90b33eb33db6961017a565b610b808301526115927f27e88d8c15f37dcee44f1e5425a51decbd136ce5091a6767e49ec9544ccd101a61017a565b610ba08301526115c17f2feed17b84285ed9b8a5c8c5e95a41f66e096619a7703223176c41ee433de4d161017a565b610bc08301526115f07f1ed7cc76edf45c7c404241420f729cf394e5942911312a0d6972b8bd53aff2b861017a565b610be083015261161f7f15742e99b9bfa323157ff8c586f5660eac6783476144cdcadf2874be45466b1a61017a565b610c0083015261164e7f1aac285387f65e82c895fc6887ddf40577107454c6ec0317284f033f27d0c78561017a565b610c2083015261167d7f25851c3c845d4790f9ddadbdb6057357832e2e7a49775f71ec75a96554d67c7761017a565b610c408301526116ac7f15a5821565cc2ec2ce78457db197edf353b7ebba2c5523370ddccc3d9f146a6761017a565b610c608301526116db7f2411d57a4813b9980efa7e31a1db5966dcf64f36044277502f15485f28c7172761017a565b610c808301526117097e2e6f8d6520cd4713e335b8c0b6d2e647e9a98e12f4cd2558828b5ef6cb4c9b61017a565b610ca08301526117387f2ff7bc8f4380cde997da00b616b0fcd1af8f0e91e2fe1ed7398834609e0315d261017a565b610cc08301526117667eb9831b948525595ee02724471bcd182e9521f6b7bb68f1e93be4febb0d3cbe61017a565b610ce08301526117957f0a2f53768b8ebf6a86913b0e57c04e011ca408648a4743a87d77adbf0c9c351261017a565b610d008301526117c37e248156142fd0373a479f91ff239e960f599ff7e94be69b7f2a290305e1198d61017a565b610d208301526117f27f171d5620b87bfb1328cf8c02ab3f0c9a397196aa6a542c2350eb512a2b2bcda961017a565b610d408301526118217f170a4f55536f7dc970087c7c10d6fad760c952172dd54dd99d1045e4ec34a80861017a565b610d608301526118507f29aba33f799fe66c2ef3134aea04336ecc37e38c1cd211ba482eca17e2dbfae161017a565b610d8083015261187f7f1e9bc179a4fdd758fdd1bb1945088d47e70d114a03f6a0e8b5ba650369e6497361017a565b610da08301526118ae7f1dd269799b660fad58f7f4892dfb0b5afeaad869a9c4b44f9c9e1c43bdaf8f0961017a565b610dc08301526118dd7f22cdbc8b70117ad1401181d02e15459e7ccd426fe869c7c95d1dd2cb0f24af3861017a565b610de083015261190c7f0ef042e454771c533a9f57a55c503fcefd3150f52ed94a7cd5ba93b9c7dacefd61017a565b610e0083015261193b7f11609e06ad6c8fe2f287f3036037e8851318e8b08a0359a03b304ffca62e828461017a565b610e2083015261196a7f1166d9e554616dba9e753eea427c17b7fecd58c076dfe42708b08f5b783aa9af61017a565b610e408301526119997f2de52989431a859593413026354413db177fbf4cd2ac0b56f855a888357ee46661017a565b610e608301526119c87f3006eb4ffc7a85819a6da492f3a8ac1df51aee5b17b8e89d74bf01cf5f71e9ad61017a565b610e808301526119f77f2af41fbb61ba8a80fdcf6fff9e3f6f422993fe8f0a4639f962344c822514508661017a565b610ea0830152611a267f119e684de476155fe5a6b41a8ebc85db8718ab27889e85e781b214bace4827c361017a565b610ec0830152611a557f1835b786e2e8925e188bea59ae363537b51248c23828f047cff784b97b3fd80061017a565b610ee0830152611a847f28201a34c594dfa34d794996c6433a20d152bac2a7905c926c40e285ab32eeb661017a565b610f00830152611ab37f083efd7a27d1751094e80fefaf78b000864c82eb571187724a761f88c22cc4e761017a565b610f20830152611ae27f0b6f88a3577199526158e61ceea27be811c16df7774dd8519e079564f61fd13b61017a565b610f40830152611b117f0ec868e6d15e51d9644f66e1d6471a94589511ca00d29e1014390e6ee4254f5b61017a565b610f60830152611b407f2af33e3f866771271ac0c9b3ed2e1142ecd3e74b939cd40d00d937ab84c9859161017a565b610f80830152611b6f7f0b520211f904b5e7d09b5d961c6ace7734568c547dd6858b364ce5e47951f17861017a565b610fa0830152611b9e7f0b2d722d0919a1aad8db58f10062a92ea0c56ac4270e822cca228620188a1d4061017a565b610fc0830152611bcd7f1f790d4d7f8cf094d980ceb37c2453e957b54a9991ca38bbe0061d1ed6e562d461017a565b610fe0830152611bfc7f0171eb95dfbf7d1eaea97cd385f780150885c16235a2a6a8da92ceb01e50423361017a565b611000830152611c2b7f0c2d0e3b5fd57549329bf6885da66b9b790b40defd2c8650762305381b16887361017a565b611020830152611c5a7f1162fb28689c27154e5a8228b4e72b377cbcafa589e283c35d3803054407a18d61017a565b611040830152611c897f2f1459b65dee441b64ad386a91e8310f282c5a92a89e19921623ef8249711bc061017a565b611060830152611cb87f1e6ff3216b688c3d996d74367d5cd4c1bc489d46754eb712c243f70d1b53cfbb61017a565b611080830152611ce77f01ca8be73832b8d0681487d27d157802d741a6f36cdc2a0576881f932647887561017a565b6110a0830152611d167f1f7735706ffe9fc586f976d5bdf223dc680286080b10cea00b9b5de315f9650e61017a565b6110c0830152611d457f2522b60f4ea3307640a0c2dce041fba921ac10a3d5f096ef4745ca838285f01961017a565b6110e0830152611d747f23f0bee001b1029d5255075ddc957f833418cad4f52b6c3f8ce16c235572575b61017a565b611100830152611da37f2bc1ae8b8ddbb81fcaac2d44555ed5685d142633e9df905f66d9401093082d5961017a565b611120830152611dd27f0f9406b8296564a37304507b8dba3ed162371273a07b1fc98011fcd6ad72205f61017a565b611140830152611e017f2360a8eb0cc7defa67b72998de90714e17e75b174a52ee4acb126c8cd995f0a861017a565b611160830152611e307f15871a5cddead976804c803cbaef255eb4815a5e96df8b006dcbbc2767f8894861017a565b611180830152611e5f7f193a56766998ee9e0a8652dd2f3b1da0362f4f54f72379544f957ccdeefb420f61017a565b6111a0830152611e8e7f2a394a43934f86982f9be56ff4fab1703b2e63c8ad334834e4309805e777ae0f61017a565b6111c0830152611ebd7f1859954cfeb8695f3e8b635dcb345192892cd11223443ba7b4166e8876c0d14261017a565b6111e0830152611eec7f04e1181763050e58013444dbcb99f1902b11bc25d90bbdca408d3819f4fed32b61017a565b611200830152611f1b7f0fdb253dee83869d40c335ea64de8c5bb10eb82db08b5e8b1f5e5552bfd05f2361017a565b611220830152611f4a7f058cbe8a9a5027bdaa4efb623adead6275f08686f1c08984a9d7c5bae9b4f1c061017a565b611240830152611f797f1382edce9971e186497eadb1aeb1f52b23b4b83bef023ab0d15228b4cceca59a61017a565b611260830152611fa87f03464990f045c6ee0819ca51fd11b0be7f61b8eb99f14b77e1e6634601d9e8b561017a565b611280830152611fd77f23f7bfc8720dc296fff33b41f98ff83c6fcab4605db2eb5aaa5bc137aeb70a5861017a565b6112a08301526120067f0a59a158e3eec2117e6e94e7f0e9decf18c3ffd5e1531a9219636158bbaf62f261017a565b6112c08301526120357f06ec54c80381c052b58bf23b312ffd3ce2c4eba065420af8f4c23ed0075fd07b61017a565b6112e08301526120647f118872dc832e0eb5476b56648e867ec8b09340f7a7bcb1b4962f0ff9ed1f9d0161017a565b6113008301526120937f13d69fa127d834165ad5c7cba7ad59ed52e0b0f0e42d7fea95e1906b520921b161017a565b6113208301526120c27f169a177f63ea681270b1c6877a73d21bde143942fb71dc55fd8a49f19f10c77b61017a565b6113408301526120f17f04ef51591c6ead97ef42f287adce40d93abeb032b922f66ffb7e9a5a7450544d61017a565b6113608301526121207f256e175a1dc079390ecd7ca703fb2e3b19ec61805d4f03ced5f45ee6dd0f69ec61017a565b61138083015261214f7f30102d28636abd5fe5f2af412ff6004f75cc360d3205dd2da002813d3e2ceeb261017a565b6113a083015261217e7f10998e42dfcd3bbf1c0714bc73eb1bf40443a3fa99bef4a31fd31be182fcc79261017a565b6113c08301526121ad7f193edd8e9fcf3d7625fa7d24b598a1d89f3362eaf4d582efecad76f879e3686061017a565b6113e08301526121dc7f18168afd34f2d915d0368ce80b7b3347d1c7a561ce611425f2664d7aa51f0b5d61017a565b61140083015261220b7f29383c01ebd3b6ab0c017656ebe658b6a328ec77bc33626e29e2e95b33ea611161017a565b61142083015261223a7f10646d2f2603de39a1f4ae5e7771a64a702db6e86fb76ab600bf573f9010c71161017a565b6114408301526122697f0beb5e07d1b27145f575f1395a55bf132f90c25b40da7b3864d0242dcb1117fb61017a565b6114608301526122987f16d685252078c133dc0d3ecad62b5c8830f95bb2e54b59abdffbf018d96fa33661017a565b6114808301526122c77f0a6abd1d833938f33c74154e0404b4b40a555bbbec21ddfafd672dd62047f01a61017a565b6114a08301526122f67f1a679f5d36eb7b5c8ea12a4c2dedc8feb12dffeec450317270a6f19b34cf186061017a565b6114c08301526123257f0980fb233bd456c23974d50e0ebfde4726a423eada4e8f6ffbc7592e3f1b93d661017a565b6114e08301526123547f161b42232e61b84cbf1810af93a38fc0cece3d5628c9282003ebacb5c312c72b61017a565b6115008301526123837f0ada10a90c7f0520950f7d47a60d5e6a493f09787f1564e5d09203db47de1a0b61017a565b6115208301526123b27f1a730d372310ba82320345a29ac4238ed3f07a8a2b4e121bb50ddb9af407f45161017a565b6115408301526123e17f2c8120f268ef054f817064c369dda7ea908377feaba5c4dffbda10ef58e8c55661017a565b6115608301526124107f1c7c8824f758753fa57c00789c684217b930e95313bcb73e6e7b8649a4968f7061017a565b61158083015261243f7f2cd9ed31f5f8691c8e39e4077a74faa0f400ad8b491eb3f7b47b27fa3fd1cf7761017a565b6115a083015261246e7f23ff4f9d46813457cf60d92f57618399a5e022ac321ca550854ae23918a22eea61017a565b6115c083015261249d7f09945a5d147a4f66ceece6405dddd9d0af5a2c5103529407dff1ea58f180426d61017a565b6115e08301526124cc7f188d9c528025d4c2b67660c6b771b90f7c7da6eaa29d3f268a6dd223ec6fc63061017a565b6116008301526124fb7f3050e37996596b7f81f68311431d8734dba7d926d3633595e0c0d8ddf4f0f47f61017a565b61162083015261252a7f15af1169396830a91600ca8102c35c426ceae5461e3f95d89d829518d30afd7861017a565b6116408301526125597f1da6d09885432ea9a06d9f37f873d985dae933e351466b2904284da3320d8acc61017a565b6116608301526125887f2796ea90d269af29f5f8acf33921124e4e4fad3dbe658945e546ee411ddaa9cb61017a565b6116808301526125b77f202d7dd1da0f6b4b0325c8b3307742f01e15612ec8e9304a7cb0319e01d32d6061017a565b6116a08301526125e67f096d6790d05bb759156a952ba263d672a2d7f9c788f4c831a29dace4c0f8be5f61017a565b6116c08301526126157f054efa1f65b0fce283808965275d877b438da23ce5b13e1963798cb1447d25a461017a565b6116e08301526126447f1b162f83d917e93edb3308c29802deb9d8aa690113b2e14864ccf6e18e4165f161017a565b6117008301526126737f21e5241e12564dd6fd9f1cdd2a0de39eedfefc1466cc568ec5ceb745a0506edc61017a565b6117208301526126a27f1cfb5662e8cf5ac9226a80ee17b36abecb73ab5f87e161927b4349e10e4bdf0861017a565b6117408301526126d17f0f21177e302a771bbae6d8d1ecb373b62c99af346220ac0129c53f666eb2410061017a565b6117608301526127007f1671522374606992affb0dd7f71b12bec4236aede6290546bcef7e1f515c232061017a565b61178083015261272f7f0fa3ec5b9488259c2eb4cf24501bfad9be2ec9e42c5cc8ccd419d2a692cad87061017a565b6117a083015261275e7f193c0e04e0bd298357cb266c1506080ed36edce85c648cc085e8c57b1ab54bba61017a565b6117c083015261278d7f102adf8ef74735a27e9128306dcbc3c99f6f7291cd406578ce14ea2adaba68f861017a565b6117e08301526127bc7f0fe0af7858e49859e2a54d6f1ad945b1316aa24bfbdd23ae40a6d0cb70c3eab161017a565b6118008301526127eb7f216f6717bbc7dedb08536a2220843f4e2da5f1daa9ebdefde8a5ea7344798d2261017a565b61182083015261281a7f1da55cc900f0d21f4a3e694391918a1b3c23b2ac773c6b3ef88e2e422832516161017a565b61184083015260028061282c8161017a565b821461283790610187565b6001916128438361017a565b61284c916101f1565b9082612858600361016e565b9260006128648161017a565b9761286f8987840152565b6128798989610219565b5160208701526128888461017a565b6128929089610219565b5160408701526128a2600361016e565b976128ad8a848b0152565b6128b78a82610219565b5160208a01526128c68561017a565b6128cf91610219565b5160408901526128de82610230565b935b6128fd575b505050505050506100ff916128f991610278565b5190565b612905610254565b61290d61025e565b61291a6100ff82846101f1565b61292387610268565b1015612c52578a8961293486610230565b905b612bcb575b5061295461294f6128f9612961938c610278565b612ce8565b61295e8d8b610278565b52565b6129766100ff6129708961017a565b846102da565b61297f87610268565b10918215612b98575b5050612b45575b6129976102e9565b936129a56128f98b89610278565b6129ad61029b565b9586156102e4576129bc610312565b6129d16128f96129cb8d61017a565b8c610278565b88156102e45788156102e45789926129fd6128f98d6129f76129f161033b565b9761017a565b90610278565b938a156102e4578a156102e457612a28958b80969481809681950996099209080861295e8c8c610278565b612a30610364565b612a3d6128f98c8a610278565b9086156102e457612a4c61038d565b612a5b6128f96129cb8d61017a565b88156102e45788156102e4578992612a7b6128f98d6129f76129f16103b6565b938a156102e4578a156102e457612aa8958b80969481809681950996099209080861295e6129cb8b61017a565b612ab06103df565b90612abe6128f98c8a610278565b9186156102e457612acd610408565b96612add6128f96129cb8d61017a565b9781156102e45781156102e4578998612b046128f98d6129f7612afe610431565b9d61017a565b9383156102e45783156102e45783612b3f978f9c829483612b3a9981930996099209080861295e612b348a61017a565b8d610278565b610243565b936128e0565b8680612b508161017a565b905b612b5e575b505061298f565b84811015612b935780612b87612b7d61294f6128f9612b8d958d610278565b61295e838c610278565b60010190565b81612b52565b612b57565b612bb9925090612bb46100ff92612bae8a61017a565b906102da565b6101f1565b612bc285610268565b10153880612988565b9086612bd683610268565b1015612c4c5750612bec6128f9612b3483610268565b90612c1d6128f9612c17612c088a612c038d610268565b610280565b612c1185610268565b906101f1565b87610293565b90612c2661029b565b9283156102e4578c93612c4593612b3a920861295e8d6129f785610268565b8c91612936565b9061293b565b50506128e5565b369037565b90610088612c74612c6e8461016e565b9361008a565b83612c59565b6100ff6002612c5e565b6100ff9061017a565b612ce390610127612cd06100ff94612ca3600090565b50612ccb612cb8612cb2612c7a565b95612c84565b61295e612cc5600061017a565b87610219565b612c84565b61295e612cdd600161017a565b84610219565b61017a565b612cf061029b565b9081156102e4578181800982156102e457808391099082156102e457099056fea26469706673582212203d4527bfa536df866ebc1bfd9060c0eb29b050efee796c019302f7c51c4ef2c964736f6c63430008190033",
  "linkReferences": {},
  "deployedLinkReferences": {}
}