{
  "_format": "hh-sol-artifact-1",
  "contractName": "L1Bridge",
  "sourceName": "contracts/ucl/L1Bridge.sol",
  "abi": [
    {
      "inputs": [
        {
          "internalType": "address",
          "name": "l1TMSCAddress",
          "type": "address"
        },
        {
          "internalType": "address",
          "name": "l1EVENTAddress",
          "type": "address"
        },
        {
          "internalType": "address",
          "name": "adminAddress",
          "type": "address"
        }
      ],
      "stateMutability": "nonpayable",
      "type": "constructor"
    },
    {
      "inputs": [
        {
          "internalType": "address",
          "name": "sender",
          "type": "address"
        },
        {
          "internalType": "contract IERC1155",
          "name": "token",
          "type": "address"
        },
        {
          "internalType": "uint256",
          "name": "tokenType",
          "type": "uint256"
        },
        {
          "internalType": "address",
          "name": "bankAdmin",
          "type": "address"
        },
        {
          "internalType": "address",
          "name": "recipient",
          "type": "address"
        },
        {
          "internalType": "uint256",
          "name": "amount",
          "type": "uint256"
        },
        {
          "internalType": "string",
          "name": "encryptedContent",
          "type": "string"
        }
      ],
      "name": "depositErc1155",
      "outputs": [
        {
          "internalType": "bool",
          "name": "",
          "type": "bool"
        }
      ],
      "stateMutability": "nonpayable",
      "type": "function"
    },
    {
      "inputs": [
        {
          "internalType": "address",
          "name": "sender",
          "type": "address"
        },
        {
          "internalType": "contract IERC20",
          "name": "token",
          "type": "address"
        },
        {
          "internalType": "address",
          "name": "bankAdmin",
          "type": "address"
        },
        {
          "internalType": "address",
          "name": "recipient",
          "type": "address"
        },
        {
          "internalType": "uint256",
          "name": "amount",
          "type": "uint256"
        },
        {
          "internalType": "string",
          "name": "encryptedContent",
          "type": "string"
        }
      ],
      "name": "depositErc20",
      "outputs": [
        {
          "internalType": "bool",
          "name": "",
          "type": "bool"
        }
      ],
      "stateMutability": "nonpayable",
      "type": "function"
    },
    {
      "inputs": [
        {
          "internalType": "string",
          "name": "bic",
          "type": "string"
        }
      ],
      "name": "getBankInfo",
      "outputs": [
        {
          "internalType": "string",
          "name": "rsaPk",
          "type": "string"
        },
        {
          "internalType": "string",
          "name": "bankName",
          "type": "string"
        },
        {
          "internalType": "address",
          "name": "bankAdmin",
          "type": "address"
        }
      ],
      "stateMutability": "view",
      "type": "function"
    },
    {
      "inputs": [
        {
          "internalType": "address",
          "name": "",
          "type": "address"
        },
        {
          "internalType": "address",
          "name": "",
          "type": "address"
        },
        {
          "internalType": "uint256[]",
          "name": "",
          "type": "uint256[]"
        },
        {
          "internalType": "uint256[]",
          "name": "",
          "type": "uint256[]"
        },
        {
          "internalType": "bytes",
          "name": "",
          "type": "bytes"
        }
      ],
      "name": "onERC1155BatchReceived",
      "outputs": [
        {
          "internalType": "bytes4",
          "name": "",
          "type": "bytes4"
        }
      ],
      "stateMutability": "nonpayable",
      "type": "function"
    },
    {
      "inputs": [
        {
          "internalType": "address",
          "name": "",
          "type": "address"
        },
        {
          "internalType": "address",
          "name": "",
          "type": "address"
        },
        {
          "internalType": "uint256",
          "name": "",
          "type": "uint256"
        },
        {
          "internalType": "uint256",
          "name": "",
          "type": "uint256"
        },
        {
          "internalType": "bytes",
          "name": "",
          "type": "bytes"
        }
      ],
      "name": "onERC1155Received",
      "outputs": [
        {
          "internalType": "bytes4",
          "name": "",
          "type": "bytes4"
        }
      ],
      "stateMutability": "nonpayable",
      "type": "function"
    },
    {
      "inputs": [
        {
          "internalType": "address",
          "name": "bankAdmin",
          "type": "address"
        },
        {
          "internalType": "string",
          "name": "rsaPk",
          "type": "string"
        },
        {
          "internalType": "string",
          "name": "bankName",
          "type": "string"
        },
        {
          "internalType": "string",
          "name": "bic",
          "type": "string"
        }
      ],
      "name": "registerBankInfo",
      "outputs": [],
      "stateMutability": "nonpayable",
      "type": "function"
    },
    {
      "inputs": [
        {
          "internalType": "bytes4",
          "name": "interfaceId",
          "type": "bytes4"
        }
      ],
      "name": "supportsInterface",
      "outputs": [
        {
          "internalType": "bool",
          "name": "",
          "type": "bool"
        }
      ],
      "stateMutability": "view",
      "type": "function"
    },
    {
      "inputs": [
        {
          "internalType": "address",
          "name": "newAdmin",
          "type": "address"
        }
      ],
      "name": "updateAdmin",
      "outputs": [],
      "stateMutability": "nonpayable",
      "type": "function"
    },
    {
      "stateMutability": "payable",
      "type": "receive"
    }
  ],
  "bytecode": "0x60806040523461002b5761001a6100146100df565b91610186565b6040516119d76101bf82396119d790f35b600080fd5b634e487b7160e01b600052604160045260246000fd5b90601f01601f191681019081106001600160401b0382111761006757604052565b610030565b9061008061007960405190565b9283610046565b565b6001600160a01b031690565b90565b6001600160a01b0381160361002b57565b9050519061008082610091565b909160608284031261002b5761008e6100c884846100a2565b9360406100d882602087016100a2565b94016100a2565b6100fd611b96803803806100f28161006c565b9283398101906100af565b909192565b90600019905b9181191691161790565b61008e61008e61008e9290565b9061012f61008e61013692610112565b8254610102565b9055565b61008e90610082906001600160a01b031682565b61008e9061013a565b61008e9061014e565b906001600160a01b0390610108565b9061017f61008e61013692610157565b8254610160565b6101b061008093926101a46101a96101b7946101a46000600361011f565b610157565b600061016f565b600161016f565b600261016f56fe6080604052600436101561001b575b361561001957600080fd5b005b60003560e01c806301ffc9a71461009b5780632dc97e29146100965780634f1ae9c41461009157806364dcfade1461008c578063bc197c8114610087578063c91037b214610082578063e2f273bd1461007d5763f23a6e610361000e5761065f565b610606565b6105d0565b61052b565b610407565b610351565b610274565b6100e2565b6001600160e01b031981165b036100b357565b600080fd5b905035906100c5826100a0565b565b906020828203126100b3576100db916100b8565b90565b9052565b346100b35761010f6100fd6100f83660046100c7565b61067e565b60405191829182901515815260200190565b0390f35b6001600160a01b031690565b6001600160a01b0381166100ac565b905035906100c58261011f565b634e487b7160e01b600052604160045260246000fd5b90601f01601f191681019081106001600160401b0382111761017257604052565b61013b565b906100c561018460405190565b9283610151565b6001600160401b03811161017257602090601f01601f19160190565b0190565b90826000939282370152565b909291926101cc6101c78261018b565b610177565b93818552818301116100b3576100c59160208501906101ab565b9080601f830112156100b3578160206100db933591016101b7565b906080828203126100b357610216818361012e565b9260208301356001600160401b0381116100b357826102369185016101e6565b9260408101356001600160401b0381116100b357836102569183016101e6565b9260608201356001600160401b0381116100b3576100db92016101e6565b346100b357610290610287366004610201565b92919091610bbc565b604051005b906020828203126100b35781356001600160401b0381116100b3576100db92016101e6565b60005b8381106102cd5750506000910152565b81810151838201526020016102bd565b6102fe6103076020936101a7936102f2815190565b80835293849260200190565b958691016102ba565b601f01601f191690565b9392906103416100c593610333604093606089019089820360008b01526102dd565b9087820360208901526102dd565b9401906001600160a01b03169052565b346100b35761010f61036c610367366004610295565b610cf2565b60405191939193849384610311565b806100ac565b905035906100c58261037b565b9060e0828203126100b3576103a3818361012e565b926103b1826020850161012e565b926103bf8360408301610381565b926103cd816060840161012e565b926103db826080850161012e565b926103e98360a08301610381565b9260c08201356001600160401b0381116100b3576100db92016101e6565b346100b35761010f6100fd61041d36600461038e565b95949094939193611080565b6001600160401b0381116101725760208091020190565b909291926104506101c782610429565b93818552602080860192028301928184116100b357915b8383106104745750505050565b602080916104828486610381565b815201920191610467565b9080601f830112156100b3578160206100db93359101610440565b91909160a0818403126100b3576104bf838261012e565b926104cd816020840161012e565b9260408301356001600160401b0381116100b357826104ed91850161048d565b9260608101356001600160401b0381116100b3578361050d91830161048d565b9260808201356001600160401b0381116100b3576100db92016101e6565b346100b35761010f61054a6105413660046104a8565b939290926110b7565b604051918291826001600160e01b0319909116815260200190565b9160c0838303126100b35761057a828461012e565b92610588836020830161012e565b92610596816040840161012e565b926105a4826060850161012e565b926105b28360808301610381565b9260a08201356001600160401b0381116100b3576100db92016101e6565b346100b35761010f6100fd6105e6366004610565565b949390939291926112af565b906020828203126100b3576100db9161012e565b346100b3576102906106193660046105f2565b6112e6565b91909160a0818403126100b357610635838261012e565b92610643816020840161012e565b926106518260408501610381565b9261050d8360608301610381565b346100b35761010f61054a61067536600461061e565b939290926112ef565b630271189760e51b6001600160e01b031982161490811561069d575090565b6100db91506001600160e01b0319166301ffc9a760e01b1490565b156106bf57565b60405162461bcd60e51b815260206004820152602260248201527f4f6e6c792061646d696e2063616e20706572666f726d2074686973206163746960448201526137b760f11b6064820152608490fd5b0390fd5b906100c59392916107396107326101136002546001600160a01b031690565b33146106b8565b610af9565b6100db6080610177565b6100db90610113906001600160a01b031682565b6100db90610748565b6100db9061075c565b9061077890610765565b600052602052604060002090565b634e487b7160e01b600052602260045260246000fd5b90600160028304921680156107bc575b60208310146107b757565b610786565b91607f16916107ac565b9160001960089290920291821b911b5b9181191691161790565b6100db6100db6100db9290565b91906107fe6100db610806936107e0565b9083546107c6565b9055565b6100c5916000916107ed565b818110610821575050565b8061082f600060019361080a565b01610816565b9190601f811161084457505050565b6108566100c593600052602060002090565b906020601f840181900483019310610878575b6020601f909101040190610816565b9091508190610869565b9061088b815190565b906001600160401b038211610172576108ae826108a8855461079c565b85610835565b602090601f83116001146108e9576108069291600091836108de575b5050600019600883021c1916906002021790565b0151905038806108ca565b601f198316916108fe85600052602060002090565b9260005b81811061093c57509160029391856001969410610923575b50505002019055565b01516000196008601f8516021c1916905538808061091a565b91936020600181928787015181550195019201610902565b906100c591610882565b906001600160a01b03906107d6565b9061097d6100db61080692610765565b825461095e565b60036109df60606100c5946109a361099d600083015190565b86610954565b6109ba6109b1602083015190565b60018701610954565b6109d16109c8604083015190565b60028701610954565b01516001600160a01b031690565b910161096d565b906100c591610984565b6101a7610a0892602092610a02815190565b94859290565b938491016102ba565b610a216101a791602094936109f0565b918252565b610a3b610a3260405190565b92839283610a11565b03902090565b6100db91610a26565b610a98610ab093610a7c610a826100db9795610a7c610a7c966c3d913130b735a730b6b2911d1160991b8152600d0190565b906109f0565b69111610113134b1911d1160b11b8152600a0190565b6b111610113939b0a835911d1160a11b8152600c0190565b61227d60f01b815260020190565b90610a216101c78361018b565b610ad56010610abe565b6f726567697374657242616e6b496e666f60801b602082015290565b6100db610acb565b91906100db6100c594610bad93610b49610b1161073e565b858152610b1f836020830152565b610b2a846040830152565b6001600160a01b0388166060820152610b4488600461076e565b6109e6565b610b87610b5461073e565b858152610b62836020830152565b610b6d846040830152565b6001600160a01b0388166060820152610b44846005610a41565b610ba1610b9360405190565b948593602085019384610a4a565b90810382520382610151565b90610bb6610af1565b90611397565b906100c5939291610713565b6100db905461079c565b15610bd957565b60405162461bcd60e51b815260206004820152603360248201527f42616e6b20696e666f206e6f7420666f756e642e20506c656173652063616c6c6044820152721039b2ba2130b735a4b73337903334b939ba1760691b6064820152608490fd5b80546000939291610c57610c4d8361079c565b8085529360200190565b9160018116908115610ca95750600114610c7057505050565b610c839192939450600052602060002090565b916000925b818410610c955750500190565b805484840152602090930192600101610c88565b92949550505060ff1916825215156020020190565b906100db91610c3a565b906100c5610ce292610cd960405190565b93848092610cbe565b0383610151565b6100db90610cc8565b600591610d26610d0f610d0a60006101a78688610a41565b610bc8565b610d20610d1c60006107e0565b9190565b11610bd2565b610d676003610d59610d436000610d3d8789610a41565b01610ce9565b94610d536001610d3d838a610a41565b96610a41565b01546001600160a01b031690565b91929190565b15610d7457565b60405162461bcd60e51b815260206004820152603660248201527f42616e6b20696e666f206e6f74207365742e20506c656173652063616c6c207260448201527532b3b4b9ba32b92130b735a4b73337903334b939ba1760511b6064820152608490fd5b906100db97969594939291610e0c610df9610d0a60006101a789600461076e565b610e06610d1c60006107e0565b11610d6d565b610f3f565b60009103126100b357565b6001600160a01b039182168152911660208201526100db9260a0820192610e509190610e49906040850152565b6060830152565b60808183039101526002815261060f60f31b602082015260400190565b6040513d6000823e3d90fd5b8015156100ac565b905051906100c582610e79565b906020828203126100b3576100db91610e81565b6100de90610765565b9194610eff610f0f92989795610eef60a096610ee86100c59a610ede60c08a019e60008b01906001600160a01b03169052565b6020890190610ea2565b6040870152565b6001600160a01b03166060850152565b6001600160a01b03166080830152565b0152565b610f1d600e610abe565b6d6465706f7369744572633131353560901b602082015290565b6100db610f13565b9694919095939650610f5081610765565b610f6a610f656000546001600160a01b031690565b610765565b90803b156100b357846000918793838b610fa0610f8660405190565b97889687958694637921219560e11b865260048601610e1c565b03925af196871561104f57610ff46020966000938b9a611054575b50610fd0610f6585546001600160a01b031690565b95610fda60405190565b9b8c9889978896631f19a8a560e21b885260048801610eab565b03925af192831561104f5760009361101e575b508261101257505090565b6100db91610bb6610f37565b61104191935060203d602011611048575b6110398183610151565b810190610e8e565b9138611007565b503d61102f565b610e6d565b61107390853d8711611079575b61106b8183610151565b810190610e11565b38610fbb565b503d611061565b6100db969594939291906000610dd8565b6110aa6110a46100db9263ffffffff1690565b60e01b90565b6001600160e01b03191690565b50505050506110c4600090565b506100db63bc197c81611091565b906100db9695949392916110f2610df9610d0a60006101a788600461076e565b61119e565b6001600160a01b039182168152911660208201526060810192916100c59160400152565b909594926100c594611164610f0f9261115460809661114a60a088019c60008901906001600160a01b03169052565b6020870190610ea2565b6001600160a01b03166040850152565b6001600160a01b03166060830152565b61117e600c610abe565b6b06465706f73697445726332360a41b602082015290565b6100db611174565b50929491939192916111f6916020826111b683610765565b6111cb610f656000546001600160a01b031690565b60006111d660405190565b8098819582946111ea6323b872dd60e01b90565b84528c600485016110f7565b03925af1801561104f576020948794600092611294575b50611249611225610f6584546001600160a01b031690565b9461122f60405190565b9a8b9788968795639151155960e01b87526004870161111b565b03925af192831561104f57600093611273575b508261126757505090565b6100db91610bb6611196565b61128d91935060203d602011611048576110398183610151565b913861125c565b6112aa90873d8911611048576110398183610151565b61120d565b6100db95949392919060006110d2565b6100c5906112db6107326101136002546001600160a01b031690565b6100c590600261096d565b6100c5906112bf565b50505050506112fc600090565b506100db63f23a6e61611091565b611356610ab093610a7c61133b6100db9795610a7c610a7c966b3d9132bb32b73a24b2111d1160a11b8152600c0190565b6e11161132bb32b73a2a3cb832911d1160891b8152600f0190565b6f111610113130b735a0b236b4b7111d1160811b815260100190565b60408082526100db939192611389918401906102dd565b9160208184039101526102dd565b6100db6113ca926113af6113a9611494565b93611501565b92610ba16113bc60405190565b94859360208501938461130a565b6113df610f656001546001600160a01b031690565b91823b156100b35761141792600092836113f860405190565b80968195829461140c6324a3c3bd60e01b90565b845260048401611372565b03925af1801561104f576114285750565b6100c590600061106b8183610151565b6100db9081565b6100db9054611438565b634e487b7160e01b600052601160045260246000fd5b600019811461146e5760010190565b611449565b90600019906107d6565b9061148d6100db610806926107e0565b8254611473565b6114b06114a96114a4600361143f565b61145f565b600361147d565b6100db6114bd600361143f565b611581565b6100db9081906001600160a01b031681565b6114e16100db6100db9290565b60ff1690565b6100db60146114d4565b6100db6100db6100db9260ff1690565b61151e6115196100db92611513606090565b5061075c565b6114c2565b61152e6115296114e7565b6114f1565b906116dc565b369037565b906100c561154f61154984610abe565b9361018b565b601f190160208401611534565b634e487b7160e01b600052601260045260246000fd5b811561157c570490565b61155c565b61158a816117ff565b9061159b6001926101a760016107e0565b91806115a684611539565b936020018401905b6115b9575b50505090565b811561160f576115f39060001901926f181899199a1a9b1b9c1cb0b131b232b360811b600a82061a84536115ed600a6107e0565b90611572565b9081611602610d1c60006107e0565b1461160f579091816115ae565b6115b3565b8181029291811591840414171561146e57565b9190820180921161146e57565b634e487b7160e01b600052603260045260246000fd5b90611653825190565b811015611661570160200190565b611634565b801561146e576000190190565b6100db90611687610d1c6100db9460ff1690565b901c90565b1561169357565b60405162461bcd60e51b81528061070f600482016020808252818101527f537472696e67733a20686578206c656e67746820696e73756666696369656e74604082015260600190565b90919061170d6117086116f8856116f360026107e0565b611614565b61170260026107e0565b90611627565b611539565b906000603061172461171e836107e0565b8561164a565b53600f60fb1b61175d6117546001978893851a611749611743866107e0565b8961164a565b536116f360026107e0565b611702836107e0565b905b611781575b506100db9394509061177b610d1c6100db936107e0565b1461168c565b9161178b866107e0565b8311156117f9576f181899199a1a9b1b9c1cb0b131b232b360811b6117b0600f6107e0565b82169060108210156116615787926117d06117ed926117f3941a60f81b90565b851a6117dc878961164a565b536117e760046114d4565b90611673565b93611666565b9061175f565b91611764565b61180960006107e0565b907a184f03e93ff9f4daa797ed6e38ed64bf6a1f01000000000000000061182f816107e0565b82101561197f575b506d04ee2d6d415b85acef8100000000611850816107e0565b82101561195d575b50662386f26fc1000061186a816107e0565b82101561193b575b506305f5e100611881816107e0565b821015611919575b50612710611896816107e0565b8210156118f7575b506118a960646107e0565b8110156118d5575b6118be610d1c600a6107e0565b10156118c75790565b6100db906101a760016107e0565b6118e66118f1916115ed60646107e0565b916101a760026107e0565b906118b1565b611912916115ed611907926107e0565b916101a760046107e0565b903861189e565b611934916115ed611929926107e0565b916101a760086107e0565b9038611889565b611956916115ed61194b926107e0565b916101a760106107e0565b9038611872565b611978916115ed61196d926107e0565b916101a760206107e0565b9038611858565b61199a916115ed61198f926107e0565b916101a760406107e0565b903861183756fea26469706673582212203d5621b958d60ca7601a695eb74c7474c64dfc74005f5b1d89421a8a9d473ba964736f6c63430008190033",
  "linkReferences": {},
  "deployedLinkReferences": {}
}