{
  "_format": "hh-sol-artifact-1",
  "contractName": "Grumpkin",
  "sourceName": "contracts/ucl/curves/blocks/grumpkin/Grumpkin.sol",
  "abi": [
    {
      "inputs": [],
      "name": "B",
      "outputs": [
        {
          "internalType": "uint256",
          "name": "",
          "type": "uint256"
        }
      ],
      "stateMutability": "view",
      "type": "function"
    },
    {
      "inputs": [],
      "name": "Identity",
      "outputs": [
        {
          "components": [
            {
              "internalType": "uint256",
              "name": "x",
              "type": "uint256"
            },
            {
              "internalType": "uint256",
              "name": "y",
              "type": "uint256"
            }
          ],
          "internalType": "struct Grumpkin.GrumpkinAffinePoint",
          "name": "",
          "type": "tuple"
        }
      ],
      "stateMutability": "pure",
      "type": "function"
    },
    {
      "inputs": [],
      "name": "P_MOD",
      "outputs": [
        {
          "internalType": "uint256",
          "name": "",
          "type": "uint256"
        }
      ],
      "stateMutability": "view",
      "type": "function"
    },
    {
      "inputs": [],
      "name": "R_MOD",
      "outputs": [
        {
          "internalType": "uint256",
          "name": "",
          "type": "uint256"
        }
      ],
      "stateMutability": "view",
      "type": "function"
    },
    {
      "inputs": [
        {
          "components": [
            {
              "internalType": "uint256",
              "name": "x",
              "type": "uint256"
            },
            {
              "internalType": "uint256",
              "name": "y",
              "type": "uint256"
            }
          ],
          "internalType": "struct Grumpkin.GrumpkinAffinePoint",
          "name": "p1",
          "type": "tuple"
        },
        {
          "components": [
            {
              "internalType": "uint256",
              "name": "x",
              "type": "uint256"
            },
            {
              "internalType": "uint256",
              "name": "y",
              "type": "uint256"
            }
          ],
          "internalType": "struct Grumpkin.GrumpkinAffinePoint",
          "name": "p2",
          "type": "tuple"
        }
      ],
      "name": "add",
      "outputs": [
        {
          "components": [
            {
              "internalType": "uint256",
              "name": "x",
              "type": "uint256"
            },
            {
              "internalType": "uint256",
              "name": "y",
              "type": "uint256"
            }
          ],
          "internalType": "struct Grumpkin.GrumpkinAffinePoint",
          "name": "",
          "type": "tuple"
        }
      ],
      "stateMutability": "view",
      "type": "function"
    },
    {
      "inputs": [
        {
          "internalType": "uint256",
          "name": "compressed",
          "type": "uint256"
        }
      ],
      "name": "decompress",
      "outputs": [
        {
          "components": [
            {
              "internalType": "uint256",
              "name": "x",
              "type": "uint256"
            },
            {
              "internalType": "uint256",
              "name": "y",
              "type": "uint256"
            }
          ],
          "internalType": "struct Grumpkin.GrumpkinAffinePoint",
          "name": "",
          "type": "tuple"
        }
      ],
      "stateMutability": "view",
      "type": "function"
    },
    {
      "inputs": [
        {
          "components": [
            {
              "internalType": "uint256",
              "name": "x",
              "type": "uint256"
            },
            {
              "internalType": "uint256",
              "name": "y",
              "type": "uint256"
            }
          ],
          "internalType": "struct Grumpkin.GrumpkinAffinePoint",
          "name": "point",
          "type": "tuple"
        }
      ],
      "name": "double",
      "outputs": [
        {
          "components": [
            {
              "internalType": "uint256",
              "name": "x",
              "type": "uint256"
            },
            {
              "internalType": "uint256",
              "name": "y",
              "type": "uint256"
            }
          ],
          "internalType": "struct Grumpkin.GrumpkinAffinePoint",
          "name": "",
          "type": "tuple"
        }
      ],
      "stateMutability": "view",
      "type": "function"
    },
    {
      "inputs": [
        {
          "components": [
            {
              "internalType": "uint256",
              "name": "x",
              "type": "uint256"
            },
            {
              "internalType": "uint256",
              "name": "y",
              "type": "uint256"
            }
          ],
          "internalType": "struct Grumpkin.GrumpkinAffinePoint",
          "name": "point",
          "type": "tuple"
        }
      ],
      "name": "is_identity",
      "outputs": [
        {
          "internalType": "bool",
          "name": "",
          "type": "bool"
        }
      ],
      "stateMutability": "pure",
      "type": "function"
    },
    {
      "inputs": [
        {
          "components": [
            {
              "internalType": "uint256",
              "name": "x",
              "type": "uint256"
            },
            {
              "internalType": "uint256",
              "name": "y",
              "type": "uint256"
            }
          ],
          "internalType": "struct Grumpkin.GrumpkinAffinePoint[]",
          "name": "bases",
          "type": "tuple[]"
        },
        {
          "internalType": "uint256[]",
          "name": "scalars",
          "type": "uint256[]"
        }
      ],
      "name": "multiScalarMul",
      "outputs": [
        {
          "components": [
            {
              "internalType": "uint256",
              "name": "x",
              "type": "uint256"
            },
            {
              "internalType": "uint256",
              "name": "y",
              "type": "uint256"
            }
          ],
          "internalType": "struct Grumpkin.GrumpkinAffinePoint",
          "name": "r",
          "type": "tuple"
        }
      ],
      "stateMutability": "view",
      "type": "function"
    },
    {
      "inputs": [
        {
          "components": [
            {
              "internalType": "uint256",
              "name": "x",
              "type": "uint256"
            },
            {
              "internalType": "uint256",
              "name": "y",
              "type": "uint256"
            }
          ],
          "internalType": "struct Grumpkin.GrumpkinAffinePoint",
          "name": "point",
          "type": "tuple"
        }
      ],
      "name": "negate",
      "outputs": [
        {
          "components": [
            {
              "internalType": "uint256",
              "name": "x",
              "type": "uint256"
            },
            {
              "internalType": "uint256",
              "name": "y",
              "type": "uint256"
            }
          ],
          "internalType": "struct Grumpkin.GrumpkinAffinePoint",
          "name": "",
          "type": "tuple"
        }
      ],
      "stateMutability": "pure",
      "type": "function"
    },
    {
      "inputs": [
        {
          "components": [
            {
              "internalType": "uint256",
              "name": "x",
              "type": "uint256"
            },
            {
              "internalType": "uint256",
              "name": "y",
              "type": "uint256"
            }
          ],
          "internalType": "struct Grumpkin.GrumpkinAffinePoint",
          "name": "point",
          "type": "tuple"
        },
        {
          "internalType": "uint256",
          "name": "scalar",
          "type": "uint256"
        }
      ],
      "name": "scalarMul",
      "outputs": [
        {
          "components": [
            {
              "internalType": "uint256",
              "name": "x",
              "type": "uint256"
            },
            {
              "internalType": "uint256",
              "name": "y",
              "type": "uint256"
            }
          ],
          "internalType": "struct Grumpkin.GrumpkinAffinePoint",
          "name": "",
          "type": "tuple"
        }
      ],
      "stateMutability": "view",
      "type": "function"
    }
  ],
  "bytecode": "0x608060405234601f576040516119b261002582393081600701526119b290f35b600080fdfe6080604052307f00000000000000000000000000000000000000000000000000000000000000001415600436101561003657600080fd5b60003560e01c9081630a07c2e714610116578163124eaee61461011157816313bc64ee1461010c5781631d712e27146101075781632ffa89561461010257816332e7c5bf146100fd57816337767917146100f4578163432c2cda146100ef578163433e4e6b146100e557508063713b60c6146100e057806399922b4a146100db578063c9f32268146100d65763df6e6cb4146100d157600080fd5b610558565b610511565b6104fa565b6104c7565b61048d575b600080fd5b610443565b61042c57600080fd5b610416565b6103ce565b610279565b610225565b6101ff565b6101ce565b634e487b7160e01b600052604160045260246000fd5b90601f01601f1916810190811067ffffffffffffffff82111761015357604052565b61011b565b9061016c61016560405190565b9283610131565b565b91906040838203126100ea5761019690602061018a6040610158565b94803586520190503590565b6020830152565b906040828203126100ea576101b19161016e565b90565b60408101929161016c919080518252602090810151910152565b6101f06101e46101df36600461019d565b6105ee565b604051918291826101b4565b0390f35b60009103126100ea57565b61020a3660046101f4565b6101f06101e4610639565b906020828203126100ea57503590565b6101f06101e4610236366004610215565b6106f3565b6101b16101b16101b19290565b6101b17f30644e72e131a029b85045b68181585d97816a916871ca8d3c208c16d87cfd4761023b565b6101b1610248565b6102843660046101f4565b6101f061028f610271565b6040519182918290815260200190565b67ffffffffffffffff81116101535760208091020190565b909291926102cc6102c78261029f565b610158565b9381855260406020860192028301928184116100ea57915b8383106102f15750505050565b6020604091610300848661016e565b8152019201916102e4565b9080601f830112156100ea578160206101b1933591016102b7565b909291926103366102c78261029f565b93818552602080860192028301928184116100ea57915b83831061035a5750505050565b823581526020928301920161034d565b9080601f830112156100ea578160206101b193359101610326565b9190916040818403126100ea57803567ffffffffffffffff81116100ea57836103af91830161030b565b92602082013567ffffffffffffffff81116100ea576101b1920161036a565b6101f06101e46103df366004610385565b90610938565b6101b17f30644e72e131a029b85045b68181585d2833e84879b9709143e1f593effffff061023b565b6101b16103e5565b6104213660046101f4565b6101f061028f61040e565b6101f06101e461043d366004610385565b90610a8b565b6101f061045961045436600461019d565b610dc1565b60405191829182901515815260200190565b90916060828403126100ea576101b1823593604060208501355b940190503590565b6101f061028f61049e36600461046b565b91610e1b565b91906080838203126100ea576101b19060406104c0828661016e565b940161016e565b6101f06101e46104d83660046104a4565b90610e95565b91906060838203126100ea576101b1906040610485828661016e565b6101f06101e461050b3660046104de565b906115b7565b6101f06101e461052236600461019d565b6116a5565b6101b17f30644e72e131a029b85045b68181585d2833e84879b9709143e1f593f000000161023b565b6101b1610527565b6105633660046101f4565b6101f061028f610550565b6101b16040610158565b61058061056e565b906000825260006020830152565b6101b1610578565b634e487b7160e01b600052601260045260246000fd5b906105b6565b9190565b9081156105c1570690565b610596565b634e487b7160e01b600052601160045260246000fd5b919082039182116105e957565b6105c6565b6105f661058e565b506101b1610629602061062361060a855190565b9461061e610616610248565b938492015190565b6105ac565b906105dc565b61019661063461056e565b938452565b61064161058e565b5061064a61056e565b6101b1610657600061023b565b610196818452565b634e487b7160e01b600052603260045260246000fd5b6106856101b16101b19260ff1690565b60ff1690565b6101b19060f81c610675565b6106856101b16101b19290565b610685906106bf6106b86101b19460ff1690565b9160ff1690565b901c90565b906020828203126100ea57505190565b90815260408101929161016c9160200152565b6040513d6000823e3d90fd5b6106fb61058e565b506107058161023b565b6000916107118361023b565b9160208310156108c55761072e90831a60f81b61068b565b61068b565b9161074261073c6007610697565b846106a4565b9260208210156108c5576107609061075a6006610697565b906106a4565b9261076b6001610697565b9384169261077f6001600160fe1b0361023b565b1691821490816108b0575b506108a45761080592602061079d610527565b807f30644e72e131a029b85045b68181585d2833e84879b9709143e1f593effffff0818681818009090873__$b6e0a5c375b77fd7e15159ad263ec833e4$__906107e660405190565b8098819482936107fa6394be798660e01b90565b8452600484016106d4565b03915af490811561089f576101b19460009261086e575b5061083f82948261083761083060ff61023b565b8616610697565b161860ff1690565b14610858575b506101969061085261056e565b94850152565b61019691925061086790611826565b9190610845565b61089191925060203d602011610898575b6108898183610131565b8101906106c4565b903861081c565b503d61087f565b6106e7565b505050506101b1610639565b90506108be6106b886610697565b143861078a565b61065f565b156108d157565b60405162461bcd60e51b81528061091a600482016020808252818101527f4d534d206572726f723a206c656e67746820646f6573206e6f74206d61746368604082015260600190565b0390fd5b90610927825190565b8110156108c5576020809102010190565b919061094261058e565b5061096261094e825190565b61095c6105b26101b1875190565b146108ca565b61098d610978610972600061023b565b8561091e565b5161050b610989610972600061023b565b5190565b92600191829161099d600161023b565b935b6109aa575b50505050565b909192946109b96101b1845190565b8610156109f2576109e26109e9916104d86109d4898661091e565b5161050b6109898b8961091e565b9560010190565b9291908261099f565b946109a4565b6101b190610a096105b26101b19490565b901b90565b90610a1b6102c78361029f565b918252565b60005b828110610a2f57505050565b602090610a3a61058e565b8184015201610a23565b9061016c610a5a610a5484610a0e565b9361029f565b601f190160208401610a20565b81156105c1570490565b919082018092116105e957565b80156105e9576000190190565b610a9361058e565b50610aad610a9f835190565b61095c6105b26101b1855190565b8051610abc6105b2600461023b565b1015610d1a57610acc600161023b565b9092915b6001938491610ade8361023b565b90610afa610af583610af088826109f8565b6105dc565b610a44565b92610b03610639565b95610b2184610b1c83610b1761010061023b565b610a67565b610a71565b985b610b33575b509496505050505050565b6000610b3e8161023b565b8a1115610d145786610b4f8261023b565b905b610ceb575b508680610b628361023b565b905b610ca6575b5080610b748361023b565b905b610bfa575b5090610b85610639565b8751925b610ba5575b505050610b9d86979899610a7e565b989796610b23565b610bb182939a9261023b565b8a1115610bf25790610bec610be6610bdf8b9594610bd9610bd38f8d906105dc565b8d61091e565b51610e95565b8093610e95565b9a610a7e565b92610b89565b819950610b8e565b868c610c076101b1885190565b831015610c9f5790610c2e610c2082610c4895946105dc565b8761049e610989868d61091e565b8a610c388761023b565b8203610c4e575b50505060010190565b81610b76565b82610c7e610c6c610c8493610c66610c9697876105dc565b9061091e565b51610c77878d61091e565b5190610e95565b926105dc565b90610c8f828d61091e565b528a61091e565b5087388a610c3f565b5050610b7b565b610cb16101b1895190565b811015610ce657610ce090610cc4610639565b610cce828b61091e565b52610cd9818a61091e565b5060010190565b81610b64565b610b69565b9782891015610d0e57610d08610d0189926116a5565b9960010190565b90610b51565b97610b56565b50610b28565b8051610d296105b2602061023b565b1015610d4457610d39600361023b565b915b92919092610ad0565b610d88602073__$2551e0adbbdfd03ee49bf0ac0665077175$__835190610d6a60405190565b93849283918291635456bf1360e01b83526004830190815260200190565b03915af490811561089f57600091610da2575b5091610d3b565b610dbb915060203d602011610898576108898183610131565b38610d9b565b805190600091610dd36105b28461023b565b03610df35760200151610de86105b28361023b565b036101b15750600190565b5090565b818102929181159184041417156105e957565b6101b1906106bf6105b26101b19490565b81610e2e91610e28600090565b50610df7565b610e3961010061023b565b811015610e6657610e50610e60916101b194610e0a565b91610e5b600161023b565b6109f8565b906105ac565b5050506101b1600061023b565b369037565b9061016c610e88610a5484610a0e565b601f190160208401610e73565b90610e9e61058e565b50815190610eaa815190565b91610eb6602085015190565b90610ec2602084015190565b93600193610ecf8561023b565b908197610edb81610dc1565b8061157c575b61156b57610eee90610dc1565b611554575b610efc90610dc1565b611533575b610f13610f0e600661023b565b610e78565b90610f1c610527565b9687156105c1578784860998610f4360009a610f40610f3a8d61023b565b8761091e565b52565b88156105c157610f5c89838909610f40610f3a8b61023b565b88156105c1578881840992610f7f600294610f40610f798761023b565b8861091e565b89156105c1578988880895610fa2600397610f40610f9c8a61023b565b8961091e565b8a156105c1578a84820897610fc5600499610f40610fbf8c61023b565b8a61091e565b610fd4610989610f9c8a61023b565b610fe3610989610fbf8c61023b565b8d156105c1576109898f8f8f94610bd3610fbf938f8f90610f4061101792610c6661101c986110229c61098999099361023b565b61023b565b9361023b565b908d156105c15761103c918e9108610f40610fbf8c61023b565b61104b610989610f9c8a61023b565b61106861106361098961105d8d61023b565b8b61091e565b611826565b908d156105c157611082918e9108610f40610fbf8b61023b565b8b156105c1578b8361109b9208610f40610f9c8b61023b565b8a156105c157828b9108976110b8600599610f40610f9c8c61023b565b6110c7610989610f798a61023b565b6110d6610989610f9c8c61023b565b8c156105c157610f798e6110178f610f40610bd38f92610989976110fb99099261023b565b61110a610989610f9c8861023b565b908c156105c157611124918d9108610f40610f9c8c61023b565b611133610989610f798a61023b565b611145611063610989610fbf8d61023b565b908c156105c15761115f918d9108610f40610f9c8b61023b565b8a156105c157611178918b9108610f40610f3a8a61023b565b88156105c1578891086111906109896109728861023b565b88156105c1576111a991899109610f406109728861023b565b6111be6109896111b88861023b565b8461091e565b6111cd6109896109728461023b565b88156105c1578891086111f46111ee6109896111e88961023b565b8661091e565b91611826565b9088156105c15761120e91899108610f406109728861023b565b6112178861023b565b9461122f61122a6109896111e88561023b565b61183c565b88156105c157868991086112486109896111e88a61023b565b61125182611826565b8a156105c1578a91089061126a610989610f3a8b61023b565b908a156105c1578a91089289156105c157898483099061128d6109898a8861091e565b61129a6109898b8961091e565b908c156105c1576112b4918d9108610f40610f9c8d61023b565b6112c3610989610f798c61023b565b6112d06109898b8961091e565b908c156105c1576112ea918d9108610f40610f9c8d61023b565b6112fa89610f40610f9c8461023b565b61131b61130f61122a610989610fbf8c61023b565b610f40610f9c8b61023b565b61132a610989610f798c61023b565b611339610989610f9c8461023b565b908c156105c157611353918d9108610f40610f9c8d61023b565b6113606109898a8861091e565b611372611063610989610fbf8561023b565b908c156105c15761138c918d9108610f40610f9c8461023b565b61139c89610f40610f9c8461023b565b6113b4610989610f7961101c61098961105d8d61023b565b908b156105c1576113ce918c9108610f40610f798a61023b565b6113dd610989610f3a8b61023b565b6113ec610989610f798a61023b565b908b156105c157611404918c9109610f408a8861091e565b611411610989898761091e565b8a156105c1578a910895611433610989610f3a61101c610989610fbf8861023b565b908a156105c15761144b918b9109610f40898761091e565b61145a6109896111e88761023b565b9089156105c157899109611474611063610989898761091e565b9089156105c1576109728a61148e9361098993089661023b565b61149d6109896111e88a61023b565b9089156105c1576114bf926110178b610989946111b89409610f408b8961091e565b9087156105c157879109926114d7610989868461091e565b9680156105c157610989610196966111b88961151a610fbf610f406115126101b19f9b610c669a6115249a61152a9f9e6109899f08916118d5565b92909461023b565b610f40838861091e565b9561023b565b9161085261056e565b9550509250611542600061023b565b928361154d8461023b565b9495610f01565b93509150611562600061023b565b91928290610ef3565b5050505050505050506101b1610639565b5061158682610dc1565b610ee1565b6115aa906106bf61159c6101b19490565b916001600160f81b03191690565b6001600160f81b03191690565b916115c061058e565b506115d26115cc610639565b9261023b565b926000926115e0600061023b565b905b6020936115ee8561023b565b83101561169b576115fe8661023b565b915b61160a600861023b565b83101561168b5761161a906116a5565b9182868510156108c55785906116466107298b881a60f81b61164086610af0600761023b565b9061158b565b61165f6106b860019261165884610697565b1692610697565b14611671575b50506001015b91611600565b61166b9294509061168191610e95565b9290508438611665565b90945060019092019190506115e2565b9550935050505090565b6116ad61058e565b506116b781610dc1565b6101b1576116ce60206116c8835190565b92015190565b6116d6610527565b9182156105c1578281800983156105c15783838009916116f6600161023b565b9085156105c1578585820986156105c157808791089086156105c157808791089161172a611724600061023b565b9161183c565b87156105c15787910861173c81611826565b87156105c157879086089087156105c1578790860887156105c157879082099187156105c15761176f918891099261183c565b611779600061023b565b9061178382611826565b88156105c1575087156105c157879082089387156105c157878180089088156105c1578891089087156105c15787910886156105c1578387910986156105c1578691089385156105c157808691089185156105c157856117e4918409611826565b85156105c1578591089184156105c15784910983156105c157808491089183156105c1576101b193836118189408916118d5565b90919061019661063461056e565b6101b190610623611835610527565b80926105ac565b611844610527565b9081156105c1576118747f30644e72e131a029b85045b68181585d2833e84879b9709143e1f593efffffce61023b565b900990565b1561188057565b60405162461bcd60e51b815260206004820152602760248201527f5b4772756d706b696e3a3a746f5f616666696e655d2063616e277420696e76656044820152667274207a65726f60c81b6064820152608490fd5b90929190611932906118f26118ea600061023b565b841415611879565b602073__$b6e0a5c375b77fd7e15159ad263ec833e4$__93611912610527565b94859161191e60405190565b8096819482936107fa636d3b90b460e01b90565b03915af491821561089f5760009261195b575b5082156105c157818391099382156105c1570990565b61197591925060203d602011610898576108898183610131565b903861194556fea2646970667358221220132c37b8fa2d87e4e8e8c88c07f7cc8b858143c3cd0b54d9070687757f98fe1064736f6c63430008190033",
  "linkReferences": {
    "contracts/ucl/curves/Utilities.sol": {
      "CommonUtilities": [
        {
          "length": 20,
          "start": 3440
        }
      ],
      "Field": [
        {
          "length": 20,
          "start": 2030
        },
        {
          "length": 20,
          "start": 6427
        }
      ]
    }
  },
  "deployedLinkReferences": {
    "contracts/ucl/curves/Utilities.sol": {
      "CommonUtilities": [
        {
          "length": 20,
          "start": 3403
        }
      ],
      "Field": [
        {
          "length": 20,
          "start": 1993
        },
        {
          "length": 20,
          "start": 6390
        }
      ]
    }
  }
}