{
  "_format": "hh-sol-artifact-1",
  "contractName": "IdentityPolynomialLib",
  "sourceName": "contracts/ucl/curves/blocks/IdentityPolynomial.sol",
  "abi": [
    {
      "inputs": [
        {
          "internalType": "uint256[]",
          "name": "r",
          "type": "uint256[]"
        },
        {
          "internalType": "uint256",
          "name": "modulus",
          "type": "uint256"
        }
      ],
      "name": "evaluate",
      "outputs": [
        {
          "internalType": "uint256",
          "name": "",
          "type": "uint256"
        }
      ],
      "stateMutability": "pure",
      "type": "function"
    }
  ],
  "bytecode": "0x608060405234601d576040516102f36100238239308150506102f390f35b600080fdfe6080604052600436101561001257600080fd5b60003560e01c636bed008d0361009257610135565b634e487b7160e01b600052604160045260246000fd5b90601f01601f1916810190811067ffffffffffffffff82111761005f57604052565b610027565b9061007861007160405190565b928361003d565b565b67ffffffffffffffff811161005f5760208091020190565b600080fd5b909291926100ac6100a78261007a565b610064565b938185526020808601920283019281841161009257915b8383106100d05750505050565b82358152602092830192016100c3565b9080601f83011215610092578160206100fb93359101610097565b90565b91906040838203126100925782359067ffffffffffffffff821161009257602061012d826100fb9487016100e0565b940190503590565b61015c61014c6101463660046100fe565b9061021f565b6040519182918290815260200190565b0390f35b6100fb6100fb6100fb9290565b634e487b7160e01b600052601160045260246000fd5b9190820391821161019057565b61016d565b60ff81116101905760020a90565b6101b06100fb6100fb9290565b67ffffffffffffffff1690565b6100fb6100fb6100fb9267ffffffffffffffff1690565b634e487b7160e01b600052603260045260246000fd5b906101f3825190565b811015610204576020809102010190565b6101d4565b634e487b7160e01b600052601260045260246000fd5b919060009261022e6000610160565b935b61023b6100fb835190565b8510156102b75761027e61027961027461026f61025f8961025a885190565b610183565b6102696001610160565b90610183565b610195565b6101a3565b6101bd565b61028f61028b87856101ea565b5190565b84156102b25784910983156102b2576102ac918491089460010190565b93610230565b610209565b9350505056fea2646970667358221220646d616f5d71b7da5d03fc65f4d32d699aa0367b845c4b520a7adf5e1dd91a7464736f6c63430008190033",
  "linkReferences": {},
  "deployedLinkReferences": {}
}