{
  "_format": "hh-sol-artifact-1",
  "contractName": "ZkAsc",
  "sourceName": "contracts/ucl/image9/base/ZkAsc.sol",
  "abi": [
    {
      "inputs": [
        {
          "components": [
            {
              "internalType": "address",
              "name": "tokenContract",
              "type": "address"
            },
            {
              "internalType": "address",
              "name": "from",
              "type": "address"
            },
            {
              "internalType": "uint256",
              "name": "tokenId",
              "type": "uint256"
            },
            {
              "internalType": "address",
              "name": "toManager",
              "type": "address"
            },
            {
              "internalType": "address",
              "name": "to",
              "type": "address"
            }
          ],
          "internalType": "struct DVPCommitData[]",
          "name": "data",
          "type": "tuple[]"
        }
      ],
      "name": "commitDVP",
      "outputs": [],
      "stateMutability": "nonpayable",
      "type": "function"
    }
  ],
  "bytecode": "0x6080604052346019576040516106a461001f82396106a490f35b600080fdfe6080604052600436101561001257600080fd5b60003560e01c63957c5d12036100b3576101d9565b634e487b7160e01b600052604160045260246000fd5b90601f01601f1916810190811067ffffffffffffffff82111761005f57604052565b610027565b9061007861007160405190565b928361003d565b565b67ffffffffffffffff811161005f5760208091020190565b6001600160a01b031690565b90565b6001600160a01b0381165b036100b357565b600080fd5b90503590610078826100a1565b806100ac565b90503590610078826100c5565b919060a0838203126100b35761013d9060806100f460a0610064565b946100ff83826100b8565b865261010e83602083016100b8565b602087015261012083604083016100cb565b604087015261013283606083016100b8565b6060870152016100b8565b6080830152565b909291926101596101548261007a565b610064565b9381855260a06020860192028301928184116100b357915b83831061017e5750505050565b602060a09161018d84866100d8565b815201920191610171565b9080601f830112156100b35781602061009e93359101610144565b906020828203126100b357813567ffffffffffffffff81116100b35761009e9201610198565b346100b3576101f16101ec3660046101b3565b610343565b604051005b906102036101548361007a565b918252565b369037565b9061007861022361021d846101f6565b9361007a565b601f190160208401610208565b61009e61009e61009e9290565b634e487b7160e01b600052603260045260246000fd5b9061025c825190565b81101561026d576020809102010190565b61023d565b61009e90610092906001600160a01b031682565b61009e90610272565b61009e90610286565b8015156100ac565b9050519061007882610298565b906020828203126100b35761009e916102a0565b610300610078946102f06060949897956102e0608086019a6000870152565b6001600160a01b03166020850152565b6001600160a01b03166040830152565b01906001600160a01b03169052565b6040513d6000823e3d90fd5b60009103126100b357565b6001600160a01b0390911681526040810192916100789160200152565b600090610356610351825190565b61020d565b9060009361036385610230565b61036e61009e845190565b81101561048d5761039d610398610398886103898588610253565b5101516001600160a01b031690565b61028f565b60206103b460406103ae8588610253565b51015190565b916103c3826103898689610253565b906103d36060610389878a610253565b918a6103e46080610389898c610253565b9561040c6103f160405190565b978896879586946338babc1d60e11b5b8652600486016102c1565b03925af18015610488576104269160009161045c57501590565b610438575b600101610363565b610363565b935061043360016104548161044d8888610253565b9015159052565b94905061042b565b61047d915060203d8111610481575b610475818361003d565b8101906102ad565b1590565b503d61046b565b61030f565b509293919093600014610592576104a382610230565b6104ae61009e835190565b81101561058b576104c86104c28284610253565b51151590565b6104da575b6001016104a3565b6104a3565b6104ee61039861039885610389858a610253565b906104fe60206103898389610253565b61050d60406103ae848a610253565b833b156100b3576105439386928361052460405190565b80978195829461053863f25a3d1360e01b90565b845260048401610326565b03925af1918215610488576104d59261055f575b5090506104cd565b61057e90853d8711610584575b610576818361003d565b81019061031b565b38610557565b503d61056c565b5050509050565b5061059c81610230565b6105a761009e855190565b811015610668576105c2610398610398846103898589610253565b906105d260406103ae8388610253565b6105e160206103898489610253565b926105f16060610389858a610253565b906106016080610389868b610253565b94813b156100b35786809461062c61061860405190565b98899687958694638d09b6ef60e01b610401565b03925af1918215610488576106479261064c575b5060010190565b61059c565b61066290843d861161058457610576818361003d565b38610640565b5050905056fea2646970667358221220391d2ad5182f16e4e6d8274e87811b9006d0817501f514f7fc9a7a5692c7d0c064736f6c63430008190033",
  "linkReferences": {},
  "deployedLinkReferences": {}
}