{
  "_format": "hh-sol-artifact-1",
  "contractName": "PrimarySumcheck",
  "sourceName": "contracts/ucl/curves/blocks/Sumcheck.sol",
  "abi": [
    {
      "inputs": [
        {
          "components": [
            {
              "components": [
                {
                  "internalType": "uint256[]",
                  "name": "coeffs_except_linear_term",
                  "type": "uint256[]"
                }
              ],
              "internalType": "struct PolyLib.CompressedUniPoly[]",
              "name": "compressed_polys",
              "type": "tuple[]"
            }
          ],
          "internalType": "struct PolyLib.SumcheckProof",
          "name": "proof",
          "type": "tuple"
        },
        {
          "internalType": "uint256",
          "name": "claim",
          "type": "uint256"
        },
        {
          "internalType": "uint256",
          "name": "num_rounds",
          "type": "uint256"
        },
        {
          "internalType": "uint256",
          "name": "degree_bound",
          "type": "uint256"
        },
        {
          "components": [
            {
              "internalType": "uint16",
              "name": "round",
              "type": "uint16"
            },
            {
              "internalType": "uint8[]",
              "name": "state",
              "type": "uint8[]"
            },
            {
              "internalType": "uint8[]",
              "name": "transcript",
              "type": "uint8[]"
            }
          ],
          "internalType": "struct KeccakTranscriptLib.KeccakTranscript",
          "name": "transcript",
          "type": "tuple"
        }
      ],
      "name": "verify",
      "outputs": [
        {
          "internalType": "uint256",
          "name": "",
          "type": "uint256"
        },
        {
          "internalType": "uint256[]",
          "name": "",
          "type": "uint256[]"
        },
        {
          "components": [
            {
              "internalType": "uint16",
              "name": "round",
              "type": "uint16"
            },
            {
              "internalType": "uint8[]",
              "name": "state",
              "type": "uint8[]"
            },
            {
              "internalType": "uint8[]",
              "name": "transcript",
              "type": "uint8[]"
            }
          ],
          "internalType": "struct KeccakTranscriptLib.KeccakTranscript",
          "name": "",
          "type": "tuple"
        }
      ],
      "stateMutability": "pure",
      "type": "function"
    }
  ],
  "bytecode": "0x608060405234601d57604051610f90610023823930815050610f9090f35b600080fdfe6080604052600436101561001257600080fd5b60003560e01c63aaf001400361003557610336565b908160209103126100355790565b600080fd5b805b0361003557565b905035906100508261003a565b565b634e487b7160e01b600052604160045260246000fd5b90601f01601f191681019081106001600160401b0382111761008957604052565b610052565b9061005061009b60405190565b9283610068565b61ffff811661003c565b90503590610050826100a2565b6001600160401b0381116100895760208091020190565b60ff811661003c565b90503590610050826100d0565b909291926100fb6100f6826100b9565b61008e565b938185526020808601920283019281841161003557915b83831061011f5750505050565b6020809161012d84866100d9565b815201920191610112565b9080601f8301121561003557816020610153933591016100e6565b90565b9190916060818403126100355761016d606061008e565b9261017881836100ac565b845260208201356001600160401b0381116100355781610199918401610138565b602085015260408201356001600160401b038111610035576101bb9201610138565b6040830152565b91909160a0818403126100355780356001600160401b03811161003557836101eb918301610027565b926101f98160208401610043565b926102078260408501610043565b926102158360608301610043565b9260808201356001600160401b038111610035576101539201610156565b9052565b0190565b9061025b61025461024a845190565b8084529260200190565b9260200190565b9060005b81811061026c5750505090565b9091926102896102826001928651815260200190565b9460200190565b92910161025f565b906102a061025461024a845190565b9060005b8181106102b15750505090565b9091926102ca610282600192865160ff16815260200190565b9291016102a4565b805161ffff1682526101539160406102f96060830160208501518482036020860152610291565b920151906040818403910152610291565b9081526060602082018190526101539391926103289184019061023b565b9160408184039101526102d2565b61035f6103506103473660046101c2565b93929092610adb565b6040519193919384938461030a565b0390f35b610153606061008e565b610375610363565b60008152606060208201819052604082015290565b61015361036d565b9061039f6100f6836100b9565b918252565b369037565b906100506103bf6103b984610392565b936100b9565b601f1901602084016103a4565b6101536101536101539290565b903590601e19368290030182121561003557018035906001600160401b0382116100355760200191602082023603831361003557565b1561041657565b60405162461bcd60e51b815260206004820152603560248201527f5b5072696d61727953756d636865636b3a3a7665726966795d2057726f6e67206044820152746e756d626572206f6620706f6c796e6f6d69616c7360581b6064820152608490fd5b610153602061008e565b61048b610479565b9060608252565b610153610483565b634e487b7160e01b600052603260045260246000fd5b903590601e193682900301821215610035570190565b908210156104dd57602061015392028101906104b0565b61049a565b6101537f40000000000000000000000000000000224698fc0994a8dd8c46eb21000000016103cc565b905051906100508261003a565b909291926105286100f6826100b9565b938185526020808601920283019281841161003557915b83831061054c5750505050565b6020809161055a848661050b565b81520192019161053f565b9080601f8301121561003557815161015392602001610518565b91909160208184031261003557610596602061008e565b9260008201516001600160401b038111610035576105b49201610565565b8252565b906020828203126100355781516001600160401b03811161003557610153920161057f565b9035601e1936839003018112156100355701602081359101916001600160401b03821161003557602082023603831361003557565b9037565b8183529091602001916001600160fb1b03811161003557829160206102379202938491610612565b61015391602081019161065190806105dd565b828403909252610616565b60409061068661067e610050959796946060840190848203600086015261063e565b966020830152565b0152565b6040513d6000823e3d90fd5b90602082820312610035576101539161050b565b906106b961025461024a845190565b9060005b8181106106ca5750505090565b9091926106e06102826001928651815260200190565b9291016106bd565b5160208083526101539201906106aa565b6020808252610153929101906106e8565b1561071157565b60405162461bcd60e51b815260206004820152603560248201527f5b5072696d61727953756d636865636b3a3a7665726966795d20506f6c796e6f6044820152746d69616c206861732077726f6e672064656772656560581b6064820152608490fd5b9291602061079161005093604087019087820360008901526106e8565b940152565b634e487b7160e01b600052601260045260246000fd5b156107b357565b60405162461bcd60e51b815260206004820152604a60248201527f5b5072696d61727953756d636865636b3a3a7665726966795d20506f6c796e6f60448201527f6d69616c206465636f6d7072657373696f6e207969656c647320696e636f72726064820152691958dd081c995cdd5b1d60b21b608482015260a490fd5b61083e6101536101539290565b60ff1690565b9061084d825190565b8110156104dd576020809102010190565b90505190610050826100a2565b90505190610050826100d0565b909291926108886100f6826100b9565b938185526020808601920283019281841161003557915b8383106108ac5750505050565b602080916108ba848661086b565b81520192019161089f565b9080601f8301121561003557815161015392602001610878565b919091606081840312610035576108f6606061008e565b92610901818361085e565b845260208201516001600160401b03811161003557816109229184016108c5565b602085015260408201516001600160401b038111610035576101bb92016108c5565b906020828203126100355781516001600160401b0381116100355761015392016108df565b9061097861025461024a845190565b9060005b8181106109895750505090565b9091926109a2610282600192865160ff16815260200190565b92910161097c565b916109d7906109c96101539593606086019086820360008801526102d2565b908482036020860152610969565b9160408184039101526106e8565b6004111561003557565b90505190610050826109e5565b9060208282031261003557610153916109ef565b9190604083820312610035578251906001600160401b038211610035576020610a3e826101539487016108df565b940161050b565b634e487b7160e01b600052602160045260246000fd5b60041115610a6557565b610a45565b9061005082610a5b565b61015390610a6a565b61023390610a74565b60608082526101539492610aac91610aa191908401906102d2565b936020830190610a7d565b6040818403910152610969565b60409061068661067e61005095979694606084019084820360008601526106e8565b90949291600095610aea61038a565b5092610af5826103a9565b966001938492610b0d610b0860016103cc565b6103a9565b94610b2a610b23610b1e85806103d9565b905090565b821461040f565b610b32610492565b50600090610b3f826103cc565b975b610b53575b5050505050505050929190565b909294969991939597610b638290565b8b1015610f515773__$32d7912ae06d8578f8ce9991f5c3194b4d$__610b958c610b8f878a018a6103d9565b906104c6565b8286610b9f6104e2565b948593610bc6610bae60405190565b97889384936306d1c78f60e21b85526004850161065c565b0381865af4938415610e5057600094610f2e575b5060405163b038af3760e01b815260208180610bf988600483016106f9565b0381875af48015610e5057610c1891600091610f10575b50891461070a565b604051633778ba8b60e21b815260208180610c3688600483016106f9565b0381875af4908115610e5057600091610ef2575b50604051635f0452bf60e01b815260208180610c6a878a60048401610774565b0381885af4908115610e5057600091610ed4575b508315610ecf578d97610ca78a93610ca1878a95610c9c610d099990565b930890565b146107ac565b610cce610cb46070610831565b610cc6610cc0866103cc565b8c610844565b9060ff169052565b73__$c40c6cde76b2729a91cc5c3705c6fa9b5b$__9e8f91610cef60405190565b9586948593849363292fd18d60e01b8552600485016109aa565b03915af4908115610e5057600091610ead575b50610d3c610d2a6063610831565b610cc6610d368a6103cc565b89610844565b73__$67db75f78e5b419b8feb44a79eb6a44519$__9b6020610d5d60405190565b63d0a1f77160e01b81529d8e9060049082905af49c8d15610e505760009d610e79575b5090879187610d8e60405190565b9e8f938492839263ed100c7560e01b8452610dac9260048501610a86565b03915af48015610e50578d9b8f916000918291610e55575b509181929f610dd291610844565b526040519384928392636f5319ed60e01b8452610df29260048501610ab9565b03815a93602094f48015610e5057610e1491600091610e22575b509860010190565b969492908596949296610b41565b610e43915060203d8111610e49575b610e3b8183610068565b810190610696565b38610e0c565b503d610e31565b61068a565b90610e7292503d8091833e610e6a8183610068565b810190610a10565b9038610dc4565b8892919d50610e9e9060203d8111610ea6575b610e968183610068565b8101906109fc565b9c9091610d80565b503d610e8c565b610ec991503d8089833e610ec18183610068565b810190610944565b38610d1c565b610796565b610eec915060203d8111610e4957610e3b8183610068565b38610c7e565b610f0a915060203d8111610e4957610e3b8183610068565b38610c4a565b610f28915060203d8111610e4957610e3b8183610068565b38610c10565b610f4a91943d8091833e610f428183610068565b8101906105b8565b9238610bda565b97829a50610b4656fea264697066735822122068580fed3e31bc0f763226a9962e18f8b49418f87b414705b0bd51cd6c672aca64736f6c63430008190033",
  "linkReferences": {
    "contracts/ucl/curves/Utilities.sol": {
      "PolyLib": [
        {
          "length": 20,
          "start": 2959
        }
      ]
    },
    "contracts/ucl/curves/blocks/KeccakTranscript.sol": {
      "KeccakTranscriptLib": [
        {
          "length": 20,
          "start": 3315
        }
      ],
      "ScalarFromUniformLib": [
        {
          "length": 20,
          "start": 3425
        }
      ]
    }
  },
  "deployedLinkReferences": {
    "contracts/ucl/curves/Utilities.sol": {
      "PolyLib": [
        {
          "length": 20,
          "start": 2924
        }
      ]
    },
    "contracts/ucl/curves/blocks/KeccakTranscript.sol": {
      "KeccakTranscriptLib": [
        {
          "length": 20,
          "start": 3280
        }
      ],
      "ScalarFromUniformLib": [
        {
          "length": 20,
          "start": 3390
        }
      ]
    }
  }
}