{
  "_format": "hh-sol-artifact-1",
  "contractName": "SecondarySumcheck",
  "sourceName": "contracts/ucl/curves/blocks/Sumcheck.sol",
  "abi": [
    {
      "inputs": [
        {
          "components": [
            {
              "components": [
                {
                  "internalType": "uint256[]",
                  "name": "coeffs_except_linear_term",
                  "type": "uint256[]"
                }
              ],
              "internalType": "struct PolyLib.CompressedUniPoly[]",
              "name": "compressed_polys",
              "type": "tuple[]"
            }
          ],
          "internalType": "struct PolyLib.SumcheckProof",
          "name": "proof",
          "type": "tuple"
        },
        {
          "internalType": "uint256",
          "name": "claim",
          "type": "uint256"
        },
        {
          "internalType": "uint256",
          "name": "num_rounds",
          "type": "uint256"
        },
        {
          "internalType": "uint256",
          "name": "degree_bound",
          "type": "uint256"
        },
        {
          "components": [
            {
              "internalType": "uint16",
              "name": "round",
              "type": "uint16"
            },
            {
              "internalType": "uint8[]",
              "name": "state",
              "type": "uint8[]"
            },
            {
              "internalType": "uint8[]",
              "name": "transcript",
              "type": "uint8[]"
            }
          ],
          "internalType": "struct KeccakTranscriptLib.KeccakTranscript",
          "name": "transcript",
          "type": "tuple"
        }
      ],
      "name": "verify",
      "outputs": [
        {
          "internalType": "uint256",
          "name": "",
          "type": "uint256"
        },
        {
          "internalType": "uint256[]",
          "name": "",
          "type": "uint256[]"
        },
        {
          "components": [
            {
              "internalType": "uint16",
              "name": "round",
              "type": "uint16"
            },
            {
              "internalType": "uint8[]",
              "name": "state",
              "type": "uint8[]"
            },
            {
              "internalType": "uint8[]",
              "name": "transcript",
              "type": "uint8[]"
            }
          ],
          "internalType": "struct KeccakTranscriptLib.KeccakTranscript",
          "name": "",
          "type": "tuple"
        }
      ],
      "stateMutability": "pure",
      "type": "function"
    }
  ],
  "bytecode": "0x608060405234601d57604051610fa1610023823930815050610fa190f35b600080fdfe6080604052600436101561001257600080fd5b60003560e01c63aaf001400361003557610336565b908160209103126100355790565b600080fd5b805b0361003557565b905035906100508261003a565b565b634e487b7160e01b600052604160045260246000fd5b90601f01601f191681019081106001600160401b0382111761008957604052565b610052565b9061005061009b60405190565b9283610068565b61ffff811661003c565b90503590610050826100a2565b6001600160401b0381116100895760208091020190565b60ff811661003c565b90503590610050826100d0565b909291926100fb6100f6826100b9565b61008e565b938185526020808601920283019281841161003557915b83831061011f5750505050565b6020809161012d84866100d9565b815201920191610112565b9080601f8301121561003557816020610153933591016100e6565b90565b9190916060818403126100355761016d606061008e565b9261017881836100ac565b845260208201356001600160401b0381116100355781610199918401610138565b602085015260408201356001600160401b038111610035576101bb9201610138565b6040830152565b91909160a0818403126100355780356001600160401b03811161003557836101eb918301610027565b926101f98160208401610043565b926102078260408501610043565b926102158360608301610043565b9260808201356001600160401b038111610035576101539201610156565b9052565b0190565b9061025b61025461024a845190565b8084529260200190565b9260200190565b9060005b81811061026c5750505090565b9091926102896102826001928651815260200190565b9460200190565b92910161025f565b906102a061025461024a845190565b9060005b8181106102b15750505090565b9091926102ca610282600192865160ff16815260200190565b9291016102a4565b805161ffff1682526101539160406102f96060830160208501518482036020860152610291565b920151906040818403910152610291565b9081526060602082018190526101539391926103289184019061023b565b9160408184039101526102d2565b61035f6103506103473660046101c2565b93929092610aed565b6040519193919384938461030a565b0390f35b610153606061008e565b610375610363565b60008152606060208201819052604082015290565b61015361036d565b9061039f6100f6836100b9565b918252565b369037565b906100506103bf6103b984610392565b936100b9565b601f1901602084016103a4565b6101536101536101539290565b903590601e19368290030182121561003557018035906001600160401b0382116100355760200191602082023603831361003557565b1561041657565b60405162461bcd60e51b815260206004820152603760248201527f5b5365636f6e6461727953756d636865636b3a3a7665726966795d2057726f6e60448201527f67206e756d626572206f6620706f6c796e6f6d69616c730000000000000000006064820152608490fd5b610153602061008e565b610493610481565b9060608252565b61015361048b565b634e487b7160e01b600052603260045260246000fd5b903590601e193682900301821215610035570190565b908210156104e557602061015392028101906104b8565b6104a2565b6101537f40000000000000000000000000000000224698fc094cf91b992d30ed000000016103cc565b905051906100508261003a565b909291926105306100f6826100b9565b938185526020808601920283019281841161003557915b8383106105545750505050565b602080916105628486610513565b815201920191610547565b9080601f8301121561003557815161015392602001610520565b9190916020818403126100355761059e602061008e565b9260008201516001600160401b038111610035576105bc920161056d565b8252565b906020828203126100355781516001600160401b038111610035576101539201610587565b9035601e1936839003018112156100355701602081359101916001600160401b03821161003557602082023603831361003557565b9037565b8183529091602001916001600160fb1b0381116100355782916020610237920293849161061a565b61015391602081019161065990806105e5565b82840390925261061e565b60409061068e6106866100509597969460608401908482036000860152610646565b966020830152565b0152565b6040513d6000823e3d90fd5b906020828203126100355761015391610513565b906106c161025461024a845190565b9060005b8181106106d25750505090565b9091926106e86102826001928651815260200190565b9291016106c5565b5160208083526101539201906106b2565b6020808252610153929101906106f0565b1561071957565b60405162461bcd60e51b815260206004820152603760248201527f5b5365636f6e6461727953756d636865636b3a3a7665726966795d20506f6c7960448201527f6e6f6d69616c206861732077726f6e67206465677265650000000000000000006064820152608490fd5b929160206107a161005093604087019087820360008901526106f0565b940152565b634e487b7160e01b600052601260045260246000fd5b156107c357565b60405162461bcd60e51b815260206004820152604c60248201527f5b5365636f6e6461727953756d636865636b3a3a7665726966795d20506f6c7960448201527f6e6f6d69616c206465636f6d7072657373696f6e207969656c647320696e636f60648201526b1c9c9958dd081c995cdd5b1d60a21b608482015260a490fd5b6108506101536101539290565b60ff1690565b9061085f825190565b8110156104e5576020809102010190565b90505190610050826100a2565b90505190610050826100d0565b9092919261089a6100f6826100b9565b938185526020808601920283019281841161003557915b8383106108be5750505050565b602080916108cc848661087d565b8152019201916108b1565b9080601f830112156100355781516101539260200161088a565b91909160608184031261003557610908606061008e565b926109138183610870565b845260208201516001600160401b03811161003557816109349184016108d7565b602085015260408201516001600160401b038111610035576101bb92016108d7565b906020828203126100355781516001600160401b0381116100355761015392016108f1565b9061098a61025461024a845190565b9060005b81811061099b5750505090565b9091926109b4610282600192865160ff16815260200190565b92910161098e565b916109e9906109db6101539593606086019086820360008801526102d2565b90848203602086015261097b565b9160408184039101526106f0565b6004111561003557565b90505190610050826109f7565b906020828203126100355761015391610a01565b9190604083820312610035578251906001600160401b038211610035576020610a50826101539487016108f1565b9401610513565b634e487b7160e01b600052602160045260246000fd5b60041115610a7757565b610a57565b9061005082610a6d565b61015390610a7c565b61023390610a86565b60608082526101539492610abe91610ab391908401906102d2565b936020830190610a8f565b604081840391015261097b565b60409061068e61068661005095979694606084019084820360008601526106f0565b90949291600095610afc61038a565b5092610b07826103a9565b966001938492610b1f610b1a60016103cc565b6103a9565b94610b3c610b35610b3085806103d9565b905090565b821461040f565b610b4461049a565b50600090610b51826103cc565b975b610b65575b5050505050505050929190565b909294969991939597610b758290565b8b1015610f625773__$32d7912ae06d8578f8ce9991f5c3194b4d$__610ba78c610ba1878a018a6103d9565b906104ce565b8286610bb16104ea565b948593610bd8610bc060405190565b97889384936306d1c78f60e21b855260048501610664565b0381865af4938415610e6257600094610f3f575b5060405163b038af3760e01b815260208180610c0b8860048301610701565b0381875af48015610e6257610c2a91600091610f21575b508914610712565b604051633778ba8b60e21b815260208180610c488860048301610701565b0381875af4908115610e6257600091610f03575b50604051635f0452bf60e01b815260208180610c7c878a60048401610784565b0381885af4908115610e6257600091610ee5575b508315610ee0578d97610cb98a93610cb3878a95610cae610d1b9990565b930890565b146107bc565b610ce0610cc66070610843565b610cd8610cd2866103cc565b8c610856565b9060ff169052565b73__$c40c6cde76b2729a91cc5c3705c6fa9b5b$__9e8f91610d0160405190565b9586948593849363292fd18d60e01b8552600485016109bc565b03915af4908115610e6257600091610ebf575b50610d4e610d3c6063610843565b610cd8610d488a6103cc565b89610856565b73__$67db75f78e5b419b8feb44a79eb6a44519$__9b6020610d6f60405190565b639871a3cd60e01b81529d8e9060049082905af49c8d15610e625760009d610e8b575b5090879187610da060405190565b9e8f938492839263ed100c7560e01b8452610dbe9260048501610a98565b03915af48015610e62578d9b8f916000918291610e67575b509181929f610de491610856565b526040519384928392636f5319ed60e01b8452610e049260048501610acb565b03815a93602094f48015610e6257610e2691600091610e34575b509860010190565b969492908596949296610b53565b610e55915060203d8111610e5b575b610e4d8183610068565b81019061069e565b38610e1e565b503d610e43565b610692565b90610e8492503d8091833e610e7c8183610068565b810190610a22565b9038610dd6565b8892919d50610eb09060203d8111610eb8575b610ea88183610068565b810190610a0e565b9c9091610d92565b503d610e9e565b610eda913d8091833e610ed28183610068565b810190610956565b38610d2e565b6107a6565b610efd915060203d8111610e5b57610e4d8183610068565b38610c90565b610f1b915060203d8111610e5b57610e4d8183610068565b38610c5c565b610f39915060203d8111610e5b57610e4d8183610068565b38610c22565b610f5b91943d8091833e610f538183610068565b8101906105c0565b9238610bec565b97829a50610b5856fea26469706673582212204963eb3e5cffdffa04308c64b466d49aa1142dd0a8e36ca460a844932757c60164736f6c63430008190033",
  "linkReferences": {
    "contracts/ucl/curves/Utilities.sol": {
      "PolyLib": [
        {
          "length": 20,
          "start": 2977
        }
      ]
    },
    "contracts/ucl/curves/blocks/KeccakTranscript.sol": {
      "KeccakTranscriptLib": [
        {
          "length": 20,
          "start": 3333
        }
      ],
      "ScalarFromUniformLib": [
        {
          "length": 20,
          "start": 3443
        }
      ]
    }
  },
  "deployedLinkReferences": {
    "contracts/ucl/curves/Utilities.sol": {
      "PolyLib": [
        {
          "length": 20,
          "start": 2942
        }
      ]
    },
    "contracts/ucl/curves/blocks/KeccakTranscript.sol": {
      "KeccakTranscriptLib": [
        {
          "length": 20,
          "start": 3298
        }
      ],
      "ScalarFromUniformLib": [
        {
          "length": 20,
          "start": 3408
        }
      ]
    }
  }
}