{
  "_format": "hh-sol-artifact-1",
  "contractName": "RelaxedR1CSSNARKForSMLib",
  "sourceName": "contracts/ucl/image9/nova/sol/snark_sm.sol",
  "abi": [
    {
      "inputs": [
        {
          "internalType": "enum NovaError",
          "name": "",
          "type": "uint8"
        }
      ],
      "name": "Err",
      "type": "error"
    },
    {
      "inputs": [
        {
          "components": [
            {
              "components": [
                {
                  "components": [
                    {
                      "internalType": "Fq[]",
                      "name": "coeffsExceptLinearTerm",
                      "type": "uint256[]"
                    }
                  ],
                  "internalType": "struct CompressedUniPolyFq[]",
                  "name": "compressedPolys",
                  "type": "tuple[]"
                }
              ],
              "internalType": "struct SumcheckProofFq",
              "name": "sc_proof_outer",
              "type": "tuple"
            },
            {
              "internalType": "Fq[3]",
              "name": "claims_outer",
              "type": "uint256[3]"
            },
            {
              "internalType": "Fq",
              "name": "eval_E",
              "type": "uint256"
            },
            {
              "components": [
                {
                  "components": [
                    {
                      "internalType": "Fq[]",
                      "name": "coeffsExceptLinearTerm",
                      "type": "uint256[]"
                    }
                  ],
                  "internalType": "struct CompressedUniPolyFq[]",
                  "name": "compressedPolys",
                  "type": "tuple[]"
                }
              ],
              "internalType": "struct SumcheckProofFq",
              "name": "sc_proof_inner",
              "type": "tuple"
            },
            {
              "internalType": "Fq",
              "name": "eval_W",
              "type": "uint256"
            },
            {
              "components": [
                {
                  "components": [
                    {
                      "internalType": "Fq[]",
                      "name": "coeffsExceptLinearTerm",
                      "type": "uint256[]"
                    }
                  ],
                  "internalType": "struct CompressedUniPolyFq[]",
                  "name": "compressedPolys",
                  "type": "tuple[]"
                }
              ],
              "internalType": "struct SumcheckProofFq",
              "name": "sc_proof_batch",
              "type": "tuple"
            },
            {
              "internalType": "Fq[]",
              "name": "evals_batch",
              "type": "uint256[]"
            }
          ],
          "internalType": "struct RelaxedR1CSSNARKForSM",
          "name": "self",
          "type": "tuple"
        },
        {
          "components": [
            {
              "internalType": "Fr",
              "name": "comm",
              "type": "uint256"
            },
            {
              "internalType": "Fq",
              "name": "u",
              "type": "uint256"
            },
            {
              "internalType": "Fq[]",
              "name": "X",
              "type": "uint256[]"
            }
          ],
          "internalType": "struct RelaxedR1CSInstanceWithMCCompressed",
          "name": "U",
          "type": "tuple"
        },
        {
          "components": [
            {
              "internalType": "uint16",
              "name": "round",
              "type": "uint16"
            },
            {
              "internalType": "bytes32[2]",
              "name": "state",
              "type": "bytes32[2]"
            },
            {
              "internalType": "bytes",
              "name": "transcript",
              "type": "bytes"
            },
            {
              "internalType": "uint256",
              "name": "length",
              "type": "uint256"
            }
          ],
          "internalType": "struct Transcript",
          "name": "transcript",
          "type": "tuple"
        }
      ],
      "name": "verify",
      "outputs": [
        {
          "internalType": "Fr",
          "name": "",
          "type": "uint256"
        },
        {
          "internalType": "Fq[]",
          "name": "",
          "type": "uint256[]"
        },
        {
          "internalType": "Fq",
          "name": "",
          "type": "uint256"
        },
        {
          "internalType": "Fq",
          "name": "",
          "type": "uint256"
        },
        {
          "internalType": "Fq",
          "name": "",
          "type": "uint256"
        }
      ],
      "stateMutability": "pure",
      "type": "function"
    }
  ],
  "bytecode": "0x608060405234601d57604051613dc5610023823930815050613dc590f35b600080fdfe6106c0604052600436101561001357600080fd5b60003560e01c63a84cd9ee0361009a5761062a565b634e487b7160e01b600052604160045260246000fd5b90601f01601f191681019081106001600160401b0382111761005f57604052565b610028565b9061007861007160405190565b928361003e565b565b6001600160401b03811161005f5760208091020190565b805b0361009a57565b600080fd5b9050359061007882610091565b909291926100c16100bc8261007a565b610064565b938185526020808601920283019281841161009a57915b8383106100e55750505050565b602080916100f3848661009f565b8152019201916100d8565b9080601f8301121561009a57816020610119933591016100ac565b90565b91909160208184031261009a576101336020610064565b9281356001600160401b03811161009a5761014e92016100fe565b8252565b9291906101616100bc8261007a565b938185526020808601920281019183831161009a5781905b838210610187575050505050565b81356001600160401b03811161009a576020916101a7878493870161011c565b815201910190610179565b9080601f8301121561009a5781602061011993359101610152565b91909160208184031261009a576101e46020610064565b9281356001600160401b03811161009a5761014e92016101b2565b6001600160401b03811161005f5760200290565b909291926102236100bc826101ff565b93602085920283019281841161009a57915b8383106102425750505050565b60208091610250848661009f565b815201920191610235565b9080601f8301121561009a57600361011992610213565b9190916101208184031261009a5761028a60e0610064565b9281356001600160401b03811161009a57816102a79184016101cd565b84526102b6816020840161025b565b60208501526102c8816080840161009f565b604085015260a08201356001600160401b03811161009a57816102ec9184016101cd565b60608501526102fe8160c0840161009f565b608085015260e08201356001600160401b03811161009a57816103229184016101cd565b60a08501526101008201356001600160401b03811161009a5761034592016100fe565b60c0830152565b91909160608184031261009a576103636060610064565b9261036e818361009f565b845261037d816020840161009f565b602085015260408201356001600160401b03811161009a5761039f92016100fe565b6040830152565b61ffff8116610093565b90503590610078826103a6565b909291926103cd6100bc826101ff565b93602085920283019281841161009a57915b8383106103ec5750505050565b602080916103fa848661009f565b8152019201916103df565b9080601f8301121561009a576002610119926103bd565b6001600160401b03811161005f57602090601f01601f19160190565b0190565b90826000939282370152565b909291926104586100bc8261041c565b938185528183011161009a5761007891602085019061043c565b9080601f8301121561009a5781602061011993359101610448565b91909160a08184031261009a576104a46080610064565b926104af81836103b0565b84526104be8160208401610405565b602085015260608201356001600160401b03811161009a57826104e8836080936104f39601610472565b60408701520161009f565b6060830152565b9160608383031261009a5782356001600160401b03811161009a5782610521918501610272565b9260208101356001600160401b03811161009a578361054191830161034c565b9260408201356001600160401b03811161009a57610119920161048d565b6101196101196101199290565b6105759061055f565b9052565b906104388160209361056c565b906105a661059f610595845190565b8084529260200190565b9260200190565b9060005b8181106105b75750505090565b9091926105d16105ca6001928651610579565b9460200190565b9291016105aa565b906100789461061961060e610623936080969a99979a61060160a0880192600089019061056c565b8682036020880152610586565b98604085019061056c565b606083019061056c565b019061056c565b61065761064161063b3660046104fa565b91610968565b9161064e95939560405190565b958695866105d9565b0390f35b906106686100bc8361041c565b918252565b610677600161065b565b601d60fa1b602082015290565b61011961066d565b610119600b61055f565b610119600061055f565b634e487b7160e01b600052603260045260246000fd5b9060035b8110156106c8576020020190565b6106a0565b634e487b7160e01b600052602160045260246000fd5b601011156106ed57565b6106cd565b90610078826106e3565b610119906106f2565b610575906106fc565b6020810192916100789190610705565b610728600161065b565b606f60f81b602082015290565b61011961071e565b610747600161065b565b603960f91b602082015290565b61011961073d565b610119600c61055f565b610119600761055f565b634e487b7160e01b600052601160045260246000fd5b9190610791565b9290565b820391821161079c57565b610770565b610119600861055f565b610119600161055f565b906107be825190565b8110156106c8576020809102010190565b9190820180921161079c57565b906106686100bc8361007a565b369037565b906100786108046107fe846107dc565b9361007a565b601f1901602084016107e9565b61081e6101196101199290565b60ff1690565b6101199061083c6108386101199460ff1690565b9190565b901b90565b1561084857565b60405162461bcd60e51b8152602060048201526006602482015265212aa3aa2c1960d11b6044820152606490fd5b0390fd5b6101199061083c6108386101199490565b1561089257565b60405162461bcd60e51b815260206004820152600660248201526542554754593160d01b6044820152606490fd5b156108c757565b60405162461bcd60e51b8152602060048201526006602482015265212aa3aa2c9960d11b6044820152606490fd5b156108fc57565b60405162461bcd60e51b8152602060048201526006602482015265212aa3a9a6ab60d11b6044820152606490fd5b610934600161065b565b601b60fa1b602082015290565b61011961092a565b610953600161065b565b606360f81b602082015290565b610119610949565b6104605261048052610440526060610420526000610400526109ad61099761098e610684565b61044051613087565b61099f61068c565b6103a0526103a05190613172565b6104605151610a92906109fe906109f1906109c6610696565b610540526109d4600361055f565b61068052610440519061068051906103a051906105405190613230565b6105608190529093613304565b91610a8c610a45610a27610a236020610460510151610a1d600061055f565b906106b6565b5190565b610a3f610a236020610460510151610a1d600161055f565b90613406565b93610a3f610a7f610a5a602061048051015190565b96610a79602061046051015198610a3f610a2360029b610a1d8d61055f565b9061343f565b6104605160400151610a79565b90613474565b612f6957610bd090610aae610aa5610735565b61044051613494565b610ad3610ac9610a236020610460510151610a1d600061055f565b61044051906134ef565b610aee610ac9610a236020610460510151610a1d600161055f565b610b08610ac9610a236020610460510151610a1d8561055f565b610b19610ac9604061046051015190565b610b2461098e610754565b6106a052610b9a610b70610b46610a236020610460510151610a1d600061055f565b610b6a610b61610a236020610460510151610a1d600161055f565b6106a051613406565b9061350a565b610b6a610b836106a0516106a051613406565b610a3f610a236020610460510151610a1d8861055f565b610460516060015191610bb890610baf61075c565b6106005261055f565b61038052610440519161038051916106005191613230565b6106605261036052610be0610766565b6105c052610c0c610bff610bf5610560515190565b6105c05190610786565b6105c05161056051613532565b61064052610c186107a1565b61062052610c32610c29600161055f565b61062051610786565b6105e052610c40600161055f565b6105a052610c586105e0516105a05161066051613532565b61058052610c84610c77610c6d610660515190565b6106205190610786565b6106205161066051613532565b61032052610c906107ab565b61052052610cb9610cb0610a23610ca7600061055f565b610660516107b5565b6105205161343f565b61050052610ce9610cd9610a23610cd0600061055f565b610580516107b5565b610a3f610a23610ca7600061055f565b6104e052610d0d610d08610cfe610580515190565b6105a051906107cf565b6107ee565b6104c052610d1b600061055f565b6104a0525b610d2e610119610580515190565b6104a0511015610d7d57610d6d610d5a610d51610a236104a051610580516107b5565b61050051613406565b610d6a6104a0516104c0516107b5565b52565b6104a0516001016104a052610d20565b610d9c610d8b610580515190565b610d6a6104e051916104c0516107b5565b610e24610daa610640515190565b610dcb610dc3610dba6004610811565b6105a051610824565b918214610841565b610e0d610dd96104c0515190565b610e07610838610119610dfe610df56105a05161062051610786565b6105a05161087a565b6105a0516107cf565b1461088b565b610e1e61083861078d610320515190565b146108c0565b610f98610f5f610f29610ee0610e91610e68610e4f610a23610e46600061055f565b610640516107b5565b610a3f610a23610e5f600461055f565b610320516107b5565b610b6a610e7e610a236105a051610640516107b5565b610a3f610a2361038051610320516107b5565b610b6a610ed0610ec0610ead610a2361038051610640516107b5565b610b6a610a2361068051610640516107b5565b610b6a610a23610e46600461055f565b610a3f610a23610e5f600661055f565b610b6a610f19610f09610ef9610a23610e46600561055f565b610b6a610a23610e46600661055f565b610b6a610a23610e46600761055f565b610a3f610a23610e5f600961055f565b610b6a610f3c610a23610e46600861055f565b610a3f610f4f610a23610e5f600a61055f565b610a79610a23610e5f600061055f565b610b6a610f72610a23610e46600961055f565b610a3f610f85610a23610e5f600b61055f565b610a79610a236105a051610320516107b5565b610ffd610fda610fb7610ee0610e91610e4f610a23610e46600061055f565b610b6a610fca610a23610e46600861055f565b610a3f610a23610e5f600a61055f565b610b6a610fed610a23610e46600961055f565b610a3f610a23610e5f600b61055f565b6103e05261107361105061102d61101d610a236105a051610640516107b5565b610a3f610a23610e5f600761055f565b610a79611040610a23610e46600861055f565b610a3f610a23610e5f600c61055f565b610a79611063610a23610e46600961055f565b610a3f610a23610e5f600d61055f565b6103c0526111bb61119561115f61114c6111266110ed6110d76110a2610e68610e4f610a23610e46600061055f565b610b6a6110c46110bb610a2361038051610640516107b5565b61038051613406565b610a3f610a2361068051610320516107b5565b610b6a610ed0610a2361068051610640516107b5565b610b6a611100610a23610e46600461055f565b610a3f611116610a2361038051610320516107b5565b610a79610a23610e5f600761055f565b610b6a611139610a23610e46600561055f565b610a3f610f4f610a23610e5f600761055f565b610b6a610f19610a23610e46600661055f565b610b6a611172610a23610e46600761055f565b610a3f611185610a23610e5f600061055f565b610a79610a23610e5f600a61055f565b610b6a610e4f6111ab610a23610e46600861055f565b610b6a610a23610e46600961055f565b6101e05261122d61121a61114c6111f46110d7610e4f6111ab6111e4610a23610e46600061055f565b610b6a610a23610e46600861055f565b610b6a61101d61120a610a23610e46600561055f565b610a79610a23610e46600461055f565b610a79610fca610a23610e46600761055f565b9061129c61127661125d61124d6110bb610a2361038051610640516107b5565b610a3f610a23610e5f600861055f565b610b6a61101d610ec0610a236105a051610640516107b5565b610b6a61104061128c610a23610e46600761055f565b610a79610a23610e46600561055f565b61146b61144561141f6113e66113ad61138761134e61130f6112c7610e4f610a23610e46600061055f565b610b6a6112ff6112e0610a236105a051610640516107b5565b610b6a6112f6610a2361038051610640516107b5565b61068051613406565b610a3f610a23610e5f600561055f565b610b6a611325610a2361068051610640516107b5565b610a3f61133e6110bb610a2361038051610320516107b5565b610b6a610a23610e5f600761055f565b610b6a611361610a23610e46600461055f565b610a3f611377610a2361068051610320516107b5565b610b6a610a23610e5f600861055f565b610b6a61139a610a23610e46600561055f565b610a3f610f85610a23610e5f600861055f565b610b6a6113c0610a23610e46600661055f565b610a3f6113d661133e610a23610e5f600061055f565b610b6a610a23610e5f600a61055f565b610b6a6113f9610a23610e46600761055f565b610a3f61140f610a236105a051610320516107b5565b610b6a610a23610e5f600b61055f565b610b6a611432610a23610e46600861055f565b610a3f610f4f610a23610e5f600c61055f565b610b6a611458610a23610e46600961055f565b610a3f610f85610a23610e5f600d61055f565b9161155e61154b6115386115256114ff6114d96114c3611494610e4f610a23610e46600061055f565b610b6a6112ff6114b06112f6610a2361038051610640516107b5565b610b6a610a236105a051610640516107b5565b610b6a61101d610a2361068051610640516107b5565b610b6a61124d6114ef610a23610e46600461055f565b610b6a610a23610e46600561055f565b610b6a611512610a23610e46600661055f565b610a3f6113d6610a23610e5f600761055f565b610b6a610fed610a23610e46600761055f565b610b6a611040610a23610e46600861055f565b610b6a611063610a23610e46600961055f565b610280526115e66115bd61159761158461101d6110bb610a2361068051610640516107b5565b610b6a61124d610a23610e46600461055f565b610b6a6110406115ad610a23610e46600661055f565b610a79610a23610e46600861055f565b610b6a61106361128c6115d6610a23610e46600761055f565b610a79610a23610e46600961055f565b6102c052611606610cb0610a236115fd600061055f565b610560516107b5565b610300526105a051610340525b6105c0516103405110156116575761164361163a610cb0610a2361034051610560516107b5565b61030051613406565b610300526103405160010161034052611613565b6116bc6116ac611699611686611673610a236115fd600061055f565b610a3f610a236105a051610560516107b5565b610a3f610a2361038051610560516107b5565b610a3f610a2361068051610560516107b5565b610a3f610a236115fd600461055f565b6102e0526116f56116e26116d9610cb0610a236115fd600561055f565b6102e051613406565b610a3f610cb0610a236115fd600661055f565b6102a0526117226117126116d9610cb0610a236115fd600561055f565b610a3f610a236115fd600661055f565b6102605261173c6116e26116d9610a236115fd600561055f565b610240526117566117126116d9610a236115fd600561055f565b6102205261177661163a610a2361176d600061055f565b6104c0516107b5565b610200526118416118256118096117ed6117d16117c76117b461179f6105a05161062051610786565b6105a051610660516105c0516105605161367c565b610a3f610cb0610a23610ca7600061055f565b610200519061343f565b610a796117e4610a2361176d607c61055f565b6102a051613406565b610a79611800610a2361176d607d61055f565b61026051613406565b610a7961181c610a2361176d607e61055f565b61024051613406565b610a79611838610a2361176d607f61055f565b61022051613406565b906118686118556105a05161062051610786565b6118626108386105c05190565b146108f5565b610540516101a05261187a600061055f565b6101c0525b6105c0516101c0511015611a15576118cc6118a9610cb0610a23610ca76101c0516105c051610786565b610a3f610a236115fd6118c26105a0516105c051610786565b6101c05190610786565b60e0526118d9600061055f565b610180525b6101c0516101805110156119495761193661192e611908610a23610ca7610180516105c051610786565b610a3f610cb0610a236115fd6119246105a0516105c051610786565b6101805190610786565b60e051613406565b60e05261018051600101610180526118de565b6119596105a0516101c0516107cf565b60c0525b6105c05160c05110156119f2576119e161192e6119aa611988610a23610ca760c0516105c051610786565b610a3f610a236115fd6119a16105a0516105c051610786565b60c05190610786565b610b6a6119c5610cb0610a23610ca760c0516105c051610786565b610a3f610cb0610a236115fd6119a16105a0516105c051610786565b60e05260c05160010160c05261195d565b611a0160e0516101a05161350a565b6101a0526101c0516001016101c05261187f565b611b0c611ac292610b6a611b02611af7611b1697610b6a610b6a97611af1611adc611acf611ab0611a9d611a8a611a77611a64611a5b610cb0610a23610ca7600061055f565b6101a051613406565b610a796117e4610a2361176d607b61055f565b610a79611800610a2361176d607c61055f565b610a7961181c610a2361176d607d61055f565b610a79611838610a2361176d607e61055f565b9c8d94856101a0526102005190613406565b610b6a8b6103e051613406565b610b6a846103c051613406565b9d610b6a89611af1610200516101e051613406565b92613406565b976102005190613406565b9161028051613406565b916102c051613406565b916121a8612134611f50611d316117e4611cf5611ca6611c0c611b3f610a2361176d607c61055f565b610a3f611bd6611bb3611ba0611b8d611b7a611b64610e4f610a23610e46600061055f565b610b6a61124d610a2361038051610640516107b5565b610b6a610f19610a23610e46600561055f565b610b6a611040610a23610e46600961055f565b610b6a610fca610a23610e46600a61055f565b610b6a611bc6610a23610e46600c61055f565b610a3f610a23610e5f600f61055f565b610b6a611bfc611bec610a23610e46600d61055f565b610a79610a23610e46600b61055f565b610a3f610a23610e5f600e61055f565b610b6a611c1f610a2361176d600061055f565b610a3f611c93611c6a611c54611c446111e4610f09610a2361068051610640516107b5565b610a3f610a23610e5f600061055f565b610a79610e7e610a2361068051610640516107b5565b610b6a611c80610ef9610a23610e46600461055f565b610a3f610a236105a051610320516107b5565b610a796110c4610a23610e46600461055f565b610b6a611cbc611c44610a2361176d608061055f565b610a3f611ce5611cd56112f6610a23610e46600961055f565b610b6a610a23610e46600b61055f565b610b6a610a23610e46600e61055f565b610b6a611d08610a2361176d607d61055f565b610a3f611d1e611c80610a23610e46600f61055f565b610a79611c44610a23610e46600e61055f565b610b6a611800611ef5611e16611d8f611d50610a2361176d607b61055f565b610a3f611d7c611040611d69610a23610e46600861055f565b610a79610a2361068051610640516107b5565b610b6a611063610a23610e46600a61055f565b610b6a611da2610a2361176d607c61055f565b610a3f611e03611dda611dc7610ed0610f09610ead6112f6610a23610e46600f61055f565b610b6a61101d610a23610e46600961055f565b610b6a61124d611df0610a23610e46600b61055f565b610a79610a236105a051610640516107b5565b610b6a610f19610a23610e46600c61055f565b610b6a611e29610a2361176d607d61055f565b610a3f611ee2611ecf611ebc611ea9611e96611e83611e6a611e54611c44610a23610e46600061055f565b610a79610e7e610a2361038051610640516107b5565b610b6a6112ff610ef96114ef610a23610e46600461055f565b610a79610ed0610a23610e46600761055f565b610a7961124d610a23610e46600861055f565b610a7961101d610a23610e46600961055f565b610a79610fca610a23610e46600a61055f565b610a79611040610a23610e46600c61055f565b610a79611bfc610a23610e46600e61055f565b610b6a611f0b611c44610a2361176d608061055f565b610a3f611ce5611f3d610ead611f2a610a236105a051610640516107b5565b610b6a610a2361038051610640516107b5565b610b6a6110bb610a23610e46600d61055f565b610b6a61181c6120a0611fea611f8261124d611f72610a23610e46600761055f565b610a3f610a2361176d607c61055f565b610b6a611f95610a2361176d607d61055f565b610a3f611fd7611fc4611fb1611bc6610a23610e46600061055f565b610a79610f19610a23610e46600861055f565b610a79610fed610a23610e46600961055f565b610a79611063610a23610e46600a61055f565b610b6a611ffd610a2361176d607e61055f565b610a3f61208d611dc761207a61206761205461204161202b611c80611f2a610a236105a051610640516107b5565b610b6a610e7e610a2361068051610640516107b5565b610b6a6110c4610a23610e46600461055f565b610b6a610e4f610a23610e46600561055f565b610b6a6112ff610a23610e46600661055f565b610b6a610ed0610a23610e46600861055f565b610b6a61124d610a23610e46600a61055f565b610b6a6120b3610a2361176d608061055f565b610a3f61212161210e6120fb6120e86120d5611c80610a23610e46600b61055f565b610b6a610e7e610a23610e46600c61055f565b610b6a6110c4610a23610e46600d61055f565b610b6a610e4f610a23610e46600e61055f565b610b6a6112ff610a23610e46600f61055f565b610a79611c44610a23610e46600761055f565b610b6a61214a611838610a2361176d608061055f565b610a3f61219561217f611b64612169610ed0610a23610e46600061055f565b610b6a61101d610a236105a051610640516107b5565b610b6a610f19610a2361068051610640516107b5565b610b6a610fca610a23610e46600461055f565b60a05261264961261461250161237f6117e461231161224b6121fc6121d3610a2361176d600061055f565b610a3f6121e9611c80610a23610e46600661055f565b610b6a611c44610a23610e46600761055f565b610a7961220f610a2361176d607b61055f565b610a3f612238611040612228610a23610e46600c61055f565b610b6a610a23610e46600d61055f565b610b6a611063610a23610e46600f61055f565b610b6a61225e610a2361176d607c61055f565b610a3f6122fe6122e86122d56122c2612299612283610e4f610a23610e46600061055f565b610a7961124d610a2361038051610640516107b5565b610a79610f196122b26111ab610a23610e46600561055f565b610b6a610a23610e46600a61055f565b610b6a610fed610a23610e46600861055f565b610b6a611bfc610a23610e46600b61055f565b610b6a610ed0612228610a23610e46600c61055f565b610b6a61101d610a23610e46600f61055f565b610b6a612324610a23610e5f600061055f565b610a3f61234a61233a610a23610e46600e61055f565b610a3f610a2361176d607d61055f565b610b6a61235d610a2361176d608061055f565b610a3f611f2a6122b26111ab6114ef610ec0610a2361068051610640516107b5565b610b6a6118006124db6124af61244461239e610a2361176d607c61055f565b610a3f6124186123fc6123d66123c061101d612228610a23610e46600061055f565b610a79611bfc610a2361038051610640516107b5565b610b6a610ed06123ec610a23610e46600661055f565b610b6a610a23610e46600f61055f565b610b6a610f19611cd56111ab611df0610a23610e46600761055f565b610b6a61124d611ce56124346122b2610a23610e46600861055f565b610b6a610a23610e46600c61055f565b610b6a612457610a2361176d607d61055f565b610a3f61249c6124896124766110c4610a2361068051610640516107b5565b610b6a610e4f610a23610e46600461055f565b610b6a6112ff610a23610e46600561055f565b610a79610ed0610a23610e46600661055f565b610b6a611c446124cb611f2a610a236105a051610640516107b5565b610a3f610a2361176d608061055f565b610a796110636124f1610a23610e46600061055f565b610a3f610a2361176d607b61055f565b610b6a61181c6125cc612575612536611c806125266114b0610a23610e46600061055f565b610a3f610a2361176d607e61055f565b610b6a61254c610a2361038051610640516107b5565b610a3f612562610ed0610a2361176d607c61055f565b610a79610e7e610a2361176d607e61055f565b610b6a612588610a23610e5f600061055f565b610a3f6125a461233a610f09610ef9610a23610e46600561055f565b610b6a6124cb6123ec611ce5612228612434611cd5610ec0610a2361068051610640516107b5565b610b6a6125df610a2361176d607c61055f565b610a3f6125fb611bfc6122b26111ab610a23610e46600861055f565b610a7961124d610ec0610a2361068051610640516107b5565b610b6a611c4461262d611838610a2361176d608061055f565b610a3f610ec0610ead611f2a6114b0610a23610e46600061055f565b61016052612666610e4f611f726117e4610a23610e46600061055f565b61014052612690612686610e4f6117e4610a236105a051610640516107b5565b6103805190613406565b6101205261269e600061055f565b610100525b6126ad607c61055f565b61010051101561270a576126e26126d96126d0610a23610100516104c0516107b5565b61012051613406565b6101405161350a565b610140526126f6610120516101205161350a565b6101205261010051600101610100526126a3565b612cdb90612cd5612cca612cbb6126d9612c34612a7761280c6117e46127bd612739610a2361176d607c61055f565b610a3f6127aa61279461153861152561278161275e610a236105a051610640516107b5565b610a3f612771610a23610e5f600461055f565b610a79610a23610e5f600561055f565b610b6a610fca610a23610e46600661055f565b610b6a6110636122b2610a23610e46600961055f565b610a79611bfc610a23610e46600c61055f565b610b6a6127d0610a23610e5f600061055f565b610a3f6127f96127e6610a2361176d608061055f565b610a3f6123ec610a23610e46600c61055f565b610a7961233a610a23610e46600f61055f565b610b6a611800612a2561289c61285761282b610a2361176d607b61055f565b610a3f612841611063610a23610e46600461055f565b610b6a611040611d69610a23610e46600561055f565b610b6a61286a610a2361176d607c61055f565b610a3f612886610ed06114ef610a2361068051610640516107b5565b610b6a61101d61120a610a23610e46600661055f565b610b6a6128af610a2361176d607d61055f565b610a3f612a126129ec6129d96129b36129a061297a61296761295161293b6129156128ff6128e9610e4f610a2361068051610640516107b5565b610a79610e7e610a236105a051610640516107b5565b610a796110c4610a2361038051610640516107b5565b610b6a610ed061292b610a23610e46600561055f565b610a79610a23610e46600761055f565b610b6a61101d6115d6610a23610e46600661055f565b610b6a61124d6115ad610a23610e46600761055f565b610b6a610f19610a23610e46600861055f565b610b6a610fca612990610a23610e46600961055f565b610a79610a23610e46600a61055f565b610b6a610fed610a23610e46600a61055f565b610b6a6110406129c9610a23610e46600b61055f565b610a79610a23610e46600c61055f565b610b6a611063610a23610e46600c61055f565b610b6a611bfc612a02610a23610e46600d61055f565b610a79610a23610e46600e61055f565b610b6a611bc6610a23610e46600e61055f565b610b6a612a38610a23610e5f600061055f565b610a3f612a4e612526610a23610e46600f61055f565b610b6a612a61610a2361176d608061055f565b610a3f611f2a610a236105a051610640516107b5565b610b6a61181c612c1e612b4f612b23612ac2612a99610a2361176d600061055f565b610a3f612aaf611c44610a23610e46600e61055f565b610b6a611c80610a23610e46600f61055f565b610b6a612ad5610a2361176d607c61055f565b610a3f612b10612af461101d612228610a2361038051610640516107b5565b610b6a610ed06124346110bb610a236105a051610640516107b5565b610b6a6112ff610a23610e46600b61055f565b610a79612b36610a2361176d607d61055f565b610a3f611d7c610fda610f19610a23610e46600861055f565b610b6a612b62610a2361176d607e61055f565b610a3f6129a0612c0b612967612bf8612be5612bd2612bbf612ba9612b93610e68611c44610a23610e46600061055f565b610b6a6110c4610a2361038051610640516107b5565b610b6a610e4f610a2361068051610640516107b5565b610b6a6112ff610a23610e46600461055f565b610b6a610ed0610a23610e46600561055f565b610b6a61101d610a23610e46600661055f565b610b6a61124d610a23610e46600761055f565b610b6a610fca610a23610e46600961055f565b610a79611c446124cb610a23610e46600761055f565b610b6a611838612c66612c4d610a2361176d607c61055f565b610a3f61217f61124d610a2361038051610640516107b5565b610b6a612c79610a2361176d607e61055f565b610a3f612ca8612c92610f19610a23610e46600061055f565b610b6a610fca610a236105a051610640516107b5565b610b6a610fed610a23610e46600461055f565b92836101405260a0519061350a565b93610160519061350a565b9361350a565b610480516040015151909190612cf490610d0890610cfe565b608052612d1d612d08602061048051015190565b610d6a612d15600061055f565b6080516107b5565b612d27600061055f565b612d3961011960406104805101515190565b811015612d765780612d6b612d5b610a23612d719460406104805101516107b5565b610d6a612d156105a051856107cf565b60010190565b612d27565b5090612dec612e0b92612dfc612e01612e1496612dfc612df1612db5612da26105a05161060051610786565b6105a0519061066051906080519061373a565b610b6a612ddb612dce610cb0610a23610ca7600061055f565b6104605160800151610a3f565b91612dec610a23610ca7600061055f565b613406565b966106a05190613406565b61350a565b6106a05190613406565b61036051613474565b612f6957612e2361098e610754565b612ece612e6e612e51612e3a608061046051015190565b610b6a612e4b604061046051015190565b86613406565b6104605160a0015161044051610380516103a05191939092613230565b9190610a8c612e846105a05161066051866138a1565b94610b6a612ebc612eae60c0610460510198610a3f610a238b51612ea8600061055f565b906107b5565b92610a3f6105605189613304565b610a3f610a2389516105a051906107b5565b612f6957612edd610aa5610941565b612ee7600061055f565b612ef361011984515190565b811015612f145780612d6b610ac9610a23612f0f9487516107b5565b612ee7565b5091612f52612f2461098e610960565b92610b6a612f4c610a23612f40610a238551612ea8600061055f565b93516105a051906107b5565b85613406565b90612f5e61098e610960565b610480515194939291565b60405163081169f360e11b81528061087660096004830161070e565b612f9b612f956101199260ff1690565b60f81b90565b6001600160f81b03191690565b610119612fb56001610811565b612f85565b6105759061ffff1660f01b90565b612fd461083860029390565b6000915b838310612fe55750505050565b612ff861059f6001928451815260200190565b92019190612fd8565b60005b8381106130145750506000910152565b8181015183820152602001613004565b61043861303c92602092613036815190565b94859290565b93849101613001565b018092612fba565b018092612fc8565b0190613024565b80926001600160f81b0319169052565b61ffff1661ffff811461079c5760010190565b9060026106ba565b61316c610a2361315a610a23606061315361311496613142610119996130ab600090565b50613126634e6f445360e01b84518593916131209161ffff1690602088019e8f51946130d5612fa8565b906130df60405190565b96879560208701958661043893613055600261305c9561304d60048661304560409860019e9d9a6001600160e01b0319169052565b9081038252038261003e565b84613977565b61313a613135825161ffff1690565b61306c565b61ffff169052565b61314c600061055f565b9283910152565b855161307f565b9251613166600161055f565b9061307f565b90613a26565b9061319361317f826107ee565b92610d6a61318d600061055f565b856107b5565b600180916131a08261055f565b915b6131ad575b50505090565b8082101561320c576132068392612d6b6131fc6131de610a236131d86131d28961055f565b86610786565b8a6107b5565b610a3f610a236131f66131f08a61055f565b87610786565b8b6107b5565b610d6a83896107b5565b916131a2565b6131a7565b61321b600161065b565b600760fc1b602082015290565b610119613211565b91939290825151859003612f6957613247856107ee565b9283600097613256600061055f565b935b885b8510156132f85761327890613272868c8701516107b5565b51613a8f565b6132966132868b8301515190565b613290600161055f565b90610786565b869003612f69576132f06132e98661325a936132e48b610d6a6132dc8f6132c46132be613228565b82613494565b6132ce8187613bea565b6132d6610960565b90613087565b9485926107b5565b613c50565b9560010190565b949050613258565b98509550955050505050565b91908251613316610838610119845190565b036133ab576133236107ab565b928361332f600061055f565b945b61333c610119855190565b8610156133a4576132e961339e91610a3f86610b6a8a610a3f613398610a2361339161338b610a23868f61338590610a3f610a238461337f8f82610a23916107b5565b936107b5565b996107b5565b8c61343f565b938c6107b5565b8961343f565b94613331565b9450505050565b60405163081169f360e11b81528061087660016004830161070e565b6101197f30644e72e131a029b85045b68181585d97816a916871ca8d3c208c16d87cfd4761055f565b634e487b7160e01b600052601260045260246000fd5b61341b61342191613415600090565b5061055f565b9161055f565b6134296133c7565b90811561343a57610119920961055f565b6133f0565b61344a906000613415565b9061346461345f6134596133c7565b9261055f565b820390565b811561343a57610119920861055f565b61083861011961348961348f93613415600090565b9361055f565b141590565b919091606081019060406134a6835190565b9101519060200101928051840160208201945b8181106134df5750506100789293506134d3610575915190565b82516107cf565b6107cf565b85518152602095860195016134b9565b906135046134ff6100789361055f565b61055f565b90613ce2565b61341b61351991613415600090565b6135216133c7565b90811561343a57610119920861055f565b9290916001806135418161055f565b9261354f610d08828661087a565b8096859861355b6107ab565b96613574600098610d6a61356e8b61055f565b876107b5565b61357d8861055f565b955b613591575b5050505050505050909150565b84861015613677576135a28861055f565b80885b6135d7575b50506135cd6135c688999a9b9c6135c08a610811565b90610824565b9660010190565b959a99989761357f565b8c811015613672579061366b82612d6b8f80610a79610a238f988f908f8f8f908f8f8e6134da61365e9c610d6a61356e8a61364c610a239a610a3f6136589f612ea89b6136529f869c8f610a23946136478f94613641610a2361364795612ea88f612ea89a6107cf565b996107cf565b610786565b936107cf565b946107cf565b8d6107b5565b610d6a6131f684876107cf565b90916135a5565b6135aa565b613584565b9093613692909593929561368e600090565b5090565b84036133ab576136a06107ab565b9485936136ad600061055f565b945b865b861015613721576137196135c66136b192610a3f88610b6a89610a3f8f610a798f806137138f610a2361370d91612ea86137068b610a3f8f8961337f610a23613700610a2394610a239f6107cf565b896107b5565b9c866107cf565b8561343f565b956107b5565b9590506136af565b9650945050505050565b600019811461079c5760010190565b9092909161374a82613647835190565b83900361388557613774613764600194613290600161055f565b61329061376f875190565b613d41565b8361379e61378283866107cf565b61379761378d865190565b61329086896107cf565b9085613532565b6137a6610696565b966137b1600061055f565b925b61381d575b505050908392916137c9600061055f565b945b6137d8575b505050505090565b90919293946137e48290565b861015613817576132e961380d91610a3f6137fd6107ab565b610a79610a236137008c8b6107cf565b93929190836137cb565b946137d0565b90919661382b610119835190565b881080613872575b1561386c5790613866613860889493610b6a8b610a3f610a23613859610a23848a6107b5565b92896107b5565b9861372b565b926137b3565b966137b8565b5061387e610119845190565b8810613833565b60405163081169f360e11b81528061087660026004830161070e565b929183516138b761083861011984613647875190565b036133ab576138c46107ab565b9384926138d1600061055f565b935b6138de610119845190565b85101561394b5761393e61394591610a3f86610b6a89610a3f8d610a79610a23613937613931610a238f8f9061392a612ea891610a3f610a238f61337f8f91613700610a2391846107cf565b9b8a6107cf565b8461343f565b948d6107b5565b9460010190565b936138d3565b955050505050565b610119612fb56000610811565b90613969825190565b8110156106c8570160200190565b610d6a61007892613990613989600090565b9184613494565b6139e9602060608501816139a2825190565b9160408801906139d4825192858585012098506139ca6132866139c3613953565b9251945190565b9060001a92613960565b530120940191610d6a8351613166600061055f565b51613166600161055f565b6101199061055f565b6101197f0e0a77c19a07df2f666ea36f7879462c0a78eb28f5c70b3dd35d438dc58f0d9d61055f565b90613a3c613a4291613a36600090565b506139f4565b916139f4565b613a4a6139fd565b91613a536133c7565b91821561343a57821561343a5761011993839109900861055f565b6101196020610064565b613a80613a6e565b9060608252565b610119613a78565b919091613a9a613a87565b90610a23613ad18395613abd600085015191610a796000958694612ea88661055f565b930192610a79610a238551612ea88661055f565b91600192839283613ae18161055f565b905b613ba4575b5090613b3582613b4393613b10610d08613b0188515190565b613b0a8a61055f565b906107cf565b9801978852610d6a613b29610a238751612ea88561055f565b91612ea88a519161055f565b610d6a8651612ea88661055f565b613b4c8261055f565b915b613b59575b50505050565b613b6561011982515190565b821015613b9f57613b9982612d6b613b82610a23879686516107b5565b610d6a8851612ea8613b938961055f565b866107cf565b91613b4e565b613b53565b92939091613bb461011986515190565b841015613be157613bd0613bd791610a79610a238789516107b5565b9360010190565b8194939291613ae3565b91909392613ae8565b90916000820151613c0d84613c08610a23600094612ea8600061055f565b6134ef565b613c17600261055f565b818401613c2661011982515190565b821015613c485790612d6b86613c08610a2384613c4396516107b5565b613c17565b505050915050565b9091906000810151613c6b610a23600092612ea8600061055f565b9380926001928391613c7d600161055f565b925b613c8c575b505050505050565b909192939496828201613ca161011982515190565b851015613cdb5785613cca613cd093610b6a613cc4610a238a613bd097516107b5565b8d613406565b99613406565b919085949395613c7f565b5096613c84565b6100789160608201916040613cf5845190565b9101519060200101526105756134d3602061055f565b15613d1257565b60405162461bcd60e51b815260206004820152600760248201526604255474c4f47360cc1b6044820152606490fd5b906000613d59613d51600061055f565b841415613d0b565b600192838103811615613d86575b60011c905b808211613d77575050565b90926001019260011c90613d6c565b60009350613d6756fea2646970667358221220797fb8f1c8b441084ff7f8f07ac39a0170924e59db5c970c0e5261a6c9acc41064736f6c63430008190033",
  "linkReferences": {},
  "deployedLinkReferences": {}
}