{
  "_format": "hh-sol-artifact-1",
  "contractName": "SparsePolynomialLib",
  "sourceName": "contracts/ucl/curves/blocks/SparsePolynomial.sol",
  "abi": [
    {
      "inputs": [
        {
          "components": [
            {
              "internalType": "uint256",
              "name": "index",
              "type": "uint256"
            },
            {
              "internalType": "uint256",
              "name": "scalar",
              "type": "uint256"
            }
          ],
          "internalType": "struct SparsePolynomialLib.Z",
          "name": "z0",
          "type": "tuple"
        },
        {
          "components": [
            {
              "internalType": "uint256",
              "name": "index",
              "type": "uint256"
            },
            {
              "internalType": "uint256",
              "name": "scalar",
              "type": "uint256"
            }
          ],
          "internalType": "struct SparsePolynomialLib.Z",
          "name": "z1",
          "type": "tuple"
        },
        {
          "components": [
            {
              "internalType": "uint256",
              "name": "index",
              "type": "uint256"
            },
            {
              "internalType": "uint256",
              "name": "scalar",
              "type": "uint256"
            }
          ],
          "internalType": "struct SparsePolynomialLib.Z",
          "name": "z2",
          "type": "tuple"
        }
      ],
      "name": "setupPoly_X",
      "outputs": [
        {
          "components": [
            {
              "internalType": "uint256",
              "name": "index",
              "type": "uint256"
            },
            {
              "internalType": "uint256",
              "name": "scalar",
              "type": "uint256"
            }
          ],
          "internalType": "struct SparsePolynomialLib.Z[]",
          "name": "",
          "type": "tuple[]"
        }
      ],
      "stateMutability": "pure",
      "type": "function"
    }
  ],
  "bytecode": "0x608060405234601d5760405161031561002382393081505061031590f35b600080fdfe6080604052600436101561001257600080fd5b60003560e01c6327a419b80361007a57610154565b634e487b7160e01b600052604160045260246000fd5b90601f01601f1916810190811067ffffffffffffffff82111761005f57604052565b610027565b9061007861007160405190565b928361003d565b565b600080fd5b919060408382031261007a576100a790602061009b6040610064565b94803586520190503590565b6020830152565b909160c08284031261007a576100de6100c7848461007f565b9360806100d7826040870161007f565b940161007f565b90565b906101016100fa6100f0845190565b8084529260200190565b9260200190565b9060005b8181106101125750505090565b90919261013b6101346001928651805182526020908101519082015260400190565b9460200190565b929101610105565b60208082526100de929101906100e1565b61017761016b6101653660046100ae565b9161025b565b60405191829182610143565b0390f35b6100de6100de6100de9290565b67ffffffffffffffff811161005f5760208091020190565b906101b26101ad83610188565b610064565b918252565b6100de6040610064565b6101c96101b7565b906000825260006020830152565b6100de6101c1565b60005b8281106101ee57505050565b6020906101f96101d7565b81840152016101e2565b90610078610219610213846101a0565b93610188565b601f1901602084016101df565b634e487b7160e01b600052603260045260246000fd5b90610245825190565b811015610256576020809102010190565b610226565b919061026f61026a600361017b565b610203565b9261028361027d600061017b565b8561023c565b52610297610291600061017b565b8461023c565b506102a5610291600161017b565b526102b96102b3600161017b565b8361023c565b506102c76102b3600261017b565b526102db6102d5600261017b565b8261023c565b509056fea26469706673582212204110bf840453ab116df5237f632fd39ce20dc57d6d22c1a8a8993f6ea301681a64736f6c63430008190033",
  "linkReferences": {},
  "deployedLinkReferences": {}
}