{
  "_format": "hh-sol-artifact-1",
  "contractName": "ERC1155Holder",
  "sourceName": "@openzeppelin/contracts/token/ERC1155/utils/ERC1155Holder.sol",
  "abi": [
    {
      "inputs": [
        {
          "internalType": "address",
          "name": "",
          "type": "address"
        },
        {
          "internalType": "address",
          "name": "",
          "type": "address"
        },
        {
          "internalType": "uint256[]",
          "name": "",
          "type": "uint256[]"
        },
        {
          "internalType": "uint256[]",
          "name": "",
          "type": "uint256[]"
        },
        {
          "internalType": "bytes",
          "name": "",
          "type": "bytes"
        }
      ],
      "name": "onERC1155BatchReceived",
      "outputs": [
        {
          "internalType": "bytes4",
          "name": "",
          "type": "bytes4"
        }
      ],
      "stateMutability": "nonpayable",
      "type": "function"
    },
    {
      "inputs": [
        {
          "internalType": "address",
          "name": "",
          "type": "address"
        },
        {
          "internalType": "address",
          "name": "",
          "type": "address"
        },
        {
          "internalType": "uint256",
          "name": "",
          "type": "uint256"
        },
        {
          "internalType": "uint256",
          "name": "",
          "type": "uint256"
        },
        {
          "internalType": "bytes",
          "name": "",
          "type": "bytes"
        }
      ],
      "name": "onERC1155Received",
      "outputs": [
        {
          "internalType": "bytes4",
          "name": "",
          "type": "bytes4"
        }
      ],
      "stateMutability": "nonpayable",
      "type": "function"
    },
    {
      "inputs": [
        {
          "internalType": "bytes4",
          "name": "interfaceId",
          "type": "bytes4"
        }
      ],
      "name": "supportsInterface",
      "outputs": [
        {
          "internalType": "bool",
          "name": "",
          "type": "bool"
        }
      ],
      "stateMutability": "view",
      "type": "function"
    }
  ],
  "bytecode": "0x60806040523460195760405161041561001f823961041590f35b600080fdfe6080604052600436101561001257600080fd5b60003560e01c806301ffc9a714610042578063bc197c811461003d5763f23a6e610361005a5761032a565b6102af565b610085565b6001600160e01b031981165b0361005a57565b600080fd5b9050359061006c82610047565b565b9060208282031261005a576100829161005f565b90565b3461005a576100b26100a061009b36600461006e565b610349565b60405191829182901515815260200190565b0390f35b6001600160a01b038116610053565b9050359061006c826100b6565b634e487b7160e01b600052604160045260246000fd5b90601f01601f1916810190811067ffffffffffffffff82111761010a57604052565b6100d2565b9061006c61011c60405190565b92836100e8565b67ffffffffffffffff811161010a5760208091020190565b80610053565b9050359061006c8261013b565b9092919261016361015e82610123565b61010f565b938185526020808601920283019281841161005a57915b8383106101875750505050565b602080916101958486610141565b81520192019161017a565b9080601f8301121561005a578160206100829335910161014e565b67ffffffffffffffff811161010a57602090601f01601f19160190565b90826000939282370152565b909291926101f461015e826101bb565b938185528183011161005a5761006c9160208501906101d8565b9080601f8301121561005a57816020610082933591016101e4565b91909160a08184031261005a5761024083826100c5565b9261024e81602084016100c5565b92604083013567ffffffffffffffff811161005a578261026f9185016101a0565b92606081013567ffffffffffffffff811161005a57836102909183016101a0565b92608082013567ffffffffffffffff811161005a57610082920161020e565b3461005a576100b26102ce6102c5366004610229565b939290926103a9565b604051918291826001600160e01b0319909116815260200190565b91909160a08184031261005a5761030083826100c5565b9261030e81602084016100c5565b9261031c8260408501610141565b926102908360608301610141565b3461005a576100b26102ce6103403660046102e9565b939290926103c4565b630271189760e51b6001600160e01b0319821614908115610368575090565b61008291506001600160e01b0319166301ffc9a760e01b1490565b61039c6103966100829263ffffffff1690565b60e01b90565b6001600160e01b03191690565b50505050506103b6600090565b5061008263bc197c81610383565b50505050506103d1600090565b5061008263f23a6e6161038356fea2646970667358221220f67f476fc8dc58e81f52703105fac3ed99ff6f584f2ac756179a3caad06462d264736f6c63430008190033",
  "linkReferences": {},
  "deployedLinkReferences": {}
}