{
  "_format": "hh-sol-artifact-1",
  "contractName": "STR",
  "sourceName": "contracts/drex-connect/STR.sol",
  "abi": [
    {
      "inputs": [
        {
          "internalType": "contract RealDigital",
          "name": "token",
          "type": "address"
        }
      ],
      "stateMutability": "nonpayable",
      "type": "constructor"
    },
    {
      "inputs": [
        {
          "internalType": "uint256",
          "name": "amount",
          "type": "uint256"
        }
      ],
      "name": "requestToBurn",
      "outputs": [],
      "stateMutability": "nonpayable",
      "type": "function"
    },
    {
      "inputs": [
        {
          "internalType": "uint256",
          "name": "amount",
          "type": "uint256"
        }
      ],
      "name": "requestToMint",
      "outputs": [],
      "stateMutability": "nonpayable",
      "type": "function"
    }
  ],
  "bytecode": "0x60806040523461002a576100196100146100c2565b610136565b6040516103c361014282396103c390f35b600080fd5b634e487b7160e01b600052604160045260246000fd5b90601f01601f191681019081106001600160401b0382111761006657604052565b61002f565b9061007f61007860405190565b9283610045565b565b6001600160a01b031690565b90565b6001600160a01b0381160361002a57565b9050519061007f82610090565b9060208282031261002a5761008d916100a1565b61008d610505803803806100d58161006b565b9283398101906100ae565b61008d90610081906001600160a01b031682565b61008d906100e0565b61008d906100f4565b9061011661008d610132926100fd565b82546001600160a01b0319166001600160a01b03919091161790565b9055565b61007f90600061010656fe6080604052600436101561001257600080fd5b60003560e01c80637d637f871461003257638a8b198f0361004057610088565b61006b565b805b0361004057565b600080fd5b9050359061005282610037565b565b906020828203126100405761006891610045565b90565b346100405761008361007e366004610054565b6102eb565b604051005b346100405761008361009b366004610054565b610384565b610068905b6001600160a01b031690565b61006890546100a0565b610068906100a5906001600160a01b031682565b610068906100bb565b610068906100cf565b634e487b7160e01b600052604160045260246000fd5b90601f01601f1916810190811067ffffffffffffffff82111761011957604052565b6100e1565b801515610039565b905051906100528261011e565b906020828203126100405761006891610126565b610150906100a5565b9052565b6020810192916100529190610147565b6040513d6000823e3d90fd5b602080825260139082015272135d5cdd081899481c185c9d1a58da5c185b9d606a1b604082015260600190565b156101a457565b60405162461bcd60e51b8152806101bd60048201610170565b0390fd5b6101d36101ce60006100b1565b6100d8565b9060206101df60405190565b92839063f16dfbe960e01b825281806101fb3360048301610154565b03915afa918215610250576100529261021c91600091610221575b5061019d565b61027f565b610243915060203d602011610249575b61023b81836100f7565b810190610133565b38610216565b503d610231565b610164565b600091031261004057565b91602061005292949361027b60408201966000830190610147565b0152565b61028c6101ce60006100b1565b803b15610040576102c26000929183926102a560405190565b94859384928391906340c10f1960e01b5b83523360048401610260565b03925af18015610250576102d35750565b6100529060006102e381836100f7565b810190610255565b610052906101c1565b6103016101ce60006100b1565b90602061030d60405190565b92839063f16dfbe960e01b825281806103293360048301610154565b03915afa918215610250576100529261034991600091610221575061019d565b6103566101ce60006100b1565b803b15610040576102c260009291839261036f60405190565b948593849283919063079cc67960e41b6102b6565b610052906102f456fea26469706673582212204226cf7370be38ef2190c0520b4e7d5e1469af05e042311d1920b99c4b5c6a3864736f6c63430008190033",
  "linkReferences": {},
  "deployedLinkReferences": {}
}