{
  "_format": "hh-sol-artifact-1",
  "contractName": "PoseidonU2bn256Hasher",
  "sourceName": "contracts/poseidon/PoseidonHasher.sol",
  "abi": [
    {
      "inputs": [
        {
          "internalType": "bytes32",
          "name": "input0",
          "type": "bytes32"
        },
        {
          "internalType": "bytes32",
          "name": "input1",
          "type": "bytes32"
        }
      ],
      "name": "hash2",
      "outputs": [
        {
          "internalType": "bytes32",
          "name": "",
          "type": "bytes32"
        }
      ],
      "stateMutability": "pure",
      "type": "function"
    },
    {
      "inputs": [
        {
          "internalType": "uint256",
          "name": "input0",
          "type": "uint256"
        },
        {
          "internalType": "uint256",
          "name": "input1",
          "type": "uint256"
        }
      ],
      "name": "hash2a",
      "outputs": [
        {
          "internalType": "uint256",
          "name": "",
          "type": "uint256"
        }
      ],
      "stateMutability": "pure",
      "type": "function"
    },
    {
      "inputs": [
        {
          "internalType": "bytes32",
          "name": "input0",
          "type": "bytes32"
        },
        {
          "internalType": "bytes32",
          "name": "input1",
          "type": "bytes32"
        },
        {
          "internalType": "bytes32",
          "name": "input2",
          "type": "bytes32"
        }
      ],
      "name": "hash3",
      "outputs": [
        {
          "internalType": "bytes32",
          "name": "",
          "type": "bytes32"
        }
      ],
      "stateMutability": "pure",
      "type": "function"
    },
    {
      "inputs": [
        {
          "internalType": "bytes32",
          "name": "input0",
          "type": "bytes32"
        },
        {
          "internalType": "bytes32",
          "name": "input1",
          "type": "bytes32"
        },
        {
          "internalType": "bytes32",
          "name": "input2",
          "type": "bytes32"
        },
        {
          "internalType": "bytes32",
          "name": "input3",
          "type": "bytes32"
        }
      ],
      "name": "hash4",
      "outputs": [
        {
          "internalType": "bytes32",
          "name": "",
          "type": "bytes32"
        }
      ],
      "stateMutability": "pure",
      "type": "function"
    },
    {
      "inputs": [
        {
          "internalType": "uint256[]",
          "name": "inputs",
          "type": "uint256[]"
        }
      ],
      "name": "hasha",
      "outputs": [
        {
          "internalType": "uint256",
          "name": "",
          "type": "uint256"
        }
      ],
      "stateMutability": "pure",
      "type": "function"
    }
  ],
  "bytecode": "0x608060405234601d5760405161338b61002382393081505061338b90f35b600080fdfe6080604052600436101561001257600080fd5b60003560e01c80636352400414610062578063b30c0b6a1461005d578063b31d0cd014610058578063b94b446c146100535763dc51437c0361006757610262565b610216565b6101d7565b6100c4565b610099565b600080fd5b905035905b565b91906040838203126100675761009690602061008f828661006c565b940161006c565b90565b6100c06100b06100aa366004610073565b906102bc565b6040519182918290815260200190565b0390f35b6100c06100b06100d5366004610073565b9061030e565b634e487b7160e01b600052604160045260246000fd5b90601f01601f1916810190811067ffffffffffffffff82111761011357604052565b6100db565b9061007161012560405190565b92836100f1565b67ffffffffffffffff81116101135760208091020190565b909291926101596101548261012c565b610118565b938185526020808601920283019281841161006757915b83831061017d5750505050565b6020809161018b848661006c565b815201920191610170565b9080601f830112156100675781602061009693359101610144565b9060208282031261006757813567ffffffffffffffff8111610067576100969201610196565b6100c06100b06101e83660046101b1565b6103f4565b909160608284031261006757610096610206848461006c565b93604061008f826020870161006c565b6100c06100b06102273660046101ed565b916104d1565b60808183031261006757610241828261006c565b92610096610252846020850161006c565b93606061008f826040870161006c565b6100c06100b061027336600461022d565b92919091610551565b6100966060610118565b6100966100966100969290565b6100967f30644e72e131a029b85045b68181585d2833e84879b9709143e1f593f0000001610286565b6102f7610096926102cb600090565b506102f06102d761027c565b936102e96102e56003610286565b8652565b6020850152565b6040830152565b6102ff610293565b9061063d565b61009690610286565b610096916102f761033361032d61033e94610327600090565b50610305565b92610305565b6102f06102d761027c565b610286565b1561034a57565b60405162461bcd60e51b815260206004820152602360248201527f506f736569646f6e4861736865723a20696e76616c696420696e70757420636f6044820152621d5b9d60ea1b6064820152608490fd5b6103a361027c565b600080825260208201819052604082015290565b61009661039b565b634e487b7160e01b600052603260045260246000fd5b906103de825190565b8110156103ef576020809102010190565b6103bf565b9081519161041560019361040f61040b6001610286565b9190565b11610343565b61041d6103b7565b9260009161043b6104376104316000610286565b836103d5565b5190565b9261044860208701948552565b826104536001610286565b905b610468575b505050506100969192505190565b610473610096845190565b8110156104cc576104c69061049161048b6003610286565b848a0152565b6104a86104a161043783876103d5565b60408a0152565b6104c06104bc6104b6610293565b8a61063d565b8752565b60010190565b83610455565b61045a565b9061043761054d610096946104f46104ee61033e96610327600090565b94610305565b6105166104ff61027c565b916102f061050d6000610286565b976102e9898652565b6105486102f0610524610293565b93610543610532868661063d565b9861053f602087019a8b52565b8552565b610305565b61063d565b8252565b61054d6100969461033e9461054861057761057161043796610327600090565b96610305565b916105a861058361027c565b936105a16105916000610286565b9961059a8b8852565b6020870152565b6040850152565b6105fd6105b3610293565b946105436105c1878761063d565b996105ce602088019b8c52565b86946105dc90610543838852565b946105e960408901968752565b6105fa6105f68a8a61063d565b8d52565b52565b9052565b1561060857565b60405162461bcd60e51b815260206004820152600d60248201526c1253959053125117d253941555609a1b6044820152606490fd5b6104376100969261064c600090565b50610661610658845190565b82905b10610601565b6020830192610678610671855190565b839061065b565b610686610671604083015190565b61072361069161027c565b6106bd61054d7f1051abd795bb781c5bcb3d4c7320b88f033cb1904c5b8559bf08995be4d6305d610286565b6106f06106e97f2680c4e5e102394a8c53c7ca99003cbeb3422caedbfa62c2373862e367a3dd00610286565b6020830152565b61071c6102f07f132e8252ba372e32578a441ca6b0865f73d890c968dd8b7642f5b483676160b6610286565b8383612ebe565b61072d8282612f47565b6107378282613049565b6107c661074261027c565b61076e61054d7f0dff6973df3b1f559d2e21ede06b857c63e4da1bd50a03e4d500e226dd108be7610286565b61079a6106e97f05e9463e0290d75eb2948587b1f9a7ca52ea91c9e57b322cdfab3c4822f1abbd610286565b61071c6102f07f2365c6a8b9928e31609cb8190336a6a2eebf69b015bc7958840576fd4e42da38610286565b6107d08282612f47565b6107da8282613049565b6108696107e561027c565b61081161054d7f16aa8ba01611f750811cbb3d4257f53a969fccaec3130b7a6441c39c9bae8458610286565b61083d6106e97f2717b1a58bf1978c6af4069069429e64ea024efd3b9be8fe8aa2bf1d8c28f42d610286565b61071c6102f07f2d26bd604c702d7c74850099492efb38bc836c3cb88602e1679ddb53557292bf610286565b6108738282612f47565b61087d8282613049565b61090c61088861027c565b6108b461054d7f174a4de6c44cab3c9781597fa27c024f7c7a114632a541ed7fed2deb245a85e1610286565b6108e06106e97f1d3e5ecbb083875c59541464dc6e7d1a59b4f68d985a213b28314a3004ec6809610286565b61071c6102f07f014edb6e589987b69e282db5f52c1b0bbe8704e601154c6a0afe84b52f9a4aae610286565b6109168282612f47565b6109208282613049565b6109af61092b61027c565b61095761054d7f0e0d8d1e063d74b601a548eae7d368fd8ac907dd9145beaf63f2e2a6a28fccd5610286565b6109836106e97f0602ae8ffb9d13f3cce1e3ae3c2f494b03d3fc2fc6426d5fe6cc1c312d068da2610286565b61071c6102f07f23868f037d108e9346a8d63130d6d9aab87e701c1828c574fa67cc8c1177a6b3610286565b6109b982826132f1565b6109c38282613049565b610a526109ce61027c565b6109fa61054d7f1073b5a9ce850e2d6f16e5776b4ee254146ed65bbd8f50d36e17747778af00d2610286565b610a266106e97f073da226b5a2639fe26496cdc3dbd5fd769984dc39e44003781d9140596543c4610286565b61071c6102f07f2cfbfacaaab3b3526fd0dc6d369646f3fe3948da0fa8a132f0dbde96b5ddc9e6610286565b610a5c82826132f1565b610a668282613049565b610af5610a7161027c565b610a9d61054d7f0fc0855a69b277b726ac164b86ffba19954c0d59802838c4f032df5ca38ae88e610286565b610ac96106e97f2649f096f1e407adbe09b44a07c54ec03f23cdef4b1e4c96d81f632df917e0e0610286565b61071c6102f07f0f9c0aa8c10f48a205c7ed49d1cffa12829b53ac76840f3a0aff6cb10418ca40610286565b610aff82826132f1565b610b098282613049565b610b98610b1461027c565b610b4061054d7f11547a7f704f1eb0394663d4afc2fe19823910bebe3147b6f0ffb7f8433838e1610286565b610b6c6106e97f16aff7c7076d3487c8d10e640da7652a5f3a007967eaa7282ced25e89b61787d610286565b61071c6102f07f011a06492822359dbd9406c3afba3bfa469147f483f0ae78c80f9077de480b86610286565b610ba282826132f1565b610bac8282613049565b610c3b610bb761027c565b610be361054d7f0d7f084fe4f168dd3b06a36866399b1c4c3c6a7f247f317d8463d9e447608134610286565b610c0f6106e97f078b6029f46dc32407770079ff46c9b20accea7cd0120ef5fdca18a7cb65b127610286565b61071c6102f07f2dea4e22de864b493684aebb0a692f939ce841aebf83330c13f2ee57071793ae610286565b610c4582826132f1565b610c4f8282613049565b610cde610c5a61027c565b610c8661054d7f08cbcba0c91b3981c0207f75e4b0f032feaf5480e4aa243c946d938a2a57645f610286565b610cb26106e97f02d8f99ea79dbde1025ea741c56c3e6978e7eb7b820eb30148d6c059bb8c365e610286565b61071c6102f07f109b2d0bcdbd121d2764beeec0284a1b13cdb171ab316e729f6980adb7e219a3610286565b610ce882826132f1565b610cf28282613049565b610d81610cfd61027c565b610d2961054d7f06a25826dc6271bf8c924962da4cda44dc320d0c66f31fd2efef0bd9b9f8fe35610286565b610d556106e97f1a63e4e11c99ecbb52b14e202fd651a9872e560e9403fa2d9f33d20bcc32bca4610286565b61071c6102f07f03fb5deb4cdadf1ce955fa3c091f2dfb8c58951760769d1484f06ccf3a687d5b610286565b610d8b82826132f1565b610d958282613049565b610e24610da061027c565b610dcc61054d7f0bdac171754f43976c5cafd607771b9c7704e9d1c5576b87fe2aa0d80ab0fe01610286565b610df86106e97f253a502bcfb721c80a2774434713ef20fad993dc5751c0673f44ef976d5ce751610286565b61071c6102f07f0e21300aec534829255add130d31da0dc54282656e893cba45b81b123671c2c5610286565b610e2e82826132f1565b610e388282613049565b610ec7610e4361027c565b610e6f61054d7f0d9d748361f6bbb3782751508fd274913d9153eff951dba21f3b20e69f229a36610286565b610e9b6106e97f1eafe91d860ad0794059d7abe25ffa38d1e0229f64f81d34eeffadb1575edfc8610286565b61071c6102f07f1208792af32377cd04bf0b77947ef589d4069b8743bc8b4878d09daa669b6b9b610286565b610ed182826132f1565b610edb8282613049565b610f6a610ee661027c565b610f1261054d7f0c8593f0fd900eba22c520adca2fac43ef1e22676c396804a421cb9b10ec78a4610286565b610f3e6106e97f1bd21887ff52ef7fc2535b98dc27cf269baa0905b006bc8c347518da237c0eba610286565b61071c6102f07f1f286d70c425a4f9c587777c055274940a860def2ee096dd382b3098b526a211610286565b610f7482826132f1565b610f7e8282613049565b61100d610f8961027c565b610fb561054d7f12f295cba6747661e15782c98dfc37986ff39910b5ade0af270359a0240ac15c610286565b610fe16106e97f27b574790203bde222f06ec565eeb97b5cb638d48b91d696406ad922c5cef4aa610286565b61071c6102f07f0b48c200ed9b9c2e06ccf0b4bf7879aa04a4f3c96a123c76b141014cf1cf3db7610286565b61101782826132f1565b6110218282613049565b6110b061102c61027c565b61105861054d7f102542507dd3efd2985a8c1f32b693db8bbdb68915ddfcde0495319274cb805e610286565b6110846106e97f179ecf51290f06d865c9a5f2b0e0c0d8538f1e0cd827aeebc17a52243892961a610286565b61071c6102f07f095495252df2a4b0436c4ed7475418d3ddbceeedefa21c93f869d2ef7af8d0e7610286565b6110ba82826132f1565b6110c48282613049565b6111536110cf61027c565b6110fb61054d7f0199f70bfee188c09adc670d87ab0faf853a05009f4bf5f02ccc1118ebddfd04610286565b6111276106e97f2c4424651e6612ac440f1a0337c11ab8de4e454b02e541f0d9fd94c71fe8894e610286565b61071c6102f07f1026a6b199faf95f5d25039aa4ac197858efccc396d022ef2a91b6e8daefd401610286565b61115d82826132f1565b6111678282613049565b6111f561117261027c565b61119e61054d7f1592410f12e9ed7cb9a4e179545bb25e1ccd1fe651a357384c25c4069c91f447610286565b6111ca6106e97f2eb2a6361decccd18af7220bf07acaba1aa2f72df3c8987f2de50550e2958ec1610286565b61071c6102f07e4e18672f832f967bc48680deea67cfaa5239523c8300431b3a5d6841c6c83a610286565b6111ff82826132f1565b6112098282613049565b61129861121461027c565b61124061054d7f15d58a38461f1a3ff4fa48c05893549ccc347de223c3defa6b62ad235f8f273c610286565b61126c6106e97f2f8b363cb00ed6b4c59cdccdd8bc00c2b74a20692f50684554d26aded7e536fe610286565b61071c6102f07f29723a5dce93cca5d1b5fa130caa23df1a0dc60d1b04a5af92cee4f9725c35c7610286565b6112a282826132f1565b6112ac8282613049565b61133b6112b761027c565b6112e361054d7f2c54d95a6a6f7e09e4c3562ecf6d09641e29a72cc7a46e97555232044a6a8aaa610286565b61130f6106e97f2a62c847a7404e47d198158bc9783f57a7e9e936a512ebdb6ed07ed81040f9d1610286565b61071c6102f07f1276cfc056c55b3a9feb8734289c38bb99f2d4adb5df85b9c6baff7f42489ddc610286565b61134582826132f1565b61134f8282613049565b6113de61135a61027c565b61138661054d7f27074fb9a068da4dc423e47f968c2967012a8238c74008a2d3cfae739a454417610286565b6113b26106e97f13b3cc235d66d3f0db7862ee5b3e78a7ae3fbcb379571af077693fa3a318baf6610286565b61071c6102f07f1d4f5cbb8ed933063b61afb45c92a6e42cb80baac351ddd75efd8ada23535e31610286565b6113e882826132f1565b6113f28282613049565b6114816113fd61027c565b61142961054d7f2d4a0453f7e3632194d15444457f033b28822ac9e46aa9e8141ec98968666229610286565b6114556106e97f0996408db77890304cec004cff24e7031f20d91245bf698b8d85185ba4c6ca3c610286565b61071c6102f07f154c4433d7bc73b4bcbd880f933fd7ae87e618b381b3529bcffc2281cbb1ba7f610286565b61148b82826132f1565b6114958282613049565b6115236114a061027c565b6114cc61054d7f0dfe738c2dfa783eeb594adf67c5e2b5581de47f8c9cfa8a37fffde204eeb4fd610286565b6114f76106e97e9517fcab532346f0c8b3dbce4a6b24e901772bd3bfb55dd4f4cc1886be22cb610286565b61071c6102f07f0e87f69b7ba84abd34fb9822c91cc4053914904860eb136b5f24dc56c7ea4ef2610286565b61152d82826132f1565b6115378282613049565b6115c661154261027c565b61156e61054d7f20f6ebe7f3b318d178af7fb4ebfe5e71b5d3380ee0ce07f275051f52fbce3d50610286565b61159a6106e97f1f93934dc4dd378c4ef0c106dd721e55d59db5910d92cc721dbd1b71e8b16ac9610286565b61071c6102f07f1c9601af9f45092f62ed342e62ce154a3ee2583025f089235ced1ae2f1f84f9d610286565b6115d082826132f1565b6115da8282613049565b6116696115e561027c565b61161161054d7f04dd1e6797a385c12d4b7f911a28ac12149e3ebbe1ad536870725a7b494b13b0610286565b61163d6106e97f23e7a5d59830db614d16a0ed4eeaeaee5b793aa39af8ff56aa7ca3bfefcdefba610286565b61071c6102f07f12f8f2d6c41e9d384e01d138695acff6a73b557f5d2606e598cb0ffec69f091d610286565b61167382826132f1565b61167d8282613049565b61170c61168861027c565b6116b461054d7f01376653f8bcf8fcec5ed8c851453e6bdc678f31fc9c8b94453230e99068d2b7610286565b6116e06106e97f26b0bf23169407407b4c3b437d920b74c7ba13058818edcbe4eed125540eea78610286565b61071c6102f07f03a8a2797f6d8244e383f51fdc0edc69873d81d75b6ac0b92643e4b02f67113d610286565b61171682826132f1565b6117208282613049565b6117af61172b61027c565b61175761054d7f0758e495264cace99acef218843149d62c2de064a62936ad4161a862198b697f610286565b6117836106e97f1973c04a42a8996d5f38671e71d3be5778de8bd4854259e8bb461ffc56399278610286565b61071c6102f07f2ff27debeb99ece34cb68ad054c3725eb8ee3857dc97961896e1691a1e76a6e5610286565b6117b982826132f1565b6117c38282613049565b6118526117ce61027c565b6117fa61054d7f1b2316eab766bda304543e47474aef9ce91830a717686d5f74891d25eda9e3d2610286565b6118266106e97f29186c9e4543d1e838518a836cd160fea11d0399d40d4a44248b5b86773454d3610286565b61071c6102f07f2fb5e09aaf4fb0f3e29d8037046242dfcfc25e0acb6942d709f339c80d62156f610286565b61185c82826132f1565b6118668282613049565b6118f561187161027c565b61189d61054d7f2d026814a08dc4497c6e249debdf0be4584d75fc1565dccb36549687fcdce5f7610286565b6118c96106e97f1f530540f99193b2535359650505dcdbabd5dae0e7a25029eb427da77dfd29d5610286565b61071c6102f07f059f1ad84cfaf236838c5dd78cf530e0f008631d7b911b108f9e9e35927a6a0c610286565b6118ff82826132f1565b6119098282613049565b61199861191461027c565b61194061054d7f0f0cb8516e7358e13f8d29e3d7ca3b8772da3f34c38dd54b79f32a64d3a173a9610286565b61196c6106e97f0a7b0e2f1fa2d3b05d30ba4010d38a04a413e0b31aefd44a62cfd75bdefaacb9610286565b61071c6102f07f29785cee4a463f7c6a9d0faf92b5d7835e2cf7ed758ece279a896d3165f06e2a610286565b6119a282826132f1565b6119ac8282613049565b611a3b6119b761027c565b6119e361054d7f0550c951520a57c7ea1253ce4198f5151aaa801da0c49b6b1599e1c4e9cd4a41610286565b611a0f6106e97f0e4f3013a99a670d3b60456f721932b60627daa3be8aedfe7e4d84d5528d5a94610286565b61071c6102f07f116159f5f5be7755a0d02232fed8d99f2bcf672536c1373bcbddc83cfe7fa461610286565b611a4582826132f1565b611a4f8282613049565b611ade611a5a61027c565b611a8661054d7f05f3b1526b9d0dcaec2d707ac31e87e8699a46c852ac9ef94abd5767de5cff47610286565b611ab26106e97f095e04894544e210764ff538802121e800b39970585063fe611136276aa16fe5610286565b61071c6102f07f2ade487b239c12bb48ff17f278758dca8dd1278972daef778f4c118dec3dcf39610286565b611ae882826132f1565b611af28282613049565b611b81611afd61027c565b611b2961054d7f053e3aa1aba2476edb26d2463332a0e186ed428adeee869d822401930f9e4128610286565b611b556106e97f2df9eb23269d857b49c76080928a62e518402ec26aeace0c0d88790830e5e23f610286565b61071c6102f07f224883469ecba978372e4e9412c3a434b7058d9d76f1d1869ca187ba7c1590d5610286565b611b8b82826132f1565b611b958282613049565b611c24611ba061027c565b611bcc61054d7f0e0dba4c312b41bb89edcff913835681a106d97ea723735220c2cd806f16968b610286565b611bf86106e97f2d9ce08f05ffc1eced293bd9f8fb89d7bef456b2b0fec016e795c4159325337b610286565b61071c6102f07f162b649549c5adc5f781e37b7df61e7ce65f084b9825a23d9b6aa4bdc248e998610286565b611c2e82826132f1565b611c388282613049565b611cc7611c4361027c565b611c6f61054d7f2323a160c2346980dabf302e69e2cd88f307c1741dd583d36a06733f0a0936c8610286565b611c9b6106e97f047d629034c42906bff290342b2bafa612f08b0f888fd5c5ea02384c639adb87610286565b61071c6102f07f16749375afac68bb87291b6167aa55e389e69932dacacbf3762fea925d7ee5c1610286565b611cd182826132f1565b611cdb8282613049565b611d6a611ce661027c565b611d1261054d7f14f633ba5f21231117f4d938bdba1ad6587f37312dd852ae22e508b2557524f9610286565b611d3e6106e97f2d02f2b341f65ad9d99e89cba23a797806168efeb2da8169f7893783c9acb782610286565b61071c6102f07f25f565e2ea7cb2faff221c35deec04b825960e1b26edd936b39fd2c55a48bffa610286565b611d7482826132f1565b611d7e8282613049565b611e0d611d8961027c565b611db561054d7f0febd4fef89c49b6b12c353e3efb358203aef5f13e2e25cdc88a9fae17a48ba9610286565b611de16106e97f11d001a9456099cd86c95cdef6bfda0434d6f52394944335cd6513bb41add7c3610286565b61071c6102f07f1cc2b66fcd7d66e5ff81955bed3ce8d976aae481f100e40a5078171cfad690b4610286565b611e1782826132f1565b611e218282613049565b611eb0611e2c61027c565b611e5861054d7f16a755dc1ad34b4562a9d57dd375ba68bbe5424df505a5df3d1d1c16fc6f516e610286565b611e846106e97f1c6d0e7f77d871f89f0324dad2cf370292f81cd8d567129b56384ebe8f14b078610286565b61071c6102f07f278006a7fd3b154b9f25be54a013734b0a5372ff88377c26eb219039558a281d610286565b611eba82826132f1565b611ec48282613049565b611f53611ecf61027c565b611efb61054d7f22eb2867a539a9b6ff51d4a48b4cd8419252d07c0665d0baf82acf8aef7de8ad610286565b611f276106e97f1a128b7188d4e3f1c22aa4bc4525bb26b50ebd80f50f267988bfe2e466e56a94610286565b61071c6102f07f1d2faa5c28aa1d533513cba89750b93ce71b4510c4c215eb1974a59051c5b093610286565b611f5d82826132f1565b611f678282613049565b611ff6611f7261027c565b611f9e61054d7f28eb1c41a050dc8aa3f9a8037cb81f575e5b1acadc49e886e90bee7f1a485149610286565b611fca6106e97f1e2586cbca2364027ac96ad1490271b866e723385e96c9f720a72b1f67078e6e610286565b61071c6102f07f13c7e5c7724e33d7acec9e42ff8a4ee4f1ac8b6d0038f0faf4908e74ed06c9ba610286565b61200082826132f1565b61200a8282613049565b61209961201561027c565b61204161054d7f09bf059ab4925c39c6df84371572785d35e40be573fdf1be914ff6a87066923e610286565b61206d6106e97f1b7375f3920e121871cbc71e92a2f47518d26a20f236f9194a5c48f86dfabd38610286565b61071c6102f07f1494848f10672e535de527d6d0591019987f6e11ba33b6f6eb73dc59289c2e36610286565b6120a382826132f1565b6120ad8282613049565b61213c6120b861027c565b6120e461054d7f195378dcafdea646a00ae78d9e30487a41aa8b8864ef4035a751c3b8ece36b0c610286565b6121106106e97f0b6a5c76a2a2a0db3843ef11176411388025f380e7a2d7ef1a6acafda5899b0e610286565b61071c6102f07f0823e1d157f7c4712b4988af4a0396edb0950b1ccd001692e4eff681e14c2fef610286565b61214682826132f1565b6121508282613049565b6121df61215b61027c565b61218761054d7f1633b048d2f14628309dbdf5a52736c0c5de9bf96d7fb9d13a2cb4562074b222610286565b6121b36106e97f1f77ddd90f1eab23737895ec06a295467086513dec30b69738d226c82ed5e430610286565b61071c6102f07f09c71939b3672bf6aaaebcf3717dab67765d8b94726c19d76d57e7aec751b94f610286565b6121e982826132f1565b6121f38282613049565b6122816121fe61027c565b61222a61054d7f048139270f0ef8f68d0b07c5d0005d7ad91d41fe306c8587bcf32d742ca1937d610286565b6122556106e97e3adfb1444cbf59321984d74e4434f3ed8a2f2376a41f5b9f52b1a6172c03e5610286565b61071c6102f07f2eec4a7de823bf9531d3f842e9a9c74b0d0c4f8b56a5a25ede19b11f868b89ce610286565b61228b82826132f1565b6122958282613049565b6123246122a061027c565b6122cc61054d7f0ea574b644b9f4cba43338122827d08f07484a4ceb24ac9d00c4a668838900af610286565b6122f86106e97f054da055cd915cca9a0da4dd2cc86d99f08b287bba925305ecc28ed0bdd28990610286565b61071c6102f07f02965a1d1f26fcd147af96711976f84bc3f08a50e8b8c38f7e83e8638b8f4706610286565b61232e82826132f1565b6123388282613049565b6123c761234361027c565b61236f61054d7f1f97b34b9622f33893182c89f86ef052ce8e46a3bfe2e33fa2a34c5e051d91b8610286565b61239b6106e97f09a063b0b5ea468d93edeecfc089699f815eddbeb5e9369046740c7fea6d1cb5610286565b61071c6102f07f1242820c24afd7cc595f7a3dd0534c6cf1f00c6a84291c65417397c07d46b778610286565b6123d182826132f1565b6123db8282613049565b61246a6123e661027c565b61241261054d7f2983c402aec15b1d15f86a8d0378769832f0d5ed57aab1d11cc08b4509512da6610286565b61243e6106e97f136371a4b44febffc233bd009ba8673764d2a73512e0eab44024cb97134a3dd8610286565b61071c6102f07f2970729690bd8c8362bf5d0a76c215a03c26ef8a3e01eb91cb0e0c70ee25525e610286565b61247482826132f1565b61247e8282613049565b61250d61248961027c565b6124b561054d7f1c395ca2c5db9b254b9b0ef75ba5c0961750f646f9a6a68d60e33ca2ce84427d610286565b6124e16106e97f02356c76528c4b9ae14f13f529206cce462782256984db7e1c3aad5d6f367f68610286565b61071c6102f07f0c5a67378876463bdb3ff94d63e062ecef7bd040316eae92c8b035f693ec388e610286565b61251782826132f1565b6125218282613049565b6125b061252c61027c565b61255861054d7f1b2aafe5f720bfc99ef31b5e48b35df72fcc920e66c3d90d86537ae35ce6bff5610286565b6125846106e97f067987b7638b9b082848f8eba41ee203d3e90fc591407a4d87f81f088f9612a5610286565b61071c6102f07f148d4b0218744bcaccceb62b6313a57272a1545fd75d1a8ebbd736e4276d5e6d610286565b6125ba82826132f1565b6125c48282613049565b6126536125cf61027c565b6125fb61054d7f043f8986cc56fcf8e88680a1e8f1c247165bcdb9a6ca2d94c7418d10ad8ef847610286565b6126276106e97f1ef035d9ff4391c8001fbec565a65ca3cd3b7d0823bb062a9141503a79731f81610286565b61071c6102f07f0a5162e6b35a320dec11ba8639a1192f6a0a464f84dd3899c4dab9d4ebbfe024610286565b61265d82826132f1565b6126678282613049565b6126f661267261027c565b61269e61054d7f2b5c89e9872aed76baa36b83f87eb830fe16d34169f9eb1628e6fbeaa940cf3b610286565b6126ca6106e97f0625c126499750374f2d3fd08940d1c0238fbd8da85bdf47928188e3f9010627610286565b61071c6102f07f116bb85cfe6730c6448192438af1748221d2bb302b3258350cbebb1c5eccd965610286565b61270082826132f1565b61270a8282613049565b61279961271561027c565b61274161054d7f11aa65a2b09da598bb66377e54458c1dc4a7a3775f9c9cf51b2ebea5c871abfb610286565b61276d6106e97f280fbd8eb1ccc50603dbc78eb0bf9cb903cd9df30f0f25f215ad4c3e1fb6baf5610286565b61071c6102f07f0761a3e812087679e2748d24993af14664667aa3d713796c79507f2a63f8ed76610286565b6127a382826132f1565b6127ad8282613049565b61283c6127b861027c565b6127e461054d7f2ba668f10abf878c8010155d539eb3cc30bb698f0062b1ed338c526fd12ac96d610286565b6128106106e97f2f4e05914ef7c1b2edf41c51266d3dc3e75c91b4c8dcefef873287120021ce0c610286565b61071c6102f07f29274bd37d7863d5ec7a82f28bce6cf183fffd4f8176ad07b158f1df83c64804610286565b61284682826132f1565b6128508282613049565b6128de61285b61027c565b61288761054d7f0c48fad80901003d9b0da5451971f8eee03e4c394ec29da5bf20a7bfad98e41b610286565b6128b36106e97f16cf2cf2b9da985924e713d6559192ca6128ccf71b4fc7c7ee0142d1c32f20d9610286565b61071c6102f07eb7d9233273de8b110605a3a7820c13cf7019bacf7e5882a85d5689f15c8cc1610286565b6128e882826132f1565b6128f28282613049565b6129816128fd61027c565b61292961054d7f0f291f5ae7e99aabc73894608962de3b6b76490754c0861de32a58b1cdb86e18610286565b6129556106e97f253406b596a33f5cf4b7e83f26116eb40d9707911b4290b2af400d58d92cf210610286565b61071c6102f07f0812a4144d0d74bead1c5710d5239b640ccfc39fb66dab8eaf7cb3160fe35861610286565b61298b82826132f1565b6129958282613049565b612a246129a061027c565b6129cc61054d7f2d81a6da9eebc5d5d239d13b961bdeebadcce19f0625de11a866bbcd0ef6f174610286565b6129f86106e97f1a22dafad979cab2f645899290eb4daccd04feef3155d88567324d23646f5064610286565b61071c6102f07f1bff73ae8dcaec7d09db8cdaf9ca7a9a5d685a1665855b0fd4ab9c15289f181a610286565b612a2e82826132f1565b612a388282613049565b612ac7612a4361027c565b612a6f61054d7f0a16f8b0834ada0c92b57e0f3e79e31f4bc6c4fbfe1e1c8a22cce904c33ee709610286565b612a9b6106e97f0ce7964c214c6389d581357e69009a141e16451def5e801d313bad966d99548e610286565b61071c6102f07f2825c06bf975dfd5e8466bee81947fc45b6a3e704dfe0350a04a9ed19293b3e0610286565b612ad182826132f1565b612adb8282613049565b612b6a612ae661027c565b612b1261054d7f265917cf756c617609b958a33522fbaad9bdef1dfde2da8fc4d33b067058283f610286565b612b3e6106e97f305a6987d779fbb9c92aad8c64fd4398a501b347cf24d3ac0374379c3b988e0c610286565b61071c6102f07f19ba5a328c09be61df3216db8ccfca1392a45d45ef73c6d0bbdf798f52b0caea610286565b612b7482826132f1565b612b7e8282613049565b612c0d612b8961027c565b612bb561054d7f0569057f32180f19cf467121a3ff492228542300b440840ead6ed63ff96fc92e610286565b612be16106e97f300ade0e02d409aa9cbd650c5018bf52c8aa6b46c3523664404942451cdfd7f3610286565b61071c6102f07f13e7afc3e5b8ae05421d3101c6dcd069e9730f8b9a4d28b707919627d82ed576610286565b612c1782826132f1565b612c218282613049565b612cb0612c2c61027c565b612c5861054d7f302cebb80f47bc0d048b047e3ec4370a824d7741209189d6fafb2e923c95f674610286565b612c846106e97f0fec1e8606f9c19f09f3f6cbca8690f2a82c728121731c10b70a0a27425b7617610286565b61071c6102f07f01b36c8b38abe36f31c85dfa0a4223c2127f9e70d6cb00acca7b4b820c42b4f8610286565b612cba8282612f47565b612cc48282613049565b612d53612ccf61027c565b612cfb61054d7f1ae800dfd62a6f893226eaf46ed30630be2e658ca33bb2f8cb64a0ef6936167e610286565b612d276106e97f043f80240127ebfdfe64478e6b490c262943c0891c090e4f9e5da3a777397962610286565b61071c6102f07f284cc004329f4e38c3ca0e7b3148a180f6769757d97698a510f153ed07c0618b610286565b612d5d8282612f47565b612d678282613049565b612df6612d7261027c565b612d9e61054d7f0a18cfea20c4b70b9cfafbd495e4fb978527dd3adcbb2a1b51338f37b58eef02610286565b612dca6106e97f1bc11b2f6acc89e45bfc09641d1f50fe735abfd0fe6b4485e134afe45ad302a4610286565b61071c6102f07f27af048a94639f26777e999118a6a53c031cc694291d09c52dc41cfbf548c07f610286565b612e008282612f47565b612e0a8282613049565b612e99612e1561027c565b612e4161054d7f226ab5b34d54c58d1b8fdfa18c3718e0adb3382accc596eaaa90c06d43d6e8fd610286565b612e6d6106e97f2434cc868807d7dc6385a67ab520f6908cd692288595b76156d7b1191d024617610286565b61071c6102f07f05f662504bc7e177ef21ed6b4d8ef9a3dce1e82b88b2d48c35c0e23b405a15cf610286565b612ea38282612f47565b613049565b634e487b7160e01b600052601260045260246000fd5b90612ec76103b7565b82519293849381518415612f425784910882526020840180518392906020820151908615612f425760409187910896612f0260208701988952565b0195612f176040612f11895190565b93015190565b918615612f4257610071986105fd6104379661043760406105fd9b6105fd9861043797089a01998a52565b612ea8565b612f4f6103b7565b90918291612f5b835190565b84518315612f42578391098082528190808415612f4257612f7d918591098252565b84518151908415612f4257612f93918591098252565b602084018051808515612f425785910994612fb060208501968752565b8551808615612f4257612fc4918791098752565b815190612fcf875190565b8615612f425786612fe291604094098852565b0194612fec865190565b86518615612f42578660409161300493099501948552565b8351808615612f4257613018918791098552565b855190613023855190565b958015612f4257610071986105fd61043796610437610437946105fd9b6105fd98098a52565b6130516103b7565b9161305c6000610286565b83613065828252565b805193948594613073865190565b8515612f425785906130a47f2042def740cbc01bd03583cf0100e59370229adafbd0f5b62d414e62a0000001610286565b9009908515612f42576130b8918691088352565b815160208601916130c7835190565b917f244b3ad628e5381f4a3c3448e1210245de26ee365b4b146cf2e9782ef4000001928715612f425787906130fb85610286565b9009908715612f425761310f918891088552565b6040613119855190565b970196613124885190565b907f135b52945a13d9aa49b9b57c33cd568ba9ae5ce9ca4a2d06e7f3fbd4c6666667918815612f4257889061315884610286565b9009908815612f425761316c918991088652565b6020820192613179878552565b8351906131848b5190565b8915612f42576131948a92610286565b9009908815612f42576131a8918991088452565b825184518815612f425788906131bd84610286565b9009908815612f42576131d1918991088452565b8251916131dc895190565b927f285396b510feb022c442e4c2c1411ef84c2b4191bac53323b891a1fb48000001938915612f4257899061321086610286565b9009918915612f42576132298a61322f94604094088752565b01968752565b85519061323a8a5190565b8815612f425761324a8992610286565b9009908715612f425761325e918891088652565b845190613269845190565b8715612f42576132798892610286565b9009908615612f425761328d918791088552565b835190613298875190565b8615612f425786906132c97f06e9c21069503b73ac9dc0d0edede80d4ee2d80a5a8834a709b290cbfdb6db6e610286565b9009958015612f4257610071986105fd61043796610437610437946105fd9b6105fd98088a52565b60006132fb6103b7565b910190613306825190565b82518415612f42578460009161331e93099201918252565b8051808415612f4257613332918591098252565b81519061333d815190565b918415612f4257610071946105fd936104379209825256fea26469706673582212206cd7fe21d7434fa36c2851d5d35d997da052546ae78e565ac4276e9fe511161964736f6c63430008190033",
  "linkReferences": {},
  "deployedLinkReferences": {}
}