{
  "_format": "hh-sol-artifact-1",
  "contractName": "L2TMSC",
  "sourceName": "contracts/ucl/L2_tmsc_impl.sol",
  "abi": [
    {
      "inputs": [],
      "stateMutability": "nonpayable",
      "type": "constructor"
    },
    {
      "inputs": [
        {
          "internalType": "address",
          "name": "owner",
          "type": "address"
        },
        {
          "internalType": "address",
          "name": "token_address",
          "type": "address"
        },
        {
          "internalType": "uint256",
          "name": "token_type",
          "type": "uint256"
        },
        {
          "internalType": "address",
          "name": "spender",
          "type": "address"
        }
      ],
      "name": "allowance",
      "outputs": [
        {
          "internalType": "uint256",
          "name": "",
          "type": "uint256"
        }
      ],
      "stateMutability": "view",
      "type": "function"
    },
    {
      "inputs": [
        {
          "internalType": "address",
          "name": "spender",
          "type": "address"
        },
        {
          "internalType": "address",
          "name": "token_address",
          "type": "address"
        },
        {
          "internalType": "uint256",
          "name": "token_type",
          "type": "uint256"
        },
        {
          "internalType": "uint256",
          "name": "amount",
          "type": "uint256"
        }
      ],
      "name": "approve",
      "outputs": [
        {
          "internalType": "bool",
          "name": "",
          "type": "bool"
        }
      ],
      "stateMutability": "nonpayable",
      "type": "function"
    },
    {
      "inputs": [
        {
          "internalType": "address",
          "name": "account",
          "type": "address"
        },
        {
          "internalType": "address",
          "name": "token_address",
          "type": "address"
        },
        {
          "internalType": "uint256",
          "name": "token_type",
          "type": "uint256"
        }
      ],
      "name": "balanceOf",
      "outputs": [
        {
          "internalType": "uint256",
          "name": "",
          "type": "uint256"
        }
      ],
      "stateMutability": "view",
      "type": "function"
    },
    {
      "inputs": [
        {
          "internalType": "address",
          "name": "account",
          "type": "address"
        },
        {
          "internalType": "address",
          "name": "token_address",
          "type": "address"
        },
        {
          "internalType": "uint256",
          "name": "token_type",
          "type": "uint256"
        },
        {
          "internalType": "uint256",
          "name": "amount",
          "type": "uint256"
        }
      ],
      "name": "burn",
      "outputs": [
        {
          "internalType": "bool",
          "name": "",
          "type": "bool"
        }
      ],
      "stateMutability": "nonpayable",
      "type": "function"
    },
    {
      "inputs": [
        {
          "internalType": "address",
          "name": "account",
          "type": "address"
        },
        {
          "internalType": "address",
          "name": "token_address",
          "type": "address"
        },
        {
          "internalType": "uint256",
          "name": "token_type",
          "type": "uint256"
        },
        {
          "internalType": "uint256",
          "name": "amount",
          "type": "uint256"
        }
      ],
      "name": "mint",
      "outputs": [
        {
          "internalType": "bool",
          "name": "",
          "type": "bool"
        }
      ],
      "stateMutability": "nonpayable",
      "type": "function"
    },
    {
      "inputs": [
        {
          "internalType": "address",
          "name": "",
          "type": "address"
        },
        {
          "internalType": "address",
          "name": "",
          "type": "address"
        },
        {
          "internalType": "uint256[]",
          "name": "",
          "type": "uint256[]"
        },
        {
          "internalType": "uint256[]",
          "name": "",
          "type": "uint256[]"
        },
        {
          "internalType": "bytes",
          "name": "",
          "type": "bytes"
        }
      ],
      "name": "onERC1155BatchReceived",
      "outputs": [
        {
          "internalType": "bytes4",
          "name": "",
          "type": "bytes4"
        }
      ],
      "stateMutability": "nonpayable",
      "type": "function"
    },
    {
      "inputs": [
        {
          "internalType": "address",
          "name": "",
          "type": "address"
        },
        {
          "internalType": "address",
          "name": "",
          "type": "address"
        },
        {
          "internalType": "uint256",
          "name": "",
          "type": "uint256"
        },
        {
          "internalType": "uint256",
          "name": "",
          "type": "uint256"
        },
        {
          "internalType": "bytes",
          "name": "",
          "type": "bytes"
        }
      ],
      "name": "onERC1155Received",
      "outputs": [
        {
          "internalType": "bytes4",
          "name": "",
          "type": "bytes4"
        }
      ],
      "stateMutability": "nonpayable",
      "type": "function"
    },
    {
      "inputs": [
        {
          "internalType": "bytes4",
          "name": "interfaceId",
          "type": "bytes4"
        }
      ],
      "name": "supportsInterface",
      "outputs": [
        {
          "internalType": "bool",
          "name": "",
          "type": "bool"
        }
      ],
      "stateMutability": "view",
      "type": "function"
    },
    {
      "inputs": [
        {
          "internalType": "address",
          "name": "to",
          "type": "address"
        },
        {
          "internalType": "address",
          "name": "token_address",
          "type": "address"
        },
        {
          "internalType": "uint256",
          "name": "token_type",
          "type": "uint256"
        },
        {
          "internalType": "uint256",
          "name": "amount",
          "type": "uint256"
        }
      ],
      "name": "transfer",
      "outputs": [
        {
          "internalType": "bool",
          "name": "",
          "type": "bool"
        }
      ],
      "stateMutability": "nonpayable",
      "type": "function"
    },
    {
      "inputs": [
        {
          "internalType": "address",
          "name": "from",
          "type": "address"
        },
        {
          "internalType": "address",
          "name": "token_address",
          "type": "address"
        },
        {
          "internalType": "uint256",
          "name": "token_type",
          "type": "uint256"
        },
        {
          "internalType": "address",
          "name": "to",
          "type": "address"
        },
        {
          "internalType": "uint256",
          "name": "amount",
          "type": "uint256"
        }
      ],
      "name": "transferFrom",
      "outputs": [
        {
          "internalType": "bool",
          "name": "",
          "type": "bool"
        }
      ],
      "stateMutability": "nonpayable",
      "type": "function"
    },
    {
      "inputs": [
        {
          "internalType": "address",
          "name": "admin",
          "type": "address"
        },
        {
          "internalType": "bool",
          "name": "flag",
          "type": "bool"
        }
      ],
      "name": "updateAdmin",
      "outputs": [
        {
          "internalType": "bool",
          "name": "",
          "type": "bool"
        }
      ],
      "stateMutability": "nonpayable",
      "type": "function"
    }
  ],
  "bytecode": "0x6080604052346100225761001161017d565b6040516111316101e1823961113190f35b600080fd5b90600019905b9181191691161790565b6100446100446100449290565b90565b9061005761004461005e92610037565b8254610027565b9055565b61006f6100446100449290565b6001600160a01b031690565b61004490610062565b60208082526015908201527f696e76616c69642061646d696e20616464726573730000000000000000000000604082015260600190565b156100c257565b60405162461bcd60e51b8152806100db60048201610084565b0390fd5b6100449061006f906001600160a01b031682565b610044906100df565b610044906100f3565b9061010f906100fc565b600052602052604060002090565b9060ff9061002d565b151590565b9061013b61004461005e92610126565b825461011d565b6100449081565b6100449054610142565b634e487b7160e01b600052601160045260246000fd5b60001981146101785760010190565b610153565b61018960006002610047565b6101ae61019e610199600061007b565b61006f565b6101a73361006f565b14156100bb565b6101c260016101bd3382610105565b61012b565b6101de6101d76101d26002610149565b610169565b6002610047565b56fe6080604052600436101561001257600080fd5b60003560e01c806301ffc9a7146100c25780630411b252146100bd5780634dc5ecb3146100b8578063670a6fd9146100b3578063b3f1c93d146100ae578063bc197c81146100a9578063d26e0d18146100a4578063d7020d0a1461009f578063e543b90c1461009a578063e93119d9146100955763f23a6e61036100da576105da565b61057d565b610525565b6104ca565b6104ab565b61042c565b61023f565b610223565b6101cc565b6101ad565b610105565b6001600160e01b031981165b036100da57565b600080fd5b905035906100ec826100c7565b565b906020828203126100da57610102916100df565b90565b346100da5761013261012061011b3660046100ee565b6105f9565b60405191829182901515815260200190565b0390f35b6001600160a01b031690565b6001600160a01b0381166100d3565b905035906100ec82610142565b806100d3565b905035906100ec8261015e565b6080818303126100da576101858282610151565b926101026101968460208501610151565b9360606101a68260408701610164565b9401610164565b346100da576101326101206101c3366004610171565b929190916107cd565b346100da576101326101206101e2366004610171565b9291909161097c565b8015156100d3565b905035906100ec826101eb565b91906040838203126100da5761010290602061021c8286610151565b94016101f3565b346100da57610132610120610239366004610200565b90610b84565b346100da57610132610120610255366004610171565b92919091610c50565b634e487b7160e01b600052604160045260246000fd5b90601f01601f1916810190811067ffffffffffffffff82111761029657604052565b61025e565b906100ec6102a860405190565b9283610274565b67ffffffffffffffff81116102965760208091020190565b909291926102dc6102d7826102af565b61029b565b93818552602080860192028301928184116100da57915b8383106103005750505050565b6020809161030e8486610164565b8152019201916102f3565b9080601f830112156100da57816020610102933591016102c7565b67ffffffffffffffff811161029657602090601f01601f19160190565b0190565b90826000939282370152565b909291926103716102d782610334565b93818552818301116100da576100ec916020850190610355565b9080601f830112156100da5781602061010293359101610361565b91909160a0818403126100da576103bd8382610151565b926103cb8160208401610151565b92604083013567ffffffffffffffff81116100da57826103ec918501610319565b92606081013567ffffffffffffffff81116100da578361040d918301610319565b92608082013567ffffffffffffffff81116100da57610102920161038b565b346100da5761013261044b6104423660046103a6565b93929092610c84565b604051918291826001600160e01b0319909116815260200190565b919060a0838203126100da5761047c8184610151565b9261048a8260208301610151565b9261010261049b8460408501610164565b9360806101a68260608701610151565b346100da576101326101206104c1366004610466565b93929092610df5565b346100da576101326101206104e0366004610171565b92919091610f55565b6080818303126100da576104fd8282610151565b9261010261050e8460208501610151565b93606061051e8260408701610164565b9401610151565b346100da5761013261054461053b3660046104e9565b92919091610fed565b6040519182918290815260200190565b90916060828403126100da5761010261056d8484610151565b9360406101a68260208701610151565b346100da57610132610544610593366004610554565b91611025565b91909160a0818403126100da576105b08382610151565b926105be8160208401610151565b926105cc8260408501610164565b9261040d8360608301610164565b346100da5761013261044b6105f0366004610599565b93929092611032565b630271189760e51b6001600160e01b0319821614908115610618575090565b61010291506001600160e01b0319166301ffc9a760e01b1490565b906106406102d783610334565b918252565b61064f6015610633565b74696e76616c696420746f6b656e206164647265737360581b602082015290565b610102610645565b6101366101026101029290565b61010290610678565b60005b8381106106a15750506000910152565b8181015183820152602001610691565b6106d26106db602093610351936106c6815190565b80835293849260200190565b9586910161068e565b601f01601f191690565b6020808252610102929101906106b1565b156106fe5750565b6107209061070b60405190565b62461bcd60e51b8152918291600483016106e5565b0390fd5b9061010294939291610756610737610670565b6107446101366000610685565b6001600160a01b0386165b14156106f6565b61078b565b6107656012610633565b71696e76616c696420746f206164647265737360701b602082015290565b61010261075b565b90610102949392916107ba61079e610783565b6107ab6101366000610685565b6001600160a01b03851661074f565b506107c89392909133611099565b600190565b610102939291906000610724565b6107e56017610633565b7f696e76616c6964207370656e6465722061646472657373000000000000000000602082015290565b6101026107db565b906101029493929161082961079e61080e565b906101029493929161083c610737610670565b61091e565b61010290610136906001600160a01b031682565b61010290610841565b61010290610855565b906108719061085e565b600052602052604060002090565b6101026101026101029290565b906108719061087f565b6101029081565b6101029054610896565b156108ae57565b60405162461bcd60e51b815260206004820152601f60248201527f696e73756666696369656e742066756e647320666f7220617070726f76616c006044820152606490fd5b90600019905b9181191691161790565b9061091361010261091a9261087f565b82546108f3565b9055565b6109546107c89594600161094e610977966109729550600061097261096061095b610954888561094e8882610867565b0161088c565b3390610867565b61089d565b8b9061096b565b9190565b10156108a7565b610867565b610903565b610102939291906000610816565b1561099157565b60405162461bcd60e51b815260206004820152602d60248201527f6f6e6c792061646d696e206163636f756e7420697320616c6c6f77656420666f60448201526c39103a3434b99030b1ba34b7b760991b6064820152608490fd5b9061010292916109fc600261089d565b610a09610967600061087f565b141580610a45575b15610aba57610a40610a2e610a27336001610867565b5460ff1690565b610a3a60015b91151590565b1461098a565b610aba565b5073993120ffa250cf1879880d440cff0176752c17c2331415610a11565b9060ff906108f9565b90610a7c61010261091a92151590565b8254610a63565b634e487b7160e01b600052601160045260246000fd5b6000198114610aa85760010190565b610a83565b8015610aa8576000190190565b5060019182610acc610a278483610867565b610ad7821515610a34565b03610b205750610ae76000610a34565b14610af0575090565b6000610aff610b049284610867565b610a6c565b610102610b19610b14600261089d565b610aad565b6002610903565b90610b2e610a278484610867565b610b386000610a34565b14610b44575b50505090565b610b4f821515610a34565b14610b5b575b81610b3e565b610aff610b689282610867565b610b7d610b19610b78600261089d565b610a99565b3881610b55565b610102919060006109ec565b9061010294939291610ba2600261089d565b610baf610967600061087f565b141580610bd2575b15610bf057610bcd610a2e610a27336001610867565b610bf0565b5073993120ffa250cf1879880d440cff0176752c17c2331415610bb7565b9061010294939291610c03610737610670565b610c1e565b9190610c13565b9290565b8201809211610aa857565b906109726107c89594600061094e610c4a96610c3b965082610867565b91610c458361089d565b610c08565b90610903565b610102939291906000610b90565b610c77610c716101029263ffffffff1690565b60e01b90565b6001600160e01b03191690565b5050505050610c91600090565b5061010263bc197c81610c5e565b610ca96014610633565b73696e76616c69642066726f6d206164647265737360601b602082015290565b610102610c9f565b906101029594939291610ce561079e610cc9565b906101029594939291610cf9610737610670565b906101029594939291610d29610d0d610783565b610d1a6101366000610685565b6001600160a01b03881661074f565b610d93565b15610d3557565b60405162461bcd60e51b8152602060048201526024808201527f696e73756666696369656e7420616c6c6f77656420616d6f756e7420746f20736044820152631c195b9960e21b6064820152608490fd5b91908203918211610aa857565b90610972610c4a94600161094e610de696610ddf8b6107c89c9b6109549950610dd7610dcf61095b6109548c6109728c8c61094e8c6000610867565b831115610d2e565b86848a611099565b6000610867565b91610df08361089d565b610d86565b61010294939291906000610cd1565b9061010294939291610e16600261089d565b610e23610967600061087f565b141580610e46575b15610e9f57610e41610a2e610a27336001610867565b610e9f565b5073993120ffa250cf1879880d440cff0176752c17c2331415610e2b565b610e6e6017610633565b7f696e76616c6964206163636f756e742061646472657373000000000000000000602082015290565b610102610e64565b9061010294939291610eb261079e610e97565b9061010294939291610ec5610737610670565b610f16565b15610ed157565b60405162461bcd60e51b815260206004820152601860248201527f6e6f7420656e6f7567682066756e647320746f206275726e00000000000000006044820152606490fd5b906109726107c89594610c4a94610de6945061094e600091610f4f610f4761095b88610972888861094e8882610867565b8a1115610eca565b82610867565b610102939291906000610e04565b610f6d6015610633565b74696e76616c6964206f776e6572206164647265737360581b602082015290565b610102610f63565b9061010294939291610fa961079e610f8e565b9061010294939291610fbc610737610670565b9061010294939291610fcf610d0d61080e565b9061097261095b94600161094e610102989661097296506000610867565b610102939291906000610f96565b9061010293929161100d610737610670565b61010293600061094e61095b95610972945082610867565b6101029291906000610ffb565b505050505061103f600090565b5061010263f23a6e61610c5e565b1561105457565b60405162461bcd60e51b815260206004820152601e60248201527f696e73756666696369656e742066756e647320746f207472616e7366657200006044820152606490fd5b9261097283600061094e85610f4f6110ee8a6110df8d6110d86100ec9f9e610c0f610c4a9f610c3b9f9261097261095b928e61094e6109679782610867565b101561104d565b610972878761094e8782610867565b610c4a8b610df08361089d56fea264697066735822122065a1deb8a5ed8d3cff5e106fcde92348cc03cba50bb8808a00edd9f6e9ffe9c064736f6c63430008190033",
  "linkReferences": {},
  "deployedLinkReferences": {}
}