{
  "_format": "hh-sol-artifact-1",
  "contractName": "SimplePoseidon",
  "sourceName": "contracts/poseidon/SimplePoseidon.sol",
  "abi": [
    {
      "inputs": [
        {
          "internalType": "bytes32",
          "name": "input0",
          "type": "bytes32"
        },
        {
          "internalType": "bytes32",
          "name": "input1",
          "type": "bytes32"
        }
      ],
      "name": "hash2",
      "outputs": [
        {
          "internalType": "bytes32",
          "name": "",
          "type": "bytes32"
        }
      ],
      "stateMutability": "pure",
      "type": "function"
    },
    {
      "inputs": [
        {
          "internalType": "uint256",
          "name": "input0",
          "type": "uint256"
        },
        {
          "internalType": "uint256",
          "name": "input1",
          "type": "uint256"
        }
      ],
      "name": "hash2a",
      "outputs": [
        {
          "internalType": "uint256",
          "name": "",
          "type": "uint256"
        }
      ],
      "stateMutability": "pure",
      "type": "function"
    },
    {
      "inputs": [
        {
          "internalType": "uint256[]",
          "name": "inputs",
          "type": "uint256[]"
        }
      ],
      "name": "hasha",
      "outputs": [
        {
          "internalType": "uint256",
          "name": "",
          "type": "uint256"
        }
      ],
      "stateMutability": "pure",
      "type": "function"
    }
  ],
  "bytecode": "0x6080604052346019576040516103ac61001f82396103ac90f35b600080fdfe6080604052600436101561001257600080fd5b60003560e01c80636352400414610042578063b30c0b6a1461003d5763b31d0cd003610047576101c1565b6100a9565b610079565b600080fd5b905035905b565b91906040838203126100475761007690602061006f828661004c565b940161004c565b90565b34610047576100a561009561008f366004610053565b9061020b565b6040519182918290815260200190565b0390f35b34610047576100a56100956100bf366004610053565b90610294565b634e487b7160e01b600052604160045260246000fd5b90601f01601f1916810190811067ffffffffffffffff8211176100fd57604052565b6100c5565b9061005161010f60405190565b92836100db565b67ffffffffffffffff81116100fd5760208091020190565b9092919261014361013e82610116565b610102565b938185526020808601920283019281841161004757915b8383106101675750505050565b60208091610175848661004c565b81520192019161015a565b9080601f83011215610047578160206100769335910161012e565b9060208282031261004757813567ffffffffffffffff8111610047576100769201610180565b34610047576100a56100956101d736600461019b565b610335565b9060208282031261004757505190565b9081526040810192916100519160200152565b6040513d6000823e3d90fd5b6102509160209173__$f66870a82ae6d0e11a729a8629d20c0d57$__9061023160405190565b809581948293610245636352400460e01b90565b8452600484016101ec565b03915af490811561028f57600091610266575090565b610076915060203d602011610288575b61028081836100db565b8101906101dc565b503d610276565b6101ff565b6102509160209173__$f66870a82ae6d0e11a729a8629d20c0d57$__906102ba60405190565b80958194829361024563b30c0b6a60e01b90565b906102ee6102e76102dd845190565b8084529260200190565b9260200190565b9060005b8181106102ff5750505090565b90919261031c6103156001928651815260200190565b9460200190565b9291016102f2565b6020808252610076929101906102ce565b602061025091610343600090565b5073__$f66870a82ae6d0e11a729a8629d20c0d57$__60405193849283918291630b31d0cd60e41b83526004830161032456fea2646970667358221220514538611c41ee405e2b9848d361e8862119d770b9f9a4428624c168e06f0c7864736f6c63430008190033",
  "linkReferences": {
    "contracts/poseidon/PoseidonHasher.sol": {
      "PoseidonU2bn256Hasher": [
        {
          "length": 20,
          "start": 563
        },
        {
          "length": 20,
          "start": 700
        },
        {
          "length": 20,
          "start": 869
        }
      ]
    }
  },
  "deployedLinkReferences": {
    "contracts/poseidon/PoseidonHasher.sol": {
      "PoseidonU2bn256Hasher": [
        {
          "length": 20,
          "start": 532
        },
        {
          "length": 20,
          "start": 669
        },
        {
          "length": 20,
          "start": 838
        }
      ]
    }
  }
}