{
  "_format": "hh-sol-artifact-1",
  "contractName": "SwapOneStep",
  "sourceName": "contracts/drex-connect/SwapOneStep.sol",
  "abi": [
    {
      "inputs": [
        {
          "internalType": "contract RealDigital",
          "name": "token",
          "type": "address"
        }
      ],
      "stateMutability": "nonpayable",
      "type": "constructor"
    },
    {
      "anonymous": false,
      "inputs": [
        {
          "indexed": true,
          "internalType": "uint256",
          "name": "senderNumber",
          "type": "uint256"
        },
        {
          "indexed": true,
          "internalType": "uint256",
          "name": "receiverNumber",
          "type": "uint256"
        },
        {
          "indexed": false,
          "internalType": "address",
          "name": "sender",
          "type": "address"
        },
        {
          "indexed": false,
          "internalType": "address",
          "name": "receiver",
          "type": "address"
        },
        {
          "indexed": false,
          "internalType": "uint256",
          "name": "amount",
          "type": "uint256"
        }
      ],
      "name": "SwapExecuted",
      "type": "event"
    },
    {
      "inputs": [
        {
          "internalType": "contract RealTokenizado",
          "name": "tokenSender",
          "type": "address"
        },
        {
          "internalType": "contract RealTokenizado",
          "name": "tokenReceiver",
          "type": "address"
        },
        {
          "internalType": "address",
          "name": "receiver",
          "type": "address"
        },
        {
          "internalType": "uint256",
          "name": "amount",
          "type": "uint256"
        }
      ],
      "name": "executeSwap",
      "outputs": [],
      "stateMutability": "nonpayable",
      "type": "function"
    }
  ],
  "bytecode": "0x60806040523461002a576100196100146100c2565b610136565b604051610883610142823961088390f35b600080fd5b634e487b7160e01b600052604160045260246000fd5b90601f01601f191681019081106001600160401b0382111761006657604052565b61002f565b9061007f61007860405190565b9283610045565b565b6001600160a01b031690565b90565b6001600160a01b0381160361002a57565b9050519061007f82610090565b9060208282031261002a5761008d916100a1565b61008d6109c5803803806100d58161006b565b9283398101906100ae565b61008d90610081906001600160a01b031682565b61008d906100e0565b61008d906100f4565b9061011661008d610132926100fd565b82546001600160a01b0319166001600160a01b03919091161790565b9055565b61007f90600061010656fe6080604052600436101561001257600080fd5b60003560e01c636012856e03610048576100c7565b6001600160a01b031690565b90565b6001600160a01b0381165b0361004857565b600080fd5b9050359061005a82610036565b565b6001600160a01b038116610041565b9050359061005a8261005c565b80610041565b9050359061005a82610078565b6080818303126100485761009f828261004d565b926100336100b0846020850161004d565b9360606100c0826040870161006b565b940161007e565b34610048576100e36100da36600461008b565b929190916102f6565b604051005b61003390610027906001600160a01b031682565b610033906100e8565b610033906100fc565b634e487b7160e01b600052604160045260246000fd5b90601f01601f1916810190811067ffffffffffffffff82111761014657604052565b61010e565b801515610041565b9050519061005a8261014b565b906020828203126100485761003391610153565b6040513d6000823e3d90fd5b1561018757565b60405162461bcd60e51b815260206004820152601a60248201527f53656e646572206d757374206265207061727469636970616e740000000000006044820152606490fd5b156101d357565b60405162461bcd60e51b815260206004820152601c60248201527f5265636569766572206d757374206265207061727469636970616e74000000006044820152606490fd5b9050519061005a82610078565b906020828203126100485761003391610218565b1561024057565b60405162461bcd60e51b8152602060048201526014602482015273496e73756666696369656e742062616c616e636560601b6044820152606490fd5b9050519061005a8261005c565b90602082820312610048576100339161027c565b600091031261004857565b6001600160a01b03909116815260408101929161005a9160200152565b6001600160a01b0391821681529116602082015260608101929161005a9160400152565b6100336100336100339290565b6103039093919293610105565b9063f16dfbe99261031360405190565b9061031e8560e01b90565b8252336004830152602082602481875afa918215610595576103519261034c9160009161082e575b50610180565b610105565b9261036561035e60405190565b9160e01b90565b81526001600160a01b0385166004820152602081602481875afa8015610595576103979160009161080f575b506101cc565b6040516370a0823160e01b8152336004820152602081602481865afa8015610595576103ce916000916107f0575b50821115610239565b63cd3293de6103dc60405190565b6103e68260e01b90565b8152602081600481875afa908115610595576000916107d1575b5060405161040e8360e01b90565b8152602081600481895afa9081156105955761044a9161043d916000916107b2575b506001600160a01b031690565b916001600160a01b031690565b036105ed57506040516323b872dd60e01b815260208180610470858933600485016102c5565b03816000875af18015610595576105c0575b505b63ffa8e9ab602061049460405190565b80946104a08460e01b90565b825260049082905afa9283156105955760009361059a575b506020906104d393946104ca60405190565b94859260e01b90565b825260049082905afa9182156105955760009261053c575b5061052061051a7f3155b4536e4ae4b109dd4a9a4a81692cd1a0870195da68d6e2a94c5eb1fbf37e93946102e9565b936102e9565b9361053761052d60405190565b92839233846102c5565b0390a3565b7f3155b4536e4ae4b109dd4a9a4a81692cd1a0870195da68d6e2a94c5eb1fbf37e925061051a6105866105209260203d60201161058e575b61057e8183610124565b810190610225565b9350506104eb565b503d610574565b610174565b6104d39350906105b8602092833d851161058e5761057e8183610124565b9350906104b8565b6105e19060203d6020116105e6575b6105d98183610124565b810190610160565b610482565b503d6105cf565b823b156100485760405163079cc67960e41b8152600081806106138633600484016102a8565b038183885af180156105955761079c575b5061063a61034c6000546001600160a01b031690565b9061064460405190565b61064e8260e01b90565b8152602081600481885afa9081156105955760009161077d575b5061067c61067560405190565b9260e01b90565b8252602082600481895afa9182156105955760009261074c575b50823b15610048576106cb926000928386936106b160405190565b9687958694859363bb35783b60e01b8552600485016102c5565b03925af1801561059557610736575b50823b15610048576040516340c10f1960e01b8152600081806107018589600484016102a8565b038183885af1801561059557610718575b50610484565b6107309060006107288183610124565b81019061029d565b38610712565b6107469060006107288183610124565b386106da565b61076f91925060203d602011610776575b6107678183610124565b810190610289565b9038610696565b503d61075d565b610796915060203d602011610776576107678183610124565b38610668565b6107ac9060006107288183610124565b38610624565b6107cb915060203d602011610776576107678183610124565b38610430565b6107ea915060203d602011610776576107678183610124565b38610400565b610809915060203d60201161058e5761057e8183610124565b386103c5565b610828915060203d6020116105e6576105d98183610124565b38610391565b610847915060203d6020116105e6576105d98183610124565b3861034656fea264697066735822122014ced06d93ea6e68b551718ab6a8a05afa08bc7bc1d09cc2bb537b1230b1d39464736f6c63430008190033",
  "linkReferences": {},
  "deployedLinkReferences": {}
}