{
  "_format": "hh-sol-artifact-1",
  "contractName": "PolyEvalInstanceLib",
  "sourceName": "contracts/ucl/curves/blocks/PolyEvalInstance.sol",
  "abi": [
    {
      "inputs": [
        {
          "components": [
            {
              "internalType": "uint256",
              "name": "x",
              "type": "uint256"
            },
            {
              "internalType": "uint256",
              "name": "y",
              "type": "uint256"
            }
          ],
          "internalType": "struct Pallas.PallasAffinePoint[]",
          "name": "comm_vec",
          "type": "tuple[]"
        },
        {
          "internalType": "uint256[]",
          "name": "x",
          "type": "uint256[]"
        },
        {
          "internalType": "uint256[]",
          "name": "eval_vec",
          "type": "uint256[]"
        },
        {
          "internalType": "uint256",
          "name": "s",
          "type": "uint256"
        }
      ],
      "name": "batchPrimary",
      "outputs": [
        {
          "components": [
            {
              "internalType": "uint256",
              "name": "c_x",
              "type": "uint256"
            },
            {
              "internalType": "uint256",
              "name": "c_y",
              "type": "uint256"
            },
            {
              "internalType": "uint256[]",
              "name": "x",
              "type": "uint256[]"
            },
            {
              "internalType": "uint256",
              "name": "e",
              "type": "uint256"
            }
          ],
          "internalType": "struct PolyEvalInstanceLib.PolyEvalInstance",
          "name": "",
          "type": "tuple"
        }
      ],
      "stateMutability": "view",
      "type": "function"
    },
    {
      "inputs": [
        {
          "components": [
            {
              "internalType": "uint256",
              "name": "x",
              "type": "uint256"
            },
            {
              "internalType": "uint256",
              "name": "y",
              "type": "uint256"
            }
          ],
          "internalType": "struct Vesta.VestaAffinePoint[]",
          "name": "comm_vec",
          "type": "tuple[]"
        },
        {
          "internalType": "uint256[]",
          "name": "x",
          "type": "uint256[]"
        },
        {
          "internalType": "uint256[]",
          "name": "eval_vec",
          "type": "uint256[]"
        },
        {
          "internalType": "uint256",
          "name": "s",
          "type": "uint256"
        }
      ],
      "name": "batchSecondary",
      "outputs": [
        {
          "components": [
            {
              "internalType": "uint256",
              "name": "c_x",
              "type": "uint256"
            },
            {
              "internalType": "uint256",
              "name": "c_y",
              "type": "uint256"
            },
            {
              "internalType": "uint256[]",
              "name": "x",
              "type": "uint256[]"
            },
            {
              "internalType": "uint256",
              "name": "e",
              "type": "uint256"
            }
          ],
          "internalType": "struct PolyEvalInstanceLib.PolyEvalInstance",
          "name": "",
          "type": "tuple"
        }
      ],
      "stateMutability": "view",
      "type": "function"
    },
    {
      "inputs": [
        {
          "components": [
            {
              "internalType": "uint256",
              "name": "c_x",
              "type": "uint256"
            },
            {
              "internalType": "uint256",
              "name": "c_y",
              "type": "uint256"
            },
            {
              "internalType": "uint256[]",
              "name": "x",
              "type": "uint256[]"
            },
            {
              "internalType": "uint256",
              "name": "e",
              "type": "uint256"
            }
          ],
          "internalType": "struct PolyEvalInstanceLib.PolyEvalInstance[]",
          "name": "p",
          "type": "tuple[]"
        }
      ],
      "name": "pad",
      "outputs": [
        {
          "components": [
            {
              "internalType": "uint256",
              "name": "c_x",
              "type": "uint256"
            },
            {
              "internalType": "uint256",
              "name": "c_y",
              "type": "uint256"
            },
            {
              "internalType": "uint256[]",
              "name": "x",
              "type": "uint256[]"
            },
            {
              "internalType": "uint256",
              "name": "e",
              "type": "uint256"
            }
          ],
          "internalType": "struct PolyEvalInstanceLib.PolyEvalInstance[]",
          "name": "",
          "type": "tuple[]"
        }
      ],
      "stateMutability": "pure",
      "type": "function"
    }
  ],
  "bytecode": "0x608060405234601d5760405161133661002382393081505061133690f35b600080fdfe6080604052600436101561001257600080fd5b60003560e01c806358f340c41461004257806382186e2d1461003d5763b23747f1036100b25761052e565b61038c565b6102d1565b634e487b7160e01b600052604160045260246000fd5b90601f01601f1916810190811067ffffffffffffffff82111761007f57604052565b610047565b9061009861009160405190565b928361005d565b565b67ffffffffffffffff811161007f5760208091020190565b600080fd5b91906040838203126100b2576100df9060206100d36040610084565b94803586520190503590565b6020830152565b909291926100fb6100f68261009a565b610084565b9381855260406020860192028301928184116100b257915b8383106101205750505050565b602060409161012f84866100b7565b815201920191610113565b9080601f830112156100b257816020610155933591016100e6565b90565b909291926101686100f68261009a565b93818552602080860192028301928184116100b257915b83831061018c5750505050565b823581526020928301920161017f565b9080601f830112156100b25781602061015593359101610158565b6080818303126100b257803567ffffffffffffffff81116100b257826101de91830161013a565b92602082013567ffffffffffffffff81116100b257836101ff91840161019c565b9260408301359067ffffffffffffffff82116100b25760606102268261015594870161019c565b940190503590565b9061024e61024761023d845190565b8084529260200190565b9260200190565b9060005b81811061025f5750505090565b90919261027c6102756001928651815260200190565b9460200190565b929101610252565b8051825290610155906060806102b8608084016102a660208801516020870152565b6040870151858203604087015261022e565b940151910152565b602080825261015592910190610284565b6102f76102eb6102e23660046101b7565b92919091610736565b604051918291826102c0565b0390f35b9092919261030b6100f68261009a565b9381855260406020860192028301928184116100b257915b8383106103305750505050565b602060409161033f84866100b7565b815201920191610323565b9080601f830112156100b257816020610155933591016102fb565b6080818303126100b257803567ffffffffffffffff81116100b257826101de91830161034a565b6102f76102eb61039d366004610365565b929190916109e9565b9190916080818403126100b2576103bd6080610084565b928135845260208201356020850152604082013567ffffffffffffffff81116100b257826103f2836060936103fe960161019c565b60408701520190503590565b6060830152565b9291906104146100f68261009a565b93818552602080860192028101918383116100b25781905b83821061043a575050505050565b813567ffffffffffffffff81116100b25760209161045b87849387016103a6565b81520191019061042c565b9080601f830112156100b25781602061015593359101610405565b906020828203126100b257813567ffffffffffffffff81116100b2576101559201610466565b9061015591610284565b906104c76104bd835190565b8083529160200190565b90816104d96020830284019460200190565b926000915b8383106104ed57505050505090565b90919293946020610510610509838560019503875289516104a7565b9760200190565b93019301919392906104de565b6020808252610155929101906104b1565b6102f761054461053f366004610481565b610bcc565b6040519182918261051d565b6101556080610084565b610562610550565b60008082526020820181905260606040830181905282015290565b61015561055a565b1561058c57565b60405162461bcd60e51b815260206004820152604660248201527f5b506f6c794576616c496e7374616e63654c69622e62617463685072696d617260448201527f795d3a20636f6d6d5f7665632e6c656e67746820213d206576616c5f7665632e6064820152650d8cadccee8d60d31b608482015260a490fd5b6101556101556101559290565b6101556f224698fc0994a8dd8c46eb2100000001600160fe1b01610606565b909291926106426100f68261009a565b93818552602080860192028301928184116100b257915b8383106106665750505050565b8251815260209283019201610659565b9080601f830112156100b257815161015592602001610632565b906020828203126100b257815167ffffffffffffffff81116100b2576101559201610676565b9081526060810193926100989290916040916106d1906100df565b0152565b6040513d6000823e3d90fd5b634e487b7160e01b600052603260045260246000fd5b90610700825190565b811015610711576020809102010190565b6106e1565b634e487b7160e01b600052601260045260246000fd5b6101556040610084565b906107ba909493929461074761057d565b5061076b610753845190565b6107656107616101558a5190565b9190565b14610585565b600073__$2551e0adbbdfd03ee49bf0ac0665077175$__9461078b855190565b95610794610613565b9687926107a060405190565b96879485938493633b83291760e01b8552600485016106b6565b03915af49182156109425760009261091f575b506000926000956107dd87610606565b945b6107ea6101558a5190565b861015610839576108026107fe87876106f7565b5190565b906108106107fe888c6106f7565b9088156108345788156108345788809261082e940990089560010190565b946107df565b610716565b975092945092509361084961072c565b9561085382610606565b9661085e8884830152565b610869886020830152565b9661087261072c565b61087c8285830152565b610887826020830152565b50965b610895610155865190565b8810156108d6576108c96108d0916108c46108b08b896106f7565b516108be6107fe8d8c6106f7565b90610d48565b610e1e565b9760010190565b9661088a565b6103fe939750610155955061091891945095919561091161090260206108fc8a85015190565b93015190565b9161090b610550565b98890152565b6020870152565b6040850152565b61093b91923d8091833e610933818361005d565b810190610690565b90386107cd565b6106d5565b1561094e57565b60405162461bcd60e51b815260206004820152604860248201527f5b506f6c794576616c496e7374616e63654c69622e62617463685365636f6e6460448201527f6172795d3a20636f6d6d5f7665632e6c656e67746820213d206576616c5f76656064820152670c65cd8cadccee8d60c31b608482015260a490fd5b6101556f224698fc094cf91b992d30ed00000001600160fe1b01610606565b90610a4390949392946109fa61057d565b50610a1a610a06845190565b610a146107616101558a5190565b14610947565b600073__$2551e0adbbdfd03ee49bf0ac0665077175$__94610a3a855190565b956107946109ca565b03915af491821561094257600092610b4f575b50600092600095610a6687610606565b945b610a736101558a5190565b861015610ab957610a876107fe87876106f7565b90610a956107fe888c6106f7565b90881561083457881561083457888092610ab3940990089560010190565b94610a68565b9750929450925093610ac961072c565b95610ad382610606565b96610ade8884830152565b610ae9886020830152565b96610af261072c565b610afc8285830152565b610b07826020830152565b50965b610b15610155865190565b8810156108d6576108c9610b4991610b44610b308b896106f7565b51610b3e6107fe8d8c6106f7565b90610f9f565b61102d565b96610b0a565b610b6391923d8091833e610933818361005d565b9038610a56565b90610b776100f68361009a565b918252565b369037565b90610098610b97610b9184610b6a565b9361009a565b601f190160208401610b7c565b634e487b7160e01b600052601160045260246000fd5b91908203918211610bc757565b610ba4565b906000610bd96000610606565b91825b610be7610155865190565b811015610c3457610c046040610bfd83886106f7565b5101515190565b8310610c18575b600101610bdc565b610bdc565b9150610c13610c2c6040610bfd85886106f7565b929050610c0b565b5091610c3f82610b81565b505b610c4c610155855190565b811015610d1c57610c626040610bfd83876106f7565b8211610c76575b600101610c41565b610c41565b9190610c8181610b81565b91610c9a610c946040610bfd87896106f7565b83610bba565b8583821015610cfe5790610cf3610ce66107fe84610ce0610cda610cd46040610bfd8e82610ccb82610cf99e6106f7565b510151966106f7565b8a610bba565b86610bba565b906106f7565b610cf083886106f7565b52565b60010190565b610c9a565b505092610c7191926040610d1283886106f7565b5101529050610c69565b5050565b610d2861072c565b906000825260006020830152565b610155610d20565b8115610834570490565b9190610d52610d36565b50610d5d6000610606565b9290610d6761072c565b610d6f858252565b610d7a856020830152565b93915b610d88610100610606565b831015610df657600191610dbd610761610db7610da486610606565b841693610db16002610606565b90610d3e565b94610606565b14610ddc575b610dcf610dd691611112565b9260010190565b91610d7d565b93610dcf610ded86610dd693610e1e565b95915050610dc3565b505050565b906020828203126100b257505190565b9081526040810192916100989160200152565b610e26610d36565b508051602082015115901516610f9b578151602083015115901516610f96576000610e5460206108fc845190565b610e676020610e61865190565b95015190565b9150610ef66020856f224698fc094cf91b992d30ed00000001600160fe1b01860103936f224698fc094cf91b992d30ed00000001600160fe1b0184010393610ead6109ca565b9081808211610f87575b5073__$b6e0a5c375b77fd7e15159ad263ec833e4$__90610ed760405190565b809581948293610eeb636d3b90b460e01b90565b845260048401610e0b565b03915af4928315610942576f224698fc094cf91b992d30ed00000001600160fe1b01956101559587808097948196958296600091610f58575b500992828280808780090101030306978891010390090103066100df610f5361072c565b938452565b610f7a915060203d602011610f80575b610f72818361005d565b810190610dfb565b38610f2f565b503d610f68565b610f9091610bba565b81610eb7565b905090565b5090565b9190610fa9610d36565b50610fb46000610606565b9290610fbe61072c565b610fc6858252565b610fd1856020830152565b93915b610fdf610100610606565b831015610df657600191610ffb610761610db7610da486610606565b14611013575b610dcf61100d91611229565b91610fd4565b93610dcf6110248661100d9361102d565b95915050611001565b611035610d36565b508051602082015115901516610f9b578151602083015115901516610f9657600061106360206108fc845190565b6110706020610e61865190565b91506110b66020856f224698fc0994a8dd8c46eb2100000001600160fe1b01860103936f224698fc0994a8dd8c46eb2100000001600160fe1b0184010393610ead610613565b03915af4928315610942576f224698fc0994a8dd8c46eb2100000001600160fe1b01956101559587808097948196958296600091610f5857500992828280808780090101030306978891010390090103066100df610f5361072c565b61111a610d36565b50805160208201511590151661015557611183906000602061113a835190565b92016020611146825190565b915173__$b6e0a5c375b77fd7e15159ad263ec833e4$__6111656109ca565b9161116f60405190565b809881948293610eeb636d3b90b460e01b90565b03915af4918215610942576f224698fc094cf91b992d30ed00000001600160fe1b0161015594817f2000000000000000000000000000000011234c7e04a67c8dcc96987680000002818099978198968297600092611208575b5050818580090909908281808280808780090101030306978891010390090103066100df610f5361072c565b61122291925060203d602011610f8057610f72818361005d565b90386111dc565b611231610d36565b5080516020820151159015166101555761127c9060006020611251835190565b9201602061125d825190565b915173__$b6e0a5c375b77fd7e15159ad263ec833e4$__611165610613565b03915af4918215610942576f224698fc0994a8dd8c46eb2100000001600160fe1b0161015594817f2000000000000000000000000000000011234c7e04ca546ec623759080000002818099978198968297600092611208575050818580090909908281808280808780090101030306978891010390090103066100df610f5361072c56fea26469706673582212203486f0378bcd78b9b2cda5dbec6f544aab36e9682923ee8be8dd7cabf999246f64736f6c63430008190033",
  "linkReferences": {
    "contracts/ucl/curves/Utilities.sol": {
      "CommonUtilities": [
        {
          "length": 20,
          "start": 1938
        },
        {
          "length": 20,
          "start": 2625
        }
      ],
      "Field": [
        {
          "length": 20,
          "start": 3805
        },
        {
          "length": 20,
          "start": 4461
        },
        {
          "length": 20,
          "start": 4740
        }
      ]
    }
  },
  "deployedLinkReferences": {
    "contracts/ucl/curves/Utilities.sol": {
      "CommonUtilities": [
        {
          "length": 20,
          "start": 1903
        },
        {
          "length": 20,
          "start": 2590
        }
      ],
      "Field": [
        {
          "length": 20,
          "start": 3770
        },
        {
          "length": 20,
          "start": 4426
        },
        {
          "length": 20,
          "start": 4705
        }
      ]
    }
  }
}