{
  "_format": "hh-sol-artifact-1",
  "contractName": "L1TMSC",
  "sourceName": "contracts/ucl/L1_tmsc_impl.sol",
  "abi": [
    {
      "inputs": [
        {
          "internalType": "address",
          "name": "admin_address",
          "type": "address"
        }
      ],
      "stateMutability": "nonpayable",
      "type": "constructor"
    },
    {
      "anonymous": false,
      "inputs": [
        {
          "indexed": true,
          "internalType": "address",
          "name": "fromBankAdmin",
          "type": "address"
        },
        {
          "indexed": true,
          "internalType": "address",
          "name": "toBankAdmin",
          "type": "address"
        },
        {
          "indexed": false,
          "internalType": "address",
          "name": "tokenAddress",
          "type": "address"
        },
        {
          "indexed": false,
          "internalType": "uint256",
          "name": "tokenType",
          "type": "uint256"
        },
        {
          "indexed": false,
          "internalType": "uint256",
          "name": "totalAmount",
          "type": "uint256"
        },
        {
          "indexed": false,
          "internalType": "uint256[]",
          "name": "bundleHashes",
          "type": "uint256[]"
        },
        {
          "indexed": false,
          "internalType": "uint256[]",
          "name": "amounts",
          "type": "uint256[]"
        }
      ],
      "name": "Settlement",
      "type": "event"
    },
    {
      "inputs": [
        {
          "internalType": "address",
          "name": "bank_admin",
          "type": "address"
        },
        {
          "internalType": "address",
          "name": "token_address",
          "type": "address"
        },
        {
          "internalType": "uint256",
          "name": "token_type",
          "type": "uint256"
        }
      ],
      "name": "balanceOfBank",
      "outputs": [
        {
          "internalType": "uint256",
          "name": "",
          "type": "uint256"
        }
      ],
      "stateMutability": "view",
      "type": "function"
    },
    {
      "inputs": [
        {
          "internalType": "uint256",
          "name": "random",
          "type": "uint256"
        }
      ],
      "name": "createTmscTokenType",
      "outputs": [],
      "stateMutability": "nonpayable",
      "type": "function"
    },
    {
      "inputs": [
        {
          "internalType": "address",
          "name": "sender",
          "type": "address"
        },
        {
          "internalType": "contract IERC1155",
          "name": "token_address",
          "type": "address"
        },
        {
          "internalType": "uint256",
          "name": "token_type",
          "type": "uint256"
        },
        {
          "internalType": "address",
          "name": "bank_admin",
          "type": "address"
        },
        {
          "internalType": "address",
          "name": "recipient",
          "type": "address"
        },
        {
          "internalType": "uint256",
          "name": "amount",
          "type": "uint256"
        }
      ],
      "name": "depositErc1155From",
      "outputs": [
        {
          "internalType": "bool",
          "name": "",
          "type": "bool"
        }
      ],
      "stateMutability": "nonpayable",
      "type": "function"
    },
    {
      "inputs": [
        {
          "internalType": "address",
          "name": "sender",
          "type": "address"
        },
        {
          "internalType": "contract IERC20",
          "name": "token_address",
          "type": "address"
        },
        {
          "internalType": "address",
          "name": "bank_admin",
          "type": "address"
        },
        {
          "internalType": "address",
          "name": "recipient",
          "type": "address"
        },
        {
          "internalType": "uint256",
          "name": "amount",
          "type": "uint256"
        }
      ],
      "name": "depositErc20From",
      "outputs": [
        {
          "internalType": "bool",
          "name": "",
          "type": "bool"
        }
      ],
      "stateMutability": "nonpayable",
      "type": "function"
    },
    {
      "inputs": [
        {
          "internalType": "uint256",
          "name": "random",
          "type": "uint256"
        }
      ],
      "name": "getCreatedTmscTokenType",
      "outputs": [
        {
          "internalType": "uint256",
          "name": "",
          "type": "uint256"
        }
      ],
      "stateMutability": "view",
      "type": "function"
    },
    {
      "inputs": [
        {
          "internalType": "address",
          "name": "",
          "type": "address"
        },
        {
          "internalType": "address",
          "name": "",
          "type": "address"
        },
        {
          "internalType": "uint256[]",
          "name": "",
          "type": "uint256[]"
        },
        {
          "internalType": "uint256[]",
          "name": "",
          "type": "uint256[]"
        },
        {
          "internalType": "bytes",
          "name": "",
          "type": "bytes"
        }
      ],
      "name": "onERC1155BatchReceived",
      "outputs": [
        {
          "internalType": "bytes4",
          "name": "",
          "type": "bytes4"
        }
      ],
      "stateMutability": "nonpayable",
      "type": "function"
    },
    {
      "inputs": [
        {
          "internalType": "address",
          "name": "",
          "type": "address"
        },
        {
          "internalType": "address",
          "name": "",
          "type": "address"
        },
        {
          "internalType": "uint256",
          "name": "",
          "type": "uint256"
        },
        {
          "internalType": "uint256",
          "name": "",
          "type": "uint256"
        },
        {
          "internalType": "bytes",
          "name": "",
          "type": "bytes"
        }
      ],
      "name": "onERC1155Received",
      "outputs": [
        {
          "internalType": "bytes4",
          "name": "",
          "type": "bytes4"
        }
      ],
      "stateMutability": "nonpayable",
      "type": "function"
    },
    {
      "inputs": [
        {
          "internalType": "address",
          "name": "bank_admin_to",
          "type": "address"
        },
        {
          "internalType": "address",
          "name": "token_address",
          "type": "address"
        },
        {
          "internalType": "uint256",
          "name": "token_type",
          "type": "uint256"
        },
        {
          "internalType": "uint256",
          "name": "amount",
          "type": "uint256"
        },
        {
          "internalType": "uint256[]",
          "name": "bundleHashes",
          "type": "uint256[]"
        },
        {
          "internalType": "uint256[]",
          "name": "amounts",
          "type": "uint256[]"
        }
      ],
      "name": "settle",
      "outputs": [
        {
          "internalType": "bool",
          "name": "",
          "type": "bool"
        }
      ],
      "stateMutability": "nonpayable",
      "type": "function"
    },
    {
      "inputs": [
        {
          "internalType": "bytes4",
          "name": "interfaceId",
          "type": "bytes4"
        }
      ],
      "name": "supportsInterface",
      "outputs": [
        {
          "internalType": "bool",
          "name": "",
          "type": "bool"
        }
      ],
      "stateMutability": "view",
      "type": "function"
    },
    {
      "inputs": [
        {
          "internalType": "uint256",
          "name": "",
          "type": "uint256"
        }
      ],
      "name": "tokenTypeCreatedMap",
      "outputs": [
        {
          "internalType": "uint256",
          "name": "",
          "type": "uint256"
        }
      ],
      "stateMutability": "view",
      "type": "function"
    },
    {
      "inputs": [
        {
          "internalType": "address",
          "name": "bank_admin",
          "type": "address"
        },
        {
          "internalType": "bool",
          "name": "status",
          "type": "bool"
        }
      ],
      "name": "updateBankAdmin",
      "outputs": [
        {
          "internalType": "bool",
          "name": "",
          "type": "bool"
        }
      ],
      "stateMutability": "nonpayable",
      "type": "function"
    },
    {
      "inputs": [
        {
          "internalType": "address",
          "name": "newBridge",
          "type": "address"
        }
      ],
      "name": "updateBridge",
      "outputs": [],
      "stateMutability": "nonpayable",
      "type": "function"
    }
  ],
  "bytecode": "0x60806040523461002a576100196100146100c2565b6102bf565b6040516114006102d5823961140090f35b600080fd5b634e487b7160e01b600052604160045260246000fd5b90601f01601f191681019081106001600160401b0382111761006657604052565b61002f565b9061007f61007860405190565b9283610045565b565b6001600160a01b031690565b90565b6001600160a01b0381160361002a57565b9050519061007f82610090565b9060208282031261002a5761008d916100a1565b61008d6116d5803803806100d58161006b565b9283398101906100ae565b90600019905b9181191691161790565b61008d61008d61008d9290565b9061010d61008d610114926100f0565b82546100e0565b9055565b6001600160401b03811161006657602090601f01601f19160190565b0190565b9061014a61014583610118565b61006b565b918252565b610159601d610138565b7f696e76616c6964204c312d544d53432061646d696e2061646472657373000000602082015290565b61008d61014f565b61008161008d61008d9290565b61008d9061018a565b60005b8381106101b35750506000910152565b81810151838201526020016101a3565b6101e46101ed602093610134936101d8815190565b80835293849260200190565b958691016101a0565b601f01601f191690565b602080825261008d929101906101c3565b156102105750565b6102329061021d60405190565b62461bcd60e51b8152918291600483016101f7565b0390fd5b61007f90610263610245610182565b6102526100816000610197565b6001600160a01b0384161415610208565b6102b4565b906001600160a01b03906100e6565b61008d90610081906001600160a01b031682565b61008d90610277565b61008d9061028b565b906102ad61008d61011492610294565b8254610268565b61007f90600361029d565b61007f906102cf600060056100fd565b61023656fe6080604052600436101561001257600080fd5b60003560e01c806301ffc9a7146100d257806313f2432b146100cd5780633a512529146100c857806369ea9ca0146100c35780636eb38212146100be5780637c66a294146100b957806391511559146100b4578063993e9e53146100af5780639ab62ddc146100aa578063bc197c81146100a5578063c7f309b9146100a05763f23a6e61036100ea5761070f565b6106b6565b61067c565b610493565b61041e565b61034b565b6102e4565b610274565b610244565b6101e9565b6101a6565b610115565b6001600160e01b031981165b036100ea57565b600080fd5b905035906100fc826100d7565b565b906020828203126100ea57610112916100ef565b90565b346100ea5761014261013061012b3660046100fe565b61072e565b60405191829182901515815260200190565b0390f35b6001600160a01b031690565b6001600160a01b0381166100e3565b905035906100fc82610152565b8015156100e3565b905035906100fc8261016e565b91906040838203126100ea5761011290602061019f8286610161565b9401610176565b346100ea576101426101306101bc366004610183565b906109a7565b806100e3565b905035906100fc826101c2565b906020828203126100ea57610112916101c8565b346100ea576101426102046101ff3660046101d5565b6109c4565b6040519182918290815260200190565b90916060828403126100ea5761011261022d8484610161565b93604061023d8260208701610161565b94016101c8565b346100ea5761014261020461025a366004610214565b916109e0565b906020828203126100ea5761011291610161565b346100ea5761028c610287366004610260565b610ae1565b604051005b909160c0828403126100ea576102a78383610161565b926102b58160208501610161565b926102c382604083016101c8565b926101126102d48460608501610161565b9360a061023d8260808701610161565b346100ea576101426101306102fa366004610291565b94939093929192610dcc565b919060a0838203126100ea5761031c8184610161565b9261032a8260208301610161565b9261011261033b8460408501610161565b93608061023d8260608701610161565b346100ea57610142610130610361366004610306565b93929092610ebf565b909182601f830112156100ea5781359167ffffffffffffffff83116100ea5760200192602083028401116100ea57565b60c0818303126100ea576103ae8282610161565b926103bc8360208401610161565b926103ca81604085016101c8565b926103d882606083016101c8565b92608082013567ffffffffffffffff81116100ea57836103f991840161036a565b92909360a082013567ffffffffffffffff81116100ea5761041a920161036a565b9091565b346100ea5761014261013061043436600461039a565b96959095949194939293611313565b6101126101126101129290565b9061045a90610443565b600052602052604060002090565b610112916008021c81565b906101129154610468565b600061048e610112926006610450565b610473565b346100ea576101426102046104a93660046101d5565b61047e565b634e487b7160e01b600052604160045260246000fd5b90601f01601f1916810190811067ffffffffffffffff8211176104e657604052565b6104ae565b906100fc6104f860405190565b92836104c4565b67ffffffffffffffff81116104e65760208091020190565b9092919261052c610527826104ff565b6104eb565b93818552602080860192028301928184116100ea57915b8383106105505750505050565b6020809161055e84866101c8565b815201920191610543565b9080601f830112156100ea5781602061011293359101610517565b67ffffffffffffffff81116104e657602090601f01601f19160190565b0190565b90826000939282370152565b909291926105c161052782610584565b93818552818301116100ea576100fc9160208501906105a5565b9080601f830112156100ea57816020610112933591016105b1565b91909160a0818403126100ea5761060d8382610161565b9261061b8160208401610161565b92604083013567ffffffffffffffff81116100ea578261063c918501610569565b92606081013567ffffffffffffffff81116100ea578361065d918301610569565b92608082013567ffffffffffffffff81116100ea5761011292016105db565b346100ea5761014261069b6106923660046105f6565b9392909261134b565b604051918291826001600160e01b0319909116815260200190565b346100ea5761028c6106c93660046101d5565b611375565b91909160a0818403126100ea576106e58382610161565b926106f38160208401610161565b9261070182604085016101c8565b9261065d83606083016101c8565b346100ea5761014261069b6107253660046106ce565b939290926113af565b630271189760e51b6001600160e01b031982161490811561074d575090565b61011291506001600160e01b0319166301ffc9a760e01b1490565b1561076f57565b60405162461bcd60e51b815260206004820152602d60248201527f6f6e6c792061646d696e206163636f756e7420697320616c6c6f77656420666f60448201526c39103a3434b99030b1ba34b7b760991b6064820152608490fd5b0390fd5b9061011292916107f36107ec6101466003546001600160a01b031690565b3314610768565b6108ed565b9061080561052783610584565b918252565b610814601a6107f8565b7f696e76616c69642062616e6b2061646d696e2061646472657373000000000000602082015290565b61011261080a565b6101466101126101129290565b61011290610845565b60005b83811061086e5750506000910152565b818101518382015260200161085e565b61089f6108a86020936105a193610893815190565b80835293849260200190565b9586910161085b565b601f01601f191690565b60208082526101129291019061087e565b156108cb5750565b6107ca906108d860405190565b62461bcd60e51b8152918291600483016108b2565b90610112929161091d6108fe61083d565b61090b6101466000610852565b6001600160a01b0385165b14156108c3565b61097c565b61011290610146906001600160a01b031682565b61011290610922565b61011290610936565b9061045a9061093f565b9060ff905b9181191691161790565b9061097161011261097892151590565b8254610952565b9055565b90610999610112936109a09350610994836004610948565b610961565b6004610948565b5460ff1690565b610112919060006107ce565b6101129081565b61011290546109b3565b6109db610112916109d3600090565b506006610450565b6109ba565b91610a076109db926000610a01610112966109f9600090565b506001610948565b01610948565b610450565b6100fc90610a286107ec6101466003546001600160a01b031690565b610ab5565b15610a3457565b60405162461bcd60e51b815260206004820152602d60248201527f6e65772062726964676520616464726573732063616e6e6f742062652074686560448201526c207a65726f206164647265737360981b6064820152608490fd5b906001600160a01b0390610957565b90610aae6101126109789261093f565b8254610a8f565b6100fc90610ada610ac96101466000610852565b6001600160a01b0383161415610a2d565b6002610a9e565b6100fc90610a0c565b15610af157565b60405162461bcd60e51b815260206004820152602e60248201527f6f6e6c7920627269646765206164647265737320697320616c6c6f776564206660448201526d37b9103a3434b99030b1ba34b7b760911b6064820152608490fd5b90610112969594939291610b76610b6f6101466002546001600160a01b031690565b3314610aea565b610baf565b610b8560166107f8565b75696e76616c69642073656e646572206164647265737360501b602082015290565b610112610b7b565b90610112969594939291610bc46108fe610ba7565b610bfc565b610bd360156107f8565b74696e76616c696420746f6b656e206164647265737360581b602082015290565b610112610bc9565b90610112969594939291610c38610c128461093f565b610c1a610bf4565b90610916610c2b6101466000610852565b916001600160a01b031690565b90610112969594939291610c69610c4d61083d565b610c5a6101466000610852565b6001600160a01b038816610916565b610ca9565b610c7860196107f8565b7f696e76616c696420726563697069656e74206164647265737300000000000000602082015290565b610112610c6e565b90610112969594939291610cda610cbe610ca1565b610ccb6101466000610852565b6001600160a01b038916610916565b610d70565b634e487b7160e01b600052601160045260246000fd5b91908201809211610d0257565b610cdf565b9060001990610957565b90610d2161011261097892610443565b8254610d07565b634e487b7160e01b600052602160045260246000fd5b60021115610d4857565b610d28565b906100fc82610d3e565b61011290610d4d565b9061097161011261097892610d57565b6101129550610dc0915095610dba610dab610dc795610d9d9950610a07610da4600060019c8d9b8c610948565b019761093f565b8097610948565b91610db5836109ba565b610cf5565b90610d11565b6000610948565b610d60565b6101129594939291906000610b4d565b906101129594939291610dfd610b6f6101466002546001600160a01b031690565b906101129594939291610e116108fe610ba7565b906101129594939291610e26610c128461093f565b906101129594939291610e56610e3a61083d565b610e476101466000610852565b6001600160a01b038716610916565b906101129594939291610e6a610c4d610ca1565b610eba959450610eb49150610e946000610e8d610dc796610e9b94506001610948565b019361093f565b8093610948565b93610dba610dab600096610eae88610443565b90610450565b82610948565b600190565b61011294939291906000610ddc565b15610ed557565b60405162461bcd60e51b815260206004820152602c60248201527f6f6e6c792062616e6b2061646d696e732061726520616c6c6f77656420666f7260448201526b103a3434b99030b1ba34b7b760a11b6064820152608490fd5b906101129897969594939291610f56610f4c6109a0336004610948565b1515600114610ece565b906101129897969594939291610f89610f6d610bf4565b610f7a6101466000610852565b6001600160a01b038616610916565b610fc9565b610f98601f6107f8565b7f696e76616c69642027746f2062616e6b2061646d696e27206164647265737300602082015290565b610112610f8e565b906101129897969594939291610fe06108fe610fc1565b6111a7565b15610fec57565b60405162461bcd60e51b8152602060048201526012602482015271696e73756666696369656e742066756e647360701b6044820152606490fd5b1561102d57565b60405162461bcd60e51b815260206004820152602960248201527f62756e646c652068617368657320616e6420616d6f756e7473206c656e677468604482015268040dad2e6dac2e8c6d60bb1b6064820152608490fd5b634e487b7160e01b600052603260045260246000fd5b91908110156110aa576020020190565b611084565b35610112816101c2565b156110c057565b60405162461bcd60e51b815260206004820152602a60248201527f73756d206f6620616d6f756e747320646f6573206e6f74206d6174636820746f6044820152691d185b08185b5bdd5b9d60b21b6064820152608490fd5b91908203918211610d0257565b9037565b8183529091602001916001600160fb1b0381116100ea57829160206105a19202938491611125565b959361118c611199946111856101129a98949561117e60a08c019760008d01906001600160a01b03169052565b60208b0152565b6040890152565b8683036060880152611129565b926080818503910152611129565b50600197939690959294919392909185856111c2338c610948565b6111cc9190610948565b906111d691610450565b6111df906109ba565b8811156111eb90610fe5565b868989866111fa818714611026565b826112056000610443565b9182915b6112ca575b505089610a078a6000610a017fc529173a1b34873dedb51f1b41828fcced6b355f3ee0d8512e8ecb7dadf05a229e9d9c9a986112c49c9a9861128d896112686112929a61126261125e61129f9e90565b9190565b146110b9565b610dba61127e8a610a078a8a610a01338a610948565b91611288836109ba565b611118565b610948565b610dba8c610db5836109ba565b6112b16112ab3361093f565b9961093f565b996112bb60405190565b97889788611151565b0390a390565b909490928386101561130a5750506112f86112ff916112f26112ed878c8c61109a565b6110af565b90610cf5565b9360010190565b928a938c9284611209565b9281955061120e565b61011297969594939291906000610f2f565b61133e6113386101129263ffffffff1690565b60e01b90565b6001600160e01b03191690565b5050505050611358600090565b5061011263bc197c81611325565b6000198114610d025760010190565b6100fc9061139561138e61138960056109ba565b611366565b6005610d11565b6113aa6113a260056109ba565b916006610450565b610d11565b50505050506113bc600090565b5061011263f23a6e6161132556fea26469706673582212205bcadd232773bef8deda96de163e97baa8a393c218c0ae51bdf1af2cb0640ad764736f6c63430008190033",
  "linkReferences": {},
  "deployedLinkReferences": {}
}