{
  "_format": "hh-sol-artifact-1",
  "contractName": "TransparentProxy",
  "sourceName": "contracts/common/TransparentProxy.sol",
  "abi": [
    {
      "inputs": [
        {
          "internalType": "address",
          "name": "_logic",
          "type": "address"
        },
        {
          "internalType": "address",
          "name": "admin",
          "type": "address"
        },
        {
          "internalType": "bytes",
          "name": "_data",
          "type": "bytes"
        }
      ],
      "stateMutability": "nonpayable",
      "type": "constructor"
    },
    {
      "anonymous": false,
      "inputs": [
        {
          "indexed": false,
          "internalType": "address",
          "name": "previousAdmin",
          "type": "address"
        },
        {
          "indexed": false,
          "internalType": "address",
          "name": "newAdmin",
          "type": "address"
        }
      ],
      "name": "AdminChanged",
      "type": "event"
    },
    {
      "anonymous": false,
      "inputs": [
        {
          "indexed": true,
          "internalType": "address",
          "name": "beacon",
          "type": "address"
        }
      ],
      "name": "BeaconUpgraded",
      "type": "event"
    },
    {
      "anonymous": false,
      "inputs": [
        {
          "indexed": true,
          "internalType": "address",
          "name": "previousOwner",
          "type": "address"
        },
        {
          "indexed": true,
          "internalType": "address",
          "name": "newOwner",
          "type": "address"
        }
      ],
      "name": "OwnershipTransferred",
      "type": "event"
    },
    {
      "anonymous": false,
      "inputs": [
        {
          "indexed": true,
          "internalType": "address",
          "name": "implementation",
          "type": "address"
        }
      ],
      "name": "Upgraded",
      "type": "event"
    },
    {
      "stateMutability": "payable",
      "type": "fallback"
    },
    {
      "inputs": [],
      "name": "admin",
      "outputs": [
        {
          "internalType": "address",
          "name": "admin_",
          "type": "address"
        }
      ],
      "stateMutability": "nonpayable",
      "type": "function"
    },
    {
      "inputs": [
        {
          "internalType": "address",
          "name": "newAdmin",
          "type": "address"
        }
      ],
      "name": "changeAdmin",
      "outputs": [],
      "stateMutability": "nonpayable",
      "type": "function"
    },
    {
      "inputs": [],
      "name": "implementation",
      "outputs": [
        {
          "internalType": "address",
          "name": "implementation_",
          "type": "address"
        }
      ],
      "stateMutability": "nonpayable",
      "type": "function"
    },
    {
      "inputs": [],
      "name": "owner",
      "outputs": [
        {
          "internalType": "address",
          "name": "",
          "type": "address"
        }
      ],
      "stateMutability": "view",
      "type": "function"
    },
    {
      "inputs": [],
      "name": "renounceOwnership",
      "outputs": [],
      "stateMutability": "nonpayable",
      "type": "function"
    },
    {
      "inputs": [
        {
          "internalType": "address",
          "name": "newOwner",
          "type": "address"
        }
      ],
      "name": "transferOwnership",
      "outputs": [],
      "stateMutability": "nonpayable",
      "type": "function"
    },
    {
      "inputs": [
        {
          "internalType": "address",
          "name": "newImplementation",
          "type": "address"
        }
      ],
      "name": "upgradeTo",
      "outputs": [],
      "stateMutability": "nonpayable",
      "type": "function"
    },
    {
      "inputs": [
        {
          "internalType": "address",
          "name": "newImplementation",
          "type": "address"
        },
        {
          "internalType": "bytes",
          "name": "data",
          "type": "bytes"
        }
      ],
      "name": "upgradeToAndCall",
      "outputs": [],
      "stateMutability": "payable",
      "type": "function"
    },
    {
      "stateMutability": "payable",
      "type": "receive"
    }
  ],
  "bytecode": "0x60806040523461002b5761001a61001461017e565b916101a1565b604051610b946108338239610b9490f35b600080fd5b634e487b7160e01b600052604160045260246000fd5b90601f01601f191681019081106001600160401b0382111761006757604052565b610030565b9061008061007960405190565b9283610046565b565b6001600160a01b031690565b90565b6001600160a01b0381160361002b57565b9050519061008082610091565b6001600160401b03811161006757602090601f01601f19160190565b0190565b60005b8381106100e25750506000910152565b81810151838201526020016100d2565b90929192610107610102826100af565b61006c565b938185528183011161002b576100809160208501906100cf565b9080601f8301121561002b57815161008e926020016100f2565b9160608383031261002b5761015082846100a2565b9261015e83602083016100a2565b60408201519093906001600160401b03811161002b5761008e9201610121565b61019c6113c7803803806101918161006c565b92833981019061013b565b909192565b61008092826101af926101b4565b61029c565b906101bf92916101cd565b6100803361030e565b61030e565b906100809291610080926101e0916101e5565b61037f565b610080916000916103d7565b610080906101fd61046a565b610277565b61008261008e61008e9290565b61008e90610202565b1561021f57565b60405162461bcd60e51b815260206004820152602660248201527f4f776e61626c653a206e6577206f776e657220697320746865207a65726f206160448201526564647265737360d01b6064820152608490fd5b0390fd5b610080906101c861028b610082600061020f565b6001600160a01b0383161415610218565b610080906101f1565b61008e90610082565b61008e90546102a5565b61008e90610082906001600160a01b031682565b61008e906102b8565b61008e906102cc565b906102ee61008e61030a926102d5565b82546001600160a01b0319166001600160a01b03919091161790565b9055565b61033461032e61031e60006102ae565b6103298460006102de565b6102d5565b916102d5565b907f8be0079c531659141344cd1fd0a4f28419497f9722a3daafe3b4186f6b6457e061035f60405190565b600090a3565b6001600160a01b0391821681529116602082015260400190565b610080907f7e644d79422f17c01e4894b5f4f588d331ebfa28653d42ae832dc59e38c9798f816103ad6104bd565b6103c26103b960405190565b92839283610365565b0390a161052e565b61008e61008e61008e9290565b916103e183610566565b81516103f46103f060006103ca565b9190565b11908115610412575b50610406575050565b61040f91610600565b50565b9050386103fd565b1561042157565b60405162461bcd60e51b815280610273600482016020808252818101527f4f776e61626c653a2063616c6c6572206973206e6f7420746865206f776e6572604082015260600190565b610080610475610612565b61048e61048133610082565b916001600160a01b031690565b1461041a565b61008e7fb53127684a568b3173ae13b9f8a6016e243e63b6e8ee1178d6a717850b5d61036103ca565b61008e60006104cd61008e610494565b016102ae565b156104da57565b60405162461bcd60e51b815260206004820152602660248201527f455243313936373a206e65772061646d696e20697320746865207a65726f206160448201526564647265737360d01b6064820152608490fd5b61008090610553610542610082600061020f565b6001600160a01b03831614156104d3565b600061056061008e610494565b016102de565b61057390610329816106a7565b7fbc7cd75a20ee27fd9adebab32041f755214dbc6bffa90cc0225b39da2e5c2d3b61059d60405190565b600090a2565b906105b0610102836100af565b918252565b6105bf60276105a3565b7f416464726573733a206c6f772d6c6576656c2064656c65676174652063616c6c6020820152660819985a5b195960ca1b604082015290565b61008e6105b5565b61008e9161060c6105f8565b916106e8565b61008e60006102ae565b1561062357565b60405162461bcd60e51b815260206004820152602d60248201527f455243313936373a206e657720696d706c656d656e746174696f6e206973206e60448201526c1bdd08184818dbdb9d1c9858dd609a1b6064820152608490fd5b61008e7f360894a13ba1a3210667c828492db98dca3e2076cc3735a920a3ca505d382bbc6103ca565b610080906106bc6106b782610710565b61061c565b600061056061008e61067e565b3d156106e3576106d83d6105a3565b903d6000602084013e565b606090565b60008061008e94936106f8606090565b50602081519101845af461070a6106c9565b9161076e565b3b61071e6103f060006103ca565b1190565b1561072957565b60405162461bcd60e51b815260206004820152601d60248201527f416464726573733a2063616c6c20746f206e6f6e2d636f6e74726163740000006044820152606490fd5b919290156107a0575081516107866103f060006103ca565b1461078f575090565b61079b61008e91610710565b610722565b826107eb565b6107c76107d06020936100cb936107bb815190565b80835293849260200190565b958691016100cf565b601f01601f191690565b602080825261008e929101906107a6565b906107f4825190565b6108016103f060006103ca565b11156108105750805190602001fd5b6102739061081d60405190565b62461bcd60e51b8152918291600483016107da56fe60806040526004361015610018575b3661025c5761025c565b60003560e01c80633659cfe6146100985780634f1ef286146100935780635c60da1b1461008e578063715018a6146100895780638da5cb5b146100845780638f2839701461007f578063f2fde38b1461007a5763f851a4400361000e57610227565b61020f565b6101f7565b6101dc565b6101c4565b61018f565b610170565b6100e5565b6001600160a01b031690565b90565b6001600160a01b038116036100bd57565b600080fd5b905035906100cf826100ac565b565b906020828203126100bd576100a9916100c2565b346100bd576100fd6100f83660046100d1565b610310565b604051005b0390f35b909182601f830112156100bd5781359167ffffffffffffffff83116100bd5760200192600183028401116100bd57565b9190916040818403126100bd5761014d83826100c2565b92602082013567ffffffffffffffff81116100bd5761016c9201610106565b9091565b6100fd61017e366004610136565b91610385565b60009103126100bd57565b346100bd5761019f366004610184565b6101026101aa6103ab565b604051918291826001600160a01b03909116815260200190565b346100bd576101d4366004610184565b6100fd6103ed565b346100bd576101ec366004610184565b6101026101aa610408565b346100bd576100fd61020a3660046100d1565b610430565b346100bd576100fd6102223660046100d1565b6104ce565b346100bd57610237366004610184565b6101026101aa6104f2565b61024d61009d610532565b330361025c576100cf906102fc565b610548565b634e487b7160e01b600052604160045260246000fd5b90601f01601f1916810190811067ffffffffffffffff82111761029957604052565b610261565b906100cf6102ab60405190565b9283610277565b67ffffffffffffffff811161029957602090601f01601f19160190565b0190565b906102e56102e0836102b2565b61029e565b918252565b6100a960006102d3565b6100a96102ea565b60006100cf9161030a6102f4565b9061055d565b6100cf90610242565b919061032661009d610532565b330361025c576100cf92610376565b90826000939282370152565b909291926103516102e0826102b2565b93818552818301116100bd576100cf916020850190610335565b6100a9913691610341565b61030a6100cf9360019361036b565b906100cf9291610319565b61039b61009d610532565b330361025c57506100a9806105a0565b6100a96000610390565b6103bd6105f8565b6100cf6103db565b61009d6100a96100a99290565b6100a9906103c5565b6100cf6103e860006103d2565b610678565b6100cf6103b5565b6100a99061009d565b6100a990546103f5565b6100a960006103fe565b61041d61009d610532565b330361025c576100cf906100cf906106e9565b6100cf90610412565b6100cf906104456105f8565b6104a9565b1561045157565b60405162461bcd60e51b815260206004820152602660248201527f4f776e61626c653a206e6577206f776e657220697320746865207a65726f206160448201526564647265737360d01b6064820152608490fd5b0390fd5b6100cf906103e86104bd61009d60006103d2565b6001600160a01b038316141561044a565b6100cf90610439565b6104e261009d610532565b330361025c57506100a980610532565b6100a960006104d7565b6100a96100a96100a99290565b6100a97fb53127684a568b3173ae13b9f8a6016e243e63b6e8ee1178d6a717850b5d61036104fc565b6100a960006105426100a9610509565b016103fe565b6105506107b1565b6105586105a0565b6107c7565b91610567836107e8565b815161057a61057660006104fc565b9190565b11908115610598575b5061058c575050565b61059591610870565b50565b905038610583565b6100a96108ab565b156105af57565b60405162461bcd60e51b8152806104a5600482016020808252818101527f4f776e61626c653a2063616c6c6572206973206e6f7420746865206f776e6572604082015260600190565b6100cf610603610408565b61061c61060f3361009d565b916001600160a01b031690565b146105a8565b6100a99061009d906001600160a01b031682565b6100a990610622565b6100a990610636565b906106586100a96106749261063f565b82546001600160a01b0319166001600160a01b03919091161790565b9055565b61069e61069861068860006103fe565b610693846000610648565b61063f565b9161063f565b907f8be0079c531659141344cd1fd0a4f28419497f9722a3daafe3b4186f6b6457e06106c960405190565b600090a3565b6001600160a01b0391821681529116602082015260400190565b6100cf907f7e644d79422f17c01e4894b5f4f588d331ebfa28653d42ae832dc59e38c9798f81610717610532565b61072c61072360405190565b928392836106cf565b0390a1610916565b1561073b57565b60405162461bcd60e51b815260206004820152604260248201527f5472616e73706172656e745570677261646561626c6550726f78793a2061646d60448201527f696e2063616e6e6f742066616c6c6261636b20746f2070726f78792074617267606482015261195d60f21b608482015260a490fd5b6100cf6107bf61009d610532565b331415610734565b60008091368280378136915af43d6000803e156107e3573d6000f35b3d6000fd5b6107f590610693816109b0565b7fbc7cd75a20ee27fd9adebab32041f755214dbc6bffa90cc0225b39da2e5c2d3b61081f60405190565b600090a2565b61082f60276102d3565b7f416464726573733a206c6f772d6c6576656c2064656c65676174652063616c6c6020820152660819985a5b195960ca1b604082015290565b6100a9610825565b6100a99161087c610868565b916109f1565b6100a97f360894a13ba1a3210667c828492db98dca3e2076cc3735a920a3ca505d382bbc6104fc565b6100a960006105426100a9610882565b156108c257565b60405162461bcd60e51b815260206004820152602660248201527f455243313936373a206e65772061646d696e20697320746865207a65726f206160448201526564647265737360d01b6064820152608490fd5b6100cf9061093b61092a61009d60006103d2565b6001600160a01b03831614156108bb565b60006109486100a9610509565b01610648565b1561095557565b60405162461bcd60e51b815260206004820152602d60248201527f455243313936373a206e657720696d706c656d656e746174696f6e206973206e60448201526c1bdd08184818dbdb9d1c9858dd609a1b6064820152608490fd5b6100cf906109c56109c082610a19565b61094e565b60006109486100a9610882565b3d156109ec576109e13d6102d3565b903d6000602084013e565b606090565b6000806100a99493610a01606090565b50602081519101845af4610a136109d2565b91610a77565b3b610a2761057660006104fc565b1190565b15610a3257565b60405162461bcd60e51b815260206004820152601d60248201527f416464726573733a2063616c6c20746f206e6f6e2d636f6e74726163740000006044820152606490fd5b91929015610aa957508151610a8f61057660006104fc565b14610a98575090565b610aa46100a991610a19565b610a2b565b82610b17565b60005b838110610ac25750506000910152565b8181015183820152602001610ab2565b610af3610afc6020936102cf93610ae7815190565b80835293849260200190565b95869101610aaf565b601f01601f191690565b60208082526100a992910190610ad2565b90610b20825190565b610b2d61057660006104fc565b1115610b3c5750805190602001fd5b6104a590610b4960405190565b62461bcd60e51b815291829160048301610b0656fea26469706673582212201e6209916a125945d9302d0c899c772fb444ab70db6e2eeeec69c92b648b21a764736f6c63430008190033",
  "linkReferences": {},
  "deployedLinkReferences": {}
}