{
  "_format": "hh-sol-artifact-1",
  "contractName": "BankApp",
  "sourceName": "contracts/BankApp.sol",
  "abi": [
    {
      "inputs": [
        {
          "internalType": "contract IDvpEscrow",
          "name": "escrow",
          "type": "address"
        },
        {
          "internalType": "address",
          "name": "token",
          "type": "address"
        }
      ],
      "stateMutability": "nonpayable",
      "type": "constructor"
    },
    {
      "inputs": [],
      "name": "savedBundleHash",
      "outputs": [
        {
          "internalType": "uint256",
          "name": "",
          "type": "uint256"
        }
      ],
      "stateMutability": "view",
      "type": "function"
    },
    {
      "inputs": [],
      "name": "savedChunkHash",
      "outputs": [
        {
          "internalType": "uint256",
          "name": "",
          "type": "uint256"
        }
      ],
      "stateMutability": "view",
      "type": "function"
    },
    {
      "inputs": [
        {
          "internalType": "address",
          "name": "to",
          "type": "address"
        },
        {
          "internalType": "uint256",
          "name": "chunkHash",
          "type": "uint256"
        },
        {
          "internalType": "uint256",
          "name": "bundleHash",
          "type": "uint256"
        },
        {
          "internalType": "uint256",
          "name": "expireTime",
          "type": "uint256"
        }
      ],
      "name": "triggerDvp",
      "outputs": [],
      "stateMutability": "nonpayable",
      "type": "function"
    }
  ],
  "bytecode": "0x60806040523461002b5761001a6100146100ef565b90610167565b60405161045d61017e823961045d90f35b600080fd5b634e487b7160e01b600052604160045260246000fd5b90601f01601f191681019081106001600160401b0382111761006757604052565b610030565b9061008061007960405190565b9283610046565b565b6001600160a01b031690565b90565b6001600160a01b0381165b0361002b57565b9050519061008082610091565b6001600160a01b03811661009c565b90505190610080826100b0565b919060408382031261002b5761008e9060206100e882866100a3565b94016100bf565b61010d6105db803803806101028161006c565b9283398101906100cc565b9091565b61008e90610082906001600160a01b031682565b61008e90610111565b61008e90610125565b9061014761008e6101639261012e565b82546001600160a01b0319166001600160a01b03919091161790565b9055565b90610176610080926000610137565b600161013756fe6080604052600436101561001257600080fd5b60003560e01c80634dea5702146100425780636dd5d0851461003d5763ebcaf7930361006857610154565b61011d565b6100cb565b6001600160a01b031690565b90565b6001600160a01b0381165b0361006857565b600080fd5b9050359061007a82610056565b565b80610061565b9050359061007a8261007c565b608081830312610068576100a3828261006d565b926100536100b48460208501610082565b9360606100c48260408701610082565b9401610082565b34610068576100e76100de36600461008f565b929190916102ed565b604051005b0390f35b600091031261006857565b610053916008021c81565b9061005391546100fb565b61005360006003610106565b346100685761012d3660046100f0565b6100ec610138610111565b6040519182918290815260200190565b61005360006002610106565b34610068576101643660046100f0565b6100ec610138610148565b634e487b7160e01b600052604160045260246000fd5b90601f01601f1916810190811067ffffffffffffffff8211176101a757604052565b61016f565b9061007a6101b960405190565b9283610185565b6100536101206101ac565b6100536100536100539290565b906100536100536101e8926101cb565b9055565b61005390610047906001600160a01b031682565b610053906101ec565b61005390610200565b801515610061565b9050519061007a82610212565b90602082820312610068576100539161021a565b80516001600160a01b0316825261007a91906101009081906020818101516001600160a01b03169085015261027560408201516040860152565b61028460608201516060860152565b61029360808201516080860152565b6102a260a082015160a0860152565b6102b160c082015160c0860152565b6102c060e082015160e0860152565b01516001600160a01b0316910152565b6101208101929161007a919061023b565b6040513d6000823e3d90fd5b6103d99061039b60209361038d60009761033e6103126001546001600160a01b031690565b9561032f61031e6101c0565b6001600160a01b039098168c890152565b6001600160a01b031686890152565b61037061034a8a6101cb565b610355816040890152565b61036961036260646101cb565b6060890152565b6080870152565b61037b8360a0870152565b6103868860c0870152565b60e0850152565b3361010084015260026101d8565b6103b46103af86546001600160a01b031690565b610209565b906103be60405190565b9586938492839190633bd97f2d60e11b8352600483016102d0565b03925af19182156104225761007a926103f5575b5060036101d8565b6104169060203d60201161041b575b61040e8183610185565b810190610227565b6103ed565b503d610404565b6102e156fea2646970667358221220b0681cd93f17d9103eadde334242aef02f12eabe078768844d382db9e1fa0aec64736f6c63430008190033",
  "linkReferences": {},
  "deployedLinkReferences": {}
}