{
  "_format": "hh-sol-artifact-1",
  "contractName": "RootStorage",
  "sourceName": "contracts/ucl/image9/nova/test/generated/merkel_root_strorage.sol",
  "abi": [
    {
      "inputs": [],
      "name": "balanceRoot",
      "outputs": [
        {
          "internalType": "uint256",
          "name": "",
          "type": "uint256"
        }
      ],
      "stateMutability": "view",
      "type": "function"
    },
    {
      "inputs": [],
      "name": "balanceRootOfRoots",
      "outputs": [
        {
          "internalType": "uint256",
          "name": "",
          "type": "uint256"
        }
      ],
      "stateMutability": "view",
      "type": "function"
    },
    {
      "inputs": [
        {
          "internalType": "uint256",
          "name": "contractAddr",
          "type": "uint256"
        },
        {
          "internalType": "string",
          "name": "bic",
          "type": "string"
        }
      ],
      "name": "computeAddressKey",
      "outputs": [
        {
          "internalType": "uint256",
          "name": "",
          "type": "uint256"
        }
      ],
      "stateMutability": "pure",
      "type": "function"
    },
    {
      "inputs": [
        {
          "internalType": "uint256",
          "name": "",
          "type": "uint256"
        }
      ],
      "name": "latestBalanceRoots",
      "outputs": [
        {
          "internalType": "uint256",
          "name": "",
          "type": "uint256"
        }
      ],
      "stateMutability": "view",
      "type": "function"
    },
    {
      "inputs": [
        {
          "internalType": "uint256",
          "name": "addr",
          "type": "uint256"
        },
        {
          "internalType": "uint256",
          "name": "txRoot",
          "type": "uint256"
        },
        {
          "internalType": "uint256",
          "name": "balanceRoot",
          "type": "uint256"
        },
        {
          "internalType": "string",
          "name": "bic",
          "type": "string"
        }
      ],
      "name": "queryBalanceRootOfRootsExist",
      "outputs": [
        {
          "internalType": "uint256",
          "name": "",
          "type": "uint256"
        }
      ],
      "stateMutability": "view",
      "type": "function"
    },
    {
      "inputs": [
        {
          "internalType": "uint256",
          "name": "addr",
          "type": "uint256"
        },
        {
          "internalType": "string",
          "name": "bic",
          "type": "string"
        }
      ],
      "name": "queryLatestBalanceRoot",
      "outputs": [
        {
          "internalType": "uint256",
          "name": "",
          "type": "uint256"
        }
      ],
      "stateMutability": "view",
      "type": "function"
    },
    {
      "inputs": [
        {
          "internalType": "uint256",
          "name": "addr",
          "type": "uint256"
        },
        {
          "internalType": "uint256",
          "name": "root",
          "type": "uint256"
        },
        {
          "internalType": "string",
          "name": "bic",
          "type": "string"
        }
      ],
      "name": "queryTxRootExist",
      "outputs": [
        {
          "internalType": "uint256",
          "name": "",
          "type": "uint256"
        }
      ],
      "stateMutability": "view",
      "type": "function"
    },
    {
      "inputs": [],
      "name": "txRoot",
      "outputs": [
        {
          "internalType": "uint256",
          "name": "",
          "type": "uint256"
        }
      ],
      "stateMutability": "view",
      "type": "function"
    },
    {
      "inputs": [
        {
          "internalType": "bytes",
          "name": "data",
          "type": "bytes"
        },
        {
          "internalType": "uint256",
          "name": "contractAddr",
          "type": "uint256"
        },
        {
          "internalType": "string",
          "name": "bic",
          "type": "string"
        }
      ],
      "name": "verify",
      "outputs": [
        {
          "internalType": "Fr[]",
          "name": "",
          "type": "uint256[]"
        }
      ],
      "stateMutability": "nonpayable",
      "type": "function"
    }
  ],
  "bytecode": "0x608060405234601957604051610c1361001f8239610c1390f35b600080fdfe6080604052600436101561001257600080fd5b60003560e01c806329f9ebf8146100a257806346ddff421461009d578063b2df19da14610098578063bbef769c14610093578063d33bd9381461008e578063df2b915a14610089578063f2761a6514610084578063f78dfd5a1461007f5763fbe5fbbb036100b257610489565b61046a565b610416565b6103bd565b6102c0565b610298565b610182565b61015b565b6100e2565b60009103126100b257565b600080fd5b6100c2916008021c81565b90565b906100c291546100b7565b6100c2600060036100c5565b9052565b565b346100b2576100f23660046100a7565b61010d6100fd6100d0565b6040519182918290815260200190565b0390f35b906020828203126100b257503590565b6100c26100c26100c29290565b9061013890610121565b600052602052604060002090565b60006101566100c292600461012e565b6100c5565b346100b25761010d6100fd610171366004610111565b610146565b6100c2600060026100c5565b346100b2576101923660046100a7565b61010d6100fd610176565b634e487b7160e01b600052604160045260246000fd5b90601f01601f1916810190811067ffffffffffffffff8211176101d557604052565b61019d565b906100e06101e760405190565b92836101b3565b67ffffffffffffffff81116101d557602090601f01601f19160190565b0190565b90826000939282370152565b9092919261023061022b826101ee565b6101da565b93818552818301116100b2576100e091602085019061020f565b9080601f830112156100b2578160206100c29335910161021b565b916060838303126100b25782359260208101355b92604082013567ffffffffffffffff81116100b2576100c2920161024a565b346100b25761010d6100fd6102ae366004610265565b916104b6565b6100c2600060016100c5565b346100b2576102d03660046100a7565b61010d6100fd6102b4565b909182601f830112156100b25781359167ffffffffffffffff83116100b25760200192600183028401116100b257565b91906060838203126100b257823567ffffffffffffffff81116100b257816103349185016102db565b90939092906020810135610279565b6100dc90610121565b9061020b81602093610343565b90610379610372610368845190565b8084529260200190565b9260200190565b9060005b81811061038a5750505090565b9091926103a461039d600192865161034c565b9460200190565b92910161037d565b60208082526100c292910190610359565b346100b25761010d6103dc6103d336600461030b565b929190916106fb565b604051918291826103ac565b9190916040818403126100b257803592602082013567ffffffffffffffff81116100b2576100c2920161024a565b346100b25761010d6100fd61042c3660046103e8565b90610890565b906080828203126100b257813592602083013592604081013592606082013567ffffffffffffffff81116100b2576100c2920161024a565b346100b25761010d6100fd610480366004610432565b929190916108d9565b346100b25761010d6100fd61049f3660046103e8565b9061092d565b6100c29081565b6100c290546104a5565b9060006104db6104d56100c2956104e1956104cf600090565b50610890565b8261012e565b0161012e565b6104ac565b6100c260206101da565b6104f86104e6565b9060608252565b6100c26104f0565b6100c291369161021b565b67ffffffffffffffff81116101d55760208091020190565b9092919261053a61022b82610512565b93818552602080860192028301928184116100b257915b83831061055e5750505050565b8251815260209283019201610551565b9080601f830112156100b25781516100c29260200161052a565b916060838303126100b257825192602081015167ffffffffffffffff81116100b257836105b691830161056e565b92604082015167ffffffffffffffff81116100b2576100c2920161056e565b60005b8381106105e85750506000910152565b81810151838201526020016105d8565b61061961062260209361020b9361060d815190565b80835293849260200190565b958691016105d5565b601f01601f191690565b5160208083526100c29201906105f8565b60208082526100c29291019061062c565b6040513d6000823e3d90fd5b634e487b7160e01b600052601160045260246000fd5b9190820180921161067d57565b61065a565b9061068f61022b83610512565b918252565b369037565b906100e06106af6106a984610682565b93610512565b601f190160208401610694565b60010190565b634e487b7160e01b600052603260045260246000fd5b906106e1825190565b8110156106f2576020809102010190565b6106c2565b5190565b60009061071e61075496959361070f606090565b506107186104ff565b92610507565b8183015273__$5354bfe44937a23251cb74f1c3bd9e72fd$__60405196879283918291632d03b6d960e01b83526004830161063d565b03915af491821561084557600094859361081c575b50825161078a61078560019261077f6001610121565b90610670565b610699565b90806107966000610121565b905b6107dc575b50506107d76107c36107be6100c29697986107b86002610121565b906106d8565b6106f7565b6107d46107ce885190565b846106d8565b52565b610a1b565b6107e76100c2875190565b811015610817578061080c6108026107be610811948a6106d8565b6107d483876106d8565b6106bc565b81610798565b61079d565b909261083b9295503d8091833e61083381836101b3565b810190610588565b9491929092610769565b61064e565b61020b6108629260209261085c815190565b94859290565b938491016105d5565b8061087b6020926100c295949052565b019061084a565b6100c290610121565b610121565b6108c16100c2926108b5926108a3600090565b5060405193849260208401928361086b565b908103825203826101b3565b6108d36108cc825190565b9160200190565b20610882565b90926108e69160006104cf565b6108fa6104e1600094856104db858261012e565b61090a61090685610121565b9190565b14610922579060016104db6104e1936100c29561012e565b50506100c290610121565b6109406100c2926104e1926104cf600090565b600461012e565b6020808252601b908201527f726f6f74206c656e677468206d75737420657175616c20746f20340000000000604082015260600190565b1561098557565b60405162461bcd60e51b81528061099e60048201610947565b0390fd5b906100c26100c26109b292610121565b9055565b9061068f61022b836101ee565b6109cd60086109b6565b6703a3c2937b7ba1d160c51b602082015290565b6100c26109c3565b6109f360146109b6565b7303130b630b731b2a937b7ba27b32937b7ba399d160651b602082015290565b6100c26109e9565b906001610a2e610b0f94610a8893610890565b92610a4d610a3a825190565b610a476109066004610121565b1461097e565b610a70610a6961088b6107be610a636003610121565b856106d8565b60026109a2565b610a8d610a7d60026104ac565b610a8886600461012e565b6109a2565b610aa9610aa361088b6107be610a636000610121565b836109a2565b610ac2610ab5836104ac565b610abd6109e1565b610b46565b610b04610afd61088b6107be610adc6100c289600061012e565b94610af489610a8888610aee8b6104ac565b9061012e565b6107b887610121565b60036109a2565b01610aee60036104ac565b6100e0610b1c60036104ac565b610abd610a13565b92916020610b416100e093604087019087820360008901526105f8565b940152565b90610b826100e092610b73610b5a60405190565b632d839cb360e21b602082015293849260248401610b24565b602082018103825203826101b3565b6100e090610b9060016100c2565b610bcd565b60008091610bab6a636f6e736f6c652e6c6f6790565b602082519201905afa50565b634e487b7160e01b600052605160045260246000fd5b600103610bb7576100e090610b9556fea26469706673582212206297026f37d07f61a161ad68c69b740c794ea203b3bef6cdb2eec85b5463342364736f6c63430008190033",
  "linkReferences": {
    "contracts/ucl/image9/nova/sol/verifier.sol": {
      "ZkVerifier": [
        {
          "length": 20,
          "start": 1859
        }
      ]
    }
  },
  "deployedLinkReferences": {
    "contracts/ucl/image9/nova/sol/verifier.sol": {
      "ZkVerifier": [
        {
          "length": 20,
          "start": 1828
        }
      ]
    }
  }
}