{
  "_format": "hh-sol-artifact-1",
  "contractName": "Simple",
  "sourceName": "contracts/ucl/image9/nova/Simple.sol",
  "abi": [
    {
      "inputs": [
        {
          "internalType": "string",
          "name": "name",
          "type": "string"
        },
        {
          "internalType": "string",
          "name": "symbol",
          "type": "string"
        }
      ],
      "stateMutability": "nonpayable",
      "type": "constructor"
    },
    {
      "anonymous": false,
      "inputs": [
        {
          "indexed": true,
          "internalType": "address",
          "name": "owner",
          "type": "address"
        },
        {
          "indexed": true,
          "internalType": "address",
          "name": "spender",
          "type": "address"
        },
        {
          "indexed": false,
          "internalType": "uint256",
          "name": "value",
          "type": "uint256"
        }
      ],
      "name": "Approval",
      "type": "event"
    },
    {
      "anonymous": false,
      "inputs": [
        {
          "indexed": true,
          "internalType": "address",
          "name": "from",
          "type": "address"
        },
        {
          "indexed": true,
          "internalType": "address",
          "name": "to",
          "type": "address"
        },
        {
          "indexed": false,
          "internalType": "uint256",
          "name": "value",
          "type": "uint256"
        }
      ],
      "name": "Transfer",
      "type": "event"
    },
    {
      "inputs": [
        {
          "internalType": "address",
          "name": "owner",
          "type": "address"
        },
        {
          "internalType": "address",
          "name": "spender",
          "type": "address"
        }
      ],
      "name": "allowance",
      "outputs": [
        {
          "internalType": "uint256",
          "name": "",
          "type": "uint256"
        }
      ],
      "stateMutability": "view",
      "type": "function"
    },
    {
      "inputs": [
        {
          "internalType": "address",
          "name": "spender",
          "type": "address"
        },
        {
          "internalType": "uint256",
          "name": "amount",
          "type": "uint256"
        }
      ],
      "name": "approve",
      "outputs": [
        {
          "internalType": "bool",
          "name": "",
          "type": "bool"
        }
      ],
      "stateMutability": "nonpayable",
      "type": "function"
    },
    {
      "inputs": [
        {
          "internalType": "address",
          "name": "account",
          "type": "address"
        }
      ],
      "name": "balanceOf",
      "outputs": [
        {
          "internalType": "uint256",
          "name": "",
          "type": "uint256"
        }
      ],
      "stateMutability": "view",
      "type": "function"
    },
    {
      "inputs": [],
      "name": "brand",
      "outputs": [
        {
          "internalType": "string",
          "name": "",
          "type": "string"
        }
      ],
      "stateMutability": "view",
      "type": "function"
    },
    {
      "inputs": [
        {
          "internalType": "uint256",
          "name": "amount",
          "type": "uint256"
        }
      ],
      "name": "burn",
      "outputs": [],
      "stateMutability": "nonpayable",
      "type": "function"
    },
    {
      "inputs": [
        {
          "internalType": "address",
          "name": "account",
          "type": "address"
        },
        {
          "internalType": "uint256",
          "name": "amount",
          "type": "uint256"
        }
      ],
      "name": "burnFrom",
      "outputs": [],
      "stateMutability": "nonpayable",
      "type": "function"
    },
    {
      "inputs": [],
      "name": "decimals",
      "outputs": [
        {
          "internalType": "uint8",
          "name": "",
          "type": "uint8"
        }
      ],
      "stateMutability": "view",
      "type": "function"
    },
    {
      "inputs": [
        {
          "internalType": "address",
          "name": "spender",
          "type": "address"
        },
        {
          "internalType": "uint256",
          "name": "subtractedValue",
          "type": "uint256"
        }
      ],
      "name": "decreaseAllowance",
      "outputs": [
        {
          "internalType": "bool",
          "name": "",
          "type": "bool"
        }
      ],
      "stateMutability": "nonpayable",
      "type": "function"
    },
    {
      "inputs": [
        {
          "internalType": "address",
          "name": "spender",
          "type": "address"
        },
        {
          "internalType": "uint256",
          "name": "addedValue",
          "type": "uint256"
        }
      ],
      "name": "increaseAllowance",
      "outputs": [
        {
          "internalType": "bool",
          "name": "",
          "type": "bool"
        }
      ],
      "stateMutability": "nonpayable",
      "type": "function"
    },
    {
      "inputs": [
        {
          "internalType": "address",
          "name": "account",
          "type": "address"
        },
        {
          "internalType": "uint256",
          "name": "amount",
          "type": "uint256"
        }
      ],
      "name": "mint",
      "outputs": [],
      "stateMutability": "nonpayable",
      "type": "function"
    },
    {
      "inputs": [],
      "name": "name",
      "outputs": [
        {
          "internalType": "string",
          "name": "",
          "type": "string"
        }
      ],
      "stateMutability": "view",
      "type": "function"
    },
    {
      "inputs": [
        {
          "internalType": "string",
          "name": "_brand",
          "type": "string"
        }
      ],
      "name": "setBrand",
      "outputs": [],
      "stateMutability": "nonpayable",
      "type": "function"
    },
    {
      "inputs": [],
      "name": "symbol",
      "outputs": [
        {
          "internalType": "string",
          "name": "",
          "type": "string"
        }
      ],
      "stateMutability": "view",
      "type": "function"
    },
    {
      "inputs": [],
      "name": "totalSupply",
      "outputs": [
        {
          "internalType": "uint256",
          "name": "",
          "type": "uint256"
        }
      ],
      "stateMutability": "view",
      "type": "function"
    },
    {
      "inputs": [
        {
          "internalType": "address",
          "name": "to",
          "type": "address"
        },
        {
          "internalType": "uint256",
          "name": "amount",
          "type": "uint256"
        }
      ],
      "name": "transfer",
      "outputs": [
        {
          "internalType": "bool",
          "name": "",
          "type": "bool"
        }
      ],
      "stateMutability": "nonpayable",
      "type": "function"
    },
    {
      "inputs": [
        {
          "internalType": "address",
          "name": "from",
          "type": "address"
        },
        {
          "internalType": "address",
          "name": "to",
          "type": "address"
        },
        {
          "internalType": "uint256",
          "name": "amount",
          "type": "uint256"
        }
      ],
      "name": "transferFrom",
      "outputs": [
        {
          "internalType": "bool",
          "name": "",
          "type": "bool"
        }
      ],
      "stateMutability": "nonpayable",
      "type": "function"
    }
  ],
  "bytecode": "0x60806040523461002b5761001a610014610156565b90610185565b604051611001610551823961100190f35b600080fd5b634e487b7160e01b600052604160045260246000fd5b90601f01601f191681019081106001600160401b0382111761006757604052565b610030565b9061008061007960405190565b9283610046565b565b6001600160401b03811161006757602090601f01601f19160190565b60005b8381106100b15750506000910152565b81810151838201526020016100a1565b909291926100d66100d182610082565b61006c565b938185528183011161002b5761008091602085019061009e565b9080601f8301121561002b57815161010a926020016100c1565b90565b91909160408184031261002b5780516001600160401b03811161002b57836101369183016100f0565b60208201519093906001600160401b03811161002b5761010a92016100f0565b610174611552803803806101698161006c565b92833981019061010d565b9091565b61010a61010a61010a9290565b9061018f916101a6565b6100806101a064174876e800610178565b33610497565b906100809161037b565b634e487b7160e01b600052602260045260246000fd5b90600160028304921680156101e6575b60208310146101e157565b6101b0565b91607f16916101d6565b9160001960089290920291821b911b5b9181191691161790565b919061021b61010a61022393610178565b9083546101f0565b9055565b6100809160009161020a565b81811061023e575050565b8061024c6000600193610227565b01610233565b9190601f811161026157505050565b61027361008093600052602060002090565b906020601f840181900483019310610295575b6020601f909101040190610233565b9091508190610286565b906102a8815190565b906001600160401b038211610067576102cb826102c585546101c6565b85610252565b602090601f8311600114610306576102239291600091836102fb575b5050600019600883021c1916906002021790565b0151905038806102e7565b601f1983169161031b85600052602060002090565b9260005b81811061035957509160029391856001969410610340575b50505002019055565b01516000196008601f8516021c19169055388080610337565b9193602060018192878701518155019501920161031f565b906100809161029f565b9061038a610080926003610371565b6004610371565b61039e61010a61010a9290565b6001600160a01b031690565b61010a90610391565b156103ba57565b60405162461bcd60e51b815260206004820152601f60248201527f45524332303a206d696e7420746f20746865207a65726f2061646472657373006044820152606490fd5b61010a9081565b61010a90546103ff565b634e487b7160e01b600052601160045260246000fd5b9190820180921161043357565b610410565b9060001990610200565b9061045261010a61022392610178565b8254610438565b61010a9061039e906001600160a01b031682565b61010a90610459565b61010a9061046d565b9061048990610476565b600052602052604060002090565b7fddf252ad1be2c89b69c2b068fc378daa952ba7f163c4a11628f55a4df523b3ef61054b61053461052e6104cb60006103aa565b6104e76104d78261039e565b6104e08861039e565b14156103b3565b6105046104fd886104f86002610406565b610426565b6002610442565b61052961051287600061047f565b6105238961051f83610406565b0190565b90610442565b610476565b93610476565b9361053e60405190565b9182918290815260200190565b0390a356fe6080604052600436101561001257600080fd5b60003560e01c806306fdde0314610112578063095ea7b31461010d57806318160ddd1461010857806323b872dd146101035780632d9fff01146100fe578063313ce567146100f957806339509351146100f457806340c10f19146100ef57806342966c68146100ea57806370a08231146100e557806379cc6790146100e057806395d89b41146100db578063a457c2d7146100d6578063a9059cbb146100d1578063c1fd4137146100cc5763dd62ed3e036101225761065a565b61061f565b610556565b61053a565b61051f565b610506565b6104eb565b6104bf565b61048d565b610471565b610442565b610427565b6102a7565b610252565b610224565b610196565b600091031261012257565b600080fd5b60005b83811061013a5750506000910152565b818101518382015260200161012a565b61016b61017460209361017e9361015f815190565b80835293849260200190565b95869101610127565b601f01601f191690565b0190565b60208082526101939291019061014a565b90565b34610122576101a6366004610117565b6101bd6101b161067f565b60405191829182610182565b0390f35b6001600160a01b031690565b6001600160a01b0381165b0361012257565b905035906101ec826101cd565b565b806101d8565b905035906101ec826101ee565b91906040838203126101225761019390602061021d82866101df565b94016101f4565b34610122576101bd61024061023a366004610201565b90610689565b60405191829182901515815260200190565b3461012257610262366004610117565b6101bd61026d6106aa565b6040515b9182918290815260200190565b90916060828403126101225761019361029784846101df565b93604061021d82602087016101df565b34610122576101bd6102406102bd36600461027e565b916106b4565b634e487b7160e01b600052600060045260246000fd5b634e487b7160e01b600052602260045260246000fd5b906001600283049216801561030f575b602083101461030a57565b6102d9565b91607f16916102ff565b8054600093929161033661032c836102ef565b8085529360200190565b9160018116908115610388575060011461034f57505050565b6103629192939450600052602060002090565b916000925b8184106103745750500190565b805484840152602090930192600101610367565b92949550505060ff1916825215156020020190565b9061019391610319565b634e487b7160e01b600052604160045260246000fd5b90601f01601f1916810190811067ffffffffffffffff8211176103df57604052565b6103a7565b906101ec6103fe926103f560405190565b9384809261039d565b03836103bd565b9060001061041657610193906103e4565b6102c3565b61019360006005610405565b3461012257610437366004610117565b6101bd6101b161041b565b3461012257610452366004610117565b6101bd61045d6106de565b6040519182918260ff909116815260200190565b34610122576101bd610240610487366004610201565b90610710565b34610122576104a66104a0366004610201565b9061072f565b604051005b9060208282031261012257610193916101f4565b34610122576104a66104d23660046104ab565b610739565b9060208282031261012257610193916101df565b34610122576101bd61026d6105013660046104d7565b610786565b34610122576104a6610519366004610201565b906107a2565b346101225761052f366004610117565b6101bd6101b16107b1565b34610122576101bd610240610550366004610201565b90610815565b34610122576101bd61024061056c366004610201565b90610839565b906101ec61057f60405190565b92836103bd565b67ffffffffffffffff81116103df57602090601f01601f19160190565b90826000939282370152565b909291926105c46105bf82610586565b610572565b9381855281830111610122576101ec9160208501906105a3565b9080601f8301121561012257816020610193933591016105af565b9060208282031261012257813567ffffffffffffffff81116101225761019392016105de565b34610122576104a66106323660046105f9565b6109dd565b91906040838203126101225761019390602061065382866101df565b94016101df565b34610122576101bd61026d610670366004610637565b906109e8565b610193906103e4565b6101936003610676565b610694919033610aee565b600190565b6101939081565b6101939054610699565b61019360026106a0565b6106949291906106c683335b83610bd6565b610d1b565b6106d86101936101939290565b60ff1690565b61019360126106cb565b634e487b7160e01b600052601160045260246000fd5b9190820180921161070b57565b6106e8565b6106949190610729339261072483856109e8565b6106fe565b91610aee565b906101ec91610e16565b6101ec9033610f3b565b610f3b565b610193906101c1906001600160a01b031682565b61019390610748565b6101939061075c565b9061077890610765565b600052602052604060002090565b61079d61019391610795600090565b50600061076e565b6106a0565b6101ec919061074382336106c0565b6101936004610676565b156107c257565b60405162461bcd60e51b815260206004820152602560248201527f45524332303a2064656372656173656420616c6c6f77616e63652062656c6f77604482015264207a65726f60d81b6064820152608490fd5b6106949190610729339261082983856109e8565b610835828210156107bb565b0390565b610694919033610d1b565b9160001960089290920291821b911b5b9181191691161790565b6101936101936101939290565b919061087c6101936108849361085e565b908354610844565b9055565b6101ec9160009161086b565b81811061089f575050565b806108ad6000600193610888565b01610894565b9190601f81116108c257505050565b6108d46101ec93600052602060002090565b906020601f8401819004830193106108f6575b6020601f909101040190610894565b90915081906108e7565b90610909815190565b9067ffffffffffffffff82116103df5761092d8261092785546102ef565b856108b3565b602090601f83116001146109685761088492916000918361095d575b5050600019600883021c1916906002021790565b015190503880610949565b601f1983169161097d85600052602060002090565b9260005b8181106109bb575091600293918560019694106109a2575b50505002019055565b01516000196008601f8516021c19169055388080610999565b91936020600181928787015181550195019201610981565b906101ec91610900565b6101ec9060056109d3565b61019391610a0361079d926109fb600090565b50600161076e565b61076e565b6101c16101936101939290565b61019390610a08565b15610a2557565b60405162461bcd60e51b8152602060048201526024808201527f45524332303a20617070726f76652066726f6d20746865207a65726f206164646044820152637265737360e01b6064820152608490fd5b15610a7d57565b60405162461bcd60e51b815260206004820152602260248201527f45524332303a20617070726f766520746f20746865207a65726f206164647265604482015261737360f01b6064820152608490fd5b9060001990610854565b90610ae76101936108849261085e565b8254610acd565b610b85610b7b610b757f8c5be1e5ebec7d5bd14f71427d1e84f3dd0314c0f7b2291e5b200ac8c7c3b92593610b58610b47610b296000610a15565b6101c16001600160a01b0382166001600160a01b0386161415610a1e565b6001600160a01b0388161415610a76565b610b7087610b6b88610a0385600161076e565b610ad7565b610765565b93610765565b9361027160405190565b0390a3565b15610b9157565b60405162461bcd60e51b815260206004820152601d60248201527f45524332303a20696e73756666696369656e7420616c6c6f77616e63650000006044820152606490fd5b90610be181836109e8565b6000198103610bf1575b50505050565b610c05936107299161083582821015610b8a565b38808080610beb565b15610c1557565b60405162461bcd60e51b815260206004820152602560248201527f45524332303a207472616e736665722066726f6d20746865207a65726f206164604482015264647265737360d81b6064820152608490fd5b15610c6f57565b60405162461bcd60e51b815260206004820152602360248201527f45524332303a207472616e7366657220746f20746865207a65726f206164647260448201526265737360e81b6064820152608490fd5b15610cc757565b60405162461bcd60e51b815260206004820152602660248201527f45524332303a207472616e7366657220616d6f756e7420657863656564732062604482015265616c616e636560d01b6064820152608490fd5b610b85610b7b610b757fddf252ad1be2c89b69c2b068fc378daa952ba7f163c4a11628f55a4df523b3ef93610b70610db7876000610d8d610d7c610d5e83610a15565b6101c16001600160a01b0382166001600160a01b038a161415610c0e565b6001600160a01b0384161415610c68565b610a03610dad8c610da161079d898661076e565b61083582821015610cc0565b610b6b878461076e565b610dc48961017e836106a0565b90610ad7565b15610dd157565b60405162461bcd60e51b815260206004820152601f60248201527f45524332303a206d696e7420746f20746865207a65726f2061646472657373006044820152606490fd5b7fddf252ad1be2c89b69c2b068fc378daa952ba7f163c4a11628f55a4df523b3ef610b85610b7b610b75610e4a6000610a15565b610e686001600160a01b0382166001600160a01b0388161415610dca565b610e80610e798861072460026106a0565b6002610ad7565b610b70610db787600061076e565b15610e9557565b60405162461bcd60e51b815260206004820152602160248201527f45524332303a206275726e2066726f6d20746865207a65726f206164647265736044820152607360f81b6064820152608490fd5b15610eeb57565b60405162461bcd60e51b815260206004820152602260248201527f45524332303a206275726e20616d6f756e7420657863656564732062616c616e604482015261636560f01b6064820152608490fd5b7fddf252ad1be2c89b69c2b068fc378daa952ba7f163c4a11628f55a4df523b3ef610b85610b7b610b75600094610fba610f7487610a15565b96610f936001600160a01b0389166001600160a01b0385161415610e8e565b610b6b83610fb48b610fa861079d848761076e565b61083582821015610ee4565b9261076e565b610b70610e798861083560026106a056fea264697066735822122029e0207519615d6eacf52b67349bad892da054af9f5203340b4395d8db97182c64736f6c63430008190033",
  "linkReferences": {},
  "deployedLinkReferences": {}
}