{
  "_format": "hh-sol-artifact-1",
  "contractName": "RealDigitalEnableAccount",
  "sourceName": "contracts/drex-connect/RealDigitalEnableAccount.sol",
  "abi": [
    {
      "inputs": [
        {
          "internalType": "address",
          "name": "accessControlAddress",
          "type": "address"
        }
      ],
      "stateMutability": "nonpayable",
      "type": "constructor"
    },
    {
      "inputs": [],
      "name": "disableAccount",
      "outputs": [],
      "stateMutability": "nonpayable",
      "type": "function"
    },
    {
      "inputs": [
        {
          "internalType": "address",
          "name": "member",
          "type": "address"
        }
      ],
      "name": "enableAccount",
      "outputs": [],
      "stateMutability": "nonpayable",
      "type": "function"
    }
  ],
  "bytecode": "0x60806040523461002a576100196100146100c2565b610136565b60405161037461014a823961037490f35b600080fd5b634e487b7160e01b600052604160045260246000fd5b90601f01601f191681019081106001600160401b0382111761006657604052565b61002f565b9061007f61007860405190565b9283610045565b565b6001600160a01b031690565b90565b6001600160a01b0381160361002a57565b9050519061007f82610090565b9060208282031261002a5761008d916100a1565b61008d6104be803803806100d58161006b565b9283398101906100ae565b61008d90610081906001600160a01b031682565b61008d906100e0565b61008d906100f4565b9061011661008d610132926100fd565b82546001600160a01b0319166001600160a01b03919091161790565b9055565b61014261007f916100fd565b600061010656fe6080604052600436101561001257600080fd5b60003560e01c806384b61581146100325763cdbeca2a03610058576100a8565b610080565b6001600160a01b031690565b90565b6001600160a01b0381165b0361005857565b600080fd5b9050359061006a82610046565b565b90602082820312610058576100439161005d565b346100585761009861009336600461006c565b61019c565b604051005b600091031261005857565b34610058576100b836600461009d565b6100986102a7565b61004390610037906001600160a01b031682565b610043906100c0565b610043906100d4565b634e487b7160e01b600052604160045260246000fd5b90601f01601f1916810190811067ffffffffffffffff82111761011e57604052565b6100e6565b801515610051565b9050519061006a82610123565b90602082820312610058576100439161012b565b6040513d6000823e3d90fd5b1561015f57565b60405162461bcd60e51b8152602060048201526015602482015274135d5cdd0818994818481c185c9d1a58da5c185b9d605a1b6044820152606490fd5b6101b66101b16000546001600160a01b031690565b6100dd565b60206101c160405190565b63f16dfbe960e01b815233600482015291829060249082905afa8015610273576101f391600091610278575b50610158565b6102086101b16000546001600160a01b031690565b803b156100585761024a60009291839261022160405190565b94859384928391906384b6158160e01b8352600483016001600160a01b03909116815260200190565b03925af180156102735761025b5750565b61006a90600061026b81836100fc565b81019061009d565b61014c565b61029a915060203d6020116102a0575b61029281836100fc565b810190610138565b386101ed565b503d610288565b6102bc6101b16000546001600160a01b031690565b60206102c760405190565b63f16dfbe960e01b815233600482015291829060249082905afa8015610273576102f8916000916102785750610158565b61030d6101b16000546001600160a01b031690565b803b1561005857600061031f60405190565b63463cdd1d60e11b81523360048201529182908183816024810161024a56fea26469706673582212200abb59320a6036e7c6712730247d5407abc15d62c9263c6aedeb8499a94da9c164736f6c63430008190033",
  "linkReferences": {},
  "deployedLinkReferences": {}
}