{
  "_format": "hh-sol-artifact-1",
  "contractName": "EventTestSc",
  "sourceName": "contracts/test/eventTestSC.sol",
  "abi": [
    {
      "anonymous": false,
      "inputs": [
        {
          "indexed": false,
          "internalType": "uint256",
          "name": "count",
          "type": "uint256"
        },
        {
          "components": [
            {
              "internalType": "string",
              "name": "message",
              "type": "string"
            },
            {
              "internalType": "enum EventTestSc.Status",
              "name": "status",
              "type": "uint8"
            }
          ],
          "indexed": false,
          "internalType": "struct EventTestSc.EventBody",
          "name": "body",
          "type": "tuple"
        }
      ],
      "name": "TestEvent",
      "type": "event"
    },
    {
      "inputs": [],
      "name": "emitEvent",
      "outputs": [],
      "stateMutability": "nonpayable",
      "type": "function"
    }
  ],
  "bytecode": "0x60806040523460195760405161031861001f823961031890f35b600080fdfe6080604052600436101561001257600080fd5b60003560e01c637b0cb8390361003257610037565b600091031261003257565b600080fd5b3461003257610047366004610027565b61004f61025b565b604051005b61005b9081565b90565b61005b9054610054565b634e487b7160e01b600052601160045260246000fd5b600019811461008d5760010190565b610068565b61005b61005b61005b9290565b9061005b61005b6100af92610092565b9055565b634e487b7160e01b600052604160045260246000fd5b90601f01601f1916810190811067ffffffffffffffff8211176100eb57604052565b6100b3565b906101046100fd60405190565b92836100c9565b565b61005b60406100f0565b67ffffffffffffffff81116100eb57602090601f01601f19160190565b0190565b9061014361013e83610110565b6100f0565b918252565b610152600b610131565b6a1a195b1b1bc81ddbdc9b1960aa1b602082015290565b61005b610148565b634e487b7160e01b600052602160045260246000fd5b6002111561019157565b610171565b9061010482610187565b906101aa90610196565b9052565b60005b8381106101c15750506000910152565b81810151838201526020016101b1565b6101f26101fb60209361012d936101e6815190565b80835293849260200190565b958691016101ae565b601f01601f191690565b61005b90610196565b6101aa90610205565b9061005b9060208061023860408401600087015185820360008701526101d1565b94015191019061020e565b90815260406020820181905261005b92910190610217565b61027761027061026b600061005e565b61007e565b600061009f565b7f33eec958bfc4cf548db87b38d4c1dd2fca0af37bc95c9f6aa5d598de1f482b796102a2600061005e565b6102aa610106565b906102ba6102b6610169565b8352565b6102c86000602084016101a0565b6102dd6102d460405190565b92839283610243565b0390a156fea264697066735822122034013ccc239b8a8a3f59fc76264b41e8633f91a17ea8e84127fd2b48843dd93d64736f6c63430008190033",
  "linkReferences": {},
  "deployedLinkReferences": {}
}