{
  "_format": "hh-sol-artifact-1",
  "contractName": "HashChain",
  "sourceName": "contracts/ucl/util/HashChain.sol",
  "abi": [
    {
      "inputs": [
        {
          "internalType": "bytes32",
          "name": "state",
          "type": "bytes32"
        },
        {
          "internalType": "bytes32[]",
          "name": "proofs",
          "type": "bytes32[]"
        }
      ],
      "name": "verifyReceipt",
      "outputs": [],
      "stateMutability": "pure",
      "type": "function"
    }
  ],
  "bytecode": "0x608060405234601d5760405161056061002382393081505061056090f35b600080fdfe6080604052600436101561001257600080fd5b632b1b012a60003560e01c1461013e575b600080fd5b905035905b565b634e487b7160e01b600052604160045260246000fd5b90601f01601f1916810190811067ffffffffffffffff82111761006757604052565b61002f565b9061002d61007960405190565b9283610045565b67ffffffffffffffff81116100675760208091020190565b909291926100ad6100a882610080565b61006c565b938185526020808601920283019281841161002357915b8383106100d15750505050565b602080916100df8486610028565b8152019201916100c4565b9080601f830112156100235781602061010593359101610098565b90565b9190916040818403126100235761011f8382610028565b92602082013567ffffffffffffffff81116100235761010592016100ea565b61015261014c366004610108565b90610340565b604051005b6101056101056101059290565b6020808252601f908201527f48617368436861696e3a20696e76616c69642070726f6f66206c656e67746800604082015260600190565b156101a257565b60405162461bcd60e51b8152806101bb60048201610164565b0390fd5b634e487b7160e01b600052601160045260246000fd5b919082039182116101e257565b6101bf565b634e487b7160e01b600052601260045260246000fd5b90610207565b9190565b908115610212570690565b6101e7565b60208082526018908201527f48617368436861696e3a20696e76616c69642070726f6f660000000000000000604082015260600190565b1561025557565b60405162461bcd60e51b8152806101bb60048201610217565b634e487b7160e01b600052603260045260246000fd5b9061028d825190565b81101561029e576020809102010190565b61026e565b919082018092116101e257565b90505190565b9060208282031261002357610105916102b0565b90815260408101929161002d9160200152565b6040513d6000823e3d90fd5b60208082526018908201527f48617368436861696e3a20766572696679206661696c65640000000000000000604082015260600190565b1561032757565b60405162461bcd60e51b8152806101bb600482016102e9565b815161035a60019161035461020384610157565b1161019b565b610374610365845190565b61036e83610157565b906101d5565b6103a061038d6002926103876002610157565b906101fd565b61039a6102036000610157565b1461024e565b816103bb6103b76103b16000610157565b87610284565b5190565b946103c582610157565b935b6103e4575b50505050906103de61020361002d9390565b14610320565b909192946103f3610105835190565b8610156105245761046b73__$7dbcd18908e9089d286e26e0f88e93978e$__9163b30c0b6a9260206104286103b78b88610284565b6104476103b76104418d61043b8c610157565b906102a3565b89610284565b9061045160405190565b95869283926104608a60e01b90565b8452600484016102ca565b0381845af49283156104fb57600093610500575b50610460602093946104a061049360405190565b9687958694859460e01b90565b03915af49081156104fb5783916104c4916000916104cd575b509661043b86610157565b939291906103c7565b6104ee915060203d81116104f4575b6104e68183610045565b8101906102b6565b386104b9565b503d6104dc565b6102dd565b6020935061051d61046091853d81116104f4576104e68183610045565b935061047f565b946103cc56fea26469706673582212209d477a4cf8d5de75e8d869147393618ff3994c2e2615d1da29c183c62d34ee6764736f6c63430008190033",
  "linkReferences": {
    "contracts/ucl/util/PoseidonHasher.sol": {
      "PoseidonHasher": [
        {
          "length": 20,
          "start": 1058
        }
      ]
    }
  },
  "deployedLinkReferences": {
    "contracts/ucl/util/PoseidonHasher.sol": {
      "PoseidonHasher": [
        {
          "length": 20,
          "start": 1023
        }
      ]
    }
  }
}