{
  "_format": "hh-sol-artifact-1",
  "contractName": "Bn256",
  "sourceName": "contracts/ucl/curves/blocks/grumpkin/Bn256.sol",
  "abi": [
    {
      "inputs": [],
      "name": "B",
      "outputs": [
        {
          "internalType": "uint256",
          "name": "",
          "type": "uint256"
        }
      ],
      "stateMutability": "view",
      "type": "function"
    },
    {
      "inputs": [],
      "name": "P_MOD",
      "outputs": [
        {
          "internalType": "uint256",
          "name": "",
          "type": "uint256"
        }
      ],
      "stateMutability": "view",
      "type": "function"
    },
    {
      "inputs": [],
      "name": "R_MOD",
      "outputs": [
        {
          "internalType": "uint256",
          "name": "",
          "type": "uint256"
        }
      ],
      "stateMutability": "view",
      "type": "function"
    },
    {
      "inputs": [
        {
          "internalType": "uint256",
          "name": "compressed",
          "type": "uint256"
        }
      ],
      "name": "decompress",
      "outputs": [
        {
          "components": [
            {
              "internalType": "uint256",
              "name": "x",
              "type": "uint256"
            },
            {
              "internalType": "uint256",
              "name": "y",
              "type": "uint256"
            }
          ],
          "internalType": "struct Bn256.Bn256AffinePoint",
          "name": "",
          "type": "tuple"
        }
      ],
      "stateMutability": "view",
      "type": "function"
    },
    {
      "inputs": [
        {
          "components": [
            {
              "internalType": "uint256",
              "name": "x",
              "type": "uint256"
            },
            {
              "internalType": "uint256",
              "name": "y",
              "type": "uint256"
            }
          ],
          "internalType": "struct Bn256.Bn256AffinePoint",
          "name": "point",
          "type": "tuple"
        }
      ],
      "name": "is_identity",
      "outputs": [
        {
          "internalType": "bool",
          "name": "",
          "type": "bool"
        }
      ],
      "stateMutability": "pure",
      "type": "function"
    },
    {
      "inputs": [
        {
          "components": [
            {
              "internalType": "uint256",
              "name": "x",
              "type": "uint256"
            },
            {
              "internalType": "uint256",
              "name": "y",
              "type": "uint256"
            }
          ],
          "internalType": "struct Bn256.Bn256AffinePoint",
          "name": "point",
          "type": "tuple"
        }
      ],
      "name": "negate",
      "outputs": [
        {
          "components": [
            {
              "internalType": "uint256",
              "name": "x",
              "type": "uint256"
            },
            {
              "internalType": "uint256",
              "name": "y",
              "type": "uint256"
            }
          ],
          "internalType": "struct Bn256.Bn256AffinePoint",
          "name": "",
          "type": "tuple"
        }
      ],
      "stateMutability": "pure",
      "type": "function"
    }
  ],
  "bytecode": "0x608060405234601f57604051610bcb6100258239308160070152610bcb90f35b600080fdfe6080604052307f00000000000000000000000000000000000000000000000000000000000000001415600436101561003657600080fd5b60003560e01c90816313bc64ee146100da5781631d712e27146100d557816332e7c5bf146100d057816372412c2e146100cb57816382a4e61b146100c2578163a5e12a25146100bd578163a75a3e5a146100b4578163bc908205146100aa575063df6e6cb4146100a557600080fd5b6104a1565b610459575b600080fd5b61041f57600080fd5b6103d4565b6103bd57600080fd5b61026f565b6101be565b610186565b610117565b905035905b565b906020828203126100af576100fa916100df565b90565b6040810192916100e4919080518252602090810151910152565b61013961012d6101283660046100e6565b610573565b604051918291826100fd565b0390f35b60009103126100af57565b6100fa6100fa6100fa9290565b6100fa7f30644e72e131a029b85045b68181585d97816a916871ca8d3c208c16d87cfd47610148565b6100fa610155565b61019136600461013d565b61013961019c61017e565b6040519182918290815260200190565b6100fa6003610148565b6100fa6101ac565b6101c936600461013d565b61013961019c6101b6565b634e487b7160e01b600052604160045260246000fd5b90601f01601f1916810190811067ffffffffffffffff82111761020c57604052565b6101d4565b906100e461021e60405190565b92836101ea565b91906040838203126100af576102549060206102416040610211565b9461024c83826100df565b8652016100df565b6020830152565b906040828203126100af576100fa91610225565b61013961012d61028036600461025b565b610785565b67ffffffffffffffff811161020c5760208091020190565b909291926102b26102ad82610285565b610211565b9381855260406020860192028301928184116100af57915b8383106102d75750505050565b60206040916102e68486610225565b8152019201916102ca565b9080601f830112156100af578160206100fa9335910161029d565b9092919261031c6102ad82610285565b93818552602080860192028301928184116100af57915b8383106103405750505050565b6020809161034e84866100df565b815201920191610333565b9080601f830112156100af578160206100fa9335910161030c565b9190916040818403126100af57803567ffffffffffffffff81116100af578361039e9183016102f1565b92602082013567ffffffffffffffff81116100af576100fa9201610359565b61013961012d6103ce366004610374565b9061083e565b6101396103ea6103e536600461025b565b6108fe565b60405191829182901515815260200190565b91906080838203126100af576100fa9060406104188286610225565b9401610225565b61013961012d6104303660046103fc565b906109ad565b91906060838203126100af576100fa9060406104528286610225565b94016100df565b61013961012d61046a366004610436565b90610ac8565b6100fa7f30644e72e131a029b85045b68181585d2833e84879b9709143e1f593f0000001610148565b6100fa610470565b6104ac36600461013d565b61013961019c610499565b6100fa6040610211565b6104c96104b7565b906000825260006020830152565b6100fa6104c1565b634e487b7160e01b600052603260045260246000fd5b6105056100fa6100fa9260ff1690565b60ff1690565b6100fa9060f81c6104f5565b6105056100fa6100fa9290565b6105059061053f6105386100fa9460ff1690565b9160ff1690565b901c90565b906020828203126100af57505190565b9081526040810192916100e49160200152565b6040513d6000823e3d90fd5b61057b6104d7565b5061058581610148565b60009161059183610148565b916020831015610728576105a990831a60f81b61050b565b6105bc6105b66007610517565b82610524565b906020841015610728576105da906105d46006610517565b90610524565b6105e46001610517565b908116926105f86001600160fe1b03610148565b16918483149081610713575b506107005761066193506020610618610155565b806003818681818009090873__$b6e0a5c375b77fd7e15159ad263ec833e4$__9061064260405190565b8098819482936106566394be798660e01b90565b845260048401610554565b03915af49081156106fb576100fa946000926106ca575b5061069b82948261069361068c60ff610148565b8616610517565b161860ff1690565b146106b4575b50610254906106ae6104b7565b94850152565b6102549192506106c390610b7f565b91906106a1565b6106ed91925060203d6020116106f4575b6106e581836101ea565b810190610544565b9038610678565b503d6106db565b610567565b505050806102546100fa926106ae6104b7565b905061072161053887610517565b1438610604565b6104df565b634e487b7160e01b600052601260045260246000fd5b9061074d565b9190565b908115610758570690565b61072d565b634e487b7160e01b600052601160045260246000fd5b9190820391821161078057565b61075d565b61078d6104d7565b506100fa6107c060206107ba6107a1855190565b946107b56107ad610155565b938492015190565b610743565b90610773565b6102546107cb6104b7565b938452565b156107d757565b60405162461bcd60e51b815280610820600482016020808252818101527f4d534d206572726f723a206c656e67746820646f6573206e6f74206d61746368604082015260600190565b0390fd5b9061082d825190565b811015610728576020809102010190565b91906108486104d7565b50610868610854825190565b6108626107496100fa875190565b146107d0565b61089361087e6108786000610148565b85610824565b5161046a61088f6108786000610148565b5190565b9260019182916108a36001610148565b935b6108b0575b50505050565b909192946108bf6100fa845190565b8610156108f8576108e86108ef916104306108da8986610824565b5161046a61088f8b89610824565b9560010190565b929190826108a5565b946108aa565b80519060009161091061074984610148565b03610930576020015161092561074983610148565b036100fa5750600190565b5090565b67ffffffffffffffff811161020c5760200290565b6102ad6100fa91610934565b369037565b906100e461097061096a84610949565b93610934565b83610955565b6100fa600261095a565b6100fa600461095a565b9060045b811015610728576020020190565b90600261098e565b6100fa90610148565b906109b66104d7565b506109bf610976565b906109c8610980565b906109d1845190565b6109da90610148565b936000946109e786610148565b6109f1908561098a565b52602001516109ff90610148565b610a096001610148565b610a13908461098a565b5283810151610a2190610148565b610a2b6002610148565b610a35908461098a565b5260200151610a4390610148565b610a4d6003610148565b610a57908361098a565b5281835a926080916006604095f18214610ab2576100fa90610254610aa9610a9361088f610a98610a9361088f610a8d8a610148565b8861099c565b6109a4565b94610aa36001610148565b9061099c565b916106ae6104b7565b5080fd5b6100fa600361095a565b90600361098e565b6040606091610b47610b34610b1395610adf6104d7565b50610b02610b21610b026020610af3610ab6565b97610b1c610b07610b02835190565b610148565b610b1960009e8f610148565b8c610ac0565b52565b015190565b610b19610b2e6001610148565b87610ac0565b610b19610b416002610148565b84610ac0565b610b4f610976565b9283918560075af18214610ab2576100fa90610254610aa9610a9361088f610a98610a9361088f610a8d8a610148565b6100fa906107ba610b8e610155565b809261074356fea264697066735822122005bce433c85f8486c2c43c70954fffae7b2cedf859f915d48d77579b77998f5964736f6c63430008190033",
  "linkReferences": {
    "contracts/ucl/curves/Utilities.sol": {
      "Field": [
        {
          "length": 20,
          "start": 1610
        }
      ]
    }
  },
  "deployedLinkReferences": {
    "contracts/ucl/curves/Utilities.sol": {
      "Field": [
        {
          "length": 20,
          "start": 1573
        }
      ]
    }
  }
}