{
  "_format": "hh-sol-artifact-1",
  "contractName": "TPFtOperation1002",
  "sourceName": "contracts/drex-connect/TPFtOperation1002.sol",
  "abi": [
    {
      "inputs": [
        {
          "internalType": "address",
          "name": "_centralBankAddress",
          "type": "address"
        },
        {
          "internalType": "contract AddressDiscovery",
          "name": "_addressDiscovery",
          "type": "address"
        },
        {
          "internalType": "contract RealDigitalDefaultAccount",
          "name": "_realDigitalDefaultAccounts",
          "type": "address"
        }
      ],
      "stateMutability": "nonpayable",
      "type": "constructor"
    },
    {
      "anonymous": false,
      "inputs": [
        {
          "indexed": false,
          "internalType": "uint256",
          "name": "operationId",
          "type": "uint256"
        },
        {
          "indexed": false,
          "internalType": "uint256",
          "name": "cnpj8Sender",
          "type": "uint256"
        },
        {
          "indexed": false,
          "internalType": "uint256",
          "name": "cnpj8Receiver",
          "type": "uint256"
        },
        {
          "indexed": false,
          "internalType": "address",
          "name": "sender",
          "type": "address"
        },
        {
          "indexed": false,
          "internalType": "address",
          "name": "receiver",
          "type": "address"
        },
        {
          "indexed": false,
          "internalType": "enum ITPFtOperation1002.CallerPart",
          "name": "callerPart",
          "type": "uint8"
        },
        {
          "components": [
            {
              "internalType": "string",
              "name": "acronym",
              "type": "string"
            },
            {
              "internalType": "string",
              "name": "code",
              "type": "string"
            },
            {
              "internalType": "uint256",
              "name": "maturityDate",
              "type": "uint256"
            }
          ],
          "indexed": false,
          "internalType": "struct ITPFt.TPFtData",
          "name": "tpftData",
          "type": "tuple"
        },
        {
          "indexed": false,
          "internalType": "uint256",
          "name": "tpftAmount",
          "type": "uint256"
        },
        {
          "indexed": false,
          "internalType": "uint256",
          "name": "unitPrice",
          "type": "uint256"
        },
        {
          "indexed": false,
          "internalType": "uint256",
          "name": "financialValue",
          "type": "uint256"
        },
        {
          "indexed": false,
          "internalType": "string",
          "name": "status",
          "type": "string"
        },
        {
          "indexed": false,
          "internalType": "uint256",
          "name": "timestamp",
          "type": "uint256"
        }
      ],
      "name": "CommandEvent",
      "type": "event"
    },
    {
      "anonymous": false,
      "inputs": [
        {
          "indexed": false,
          "internalType": "uint256",
          "name": "operationId",
          "type": "uint256"
        },
        {
          "indexed": false,
          "internalType": "address",
          "name": "sender",
          "type": "address"
        },
        {
          "indexed": false,
          "internalType": "address",
          "name": "receiver",
          "type": "address"
        },
        {
          "indexed": false,
          "internalType": "enum ITPFtOperation1002.CallerPart",
          "name": "callerPart",
          "type": "uint8"
        },
        {
          "components": [
            {
              "internalType": "string",
              "name": "acronym",
              "type": "string"
            },
            {
              "internalType": "string",
              "name": "code",
              "type": "string"
            },
            {
              "internalType": "uint256",
              "name": "maturityDate",
              "type": "uint256"
            }
          ],
          "indexed": false,
          "internalType": "struct ITPFt.TPFtData",
          "name": "tpftData",
          "type": "tuple"
        },
        {
          "indexed": false,
          "internalType": "uint256",
          "name": "tpftAmount",
          "type": "uint256"
        },
        {
          "indexed": false,
          "internalType": "uint256",
          "name": "unitPrice",
          "type": "uint256"
        },
        {
          "indexed": false,
          "internalType": "uint256",
          "name": "financialValue",
          "type": "uint256"
        },
        {
          "indexed": false,
          "internalType": "string",
          "name": "status",
          "type": "string"
        },
        {
          "indexed": false,
          "internalType": "uint256",
          "name": "timestamp",
          "type": "uint256"
        }
      ],
      "name": "CommandTradeEvent",
      "type": "event"
    },
    {
      "anonymous": false,
      "inputs": [
        {
          "indexed": true,
          "internalType": "uint256",
          "name": "operationId",
          "type": "uint256"
        },
        {
          "indexed": false,
          "internalType": "address",
          "name": "sender",
          "type": "address"
        },
        {
          "indexed": false,
          "internalType": "address",
          "name": "senderToken",
          "type": "address"
        },
        {
          "indexed": false,
          "internalType": "address",
          "name": "receiver",
          "type": "address"
        },
        {
          "indexed": false,
          "internalType": "address",
          "name": "receiverToken",
          "type": "address"
        },
        {
          "components": [
            {
              "internalType": "string",
              "name": "acronym",
              "type": "string"
            },
            {
              "internalType": "string",
              "name": "code",
              "type": "string"
            },
            {
              "internalType": "uint256",
              "name": "maturityDate",
              "type": "uint256"
            }
          ],
          "indexed": false,
          "internalType": "struct ITPFt.TPFtData",
          "name": "tpftData",
          "type": "tuple"
        },
        {
          "indexed": false,
          "internalType": "uint256",
          "name": "tpftAmount",
          "type": "uint256"
        },
        {
          "indexed": false,
          "internalType": "uint256",
          "name": "unitPrice",
          "type": "uint256"
        },
        {
          "indexed": false,
          "internalType": "uint256",
          "name": "financialValue",
          "type": "uint256"
        },
        {
          "indexed": false,
          "internalType": "string",
          "name": "status",
          "type": "string"
        },
        {
          "indexed": false,
          "internalType": "uint256",
          "name": "timestamp",
          "type": "uint256"
        }
      ],
      "name": "OperationClientTradeEvent",
      "type": "event"
    },
    {
      "anonymous": false,
      "inputs": [
        {
          "indexed": true,
          "internalType": "uint256",
          "name": "operationId",
          "type": "uint256"
        },
        {
          "indexed": false,
          "internalType": "uint256",
          "name": "cnpj8Sender",
          "type": "uint256"
        },
        {
          "indexed": false,
          "internalType": "uint256",
          "name": "cnpj8Receiver",
          "type": "uint256"
        },
        {
          "indexed": false,
          "internalType": "address",
          "name": "sender",
          "type": "address"
        },
        {
          "indexed": false,
          "internalType": "address",
          "name": "receiver",
          "type": "address"
        },
        {
          "components": [
            {
              "internalType": "string",
              "name": "acronym",
              "type": "string"
            },
            {
              "internalType": "string",
              "name": "code",
              "type": "string"
            },
            {
              "internalType": "uint256",
              "name": "maturityDate",
              "type": "uint256"
            }
          ],
          "indexed": false,
          "internalType": "struct ITPFt.TPFtData",
          "name": "tpftData",
          "type": "tuple"
        },
        {
          "indexed": false,
          "internalType": "uint256",
          "name": "tpftAmount",
          "type": "uint256"
        },
        {
          "indexed": false,
          "internalType": "uint256",
          "name": "unitPrice",
          "type": "uint256"
        },
        {
          "indexed": false,
          "internalType": "uint256",
          "name": "financialValue",
          "type": "uint256"
        },
        {
          "indexed": false,
          "internalType": "string",
          "name": "status",
          "type": "string"
        },
        {
          "indexed": false,
          "internalType": "uint256",
          "name": "timestamp",
          "type": "uint256"
        }
      ],
      "name": "OperationEvent",
      "type": "event"
    },
    {
      "anonymous": false,
      "inputs": [
        {
          "indexed": true,
          "internalType": "uint256",
          "name": "operationId",
          "type": "uint256"
        },
        {
          "indexed": false,
          "internalType": "address",
          "name": "sender",
          "type": "address"
        },
        {
          "indexed": false,
          "internalType": "address",
          "name": "receiver",
          "type": "address"
        },
        {
          "components": [
            {
              "internalType": "string",
              "name": "acronym",
              "type": "string"
            },
            {
              "internalType": "string",
              "name": "code",
              "type": "string"
            },
            {
              "internalType": "uint256",
              "name": "maturityDate",
              "type": "uint256"
            }
          ],
          "indexed": false,
          "internalType": "struct ITPFt.TPFtData",
          "name": "tpftData",
          "type": "tuple"
        },
        {
          "indexed": false,
          "internalType": "uint256",
          "name": "tpftAmount",
          "type": "uint256"
        },
        {
          "indexed": false,
          "internalType": "uint256",
          "name": "unitPrice",
          "type": "uint256"
        },
        {
          "indexed": false,
          "internalType": "uint256",
          "name": "financialValue",
          "type": "uint256"
        },
        {
          "indexed": false,
          "internalType": "string",
          "name": "status",
          "type": "string"
        },
        {
          "indexed": false,
          "internalType": "uint256",
          "name": "timestamp",
          "type": "uint256"
        }
      ],
      "name": "OperationTradeEvent",
      "type": "event"
    },
    {
      "inputs": [
        {
          "internalType": "uint256",
          "name": "operationId",
          "type": "uint256"
        },
        {
          "internalType": "uint256",
          "name": "cnpj8Sender",
          "type": "uint256"
        },
        {
          "internalType": "uint256",
          "name": "cnpj8Receiver",
          "type": "uint256"
        },
        {
          "internalType": "enum ITPFtOperation1002.CallerPart",
          "name": "callerPart",
          "type": "uint8"
        },
        {
          "components": [
            {
              "internalType": "string",
              "name": "acronym",
              "type": "string"
            },
            {
              "internalType": "string",
              "name": "code",
              "type": "string"
            },
            {
              "internalType": "uint256",
              "name": "maturityDate",
              "type": "uint256"
            }
          ],
          "internalType": "struct ITPFt.TPFtData",
          "name": "tpftData",
          "type": "tuple"
        },
        {
          "internalType": "uint256",
          "name": "tpftAmount",
          "type": "uint256"
        },
        {
          "internalType": "uint256",
          "name": "unitPrice",
          "type": "uint256"
        }
      ],
      "name": "auctionPlacement",
      "outputs": [],
      "stateMutability": "nonpayable",
      "type": "function"
    },
    {
      "inputs": [],
      "name": "centralBankAddress",
      "outputs": [
        {
          "internalType": "address",
          "name": "",
          "type": "address"
        }
      ],
      "stateMutability": "view",
      "type": "function"
    }
  ],
  "bytecode": "0x60806040523461002b5761001a6100146100fc565b91610175565b6040516112d561019782396112d590f35b600080fd5b634e487b7160e01b600052604160045260246000fd5b90601f01601f191681019081106001600160401b0382111761006757604052565b610030565b9061008061007960405190565b9283610046565b565b6001600160a01b031690565b90565b6001600160a01b0381165b0361002b57565b9050519061008082610091565b6001600160a01b03811661009c565b90505190610080826100b0565b909160608284031261002b5761008e6100e584846100a3565b9360406100f582602087016100bf565b94016100bf565b61011a61146c8038038061010f8161006c565b9283398101906100cc565b909192565b61008e90610082906001600160a01b031682565b61008e9061011f565b61008e90610133565b9061015561008e6101719261013c565b82546001600160a01b0319166001600160a01b03919091161790565b9055565b610080929161018861018f926001610145565b6002610145565b600361014556fe6080604052600436101561001257600080fd5b60003560e01c80634ffc9204146100325763a96fcfe2036100425761029d565b610095565b600091031261004257565b600080fd5b61005c916008021c5b6001600160a01b031690565b90565b9061005c9154610047565b61005c6000600161005f565b61007f90610050565b9052565b6020810192916100939190610076565b565b34610042576100a5366004610037565b6100bc6100b061006a565b60405191829182610083565b0390f35b805b0361004257565b90503590610093826100c0565b6002111561004257565b90503590610093826100d6565b634e487b7160e01b600052604160045260246000fd5b90601f01601f1916810190811067ffffffffffffffff82111761012557604052565b6100ed565b9061009361013760405190565b9283610103565b67ffffffffffffffff811161012557602090601f01601f19160190565b0190565b90826000939282370152565b9092919261018061017b8261013e565b61012a565b93818552818301116100425761009391602085019061015f565b9080601f830112156100425781602061005c9335910161016b565b919091606081840312610042576101cc606061012a565b92813567ffffffffffffffff811161004257816101ea91840161019a565b8452602082013567ffffffffffffffff811161004257826102128360409361021d960161019a565b6020870152016100c9565b6040830152565b60e0818303126100425761023882826100c9565b9261024683602084016100c9565b9261025481604085016100c9565b9261026282606083016100e0565b92608082013567ffffffffffffffff8111610042576102868461005c9285016101b5565b9360c06102968260a087016100c9565b94016100c9565b34610042576102bc6102b0366004610224565b959490949391936103e4565b604051005b61005c90610050565b61005c90546102c1565b61005c90610050906001600160a01b031682565b61005c906102d4565b61005c906102e8565b6100c281610050565b90505190610093826102fa565b906020828203126100425761005c91610303565b6040513d6000823e3d90fd5b1561033757565b60405162461bcd60e51b815260206004820152602760248201527f4f6e6c79207468652063656e7472616c2062616e6b2063616e206265207468656044820152661039b2b73232b960c91b6064820152608490fd5b1561039357565b60405162461bcd60e51b815260206004820152602360248201527f43656e7472616c2062616e6b2063616e6e6f74206265207468652072656365696044820152623b32b960e91b6064820152608490fd5b909594939291956103fd6103f860036102ca565b6102f1565b96633f65c4a191602061040f60405190565b809a61041b8660e01b90565b82526004820184905260249082905afa9283156104f95761047f996000946104fe575b5060209061046661045761045260016102ca565b610050565b61046087610050565b14610330565b6104736103f860036102ca565b6040519b8c9260e01b90565b82526004820185905260249082905afa9384156104f957610093996000956104c8575b506104c36104b361045260016102ca565b6104bc87610050565b141561038c565b610d04565b6104eb91955060203d6020116104f2575b6104e38183610103565b810190610310565b93386104a2565b503d6104d9565b610324565b602091945061051990823d84116104f2576104e38183610103565b939061043e565b61005061005c61005c9290565b61005c90610520565b1561053d57565b60405162461bcd60e51b815260206004820152601a60248201527f496e76616c69642073656e646572206f722072656365697665720000000000006044820152606490fd5b1561058957565b60405162461bcd60e51b815260206004820152602660248201527f53656e64657220616e642052656365697665722063616e6e6f74206265207468604482015265652073616d6560d01b6064820152608490fd5b61005c61005c61005c9290565b156105f157565b60405162461bcd60e51b8152602060048201526012602482015271496e76616c696420706172616d657465727360701b6044820152606490fd5b9061063861017b8361013e565b918252565b610647600461062b565b631514119d60e21b602082015290565b61005c61063d565b610669600761062b565b660545046744476560cc1b602082015290565b61005c61065f565b1561068b57565b60405162461bcd60e51b815260206004820152601360248201527210dbdb9d1c9858dd1cc81b9bdd08199bdd5b99606a1b6044820152606490fd5b634e487b7160e01b600052601160045260246000fd5b818102929181159184041417156106ef57565b6106c6565b90505190610093826100c0565b906020828203126100425761005c916106f4565b60005b8381106107285750506000910152565b8181015183820152602001610718565b61075961076260209361015b9361074d815190565b80835293849260200190565b95869101610715565b601f01601f191690565b9061005c906040806107a26107906060850160008801518682036000880152610738565b60208701518582036020870152610738565b940151910152565b602080825261005c9291019061076c565b156107c257565b60405162461bcd60e51b81526020600482015260136024820152721514119d08191bd95cc81b9bdd08195e1a5cdd606a1b6044820152606490fd5b90610807906105dd565b600052602052604060002090565b61005c9081565b61005c9054610815565b1561082d57565b60405162461bcd60e51b815260206004820152601460248201527309ee4c8cae440c8decae640dcdee840dac2e8c6d60631b6044820152606490fd5b61005c9060a01c5b60ff1690565b61005c9054610869565b634e487b7160e01b600052602160045260246000fd5b600211156108a157565b610881565b9061009382610897565b156108b757565b60405162461bcd60e51b815260206004820152601d60248201527f43616c6c6572506172742063616e6e6f74206265207468652073616d650000006044820152606490fd5b61005c90610871565b61005c90546108fc565b600311156108a157565b906100938261090f565b1561092a57565b60405162461bcd60e51b815260206004820152601660248201527513dc99195c88185b1c9958591e48195e1958dd5d195960521b6044820152606490fd5b8015156100c2565b9050519061009382610968565b906020828203126100425761005c91610970565b90959492610093946109c96109d0926109c26080966109b860a088019c6000890190610076565b6020870190610076565b6040850152565b6060830152565b0152565b9060ff905b9181191691161790565b61005c90610919565b906109fc61005c610a03926109e3565b82546109d4565b9055565b610a11600361062b565b6221a7a760e91b602082015290565b61005c610a07565b610a32600361062b565b6241545560e81b602082015290565b61005c610a28565b9a99979196610ab6610ad29760a0610ab18f9995610abd966100939f9a610aa4906101209f8e610a9d610ac49e610a93606094610a8c61014086019a6000870152565b6020850152565b6040830190610076565b0190610076565b8b820360808d015261076c565b980152565b60c08c0152565b60e08a0152565b878203610100890152610738565b940152565b61005c61012061012a565b9061007f90610050565b9061007f906108a6565b9061007f90610919565b90600019906109d9565b90610b1a61005c610a03926105dd565b8254610b00565b61005c9051610050565b906001600160a01b03906109d9565b90610b4a61005c610a03926102f1565b8254610b2b565b61005c90516108a6565b9060ff60a01b9060a01b6109d9565b61005c906108a6565b90610b8361005c610a0392610b6a565b8254610b5b565b61005c9051610919565b6007610c5c61010061009394610bb4610bae600083015190565b86610b0a565b610bcc610bc360208301610b21565b60018701610b3a565b610bfa60028601610be8610be260408501610b21565b82610b3a565b610bf460608401610b51565b90610b73565b610c11610c08608083015190565b60038701610b0a565b610c28610c1f60a083015190565b60048701610b0a565b610c3f610c3660c083015190565b60058701610b0a565b610c56610c4d60e083015190565b60068701610b0a565b01610b8a565b91016109ec565b9061009391610b94565b999896610cd7610ccf610cde93610ad2988e610cc26101209c9a6100939f99610ce59b610cae610cb892610ca76101408801996000890152565b6020870152565b6040850190610076565b6060830190610076565b608081840391015261076c565b9560a08d0152565b60c08b0152565b60e0890152565b86810361010088015260038152622620a760e91b602082015260400190565b9690939791949295610d16600061052d565b97610d2089610050565b610d2989610050565b1415806111b0575b610d3a90610536565b610d56610d468b610050565b610d4f8a610050565b1415610582565b610d6060006105dd565b81118061119e575b80611187575b610d77906105ea565b610d87610d82610657565b6111f9565b94610db8610d96610d8261067c565b9a610da081610050565b610da989610050565b1415908161116c575b50610684565b610dce6103f8610dc887876106dc565b976102f1565b6020610dd960405190565b9182906386e36b1b60e01b82528180610df589600483016107aa565b03915afa9a8b156104f9578c9160009c61113b575b50610e278c610e20610e1c60006105dd565b9190565b14156107bb565b610e3561005c8560006107fd565b610e416006820161081c565b610e4e610e1c60006105dd565b03610f2757505091610f088a610ec87fccb757c839859eee5849aec3e7775f996721a031a9ef1225e74b5535a032a1529d610ec1610f0d96610eb8610f229e9d9c9b9a99610eaf610e9d610ad7565b97610ea68b8a52565b60208901610ae2565b60408701610ae2565b60608501610aec565b6080830152565b610ed38660a0830152565b610ede8760c0830152565b610ee94260e0830152565b610ef860006101008301610af6565b610f038360006107fd565b610c63565b6105dd565b99610f1760405190565b98899842978a610c6d565b0390a2565b91509a85989795939694928b610f51610f4b610f45600187016102ca565b92610050565b91610050565b1480611121575b8061110d575b806110f9575b806110e0575b610f7390610826565b6002830190610f8182610877565b90610f8b906108a6565b90610f95906108a6565b1415610fa0906108b0565b600783019c610fae8e610905565b610fb86000610919565b90610fc290610919565b14610fcc90610923565b610fd5906102f1565b610fde906102f1565b92600101610feb906102ca565b90610ff5906102ca565b908661100060405190565b9b8c948594636060519360e01b865261101c9460048701610991565b03815a602094600091f180156104f9577fccb757c839859eee5849aec3e7775f996721a031a9ef1225e74b5535a032a1529a610f22986000926110ab575b5061106d9082156110a3576001906109ec565b156110985761108361107d610a41565b956105dd565b9a61108d60405190565b998a9942988b610a49565b61108361107d610a20565b6002906109ec565b61106d9192506110d29060203d6020116110d9575b6110ca8183610103565b81019061097d565b919061105a565b503d6110c0565b50610f736110f06005850161081c565b87149050610f6a565b506111066004840161081c565b8514610f64565b5061111a6003840161081c565b8214610f5e565b508d611135610f4b610f45600287016102ca565b14610f58565b61115e919c5060203d602011611165575b6111568183610103565b810190610701565b9a38610e0a565b503d61114c565b6111769150610050565b61117f8c610050565b141538610db2565b50610d7761119560006105dd565b85119050610d6e565b506111a960006105dd565b8311610d68565b50610d3a6111bd8a610050565b6111c68c610050565b14159050610d31565b61015b6111e7926020926111e1815190565b94859290565b93849101610715565b61005c916111cf565b602061127091611207600090565b5061122f61121460405190565b809261122385830191826111f0565b90810382520382610103565b61124161123a825190565b9160200190565b2061124f6103f860026102ca565b6040519384928391829163118c894b60e01b83526004830190815260200190565b03915afa9081156104f957600091611286575090565b61005c915060203d6020116104f2576104e3818361010356fea26469706673582212200c4125cd2ef1c95e8efa58dc17a1fc4e4f65495d89d5f6c96adce1c9daed812464736f6c63430008190033",
  "linkReferences": {},
  "deployedLinkReferences": {}
}